S0260000636869702D65667233322D6C696768742D7377697463682D6578616D706C652E7333373E
S21400000000000420953C0200933C0200293D0600B7
S214000010DDF40000933C0200933C0200933C020097
S214000020933C0200933C0200933C0200813F020096
S214000030933C02008C00002041400200E1BA01001F
S214000040933C02003DC60A00933C0200933C02002B
S21400005089BE0A0095C60A0049C60A0061C60A009B
S21400006041C60A004DD00000B9D10000933C020002
S214000070BB3A0000933C0200933C0200933C020013
S214000080933C0200933C0200D9D10000933C02004E
S214000090933C0200933C0200933C0200933C020017
S2140000A0933C0200933C0200933C0200933C020007
S2140000B099C60A0045C60A00E5FD0000D5C60A0036
S2140000C0933C0200E9AD0A00933C0200933C020018
S2140000D0933C0200933C0200933C0200933C0200D7
S2140000E0933C0200933C0200933C0200933C0200C7
S2140000F0933C0200933C0200933C0200933C0200B7
S214000100933C0200933C0200933C020010B5054C61
S214000110237833B9044B13B10448AFF300800123AE
S214000120237010BD500800200000000048B40C00EA
S21400013008B5034B1BB103490348AFF3008008BD65
S214000140000000005408002048B40C00A3F5803AD4
S214000150704700BF174B002B08BF134B9D46FFF799
S214000160F5FF00218B460F461348144A121AB2F0C8
S21400017047FC0E4B002B00D098470D4B002B00D0B1
S21400018098470020002104000D000D48002802D0EA
S2140001900C48AFF30080B2F05FFB2000290003F0AC
S2140001A0C7FBB2F0CFF900BF000008000000000057
S2140001B0000000000000042050080020A0DB022001
S2140001C000000000000000000020704770477047E5
S2140001D02D2070472D2070470020704770476C20F8
S2140001E07047012070470000044A0260044A02601B
S2140001F0044A0260044A0260704700BFFC190C0003
S21400020020430B00C8420B008C420B0010B504467E
S214000210104B036003F13402026103F154020262E0
S21400022003F16802426203F17C0282629033C36289
S214000230443046F08FFA084BE362084BA362084B43
S2140002406362084B2362084B2361084B23602046F9
S21400025010BD00BF449C0B006C430B000C430B000E
S214000260B4420B0078420B003C420B005C420B0091
S21400027038B50546A0F12C04154B40F82C3C03F18C
S214000280340240F81C2C03F1540240F80C2C03F105
S214000290680240F8082C03F17C0240F8042C9033E6
S2140002A0E362183046F056FA0A4BE3620A4B45F80A
S2140002B0043C0A4B45F8083C094B45F80C3C094BF6
S2140002C045F81C3C084B45F82C3C204638BD00BF82
S2140002D0449C0B006C430B000C430B00B4420B0019
S2140002E078420B003C420B005C420B0038B50546DA
S2140002F0A0F12804144B40F8283C03F1340240F8DF
S214000300182C03F1540240F8082C03F1680240F858
S214000310042C03F17C02A262903343601C3046F04A
S21400032019FA0A4B6B600A4BA3620A4B45F8043C69
S214000330094B45F8083C094B45F8183C084B45F86E
S214000340283C204638BD00BF449C0B006C430B0085
S2140003500C430B00B4420B0078420B003C420B00EF
S2140003605C420B0038B50546A0F12404134B40F858
S214000370243C03F1340240F8142C03F1540240F8F4
S214000380042C03F16802626203F17C02426090333F
S2140003908360203046F0DEF9094BAB60094B6B609A
S2140003A0094B6362094B45F8043C094B45F8143C7D
S2140003B0084B45F8243C204638BD00BF449C0B0043
S2140003C06C430B000C430B00B4420B0078420B004E
S2140003D03C420B005C420B0038B50546A0F12004F9
S2140003E0124B40F8203C03F1340240F8102C03F185
S2140003F05402226203F16802426003F17C028260CA
S2140004009033C360243046F0A5F9094BEB60094BE6
S214000410AB60094B6B60094B2362094B45F8103CF7
S214000420084B45F8203C204638BD00BF449C0B00D6
S2140004306C430B000C430B00B4420B0078420B00DD
S2140004403C420B005C420B0038B505460446124B96
S21400045040F8103C03F1340244F8102903F154022A
S214000460226203F16802626203F17C02A2629033A8
S214000470E362343046F06EF9084BE362084BA36241
S214000480084B6362084B2362084B2361084B45F810
S214000490103C204638BD00BF449C0B006C430B004C
S2140004A00C430B00B4420B0078420B003C420B009E
S2140004B05C420B00032809D8DFE800F0020A0604B5
S2140004C0044870470448704704487047044870471B
S2140004D004487047183F0B00043F0B000C3F0B000E
S2140004E0E83E0B00F43E0B0005280ED8DFE800F0CF
S2140004F0030F0507090B074870470748704707486A
S21400050070470748704707487047074870470748CE
S214000510704700BF7C3F0B00343F0B004C3F0B0086
S214000520603F0B006C3F0B00E83E0B00283F0B00C3
S21400053038B5164B1B78BFF35B8F13F0010F01D055
S214000540134838BD1148B1F00DFB0028F8D0104C08
S214000550104B2360104B2360104B23602046104B3B
S21400056040F8043B62252A460021B2F049FA2A46A2
S214000570002104F16600B2F043FA0448B1F0FEFA36
S214000580084A09492046B1F0E6FAD9E76C08002087
S214000590700800208C420B00C8420B0020430B0062
S2140005A0FC190C0000000020E9010000012800D022
S2140005B070474FF6FF739942FAD130B583B0FFF714
S2140005C0B7FF024601258DF804500024ADF806401A
S2140005D02848294B03600571C48031238360C460BA
S2140005E08DF80050ADF80240244901610575C482BB
S2140005F08361C461224B0362224B4362224B8362B7
S214000600224BC362224B036003F13401016103F104
S2140006105401016203F16801416203F17C018162C9
S2140006209033C3620563426382634FF0FF33C36354
S21400063044648464A0F84C400465446580F85840DF
S21400064080F85C4080F8844080F8A54080F8A84098
S2140006500264C4630F4A1049B1F07DFA0F4B83F869
S2140006608150C3F8C84083F8CC4083F8CD4003B02F
S21400067030BD00BF280B00205C420B003C420B0044
S21400068078420B00B4420B000C430B006C430B008B
S214000690449C0B00000000200D020000E00B002030
S2140006A010B584B00C4600230093164B164A102152
S2140006B00A201BF091FE154B186090B1144B029364
S2140006C0144B019301230093104B4FF480621249A0
S2140006D020461CF089FD114B186050B1002004B074
S2140006E010BD0F4863F0E0F940F2017000F010FC16
S2140006F0E4E70C4863F0D8F940F2027000F008FC1A
S214000700ECE700BFD40A0020340A0020240A0020A8
S2140007106C090020B00C0020B03F0B00280A002017
S2140007208C3F0B00B43F0B0030B5A7B004460D4617
S21400073029B1364B1D60364863F0B6F909E03548F6
S21400074063F0B2F92F2000F0E3FBF2E70A201CF07A
S2140007508FFF04F03BFB0028F8D02F4863F0A4F985
S2140007602E482FF035FB2E4B009323460022012106
S2140007702C481DF08DFC2C4B1860002832D02B4BDB
S2140007800093234601220A2129481DF081FC294BAB
S214000790186078B32849294863F086F903F027F9EA
S2140007A02749284803F040F961F0B0FA0368D3F807
S2140007B08430984705AB03938123049339F004FEF5
S2140007C003A939F0ABFDE8B91F4C049A03992046FB
S2140007D00BF01DFF0122114620460BF08BFF002078
S2140007E027B030BD194863F05FF940F2047000F09E
S2140007F08FFBC4E7164863F057F940F2047000F028
S21400080087FBC7E7134863F04FF9E8E7680900205D
S214000810EC3F0B00D03F0B0000400B00280B0020E5
S214000820A10B000014400B002C0A00203909000020
S21400083038400B006409002060400B006C400B0041
S214000840E46B0B0048090020E00B00201C400B0066
S21400085044400B008C400B0010B52E4863F0FDFBA7
S214000860C8B92D4B1B78022B38D02C4B1B6813B104
S214000870DB7D002B2DD12A4B1B78002B39D0294B42
S2140008801B78002B35D0284B1B785BB301212748FB
S21400089003F0B8F822E0264C204665F06EFF204BA9
S2140008A01870204665F07AFF1E4B1870637C042B88
S2140008B014BF002301231C4A1370204665F028FF4E
S2140008C0003818BF01201B4B1870124863F0CFFB8E
S2140008D0C7E7FA221146154803F0E4F8134803F078
S2140008E0B7F810BD322240F2B631104803F0DAF8FD
S2140008F0F4E7104B1B782BB1642211460B4803F02B
S214000900D1F8EBE740F2B6323221084803F0CAF8D5
S214000910E4E700BF103B0220B01C0020680900205E
S214000920300A002040090020600900204809002005
S214000930507C0220310A002008B5FFF78DFF08BD65
S21400094000B583B0002200921346032109480068D0
S2140009501DF0F0FB28B1084B00221A7003B05DF8BA
S21400096004FB064863F0A0F840F2067000F0D0FAE8
S214000970F1E700BF2C0A0020320A0020A4400B003A
S21400098010B582B00446114B18681DF087FD78B983
S214000990642300930023224604210C4800681DF0BF
S2140009A0C9FB01280AD10A4B01221A7002B010BDF9
S2140009B0084863F079F8FFF7C3FFE9E7064863F0F5
S2140009C073F840F2057000F0A3FAECE72C0A00205A
S2140009D0320A0020BC400B00D8400B000388012BD5
S2140009E02BD110B5154B1B781BB1154A1278012A6E
S2140009F005D01BB1124B1B78022B17D010BD40F64A
S214000A00B831104863F050F840F6B830FFF7B8FF3A
S214000A100B4B02221A700C4C0021204602F0F2FF0B
S214000A204FF4FA71204603F043F8E7E7044B002240
S214000A301A70064876F0CAF8E0E77047320A0020D7
S214000A40B01C0020F4400B0048090020A87C0220BF
S214000A5010B50379012B0CD01F4B1B781BB11F4A16
S214000A601278012A15D01BB11C4B1B78022B2AD0FA
S214000A7010BD194B1B78002BFAD1184B1B78002B96
S214000A80F6D140F6B830FFF77BFF144B01221A7000
S214000A90EEE7FFF755FF114B00221A7010480BF0D7
S214000AA03EFE104865F069FE48B90E4C012120460E
S214000AB065F016FE0021204665F01AFED8E70A48C3
S214000AC062F0F2FFD4E7FFF73BFF044B00221A70F8
S214000AD0064862F0E9FFCBE7320A0020B01C00208F
S214000AE0E00B0020507C022034410B0074410B00C8
S214000AF010B582B00B4B1C681CF084FC0246002329
S214000B000093012120461DF015FB012801D102B0FB
S214000B1010BD054862F0C8FF40F2057000F0F8F915
S214000B20F5E700BF6409002094410B0000487047B9
S214000B30E00B002000B583B0164B1B682BB30146B4
S214000B40EFF3058343B90122124800681BF010FD3D
S214000B50B8B103B05DF804FB0023019301AA0D4869
S214000B6000681BF033FE019B002BF1D04FF0E02312
S214000B704FF08052C3F8042DBFF34F8FBFF36F8F33
S214000B80E6E7054862F090FFE3E7044862F08CFF72
S214000B90DFE700BF240A0020AC410B00DC410B005D
S214000BA000B585B00123ADF800300190034B0393E8
S214000BB06846FFF7BFFF05B05DF804FBDD090000DF
S214000BC008B5CB6813B10846984708BD014862F0DF
S214000BD06BFFFAE704420B0010B50446124B0360A5
S214000BE003F13402026103F15402026203F1680267
S214000BF0426203F17C0282629033C362443045F065
S214000C00A9FD0A4BE3620A4BA3620A4B63620A4BD6
S214000C1023620A4B23610A4B2360B8212046B0F0BA
S214000C209FFF204610BD00BF449C0B006C430B008A
S214000C300C430B00B4420B0078420B003C420B0006
S214000C405C420B0038B50546A0F12C04174B40F863
S214000C502C3C03F1340240F81C2C03F1540240F8FB
S214000C600C2C03F1680240F8082C03F17C0240F8D3
S214000C70042C9033E362183045F06CFD0C4BE362B5
S214000C800C4B45F8043C0C4B45F8083C0B4B45F820
S214000C900C3C0B4B45F81C3C0A4B45F82C3CB82149
S214000CA02046B0F05DFF204638BD00BF449C0B00D8
S214000CB06C430B000C430B00B4420B0078420B0055
S214000CC03C420B005C420B0038B50546A0F12804F8
S214000CD0164B40F8283C03F1340240F8182C03F178
S214000CE0540240F8082C03F1680240F8042C03F183
S214000CF07C02A262903343601C3045F02BFD0C4B07
S214000D006B600C4BA3620C4B45F8043C0B4B45F850
S214000D10083C0B4B45F8183C0A4B45F8283CB821D4
S214000D202046B0F01DFF204638BD00BF449C0B0097
S214000D306C430B000C430B00B4420B0078420B00D4
S214000D403C420B005C420B0038B50546A0F124047B
S214000D50154B40F8243C03F1340240F8142C03F100
S214000D60540240F8042C03F16802626203F17C022C
S214000D70426090338360203045F0ECFC0B4BAB6058
S214000D800B4B6B600B4B63620B4B45F8043C0B4BF9
S214000D9045F8143C0A4B45F8243CB8212046B0F0F0
S214000DA0DFFE204638BD00BF449C0B006C430B00A2
S214000DB00C430B00B4420B0078420B003C420B0085
S214000DC05C420B0038B50546A0F12004144B40F8F1
S214000DD0203C03F1340240F8102C03F15402226246
S214000DE003F16802426003F17C0282609033C360C4
S214000DF0243045F0AFFC0B4BEB600B4BAB600B4B62
S214000E006B600B4B23620B4B45F8103C0A4B45F8C6
S214000E10203CB8212046B0F0A3FE204638BD00BFD7
S214000E20449C0B006C430B000C430B00B4420B00BD
S214000E3078420B003C420B005C420B0038B505467E
S214000E400446144B40F8103C03F1340244F81029D1
S214000E5003F15402226203F16802626203F17C022B
S214000E60A2629033E362343045F074FC0A4BE362CE
S214000E700A4BA3620A4B63620A4B23620A4B236146
S214000E800A4B45F8103CB8212046B0F069FE2046D3
S214000E9038BD00BF449C0B006C430B000C430B009A
S214000EA0B4420B0078420B003C420B005C420B0045
S214000EB010B50446064B0360064B0360064B036002
S214000EC0064B0360D021B0F04BFE204610BD00BF9D
S214000ED0FC190C0020430B00C8420B008C420B0090
S214000EE008B54FF6FF710120FFF760FB08BD000054
S214000EF008B50146054862F0D7FD4FF0300383F38E
S214000F001188BFF36F8FBFF34F8FFEE778430B0058
S214000F1008B5FFF7EDFF0000124A12F0070F1ED0CB
S214000F20D11D21F00701C1F5084313440A460E48B7
S214000F300260002141601344083B23F007030B487E
S214000F40036059601960991A51601360084B196064
S214000F50084B1960084B4FF000421A6070474FF478
S214000F600843E4E7B81C0020CCA40020B41C0020F2
S214000F70C0A40020BCA40020B8A4002010B560B314
S214000F8004461CF037FA54F8043C154A126813421B
S214000F900FD054F8081CC9B14FF0300383F3118802
S214000FA0BFF36F8FBFF34F8F0E490F48B2F0C4F8F0
S214000FB0FEE74FF0300383F31188BFF36F8FBFF364
S214000FC04F8F0A490848B2F0B7F8FEE723EA020353
S214000FD0A3F108041CF0C8FA00E00024204610BD67
S214000FE0B8A40020F4430B00D8430B00A8430B0022
S214000FF0014B1868704700BFBCA40020014B18685E
S214001000704700BFC0A4002008B522F0CBFF034BFA
S2140010101A68034B1A6022F0EFFF08BDBCA400203C
S214001020C0A40020F8B507461CF0E4F9174B1B686F
S21400103093B14FF0FF3600252C4604E01B68144A97
S21400104012689A420CD001345A68AA4200D9154652
S214001050B242F3D21646F1E74FF0FF3600252C4693
S2140010601CF082FA7D60BE60FC6022F09BFF094B9C
S2140010701B683B60084B1B687B61084B1B68BB61A9
S214001080074B1B683B6122F0B7FFF8BDCCA40020DD
S214001090B41C0020BCA40020C4A40020C8A40020C7
S2140010A0C0A4002010B588B00446164B1B6893B148
S2140010B0144B1A461B68A342FBD351685018A04233
S2140010C00DD06168601883420ED02360944200D031
S2140010D0146008B010BD01A8FFF7A4FFE8E7606839
S2140010E0014451601446ECE707480068834206D086
S2140010F05B681944616013681B682360E6E720603C
S214001100E4E700BFCCA40020B41C002038B5044699
S2140011101CF070F9444B1B68EBB1444B1B681C4237
S2140011201CD1631E13F10A0F0BD804F1080214F049
S214001130070F05D022F007030833934260D91A46FA
S21400114082B91CF011FA002563F0A2F915F0070F1A
S2140011505CD1284638BDFFF7DFFEDEE71CF004FA58
S2140011600025F1E7324B1B68934202D331490C68E5
S21400117005E01CF0F9F90025E6E721461C46636801
S214001180934202D22368002BF7D1274B1B68A34259
S21400119018D00D68083523680B6063689B1A102BFF
S2140011A018D9A01810F0070F10D04FF0300383F3B3
S2140011B01188BFF36F8FBFF34F8F1F491F48B1F0E1
S2140011C0BBFFFEE71CF0D0F90025BDE74360626078
S2140011D0FFF768FF626816490B689B1A0B60184990
S2140011E009688B4201D216490B60104B1B681343EB
S2140011F0636000232360134A13680133136000E022
S21400120000251CF0B1F9002DA0D19DE74FF030036A
S21400121083F31188BFF36F8FBFF34F8F0A490748D8
S214001220B1F08AFFFEE700BFB41C0020B8A400207F
S214001230BCA40020CCA4002014440B00D8430B0010
S214001240C0A40020C4A4002050440B0038B501FB05
S21400125000F419B1B4FBF1F181420AD12046FFF740
S21400126055FF054618B122460021B1F0C9FB2846B5
S21400127038BD0025FBE7000000283CD038B5044602
S214001280A0F1080550F8043C1B4A126813420FD020
S21400129050F8081CC9B14FF0300383F31188BFF330
S2140012A06F8FBFF34F8F15491548B1F045FFFEE726
S2140012B04FF0300383F31188BFF36F8FBFF34F8F68
S2140012C010490F48B1F038FFFEE723EA020340F862
S2140012D0043C1CF08FF854F8041C0B4A13680B44AB
S2140012E013602846FFF7DEFE084A136801331360D2
S2140012F01CF03AF938BD7047B8A40020F4430B0040
S214001300D8430B00A8430B00BCA40020C8A40020B0
S214001310F8B505460C46FFF731FED8B10746A4B12E
S214001320A04201D12E461AE021460120FFF78EFF8B
S2140013300646A0B13A46A74228BF22462946B1F043
S21400134037FB2846FFF798FF09E02846FFF794FF8B
S214001350002604E021460120FFF778FF06463046C7
S214001360F8BD08B50EF064FD18F018FA62F090FBB0
S21400137008BD10B582B00022ADF8062003689C6850
S2140013800DF10603A047192802D020B1002000E086
S214001390012002B010BD0120FBE7052B01D800207C
S2140013A070472F2070470000014B0360704700BF56
S2140013B0B0460B00024A0260024A0260704700BF55
S2140013C0D4460B00B0460B00024A0260024A026096
S2140013D0704700BFC0460B00B4450B00024A0260CF
S2140013E0024A0260704700BF90460B00C8450B00DB
S2140013F0034A0260034A0260034A0260704700BF65
S214001400C0350C0008350C005C460B00024A026032
S214001410024A0260704700BFE8380C007C460B00AA
S21400142008B502F037FE08BD038848F20102934271
S21400143004D048F20202934212D0704790F9082076
S214001440012AF6D110B5094862F02EFB58F03CF898
S21400145003685C690023064A40F6B831A04710BD11
S21400146090F90930012BE8D1ECE700BF90440B005F
S21400147021140000012800D0704708B54FF6FF730E
S214001480994200D008BD0948094B0360094B036028
S214001490002343608360C36003744361037643762E
S2140014A0054A0649B0F057FBECE700BF90A70020BE
S2140014B024460B00A4150C00000000209D5F0600CB
S2140014C010B50446034B03603821B0F049FB2046B4
S2140014D010BD00BFB0460B0010B50446044B0360B9
S2140014E0044B03603821B0F03BFB204610BD00BF24
S2140014F0D4460B00B0460B0010B50446044B036000
S214001500044B03600421B0F02BFB204610BD00BF47
S214001510C0460B00B4450B0010B50446044B0360F0
S214001520044B03600821B0F01BFB204610BD00BF33
S21400153090460B00C8450B0008B5104B0360D0F86A
S214001540F4317BB9D0F8483173B9D0F804316BB9AF
S214001550D0F8983063B9436D63B9036963B9084B33
S214001560036008BDB0F0BAFFB0F0B8FFB0F0B6FF49
S214001570B0F0B4FFB0F0B2FFB0F0B0FF50270C00F0
S21400158038450B0038B504460C4B036043688BB1F6
S214001590437C4BB9C5683DB135B12B681B682846FE
S2140015A09847284660F04CFC0023E360637423747D
S2140015B023726360024B2360204638BD30E70B0081
S2140015C024460B00406818B108B562F005FA08BD5D
S2140015D003207047406858B100B583B04FF0000C48
S2140015E08DF807C032B162F0C9F903B05DF804FBAC
S2140015F0032070470BB12F20F7E70DF10702F2E743
S21400160070B582B00446A34B1B78BFF35B8F13F014
S214001610010F45D0A04B1B78BFF35B8F13F0010F73
S2140016204CD09E4B1B78BFF35B8F13F0010F53D04B
S2140016309B4B1B78BFF35B8F13F0010F6AD0994B5F
S2140016401B78BFF35B8F13F0010F00F0D180964B31
S2140016501B78BFF35B8F13F0010F00F0DD80934B18
S2140016601B78BFF35B8F13F0010F00F0EB8023694C
S214001670002B00F0F680236B002B00F0F780636BE6
S214001680002B00F051818A4D216928466BF004FF3B
S21400169028466AF00DFF002800F0598102B070BDA0
S2140016A07C48B0F05FFA0028B4D07A48B0F066FA0A
S2140016B0804A81498148B0F04EFAABE77648B0F0F0
S2140016C051FA0028ADD07448B0F058FA794A7C49EF
S2140016D07C48B0F040FAA4E77048B0F043FA00281F
S2140016E0A6D0794D794B2B60794B2B6000236B602D
S2140016F02B72EB602B616B61AB61EB612B6285F843
S21400170024306648B0F03AFA6A4A72492846B0F081
S21400171022FA8DE76248B0F025FA00288FD0644898
S2140017206D4B036003238380C380002585606B4B6D
S2140017300360C56014230093022300F1280200F121
S2140017402C01103055F0BCFB2B46002B01DB013B77
S214001750FBE7634A142300930223111DA2F118002D
S21400176055F0AEFB0023002B01DB013BFBE75D4A97
S214001770282300930223111DA2F1180055F0A0FBA8
S2140017800023002B01DB013BFBE7574A14230093A1
S2140017900223111DA2F1180055F092FB0023002B26
S2140017A001DB013BFBE7514A482300930223111D4E
S2140017B0A2F1180055F084FB0023002B01DB013B4F
S2140017C0FBE74B4A2C2300930223111DA2F11800BD
S2140017D055F076FB0023002B01DB013BFBE730488E
S2140017E0B0F0CCF9334A43493148B0F0B4F926E7B3
S2140017F02C48B0F0B7F900283FF429AF3E4D3F4BD8
S2140018002B603F4B2B602748B0F0B8F9294A3D497A
S2140018102846B0F0A0F91AE72348B0F0A3F900284C
S2140018203FF41DAF384D394B2B60394B2B60394B8D
S2140018302B601D48B0F0A2F91E4A37492846B0F082
S2140018408AF90CE71948B0F08DF900283FF40FAF7D
S2140018501648B0F093F9174A30493148B0F07BF992
S21400186005E7164B2F4A5A60236104E72269154B99
S2140018705B6833B1032000287FF410AF114B23635D
S214001880FDE6104B0020187258745A60D860187421
S214001890F1E700BF88A7002084A7002058A70020F3
S2140018A0ECA40020E4A40020D8A40020D4A40020A7
S2140018B0F0A4002000000020DD1300001C00002023
S2140018C085150000080000205CA70020E8450B00F6
S2140018D0602A0C009119000038450B0050270C00B8
S2140018E05CA50020A0A500200CA6002050A6002085
S2140018F0FCA6002039150000E8A40020B4450B0023
S214001900C0460B00C9130000DCA400205C460B0098
S21400191008350C00C0350C00F11300000D14000053
S21400192004000020003B02202569144B5B6833B19D
S214001930032000287FF4B2AE104B6363A3E60F4E7D
S21400194033689B6A3046984775600020F1E70C4B79
S214001950E361236983B10B4A5360002000287FF4BB
S2140019609DAE084B63615CF045FB2062064B6362EC
S214001970064BA361002091E62F20EFE75CA700202E
S214001980F0A40020DCA4002004000020E8A400202E
S21400199010B50446124B0360436823B1104B9B6A94
S2140019A098470023636000222262E06918B160F065
S2140019B047FA0023E3610022A261606918B160F073
S2140019C03FFA0023636100222261E06818B160F0EC
S2140019D037FA0023E360034B2360204610BD00BFA8
S2140019E0602A0C00E8450B0010B5134B0360D0F8D6
S2140019F0F431ABB90446D0F848319BB9D0F804317D
S214001A0093B9D0F898308BB9436D8BB903698BB90D
S214001A100A4B03604FF41A71B0F0A2F8204610BDCE
S214001A20B0F05CFDB0F05AFDB0F058FDB0F056FDD9
S214001A30B0F054FDB0F052FD50270C0038450B00B6
S214001A4010B50446144B0360436823B1124B9B6ADF
S214001A5098470023636000222262E06918B160F0B4
S214001A60EFF90023E3610022A261606918B160F01B
S214001A70E7F90023636100222261E06818B160F094
S214001A80DFF90023E360054B236028212046B0F0F1
S214001A9067F8204610BD00BF602A0C00E8450B0022
S214001AA038B504460E4B036043688BB1437C4BB994
S214001AB0C5683DB135B12B681B682846984728464F
S214001AC060F0BEF90023E3606374237423726360DE
S214001AD0044B236014212046B0F042F8204638BD5F
S214001AE030E70B0024460B0038B504463749384823
S214001AF011F084FF374D284661F0D6FF2146364860
S214001B0061F0D2FF284661F0CFFF38F05DFC034657
S214001B1000B10433184657F05BFC38F055FC57F01C
S214001B205BFB2E4861F0C0FF0021084655F040F9E7
S214001B3000B138BD2A4B1B7883B300200028F8D1AB
S214001B402146284864F0DCFD274862F07FFA274BE0
S214001B501B78BFF35B8F13F0010F28D0244D284667
S214001B6064F0DCFA234C25632046FFF749FD214646
S214001B70214875F0C3F81C4C204662F078FA002223
S214001B801E49204662F086F91D4861F08DFF20460A
S214001B9062F02EFB0028CCD10020CAE7104D284664
S214001BA062F07EFBB0FA80F35B092B70C6E70F4845
S214001BB0AFF0D8FF0028D1D00C48AFF0DFFF114AB5
S214001BC011490C48AFF0C7FFC8E700BF216E0500FB
S214001BD0196E0500B8440B00EC440B00F8440B00EB
S214001BE0083B0220507C0220103B02208CA70020DD
S214001BF090A7002024000020A87C022029140000C2
S214001C0008450B0000000020B513000008B561F081
S214001C104BFC08BDB0F5803F2CBF0020012070476C
S214001C204068E0B170B584B01D4600238DF80F30D3
S214001C30BAB100230293019302AB00932B8861F0A4
S214001C407FFE0446192800D030B9029E3046FFF7C2
S214001C50E1FF68B900262E80204604B070BD032040
S214001C6070472B880BB12F20F7E70DF10F02E0E746
S214001C70B6B2F0E710B50446054B0360054B0360AB
S214001C80054B03600821AFF06BFF204610BD00BF78
S214001C90C0350C0008350C005C460B0010B5044639
S214001CA0044B0360044B03600421AFF059FF204649
S214001CB010BD00BFE8380C007C460B0008B54FF698
S214001CC0FF710120FFF7D6FB08BD0000024A026044
S214001CD0024A0260704700BF34480B0020480B00E1
S214001CE008B5034A02211D2055F0EEF908BD00BFD5
S214001CF0E0460B0008B5034A02211D2055F0E4F922
S214001D0008BD00BFF0460B0008B5044A02211D209E
S214001D1055F0DAF9024BFF221A7008BD00470B0097
S214001D205C000020038803B1704710B5102060F0F7
S214001D3061F8044630B10023036043608360C360EB
S214001D40012303800623A3600B4B1B787BB1002383
S214001D50094A13706360FEF7E9FE074B19780AF02C
S214001D604AFC22460549064862F0A4F910BD012344
S214001D706360014A1370EEE7ACA70020B9270000A5
S214001D80103B022001B300B585B00846002300933F
S214001D900193029303938DF804200C4B994205D0CF
S214001DA00B4B98420AD005B05DF804FB012AF7D128
S214001DB0084B03936846FEF7BDFEF4E7064B039315
S214001DC06846FEF7B7FEEEE7704700BFB06B0B0045
S214001DD0986B0B00251D0000510A000010B5044644
S214001DE0044B0360044B03600821AFF0B9FE2046A5
S214001DF010BD00BF34480B0020480B00012800D05F
S214001E0070474FF6FF739942FAD130B585B00F4D43
S214001E100023039302930E4B0193022300930D4B72
S214001E200D4A012128462DF0E7FC0C4C22460C49B1
S214001E302846AFF090FE0B480B4B03600B4B03603D
S214001E4022460B49AFF087FE05B030BDB0A7002094
S214001E50751E0000F51C0000E11C000000000020BC
S214001E6035F80200CCA7002020480B0034480B00B1
S214001E70CD1C000070B50446244A02211D2055F0F2
S214001E8023F9237D224A13700B2B10D0204B1B788E
S214001E90FE2B23D015D8022B32D857F015FB03683B
S214001EA05D6923461B4A41F28831A84770BDA37D71
S214001EB0194A02211D2055F007F9A27D144B1A700D
S214001EC0E4E7FF2B1CD157F0FFFA03689B69224614
S214001ED0104998470E4BFF221A70E7E757F0F4FABE
S214001EE003689B690B4D22462946984757F0ECFA43
S214001EF003685E6923462A464FF47A71B047D5E7F1
S214001F00064A02211D2055F0DFF8CFE71C470B00DC
S214001F105C000020091D000034470B0088470B00BA
S214001F2010B50446FEF702FE00220E490AF0F4FA47
S214001F300D492046FEF7F8FB28B900F04FFC044692
S214001F4048B9204610BD0446084861F0ADFD20465D
S214001F50FEF7DEFFF1E7064861F0A6FD2046FEF735
S214001F60D7FFEEE7A0470B00B0A70020B0470B0056
S214001F70D0470B0030B585B004681148FFF7D0FF96
S214001F80B0B9FEF7B5FD0F4861F08EFD4FF0FF3299
S214001F90694620461AF028FD0128F7D16946084808
S214001FA0FEF70EFE0022694620461AF01DFDF3E7F6
S214001FB00546054861F078FD2846FEF7A9FFE0E7EC
S214001FC0CCA7002004480B00EC470B0008B50249DC
S214001FD0FEF766FB08BD00BF751F000008B54FF68C
S214001FE0FF710120FFF70AFF08BD00002DE9F04150
S214001FF084B00F4616461D464468D0F80880A3B243
S2140020000093230C144A02211D2055F05DF8072C7E
S21400201004D0032C11D004B0BDE8F0812B780396D1
S214002020029301971FFA88F300934FEA18430B4A6E
S21400203002211D2055F048F8EDE72B780396029311
S21400204001971FFA88F300934FEA1843044A0221C7
S2140020501D2055F039F8DEE740480B0060480B00BD
S214002060B4480B00704701207047042070470000FA
S2140020709FED037B80ED007B00220272704700BF5D
S21400208000000000000000009FED037B80ED007B59
S21400209000220272704700BF00000000000000002F
S2140020A010B5044620220021B0F0AAFC00232361CC
S2140020B06361A361204610BD002070470000000049
S2140020C09FED037B80ED007B704700BFAFF3008081
S2140020D0000000000000000001207047012070474B
S2140020E0024A0260024A0260704700BF30EB0B00F3
S2140020F0584A0B00704710B540680468A468A047AB
S21400210010BD08B540680368DB68984708BD08B589
S21400211083683BB100225A6283681B8913F0400F24
S21400212000D18260406803681B69984708BD08B5FF
S214002130406803685B69984708BD704770470000B1
S21400214000228260024AC260024A8260704700BF74
S214002150192200007121000000228260024AC2603B
S214002160024A8260704700BF052200008B210000F3
S214002170012A02D1016000207047022AFBD0032A00
S214002180F9D0012AF7D10160F5E7012A02D10160F2
S21400219000207047022AFBD0032AF9D0012AF7D183
S2140021A00160F5E7012A02D1016000207047022A8B
S2140021B005D0032AF9D0012AF7D10160F5E70B68AC
S2140021C00360F2E7012A02D1016000207047022A6C
S2140021D005D0032AF9D0012AF7D10160F5E70B688C
S2140021E00360F2E7012A02D1016000207047022A4C
S2140021F005D0032AF9D0012AF7D10160F5E70B686C
S2140022000360F2E708B50B68024A0121002054F08B
S2140022105BFF08BDF8480B0008B5034A0221002002
S21400222054F052FF08BD00BF14490B0008B510B1AA
S2140022305FF006FE08BD024A012154F045FFF9E7AB
S2140022402C490B0010B584B0084B0193084A029243
S214002250D3F8143D0393074C01A9204629F080FAD1
S214002260054BE363054B636304B010BD28A0022052
S214002270908D0220243601200D3800002D2200000B
S2140022800E4B1B78BFF35B8F13F0010F01D00C4889
S214002290704710B50948AFF065FC08B9084810BD8E
S2140022A0074C084B2360084B23600448AFF066FCDD
S2140022B0064A07492046AFF04EFCEFE7D4A70020B9
S2140022C0D8A70020584A0B0030EB0B000000002077
S2140022D0E120000008B5B0F001F9000008B5094B90
S2140022E01B78BFF35B8F13F0010F09D10548AFF0E1
S2140022F039FC28B1044856F02FFF0248AFF03EFCE8
S214002300B0F0ECF8DCA70020E0A7002008B50369D1
S214002310B3F1FF3F02D00133036108BDB0F0DEF831
S21400232010B582B00446194B03600190DB689847ED
S21400233003E0101F03689B689847A268231D9A4213
S21400234003D01046002AF4D1F4E723681B69204620
S214002350984723699BB923460D4A43F8042B5A68CD
S2140023609A420ED1616871B15A6862B14A6061687A
S2140023701160002262605A60204602B010BDB0F0C4
S214002380ADF8B0F0ABF8B0F0A9F800BF1C4A0B00EF
S214002390E0490B0008B5036913B1013B036108BDB2
S2140023A0B0F09CF810B504460B4B036083686BB125
S2140023B000225A62806854F071FF20B9A3681B8916
S2140023C013F0400F02D0A06855F05FF80023A3601A
S2140023D0024B2360204610BD944A0B00744A0B0043
S2140023E010B504460D4B036083686BB100225A6239
S2140023F0806854F053FF20B9A3681B8913F0400F80
S21400240002D0A06855F041F80023A360044B236077
S2140024100C212046AFF0A4FB204610BD944A0B00CA
S214002420744A0B0010B582B004461B4B0360019043
S214002430DB68984703E0101F03689B689847A2680C
S214002440231D9A4203D01046002AF4D1F4E72368ED
S2140024501B69204698472369BBB923460F4A43F8B1
S214002460042B5A689A4212D1616891B15A6882B1B7
S2140024704A6061681160002262605A601821204636
S214002480AFF06EFB204602B010BDB0F027F8B0F0FB
S21400249025F8B0F023F800BF1C4A0B00E0490B00FB
S2140024A010B504460C4B40F8243B836813B1032256
S2140024B00146984704F11400836813B103220146CD
S2140024C09847201D836813B1032201469847034BA3
S2140024D02360204610BD00BFD04A0B00B44A0B0054
S2140024E010B504460E4B40F8243B836813B1032214
S2140024F00146984704F11400836813B1032201468D
S2140025009847201D836813B1032201469847054B60
S214002510236038212046AFF023FB204610BD00BFC5
S214002520D04A0B00B44A0B0070B506460C68002C67
S21400253036D02546294B45F8803B294BC4F88030D9
S214002540A86808B157F05AF90023AB60686808B16C
S21400255057F054F900236B60224BC4F88030A06C0F
S21400256008B157F04BF90023A364251D1E4B63608A
S214002570AB686BB100225A62A86854F08FFE20B98F
S214002580AB681B8913F0400F02D0A86854F07DFF9B
S2140025900023AB60154B6360236020465FF050FC61
S2140025A03468D4B12046124B40F8243B836813B1FC
S2140025B003220146984704F11400836813B10322EE
S2140025C001469847201D836813B1032201469847A9
S2140025D0084B236020465FF033FC70BD4CC90B00EF
S2140025E060F40B00BC490B00944A0B00744A0B00C5
S2140025F0D04A0B00B44A0B0070B506460C68002C97
S21400260036D02546294B45F8803B294BC4F8803008
S214002610A86808B157F0F2F80023AB60686808B104
S21400262057F0ECF800236B60224BC4F88030A06CA7
S21400263008B157F0E3F80023A364251D1E4B636022
S214002640AB686BB100225A62A86854F027FE20B926
S214002650AB681B8913F0400F02D0A86854F015FF32
S2140026600023AB60154B6360236020465FF0E8FBF9
S2140026703468D4B12046124B40F8243B836813B12B
S21400268003220146984704F11400836813B103221D
S21400269001469847201D836813B1032201469847D8
S2140026A0084B236020465FF0CBFB70BD4CC90B0087
S2140026B060F40B00BC490B00944A0B00744A0B00F4
S2140026C0D04A0B00B44A0B0070B506460C68002CC6
S2140026D036D02546294B45F8803B294BC4F8803038
S2140026E0A86808B157F08AF80023AB60686808B19C
S2140026F057F084F800236B60224BC4F88030A06C3F
S21400270008B157F07BF80023A364251D1E4B6360B9
S214002710AB686BB100225A62A86854F0BFFD20B9BE
S214002720AB681B8913F0400F02D0A86854F0ADFECA
S2140027300023AB60154B6360236020465FF080FB90
S2140027403468D4B12046124B40F8243B836813B15A
S21400275003220146984704F11400836813B103224C
S21400276001469847201D836813B103220146984707
S214002770084B236020465FF063FB70BD4CC90B001E
S21400278060F40B00BC490B00944A0B00744A0B0023
S214002790D04A0B00B44A0B0010B50446044B036045
S2140027A0044B03600421AFF0DBF9204610BD00BFE8
S2140027B030EB0B00584A0B0008B530B10346826870
S2140027C00188044829F03CF908BD034A012154F069
S2140027D07BFCF9E72436012060490B0008B500228F
S2140027E00249034861F066FC002008BD452200004F
S2140027F0103B022000B583B0019183682BB1C368FB
S21400280001A9984703B05DF804FBAFF0EDF908B5F1
S21400281090F8343003B108BD012380F834301146F7
S2140028201430FFF7E7FFF6E710B5846814B1C46804
S214002830A04710BDAFF0D8F911461A4690F83430CC
S21400284093B900B583B0012380F83430049B33B1CC
S2140028508E211430FFF7CEFF03B05DF804FB01AB0A
S2140028600430FFF7E1FFF7E7704738B5044600236A
S21400287083608B6833B10D4602229847EB68E360AD
S214002880AB68A360204638BD38B504460023836095
S2140028908B6833B10D4602229847EB68E360AB685D
S2140028A0A360204638BD0000002282600160024A14
S2140028B0C260024A8260704729250000A5210000F8
S2140028C0002282600160024AC260024A826070474B
S2140028D0F9250000C5210000002282600160024A3E
S2140028E0C260024A82607047C9260000E5210000E7
S2140028F038B50446002383608B6833B10D46022248
S2140029009847EB68E360AB68A360204638BD08B51F
S214002910014602985BF099FC08BD00002DE9F043E3
S214002920A1B0064688469946ADF818200023ADF8B3
S2140029301A30062307930223089301238DF82430C8
S21400294038205FF057FA0446002830D0289918A897
S214002950FFF78BFF299914A8FFF796FF002512951D
S2140029607F4B236020467F4B40F8043B18A9FFF7B7
S2140029707CFF14A904F11400FFF786FF10A904F1E8
S2140029802400FFF7B5FF84F83450129B1BB10322D6
S21400299010A908469847169B1BB1032214A908469F
S2140029A098471A9B1BB1032218A90846984700238C
S2140029B005930594002C57D021460AA8FFF774FF0C
S2140029C004F124051CAF0AA93846FFF791FF02ABB5
S2140029D097E8030083E8030095E8030087E8030010
S2140029E093E8030085E803001E9BAA681E92AB606E
S2140029F01F9BEA681F92EB601E9B1BB103223946A1
S214002A00384698470C9B1BB103220AA908469847EC
S214002A102A9B1D7894205FF0EDF9074620B12B46DF
S214002A203246214644F0F8FB002304930497EFB1A6
S214002A30002206A9384644F079FE0546002878D0DC
S214002A40ADB92B9B1B788DF8383013B12B9B5B6888
S214002A500F930EAA4146384644F062FF054630B949
S214002A6000250595049502E00B253EE00B25049C09
S214002A70002C38D0002C36D026463B4B46F8803B00
S214002A803A4BC4F88030B06808B156F0B7FE002361
S214002A90B360706808B156F0B1FE00237360344B23
S214002AA0C4F88030A06C08B156F0A8FE0023A364DA
S214002AB0261D304B6360B3686BB100225A62B06863
S214002AC054F0ECFB20B9B3681B8913F0400F02D01A
S214002AD0B06854F0DAFC0023B360274B63602360D1
S214002AE020465FF0ADF900230493059CDCB1D4B119
S214002AF020461C4B40F8243B836813B10322014652
S214002B00984704F11400836813B1032201469847DE
S214002B10201D836813B1032201469847104B23609B
S214002B2020465FF08DF900230593284621B0BDE8C6
S214002B30F083384644F064FD80B1CDF80090012261
S214002B404FF0FF33FFF7E3FE054600287FF478AF2B
S214002B502A99384644F04BFE054671E703256FE791
S214002B60B44A0B00D04A0B004CC90B0060F40B00B3
S214002B70BC490B00944A0B00744A0B002DE9F04345
S214002B808FB004460D4616461F460DF114081699DA
S214002B904046FFF76AFE0DF1240917994846FFF7ED
S214002BA073FE00238DF83430189B03930DAB02930D
S214002BB0CDF80490CDF800803B46324629462046A4
S214002BC0FFF7ACFE04460B9B1BB103224946484662
S214002BD09847079B1BB1032205A90846984720463D
S214002BE00FB0BDE8F083000070B590B005461E46F5
S214002BF002230024ADF82840ADF82A4006200B90AA
S214002C000C938DF83430ADF82A205D4B049305AB59
S214002C10059306938DF81C4008945A4B0493ADF820
S214002C2024208DF81C1094205FF0E4F8044620B1B0
S214002C3000232A46194644F0EFFA00230393039430
S214002C40CCB100228DF83C200AA9204644F06EFD47
S214002C500546002854D07DB904A80E90049BDB6876
S214002C6098470EA9204644F007FE05460E980368CE
S214002C701B69984700E00B25002C38D0002C36D076
S214002C802646414B46F8803B404BC4F88030B0683F
S214002C9008B156F0B3FD0023B360706808B156F073
S214002CA0ADFD002373603A4BC4F88030A06C08B1C9
S214002CB056F0A4FD0023A364261D364B6360B3685C
S214002CC06BB100225A62B06854F0E8FA20B9B368D3
S214002CD01B8913F0400F02D0B06854F0D6FB0023D7
S214002CE0B3602D4B6360236020465FF0A9F8002395
S214002CF00393244B049304A80290DB68984718E0DB
S214002D00204644F07DFC70B1009601224FF0FF3360
S214002D10FFF7FDFD054600289DD10FA9204644F08B
S214002D2066FD054697E7032595E7101F03689B6831
S214002D309847069A05AB9A4203D01046002AF4D16B
S214002D40F4E7049B1B6904A89847089B93B90C4BAF
S214002D500493069A05AB9A420ED1059A72B1069B69
S214002D6063B15360059A1A600023059306932846BC
S214002D7010B070BDAFF0B2FBAFF0B0FBAFF0AEFB83
S214002D80E0490B001C4A0B004CC90B0060F40B001A
S214002D90BC490B00944A0B00744A0B0008B5014668
S214002DA002985BF03BFA08BD2DE9F043A1B0064659
S214002DB0884699460123ADF818200022ADF81A205F
S214002DC00622079208938DF8243038205FF012F818
S214002DD00446002830D0289918A8FFF746FD299900
S214002DE014A8FFF751FD00251295804B236020465E
S214002DF07F4B40F8043B18A9FFF737FD14A904F1F0
S214002E001400FFF741FD10A904F12400FFF770FD40
S214002E1084F83450129B1BB1032210A90846984729
S214002E20169B1BB1032214A9084698471A9B1BB190
S214002E30032218A908469847002305930594002CFA
S214002E4057D021460AA8FFF73BFD04F124051CAF26
S214002E500AA93846FFF74CFD02AB97E8030083E863
S214002E60030095E8030087E8030093E8030085E87D
S214002E7003001E9BAA681E92AB601F9BEA681F9207
S214002E80EB601E9B1BB103223946384698470C9BC5
S214002E901BB103220AA9084698472A9B1D7894204E
S214002EA05EF0A8FF074620B12B463246214644F086
S214002EB0B3F9002304930497EFB1002206A938461D
S214002EC044F034FC0546002878D0ADB92B9B1B781F
S214002ED08DF8383013B12B9B5B680F930EAA4146D2
S214002EE0384644F01DFD054630B900250595049585
S214002EF002E00B253EE00B25049C002C38D0002C6D
S214002F0036D026463B4B46F8803B3B4BC4F88030D9
S214002F10B06808B156F072FC0023B360706808B160
S214002F2056F06CFC00237360344BC4F88030A06C01
S214002F3008B156F063FC0023A364261D304B636083
S214002F40B3686BB100225A62B06854F0A7F920B992
S214002F50B3681B8913F0400F02D0B06854F095FA9E
S214002F600023B360274B6360236020465EF068FF53
S214002F7000230493059CDCB1D4B120461C4B40F8DA
S214002F80243B836813B103220146984704F11400DA
S214002F90836813B1032201469847201D836813B146
S214002FA0032201469847114B236020465EF048FFF7
S214002FB000230593284621B0BDE8F083384644F048
S214002FC01FFB80B1CDF8009001224FF0FF33FFF7D2
S214002FD0E5FE054600287FF478AF2A99384644F087
S214002FE006FC054671E703256FE700BFB44A0B00F1
S214002FF0D04A0B004CC90B0060F40B00BC490B0018
S214003000944A0B00744A0B002DE9F0438FB0044637
S2140030100D4616461F460DF1140816994046FFF752
S21400302024FC0DF1240917994846FFF72DFC0023D0
S2140030308DF83430189B03930DAB0293CDF80490B3
S214003040CDF800803B46324629462046FFF7ACFEC8
S21400305004460B9B1BB10322494648469847079BEC
S2140030601BB1032205A90846984720460FB0BDE8C5
S214003070F083000070B590B005461E460024ADF8FB
S2140030802840ADF82A4006230B9301230C93022315
S2140030908DF83430ADF82A205D4B049305AB0593CC
S2140030A006938DF81C4008945A4B0493ADF82420E0
S2140030B08DF81C1094205EF09DFE044620B100237F
S2140030C02A46194644F0A8F8002303930394CCB18B
S2140030D000228DF83C200AA9204644F027FB05462E
S2140030E0002854D07DB904A80E90049BDB6898474E
S2140030F00EA9204644F0C0FB05460E9803681B69DF
S214003100984700E00B25002C38D0002C36D02646F9
S214003110414B46F8803B414BC4F88030B06808B15C
S21400312056F06CFB0023B360706808B156F066FB7F
S214003130002373603A4BC4F88030A06C08B156F098
S2140031405DFB0023A364261D364B6360B3686BB13A
S21400315000225A62B06854F0A1F820B9B3681B89FF
S21400316013F0400F02D0B06854F08FF90023B3601C
S2140031702D4B6360236020465EF062FE00230393BF
S214003180244B049304A80290DB68984718E0204676
S21400319044F036FA70B1009601224FF0FF33FFF785
S2140031A0FDFD054600289DD10FA9204644F01FFBD3
S2140031B0054697E7032595E7101F03689B68984721
S2140031C0069A05AB9A4203D01046002AF4D1F4E7DB
S2140031D0049B1B6904A89847089B93B90C4B04935F
S2140031E0069A05AB9A420ED1059A72B1069B63B158
S2140031F05360059A1A60002305930693284610B07C
S21400320070BDAFF06BF9AFF069F9AFF067F900BFCA
S214003210E0490B001C4A0B004CC90B0060F40B0085
S214003220BC490B00944A0B00744A0B0008B50146D3
S21400323002985AF0DCFF08BD2DE9F043A1B006461F
S21400324088469946ADF818200023ADF81A300622B5
S2140032500792089301238DF8243038205EF0CAFDCB
S2140032600446002830D0289918A8FFF7FEFA2999B6
S21400327014A8FFF709FB00251295804B2360204613
S2140032807F4B40F8043B18A9FFF7EFFA14A904F1A6
S2140032901400FFF7F9FA10A904F12400FFF728FB41
S2140032A084F83450129B1BB1032210A90846984795
S2140032B0169B1BB1032214A9084698471A9B1BB1FC
S2140032C0032218A908469847002305930594002C66
S2140032D057D021460AA8FFF7FFFA04F124051CAFD1
S2140032E00AA93846FFF704FB02AB97E8030083E819
S2140032F0030095E8030087E8030093E8030085E8E9
S21400330003001E9BAA681E92AB601F9BEA681F9272
S214003310EB601E9B1BB103223946384698470C9B30
S2140033201BB103220AA9084698472A9B1D789420B9
S2140033305EF060FD074620B12B463246214643F03C
S2140033406BFF002304930497EFB1002206A93846CA
S21400335044F0ECF90546002878D0ADB92B9B1B78D5
S2140033608DF8383013B12B9B5B680F930EAA41463D
S214003370384644F0D5FA054630B90025059504953B
S21400338002E00B253EE00B25049C002C38D0002CD8
S21400339036D026463B4B46F8803B3B4BC4F8803045
S2140033A0B06808B156F02AFA0023B360706808B116
S2140033B056F024FA00237360344BC4F88030A06CB7
S2140033C008B156F01BFA0023A364261D304B636039
S2140033D0B3686BB100225A62B06853F05FFF20B941
S2140033E0B3681B8913F0400F02D0B06854F04DF854
S2140033F00023B360274B6360236020465EF020FD09
S21400340000230493059CDCB1D4B120461C4B40F845
S214003410243B836813B103220146984704F1140045
S214003420836813B1032201469847201D836813B1B1
S214003430032201469847114B236020465EF000FDAC
S21400344000230593284621B0BDE8F083384644F0B3
S214003450D7F880B1CDF8009001224FF0FF33FFF788
S214003460E5FE054600287FF478AF2A99384644F0F2
S214003470BEF9054671E703256FE700BFB44A0B00A7
S214003480D04A0B004CC90B0060F40B00BC490B0083
S214003490944A0B00744A0B002DE9F0438FB00446A3
S2140034A00D4616461F460DF1140816994046FFF7BE
S2140034B0DCF90DF1240917994846FFF7E5F90023D2
S2140034C08DF83430189B03930DAB0293CDF804901F
S2140034D0CDF800803B46324629462046FFF7ACFE34
S2140034E004460B9B1BB10322494648469847079B58
S2140034F01BB1032205A90846984720460FB0BDE831
S214003500F0832DE9F041A4B015461C4601282FD0C3
S214003510022804D0002854D024B0BDE8F081B1F8C9
S2140035200C8006AE4FF000013046FEF709FE0AAFEB
S2140035304FF000013846FEF70FFE00238DF83830B6
S2140035400EAB02930197009605AB424621462846ED
S214003550FFF714FB0C9B1BB10322394638469847ED
S214003560089B002BD8D0032206A908469847D3E725
S214003570B1F80C8010AE4FF000013046FEF7E0FDCB
S21400358014AF4FF000013846FEF7E6FD00238DF835
S214003590603018AB02930197009605AB4246214671
S2140035A02846FFF731FD169B1BB1032239463846E5
S2140035B09847129B002BAFD0032210A908469847C5
S2140035C0AAE7B1F80C801AAE4FF000013046FEF7BD
S2140035D0B7FD1EAF4FF000013846FEF7BDFD0023D5
S2140035E08DF8883022AB02930197009605AB4246D1
S2140035F021462846FFF750FF209B1BB10322394681
S214003600384698471C9B002B86D003221AA90846EA
S214003610984781E770B590B005461E460024ADF881
S2140036202840ADF82A4006230B930C9402238DF80D
S2140036303430ADF82A205D4B049305AB0593069312
S2140036408DF81C4008945A4B0493ADF824208DF84E
S2140036501C1094205EF0CEFB044620B100232A46C0
S214003660194643F0D9FD002303930394CCB10022FE
S2140036708DF83C200AA9204644F058F80546002854
S21400368054D07DB904A80E90049BDB6898470EA919
S214003690204644F0F1F805460E9803681B699847E3
S2140036A000E00B25002C38D0002C36D02646414BA7
S2140036B046F8803B404BC4F88030B06808B156F0FE
S2140036C09DF80023B360706808B156F097F80023A1
S2140036D073603A4BC4F88030A06C08B156F08EF890
S2140036E00023A364261D364B6360B3686BB10022CB
S2140036F05A62B06853F0D2FD20B9B3681B8913F044
S214003700400F02D0B06853F0C0FE0023B3602D4BCC
S2140037106360236020465EF093FB00230393244BF4
S214003720049304A80290DB68984718E0204643F00C
S21400373067FF70B1009601224FF0FF33FFF776FD6A
S214003740054600289DD10FA9204644F050F80546AE
S21400375097E7032595E7101F03689B689847069A26
S21400376005AB9A4203D01046002AF4D1F4E7049B36
S2140037701B6904A89847089B93B90C4B0493069AB8
S21400378005AB9A420ED1059A72B1069B63B153609F
S214003790059A1A60002305930693284610B070BD5C
S2140037A0AEF09CFEAEF09AFEAEF098FEE0490B003E
S2140037B01C4A0B004CC90B0060F40B00BC490B0004
S2140037C0944A0B00744A0B0000B583B001280CD055
S2140037D0022803D080B103B05DF804FB01AB0A8A6F
S2140037E049780948FFF700FAF5E701AB0A8A4978F5
S2140037F00548FFF73FFCEEE701AB0A8A4978024826
S214003800FFF708FFE7E700BF40970220F0B583B058
S2140038104AB105460C4616460378032B09D0012B01
S21400382012D003B0F0BD204A0121002053F04CFC1A
S214003830F7E7127B002AF2D0B368062BF1D10146D7
S2140038407068FFF7C1FFECE7307B0028E9D1B3686A
S214003850062BE6D11CB3E3681BB123689B6A20469F
S2140038609847E0B1776823689B69204698470646E4
S2140038702368DB692146684698479DF8003083B187
S21400388001AB324629463846FFF73BFE9DF800302E
S214003890002BC6D0019803681B699847C1E7AEF0B5
S2140038A01DFEAEF01BFE00BF8C490B0000B583B0BA
S2140038B0019183682BB1C36801A9984703B05DF8EE
S2140038C004FBAEF091F908B52430FFF7EFFF08BD12
S2140038D0024A0260024A0260704700BFD8C00B006E
S2140038E0504B0B00012800D0704708B54FF6FF7309
S2140038F0994200D008BD034A03490448AEF02BF9AC
S214003900F8E700BF00000020D1380000600000206B
S21400391010B50446044B0360044B03600821AEF068
S2140039201FF9204610BD00BFD8C00B00504B0B003F
S21400393010B5FDF716FD1B48FEF7D6F850BB1A4C1F
S2140039401A4BD3F89410204655F026FD204655F025
S2140039502FFD174C204660F079FB6EF0A7FC66F052
S21400396097F9204660F083FB124860F09DF81248F5
S214003970FEF72CFB90B9114860F096F80CF064FA4C
S21400398053F02EFA0E4860F08FF8AC20FDF7C0FA20
S214003990002010BDAC20FDF7BBFAD0E7AC20FDF749
S2140039A0B7FAE8E7E44A0B0060000020A8AC022063
S2140039B0103B0220F84A0B00CCA700200C4B0B0053
S2140039C0284B0B0070B50446044D2B689E6809F022
S2140039D092F8024621462846B04770BDCCA7002084
S2140039E008B54FF6FF710120FFF77CFF08BD08B54C
S2140039F01DF034FC08BD006918B108B51DF0B1FB18
S214003A0008BD704708B50023C3608360002200230A
S214003A10C0E90023006910B111B11DF098FB08BD84
S214003A201DF09AFBFBE7000008B59FED077B80EDD5
S214003A30007B00228260C26001611146FFF7E2FF50
S214003A4008BD00BFAFF300800000000000000000CB
S214003A50836823B370B582B00446C368ABB1104B1D
S214003A6019680B68DB6868469847009E019D2069C8
S214003A701DF07CFB58B1A168236862685B1842F1B0
S214003A800002B34272EB050303D302B070BDE168D7
S214003A90F2E72046FFF7AFFF26606560F5E7704760
S214003AA03803002008B58160C260FFF7D1FF08BD6B
S214003AB008B50A46FFF7F6FF08BD704770B504461E
S214003AC00A694B6952EA03001ED08868C96810EB81
S214003AD0000C41EB010E1CEB000C41EB0E0E4FEA06
S214003AE04E1545EADC654FEA4C161CEB060C4EEB11
S214003AF0050E1CEB000041EB0E01AEF06DFB012342
S214003B0023706070204670BD002323706370F9E751
S214003B10D0E9020170472D2070472D2070474FF4E2
S214003B2080607047002383607047002343607047BF
S214003B30044A026020324260034A4260034A02603E
S214003B40704700BF644D0B00744A0B00444C0B00DA
S214003B500346064A40F8042C203240F80429044A5A
S214003B604260044A43F8042C704700BF644D0B00C3
S214003B70744A0B00444C0B00024A0260024A026080
S214003B80704700BF2CB30B001C4D0B00024A0260AE
S214003B90024A0260704700BF8CB20B00704C0B00EC
S214003BA010B50446064B036020334360054B436064
S214003BB0054B03601021ADF0D3FF204610BD00BFBB
S214003BC0644D0B00744A0B00444C0B0010B50446C1
S214003BD0084B40F8043C203344F80439064B636035
S214003BE0064B40F8043C10212046ADF0B9FF2046B5
S214003BF010BD00BF644D0B00744A0B00444C0B0014
S214003C0010B50446054B0360006B18B15EF018F95A
S214003C1000232363024B2360204610BD30140C00A3
S214003C20E84B0B0010B50446054B0360406B08B12B
S214003C3055F0E4FD00236363024B2360204610BD6D
S214003C40ACA80B001C4C0B0010B50446174B0360C9
S214003C506433436000F51C7056F0C0FD14F5EC723A
S214003C6005D004F5147300E0183B9A42FCD1104BC3
S214003C70E3672033C4F880300E4BC4F880300E4B18
S214003C80E36704F13800A36D13B10022A2659847DC
S214003C9004F10800A36A13B10022A2629847074BFA
S214003CA06360074B2360204610BD00BF70AF0B005B
S214003CB0644D0B00744A0B00444C0B00584C0B0030
S214003CC0C04C0B0038B505460446194B40F8043C7A
S214003CD0643344F8043900F51B7056F07FFD15F583
S214003CE0EA7205D004F5147300E0183B9A42FCD142
S214003CF0104BE3672033C4F880300F4BC4F8803095
S214003D000E4BE36704F13800A36D13B10022A265E1
S214003D10984704F10800A36A13B10022A2629847EC
S214003D20074B6360074B45F8043C204638BD00BF90
S214003D3070AF0B00644D0B00744A0B00444C0B0034
S214003D40584C0B00C04C0B0010B50446054A012128
S214003D500C2053F0B9F9E06810B103689B689847E7
S214003D6010BD00BF784B0B0010B50446054A012174
S214003D700C2053F0A9F9A06810B103689B68984717
S214003D8010BD00BF784B0B0030B583B0C068D8B10B
S214003D900D4614461A68019200221A6001AA2146AE
S214003DA030F0A8FA019808B155F028FD00230193D9
S214003DB00C4B1B680093A3886BB12B8943F0400320
S214003DC02B81002003B030BD074A01210C2053F0A0
S214003DD07BF90020F6E7E388002BEED12378402B12
S214003DE0EBD1EEE79C4D0B008C4B0B0030B583B04F
S214003DF08068D8B10D4614461A68009200221A60F0
S214003E006A46214630F076FA009808B155F0F6FC7E
S214003E10002300930C4B1B680193A3886BB12B897E
S214003E2043F040032B81002003B030BD074A012138
S214003E300C2053F049F90020F6E7E388002BEED17A
S214003E402378402BEBD1EEE79C4D0B008C4B0B0000
S214003E50F0B587B006460C46224A0321152053F0DB
S214003E6033F9B568002D2DD00023ADF810301E4B69
S214003E701B68039323893BB31C4A1268039253B30F
S214003E800123ADF81030277B606855F052FC63685C
S214003E90059304AB009305AB3A46A168284653F059
S214003EA0AFFC0446059808B155F0A8FC002305931E
S214003EB02CB1B06818B153F0CFFA0023B360204697
S214003EC007B0F0BD0320FBE76289022AD4D1227B2B
S214003ED0142AD1D1D7E76389002BD1D1237B402B7D
S214003EE0CED1D0E7C04B0B00A04D0B009C4D0B0075
S214003EF0012800D070474FF6FF739942FAD170B58B
S214003F008AB04C4B4C4A1A604C4A5A604C4A1A606B
S214003F1064325A6003F10802DA609A6000229A62FC
S214003F20DB6248491963CDF804D0CDF800D008927A
S214003F3003F13801D96399639A65DB6542491966CE
S214003F409A66DA661A6783F874209A673F49D967D3
S214003F503F49C3F880103F49D9672031C3F8801025
S214003F6083F8AC20C3F8B820C3F8BC20C3F8C02040
S214003F70C3F8C420C3F8C821C3F8CC2183F8D021E5
S214003F80C3F8D421042203F5EC7303E0002103F800
S214003F90181B013A002AF9DA26480024C0F85042D5
S214003FA00523C0F8543280F85842C0F87442C0F86E
S214003FB07842294BC0F8703280F87C42274E324651
S214003FC02749ADF0C8FD324626492748ADF0C3FD67
S214003FD0324626492648ADF0BEFD264D264B2B60C0
S214003FE06C602C722846254B40F8103B74F040F865
S214003FF0C5F8D040C5F8D440C5F8D840C5F8DC4070
S21400400032461F492846ADF0A6FD1E481E4B0360EB
S21400401000220023C0E90223C0E904231B4B0360EF
S2140040208461C4610463446332461949ADF093FD6C
S2140040300AB070BD00A90020C04C0B00584C0B0005
S21400404070AF0B00D966030025520300444C0B00EA
S214004050744A0B00644D0B00B8F60B0000000020FD
S214004060493C0000793B0000680000208D3B0000C2
S21400407070000020E8A700201C4C0B00ACA80B002A
S214004080253C0000C8A80020E84B0B0030140C00AC
S214004090013C0000F0B583B00F4F384630F00AFF01
S2140040A00E4901F54053D3F894300D4A53600D4E37
S2140040B00D4D00953346384631F008FC0B4B336106
S2140040C00B4C22463946304632F0B4FE094B636349
S2140040D025626C6003B0F0BD00A90020A87C022019
S2140040E06800002070000020E8A700208051010032
S2140040F0C8A80020D44B0B0010B50446194B03602B
S2140041006433436000F51C7056F068FB14F5EC72DF
S21400411005D004F5147300E0183B9A42FCD1124B0C
S214004120E3672033C4F88030104BC4F88030104B5F
S214004130E36704F13800A36D13B10022A265984727
S21400414004F10800A36A13B10022A2629847094B43
S2140041506360094B23604FF422712046ADF000FDEA
S214004160204610BD70AF0B00644D0B00744A0B0068
S214004170444C0B00584C0B00C04C0B0038B50546A1
S21400418004461B4B40F8043C643344F8043900F5FD
S2140041901B7056F023FB15F5EA7205D004F5147370
S2140041A000E0183B9A42FCD1124BE3672033C4F878
S2140041B08030114BC4F88030104BE36704F13800B0
S2140041C0A36D13B10022A265984704F10800A36A04
S2140041D013B10022A2629847094B6360094B45F869
S2140041E0043C4FF422712046ADF0BAFC204638BDA0
S2140041F070AF0B00644D0B00744A0B00444C0B0070
S214004200584C0B00C04C0B0010B50446044B036022
S214004210044B03600821ADF0A3FC204610BD00BF90
S2140042202CB30B001C4D0B0010B50446044B03606A
S214004230044B03601C21ADF093FC204610BD00BF6C
S2140042408CB20B00704C0B0010B50446074B036095
S214004250406B08B155F0D2FA00236363044B236029
S214004260E0212046ADF07CFC204610BDACA80B003B
S2140042701C4C0B0010B50446074B0360006B18B1CE
S2140042805DF0DEFD00232363044B236038212046C7
S214004290ADF066FC204610BD30140C00E84B0B0059
S2140042A008B54FF6FF710120FFF722FE08BD00009B
S2140042B010B5A4B04FF40042634964485FF0F4FBC5
S2140042C04FF42051624802F087FAB0F5205F00F202
S2140042D081805D495F485FF0E7FB312002F02AFBF2
S2140042E0044600287FD158495B485FF0DDFB5B4BF6
S2140042F002935B4B01930123009300234FF4E0628B
S2140043005849594818F070FF584B5860002870D02C
S2140043104D4957485FF0C8FB0021084602F01EF9D9
S214004320044600286CD1484952485FF0BDFB802205
S21400433004A9012001F0FCFD002867D100238DF8B8
S2140043408F3004AA40494C485FF0AEFB02F0B0F94B
S2140043500446002860D13C4948485FF0A5FB04F0BD
S214004360E7FF06224649022001F0E2FD0446002847
S21400437058D13E4C94F87E3094F87F2094F8801004
S21400438094F88100039002910192009394F87D3096
S21400439094F87C202C493B485FF086FB3A4817F09F
S2140043A05DFD20603949002001F084FF04460028A6
S2140043B03ED13749062001F07DFF044600283DD156
S2140043C02A4A938943F0010393811F4931485FF0DD
S2140043D06BFB05E0044602461B492F485FF064FB72
S2140043E0204624B010BD024617492C485FF05CFBFF
S2140043F0F6E715492A485FF057FB6FF00104EFE730
S2140044000246114927485FF04FFBE9E722460E496E
S21400441025485FF049FBE3E702460B4923485FF077
S21400442043FBDDE70246084921485FF03DFBD7E73E
S214004430024605491F485FF037FBD1E702460249AE
S2140044401D485FF031FBCBE794530B00A44D0B00E7
S21400445000C90020F44D0B003C4E0B0088AB00203A
S21400446040AC0020584E0B00BD6700006CC8002012
S2140044708C4E0B00DC4E0B00384F0B00944F0B009D
S214004480E8C80020E84F0B0044C80020D1440000D4
S214004490BD4400008C500B00C04D0B00084E0B00B6
S2140044A0604E0B00A44E0B00F44E0B00584F0B0052
S2140044B0B44F0B0014500B004C500B0000B170476B
S2140044C008B50B461146184607F0B8FE08BD0000B2
S2140044D010B502460A4CB4F88E300A490A485FF016
S2140044E0E3FAB4F88E300133A4F88E30A38923F0B3
S2140044F00803A3812021206817F0C2FD10BD00BF6D
S2140045006CC800207C530B0098500B0000B5ADF52E
S214004510057D0123009340F2022303AA00212048D0
S21400452001F028F90146D8B11E4B93F87220531EAD
S214004530DBB2012B25D91B4B93F87230072B27D003
S214004540184A92F872300191009302F1310310324A
S214004550154916485FF0A8FA0DF5057D5DF804FBD1
S2140045609DF815200F4B83F872209DF81420DA81F1
S214004570DDF83A20C3F88220BDF83E20A3F8862056
S214004580D2E70B4B1A70074B062283F87220D2E74D
S214004590074B03221A70034B0D2283F87220CFE7D5
S2140045A07CC800206CC8002064530B00C4500B006D
S2140045B064C8002010B582B0274B9B8913F0180FF3
S2140045C005D0264926485FF06FFA02B010BD224C8F
S2140045D094F87230009304F1310304F110021F497D
S2140045E020485FF061FAA38943F00803A3810EE038
S2140045F0194B998921F008019981B3F88E30174933
S21400460019485FF051FA4FF47A6019F031F8124AFF
S214004610B2F88E3001339BB2A2F88E30042B0BD842
S2140046200D48124B00F1310290F87210103001F074
S214004630E1F802460028DBD1074BB3F88E30052B95
S21400464005D00B4A05490B485FF02EFABDE7194620
S21400465009485FF029FAB8E76CC8002054530B00ED
S214004660F8500B0020510B0048510B007D4600000F
S2140046707CC80020A8510B0088510B0010B50446DA
S21400468002461A491A485FF00FFA1A4A938923F02D
S214004690080393811C20AEF017F9174B186000230F
S2140046A0036043608360C3600361436183619CB1C0
S2140046B0104CB4F88E200D4910485FF0F5F9B4F8A8
S2140046C08E3001339BB2A4F88E30042B0DD82021F7
S2140046D0206817F0D5FC08E0044909485FF0E4F9C3
S2140046E00121044B186817F0CBFC10BD44530B0097
S2140046F0D0510B006CC8002068C80020E4510B00A5
S214004700FC510B0010B582B004460E4B1B7880F8A7
S21400471021300D4BDA8980F82820D3F88220C0F8A3
S2140047202220B3F88630C38401220DF1070103204E
S21400473001F0FEFB18B99DF807305B42638502B0B6
S21400474010BD00BF64C800206CC8002030B589B01A
S2140047500446002301930293039304930593069360
S21400476007931C2201A90A2001F0E2FB054608BBBC
S214004770134A13681968019B5B1A2360136859680B
S214004780029A521A62609968039A521AA260D9680D
S214004790049A521AE2601969059A521A22615969F6
S2140047A0069A521A62619A69079B9B1AA361284669
S2140047B009B030BD014603485FF076F9F7E700BF61
S2140047C068C8002010520B0010B588B00023019373
S2140047D00293039304930593069307931C2201A95F
S2140047E00A2001F0A5FB044698B90C4B1A680199FB
S2140047F011601B68029A5A60039A9A60049ADA60FB
S214004800059A1A61069A5A61079A9A61204608B074
S21400481010BD014602485FF047F9F7E768C8002078
S21400482010520B0008B501F043FB08BDF0B5ADF51E
S2140048300B7DFFF73DFD002860D107F0ABFD18F0BB
S214004840E1FD0546002007F0ADFD064600F0F4FA4F
S214004850884989485FF028F9FA230093002301224B
S21400486033218648006817F03BFB044600284DD1EC
S214004870824B9B8913F0100F4ED114F0200F71D18C
S21400488014F0010F73D114F0020F40F0818014F081
S214004890100FE1D0794B9B8913F4806FDCD1754FF4
S2140048A0394677485FF000F900210D914FF4F87211
S2140048B00EA8AEF0A5F84FF4FA720DA9012001F08B
S2140048C0A9FA04464FF4FA73024639466D485FF07B
S2140048D0EBF8002C00F08E80684CA38923F48063EC
S2140048E0A381636F0020984700236367A06F0028AA
S2140048F0B2D0FCF7C1FC0022A267ADE702465D49D4
S21400490061485FF0D1F80DF50B7DF0BD02465949C0
S2140049105E485FF0C9F8ABE718F074FD074605F18E
S214004920FA038342A9D296F8A430302B01D005466C
S214004930A3E7574B1B780BB105469EE7012000F016
S214004940E1FA534B01221A70524B1B780BB13D46CD
S21400495093E75149104600F099FA4E4B01221A701F
S2140049603D468AE7FFF7D2FDFFF724FE88E7414978
S2140049704A485FF099F8414A938943F010039381BF
S2140049800023444A1370424A137007F0D1FC7AE7BA
S2140049903A4A938923F058039381364940485FF09A
S2140049A083F807F0E1FC002000F0ACFA0023384A58
S2140049B01370384A13706AE73A485FF075F82E238A
S2140049C004FB03F30DAA1A44517A8DF82910927A43
S2140049D05242ADF8322028330DAA1344D3F80620ED
S2140049E0CDF82A205B89ADF82E30244B5B6F02A8E9
S2140049F0984701349DF83430A3427FF76DAF2E21DF
S214004A0004FB01F108310DAB1944043102A8AEF0E5
S214004A1040FD1A4B9B6F002BCED023485FF044F826
S214004A20164F02AAB96F21485FF03EF802A9B86F88
S214004A30AEF025FD0028DCD11D485FF035F82E23AA
S214004A4004FB03F30DAA1A44517A8DF82910927AC2
S214004A505242ADF8322028330DAA1344D3F806206C
S214004A60CDF82A205B89ADF82E307B6F02A89847D8
S214004A70BFE700BFA4530B005C520B006CC80020BD
S214004A80C4520B00D8520B0030520B0074520B006D
S214004A9040C8002041C80020EEC8002094520B00F9
S214004AA0AC520B0038530B00F4520B0008530B00AB
S214004AB024530B0008B5034B1B68186A143003F028
S214004AC01DFD08BDB412012008B514301844ADF021
S214004AD06FFF08BD10B50446002343608360C360C3
S214004AE00361C1F30B01043003F0E0FE637943F089
S214004AF050036371A37943F00103A3710E4B18684A
S214004B002146243003F0A8FD0C4C226892F82A3087
S214004B1043F0010382F82A30012003F0E1FA20680E
S214004B2047F22471243004F0EDFB10B900F0D6FCF7
S214004B3010BD6FF01D00FBE7B4120120B812012073
S214004B4010B584B0154B9B8913F4007F19D1134C14
S214004B5043F40073A381124912485EF0A5FF124B7E
S214004B600293124B01930123009300234FF400623B
S214004B700F49104818F038FBA06040B1002004B080
S214004B8010BD07490C485EF08FFF0020F7E7044988
S214004B900A485EF089FF0120F1E700BF6CC80020DC
S214004BA01C550B00CC530B0000F10020B8F1002080
S214004BB0DC530B002D480000B4530B00E4530B00ED
S214004BC0024A938943F08003938170476CC80020A3
S214004BD0024B9889C0F3C010704700BF6CC8002015
S214004BE010B584B00D4AD06F0860B2F880308B8064
S214004BF092F87E3092F87F1092F8800092F881400A
S214004C00039402900191009392F87D3092F87C20F4
S214004C10034904485EF048FF04B010BD6CC800208D
S214004C20B8550B0008540B0070B50546084C2246D4
S214004C30084909485EF038FF632229462046ADF051
S214004C40B7FE34F8043C43F0040324F8043C70BD7B
S214004C507CC80020A0550B002C540B0068B108B58A
S214004C60074B9B8913F0040F01D1002008BD632277
S214004C700449ADF09DFE0120F8E70020704700BF14
S214004C806CC800207CC8002010B5084C63220021A8
S214004C902046ADF0B5FE34F8043C23F0040324F8B7
S214004CA0043C034903485EF0FFFE10BD7CC80020AC
S214004CB084550B003C540B0010B50D4B9B8913F02C
S214004CC0040F0ED00B4C2346A4F121020A490B48D0
S214004CD05EF0EAFE202154F8310C17F0D1F90020DE
S214004CE010BD054906485EF0DFFE2320F8E700BF4A
S214004CF06CC800209DC8002070550B004C540B005B
S214004D0080540B0008B5024902485EF0CDFE08BD8F
S214004D1054550B00A8540B0010B5084B988910F09A
S214004D20100FC0F3001406D0054A064906485EF088
S214004D30BBFE204610BD054AF7E700BF6CC8002042
S214004D40CC540B003C550B00D8540B00C8540B0039
S214004D50044B9B8913F0010F01D1002070470120FE
S214004D60704700BF6CC8002038B5094D2946094871
S214004D705EF09AFEFFF756FD0446074A938923F035
S214004D8010039381294605485EF08EFE204638BD06
S214004D902C550B00E8540B006CC800203C540B004C
S214004DA010B550B9064B9C89C4F300142246054939
S214004DB005485EF079FE204610BD0024F6E700BFE9
S214004DC06CC8002008550B00F8540B00024B98895D
S214004DD000F00100704700BF6CC8002008B5FFF760
S214004DE091FC08BD08B5FFF7B1FC08BD08B5FFF794
S214004DF0EBFC08BD38B50E4B5B6F0BB1002038BD21
S214004E0005460C4650B1AEF04CFB0130FCF77EF97F
S214004E10074B986750B12946AEF03BFB044B5C67E6
S214004E201021186817F02CF90120E8E70020E6E7C3
S214004E306CC800207047000010B586B010491148B5
S214004E405EF032FE00240294039404940594012339
S214004E508DF80A301023ADF8083069462046FFF773
S214004E60BFFE0098CDF81200BDF80430ADF816303D
S214004E7002AA214604485FF02DFA06B010BD00BF16
S214004E80D0550B00E8540B00083B022030B587B025
S214004E9004460D46154916485EF006FE012C06D05F
S214004EA02246124913485EF0FFFD07B030BD0F4999
S214004EB011485EF0F9FD00210191029103910491E1
S214004EC0059102238DF806301423ADF804300B4B01
S214004ED0DB89ADF8123028680390AB88ADF8103047
S214004EE001AA07485FF0F6F9DFE700BFE4550B00BC
S214004EF0E8540B00FC550B001C560B006CC8002039
S214004F00083B022010B582B00446274927485EF0C9
S214004F10CBFD0023019374B101238DF806300423E2
S214004F20ADF804300DEB0302012121485FF0D2F901
S214004F301CB902B010BD0223EFE7012018F098FB61
S214004F401C485FF083F81C4B1B78BFF35B8F13F095
S214004F50010F06D0194870F051FA16485FF087F82E
S214004F60E7E71548ACF0FEFD0028F3D0134C00230D
S214004F706360A36041F2A452A28141F2AE52E28184
S214004F802361237500200021C4E9060184F820303F
S214004F900123A3620848ACF0F1FD094A09492046FE
S214004FA0ACF0D9FDD6E700BF2C560B00E8540B003A
S214004FB0083B0220103B0220B8110120C01101203E
S214004FC000000020354E000009280AD108B5054B20
S214004FD04FF40072C3F82424034B1B6803B19847B0
S214004FE008BD704700A00040F011012008B501463A
S214004FF0024B186002485EF057FD08BDF011012014
S2140050003C560B00024B4FF40072C3F8282470473E
S21400501000A00044064B4FF480221A604FF48062D2
S2140050201A60044B4FF40072C3F82824704700BF80
S21400503000E100E000A0004682B0074B1B88ADF8F8
S2140050400030ADF80430054BD3F8A40F003818BF75
S214005050012002B0704700BF58560B0000001442F3
S21400506010B582B004460121094808F0FFF90CB1DA
S21400507002B010BD074B1B88ADF80030ADF8043009
S214005080012304220C21032009F0B8FDF0E700BF3D
S21400509000350A005C560B0000B1704700B583B0BF
S2140050A0074B1B88ADF80030ADF80430012307220B
S2140050B00C21032009F0A2FD03B05DF804FB00BF3D
S2140050C05C560B0068B982B0064B1B88ADF8003002
S2140050D0ADF80430044B4FF48052C3F89C2002B065
S2140050E0704770475C560B0000A0004408B50023CC
S2140050F0012B0EDC03EB4302064901EB82025268E9
S214005100824201D00133F3E703EB430351F8233027
S214005110984708BDF411012008B518F073F908BDCA
S21400512000B9704708B503464FF47A7000FB03F3E6
S2140051300348A0FB0330800918F09AFA08BD00BFA8
S214005140D34D621001294AD0F0B583B00024012C5B
S21400515041DC04EB440C254A02EB8C0CDCF8042002
S2140051600AB10134F3E7214D660004EB440C05EB6D
S2140051708C027227577290720027D772089A45F8E9
S2140051802C2060468000083028444FF47A7C0CFBC4
S21400519003FC174BA3FB0C3C164B0193164B0093DA
S2140051A03B46CA1B18BF01224FEA9C11013018F07B
S2140051B08BFF0746344405EB8405686090B118F011
S2140051C021F902460024009423460121384618F0AF
S2140051D0B1FF204601E06FF0050003B0F0BD6FF0B0
S2140051E00E0070476FF00500F7E700BFF4110120CE
S2140051F0D34D62100C120120ED50000070B586B041
S21400520002460D460F4E0024346004940E4B039362
S21400521002940191012300930C4B4FF460210C483B
S214005220006807F088FE04940394029401950094A5
S2140052303346084A08490948006807F061FE06B088
S21400524070BD00BF38120120D55200001C08014076
S2140052503C1201203408014001000E0044120120D7
S21400526070B586B00E46144610B30246AA230370E5
S21400527055234370012304920F490391002502959C
S214005280019400930D4B4FF460210D48006807F021
S21400529052FE04950395029501940123009333462C
S2140052A0084A09490948006807F02AFE06B070BD9A
S2140052B00023074ADFE700BFD55200001C08014064
S2140052C03C1201203408014001000E004412012067
S2140052D03812012000B583B00023019301A90A4BC0
S2140052E0186817F001FB019B4BB14FF0E0234FF01D
S2140052F08052C3F8042DBFF34F8FBFF36F8F01208A
S21400530003B05DF804FB00BF4012012010B58AB060
S2140053100121254808F0AAF8244C2388ADF8083067
S214005320ADF80C30012304220C21032009F066FCA2
S214005330A388ADF81030ADF81430002304220D21F8
S214005340032009F05BFC01221146002008F0E8FB70
S21400535007F0DCFE2489ADF81840ADF81C400023A9
S21400536002220921104609F049FCADF82040ADF8AC
S21400537024400123019300220092092211460220B4
S21400538009F0BEFB0A49092007F0D8FE094B4FF486
S2140053900072C3F82824084BA02283F80A2383F857
S2140053A012230AB010BD00BF00350A00A0560B003D
S2140053B0C94F000000A0004400E100E030B585B011
S2140053C00C4B1C88ADF80040ADF804404FF48055F7
S2140053D0094BC3F89C500A2018F04AF9ADF808406B
S2140053E0ADF80C40054BC3F89C50032018F040F96C
S2140053F005B030BDA0560B0000A0004400A000463B
S21400540000B583B003230093124B002211460120FF
S21400541016F0E2FF104B186000231A46194617F0E4
S214005420A7F80E4B1B68196A0D4A11605A6A0D4B95
S2140054301A600D485EF038FBFFF768FF0B485EF019
S21400544033FBFFF7BBFF0A485EF02EFB03B05DF8A8
S21400545004FB00BF48120120401201204401002036
S214005460441201203C12012064560B0078560B00B3
S2140054708C560B000AB90020704770B505460C46DE
S2140054801646144B4FF44062DA604FF0FF31124B71
S214005490186817F06DFB01280DD175B13246294604
S2140054A02046FFF7DDFE4FF0FF310B4B186817F074
S2140054B05FFB012806D0002070BD31462046FFF76E
S2140054C09DFEF0E700231A4619460348006817F0C9
S2140054D04FF8F0E70008014040120120024B1B681D
S2140054E01B6A5868704700BFB41201202DE9F843C4
S2140054F01D469D4B1B681C6A2378002B00F02D81EF
S2140055000646884617462378DBB2042B00F228812D
S2140055103DB10121084601F0E1FF8146002840F038
S21400552016812378DBB20A2B00F20281DFE813F043
S21400553008010B005B007B007B007B000801080174
S214005540080108010801E38D13F0010F28D004F1CB
S214005550140002F0D3FF0146002800F0A9800022C4
S21400556042610283226B4261A28E0283DFF80092C0
S214005570D9F8002092F8293043F0010382F8293048
S214005580172003F0D5FAD9F8000047F294511030EE
S21400559003F0B8FEFFF7A2FF8146002840F08F8098
S2140055A004F1140002F0AAFF0146002800F08C80E7
S2140055B000230375DFF8B891D9F8002092F8293057
S2140055C043F0010382F82930112003F0B1FAD9F82C
S2140055D0000047F29451103003F094FEFFF77EFF70
S2140055E08146002877D104F1140002F087FF0146B7
S2140055F0002875D0DFF87891D9F8002092F8293085
S21400560043F0010382F82930122003F091FAD9F80A
S214005610000048F2E801103003F074FEFFF75EFF6A
S2140056208146002863D11434204602F067FF014605
S214005630002861D0DFF83891D9F8002092F8293098
S21400564043F0010382F82930BE2003F071FAD9F83E
S214005650000047F29451103003F054FEFFF73EFF6F
S214005660814600284FD1204602F048FF8146002898
S2140056704ED000F11404322200212046ADF0C0F9CD
S2140056804146204603F022F926B1314609F11800BA
S214005690ADF0FFFE89F83F70002D40D0334B1B68FD
S2140056A0C3F898504946132003F042FA814649E071
S2140056B00021012001F012FF6FF0030947E00021EE
S2140056C0012001F00BFF42E00021012001F006FF5F
S2140056D06FF003093BE00021012001F0FFFE36E0F9
S2140056E00021012001F0FAFE6FF003092FE00021EF
S2140056F0012001F0F3FE2AE00021012001F0EEFE79
S2140057006FF0030923E00021012001F0E7FE1EE010
S2140057100021012001F0E2FE6FF0030917E0144BB0
S2140057201A6892F8293043F0010382F82930B9E765
S21400573085B90021012001F0D1FE6FF0040901E0D7
S2140057404FF000091DB10021012001F0C7FE4846B8
S214005750BDE8F8836FF00409F4E76FF00209F6E796
S2140057606FF00209F3E700BFB4120120AC1201206B
S214005770B81201202DE9F0411F461C4B1B681C6A1D
S21400578023786BB305460E46904694F800C05FFA41
S2140057908CFCBCF1040F26D80121084601F09EFEC1
S2140057A0034610B11846BDE8F081C4F82480A7620D
S2140057B00023069A31462846FFF798FE034600283F
S2140057C0F0D10B4B186848F6B801103003F09AFD7C
S2140057D00021012001F082FEFFF780FE0346E1E78C
S2140057E06FF00203DEE76FF00203DBE7B41201207E
S2140057F0B81201202DE9F84F80460D461646B64AE7
S2140058001268146A99463BB10121084601F066FE0B
S2140058100746002840F0F18205B1C6B12378DBB216
S214005820042B1FD8E38E022B23D02378DBB20A2B5F
S21400583000F2D182DFE813F0D90228007100900050
S214005840C200D902D902D902D902D902D9020B2D37
S214005850E4D00A2DE2D00021012001F03FFE6FF0D7
S2140058600107CAE20021012001F038FE6FF00207AE
S214005870C3E22B1FDBB2012BD7D90021012001F098
S2140058802DFE6FF00107B8E2E38D13F0010F25D06F
S21400589004F1140002F032FE0146002800F0EB800E
S2140058A0002242610283226B4261A28E02838B4FEA
S2140058B03A6892F8293043F0010382F8293017201D
