S0240000636869702D65667233322D746865726D6F737461742D6578616D706C652E733337CC
S31508006000000004202DBE01082BBE010891BC07081C
S3150800601029C900082BBE01082BBE01082BBE0108A2
S315080060202BBE01082BBE01082BBE0108010B020876
S315080060302BBE010890000020A10A02084D7701082E
S31508006040559300082BBE01082BBE01082BBE01087C
S315080060502BBE01082BBE01082BBE01082BBE01086A
S315080060602BBE01082BBE01082BBE0108A182000821
S315080060702BBE01082BBE01082BBE01082BBE01084A
S315080060802BBE01082BBE01082BBE01082BBE01083A
S315080060902BBE0108799D00082BBE01082BBE0108FE
S315080060A02BBE0108119F0008E99E00082BBE0108B7
S315080060B02BBE01085DF50C0855FF0C080DFF0C08F2
S315080060C009FF0C0829F70C0851FF0C0811FF0C08EA
S315080060D029FF0C0815FF0C08B5FF0C0895FF0C08DE
S315080060E02BBE01082BBE01082BBE01082BBE0108DA
S315080060F059C201082BBE01082BBE01082BBE010898
S315080061002BBE01082BBE01082BBE01082BBE0108B9
S315080061102BBE01082BBE01082BBE01082BBE0108A9
S315080061202BBE01082BBE01082BBE01082BBE010899
S315080061302BBE01082BBE01082BBE01082BBE010889
S315080061402BBE0108F9C301082BBE0108E3D30008DA
S3150800615009DD0C082BBE0108C1BB0C08C7BB0C081F
S315080061602BBE01082BBE01082BBE01082BBE010859
S3150800617010B5054C237833B9044B13B1044800E035
S3150800618000BF0123237010BD300A00200000000064
S31508006190F81C0F0808B5034B1BB10349034800E078
S315080061A000BF08BD00000000340A0020F81C0F08D4
S315080061B0A3F5803A704700BF174B002B08BF134B57
S315080061C09D46FFF7F5FF00218B460F461348144AF4
S315080061D0121ACDF05FFB0E4B002B00D098470D4BE3
S315080061E0002B00D098470020002104000D000D4820
S315080061F0002802D00C4800E000BFCDF0C7FA200006
S31508006200290001F0ADFECDF037F900BF0000080007
S31508006210000000000000000000000420300A0020F2
S31508006220382702200000000000000000012800D0E6
S3150800623070474FF6FF739942FAD1054B012283F84E
S315080062408120002283F8C52083F8C620F0E700BF26
S315080062502C0C002010B584B00C4600230093164B76
S31508006260164A10210A2011F059FF154B186090B1F3
S31508006270144B0293144B019301230093104B4FF4D4
S3150800628080621249204612F0E3FD114B186050B1A6
S31508006290002004B010BD0F4875F0BAFB40F201703B
S315080062A000F0D6FAE4E70C4875F0B2FB40F202704B
S315080062B000F0CEFAECE700BFDC0B00203C0B002018
S315080062C02C0B0020740A0020F40C0020BC4B0D088F
S315080062D0300B0020984B0D08C04B0D0830B5A7B001
S315080062E004460D46002941D02E4B1D602E4B0093C7
S315080062F02346002201212D4813F0A4FD2C4B1860DB
S3150800630000283AD02B4B0093234601220A212A481B
S3150800631013F098FD294B1860002836D028492948DB
S3150800632075F076FB00F021FA2749284800F03CFA78
S3150800633073F0A4FC0368D3F88430984705AB03933D
S31508006340812304934FF0020103A88EF033FA20BB91
S315080063501F4C049A0399204602F064FD0122114657
S31508006360204602F0D1FD002027B030BD194875F04F
S315080063704FFB2F2000F06CFAB6E7174875F048FB7C
S3150800638040F2047000F064FABCE7144875F040FB6C
S3150800639040F2047000F05CFAC0E7114875F038FB6B
S315080063A0E1E700BF700A002025670008F84B0D08D2
S315080063B0340B0020C16400081C4C0D086C0A002030
S315080063C0444C0D08504C0D08E8790D08500A002079
S315080063D02C0C0020DC4B0D08004C0D08284C0D0831
S315080063E0704C0D0810B52C4875F0E1FDC0B92B4B63
S315080063F01B78022B35D02A4B1B680BB1DB7D5BBBA8
S31508006400284B1B78002B37D0274B1B78002B33D013
S31508006410264B1B784BB30121254800F0B1F920E043
S31508006420244C204678F07DFD1E4B1870204678F0E7
S3150800643027FD1D4B1870204678F084FD1B4B1870FD
S315080064401D4878F067F9003818BF01201B4B1870F3
S31508006450114875F0B6FDCAE7FA221146144800F04D
S31508006460E1F9134800F0B4F910BD322240F2B63112
S315080064700F4800F0D7F9F4E7104B1B782BB16422CC
S3150800648011460B4800F0CEF9EBE740F2B63232215E
S31508006490074800F0C7F9E4E750550120F41C00202E
S315080064A0700A0020380B00204C0A0020680A0020D9
S315080064B0500A0020D89B0120CC9B0120390B0020D4
S315080064C008B5FFF78FFF08BD00B583B0002200921C
S315080064D0134603210948006813F0D0FC28B1084B7D
S315080064E000221A7003B05DF804FB064875F090FAAE
S315080064F040F2067000F0ACF9F1E700BF340B00205B
S315080065003A0B0020884C0D0810B582B00446114B92
S31508006510186813F041FE78B96423009300232246D5
S3150800652004210C48006813F0A9FC01280AD10A4B7B
S3150800653001221A7002B010BD084875F069FAFFF713
S31508006540C3FFE9E7064875F063FA40F2057000F004
S315080065507FF9ECE7340B00203A0B0020A04C0D081D
S31508006560BC4C0D080388012B2BD110B5154B1B7895
S315080065701BB1154A1278012A05D01BB1124B1B789C
S31508006580022B17D010BD40F6B831104875F040FA06
S3150800659040F6B830FFF7B8FF0B4B02221A700C4CC6
S315080065A00021204600F0ECF84FF4FA71204600F07E
S315080065B03FF9E7E7044B00221A7006488FF036FCCD
S315080065C0E0E770473A0B0020F41C0020D84C0D0871
S315080065D0500A002028D0012010B50379012B0CD0D1
S315080065E01F4B1B781BB11F4A1278012A15D01BB105
S315080065F01C4B1B78022B2AD010BD194B1B78002B7D
S31508006600FAD1184B1B78002BF6D140F6B830FFF7B5
S315080066107BFF144B01221A70EEE7FFF755FF114B6B
S3150800662000221A70104802F084FC104878F079FCB1
S3150800663048B90F4C0121204678F054F8002120462D
S3150800664078F058F8D8E70B4875F0E2F9D4E7FFF781
S315080066503BFF044B00221A70074875F0D9F9CBE7BF
S315080066603A0B0020F41C00202C0C0020D89B01209B
S31508006670CC9B0120184D0D08584D0D0810B582B059
S315080066800B4B1C6812F0CEFC024600230093012136
S31508006690204613F0F3FB012801D102B010BD0548CE
S315080066A075F0B6F940F2057000F0D2F8F5E700BFCC
S315080066B06C0A0020784D0D08004870472C0C002005
S315080066C010B582B0144B1B6813B304461AF096F93A
S315080066D080B10023019301AA21460F48006811F0F2
S315080066E0F5FE019B6BB14FF0E0234FF08052C3F8E3
S315080066F0042D06E00023012221460748006811F010
S31508006700EDFD08B102B010BD044875F081F9F9E74E
S31508006710034875F07DF9F5E72C0B0020904D0D0820
S31508006720C04D0D0800B585B00123ADF800300190C5
S31508006730034B03936846FFF7C3FF05B05DF804FBF8
S315080067406565000808B5CB6813B10846984708BDC3
S31508006750014875F05DF9FAE7E84D0D0808B54FF6FA
S31508006760FF710120FFF762FD08BD08B513F0AAFD09
S3150800677008BD006918B108B503F008F908BD7047E7
S3150800678008B50023C360836000220023C0E9002304
S31508006790006910B111B103F0EFF808BD03F0F1F884
S315080067A0FBE700000000000008B59FED077B80EDC1
S315080067B0007B00228260C26001611146FFF7E0FF9C
S315080067C008BD00BFAFF30080000000000000000015
S315080067D0836823B370B582B00446C368ABB1104B67
S315080067E019680B68DB6868469847009E019D206912
S315080067F003F0D1F858B1A168236862685B1842F1C2
S315080068000002B34272EB050303D302B070BDE16820
S31508006810F2E72046FFF7ADFF26606560F5E77047AB
S31508006820F802002008B58160C260FFF7D1FF08BDF5
S3150800683008B50A46FFF7F6FF08BD000008B5014689
S31508006840024875F0E5F81AF015F9FEE7184E0D0836
S3150800685008B5FFF7F3FF0000124A12F0070F1ED023
S31508006860D11D21F00701C1F5A04313440A460E487D
S315080068700260002141601344083B23F007030B48DC
S31508006880036059601960991A51601360084B1960C2
S31508006890084B1960084B4FF000421A6070474FF4D6
S315080068A0A043E4E7FC1C0020106D0020F81C002023
S315080068B0046D0020006D0020FC6C002010B500B3AC
S315080068C0044612F0A7FB54F8043C0F4A1268134218
S315080068D009D054F8081C69B11AF0CCF80B490C48D1
S315080068E0CDF0D0FAFEE71AF0C5F80A490848CDF007
S315080068F0C9FAFEE723EA0203A3F1080412F03CFCF6
S3150800690000E00024204610BDFC6C0020944E0D08C3
S31508006910784E0D08484E0D08014B1868704700BFA1
S31508006920006D0020014B1868704700BF046D0020F9
S3150800693008B519F0ADFF034B1A68034B1A6019F036
S31508006940B5FF08BD006D0020046D0020F8B50746A8
S3150800695012F060FB174B1B6893B14FF0FF3600250A
S315080069602C4604E01B68144A12689A420CD001347B
S315080069705A68AA4200D91546B242F3D21646F1E73A
S315080069804FF0FF3600252C4612F0F6FB7D60BE6000
S31508006990FC6019F07DFF094B1B683B60084B1B68C0
S315080069A07B61084B1B68BB61074B1B683B6119F091
S315080069B07DFFF8BD106D0020F81C0020006D00203A
S315080069C0086D00200C6D0020046D002010B588B0FD
S315080069D00446164B1B6893B1144B1A461B68A34210
S315080069E0FBD351685018A0420DD0616860188342E5
S315080069F00ED02360944200D0146008B010BD01A8E0
S31508006A00FFF7A4FFE8E76068014451601446ECE725
S31508006A1007480068834206D05B68194461601368BA
S31508006A201B682360E6E72060E4E700BF106D0020DE
S31508006A30F81C002038B5044612F0ECFA3E4B1B68E9
S31508006A40EBB13E4B1B681C421CD1631E13F10A0FA7
S31508006A500BD804F1080214F0070F05D022F007033B
S31508006A60083393425AD91A4682B912F085FB002593
S31508006A7075F040FC15F0070F56D1284638BDFFF7CC
S31508006A80EBFEDEE712F078FB0025F1E72C4B1B68DE
S31508006A90934202D32B490C6805E012F06DFB0025E2
S31508006AA0E6E721461C466368934202D22368002B18
S31508006AB0F7D1214B1B68A34212D00D68083523680D
S31508006AC00B6063689B1A102B12D9A01810F0070FD9
S31508006AD00AD019F0CFFF1C491C48CDF0D3F9FEE7C0
S31508006AE012F04AFB0025C3E743606260FFF76EFFBA
S31508006AF0626813490B689B1A0B60154909688B4233
S31508006B0001D213490B600D4B1B68134363600023C6
S31508006B102360104A13680133136000E0002512F061
S31508006B202BFB002DA6D1A3E719F0A4FF0A490748B5
S31508006B30CDF0A8F9FEE700BFF81C0020FC6C002089
S31508006B40006D0020106D0020B44E0D08784E0D081B
S31508006B50046D0020086D0020F04E0D0838B501FBC5
S31508006B6000F419B1B4FBF1F181420AD12046FFF7CE
S31508006B7061FF054618B122460021CCF08BFE284657
S31508006B8038BD0025FBE7000080B338B50446A0F100
S31508006B90080550F8043C164A1268134209D050F802
S31508006BA0081C69B119F066FF12491348CDF06AF955
S31508006BB0FEE719F05FFF11490F48CDF063F9FEE7CC
S31508006BC023EA020340F8043C12F024FA54F8041CA1
S31508006BD00B4A13680B4413602846FFF7F7FE094A69
S31508006BE013680133136012F0C7FA38BD704700BF47
S31508006BF0FC6C0020944E0D08784E0D08484E0D0882
S31508006C00006D00200C6D0020F8B505460C46FFF710
S31508006C1055FED8B10746A4B1A04201D12E461AE0C6
S31508006C2021460120FFF79AFF0646A0B13A46A74239
S31508006C3028BF22462946CCF006FE2846FFF7A4FFC1
S31508006C4009E02846FFF7A0FF002604E021460120B8
S31508006C50FFF784FF06463046F8BD08B5FFF7EAFE9B
S31508006C6008BD08B5FFF790FF08BD08B5FFF7CCFFCC
S31508006C7008BD08B50846FFF7F0FF08BD08B5084681
S31508006C80FFF7EFFF08BD08B508461146FFF7EDFF09
S31508006C9008BD08B506F0C8FB0FF03EFC74F0ACFE64
S31508006CA033F0EAFC31F016FD08BD10B582B00022BB
S31508006CB0ADF8062003689C680DF10603A04719285D
S31508006CC002D020B1002000E0012002B010BD012052
S31508006CD0FBE7052B01D8002070472F2070470000DE
S31508006CE0014B0360704700BF8C510D08024A0260D1
S31508006CF0024A0260704700BFB0510D088C510D085A
S31508006D00024A0260024A0260704700BF9C510D08A1
S31508006D1090500D08024A0260024A0260704700BF9E
S31508006D206C510D08A4500D08034A0260034A02601C
S31508006D30034A0260704700BF687B0E08B07A0E08E7
S31508006D4038510D08024A0260024A0260704700BFC5
S31508006D50907E0E0858510D0808B5024878F026F8B6
S31508006D6008BD00BF7CAC012008B5024878F025F8BC
S31508006D7008BD00BF7CAC012008B501F029FE08BD9E
S31508006D80038848F20102934204D048F20202934271
S31508006D9012D0704790F90820012AF6D110B5094893
S31508006DA074F036FE47F094FB03685C690023064AD4
S31508006DB040F6B831A04710BD90F90930012BE8D14B
S31508006DC0ECE700BF304F0D08796D0008012800D0A8
S31508006DD0704708B54FF6FF73994200D008BD0948B9
S31508006DE0094B0360094B0360002343608360C3605B
S31508006DF00374436103764376054A0649CBF009FCDA
S31508006E00ECE700BFD46F002000510D08C43A0E0805
S31508006E100000002075DD070810B50446034B036023
S31508006E203821CBF0FBFB204610BD00BF8C510D0866
S31508006E3010B50446044B0360044B03603821CBF0BD
S31508006E40EDFB204610BD00BFB0510D088C510D0852
S31508006E5010B50446044B0360044B03600421CBF0D1
S31508006E60DDFB204610BD00BF9C510D0890500D0853
S31508006E7010B50446044B0360044B03600821CBF0AD
S31508006E80CDFB204610BD00BF6C510D08A4500D085F
S31508006E9008B5104B0360D0F8F4317BB9D0F8483107
S31508006EA073B9D0F804316BB9D0F8983063B9436D2B
S31508006EB063B9036963B9084B036008BDCCF0A8FA47
S31508006EC0CCF0A6FACCF0A4FACCF0A2FACCF0A0FA50
S31508006ED0CCF09EFAB06D0E0814500D0838B504466D
S31508006EE00C4B036043688BB1437C4BB9C5683DB115
S31508006EF035B12B681B6828469847284672F04EFF1E
S31508006F000023E3606374237423726360024B236077
S31508006F10204638BDF8FD0D0800510D08406818B127
S31508006F2008B574F00DFD08BD03207047406858B1D8
S31508006F3000B583B04FF0000C8DF807C032B174F07D
S31508006F40D1FC03B05DF804FB032070470BB12F207A
S31508006F50F7E70DF10702F2E770B582B00446A54BD4
S31508006F60D3E88F3F13F0010F3FD0A34BD3E88F3FF1
S31508006F7013F0010F47D0A14BD3E88F3F13F0010F51
S31508006F804FD09F4BD3E88F3F13F0010F67D09D4B2F
S31508006F90D3E88F3F13F0010F00F0CF809A4BD3E868
S31508006FA08F3F13F0010F00F0DC80984BD3E88F3F3A
S31508006FB013F0010F00F0EB802369002B00F0F68038
S31508006FC0236B002B00F0F780636B002B00F0068123
S31508006FD08F4D2169284685F079FB284684F0A8FB61
S31508006FE0002800F0598102B070BD8248CBF018FB2A
S31508006FF00028BAD07F48CBF01FFB864A86498748C7
S31508007000CBF007FBB1E77C48CBF00AFB0028B2D0EF
S315080070107948CBF011FB7F4A81498248CBF0F9FACF
S31508007020A9E77648CBF0FCFA0028AAD07E4D7F4B1C
S315080070302B607F4B2B6000236B602B72EB602B6100
S315080070406B61AB61EB612B6285F824306B48CBF042
S31508007050F3FA704A77492846CBF0DBFA91E7684895
S31508007060CBF0DEFA002892D06948734B03600323FD
S3150800707083800223C38000258560704A0260C5604C
S315080070801422009200F1280200F12C01103044F07D
S3150800709023FF2B46002B01DB013BFBE7684A142341
S315080070A000930223111DA2F1180044F015FF0023D6
S315080070B0002B01DB013BFBE7624A282300930223EE
S315080070C0111DA2F1180044F007FF0023002B01DB75
S315080070D0013BFBE75C4A142300930223111DA2F12E
S315080070E0180044F0F9FE0023002B01DB013BFBE707
S315080070F0564A482300930223111DA2F1180044F0B2
S31508007100EBFE0023002B01DB013BFBE7504A2C2357
S3150800711000930223111DA2F1180044F0DDFE00239E
S31508007120002B01DB013BFBE73548CBF085FA394AF2
S3150800713048493748CBF06DFA29E73248CBF070FA60
S3150800714000283FF42BAF444D444B2B60444B2B6037
S315080071502C48CBF071FA2F4A42492846CBF059FA07
S315080071601CE72948CBF05CFA00283FF41EAF3E4DD9
S315080071703E4B2B603E4B2B603E4B2B602248CBF0A0
S315080071805BFA244A3C492846CBF043FA0DE71F48E8
S31508007190CBF046FA00283FF40FAF1C48CBF04CFA68
S315080071A01C4A36493648CBF034FA05E71B4B354AB4
S315080071B05A60236104E722691A4B5B6833B10320DE
S315080071C000287FF410AF174B2363FDE6154B00200C
S315080071D0187258745A60D8601874F1E72569124B0A
S315080071E05B68002B50D0032000287FF4FCAE0E4BC2
S315080071F06363EDE6CC6F0020C86F00209C6F00200B
S31508007200306D0020286D00201C6D0020186D0020B0
S31508007210346D002000000020156D00081C000020B9
S31508007220DD6E000808000020A06F0020C4500D087D
S31508007230C0700E08DD72000814500D08B06D0E08F7
S31508007240A06D0020E46D0020506E0020946E002092
S31508007250406F0020916E00082C6D002090500D089C
S315080072609C510D08016D0008206D002038510D084D
S31508007270B07A0E08687B0E08296D0008456D00086F
S3150800728004000020445501200F4E33689B6A30469F
S31508007290984775600020A7E70C4BE361236983B123
S315080072A00B4A5360002000287FF49DAE084B6361AB
S315080072B04BF0ECFF2062074B6362074BA36100208B
S315080072C091E62F20EFE700BFA06F0020346D002065
S315080072D0206D0020040000202C6D002010B5044607
S315080072E0124B0360436823B1104B9B6A98470023EF
S315080072F0636000222262E06918B172F04FFD002334
S31508007300E3610022A261606918B172F047FD0023AB
S31508007310636100222261E06818B172F03FFD002324
S31508007320E360034B2360204610BD00BFC0700E0803
S31508007330C4500D0810B5134B0360D0F8F431ABB93F
S315080073400446D0F848319BB9D0F8043193B9D0F83F
S3150800735098308BB9436D8BB903698BB90A4B0360B7
S315080073604FF41A71CBF05AF9204610BDCCF050F8FC
S31508007370CCF04EF8CCF04CF8CCF04AF8CCF048F803
S31508007380CCF046F8B06D0E0814500D0810B504463A
S31508007390144B0360436823B1124B9B6A984700233A
S315080073A0636000222262E06918B172F0F7FC0023DC
S315080073B0E3610022A261606918B172F0EFFC002354
S315080073C0636100222261E06818B172F0E7FC0023CD
S315080073D0E360054B236028212046CBF01FF92046A1
S315080073E010BD00BFC0700E08C4500D0838B504465D
S315080073F00E4B036043688BB1437C4BB9C5683DB1FE
S3150800740035B12B681B6828469847284672F0C6FC93
S315080074100023E3606374237423726360044B236060
S3150800742014212046CBF0FAF8204638BDF8FD0D08A1
S3150800743000510D0808B50A4874F0EAFA094878F0C8
S3150800744084FD00B108BD0121064877F09FFE00289B
S31508007450F8D1054874F0DCFA044877F085FCF1E7C2
S31508007460584F0D08D89B0120784F0D087CAC012099
S3150800747030B585B004463B493B480BF089FA3B4D8D
S31508007480284674F0C5FA2146394874F0C1FA2846E8
S3150800749074F0BEFA374874F0BBFA0021084644F087
S315080074A09DFC08B105B030BD334B1B78002B41D08D
S315080074B000200028F6D12146304877F023F9FFF757
S315080074C0B9FF0028EED12E4874F06AFD2D4BD3E89B
S315080074D08F3F13F0010F36D02B4C204676F00AFD6D
S315080074E02A4D2C632846FFF737FD002401940294A1
S315080074F00394274B0193274B0293274877F098FC70
S31508007500039001ABAB62294624488EF027FD1C4D3B
S31508007510284674F056FD22462149284674F06AFC2E
S31508007520204874F075FA284674F0FAFD0028B9D197
S315080075300020B7E7104D284674F04AFEB0FA80F3EB
S315080075405B092B70B5E70F48CBF06AF80028C3D063
S315080075500C48CBF071F8144A14490C48CBF059F88A
S31508007560BAE700BF39BE040831BE0408944F0D08B7
S31508007570C84F0D08D44F0D0848550120CC9B012053
S3150800758050550120D06F0020D46F00202400002021
S31508007590596D0008696D0008D89B012028D0012084
S315080075A0816D0008E44F0D0800000020ED6C00080E
S315080075B008B573F02DFF08BDB0F5803F2CBF00203D
S315080075C0012070474068E0B170B584B01D460023BD
S315080075D08DF80F30BAB100230293019302AB0093E2
S315080075E02B8874F061F90446192800D030B9029E38
S315080075F03046FFF7E1FF68B900262E80204604B022
S3150800760070BD032070472B880BB12F20F7E70DF1CB
S315080076100F02E0E7B6B2F0E710B50446054B036083
S31508007620054B0360054B03600821CAF0F7FF2046A7
S3150800763010BD00BF687B0E08B07A0E0838510D08D9
S3150800764010B50446044B0360044B03600421CAF0DA
S31508007650E5FF204610BD00BF907E0E0858510D0864
S3150800766008B54FF6FF710120FFF7B0FB08BD000013
S31508007670024A0260024A0260704700BF58550D0868
S3150800768044550D0808B5034A02211D2044F01CFD87
S3150800769008BD00BFBC510D0808B5034A02211D20CC
S315080076A044F012FD08BD00BFCC510D0808B5044AC8
S315080076B002211D2044F008FD024BFF221A7008BD66
S315080076C0DC510D085C00002000B585B00123ADF83B
S315080076D000300190034B03936846FEF7F1FF05B0AF
S315080076E05DF804FB617A000800B585B00123ADF8A2
S315080076F000300190034B03936846FEF7E1FF05B09F
S315080077005DF804FB0977000808B50388012B00D04B
S3150800771008BD4FF4FA71064874F07AF90548064B25
S31508007720C360FEF7CDFF054B00221A70F0E700BFD5
S31508007730F8510D081C700020D96500081470002047
S31508007740002954D000B585B0002300930193029315
S3150800775003938DF80420264B994205D0254B994270
S315080077601FD005B05DF804FB012A0ED0224B1B780A
S315080077709BB1224B02221A70214B00221A70214B10
S3150800778003936846FEF79CFFEBE701231B4A137039
S315080077901B4A13701C4B0393F3E7184B00221A700D
S315080077A0EAE792B1194B002119801A71012218498A
S315080077B00A7018490A70184A0392DA606846FEF792
S315080077C07FFF1248FEF77CFFCBE7104B1A71134B6D
S315080077D01B7843B10E4B02221A700E4B00221A7008
S315080077E0084B0393EAE70A4B00221A70F5E770473D
S315080077F0D0790D08B8790D081B7000201570002087
S3150800780035700020517B0008617A00081C70002042
S315080078101470002034700020097700081A700020C0
S3150800782010B50446044B0360044B03600821CAF0F4
S31508007830F5FE204610BD00BF58550D0844550D08E5
S31508007840012800D070474FF6FF739942FAD130B538
S3150800785085B00F4D0023039302930E4B0193022329
S3150800786000930D4B0D4A0121284624F04BF80C4C89
S3150800787022460C492846CAF0CCFE0B480B4B03603F
S315080078800B4B036022460B49CAF0C3FE05B030BD58
S31508007890F06F0020B9780008997600088576000808
S315080078A00000002041B902080C70002044550D085C
S315080078B058550D087176000870B50446244A022109
S315080078C01D2044F001FC237D224A13700B2B10D097
S315080078D0204B1B78FE2B23D015D8022B32D846F026
S315080078E0F7FD03685D6923461B4A41F28831A847BC
S315080078F070BDA37D194A02211D2044F0E5FBA27D37
S31508007900144B1A70E4E7FF2B1CD146F0E1FD03681F
S315080079109B692246104998470E4BFF221A70E7E7E3
S3150800792046F0D6FD03689B690B4D224629469847C3
S3150800793046F0CEFD03685E6923462A464FF47A71FF
S31508007940B047D5E7064A02211D2044F0BDFBCFE724
S3150800795038520D085C000020AD76000850520D081C
S31508007960A4520D0810B582B004461E4B0093034678
S31508007970002201211C4812F065FA1C4B1860C8B198
S315080079801B4B00932346002201211A4812F05AFA8B
S31508007990194B1860B0B1FEF78FFE0022174901F0A7
S315080079A0D9F917492046FEF799FC044690B92046AE
S315080079B002B010BD134874F02BF840F20470FEF7BD
S315080079C047FFDDE7104874F023F840F20470FEF72D
S315080079D03FFFE0E70D4874F01BF82046FEF738FF36
S315080079E0E5E700BFC9760008BC520D0830700020D4
S315080079F0E9760008EC520D082C70002018530D0883
S31508007A00F06F0020CC520D08F8520D0828530D08C7
S31508007A1008B50249FEF71EFC08BD00BFB17D000887
S31508007A2000B583B000220092134603210948006876
S31508007A3012F024FA28B1084B00221A7003B05DF838
S31508007A4004FB064873F0E4FF40F20670FEF700FFF9
S31508007A50F1E700BF307000201B70002048530D0866
S31508007A6008B50388012B16D10D4B1B68012B13D0C3
S31508007A700B4B01221A600B4BB3F900300A4AB2F9D4
S31508007A80002007490968094873F0C2FF084B00221D
S31508007A901A70FFF7C5FF08BD014B00221A60EAE716
S31508007AA06000002016700020187000206C530D0826
S31508007AB01570002010B582B00446114B186812F0F4
S31508007AC06BFB78B9642300930023224604210C48F3
S31508007AD0006812F0D3F901280AD10A4B01221A705C
S31508007AE002B010BD084873F093FFFFF799FFE9E766
S31508007AF0064873F08DFF40F20570FEF7A9FEECE725
S31508007B00307000201B700020BC530D08D8530D0898
S31508007B1000B583B000220092134603210948006885
S31508007B2012F0ACF928B1084B00221A7003B05DF8C0
S31508007B3004FB064873F06CFF40F20670FEF788FEF9
S31508007B40F1E700BF2C7000201A700020F4530D08CE
S31508007B5030B583B0764B1B78022B05D0754B1B7856
S31508007B60022B73D003B030BDFFF75AFF724B1B6868
S31508007B70012B38D04FF44863ADF806306F4D2846D0
S31508007B8074F00EFA6E4C214601201DF035F80DF101
S31508007B90060101201DF01EF8284674F012FAB4F901
S31508007BA00030BDF9062093424CDA2546013323807E
S31508007BB0624C204674F0F4F9B5F9001001201DF066
S31508007BC02DF8204674F0FDF9594B00221A705A4BCD
S31508007BD01B685B4AB2F900205A49B1F900105A48A5
S31508007BE073F016FFBEE740F6B833ADF80630534DCE
S31508007BF0284674F0D5F9534C214601201DF01EF88D
S31508007C000DF1060101201CF0C1FF284674F0D9F9D0
S31508007C10B4F90030BDF9062093420FDA2546013340
S31508007C202380464C204674F0BBF9B5F900100120B4
S31508007C301DF016F8204674F0C4F9C5E7434873F0FA
S31508007C40E7FEC1E7414873F0E3FEBDE7FFF760FFD3
S31508007C50394B1B68012B38D04FF4C863ADF8063092
S31508007C60364D284674F09CF9354C214601201CF007
S31508007C70C3FF0DF1060101201CF09AFF284674F097
S31508007C80A0F9B4F90030BDF9062093424CDD25462B
S31508007C90013B2380294C204674F082F9B5F900107F
S31508007CA001201CF0BBFF204674F08BF9214B002203
S31508007CB01A70214B1B68224AB2F900202149B1F9F2
S31508007CC00010214873F0A4FE4CE74FF42F73ADF86B
S31508007CD006301A4D284674F063F91A4C21460120DD
S31508007CE01CF0ACFF0DF1060101201CF03DFF2846F3
S31508007CF074F067F9B4F90030BDF9062093420FDD38
S31508007D002546013B23800D4C204674F049F9B5F908
S31508007D10001001201CF0A4FF204674F052F9C5E7B4
S31508007D200B4873F075FEC1E7094873F071FEBDE7AD
S31508007D3015700020147000206000002050550120A6
S31508007D4016700020187000204C540D081C540D089D
S31508007D5090540D0810B582B00446114B186812F0FD
S31508007D601BFA78B9642300930023224604210C48A1
S31508007D70006812F083F801280AD10A4B01221A700A
S31508007D8002B010BD084873F043FEFFF7C1FEE9E7ED
S31508007D90064873F03DFE40F20570FEF759FDECE724
S31508007DA02C7000201A700020C0540D08E8540D08E5
S31508007DB030B585B005683048FFF7D4FD002837D1BF
S31508007DC0FEF75CFC2D4873F023FE4FF0FF32694640
S31508007DD0284610F049FC0446012CF6D16946264887
S31508007DE0FEF7B0FC00226946284610F03DFC044622
S31508007DF0234B1B7823BB234B1B784BBB224B1B788F
S31508007E001BB1224B1B78022B2AD0214B1B78002B47
S31508007E10E2D0204B1B78022BDED1FFF779FE6846AD
S31508007E20FFF796FE0023174A13701A4A1370D3E712
S31508007E300446194873F0ECFD2046FEF709FDBFE736
S31508007E404FF47A70FFF736FE0D4B00221A70D2E710
S31508007E504FF4FA70FFF77EFF0A4B00221A70CDE73F
S31508007E60FFF7DEFD6846FFF773FE0023044A13702A
S31508007E70064A1370C9E700BF0C70002028550D0884
S31508007E8035700020347000201B700020157000200B
S31508007E901A7000201470002010550D0808B54FF60A
S31508007EA0FF710120FFF7CCFC08BD00002DE9F04169
S31508007EB084B00F4616461D464468D0F80880A3B21B
S31508007EC00093230C0C4A02211D2044F0FDF8032CD4
S31508007ED002D004B0BDE8F0812B780396029301978F
S31508007EE01FFA88F300934FEA1843044A02211D201B
S31508007EF044F0EAF8EDE700BF64550D0884550D080F
S31508007F00024A0260024A0260704700BFD0D80D08D4
S31508007F1034560D08012800D0704708B54FF6FF7390
S31508007F20994200D008BD034A03490448CAF071FBC8
S31508007F30F8E700BF00000020017F00086400002069
S31508007F4010B50446044B0360044B03600821CAF0CD
S31508007F5065FB204610BD00BFD0D80D0834560D0865
S31508007F6010B5FEF796FE1B48FFF782FA50BB1A4C6F
S31508007F701A4BD3F88411204646F012FA204646F0EA
S31508007F801BFA174C204674F00BF889F0A1FA80F01A
S31508007F90BDFF204674F015F8124873F039FD1248F3
S31508007FA0FFF736FD90B9114873F032FD05F048FA2F
S31508007FB043F028FF0E4873F02BFDAC20FEF748FC73
S31508007FC0002010BDAC20FEF743FCD0E7AC20FEF73E
S31508007FD03FFCE8E7C8550D08640000202800022089
S31508007FE050550120DC550D080C700020F0550D0881
S31508007FF00C560D0870B50446044D2B689E6801F0B2
S3150800800000FC024621462846B04770BD0C70002089
S3150800801008B54FF6FF710120FFF77CFF08BD38B1A0
S3150800802041B10160028100228280C280012070472E
S315080080300020704700207047C28892B283889BB29E
S315080080409A4216D0C28892B283889BB29A4209D2C3
S315080080500389828892B29B1AC08880B210FA83F08C
S3150800806080B27047C3889BB2808880B2181A80B2E3
S3150800807070470020704710B50489FFF7DDFF201A06
S3150800808080B210BDF8B548B30F461546044659B335
S31508008090038993422ED3FFF7EEFFA8421DD3268904
S315080080A0E3889BB2F61AB6B2B54229D92368E088A6
S315080080B03246394613FA80F0CBF0C5FBAA1BB9192C
S315080080C02068CBF0C0FBE28815FA82F5228995FB79
S315080080D0F2F302FB1355ADB2E580F8BD0D4B0E4A1F
S315080080E096210E48CBF09CF90D4B0B4A97210B486D
S315080080F0CBF096F90B4B084A98210848CBF090F933
S315080081002368E0882A46394613FA80F0CBF09BFBB1
S31508008110D9E700BF5C560D0864560D0894560D083D
S3150800812000570D0810570D0870B516461D46DCB2E7
S315080081300E4B1A78A41AE4B20D48FFF79CFFA2B2B8
S31508008140904209D20B4B2A4631460B48006812F07A
S3150800815013FD77F007FF70BD044C218831440448AD
S31508008160FFF790FF00232380ECE700BF447200204E
S3150800817038700020298100087C010020F8B550B32A
S315080081800F461546044661B3038993422FD3FFF77A
S3150800819053FFA84231D92689A3889BB2F61AB6B2EC
S315080081A0B5422FD92368A188324613FA81F1384699
S315080081B0CBF049FBAA1B2168B819CBF044FBA3886E
S315080081C015FA83F3228993FBF2F102FB11339BB272
S315080081D0A380E8B2F8BD104B104AB5211048CBF081
S315080081E01FF9104B0D4AB6210D48CBF019F90E4B65
S315080081F00A4AB7210A48CBF013F92046FFF71CFFB5
S315080082000546C8E72368A1882A4613FA81F1384645
S31508008210CBF019FBD3E700BF5C560D0830570D08A5
S3150800822094560D0868570D0870570D0838B500F0B4
S3150800823091FE4FF4807212491248FFF7F0FE124D74
S31508008240124C2B4680221249206812F095FC2B46C8
S3150800825080221049206812F08FFC0F4B4FF4006201
S31508008260C3F880211A600D4800F500520423D36430
S3150800827000F580521365052112F000FD38BD00BFD8
S315080082804471002038700020298100087C010020F4
S3150800829044700020C470002000E100E00000015B8B
S315080082A008B577F05FFE024B0422DA6408BD00BF0A
S315080082B00020015B58B110B50C46014654B1224660
S315080082C0074B186812F0F8FB38B920B210BD4FF00A
S315080082D0FF3070474FF0FF30F8E74FF0FF30F5E713
S315080082E07C010020002830D070B584B00C460546C5
S315080082F000292DD01848FFF79FFEA04207D3224633
S3150800830029461548FFF73AFF00B204B070BD03F0DE
S31508008310C6FB064601AB02AA03A91048006812F07C
S315080083209AFB0F4B1B88029A934203D3304603F0FD
S31508008330BCFBE4E7D21A92B2039919440648FFF740
S31508008340A1FE074B029A1A80F0E74FF0FF307047FC
S315080083504FF0FF30D9E700BF387000207C010020BD
S315080083604472002070B504460A694B6952EA030054
S315080083701ED08868C96810EB000C41EB010E1CEB97
S31508008380000C41EB0E0E4FEA4E1545EADC654FEA46
S315080083904C161CEB060C4EEB050E1CEB000041EBD5
S315080083A00E01CAF0A5FE012323706070204670BD39
S315080083B0002323706370F9E7D0E9020170472D2086
S315080083C070472D2070470120704701207047000034
S315080083D0024A0260024A0260704700BF20040E0883
S315080083E084580D0870474FF48060704700238360F7
S315080083F07047002343607047044A02602032426097
S31508008400034A4260034A0260704700BFB4590D0828
S31508008410A0580D0858580D080346064A40F8042C7B
S31508008420203240F80429044A4260044A43F8042CDE
S31508008430704700BFB4590D08A0580D0858580D08C4
S31508008440024A0260024A0260704700BF68C30D080C
S315080084506C590D08024A0260024A0260704700BF62
S31508008460C8C20D08C0580D0810B50446064B03606F
S3150800847020334360054B4360054B03601021CAF067
S31508008480CDF8204610BD00BFB4590D08A0580D08F8
S3150800849058580D0810B50446084B40F8043C2033DC
S315080084A044F80439064B6360064B40F8043C102137
S315080084B02046CAF0B3F8204610BD00BFB4590D08CF
S315080084C0A0580D0858580D0810B50446054B03600A
S315080084D0006B18B171F062FC00232363024B236022
S315080084E0204610BD50390E08FC570D0810B5044635
S315080084F0054B0360406B08B146F09AF900236363A5
S31508008500024B2360204610BD6CB80D0830580D0884
S3150800851010B50446174B03606433436000F51C70BE
S3150800852047F076F914F5EC7205D004F5147300E0FB
S31508008530183B9A42FCD1104BE3672033C4F88030CD
S315080085400E4BC4F880300E4BE36704F13800A36D78
S3150800855013B10022A265984704F10800A36A13B173
S315080085600022A2629847074B6360074B23602046A8
S3150800857010BD00BFACBF0D08B4590D08A0580D08B2
S3150800858058580D086C580D0810590D0838B5054689
S315080085900446194B40F8043C643344F8043900F5A2
S315080085A01B7047F035F915F5EA7205D004F5147312
S315080085B000E0183B9A42FCD1104BE3672033C4F81D
S315080085C080300F4BC4F880300E4BE36704F1380057
S315080085D0A36D13B10022A265984704F10800A36AA7
S315080085E013B10022A2629847074B6360074B45F810
S315080085F0043C204638BD00BFACBF0D08B4590D0871
S31508008600A0580D0858580D086C580D0810590D0833
S315080086100E4BD3E88F3F13F0010F01D00C4870477B
S3150800862010B50A48C9F0FCFF08B9094810BD084C3E
S31508008630084B2360084B23600448C9F0FDFF074A2E
S3150800864007492046C9F0E5FFEFE700BF487200205A
S315080086504C72002084580D0820040E0800000020E3
S31508008660D183000810B50446054A01210C2043F0C1
S315080086702BFDE06810B103689B68984710BD00BFE2
S315080086808C570D0810B50446054A01210C2043F005
S315080086901BFDA06810B103689B68984710BD00BF12
S315080086A08C570D0830B583B0C068D8B10D4614464E
S315080086B01A68019200221A6001AA214628F08EF94A
S315080086C0019808B146F0B4F8002301930C4B1B68D7
S315080086D00093A3886BB12B8943F040032B810020BC
S315080086E003B030BD074A01210C2043F0EDFC002001
S315080086F0F6E7E388002BEED12378402BEBD1EEE7A3
S31508008700EC590D08A0570D0830B583B08068D8B16C
S315080087100D4614461A68009200221A606A462146D7
S3150800872028F05CF9009808B146F082F80023009317
S315080087300C4B1B680193A3886BB12B8943F040034C
S315080087402B81002003B030BD074A01210C2043F0DD
S31508008750BBFC0020F6E7E388002BEED12378402BFC
S31508008760EBD1EEE7EC590D08A0570D08F0B587B028
S3150800877006460C46224A0321152043F0A5FCB56897
S31508008780002D2DD00023ADF810301E4B1B68039327
S3150800879023893BB31C4A1268039253B30123ADF8ED
S315080087A01030277B606845F099FF6368059304AB32
S315080087B0009305AB3A46A168284644F015F80446E6
S315080087C0059808B146F034F8002305932CB1B06833
S315080087D018B143F041FE0023B360204607B0F0BD50
S315080087E00320FBE76289022AD4D1227B142AD1D13D
S315080087F0D7E76389002BD1D1237B402BCED1D0E795
S31508008800D4570D08F0590D08EC590D08012800D069
S3150800881070474FF6FF739942FAD170B58AB04C4B40
S315080088204C4A1A604C4A5A604C4A1A6064325A607A
S3150800883003F10802DA609A6000229A62DB6248490C
S315080088401963CDF804D0CDF800D0089203F13801A9
S31508008850D96399639A65DB65424919669A66DA6649
S315080088601A6783F874209A673F49D9673F49C3F85E
S3150800887080103F49D9672031C3F8801083F8AC20AF
S31508008880C3F8B820C3F8BC20C3F8C020C3F8C42076
S31508008890C3F8C821C3F8CC2183F8D021C3F8D42162
S315080088A0042203F5EC7303E0002103F8181B013AD0
S315080088B0002AF9DA26480024C0F850420523C0F8F1
S315080088C0543280F85842C0F87442C0F87842294BAE
S315080088D0C0F8703280F87C42274E32462749C9F0E4
S315080088E098FE324626492748C9F093FE324626495D
S315080088F02648C9F08EFE264D264B2B606C602C72DE
S315080089002846254B40F8103B8EF056FCC5F8D0405B
S31508008910C5F8D440C5F8D840C5F8DC4032461F49EA
S315080089202846C9F076FE1E481E4B03600022002327
S31508008930C0E90223C0E904231B4B03608461C461B8
S315080089400463446332461949C9F063FE0AB070BD30
S315080089506873002010590D086C580D08ACBF0D0837
S31508008960E52F03085D1A030858580D08A0580D0886
S31508008970B4590D0888100E0800000020118500085B
S31508008980418400086C00002055840008740000200B
S315080089905072002030580D086CB80D08ED84000898
S315080089A030730020FC570D0850390E08C98400089A
S315080089B010B50446044B0360044B03600421C9F058
S315080089C02DFE204610BD00BF20040E0884580D0851
S315080089D0F0B583B00F4F384628F088FE0E4901F5EA
S315080089E04053D3F884310D4A53600D4E0D4D009512
S315080089F03346384629F086FB0B4B33610B4C22462F
S31508008A00394630462AF0AEFE094B636325626C6030
S31508008A1003B0F0BD6873002028D001206C00002048
S31508008A20740000205072002080510100307300202D
S31508008A30E8570D0810B50446194B036064334360C4
S31508008A4000F51C7046F0E4FE14F5EC7205D004F54A
S31508008A50147300E0183B9A42FCD1124BE3672033AB
S31508008A60C4F88030104BC4F88030104BE36704F12B
S31508008A703800A36D13B10022A265984704F10800D7
S31508008A80A36A13B10022A2629847094B6360094B97
S31508008A9023604FF422712046C9F0C0FD204610BD60
S31508008AA0ACBF0D08B4590D08A0580D0858580D0844
S31508008AB06C580D0810590D0838B5054604461B4B69
S31508008AC040F8043C643344F8043900F51B7046F05A
S31508008AD09FFE15F5EA7205D004F5147300E0183BFD
S31508008AE09A42FCD1124BE3672033C4F88030114B0D
S31508008AF0C4F88030104BE36704F13800A36D13B156
S31508008B000022A265984704F10800A36A13B100225F
S31508008B10A2629847094B6360094B45F8043C4FF439
S31508008B2022712046C9F07AFD204638BDACBF0D0833
S31508008B30B4590D08A0580D0858580D086C580D085A
S31508008B4010590D0810B50446044B0360044B036026
S31508008B500821C9F063FD204610BD00BF68C30D0893
S31508008B606C590D0810B50446044B0360044B0360AA
S31508008B701C21C9F053FD204610BD00BFC8C20D0810
S31508008B80C0580D0810B50446074B0360406B08B182
S31508008B9045F04EFE00236363044B2360E021204624
S31508008BA0C9F03CFD204610BD6CB80D0830580D08BC
S31508008BB010B50446074B0360006B18B171F0EEF868
S31508008BC000232363044B236038212046C9F026FD81
S31508008BD0204610BD50390E08FC570D0808B54FF64B
S31508008BE0FF710120FFF712FE08BD000000B583B033
S31508008BF0084803681988803901EBD171064B01933F
S31508008C002D23009380230022491012F0A3FF03B0FE
S31508008C105DF804FBF0750020405E0D0830B584460B
S31508008C200D4C00F1200E2546DCF80000DCF8041097
S31508008C30DCF80820DCF80C300FC50CF1100C2C46BB
S31508008C40F445F0D12B46DCF80000DCF80410DCF81B
S31508008C50082007C330BD00BFF075002010B584B0EA
S31508008C600446FFF7C3FF2046CBF096FA142803D92B
S31508008C7012F042FE04B010BD0123029300220192B5
S31508008C80009205222146024813F09DF8F0E700BF3E
S31508008C90F075002000B583B00B4B1B681988403966
S31508008CA001EBD17149105A88453A58B1074B0193DF
S31508008CB040230093044812F04DFF12F01DFE03B046
S31508008CC05DF804FB024BF2E7F0750020F45B0D0833
S31508008CD0F4590D0810B582B00446B8B908210F4BEF
S31508008CE01B685A88453A02EBD27302EB63027CB9D9
S31508008CF010237CB912207CB9094C019400900748CE
S31508008D0012F028FF12F0F8FD02B010BD6821E6E760
S31508008D101223EEE71120EEE7024CEEE7F07500208D
S31508008D201C5E0D08F45D0D0810B50446084812F0DF
S31508008D30B1FE2046FFF792FF0020FFF7ABFF0021A8
S31508008D400846FFF7C7FF00210120FFF7C3FF10BD44
S31508008D50F0750020F8B504461746002579B10E4689
S31508008D600846CBF019FA142804D9204872F050FEA8
S31508008D702F2026E0314604F1B000CBF005FA00F0CA
S31508008D80FBF80146F0B9002012F088FD0146F0B95B
S31508008D9004F18406304612F049FE0146E0B96FF048
S31508008DA07F43C4F888300023C4F88C30304612F06C
S31508008DB071FE0146A8B93046FFF730FF84F8C57042
S31508008DC02846F8BD0A4872F023FEAC25DBE70948B9
S31508008DD072F01EFEAC25DBE7074872F019FEAC25DB
S31508008DE0DDE7064872F014FEAC25E4E710610D08CD
S31508008DF024610D0844610D0858610D0874610D0859
S31508008E0008B5843012F046FE08BD10B50446FFF7D3
S31508008E10F7FF04F1B000FFF787FF94F8C500FFF7E6
S31508008E2039FF10BD802A00D9704708B5CAF00BFD76
S31508008E3008BD2DE9F0478146884617461E469DF827
S31508008E4020A000250AE07A1908EB040109F184003C
S31508008E5012F047FE0134A642F5DC0135AA4501DDCC
S31508008E600024F8E7BDE8F0872DE9F04184B0804694
S31508008E70012303934FF0FF330293042301930093D6
S31508008E8000231E4A1E49A6F0CDFA80B11B48A5F05C
S31508008E9021FC064608F1840012F0FCFD06EB4607A5
S31508008EA0C7F1800707EBD7777F1000251DE0154827
S31508008EB072F0AEFD1FE00134B44215DA2A462146A7
S31508008EC00E48A6F035F90028F5D0F9B205EB4502AB
S31508008ED00A4404EB4403194403230093D2B2C9B2EB
S31508008EE04046FFF7A6FFE6E70135B54201DA00245A
S31508008EF0E2E712F001FD04B0BDE8F081A876002093
S31508008F001C7600208C610D0838B504460D4690F88D
S31508008F1081308B4206D045B12046FFF7A5FF84F87D
S31508008F20815038BD002AFCD0F5E72046FFF76DFFD3
S31508008F30F5E710B5044690F8813043B1FFF765FFB1
S31508008F4094F8813083F0010384F8813010BDFFF76F
S31508008F508BFFF5E708B5012304220021184602F025
S31508008F60E3FF002008BD08B50023042219460120A6
S31508008F7002F0DAFF002008BD08B501230422092102
S31508008F80022002F0D1FF002008BD08B501213A20D1
S31508008F9001F0E0FB11F030F912F07CF908BD08B5D4
S31508008FA001213A2001F0D6FB08BD0000BFF34F8F20
S31508008FB00549CA6802F4E062044B1343CB60BFF369
S31508008FC04F8F00BFFDE700BF00ED00E00400FA0583
S31508008FD00D4B1B68B3F1FF3F06D04FF4801202FA1F
S31508008FE003F30A4A13667047094B1B785BB9094BAA
S31508008FF04FF400725A6603F5A6235B681BB9034B48
S315080090004FF480121A667047E00000200090004472
S315080090105977002000900050084B1B68B3F1FF3FBA
S315080090200AD1074B1B783BB9064B5B6813F0010F57
S3150800903002D0024B00221A60704700BFE0000020F1
S315080090405977002000C005504FF000639B6A03F172
S315080090507842B2F5C04F07D21A680B4B9A4207D02E
S315080090600023037083607047002303708360704792
S31508009070012303704FF000639A6A926842609B6A04
S315080090809B698360704700BF07B0CD5E08B54FF097
S31508009090005340F202221A804FF20F025A80FFF75D
S315080090A085FF4FF000639B6A03F17843B3F5C04F21
S315080090B019D230B585B005460C4601238DF8043023
S315080090C000230293039301A8FFF7BEFF039B13F443
S315080090D0806F06D04FF000639B6A1B6C21462846BA
S315080090E0984705B030BD7047494B1B78002B66D1B1
S315080090F010B582B0044600230193009300285CD083
S31508009100434B01221A7002F0CAFC424B1860C4F0A5
S315080091105FFC414B1B78002B55D0404B5A6E2261A1
S315080091209A6E626103F580524FF4804393663C4B16
S315080091305968A1613B499960196E2160596E616051
S31508009140196CA160596CE1603749086C1864496C60
S315080091505964012151661B6E13F4005F44D0334BEA
S31508009160DB6813F0010FFAD1FFF732FF304B042208
S315080091701A664FF400721A6600F064FAB0F1FF3FFF
S3150800918038D12B4C082323664FF4805323664FF0BF
S31508009190006323664FF400236366694601A8FFF758
S315080091A080FF019B2366009B63661B4B1B7823B1DC
S315080091B0204A116821665268626602B010BD144BD7
S315080091C002221A70704700F0B7FE0028A5D10823BE
S315080091D0184A194919480068C8F06AFD00289CD140
S315080091E00D4B01221A7098E7154BDB6813F0010F37
S315080091F0FAD1B9E700F026FA40F201139842C0D036
S315080092000B4B4FF400521A664FF480421A66B8E7C1
S315080092105A7700205C77002058770020008000509D
S315080092200080004455CEAC0000C000540000044045
S31508009230009000445077002000710800E4000020E8
S31508009240000004501F4B1B78012B03D01D4B012235
S315080092501A70704710B5044620B300F0F3F9B0F160
S31508009260FF3F20D12268184B1A6662685A66A268C0
S315080092701A64E2685A64A36913F0010F02D0124B0C
S3150800928000229A60FFF7C8FE2269104B5A66626987
S315080092909A66C4F0B9FB0E4B186802F006FC094B37
S315080092A000221A7010BD00F0CDF940F20113984261
S315080092B0D8D0084B01225A66074BDB6813F0010F1A
S315080092C0FAD1CFE75A77002000800044008000508A
S315080092D05C770020009000400000044038B54FF04D
S315080092E000639B6A03F17843B3F5C04F26D2154B4A
S315080092F01B781BB1022B01D0002421E0124D284611
S31508009300FFF7F2FE11490120C1F88001104B03F561
S3150800931000544FF48032E260086003F580531A6106
S315080093204FF000639B6ADB69984704462846FFF7B7
S3150800933089FF2CB9034B01221A7001E04FF481749E
S31508009340204638BD597700203477002000E100E038
S31508009350008000442C4B1B7803B9FEE700B583B0A8
S3150800936000230093019308236A4628492848006881
S31508009370C8F09EFC48BB274BD3F840311F2B1AD99F
S31508009380244BD3F84021203A012303FA02F2019B29
S315080093901343019308236A461C491D480068C8F010
S315080093A03DFC4FF0005340F20B221A804FF20F0299
S315080093B05A80FFF7FBFD174BD3F84021012303FA28
S315080093C002F2009B13430093E4E7134A9042E8D164
S315080093D0104BD3F840311F2B0ED90E4BD3F8402132
S315080093E0203A01239340019308236A46074908480F
S315080093F00068C8F013FCD4E7064BD3F840210123D4
S3150800940093400093F0E700BF5A77002000710800E8
S31508009410E4000020008000440BE000F038B54FF06F
S3150800942000639B6A03F17842B2F5C04F14D2044632
S315080094301B6B03F17843B3F5C04F0DD2074D284691
S31508009440FFF752FE4FF000639B6A1B6B5B68204672
S3150800945098472846FFF7F6FE38BD00BF607700201C
S3150800946008B54FF000639B6A03F17842B2F5C04F26
S3150800947008D21B6B03F17842B2F5C04F05D29B6840
S31508009480984701E04FF4817008BD4FF48170FBE7FF
S3150800949030B583B001904FF000639B6A03F17842C0
S315080094A0B2F5C04F16D21B6B03F17843B3F5C04F24
S315080094B015D20C4D2846FFF717FE4FF000639B6A3E
S315080094C01B6B9B69012101A8984704462846FFF7AC
S315080094D0B9FE01E04FF48174204603B030BD4FF465
S315080094E08174F9E7607700202DE9F0414FF00063B9
S315080094F09B6A03F17844B4F5C04F17D207460E4667
S3150800950015461B6BBBB1DFF834804046FFF7ECFD10
S315080095104FF000639B6A1B6B5B6A2A4631463846E6
S31508009520984704464046FFF78DFE01E04FF4017464
S315080095302046BDE8F0814FF40174F9E76077002012
S3150800954070B54FF000639B6A03F17842B2F5C04FDD
S3150800955018D205460C461B6B03F17843B3F5C04F8A
S3150800956014D20C4E3046FFF7BFFD4FF000639B6ADE
S315080095701B6B9B6A21462846984704463046FFF7E8
S3150800958061FE01E04FF40174204670BD4FF401748A
S31508009590FAE700BF6077002030B5ADF50F7D4FF0D4
S315080095A000639B6A03F17843B3F5C04F15D20C46A6
S315080095B04FF40E726946FFF797FF054678B92146BC
S315080095C06846FFF7BDFF40F201239842F7D040F204
S315080095D00323984203D0054601E04FF40175284657
S315080095E00DF50F7D30BD0000F8B50D464FF0006350
S315080095F09B6A03F17841B1F5C04F19D20446164665
S315080096001B6B03F17843B3F5C04F15D20C4F3846A0
S31508009610FFF76AFD4FF000639B6A1B6B9B6B324634
S3150800962029462046984704463846FFF70BFE01E0D0
S3150800963040F201142046F8BD40F20114FAE700BFD3
S31508009640607700204FF000639B6A03F17842B2F519
S31508009650C04F29D21B6B03F17843B3F5C04F26D20E
S3150800966000B585B001238DF80430002302930393D7
S3150800967001A8FFF7E9FC039B13F4803F1AD0029B6D
S31508009680C3F307421B0E18D0012B08D04FF0006316
S315080096909B6A1B6B1B6C984705B05DF804FB0A2A8E
S315080096A0F4D840F20110F7E740F20110704740F293
S315080096B00110704740F20110EEE740F20110EBE7A7
S315080096C070B54FF000639B6A03F17842B2F5C04F5C
S315080096D018D205460C461B6B03F17843B3F5C04F09
S315080096E014D20C4E3046FFF7FFFC4FF000639B6A1E
S315080096F01B6BDB6B21462846984704463046FFF726
S31508009700A1FD01E040F20114204670BD40F20114AB
S31508009710FAE700BF607700202DE9F04190B01746C0
S315080097201D464FF000639B6A03F17842B2F5C04FBD
S315080097304ED206460C461B6B03F17843B3F5C04F71
S315080097404BD201A8FFF76AFE059BD3F80C801FFAD7
S3150800975088F3002B44D00EA93046FFF781FEC8BB1C
S315080097600E9E63190F9A93423DD81FFA88F8B4FBE8
S31508009770F8F208FB1242F2B1C8F1000C0CEA040038
S315080097804044B3FBF8F108FB113179B103EA0C0147
S315080097908844A8EB0001304411B1FFF791FFC8B91E
S315080097A02A4639463019FFF71FFF13E0A2EB0808CF
S315080097B008EB0501EFE73019B5FBF8F308FB13537F
S315080097C023B1C8F1000129404144E5E72946E3E70A
S315080097D04FF4817010B0BDE8F0814FF48170F9E75D
S315080097E040F20140F6E740F20240F3E703680B60F7
S315080097F00160704708B543680BB1984708BD222039
S31508009800FCE708B543690BB1984708BDFF20FCE79C
S315080098100A681378022B00D1704710B508461379E9
S31508009820517903EB43031B011433064C1B59CB40F8
S3150800983013F0010F0CBF012300231370FEF7DAFBA8
S3150800984010BD00BF30C0035030B583B0054604686C
S3150800985001213A2000F07EFF002301226179207958
S3150800986002F062FB2379627903EB43031B0114338D
S315080098700F495B58D34013F0010F0CBF0123002397
S315080098802370A379022B02D0002003B030BD00F06C
S31508009890D5FA2A460749607900F0F8FA024661794E
S315080098A0207901230193009302F0AAFAECE700BF9E
S315080098B030C00350119800080368187870470000F4
S315080098C002681378022B12D01379517903EB4303FC
S315080098D01B01143312481B58CB4003F00100034602
S315080098E09179012904D011B980F0010010707047F0
S315080098F05188490089B20B4343F47F4343F0C003C0
S315080099004FF6E0718B4205D04FF6DF718B4204D0DB
S315080099105380704701211170F6E700211170F7E7AF
S3150800992030C0035008B503681A78022A00D008BD6B
S3150800993000225A80FFF788FFF9E710B582B004685D
S315080099402378022B04D0A379022B03D00223237099
S3150800995002B010BD0021607900F088FA617920799B
S315080099600023019300930A4602F04AFAEEE708B587
S3150800997043680068984708BD08B583680068984733
S3150800998008BD08B5C3680068984708BD08B50369E7
S315080099900068984708BD08B543690068984708BD38
S315080099A010B5044601213A2000F0D4FEA378B3FA94
S315080099B083F35B0904226178207802F0B5FA002067
S315080099C010BD000083784BB9037842780121914095
S315080099D003EB43031B01064AD150704703784278CC
S315080099E00121914003EB43031B01024AD150704702
S315080099F040E0035040D0035083784BB9037842784F
S31508009A000121914003EB43031B01064AD1507047DD
S31508009A10037842780121914003EB43031B01024A74
S31508009A20D150704740D0035040E003500378427845
S31508009A300121914003EB43031B01014AD1507047B2
S31508009A4040F0035002460378407803EB43031B01BA
S31508009A50103305495B58C34003F0010093780BB9EE
S31508009A6080F00100704700BF30C00350F0B585B0E4
S31508009A700C4694469DF83410664A1278002A00F07F
S31508009A80BD800546BCF1070F00F2BA800A9A002A83
S31508009A9000F0B8800B9A002A00F0B6800E9AB2F54C
S31508009AA0006F00F3B38001285BD05B4A02EB0C120F
S31508009AB0127B002A00F0AC800022009201920292EA
S31508009AC00392564A02EB4C1E002C4FD14FEA4C1615
S31508009AD000209051CEF80400CEF80800CEF80C000D
S31508009AE09EF8020040F010008EF802009EF803006F
S31508009AF040F030008EF8030021B9C1B241F00301ED
S31508009B008EF8031000930E9B013B444A4FEA4C1013
S31508009B1002EB4C11165A63F30E1616520A9B8B600B
S31508009B200B9B4B60CB789DF83C2062F38303CB708C
S31508009B30012D36D0109B002B56D0374A4FEA0C1110
S31508009B4002EB0C1310985050119A5A6000249C602E
S31508009B505D7372466946604602F084FA204605B08F
S31508009B60F0BD0C9A002AA0D12D48F8E72B4F4FEAF2
S31508009B704C1607EB4C120020B85150609060D0602C
S31508009B80907840F010009070D07840F00300D070C4
S31508009B900029B7D107EB4C12C1B241F03001D170A0
S31508009BA0B0E70E460A7B42F001020A73D2B242F0CF
S31508009BB002020A73CA68042161F39F02F26006F181
S31508009BC0100796E80F0087E80F00F2696FF00301A7
S31508009BD061F39F02F2610C9B7361012CAAD10B9A67
S31508009BE0B2610C9A7260A5E7002DA6D10B4B03EB68
S31508009BF04C139A786FF304129A709EE70948AEE7F9
S31508009C000748ACE70648AAE70548A8E70448A6E7D0
S31508009C100548A4E7FC7800207C770020FC77002024
S31508009C20018000F0028000F0078000F0134B1B78DB
S31508009C30FBB110B50446F0B101F031FF0023072B44
S31508009C4013DC0F4A02EB0312127B0AB10133F6E763
S31508009C5023600B4A190102EB031301241C73002429
S31508009C60545001F022FF204602E001F01EFF05488D
S31508009C7010BD054870470548FAE700BFFC78002084
S31508009C807C770020048000F0028000F0018000F05C
S31508009C9000B583B0144B1B68019300238DF804307C
S31508009CA001F0FDFE114B1B7833B9104B01221A70D7
S31508009CB001F0FBFE002309E001F0F7FE0C480FE077
S31508009CC00C4A02EB0312002111730133072BF7DD4F
S31508009CD004238DF807300DEB030002F091F90020FC
S31508009CE003B05DF804FB00BFAC610D08FC780020EA
S31508009CF0038000F07C77002000B589B084460E9872
S31508009D0007900D9806909DF8300005900B980490E2
S31508009D109DF82800039000200290019300920B46BC
S31508009D2062460121FFF7A2FE09B05DF804FB0000B8
S31508009D300C4B1B7873B110B50C4607280CD869B1C3
S31508009D40094B03EB00131B7B53B102F0D5F92060D6
S31508009D50002010BD054870470548FAE70448F8E7AB
S31508009D600448F6E7FC7800207C770020028000F0A3
S31508009D70018000F0078000F0F8B5194B1F6D5B6D88
S31508009D801F4002D40125002402E0FEE701346D00DD
S31508009D90072C24D83D42F9D0124B1D652301124ADF
S31508009DA0D358002BF2D002EB0416B1680131B1602A
S31508009DB072682046984780F00100C0B2737B012B79
S31508009DC0E4D10028E2D0094B03EB44131A7B6FF366
S31508009DD041021A731A7F6FF341021A77D6E7F8BD64
S31508009DE000000450002004507C770020FC770020F7
S31508009DF010B5044602E0202007E09047DCB194FA4B
S31508009E00A4F00028F7D0B0FA80F00123834024EAB2
S31508009E100304094B03EB00135A68002AEED0064BDD
S31508009E2003EB00131B7B002BE7D0034B03EB00135C
S31508009E3099689047E2E710BD0079002008B5192017
S31508009E4001F036FE28B1084B4FF00072C3F88021A6
S31508009E501A601A2001F02CFE28B1034B4FF08062DD
S31508009E60C3F880211A6008BD00E100E038B5054650
S31508009E700C4601F014FE044B03EB05135C6000224C
S31508009E801A7301F012FE38BD00790020F8B50546B0
S31508009E900F46164601F003FE05F0FC0C104BD3F8EE
S31508009EA024140023032B0CD8EC1804F0030444EA0A
S31508009EB00C0421FA04F212F0010F03D00133DBB2CD
S31508009EC0F0E7FF24FF2C06D0064B03EB04135F6074
S31508009ED09E6001221A7301F0E8FD2046F8BD00BF16
S31508009EE000C003500079002008B5084BD3F82404B5
S31508009EF0D3F82024104000F0553020F0502003F508
S31508009F000053C3F82004FFF773FF08BD00C00350D1
S31508009F1008B5084BD3F82404D3F82024104000F0E1
S31508009F20AA3020F0A02003F50053C3F82004FFF759
S31508009F305FFF08BD00C0035008B5034B1968034B03
S31508009F401868C7F09BFD08BDE8000020E400002063
S31508009F50B0F1FF3F01D010B9704702487047024878
S31508009F60704700BF21E000F024E000F089080023D4
S31508009F7001E0043001338B4205D20268B2F1FF3F9B
S31508009F80F7D00020704701207047704738B504465F
S31508009F90CAF0F2FDFFF7DCFF054650B9074B9B6890
S31508009FA00A3303F01F03012199402046FFF7DEFF1D
S31508009FB008B1284638BD024DFBE700BF0080E00F18
S31508009FC00EE000F0F8B505460E4694002246CAF0A3
S31508009FD0DBFDFFF7BDFF074628B92246314628466E
S31508009FE0C9F021FC08B93846F8BD014FFBE700BFA8
S31508009FF010E000F008B50346084613F0030F02D137
S3150800A00011F0030F0AD092001946C9F01CFC002073
S3150800A01008BD53F8041B40F8041B013A002AF8D17E
S3150800A020F5E7000010B582B0044601A802F0A4F9CD
S3150800A0309DF8063023800122E2700020A070054BAF
S3150800A0409B680A3303F01F0302FA03F3636002B046
S3150800A05010BD00BF0080E00F08B502F07BF808BD10
S3150800A06008B502F067F8002008BD000008B501F041
S3150800A0700FFD014B186008BD707E002008B5024B25
S3150800A080186801F009FD08BD707E002070470000C1
S3150800A090024B4FF480321A67704700BF0090005099
S3150800A0A0324B984252D029D8314B984248D009D9D8
S3150800A0B0304B984247D0304B98421DD12F4BD3F89E
S3150800A0C0800070472E4B984237D005D92D4B9842C1
S3150800A0D010D12A4B186F70472B4B984202D02B4B46
S3150800A0E0984202D1254B986D7047294B9842F9D072
S3150800A0F0002070470020704700207047254B984283
S3150800A1002CD00CD9244B98422CD003F5740303F5B4
S3150800A110105398420FD1194BD3F8980070471F4B2C
S3150800A120984217D01E4B984203D1144BD3F88C0093
S3150800A13070470020704700207047104B586E7047D4
S3150800A1400E4B586F70470D4B986F70470B4BD3F8F3
S3150800A15084007047094BD3F888007047074BD3F83B
S3150800A16090007047054BD3F8940070470048E80103
S3150800A1700024F400C0EA210180BA8C010080E00FB7
S3150800A180C0CF6A00405DC60080841E0000093D00FD
S3150800A19040420F00007E56030090D00380D543024C
S3150800A1A0006CDC0238B505460C460C4BD3F88030FB
S3150800A1B003F00303012B08D0022B0AD0002318460C
S3150800A1C005B1286004B1236038BD11F0A1FE0E2345
S3150800A1D0F6E711F0EBFE0723F2E700BF0080005018
S3150800A1E038B505460C46164BD3F8203103F007035D
S3150800A1F0013B052B20D8DFE803F0030B130F171BD1
S3150800A20011F07AFE052305B1286004B1236038BD34
S3150800A21011F0AEFE0323F6E711F0C8FE0723F2E7B6
S3150800A22011F0C0FE0223EEE711F066FE0623EAE708
S3150800A23011F09EFE0423E6E700231846E3E700BF75
S3150800A2400080005038B505460C46164BD3F8283121
S3150800A25003F00703013B052B20D8DFE803F00313BF
S3150800A2601B0F0B1711F048FE052305B1286004B132
S3150800A270236038BD11F040FE0623F6E711F096FE7E
S3150800A2800723F2E711F074FE0323EEE711F070FEE0
S3150800A2900423EAE711F086FE0223E6E700231846C0
S3150800A2A0E3E700BF0080005070B582B006460D4651
S3150800A2B000230193104BD3F8804104F00304022CC9
S3150800A2C016D0032C0FD0012C07D000240EB1019B09
S3150800A2D0336005B12C6002B070BD002101A8FFF7FC
S3150800A2E07FFF1024F2E711F061FE01900724EDE7E5
S3150800A2F011F058FE0190E9E70080005030B583B0B0
S3150800A30005460C4600230193144BD3F8203203F07C
S3150800A3100703013B032B1ED8DFE803F0020E1318D0
S3150800A320002101A8FFF78EFF12230DB1019A2A60BA
S3150800A33004B1236003B030BD11F038FE0190072345
S3150800A340F3E711F077FE01900A23EEE711F078FEA5
S3150800A35001900923E9E70023E7E700BF00800050E2
S3150800A36038B505460C460F4BD3F8403103F00303C6
S3150800A370022B0ED0032B10D0012B06D00023184633
S3150800A38005B1286004B1236038BD11F053FE0A23D5
S3150800A390F6E711F055FE0923F2E711F04EFE0C23FD
S3150800A3A0EEE700BF0080005030B583B005460C4686
S3150800A3B0002301934FF0E0231B6913F0040F0CD020
S3150800A3C011F0C0FD01900D2300930DB1019B2B6088
S3150800A3D00CB1009B236003B030BD694601A8FFF7A6
S3150800A3E0BFFFF2E730B583B005460C46002301935C
S3150800A3F0144BD3F8603203F00703013B032B1FD835
S3150800A400DFE803F0020E1914002101A8FFF7E8FEA1
S3150800A41010230DB1019A2A6004B1236003B030BD40
S3150800A420002101A8FFF79CFF1123F2E711F0BEFDFA
S3150800A43001900723EDE711F0B5FD01900223E8E747
S3150800A4400023E6E70080005030B583B005460C4689
S3150800A45000230193144BD3F8943203F00703013B0E
S3150800A460032B1FD8DFE803F0020E1914002101A8F8
S3150800A470FFF7B6FE10230DB1019A2A6004B12360D6
S3150800A48003B030BD002101A8FFF76AFF1123F2E7E8
S3150800A49011F08CFD01900723EDE711F083FD019083
S3150800A4A00223E8E70023E6E70080005030B583B0D2
S3150800A4B005460C46002301930C4BD3F8703203F083
S3150800A4C00303012B09D0022B0DD115230DB1019AD7
S3150800A4D02A6004B1236003B030BD002101A8FFF74C
S3150800A4E03FFF1123F2E70023F0E700BF008000508A
S3150800A4F038B505460C46124BD3F8003203F007036D
S3150800A500013B032B18D8DFE803F0020A0E1211F0FC
S3150800A51091FD0A2305B1286004B1236038BD11F006
S3150800A5208FFD0923F6E711F088FD0C23F2E711F0F9
S3150800A53009FD800A0F23EDE700231846EAE700BF66
S3150800A5400080005038B505460C46124BD3F8083241
S3150800A55003F00703013B032B18D8DFE803F0020AD0
S3150800A5600E1211F067FD0A2305B1286004B12360B5
S3150800A57038BD11F065FD0923F6E711F05EFD0C23E1
S3150800A580F2E711F0DFFC800A0F23EDE700231846F7
S3150800A590EAE700BF0080005038B505460C460F4B69
S3150800A5A0D3F8403203F00303022B0ED0032B10D04E
S3150800A5B0012B06D00023184605B1286004B1236094
S3150800A5C038BD11F037FD0A23F6E711F039FD0923E6
S3150800A5D0F2E711F032FD0C23EEE700BF00800050D1
S3150800A5E038B505460C460F4BD3F8603103F0030324
S3150800A5F0022B0ED0032B10D0012B06D000231846B1
S3150800A60005B1286004B1236038BD11F013FD0A2393
S3150800A610F6E711F015FD0923F2E711F00EFD0C23FC
S3150800A620EEE700BF0080005038B505460C46104BD3
S3150800A630D3F8000100F00300032815D8DFE800F07E
S3150800A64002080C10012305B1286004B1236038BD47
S3150800A65011F08EFC0323F6E711F0F2FC0923F2E76A
S3150800A66011F09EFC0823EEE700231846EBE700BF2F
S3150800A67000800050B0F5207F20D00ED8B0F5007FBE
S3150800A68016D020D810B1B0F5C07F04D10F4B186F83
S3150800A690C0F3033018E0002016E0B0F5607F05D15E
S3150800A6A00A4BD3F88000C0F301100DE000200BE040
S3150800A6B0064BD3F89000C0F3046005E0034B186F0F
S3150800A6C0C0F3802000E00020013070470080005071
S3150800A6D038B505460C46174B4FF480329A6600206B
S3150800A6E0FFF7C8FF05FB00F0134BDA6902F4803266
S3150800A6F041F67131D9635B6823F440136CB90F498D
S3150800A700884207D800210B430B494B600AB1002247
S3150800A710CA6338BD4FF48011F5E7002C07DD0849F8
S3150800A720884201D80021EEE74FF48011EBE74FF499
S3150800A7304011E8E70090005000000350005A6202FA
S3150800A740002D310108B511F00FFC0021FFF7C0FFFD
S3150800A75008BD0000430905D0012B0ED0022B0ED0F0
S3150800A760002200E0002200F01F0051B102F58052DD
S3150800A770012303FA00F010607047034AF3E7034A1F
S3150800A780F1E702F50052F3E7648000506880005054
S3150800A79010B582B0002301930093B0F5807F00F2D4
S3150800A7A00781B0F5807F00F27A81DFE810F04A0170
S3150800A7B078017801780178017801780178017801C3
S3150800A7C078017801780178017801780178017801B3
S3150800A7D078017801780178017801780178017801A3
S3150800A7E078017801780178017801780178014A01C1
S3150800A7F07B014A017B01510151015101510151016E
S3150800A8007B0121013B01A201A7013B017B017B01E1
S3150800A8107B0178017801780178017801780178015F
S3150800A82078017B017B017B01B10168017B0178011D
S3150800A8307801780178017801780178017801780142
S3150800A840780178017801780151014A014A014A01E3
S3150800A8505D013B013B01AC01700193019801780150
S3150800A8607801780178017801120178017801780178
S3150800A8707801780178017801780178017801780102
S3150800A88078017801780178017801780178017801F2
S3150800A89078017801780178017801780178017801E2
S3150800A8A078017801780178017801780178017501D5
S3150800A8B078017801780178017801780178017801C2
S3150800A8C078017801780178017801780178017801B2
S3150800A8D078017801780178017801780178017801A2
S3150800A8E07801780178017801780178017801780192
S3150800A8F07801780178017801780178017801780182
S3150800A9007801780178017801780178017801780171
S3150800A9107801780178017801780178017801780161
S3150800A9207801780178017801780178017801780151
S3150800A9307801780178017801780178017801780141
S3150800A9407801780178017801780178017801780131
S3150800A9507801780178017801780178017801780121
S3150800A9607801780178017801780178017801780111
S3150800A9707801780178017801780178017801780101
S3150800A98078017801780178017801780178017801F1
S3150800A99078017801780178017801780178017801E1
S3150800A9A078017801780178017801780178019D01AC
S3150800A9B0B0F5C06F00F09D8010D9B0F5206F00F09B
S3150800A9C0A2804AD9B0F5406F00F08980B0F5486F8B
S3150800A9D05AD1002101A8FFF737FD60E0B0F5607F86
S3150800A9E06BD00AD9B0F5A06F74D0B0F5B06F2CD182
S3150800A9F0002101A8FFF758FC51E0B0F5007F0AD105
S3150800AA0011F086FA04464FF40070FFF733FEB4FBE4
S3150800AA10F0F4019443E011D9B0F5207F42D0B0F5A7
S3150800AA20407F3CD111F08EFA04464FF42070FFF7B0
S3150800AA3021FEB4FBF0F46408019430E0B0F5C07F61
S3150800AA402DD111F07FFA019029E0B0F5806F26D15B
S3150800AA50002101A8FFF7C4FB21E0B0F5F06F57D03D
S3150800AA6007D9B0F5106F1AD1002101A8FFF76AFDC2
S3150800AA7015E0B0F5D06F41D0B0F5E06F0FD10021E9
S3150800AA8001A8FFF789FD0AE0B0F5286F07D1002174
S3150800AA9001A8FFF70BFD02E011F03AFA01900198C0
S3150800AAA002B010BD11F04EFA04464FF42070FFF7BD
S3150800AAB0E1FDB4FBF0F40194F1E700216846FFF7E5
S3150800AAC071FB009C4FF46070FFF7D4FDB4FBF0F403
S3150800AAD00194E4E7002101A8FFF710FCDFE7002155
S3150800AAE001A8FFF7AFFBDAE7002101A8FFF75CFC36
S3150800AAF0D5E7002101A8FFF733FCD0E7002101A81C
S3150800AB00FFF7F6FCCBE7002101A8FFF76BFCC6E7C9
S3150800AB10002101A8FFF764FDC1E7000008B5802001
S3150800AB20FFF736FE034B984203D8034B4FF48032A7
S3150800AB301A6708BD005A620200A0005000B583B02B
S3150800AB4000230193B0F5807F00F04A8118D9B0F54B
S3150800AB50F06F00F04A8140F2DB80B0F5206F00F01C
S3150800AB60538140F20481B0F5406F00F04881B0F59A
S3150800AB70486F40F00C8101A90020FFF765FCDFE073
S3150800AB80802800F2DD802428C0F0DA8024385C288A
S3150800AB9000F2D68001A353F820F000BFD7AD000815
S3150800ABA0D7AD0008D7AD0008D7AD0008D7AD000867
S3150800ABB041AD0008CDAD000841AD000865AD0008FF
S3150800ABC0F5AD000841AD000841AD000841AD0008EB
S3150800ABD041AD000841AD000841AD000841AD00088F
S3150800ABE041AD000841AD000841AD000841AD00087F
S3150800ABF041AD000841AD000841AD000841AD00086F
S3150800AC00EBAD000825AD000841AD000841AD0008D0
S3150800AC1041AD000841AD000841AD000841AD00084E
S3150800AC2041AD000841AD000841AD000841AD00083E
S3150800AC3041AD000841AD000841AD000841AD00082E
S3150800AC40D7AD000841AD000841AD000841AD000888
S3150800AC5085AD000841AD000841AD000809AE000801
S3150800AC6095AD000855AD0008FFAD000841AD0008D8
S3150800AC7041AD000841AD000841AD000841AD0008EE
S3150800AC8077AB000841AD000841AD000841AD0008AA
S3150800AC9041AD000841AD000841AD000841AD0008CE
S3150800ACA041AD000841AD000841AD000841AD0008BE
S3150800ACB041AD000841AD000841AD000841AD0008AE
S3150800ACC041AD000841AD000841AD000841AD00089E
S3150800ACD041AD000841AD000841AD000841AD00088E
S3150800ACE041AD000841AD000841AD000841AD00087E
S3150800ACF041AD000841AD000841AD000841AD00086E
S3150800AD0041AD000841AD000841AD00089FAD0008FF
S3150800AD10B0F5B06F5AD00AD9B0F5D06F6AD0B0F591
S3150800AD20E06F1CD101A90020FFF736FC08E0B0F55A
S3150800AD30607F04D101A90020FFF734FA00E003D2AE
S3150800AD40019803B05DF804FBB0F5806F43D0B0F509
S3150800AD50A06FF5D101A90020FFF7D0FAF0E7B0F50A
S3150800AD60C06FEDD101A90020FFF7FAFAE8E7B0F5C0
S3150800AD70086F04D101A90020FFF756FCE0E7B0F5FB
S3150800AD80106FDDD101A90020FFF7DCFBD8E7B0F58D
S3150800AD90286FD5D101A90020FFF788FBD0E71D4B06
S3150800ADA01B6F03F00703013B032BC9D8DFE803F049
S3150800ADB00B02050805230193C2E703230193BFE7A6
S3150800ADC008230193BCE702230193B9E701A90020F0
S3150800ADD0FFF76AFAB4E701A90020FFF701FAAFE71F
S3150800ADE001A90020FFF7E0FAAAE701A90020FFF76A
S3150800ADF0F7FBA5E701A90020FFF77AFBA0E701A961
S3150800AE000020FFF71FFA9BE701A90020FFF7EAFADF
S3150800AE1096E700BF0080005008B5FFF78FFE0928A7
S3150800AE2010D012D30A38012812D80C4B4FF48002DE
S3150800AE305A6603F5D8335B6A13F0010F0BD04FF44B
S3150800AE40FA7001E0064B188808BD4FF6FF70FBE75D
S3150800AE504FF6FF70F8E74FF6FF70F5E700900050E1
S3150800AE600A01002038B504468020FFF767FE03284C
S3150800AE7000F0A380594B4FF480125A66584B45F69A
S3150800AE800E02C3F8802003F580524FF0A06191624C
S3150800AE9003F500534FF480329A62514B9B6D13F4BD
S3150800AEA0803FFAD1226863681B0543EA0263227B66
S3150800AEB043EA0243627B43EA0233A27B43EA8213F4
S3150800AEC0E27B1343464A1361936903F00043216901
S3150800AED043EA8163616943EA0163217E43EA0143E8
S3150800AEE0617E43EA0123A17E0B439361136A23F033
S3150800AEF00F03E269002A40D111460B43E17E43EA7B
S3150800AF0081031343364A1362E369002B37D1916AEA
S3150800AF10344B0B4094F8201043EA411394F821105F
S3150800AF2043EA011394F8241043EAC10343F4803337
S3150800AF3093622B4B9A6D2C4B9343FAD1284A02F510
S3150800AF4080514FF080738B62136923F47003A068F5
S3150800AF5043EA005313614FF000438B6194F82230A3
S3150800AF601BB9224B4FF080729A6294F82330EBB9E2
S3150800AF701E4B4FF480329A6218E00821BDE7022B77
S3150800AF801CD0174A916A174B0B4094F8201043EAD5
S3150800AF90411394F8221043EA016394F8241043EA13
S3150800AFA0C10394F8231043EA0143936294F82530C9
S3150800AFB01BB10B4B0E4AC3F8802038BD084D002341
S3150800AFC02B61AB6100F064FD6A6B82F4085303F4ED
S3150800AFD07F4353406B6300F05FFDD2E7009000505B
S3150800AFE00040005AC7FFFEFE030001000060005A39
S3150800AFF0F1A7FFFF014B93F90000704708010020F5
S3150800B00010B443784F2B28BF4F231A461C4B4FF4D6
S3150800B0100001596603F5B8334FF4D151596203F567
S3150800B020805102244C6003F5005301215960154BE9
S3150800B0301B6913F4803FFAD1037842EA0323114AC5
S3150800B0405361416883681B0143EA0123017B43EA94
S3150800B0504103417B0B439360817BC37B1B0143EA1E
S3150800B0604113017C43EA4103417C0B435360837CD3
S3150800B0701BB113466FF4D1525A625DF8044B704700
S3150800B0800090005000000250014B1880704700BF26
S3150800B0900A01002008B5002903DD0121FFF718FB86
S3150800B0A008BD0021FFF714FBFAE70000B0F5207F82
S3150800B0B05DD02DD8B0F5007F4ED061D810B1B0F56F
S3150800B0C0C07F24D110B54C1EFFF73CFB00F060F89A
S3150800B0D0FEF7DEFF2B4B196F21F4704141EA04316C
S3150800B0E0196710F02FFF284BD3F8843013F0100F90
S3150800B0F0F9D1254BD3F88410C1F38111C1F10201AE
S3150800B100FFF7C8FF00F04CF8FFF708FD10BD7047C1
S3150800B110B0F5607F1FD11D4BD3F8FC2012F080726A
S3150800B12006D01846D3F8FC3023F08073C0F8FC30FC
S3150800B13001391448D0F8803023F0300343EA01116E
S3150800B140C0F88010E2B1114AD2F8FC3043F080739F
S3150800B150C2F8FC307047704701390A4AD2F8903075
S3150800B16023F0F85343EA0161C2F890107047013999
S3150800B170044A136F23F4806343EA812111677047F9
S3150800B180704700BF008000500040005000ED00E00E
S3150800B19008B502214FF42070FFF788FF08BD0000AC
S3150800B1A008B54FF4C070FFF7F3FA054B984205D976
S3150800B1B002214FF42070FFF779FF08BD0121F8E757
S3150800B1C080F0FA0270B50C46B0F5807F00F02F8249
S3150800B1D029D9B0F5F06F00F0938240F2EB80B0F514
S3150800B1E0206F00F01A8340F26081B0F5406F00F0DE
S3150800B1F0EC82B0F5486F40F07E81023C0F2C00F2DD
S3150800B2002B83DFE814F039032903290329032903CB
S3150800B21033032903290329032903290329032903B6
S3150800B220290335033703802800F20F812428C0F04C
S3150800B2300C8124385C2800F2088101A353F820F019
S3150800B240F3B50008F3B50008F3B50008F3B5000830
S3150800B250F3B500084BB40008CBB500084BB400089A
S3150800B26085B4000835B700084BB400084BB400088D
S3150800B2704BB400084BB400084BB400084BB40008A4
S3150800B2804BB400084BB400084BB400084BB4000894
S3150800B2904BB400084BB400084BB400084BB4000884
S3150800B2A04BB4000801B70008CDB300084BB400083A
S3150800B2B04BB400084BB400084BB400084BB4000864
S3150800B2C04BB400084BB400084BB400084BB4000854
S3150800B2D04BB400084BB400084BB400084BB4000844
S3150800B2E04BB40008F3B500084BB400084BB400088B
S3150800B2F04BB40008DDB400084BB400084BB4000892
S3150800B3001BB80008FDB400085BB40008CBB70008FA
S3150800B3104BB400084BB400084BB400084BB4000803
S3150800B3204BB40008FBB100084BB400084BB4000846
S3150800B3304BB400084BB400084BB400084BB40008E3
S3150800B3404BB400084BB400084BB400084BB40008D3
S3150800B3504BB400084BB400084BB400084BB40008C3
S3150800B3604BB400084BB400084BB400084BB40008B3
S3150800B3704BB400084BB400084BB400084BB40008A3
S3150800B3804BB400084BB400084BB400084BB4000893
S3150800B3904BB400084BB400084BB400084BB4000883
S3150800B3A04BB400084BB400084BB400084BB4000873
S3150800B3B01DB50008B0F5B06F00F0078119D9B0F5D2
S3150800B3C0D06F00F0B781B0F5E06F58D10B2C00F2C2
S3150800B3D01A820A2C80F01B82092C40F01A8202225B
S3150800B3E0AD49D1F8403223F003031343C1F8403284
S3150800B3F02BE0B0F5607F27D1A84BD3F8FC2012F0DC
S3150800B400807206D01946D3F8FC3023F08073C1F851
S3150800B410FC30072C00F0C3810E2C00F0C281062CEC
S3150800B42000F0BB8100209C49D1F8803023F003034B
S3150800B4300343C1F8803042B1984AD2F8FC3043F051
S3150800B4408073C2F8FC3000E000D270BDB0F5806FA2
S3150800B45000F0CF80B0F5A06FF7D1073C0B2C00F2B7
S3150800B460A281DFE814F0AA01A001AE01AC01AC018B
S3150800B470A001A001A001A001A001A001B001B0F5A2
S3150800B480C06FE2D10B2C00F231810A2C80F0328198
S3150800B490092C40F0318102227F49D1F8403123F04E
S3150800B4A003031343C1F84031CFE7B0F5086F12D153
S3150800B4B0082900F06E81092900F06D81032900F042
S3150800B4C066810021744AD2F8003123F003030B4346
S3150800B4D0C2F80031B9E7B0F5106FB6D1093C062CB1
S3150800B4E000F24381DFE814F04301490149014501AF
S3150800B4F0410141014701B0F5286FA6D1112C00F092
