S0220000636869702D65667233322D6C69676874696E672D6578616D706C652E733337C3
S31508006000000004205D65010859650108A90906080C
S31508006010BDA30008596501085965010859650108B5
S31508006020596501085965010859650108E1A401087F
S31508006030596501088C00002081A401087134010803
S315080060405965010859650108596501085965010826
S315080060505965010859650108596501085965010816
S315080060605965010859650108596501085965010806
S3150800607059650108596501085965010859650108F6
S3150800608059650108596501085965010859650108E6
S3150800609059650108ED830008596501085965010825
S315080060A0596501086985000845850008596501088C
S315080060B0596501085DFE090861080A0819080A08F1
S315080060C015080A0835000A085D080A081D080A089E
S315080060D035080A0821080A08C1080A08A1080A0892
S315080060E05965010859650108596501085965010886
S315080060F0F1680108596501085965010859650108DB
S315080061005965010859650108596501085965010865
S315080061105965010859650108596501085965010855
S315080061205965010859650108596501085965010845
S315080061305965010859650108596501085965010835
S3150800614059650108616A010859650108DFAC00084C
S3150800615089E309085965010869C109086FC1090871
S315080061605965010859650108596501085965010805
S3150800617010B5054C237833B9044B13B1044800E035
S3150800618000BF0123237010BDC809002000000000CD
S31508006190506E0B0808B5034B1BB10349034800E0D2
S315080061A000BF08BD00000000CC090020506E0B0897
S315080061B0A3F5803A704700BF174B002B08BF134B57
S315080061C09D46FFF7F5FF00218B460F461348144AF4
S315080061D0121A9DF0CFFF0E4B002B00D098470D4B9F
S315080061E0002B00D098470020002104000D000D4820
S315080061F0002802D00C4800E000BF9DF02FFF2000C9
S31508006200290001F03BFA9DF09FFD00BF0000080041
S31508006210000000000000000000000420C80900205B
S31508006220F00D022000000000000000001FB500234A
S315080062300C4600931021134B0A20134A0DF08CFDCF
S31508006240124B186030B912485AF078FA40F20170C9
S3150800625000F0D0F90F4B4FF4806202930E4B2046A4
S31508006260019301230D490093084B0EF065FB30B9E5
S315080062700B485AF063FA40F2027000F0BBF90020AE
S3150800628004B010BD4C0B0020A90A0020A00A00206B
S31508006290B8540A08E80900209C0B0020DB540A08B9
S315080062A0DF540A0810B50446A6B029B924485AF09E
S315080062B045FA2F2000F09EF9224B00220093012177
S315080062C0234621480FF086FA204B186030B920483B
S315080062D05AF034FA40F2047000F08CF91D4B012292
S315080062E000930A2123461C480FF074FA1B4B1860CA
S315080062F030B91B485AF022FA40F2047000F07AF9D5
S31508006300184919485AF01AFA58F004FF036803ACFA
S31508006310D3F88430984705AB03938123049325F07B
S3150800632059FB214625F00CFB30B994E8030067F0C9
S3150800633057FB002026B010BD0C485AF0FFF9F8E7C5
S31508006340F9540A08AD65000812550A08A40A00207F
S3150800635018550A08AD63000832550A08E4090020F2
S315080063603B550A0855550A085E550A087B550A081A
S3150800637008B50B485AF04BFC80B10A485CF0A0FE01
S3150800638008485CF04EFE07485CF0ABFE06485CF039
S31508006390F1FBBDE8084002485AF042BC08BD00BF00
S315080063A0283D01206883012060830120FFF7E0BFB4
S315080063B0002307B50A4800931A46032100680FF020
S315080063C039FA30B907485AF0B9F940F2067000F0C0
S315080063D011F90022044B1A7003B05DF804FB00BFE4
S315080063E0A40A002093550A08A80A002037B5104DBC
S315080063F0044628680FF082FB20B10E485AF09EF931
S31508006400FFF7D6FF64232246009304210023286859
S315080064100FF010FA012806D007485AF08FF940F213
S31508006420057000F0E7F80122044B1A7003B030BD7E
S31508006430A40A0020AB550A08C6550A08A80A00206F
S3150800644010B50388012B11D10D4B1B7873B10D4C78
S315080064502378012B0BD140F6B8310B485AF06EF968
S3150800646040F6B830FFF7C2FF0223237010BD022B97
S31508006470FCD1002305482370BDE8104068F046B9F2
S31508006480A80A00209C1B0020DF550A08C0B6012078
S3150800649038B50579194B012D1B7809D13BB9184C2C
S315080064A0237823B940F6B830FFF7A0FF257038BD2A
S315080064B0002BFCD0124C2578012D17D1FFF778FF59
S315080064C00023104823705CF0FBFD044648B92946B2
S315080064D00D485CF03DFB2146BDE838400A485CF0B3
S315080064E03DBB0A48BDE838405AF028B9022DDED12E
S315080064F0FFF75EFF002306482370F3E7A80A00208B
S315080065009C1B002068830120608301201E560A0810
S315080065105D560A0813B50C4B1C680EF0E5FA002305
S3150800652002460121204600930FF084F9012809D07C
S3150800653006485AF003F940F2057002B0BDE810406B
S3150800654000F058B802B010BDE40900207D560A08CC
S315080065501FB5134C01902368F3B113F043FF01995B
S315080065600346A0B10023206803AA03930DF094FD07
S31508006570039B2BB14FF0E0234FF08052C3F8042D54
S3150800658060B9084804B0BDE810405AF0D7B80122EF
S3150800659020680DF095FCF3E70348F3E704B010BD57
S315080065A0A00A002095560A08C2560A081FB50123F4
S315080065B0ADF80030044B019068460393FFF7C8FF17
S315080065C005B05DF804FB00BF41640008CB680846C7
S315080065D003B1184701485AF0B1B800BFEA560A088D
S315080065E0014608B502485AF0A9F813F033FFFEE74A
S315080065F01A570A0808B5FFF7F3FF000010B5044656
S31508006600E8B10EF069FA0F4A54F8043C10680342E0
S3150800661006D113F01FFF0C490C489EF0A3F8FEE7BD
S3150800662054F8082C32B113F015FF094907489EF0B3
S3150800663099F8FEE723EA0004083C0EF005FB20461D
S3150800664010BD00BFA46B00204A570A0879570A08EC
S3150800665092570A08014B1868704700BFA86B0020BC
S31508006660014B1868704700BFAC6B002008B513F0E3
S3150800667011FE044B1A68044B1A60BDE8084013F073
S3150800668017BE00BFA86B0020AC6B0020F8B5044607
S315080066900EF022FA184B1B6843B300254FF0FF375C
S315080066A02E46164A11685A681B68954238BF154621
S315080066B0974228BF1746994206F10106F3D10EF014
S315080066C0C3FAC4E90157E66013F0E4FD0C4B1B68F6
S315080066D023600C4B1B6863610B4B1B68A3610B4B58
S315080066E01B682361BDE8F84013F0E2BD4FF0FF37A1
S315080066F01D461E46E3E700BFB86B0020A01B00201E
S31508006700A86B0020B06B0020B46B0020AC6B002097
S3150800671010B5144B04461B6888B013B901A8FFF7D7
S31508006720B5FF104B1A461B68A342FBD350681118D5
S315080067308C4201BF61681446091851606168601887
S31508006740834208D108480068834204D05B680B443A
S31508006750636013681B689442236018BF146008B00E
S3150800676010BD00BFB86B0020A01B0020F8B504467A
S315080067700EF0B2F93C493D4D0B68CBB900203C4BB5
S315080067803C4A5E071CBF073323F0070313605060BB
S31508006790394A22F00702C2E90000D01AC3E90020EC
S315080067A0364B0A601860364B18604FF000432B6072
S315080067B02B681C4206D00EF047FA00265AF0B2FBA8
S315080067C03046F8BD631E0A33F5D8600704F108039E
S315080067D005D023F0070208329A42ECD91346284F0F
S315080067E03A689A42E7D3234A14686068984201D205
S315080067F02068A0B90968A142DDD021681668116031
S3150800680062680836D21A102A10D9E018410709D04A
S3150800681013F020FE1B491C489DF0A4FFFEE7224604
S315080068200446E2E742606360FFF772FF1349626855
S315080068303B6808689B1A834238BF0B603B602B682D
S31508006840134363600023114A2360136801331360FE
S315080068500EF0FAF97307B3D013F0FCFD0C490A4899
S315080068609DF080FFFEE700BFA01B0020A46B002060
S31508006870A41B0020B86B00209C6B0020AC6B00208A
S31508006880A86B0020B2570A0879570A08B06B00208F
S31508006890ED570A0813B501FB00F219B1B2FBF1F185
S315080068A081420CD110460192FFF760FF044618B1E9
S315080068B00021019A9DF05EFC204602B010BD00241E
S315080068C0FAE7000010B5044670B3184A50F8043CBD
S315080068D01268134206D113F0BDFD154915489DF0FF
S315080068E041FFFEE750F8081C31B113F0B3FD124919
S315080068F010489DF037FFFEE723EA020340F8043C00
S315080069000EF0EAF80D4A54F8043C1168A4F10800A0
S315080069100B441360FFF7FCFE094A13680133136042
S31508006920BDE810400EF090B910BD00BFA46B002062
S315080069304A570A0879570A0892570A08A86B002086
S31508006940B46B0020F8B506460C46FFF757FE074617
S31508006950C8B19CB1A0421CD021460120FFF79AFF7E
S31508006960054648B1A7423A46314628BF22469DF019
S31508006970DAFB3046FFF7A6FF2846F8BD3046FFF794
S31508006980A1FF2546F8E72146BDE8F8400120FFF7B4
S3150800699081BF3546F0E7FFF7E9BEFFF793BF084624
S315080069A0FFF7E4BE0846FFF78DBF08461146FFF716
S315080069B0C9BF08B504F0B0F90BF0B6FD59F0B2FE40
S315080069C026F016FCBDE8084025F022B9002213B5CA
S315080069D00368ADF806209C680DF10603A047192840
S315080069E016BFB0FA80F00120400902B010BD052B91
S315080069F08CBF2F200020704770477047704770473C
S31508006A007047000001485CF0A1BA00BF0C94012051
S31508006A1001485CF0A0BA00BF0C94012000F09EBFAC
S31508006A2010B5044638219CF07FFA204610BD10B5F3
S31508006A30044604219CF078FA204610BD10B5044699
S31508006A4008219CF071FA204610BD00000D4A08B5D1
S31508006A500260D0F8F4210AB19DF060F9D0F8482117
S31508006A60002AF9D1D0F80421002AF5D1D0F89820C7
S31508006A70002AF1D1426D002AEED10369002BEBD131
S31508006A8008BD00BF80E60A0838B5094B044603600E
S31508006A90436853B1437C43B9C56835B12B6828466A
S31508006AA01B689847284658F0C1FB204638BD00BFEA
S31508006AB0A0B70A08406808B159F0D8BD0320704746
S31508006AC013B5406810B9032002B010BD00248DF834
S31508006AD0074022B90BB12F20F6E70DF1070259F04E
S31508006AE099FDF1E730B540681C4685B010B903201A
S31508006AF005B030BD00251B888DF80B5022B90BB1A7
S31508006B002F20F5E70DF10B020395019503AD0095CE
S31508006B1059F064FD192801D00028E9D1039BB3F583
S31508006B20803F28BF00232380E2E7000048F20102E5
S31508006B3010B50388934212D190F90830012B15D16C
S31508006B400B4859F0FBFD34F09FFD036840F6B83159
S31508006B505C69084AA446BDE810400023604748F22D
S31508006B600202934202D190F90930E7E710BD00BF4F
S31508006B702B580A081D6A000810B50446FFF766FF79
S31508006B8020464FF41A719CF0CFF9204610BD10B577
S31508006B900446FFF779FF204614219CF0C5F92046E4
S31508006BA010BD0000254B37B5142503604FF00312BE
S31508006BB000230446C0E90123C36000F1280200F15E
S31508006BC02C0102230095103032F0FCFF04F16C0210
S31508006BD004F170010223009504F1540032F0F2FF2B
S31508006BE0282304F1B002009304F1B401022304F14E
S31508006BF0980032F0E7FF04F58E7204F590710223CF
S31508006C00009504F5827032F0DDFF482304F5B07272
S31508006C10009304F5B271022304F5A47032F0D2FF92
S31508006C202C2304F50372009304F50471022304F57A
S31508006C30FA7032F0C7FF204603B030BD80E60A0876
S31508006C4008B5094859F07AFD08485DF02AF850B9A0
S31508006C50012106485CF03BFB28B9054859F06EFD52
S31508006C6004485CF051F908BD53580A0868830120A6
S31508006C7071580A080C94012059F03ABB002310B544
S31508006C8004464360006808B158F0D0FA204610BDA3
S31508006C9038B5002504464560006810B158F0C6FAB4
S31508006CA0256038BDF8B50546154B044645F8143B2E
S31508006CB0436800F11C0700F10C06B3B12846FFF73C
S31508006CC0E7FF3846FFF7E4FFE36803B9237294F851
S31508006CD02430304623F0050384F82430FFF7D8FF24
S31508006CE00023237284F8243063603846FFF7C6FF12
S31508006CF02846FFF7C3FF3046FFF7C0FF2046F8BD1A
S31508006D0028E90A0810B50446FFF7CCFF20462821D3
S31508006D109CF00AF9204610BDF8B504466E4DD5E834
S31508006D208F3FDF070BD428469CF000F938B1284678
S31508006D309CF008F9694A6A496A489CF0F0F86A4D75
S31508006D40D5E88F3FDE070BD428469CF0EFF838B11C
S31508006D5028469CF0F7F8614A644965489CF0DFF8D4
S31508006D60644FD7E88F5F15F0010518D138469CF0B7
S31508006D70DDF8A0B1604E614B3846C6E90035C6E974
S31508006D800355C6E90555C6E90755357286F82450F0
S31508006D909CF0D8F83046514A59499CF0C0F8594DEC
S31508006DA0D5E88F3FD8070ED428469CF0BFF850B1D7
S31508006DB05548FFF7F7FE28469CF0C4F8474A53495A
S31508006DC051489CF0ACF8524DD5E88F3FD9070ED400
S31508006DD028469CF0ABF850B14E4E4F4B28463360D0
S31508006DE09CF0B0F830463D4A4C499CF098F84C4D1A
S31508006DF0D5E88F3FDA070ED428469CF097F850B1AD
S31508006E00484E494B284633609CF09CF83046334A36
S31508006E1046499CF084F8464DD5E88F3FDB070BD4EE
S31508006E2028469CF083F838B128469CF08BF82B4A04
S31508006E30404941489CF073F823691BB9294B3F4ADE
S31508006E4023615A60236B43B9294B5A6852B92169A1
S31508006E501A725960DA601A822363636BFBB9264D8E
S31508006E606B680BB10320F8BD05F114002669FFF71E
S31508006E700FFF05F11C00FFF70BFFEB6803B92B7238
S31508006E8095F824302E4823F0050385F82430FFF7BB
S31508006E90FFFE00236E602B7285F8243065631A4E58
S31508006EA02169304662F0C0F9304661F048FB054674
S31508006EB008B12846D7E72269E6610AB92F20D2E742
S31508006EC0184B63615A6037F0E7FD1B4B206263621B
S31508006ED0104BA361EDE700BF746E00200000002090
S31508006EE0FD6900081C000020706E0020896A0008F1
S31508006EF008000020446E0020486E002028E90A0891
S31508006F00A56C0008D86B0020DC6B00204D6A0008D1
S31508006F10D06B0020D46B002028590A08FB690008AA
S31508006F20C46B0020C86B002030F00A08FF6900080F
S31508006F30C06B0020016A000804000020173D0120EC
S31508006F40546E002030B5044685B03949394808F0F2
S31508006F50A1FA394859F0F2FB2146384859F0EEFBB8
S31508006F60354859F0EBFB24F035FD00B1043034F018
S31508006F703BFB24F02FFD34F04FFA314859F0DEFB85
S31508006F800021084632F0ACFD00284ED12D4D2B7855
S31508006F9043B9284659F03AFF00280CBF01230023BD
S31508006FA02B7042D1214628485BF0DEFDFFF748FEEC
S31508006FB000283AD1254859F025FE254CD4E88F3FBC
S31508006FC0DB070BD420469BF0B1FF38B120469BF077
S31508006FD0B9FF204A204921489BF0A1FF204D1F4CAC
S31508006FE028465BF06BFC256300252046FFF794FED8
S31508006FF01C4B1D4801931D4B039502935BF0F0FF54
S3150800700001AB214603901A48A36267F05FFC0F485C
S3150800701059F006FE2A4617490C4859F041FD16480C
S3150800702059F08CFB094859F0A3FE05B030BD00BFE6
S31508007030359B0308319B03088A580A08BD580A0875
S31508007040C9580A08203D012060830120283D0120F7
S31508007050786E002000000020F9690008240000204E
S315080070607C6E0020056A000868830120116A000802
S31508007070C0B601202D6B0008D9580A0810B5044679
S3150800708008219BF051FF204610BD10B50446042187
S315080070909BF04AFF204610BD0648074B074A036087
S315080070A000230749C0E90133C360037443610383BE
S315080070B09BF035BF7C6E0020FCDA0A080000002031
S315080070C075280608FF22014B1A7070475C000020DD
S315080070D07047704710B50C46064B0749002818BF7D
S315080070E01946064859F02AFB14B90122044B5A716D
S315080070F010BD00BF4B590A0848590A084F590A08D3
S31508007100B46E002010B50488022C06D10279816875
S31508007110084800F027FA40B110BD002CFCD10548FC
S3150800712000F091F921460246F2E70348BDE810400F
S3150800713059F004BBCC6E002060590A0830B51546D4
S315080071400C4685B081B11022002168469DF012F8E0
S31508007150094B8DF804509C4208D1012D06D1074BE6
S3150800716068460393FFF7F4F905B030BD044B9C421B
S31508007170FAD1044BF4E700BF24710A080571000828
S315080071800C710A089164000807B50B4800F05BF912
S3150800719001901DF0B1FC01210023019A1DF037FD75
S315080071A0014628B1054803B05DF804EB59F0C6BAA4
S315080071B003B05DF804FB00BFCC6E002089590A08AD
S315080071C010B5044608219BF0AFFE204610BD00000E
S315080071D070B5037D194D0B2B2B7008BF837D0446B4
S315080071E008BF2B702E78FE2E0FD0FF2E1DD0022E34
S315080071F023D834F049FA036841F288315D69234699
S315080072000F4AAC46BDE87040604734F03DFA036863
S3150800721022469B690A49984734F036FA03684FF4C0
S315080072207A715D69064A2346EBE734F02DFA03685E
S3150800723022469B69024998472E7070BD5C00002063
S31508007240C570000810B568B9084859F077FA084CAF
S31508007250637933B100220749074859F001FD002335
S31508007260637110BD0128F2D10448EEE7A1590A0856
S31508007270B46E002089710008283D0120AA590A0821
S315080072807047000010B50E49FFF70CF8044628B100
S315080072900C4859F053FA2046FFF7ACF90A4800F0B3
S315080072A097F8044628B1094859F048FA2046FFF7E6
S315080072B0A1F9074A0749044800F0C2F8204610BD5C
S315080072C0986E0020B4590A08CC6E0020D3590A08D3
S315080072D045720008D570000830B5056885B00F48B6
S315080072E0FFF7D0FF044628B10D4859F027FA204683
S315080072F0FFF780F9FFF70EF90A4859F01FFA074C0D
S315080073000A22694628460CF089FF0128F8D1694601
S315080073102046FFF75BF90022F3E700BFB46E0020B2
S31508007320EB590A08015A0A080149FEF77FBF00BF50
S31508007330D97200081FB50023CDE902330C4B0D4C5A
S31508007340019302230121009320460B4B0B4A1BF0A5
S3150800735049FD20460A4A0B499BF0E1FD0A480B4BBA
S31508007360074A0B49036004B0BDE810409BF0D7BD3F
S31508007370D1710008986E002081720008D17000084B
S3150800738000000020192E0208B46E00201C5A0A08B4
S31508007390D37000081FB50EF0CBFB0123ADF8003003
S315080073A0037D01903BB1074B68460393FFF7D0F87E
S315080073B005B05DF804FB437D0BB1034BF4E7034BC3
S315080073C0F2E700BFC5750008ED750008DD74000812
S315080073D01FB5164B044600930022034601211448A4
S315080073E00EF0F8F9134B186030B9134859F0A6F99E
S315080073F040F2047004B010BD104859F003FC1DF0AB
S315080074007BFB01210DF10F021DF08AFB0B4859F099
S3150800741007FC9DF80F300020002B14BF032301231F
S315080074202073A3702061A082E4E700BF957300086B
S31508007430285A0A08E46E0020315A0A08283D012015
S31508007440C0E9011270478078C31E584258417047F8
S31508007450002307B50A4800931A46032100680EF070
S31508007460E9F948B9074859F069F940F2067003B0D6
S315080074705DF804EBFFF7BEB803B05DF804FB00BF88
S31508007480E46E0020515A0A0873B5114E0546306855
S315080074900C460EF033FB28B10E4859F04FF9284632
S315080074A0FFF7D6FF642322460093042100233068A1
S315080074B00EF0C0F9012809D0074859F03FF940F203
S315080074C0057002B0BDE87040FFF794B802B070BD11
S315080074D0E46E0020AB550A086B5A0A0838B54468AA
S315080074E0A378BBB90125A570A3680BB128469847B0
S315080074F0237BABB1A5B94FF47A712369204659436A
S31508007500FFF7C2FF0123237521690648BDE8384005
S3150800751059F014B9022B03D103230025A370E3E71E
S3150800752038BD00BF8C5A0A08027A437A5AB9012B29
S3150800753011D9022B14BF00214FF4485101230848E2
S315080075404375FFF7A1BF012A08D1002B40F2DC5191
S3150800755018BF0021F2E74FF44871EFE70021EDE785
S31508007560CC6E0020F8B583780446012B0F461646E4
S3150800757024D0457D05B1FAB1032B21D1012E1FD1A7
S31508007580F5B9237D23B11DB920462575FFF760FFA0
S31508007590637D2BB125B12046FFF75AFF002363759B
S315080075A00A212046FFF770FF6368A57013B13946B4
S315080075B0304698470120F8BD0225E2E7002AFBD0AD
S315080075C00020F8E710B54468237D5BB10023064820
S315080075D0237559F0B3F801222046BDE8104011463C
S315080075E0FFF7C0BF10BD00BFC35A0A0810B54468EC
S315080075F0637D5BB100230648637559F09FF8012245
S315080076002046BDE810401146FFF7ACBF10BD00BFCD
S31508007610E55A0A08002313B5074C01212046074AF4
S3150800762000931DF005FD2046054A064902B0BDE84F
S3150800763010409BF074BC00BFBC6E00202975000882
S31508007640000000204D5002084268062A09D18268C7
S315080076503AB91A780221B2FA82F202485209FFF7B9
S3150800766081BF7047CC6E00207047704710B504463E
S3150800767008219BF059FC204610BD000008B5FFF70D
S3150800768098F91948FFF75EFC10B1AC20FEF7B2FF77
S31508007690164B1748D3F8841133F089FF144833F092
S315080076A093FF144859F0AEFA64F04EF95FF0A2F968
S315080076B0104859F0B5FA104859F040F80F48FFF746
S315080076C033FE10B1AC20FEF795FF0D4859F036F899
S315080076D003F02FFB32F01AFA0A4859F02FF8AC20BB
S315080076E0FEF788FF002008BDF95A0A08C0E60120FF
S315080076F060000020283D0120065B0A08B46E0020C1
S31508007700185B0A08345B0A08024A034903489BF0D7
S3150800771006BC00BF000000206B7600086000002051
S3150800772007B5019000F055FD02460199024803B0DD
S315080077305DF804EBFFF702BDB46E002070B5044691
S31508007740D1E9042352EA03000DD064258868CE687F
S31508007750A0FB050105FB06119CF050F9012360709A
S315080077602370204670BD002323706370F9E7D0E9C3
S315080077700201704770470023836070470023436007
S3150800778070477047043870477047704710B504460D
S3150800779010219BF0C9FB204610BDA0F10400F5E7B7
S315080077A010B5044B04460360006B08B157F03EFD64
S315080077B0204610BD88D90A0810B5044601210C20B8
S315080077C0054A32F0CFFAE06820B1BDE810400368F8
S315080077D09B68184710BD00BF515B0A08A0F104005A
S315080077E0EAE700BF38B50B4CD4E88F3FDB070ED469
S315080077F020469BF09BFB50B1074D084B20462B605B
S315080078009BF0A0FB2846064A06499BF088FB0248DF
S3150800781038BD00BFE86E0020EC6E002040BB0A08A9
S31508007820000000207577000810B504460B4B03606E
S315080078306433436000F51C7034F0BCFEA36D23B1BD
S31508007840002204F13800A2659847A36A23B10022F2
S3150800785004F10800A2629847204610BDD4A00A0881
S31508007860A0F10400E0E700BF10B50446006808B1BF
S3150800787034F0B8F8204610BD10B50446034B40F85E
S31508007880343BFFF7F1FF204610BD00BF209D0A08D4
S3150800789037B5C0680D46144638B901210C200E4A82
S315080078A032F060FA002003B030BD1A682146019212
S315080078B000221A6001AA1FF069FB01A8FFF7D4FF8E
S315080078C0A38823B9E38813B92378402BEAD02B89F8
S315080078D043F040032B81E5E7645B0A08A0F1040046
S315080078E0D6E700BFF0B5876805460C4685B017B9D8
S315080078F0032005B0F0BD0023ADF808300B890E7BD8
S3150800790023B94B89022B1ED1142E02D00123ADF8C0
S315080079100830606833F0E0FF63683246039302ABD1
S315080079200093A168384603AB32F0D2FC044603A89C
S31508007930FFF79AFF2CB1A86818B132F061FC002352
S31508007940AB602046D5E7002BE0D1402EDDE710B529
S31508007950044604219BF0E8FA204610BDF7B5104FFF
S31508007960104E38461FF07AFE0F49104D01F5405368
S31508007970D3F884310E4A0F4C536038463346009587
S3150800798020F0D0F80C4B224639463046336121F0B8
S31508007990E1FA0A4B256263636C6003B0F0BD00BF71
S315080079A00870002070000020C0B60120F06E00208C
S315080079B068000020D06F002080510100975B0A08FC
S315080079C010B50446FFF730FF20464FF422719BF0AE
S315080079D0ABFA204610BDA0F10400F1E710B5044645
S315080079E008219BF0A1FA204610BD10B504461C21BB
S315080079F09BF09AFA204610BD10B50446FFF73CFFE7
S31508007A002046E0219BF090FA204610BD10B50446AA
S31508007A10FFF7C6FE204638219BF086FA204610BDA1
S31508007A20F8B53C483C4B002403606433436000F1DE
S31508007A300803C0E90233394BC0E90A40036300F181
S31508007A403803C0E90E33364BC0E916400366354B9A
S31508007A50C0E91A44C3672033C0F880300523C0E95B
S31508007A602E44C0E93044C0E97244046780F8744083
S31508007A70846780F8AC4080F8D041C0F8D44180F8DB
S31508007A80D84180F8F04180F8084280F82042C0F8D2
S31508007A905432254BC0E99D44C0F87032234A244924
S31508007AA080F83842C0F8504280F8584280F87C4244
S31508007AB0204D9BF034FA1D4A1F4920489BF02FFAA7
S31508007AC01A4A1F491F489BF02AFA2846002600270B
S31508007AD01D4B6C6040F8103B2C7267F02FFC284653
S31508007AE0124A1A49C5E93444C5E936449BF017FADF
S31508007AF01748184BC0E90267C0E90467C0E906449D
S31508007B00C0E90C440360094A1349BDE8F8409BF0F4
S31508007B1006BA00BF08700020D4A00A08598A0208CD
S31508007B2071780208A85B0A08ECC10A080000002060
S31508007B3029780008F06E0020897700086800002080
S31508007B408B77000870000020209D0A0879780008C5
S31508007B50D06F002088D90A08A17700080F2070473F
S31508007B60042208B511460023012002F079F8002006
S31508007B7008BD08B501213A2001F000F80EF004F816
S31508007B80BDE808400EF056BC01213A2000F0F6BFC9
S31508007B904FF000639A6A02F17841B1F5C04F03D2FB
S31508007BA01168074A914203D0002303708360704727
S31508007BB0012202709A6A926842609B6A9B69F5E79D
S31508007BC007B0CD5E4FF00053074A1A60BFF34F8FD8
S31508007BD00649074BCA6802F4E0621343CB60BFF359
S31508007BE04F8F00BFFDE700BF02020FF000ED00E077
S31508007BF00400FA0530B54FF0006587B00191AB6A0D
S31508007C00044603F17843B3F5C04F10D201238DF82B
S31508007C100C30002303A8CDE90433FFF7B9FF059B11
S31508007C205B0504D5AB6A20461B6C0199984707B0DB
S31508007C3030BD000037B5414B04461A781AB1022206
S31508007C401A7003B030BDCDE900220028F9D001250D
S31508007C501D7001F04CFE3A4B186096F0F9F9394B55
S31508007C605A6E22619B6E384A63614FF4804393666D
S31508007C70364B5968A16136499960196E2160596E6B
S31508007C806160196CA160596CE1603249086C18642E
S31508007C90496C596455661B6E9C0437D52E4AD368C1
S31508007CA0D807FCD42D4B1A68531C34D04FF48013D4
S31508007CB093402B4A13660423294C23664FF400731A
S31508007CC0236600F0C1F901300BD000F0BDF940F28F
S31508007CD0011398421FBF4FF4005323664FF48043A5
S31508007CE0236608231E4C684623664FF48053236692
S31508007CF04FF0006323664FF4002301A96366FFF77C
S31508007D0079FF009B2366019B63669AE7154AD36849
S31508007D10D907FCD4C6E7144B1B78002BCBD14FF4FC
S31508007D200072094B5A6603F5A6235B68002BC2D17D
S31508007D304FF480120A4B1A66BDE700BFAD720020E9
S31508007D40B07200200080005000900050008000446F
S31508007D5055CEAC0000C0005400000440DC000020F2
S31508007D600090004400000450AC72002070B5204D0D
S31508007D7004462E78012E02D001232B7070BD0028F0
S31508007D80FCD000F061F901300BD000F05DF940F24B
S31508007D900113984205D0174B174A5E66D368DE076B
S31508007DA0FCD42268154B1A6662685A66A2681A6479
S31508007DB0E2685A64A269D00744BF00229A60104B51
S31508007DC01A68013207D10F4A127822B90E49496852
S31508007DD0C90748BF1A6022690C4B5A6662699A66D7
S31508007DE096F052F90A4B186801F087FD0023C4E79C
S31508007DF0AD7200200090004000000440008000445E
S31508007E00DC000020AC72002000C005500080005045
S31508007E10B072002038B54FF00064A36A03F17843C6
S31508007E20B3F5C04F13D20C4D2B7813F0FD0F11D1BB
S31508007E300A48FFF7FFFEA36ADB6998470446074826
S31508007E40FFF794FF0CB901232B70204638BD4FF479
S31508007E508174FAE70024F8E7AC72002090720020DB
S31508007E6038B54FF00065AB6A044603F17842B2F5BF
S31508007E70C04F12D21B6B03F17843B3F5C04F0CD237
S31508007E800648FFF7D7FEAB6A20461B6B5B68984728
S31508007E90BDE838400148FFF769BF38BDB472002015
S31508007EA04FF000639B6A03F17842B2F5C04F07D2E0
S31508007EB01B6B03F17842B2F5C04F01D29B68184795
S31508007EC04FF481707047000013B54FF000640190BD
S31508007ED0A36A03F17842B2F5C04F15D21B6B03F1C2
S31508007EE07843B3F5C04F0FD20948FFF7A3FEA36A3C
S31508007EF001211B6B01A89B69984704460448FFF7B4
S31508007F0035FF204602B010BD4FF48174F9E700BF73
S31508007F10B472002037B54FF00065CDE90021AB6A91
S31508007F20044603F17840B0F5C04F12D21B6B83B1FB
S31508007F300948FFF77FFEDDE90021AB6A20461B6B87
S31508007F405B6A984704460448FFF710FF204603B0CB
S31508007F5030BD4FF40174F9E7B472002037B54FF01D
S31508007F6000650191AB6A044603F17842B2F5C04F49
S31508007F7015D21B6B03F17843B3F5C04F0FD20948EE
S31508007F80FFF758FEAB6A20461B6B01999B6A984718
S31508007F9004460448FFF7EAFE204603B030BD4FF416
S31508007FA00174F9E7B47200204FF0006370B59B6A5C
S31508007FB00D4603F17843B3F5C04FADF50E7D17D2E4
S31508007FC04FF40E726946FFF7A5FF044660B940F202
S31508007FD0012629466846FFF7C1FFB042F9D040F2AC
S31508007FE00323984218BF044620460DF50E7D70BD42
S31508007FF04FF40174F8E7000037B54FF00065CDE996
S315080080000021AB6A044603F17840B0F5C04F16D29A
S315080080101B6B03F17843B3F5C04F10D20948FFF73D
S3150800802009FEDDE90021AB6A20461B6B9B6B98476E
S3150800803004460448FFF79AFE204603B030BD40F2D6
S315080080400114F9E7B47200201FB54FF000639B6A6C
S3150800805003F17842B2F5C04F04D340F2011005B0DF
S315080080605DF804FB1B6B03F17843B3F5C04FF4D2FC
S3150800807001238DF80430002301A8CDE90233FFF768
S3150800808087FD039BDB03E8D5029B1A0EE5D0012A80
S3150800809003D1C3F307430A2BDFD94FF000639B6A6A
S315080080A01B6B1B6C9847DAE737B54FF000650191F3
S315080080B0AB6A044603F17842B2F5C04F15D21B6B82
S315080080C003F17843B3F5C04F0FD20948FFF7B2FD65
S315080080D0AB6A20461B6B0199DB6B9847044604483C
S315080080E0FFF744FE204603B030BD40F20114F9E71D
S315080080F0B47200202DE9F04399464FF000639B6A5D
S31508008100174603F17842B2F5C04F05460E4691B0C0
S315080081104DD21B6B03F17843B3F5C04F47D203A882
S31508008120FFF79EFE079BDC68A3B2002B42D02846C9
S3150800813001A9FFF7B5FE00BB029B06EB09059D42A8
S315080081403BD8A1B2B6FBF1F401FB1463DDF8048059
S31508008150D3B1B5FBF1F201FB12524C4204EA060018
S3150800816001EB080C62B12C40211A6044D1B94A4689
S31508008170394608EB0600FFF73FFF11B0BDE8F0836C
S31508008180A9EB0104E118F0E7B9FBF1F301FB13933E
S3150800819008EB060023B14C4204EA09042144E5E74A
S315080081A04946E3E7FFF780FF0028E0D0E5E74FF40C
S315080081B08170E2E740F20140DFE740F20240DCE787
S315080081C003680B6001607047436803B118472220B3
S315080081D07047436903B11847FF20704710B40A680F
S315080081E01378022B11D014203023147913FB0403BF
S315080081F007481B585079C340DB4303F0010313704B
S3150800820008465DF8044BFFF78BBA5DF8044B7047D8
S3150800821030C0035037B50468012105463A2000F0FE
S31508008220ADFC002301226179207901F019FD1422A1
S315080082303023217913FB01230E4A9B586279D340D8
S31508008240DB4303F001032370A379022B0ED100F060
S3150800825023F92A460849607900F048F901230246BD
S3150800826061792079CDE9003301F0A2FC002003B042
S3150800827030BD00BF30C00350DD81000803681878A0
S315080082807047000002681378022B24D0142130238B
S31508008290107913FB001310495B585179CB4091793B
S315080082A003F00103012912D1508843EA40034FF62F
S315080082B0E07063F03F039BB2834202D11170538092
S315080082C070474FF6DF718B42F9D10021F6E711B9F5
S315080082D083F001031370704730C0035003681A789F
S315080082E0022A03D100225A80FFF794BF704713B5BC
S315080082F004682378022B10D0A379022B0BD1002116
S31508008300607900F0E1F80023627920791146CDE919
S31508008310003301F04DFC0223237002B010BD0000AB
S3150800832038B5124B05461B78DBB1E0B101F0DFFA30
S315080083300F4A00231146147B54B92B6001251A01F4
S3150800834001EB03131D738C5001F0D7FA204638BD94
S315080083500133082B02F11002EDD101F0CEFA0548DF
S31508008360F5E70548F3E70548F1E700BF5074002034
S31508008370D0720020048000F0028000F0018000F036
S31508008380164B13B51868002301908DF8043001F0D8
S31508008390AEFA134B1C7824B101F0AFFA114802B0BB
S315080083A010BD01221A7001F0A8FA0F4B1C731C7736
S315080083B083F82C4083F83C4083F84C4083F85C40B3
S315080083C083F86C4083F87C4004230DEB03008DF89A
S315080083D0073001F085FC2046E1E700BFE05B0A08AC
S315080083E050740020038000F0D07200202DE9F84375
S315080083F0174B1F6D5B6D1F4000D5FEE70126002554
S31508008400144CDFF85480DFF85490374217D0C8F878
S31508008410506023689BB1A168284601316268A16053
S315080084209847637B012B0AD148B909EB45131A7B98
S3150800843060F341021A731A7F60F341021A77013515
S31508008440082D4FEA460604F11004DED1BDE8F8838C
S3150800845000000450D0720020002004505073002001
S3150800846070B5044601250B4E04B970BD94FAA4F004
S31508008470B0FA80F005FA00F306EB001224EA0304CA
S315080084805368002BF0D0117B11B191689847EBE740
S315080084909847E9E75474002008B5192001F030FA26
S315080084A028B14FF00072074BC3F880211A601A20D2
S315080084B001F026FA28B14FF08062024BC3F88021FA
S315080084C01A6008BD00E100E038B505460C4601F023
S315080084D00EFA0022044B03EB05135C601A73BDE821
S315080084E0384001F00ABA00BF54740020F8B50546B2
S315080084F00F46164601F0FBF9104B05F0FC02D3F8BF
S3150800850024140023EC1804F00304144321FA04FC91
S315080085101CF0010F07D00133042BF3D1FF2401F01F
S31508008520ECF92046F8BDFF2CF9D00122044B03EBE9
S315080085300413C3E901761A73F1E700BF00C00350BC
S3150800854054740020074BD3F82404D3F8202403F5E9
S315080085500053104000F0553020F05020C3F8200496
S31508008560FFF77EBF00C00350074BD3F82404D3F8A7
S31508008570202403F50053104000F0AA3020F0A02074
S31508008580C3F82004FFF76CBF00C00350024B1968FC
S31508008590024B186899F0F8BEE4000020E0000020BD
S315080085A07047000037B5920004460D4601929CF0CC
S315080085B073FF431C0BD060B929462046019A9BF0ED
S315080085C0A2FD0028044808BF002003B030BD0348B8
S315080085D0FBE70348F9E700BF10E000F021E000F0F0
S315080085E024E000F013B5044601A801F07FFC9DF8CD
S315080085F00630012223804FF4807300206380054BE8
S315080086009B680A3303F01F0302FA03F3636002B0A0
S3150800861010BD00BF0080E00F01F0A4BB08B501F053
S3150800862091FB002008BD10B5044644EA010313F087
S315080086300303084609D1934201D1002010BD54F81E
S31508008640231040F823100133F5E7214692009BF0EA
S315080086506AFDF2E710B504469CF026FF431C15D0C8
S31508008660B0B90C4B20469B680A3303F01F0201235E
S31508008670934023F003032344984201D1002010BD00
S3150800868050F8042B0132F7D00348F8E70348F6E719
S315080086900348F4E70080E00F0EE000F021E000F068
S315080086A024E000F008B501F01BF9014B186008BD7D
S315080086B0C8790020014B186801F016B9C87900205E
S315080086C070470000044BD3F88420D206FBD4D3F8B5
S315080086D08400C0F3811070470040005038B5174B2E
S315080086E00546D3F820310C4603F00703013B052B5A
S315080086F020D8DFE803F0030B130F171B0DF092FFCA
S31508008700052305B1286004B1236038BD0DF0C0FF0C
S315080087100323F6E70DF0D8FF0723F2E70DF0D0FFA5
S315080087200223EEE70DF07EFF0623EAE70DF0B0FF21
S315080087300423E6E700231846E3E700BF008000505D
S3150800874038B5174B0546D3F828310C4603F007030E
S31508008750013B052B20D8DFE803F003131B0F0B178B
S315080087600DF060FF052305B1286004B1236038BD0C
S315080087700DF058FF0623F6E70DF0A6FF0723F2E7EC
S315080087800DF086FF0323EEE70DF082FF0423EAE7E8
S315080087900DF096FF0223E6E700231846E3E700BF3D
S315080087A00080005073B50D460021114B0191D3F896
S315080087B08041064604F00304022C13D0032C0CD087
S315080087C0012C13D101A8FFF789FF10240EB1019BD4
S315080087D0336005B12C6002B070BD0DF075FF07243B
S315080087E00190F3E70DF06CFF0190EFE70C46EDE71B
S315080087F000800050002337B50193154B0546D3F882
S3150800880020320C4603F00703013B032B1ED8DFE892
S3150800881003F0020E1318002101A8FFF791FF122397
S315080088200DB1019A2A6004B1236003B030BD0DF082
S315080088304BFF07230190F3E70DF088FF0A23019009
S31508008840EEE70DF089FF09230190E9E70023E7E742
S315080088500080005038B5104B0546D3F840310C4619
S3150800886003F00303022B0BD0032B0DD0012B0FD1E2
S315080088700DF06CFF0A2305B1286004B1236038BDEA
S315080088800DF06AFF0923F6E70DF063FF0C23F2E704
S3150800889000231846EFE700BF00800050002337B5D5
S315080088A00193164B0546D3F860320C4603F00703CE
S315080088B0013B032B1FD8DFE803F0020E1914002131
S315080088C001A8FFF70BFF10230DB1019A2A6004B126
S315080088D0236003B030BD002101A8FFF7BBFF1123B9
S315080088E0F2E70DF0F1FE07230190EDE70DF0E8FE43
S315080088F002230190E8E70023E6E700BF0080005066
S31508008900002337B50193164B0546D3F894320C4627
S3150800891003F00703013B032B1FD8DFE803F0020E21
S315080089201914002101A8FFF7D9FE10230DB1019AE9
S315080089302A6004B1236003B030BD002101A8FFF707
S3150800894089FF1123F2E70DF0BFFE07230190EDE73B
S315080089500DF0B6FE02230190E8E70023E6E700BF24
S315080089600080005038B5134B0546D3F800320C4644
S3150800897003F00703013B032B18D8DFE803F0020ACC
S315080089800E120DF0E3FE0A2305B1286004B1236038
S3150800899038BD0DF0E1FE0923F6E70DF0DAFE0C23EB
S315080089A0F2E70DF05FFE0F23800AEDE70023184675
S315080089B0EAE700BF0080005038B5134B0546D3F8E8
S315080089C008320C4603F00703013B032B18D8DFE8EF
S315080089D003F0020A0E120DF0B9FE0A2305B128604B
S315080089E004B1236038BD0DF0B7FE0923F6E70DF094
S315080089F0B0FE0C23F2E70DF035FE0F23800AEDE7F3
S31508008A0000231846EAE700BF0080005038B5104B2F
S31508008A100546D3F840320C4603F00303022B0BD06D
S31508008A20032B0DD0012B0FD10DF090FE0A2305B1B3
S31508008A30286004B1236038BD0DF08EFE0923F6E7E1
S31508008A400DF087FE0C23F2E700231846EFE700BF78
S31508008A500080005038B5104B0546D3F860310C46F7
S31508008A6003F00303022B0BD0032B0DD0012B0FD1E0
S31508008A700DF06CFE0A2305B1286004B1236038BDE9
S31508008A800DF06AFE0923F6E70DF063FE0C23F2E704
S31508008A9000231846EFE700BF0080005070B5054672
S31508008AA014460E4600F01CFF296881EA040202EA11
S31508008AB006044C402C60BDE8704000F015BF00006D
S31508008AC0B0F5207F1FD009D8B0F5007F15D003D8A0
S31508008AD068B1B0F5C07F0AD000200CE0B0F5607F21
S31508008AE0FAD10B4BD3F88000C0F3011003E0084B12
S31508008AF0186FC0F3033001307047054BD3F8900068
S31508008B00C0F30460F7E7024B186FC0F38020F2E762
S31508008B100080005002464FF48030104B10B598661E
S31508008B200020FFF7CDFF504341F671320C4BDC694C
S31508008B30DA635A6804F4803422F4401259B90949B0
S31508008B4088428CBF4FF480100020104358600CB147
S31508008B500022DA6310BD0449F2E700BF0090005016
S31508008B6000000350005A6202002D310108B50DF0CD
S31508008B708BFDBDE808400021FFF7CCBF430905D0AF
S31508008B80012B0DD0022B094B18BF002300F01F0044
S31508008B9041B103F58053012202FA00F018607047CC
S31508008BA0034BF3E703F50053F5E700BF6880005071
S31508008BB0648000501FB5002280280446019200F008
S31508008BC0BA8048D8002800F0BA80A0F120043D2CCD
S31508008BD054D83D2C52D8DFE814F0B200BE00B200DB
S31508008BE0BE00D700D700D700D700D700BE00E100E7
S31508008BF05B00F70081005B00BE00BE00BE005100AE
S31508008C005100510051005100510051005100BE0061
S31508008C10BE00BE0089000101BE005100510051008E
S31508008C2051005100510051005100510051005100AE
S31508008C3051005100D700B200B200B200FC005B0040
S31508008C405B00060198006C00DC00510051005100E1
S31508008C5051005100A900B0F5B06F00F09F802DD8E3
S31508008C60B0F5207F77D00CD8B0F5C07F67D0B0F5C7
S31508008C70007F67D0B0F5807F00F09580019804B03A
S31508008C8010BDB0F5607F6CD00DD8B0F5407FF5D13A
S31508008C900DF0E8FC02464FF42070FFF711FFB2FB17
S31508008CA0F0F0400849E0B0F5806F6DD0B0F5A06FE0
S31508008CB0E4D1002101A8FFF79DFDDFE7B0F5106FAD
S31508008CC000F0878017D8B0F5E06F00F087800AD8E3
S31508008CD0B0F5C06F78D0B0F5D06FCFD1002101A81C
S31508008CE0FFF740FECAE7B0F5F06FC7D1002101A82B
S31508008CF0FFF7B0FEC2E7B0F5406F4AD013D8B0F51B
S31508008D00206F70D0B0F5286FB8D10021384B039189
S31508008D10D3F8703203F00303012B02D103A8FFF73F
S31508008D2099FD039B49E0B0F5486FA7D1002101A83A
S31508008D30FFF7E6FDA2E70DF07BFC01909EE70DF03C
S31508008D4091FCFAE70DF074FC02462046FFF7B8FEE0
S31508008D50B2FBF0F0F1E70DF085FC02464FF4207007
S31508008D60F4E7234BD3F8803003F00303012B04D038
S31508008D70022B06D04FF46070E8E70DF059FC024666
S31508008D80F8E70DF0A1FCFAE7002101A8FFF7A6FC19
S31508008D9074E7002101A8FFF7D3FC6FE7002101A8BB
S31508008DA0FFF700FD6AE74FF0E02302921B695B07B5
S31508008DB005D50DF057FC0290029B01935EE703A9C7
S31508008DC002A8FFF747FDF7E7002101A8FFF742FDD4
S31508008DD054E7002101A8FFF7EFFD4FE7002101A89E
S31508008DE0FFF714FE4AE7002101A8FFF757FD45E7FC
S31508008DF00080005008B58020FFF7DCFE034B984240
S31508008E009EBF4FF48032024B1A6708BD005A6202B1
S31508008E1000A000501FB50023B0F5807F019300F035
S31508008E20C38064D85D2855D84C2807D82D2847D83C
S31508008E3023282BD8019805B05DF804FB4D38102877
S31508008E40F8D801A353F820F09F8F0008358E000844
S31508008E50358E0008358E0008518F0008358E0008BB
S31508008E60358E00083D9000086F8F0008158F0008A2
S31508008E7033900008358E0008358E0008358E0008B8
S31508008E80358E0008358E00084790000824380928D2
S31508008E90D0D801A353F820F09F8F00089F8F0008B1
S31508008EA09F8F00089F8F00089F8F0008358E000847
S31508008EB0958F0008358E0008318F0008D58F000879
S31508008EC03D2800F082803E28B4D1002001A9FFF792
S31508008ED09DFDAFE78028ADD1604B1B6F03F00703FC
S31508008EE0013B032BA6D8DFE803F05350878FB0F574
S31508008EF0F06F6AD021D8B0F5B06F4BD00FD8B0F567
S31508008F00607F00F0858095D3B0F5806F47D0B0F5C7
S31508008F10A06F8FD1002001A9FFF76CFC8AE7B0F596
S31508008F20D06F57D0B0F5E06FCFD0B0F5C06F81D114
S31508008F30002001A9FFF78EFC7CE7B0F5206F7DD0F5
S31508008F400BD8B0F5086F4AD0B0F5106F7FF472AF42
S31508008F50002001A9FFF730FD6CE7B0F5406F68D037
S31508008F60B0F5486F6FD0B0F5286F7FF463AF002176
S31508008F703A4B0391D3F8703203F00303012B67D001
S31508008F80022B14BF0B46152300E00523019351E776
S31508008F900223FBE7002001A9FFF704FC4AE70020AB
S31508008FA001A9FFF79BFB45E702934FF0E0231B69F6
S31508008FB05B0705D50DF056FB0D230393039BE5E7E9
S31508008FC003A902A8FFF746FCF8E7002001A9FFF766
S31508008FD041FD2FE7002001A9FFF7C4FC2AE71F4B34
S31508008FE0D3F8003103F00303022B07D0032B09D073
S31508008FF0012B0BD10DF04CFB0323C7E70DF0ACFB9F
S315080090000923C3E70DF05AFB0823BFE70123BDE791
S31508009010124AD2F8802002F00302012A05D0022A59
S31508009020B4D10DF051FB0723B0E70DF001FB0E2379
S31508009030ACE7002001A9FFF783FBFBE6002001A9A6
S31508009040FFF72CFCF6E6002001A9FFF759FCF1E62C
S3150800905003A8FFF7FFFB112398E700BF0080005025
S3150800906008B5FFF7D7FE092811D00A38012811D804
S315080090704FF48002094B4FF6FF705A6603F5D83352
S315080090805B6A13F0010F18BF4FF4FA7008BD044B62
S315080090901888FBE74FF6FF70F8E700BF009000500E
S315080090A00601002038B504468020FFF7B3FE0328E2
S315080090B000F083804FF48012504B4FF0A0615A663F
S315080090C045F60E034E4AC2F880304E4B99624FF46D
S315080090D0803103F580539962916D11F48031FBD18B
S315080090E0D4E900031B0543EA0063E07B0343207BC6
S315080090F043EA0043607B43EA0033A07B43EA8013DC
S3150800910013619069D4E904531B0643EA856300F0AA
S3150800911000400343A07E0343207E43EA0043607E6B
S3150800912043EA00239361136AE269E57E002A0CBFCD
S315080091300020082023F00F03134343EA8503304A2F
S3150800914003431362E369304D002B37D194F824307A
S31508009150916A94F82000DB000D4043EA401394F826
S3150800916021102B4343EA011343F480339362274BC0
S31508009170916D33EA0101FBD14FF08071214881627C
S315080091801369A56823F4700343EA055313614FF086
S315080091900043836194F822300BB91D4B996294F809
S315080091A023301BB94FF48032194B9A6294F8253054
S315080091B01BB1134B174AC3F8802038BD022B08D1C0
S315080091C01161154891614FF408524FF47F41FFF73A
S315080091D065FC0B4994F822308A6A94F820001B062D
S315080091E0154043EA401394F824202B4343EAC2036C
S315080091F094F8232043EA02438B62D7E70090005095
S315080092000040005A0050005AC7FFFEFE0300010046
S315080092100060005AF1A7FFFF3440005A014B93F94A
S3150800922000007047040100204FF400011B4A4378F0
S3150800923010B551664FF4D151022402F5B832516285
S3150800924017494F2B4C604FF0010428BF4F2301F5F7
S3150800925080514C601169C903FCD4017843EA0123A3
S315080092605361D0E901131B0143EA0123417B0B43F8
S31508009270017B43EA41039360C37B817B1B0143EA7D
S315080092804113417C0B43017C43EA41035360837CD1
S3150800929013B16FF4D153536210BD00BF0090005054
S315080092A000100250014B1880704700BF06010020CD
S315080092B04FF4800208B5184B5A660223174A5360C2
S315080092C0936813F48033FBD1012822D10DF0E0F91D
S315080092D0134B984215D003F5122303F5F863984209
S315080092E013D0104B00EB8002400AB3FBF0F0520A91
S315080092F00A4BDA62012218635A620022074B5A6047
S3150800930008BD45F67A10084AF2E745F61A00074AF4
S31508009310EEE75362F1E700BF0090005000400250AC
S3150800932000F0490264666666D8B80500BBCF05003A
S315080093300029CCBF01210021FFF7ECBBB0F5207F47
S3150800934010B50C4657D008D8B0F5007F48D003D8DA
S3150800935030B3B0F5C07F23D010BDB0F5607FFBD128
S3150800936029492A48D1F8FC2012F080721EBFD1F88C
S31508009370FC3023F08073C1F8FC30D0F88030611ED1
S3150800938023F0300444EA0114C0F88040002AE3D0F0
S315080093901D4AD2F8FC3043F08073C2F8FC30DBE794
S315080093A0FFF7E4FB00F036F84FF48031184B174A04
S315080093B01967136F611E23F4704444EA0134146775
S315080093C00DF050F90446FFF77DF9C0F10201204679
S315080093D0FFF7AEFF00F024F8BDE81040FFF70ABD1E
S315080093E00A4A0139D2F8903023F0F85444EA016465
S315080093F0C2F89040B0E7054B013C196F21F4806133
S3150800940041EA84241C67A7E700ED00E000800050CD
S315080094100090005002214FF42070FFF78FBF000024
S3150800942008B54FF4C070FFF7C5FBBDE8084004490E
S3150800943088428CBF022101214FF42070FFF77EBFBE
S3150800944080F0FA02B0F5807FF8B50C4600F04E8140
S315080094506BD85D285DD84C2804D82D2844D82328F5
S3150800946028D8F8BD4D381028FBD801A353F820F0AA
S31508009470CD96000863940008639400086394000876
S31508009480C79500086394000863940008819800084B
S31508009490FF9500085795000861980008639400082E
S315080094A063940008639400086394000863940008B2
S315080094B0A198000824380928D3D801A353F820F026
S315080094C0CD960008CD960008CD960008CD960008E2
S315080094D0CD96000863940008AD96000863940008CA
S315080094E08D9500089B9700083D2800F046813E2888
S315080094F0B7D1093C032C8CBF0021B04BB04A98BFAA
S31508009500195DD2F8403223F003030B43C2F8403208
S31508009510A7E78028A5D18B1E062B00F2C480DFE8BA
S3150800952003F0BFADC27EC2C2BC00B0F5F06F00F05A
S3150800953024813BD8B0F5B06F00F0B8801BD8B0F5E1
S31508009540607F00F067818CD3B0F5806F00F0BE8035
S31508009550B0F5A06F85D1073C0B2C8CBF0021994B29
S31508009560974A98BF195DD2F8203223F007030B43B8
S31508009570C2F8203275E7B0F5D06F00F00E81B0F56D
S31508009580E06FB6D0B0F5C06F7FF46BAF093C032C23
S315080095908CBF00218C4B8A4A98BF195DD2F840319E
S315080095A023F003030B43C2F840315AE7B0F5206FA6
S315080095B000F0668117D8B0F5086F00F01B81B0F58A
S315080095C0106F7FF44EAF093C062C8CBF00217F4BF1
S315080095D07B4A98BF195DD2F8083223F007030B437C
S315080095E0C2F808323DE7B0F5406F00F03981B0F5B2
S315080095F0486F00F05581B0F5286F7FF432AF112C13
S3150800960000F05E81152C14BF002102216C4AD2F8A5
S31508009610703223F003030B43C2F8703221E70025AA
S3150800962002264FF480370121022000F08DF9FFF75A
S315080096309DFAFFF7EFFE664B614A1F67136F23F02B
S315080096400703334313670DF00DF80646FFF73AF89C
S31508009650C0F102013046FFF76BFE0121002000F041
S31508009660B3F9FFF7DDFEFFF7C5FB002D7FF4F9AE72
S31508009670032C7FF4F6AE574B9F62F2E64FF4801246
S31508009680534B0E465A664FF48032534B9D6A03F588
S315080096908053C5F300659A62C3E700250426C0E730
S315080096A000250126BDE700252E46BAE7023C0E2C0A
S315080096B08CBF0021494B424A98BF195DD2F88031C8
S315080096C023F003030B43C2F88031CAE6023C052C9B
S315080096D08CBF0021424B3A4A98BF195DD2F8203117
S315080096E023F007030B43C2F82031BAE6A1F10904B7
S315080096F0082C3FF6B6AE01A353F824F021970008CC
S315080097002197000863940008219700084F970008DE
S31508009710639400086394000863940008219700087E
S315080097204FF48032264B2F49586E03F580535A66FC
S315080097304B6A43F001034B62C1035CBF2A4B5A666E
S315080097404FF0E022136923F00403136189E64FF40E
S3150800975080321B4B2349586E03F580535A664B6A71
S3150800976023F001034B62C3035CBF1F4B5A664FF0DD
S31508009770E022136943F00403E7E7093C032C8CBF96
S3150800978000211A4B0E4A98BF195DD2F8603123F0B2
S3150800979003030B43C2F8603163E6093C062C8CBF11
S315080097A00021134B064A98BF195DD2F8003223F000
S315080097B007030B43C2F8003253E600BF1D5C0A08D4
S315080097C000800050385C0A081D5C0A08215C0A08FB
S315080097D0009000500060005A0040005A085C0A08D1
S315080097E0175C0A0800C0075000A000501D5C0A0854
S315080097F0215C0A08CC1E062C8CBF0021314B324A4C
S3150800980098BF195DD2F8003123F003030B43C2F861
S31508009810003126E62D49063CD1F8FC2012F080726C
S315080098201EBFD1F8FC3023F08073C1F8FC30082C39
S315080098308CBF0020264B244998BF185DD1F880308C
S3150800984023F003030343C1F88030002A3FF409AE2E
S315080098501E4AD2F8FC3043F08073C2F8FC3000E6AA
S31508009860023C052C8CBF00211A4B174A98BF195D7C
S31508009870D2F8283123F007030B43C2F82831F0E564
S31508009880023C0F2C8CBF0021134B0F4A98BF195D61
S31508009890D2F8603223F007030B43C2F86032E0E5E2
S315080098A0023C0F2C8CBF00210C4B074A98BF195D50
S315080098B0D2F8943223F007030B43C2F89432D0E56A
S315080098C00121A3E6285C0A080080005000ED00E0AC
S315080098D02F5C0A08175C0A08445C0A08445C0A08F4
S315080098E0EFF3108072B6704700B962B67047EFF3AF
S315080098F01180302383F31188704780F311887047ED
S31508009900054B420953F8223000F01F0023FA00F0F5
S31508009910C04300F00100704700E100E0024A536BC3
S315080099200342FCD1704700BF004009507047000051
S31508009930034A0179D36E23F030030B43D36670478D
S315080099400040005070470000F8B504461C4BD3F899
S315080099508420D106FBD4D3F88430C3F381139C4208
S315080099602CD00CF065FE012C064602D12146FFF7E5
S31508009970DFFCFFF7B5FF4FF00072124B07465A6639
S315080099802046FFF7DFFF4FF480630D4D621E9340BC
S315080099902B676B6E9A0103D4D5F884309B060AD5DB
S315080099A03846FFF7A1FF022C08D13046BDE8F8403B
S315080099B00021FFF7BDBCD5F88430EAE7F8BD00BF43
S315080099C0004000500060005007B518B901910CF02E
S315080099D02FFE0199064B1B7843B1064B984205D8D2
S315080099E0012003B05DF804EBFFF7AEBF0220F8E7ED
S315080099F07C7A0020005A62024FF00042154B10B5DF
S31508009A005A664AF6CD3314494C6C0B6404F00104CB
S31508009A1088B90120FFF782FF4B68DB0704D50F4B97
S31508009A2058600B6BD807FCD514B10B4B0C4A1A645B
S31508009A308DF032FF10BD0B6B1A07FCD42022074BA2
S31508009A409A620122A3F580535A60034A936A9B06D9
S31508009A50FCD5E9E700900050004009500060095025
S31508009A603254FFFF4FF0004238B5164B01465A668E
S31508009A704AF6CD33144C154A656C236443780B209B
S31508009A805B0043F00103D363FFF748FF63688A78F6
S31508009A9023F4F87343EA02136360CA784B7943EAFE
S31508009AA00223A3600A798B7943EA022323610878A3
S31508009AB0FFF7A2FFEB0744BF054B23648DF0ECFECE
S31508009AC0012038BD00900050004009500040005069
S31508009AD03254FFFF4FF0004270B5124B04465D6EDC
S31508009AE003F580535A664AF6CD330F4980204E6CEB
S31508009AF00B64FFF713FF0B6A23F00F030F2C94BFB9
S31508009B00234343F00F030B62F30744BF074B0B6471
S31508009B10002DA2BF4FF00042054B5A668DF0BCFEE1
S31508009B2070BD00BF00800050004009503254FFFF4E
S31508009B3000A000504FF0004270B5104B04465D6E11
S31508009B4003F580535A664AF6CD330D4980204E6C8C
S31508009B500B64FFF7E3FE0B6A23F4F85343EA042386
S31508009B600B62F30744BF074B0B64002DA2BF4FF0EF
S31508009B700042054B5A668DF08FFE70BD008000507E
S31508009B80004009503254FFFF00A0005070B505464A
S31508009B9014460E46FFF7A4FE296881EA040202EA83
S31508009BA006044C402C60BDE87040FFF79DBE0000DF
S31508009BB0072AF7B501F0030614461F464FF00301BE
S31508009BC02CD89500A94000FA05F21C480191FFF728
S31508009BD0DDFF01991A4806FA05F2FFF7D7FF194B78
S31508009BE019499DF82000002F08BF1946012303FADA
S31508009BF004F40C60154B1649002808BF0B461C6078
S31508009C00144B1031C3F820449DF82400A3F6DC3326
S31508009C10002808BF0B461C6003B0F0BDA2F108057A
S31508009C20AD00A94000FA05F20B480191FFF7AEFF17
S31508009C3001990A4806FA05F2CFE700BF00C40350A7
S31508009C4008C4035010E4035010D4035014D403502E
S31508009C5014E4035000E0035004C403500CC403503A
S31508009C602DE9F04105460F461E4690464AB10123A6
S31508009C703022194C8B4002FB00443EB304F5825453
S31508009C8023600F21072F05EB450388BFA7F10804BA
S31508009C904FEA0313114895BFBC00A40004330C33E4
S31508009CA008FA04F2A1401844FFF770FFB8F1000F54
S31508009CB00AD101213020084A01FA07F700FB0522DC
S31508009CC03EB102F582521760BDE8F08104F50154F1
S31508009CD0D6E702F50152F6E700C0035030C003503C
S31508009CE010B5012104462020FEF748FF0121212056
S31508009CF0FEF744FF0122114B5A60227812069A6039
S31508009D006178A27842EA01429A61FF229A620022A9
S31508009D109A631A644FF000425A654FF0FF324FF4C7
S31508009D20001103F500531A65054AC2F88011E37855
S31508009D301B01DBB282F81533116010BD0000045018
S31508009D4000E100E04FF48032054B9A6641F6713225
S31508009D5003F51C33DA63012203F50053DA60704712
S31508009D600090005041F671320121064BDA6303F583
S31508009D700052D1600022DA634FF48032A3F518331B
S31508009D809A66704700000350013831289ABF024B83
S31508009D90185C0020704700BF545C0A08122801D0DE
S31508009DA0142804D1022904D0032908BF0121084632
S31508009DB070470021FBE70000021E30B54FF0000097
S31508009DC00CBF1025042547F60774084952B9831DA8
S31508009DD051F82330234023B101308542F6D14FF0A4
S31508009DE0FF3030BD00F11603F2E700BF00800350D4
S31508009DF010B5C2F30623044602F0070241B942EA47
S31508009E0003220B4B42F44022063443F8242010BDAB
S31508009E1018461146FFF7C2FF01461846FFF7B4FF7A
S31508009E20034B41EA0020163443F82400EFE700BF4D
S31508009E30008003500A4392B20021FFF7D9BF3AB116
S31508009E4022F0030202F1A04202F5603209B910605D
S31508009E5070470002FBE74FF050234FF400321A67B1
S31508009E6070470000014BD3F894007047004000503B
S31508009E70436813B9416070475B685A68012AFBD189
S31508009E8059607047836813B9816070475B685A6880
S31508009E90012AFBD159607047C369032B9FBF00EBAA
S31508009EA083020133D160C3617047C36910B5042BBF
S31508009EB015D84FF09842116CC902FCD504339B00A3
S31508009EC0136503684FF0984413604368136083680A
S31508009ED01360002300F10C02C1698B4200D310BD48
S31508009EE052F8041B01332160F6E700004FF4803274
S31508009EF0064B5A6603F5E6239B69C3F385128270FF
S31508009F0003F03F021B0B427003707047009000502D
S31508009F1040F6B732064B5B689BB293429FBF4FF43D
S31508009F207A72B3FBF2F3034AD05C88BF002070470D
S31508009F300080E00F865C0A08054B9A689107FCD4F6
S31508009F405A689207F9D4DA69002AF6D1704700BF31
S31508009F5000800A5008B5FFF7EFFF0122024B03F510
S31508009F6080514A601A6108BD00800A50074B5A683A
S31508009F70012A0AD15A68D20702D5DA69002AF9D124
S31508009F8002221A610122024B5A60704700800A5069
S31508009F9000A00A5010B5064CFFF7CEFF6368012BE8
S31508009FA003D1FFF7E3FFFFF7C7FF0378E36010BDB0
S31508009FB000800A50E8B94A680B7812B1127843EA69
S31508009FC0C2034A78002A14BF0222002213438A6871
S31508009FD012B1127843EA82138A78002A14BF04223F
S31508009FE000221343CA6812B1127843EA4223014A8F
S31508009FF09364704700800A5008B9014B596470474A
S3150800A00000900A5008B9014B5964704700A00A50DD
S3150800A01008B9014B1964704700A00A5010B9024BE1
S3150800A020186C70470020704700800A5048B911B173
S3150800A030012903D07047044BD86C7047024B186D42
S3150800A04070470020704700BF00800A5040B911B120
S3150800A050012903D07047034BDA647047014B1A6530
S3150800A060704700BF00800A5038B50446054D8DF08C
S3150800A0706CFC0FCC0FC594E8030085E803000020AC
S3150800A08038BD00BF807A002047F6FF739A42F0B5C4
S3150800A09063D0022963D8334BCF0003EBC10013F812
S3150800A0A031108478012913D10025C3781B1B9D42E2
S3150800A0B002D3E018C0B2F0BD591B4668A3EB5101A4
S3150800A0C036F911609642D4BF0D4601F1FF33EEE72B
S3150800A0D040680028EFD0B0F90010914204DBB0F9CF
S3150800A0E002109142B8BF114682883B44FF2A19BF25
S3150800A0F0C8222826B0F90620B0F90860A2EB0102AA
S3150800A1000CBF0125002592FBF6F25F782A447B1ED8
S3150800A110934228BF13464FF47A7E00EBC305AE6818
S3150800A120EA88AC4611FB02621E4622EAE272013355
S3150800A13002F5FA729F42B2FBFEF204D9BCF80CC0D3
S3150800A14008359445EBD200EBC6008088904228BFBC
S3150800A1501046A04238BF2046ACE7FF20ABE70020F8
S3150800A160A9E700BF807A00200229F0B553D82B480A
S3150800A17000EBC10410F83110636801290FD1E078AB
S3150800A180A478904294BFC4EB0001C4EB0201001B03
S3150800A190CAB28242C8BF002233F91200F0BD002BB2
S3150800A1A039D0A178914202D3B3F90200F6E7E178F3
S3150800A1B0B3F900009142F1D999886478A1F1FF06B4
S3150800A1C0013C714203F10405E4B2714103F10C0745
S3150800A1D01FFA82FCCEB2B44216D805EBC1014FF481
S3150800A1E07A756A43B1F902404968521A04EBD47188
S3150800A1F002EB610292FBF4F29042CFDBB3F9020064
S3150800A2009042CBDC10B2C9E737F831E04E1CE64580
S3150800A210E3D33146DEE70248C0E700BF807A002074
S3150800A2200080FFFF0148FFF71FBF00BF94710A08AF
S3150800A23000487047080100207FB50222084B0949EB
S3150800A240CDE901234FF00073CDE90313052301A9D6
S3150800A2504FF0FF3005938DF06CFD07B05DF804FBF9
S3150800A260006A18000002040008B50120FFF720F86C
S3150800A270002008BD6FF00402502110B50A480B4CA7
S3150800A28012F0800FD3B21BBF03F00F03043BA318D1
S3150800A2901B1802F101020CBF83F8001319764C2A29
S3150800A2A0EED1002010BD00BF00ED00E000E100E0A7
S3150800A2B00CF0D6BA38B500F073FA0446E0B900F0E7
S3150800A2C051FB4FF4167343430C4803F5742303F20A
S3150800A2D03F23B3FBF0F30A4A0A4913600A220D68C2
S3150800A2E00948013A12F0FF0240F8043BF9D103EBA2
S3150800A2F0C3022B4413440B60204638BD40420F006E
S3150800A300D47A0020A07A0020A47A0020012208B579
S3150800A310034B1A7000F0FFFA024B186008BD00BF25
S3150800A3209C7A0020D07A0020F8B5144C237823B301
S3150800A33000F0F1FA124B134D1B68134EC01A012890
S3150800A34038BF0120114B124F18602B7856F823207E
S3150800A35046F82300111A3A680E48521A0A213A603A
S3150800A3600932B2FBF1F20133DBB20260B3FBF1F260
S3150800A37001FB12332B7000232370F8BD9C7A002052
S3150800A380D07A0020CC7A0020A47A0020987A00207F
S3150800A390A07A0020D47A0020BFF34F8F0549064BD8
S3150800A3A0CA6802F4E0621343CB60BFF34F8F00BF65
S3150800A3B0FDE700BF00ED00E00400FA0508B5FFF769
S3150800A3C0EBFF08BD034B1B78002B14BF01200220AE
S3150800A3D0704700BFE47A00200329F8B598BF124BEE
S3150800A3E005460E468CBF00245C5C032805D8DFE8CA
S3150800A3F000F002080B0E44F002040C4B1F684FB91C
S3150800A400F8BD44F00804F8E744F02004F5E744F002
S3150800A4108004F2E77B681A68144203D0314628465E
S3150800A4205B6898473F68EAE7895C0A08E07A002093
S3150800A43000292DE9F34114BF0121FF21254A00F126
S3150800A440FF30135C0B4413543AD0234E3278012A5A
S3150800A45036D9FFF7B7FF0128044634D81F4FFFF750
S3150800A4603FFA3B781BB31E4D2B781BB901222A7085
S3150800A4701C4A1370DFF8708098F8003033B10190E9
S3150800A48000F07EF80023019888F80030FFF72CFAD0
S3150800A490012000F099F8FFF723FA2B782BB10190E9
S3150800A4A000F09CF8002301982B7000233B70FFF7FF
S3150800A4B01BFA3078A04203D02146FFF78DFF34708F
S3150800A4C002B0BDE8F081032AF3D10228F1D100F0E9
S3150800A4D0A9F8EEE7E47A0020D87A0020DE7A002090
S3150800A4E0D97A0020DD7A0020DA7A002010B50446F1
S3150800A4F0FFF7F6F9002C14BF0121FF21064A13784D
S3150800A5000B44DBB21370B3FA83F3044A5B09137086
S3150800A510BDE81040FFF7E8B9E77A0020E67A0020A0
S3150800A52038B541600446FFF7DBF90546214604487D
S3150800A530FDF746FE2846BDE83840FFF7D5B900BF07
S3150800A540E07A002010B5094B1B786BB1084C2378CC
S3150800A55053B100F043F80023064A23701370012311
S3150800A560054A1370054A137010BD00BFD87A00203B
S3150800A570DD7A0020DE7A0020DB7A0020DC7A0020F3
S3150800A58038B50D4B1B7873B10C4C23788BB90C4B33
S3150800A5900C4D9A6D12F4803F06D0DB6D9B0703D5F0
S3150800A5A04FF48033AB6238BDFFF7B0FE4FF480330B
S3150800A5B0AB6200232370F6E7ED7A0020EC7A0020E0
S3150800A5C00040005A0050005A034B1B780BB10CF0A0
S3150800A5D065B90120704700BFED7A002008B5FFF77E
S3150800A5E0A5F9094A0949136F096823F007030B43BC
S3150800A5F01367074B1B781BB14FF48032054B9A62E1
S3150800A600BDE808400CF02EB800800050E87A00201B
S3150800A610ED7A00200060005A0122014B1A7070473B
S3150800A620ED7A00207047000030B50F4C4161236871
S3150800A630ABB92060836011E0891A41619A681D46AA
S3150800A6402AB113465A698A42F6D955B11A461346AB
S3150800A650A860836013B15A69511A596130BD002543
S3150800A660F0E72060F5E700BF047B002010B500F096
S3150800A670B9FA0A4C0A4B19682368C31A01B10BB90F
S3150800A680206010BD4A699A423ABF9B1A0022D21A24
S3150800A6904A6128BF00238968F0E700BFF07A0020E6
S3150800A6A0047B002038B5134D2B685B6993B1124AB9
S3150800A6B0022014681C4400F0A1FA204600F0A8FA0B
S3150800A6C000230E492A680B70D088800709D5012314
S3150800A6D00B7038BD022000F091FA022000F0E6FA6D
S3150800A6E0EEE79268002AF4D050690344012BEBD9AF
S3150800A6F0EFE700BF047B0020F07A0020F87A0020FC
S3150800A70070B516469DF81420C0E903360271049AFE
S3150800A710BDF8183002600022C380826004460D46E8
S3150800A72000F060FA3044A0613DB9E368656113B191
S3150800A73020462168984796B13546FFF7D1F8064670
S3150800A740FFF794FF29462046FFF76EFF054B1B6867
S3150800A750A34201D1FFF7A6FF3046FFF7C5F8002050
S3150800A76070BD00BF047B002000220C490B687BB13A
S3150800A77083420AD183687AB1936083681BB15A69A8
S3150800A78041690A445A61002070471A469B68EEE7F9
S3150800A7900028EFD0022070470B60EEE7047B00200C
S3150800A7A070B5FFF7A4F8144E05463478FCB9134B78
S3150800A7B01C60134B1C60134B1C8000F0E1F9012050
S3150800A7C000F01CFA00F0A5FA0F4B0246186020B9F3
S3150800A7D02846FFF792F8232070BD234640F2E7315A
S3150800A7E00A4899F00BF90A4B18600123337028467A
S3150800A7F0FFF783F80020EFE7EE7A0020047B0020BD
S3150800A800F07A0020FA7A0020007B002018FCFFFF6F
S3150800A810F47A00202DE9F0410546F8B1FFF760F813
S3150800A8200F4F0646FFF722FF2846D7F80080FFF7A6
S3150800A8309BFF044628B13046FFF756F82046BDE888
S3150800A840F081A8453B6803D123B1FFF72BFFF2E758
S3150800A850002BF0D1022000F013FAECE72224EDE7F2
S3150800A860047B002070B586B015461E460446059141
S3150800A87080B1FFF7CFFFBDF82C30002202939DF878
S3150800A88028302046CDE9006305992B46FFF738FFA7
S3150800A89006B070BD2220FBE738B50C46054698B1D0
S3150800A8A091B100230B70FFF722F80121074B1B68B3
S3150800A8B00BB122781AB1FFF720F8002038BDAB4259
S3150800A8C014BF9B682170F3E72220F7E7047B00207A
S3150800A8D0F0B51F46002387B00D46164604468DF888
S3150800A8E01730A0B10DF11701FFF7D6FF9DF8172015
S3150800A8F07AB9BDF83430294602939DF8303020469F
S3150800A900CDE900733346FFF7FBFE07B0F0BD222002
S3150800A910FBE70320F9E738B5FEF7E9FF054600F03F
S3150800A92061F904462846FEF7E8FF204638BD0000D0
S3150800A93070B5FEF7DCFF064600F054F9084B0446EE
S3150800A9401D880120ADB200F0B9F918B100F04AF936
S3150800A950044601353046FEF7D0FF2046294670BD2D
S3150800A960FA7A0020014B1868704700BF007B002068
S3150800A97070B50C4B0D461B68834211D340F2E73184
S3150800A98000248C462146084B4FF47A721E68002331
S3150800A990E0FB06C1604699F031F82860204670BD94
S3150800A9A02120FCE7F47A0020007B002010B50F4B2D
S3150800A9B01A689AB14FF47A71531E1342A0FB01012B
S3150800A9C00ED1B2FA82F2C2F11F04531CD243E04000
S3150800A9D001FA03F3184321FA02F20243104610BDA6
S3150800A9E0002399F00BF80246F8E700BF007B002029
S3150800A9F0164B70B58342164B15468B4124D3154B1F
S3150800AA001A680AB34FF47A76A0FB0603541E14405C
S3150800AA1006FB013111D1B2FA82F3C3F11F025E1CA3
S3150800AA20DB4301FA06F6D04021FA03F33043184314
S3150800AA30D140C5E90001204670BD002398F0DEFF2D
S3150800AA400024C5E90001F6E72124F4E7EFA7C64B81
S3150800AA5037894100007B0020C2072DE9F3470446E9
S3150800AA600BD53F4A138801339BB21380FFF7FEFDCF
S3150800AA703C4B1B680BB1FFF715FEA3076DD5FEF718
S3150800AA8036FF002605463746FFF7F0FDB146DFF8E4
S3150800AA90D480D8F800400CB163698BB10022324BE0
S3150800AAA0012F1A7002D1022E08BF1F70002C44D045
S3150800AAB0FFF7F8FD284602B0BDE8F047FEF71DBFD0
S3150800AAC023461A792179914288BF1C469B6813B19F
S3150800AAD05A69002AF5D02846FEF70FFF256985B37F
S3150800AAE000F080F8A269861AF317B54279EB0303DA
S3150800AAF028DA23691344A3610123226982B17BB949
S3150800AB00A91B0191FEF7F3FE824601992046FFF73D
S3150800AB108BFDA369226950461344A361FEF7EDFE37
S3150800AB20E368E688013713B1204621689847FEF79F
S3150800AB30DEFE0546FFF79AFDABE7022000F0A0F817
S3150800AB40B8E72E46FEF7D3FE82462046FFF70CFEF0
S3150800AB505046FEF7D2FE0023CFE702B0BDE8F087E5
S3150800AB60FA7A0020047B0020FC7A0020034B5A68FE
S3150800AB70D20702D5DA69002AF9D1704700800A504F
S3150800AB8010B50121002486B03E20ADF80810CDE9A5
S3150800AB9003448DF804408DF80A400594FDF7EEFF4E
S3150800ABA001A8FFF7F7F9204602A98DF80840FFF734
S3150800ABB001FA20460F21FFF725FA0F212046FFF755
S3150800ABC027FAFFF7C7F9FFF7D1FF0822034B9C6165
S3150800ABD0034BC3F888219A6006B010BD00800A505E
S3150800ABE000E100E008B5FFF7C1FF014B986908BD11
S3150800ABF000800A5000210846FFF718BA00F0010144
S3150800AC00830748BF41F002010020FFF7F5B90000AD
S3150800AC10F8B50446FEF764FEFFF7A8FF164B07468D
S3150800AC209D69FFF7E7FF06460020FFF7F7F9830758
S3150800AC3004D4731B032B01D8AE420FD10021631B2A
S3150800AC40022B98BFEC1C0846B4F1FF3F2CBF2246E6
S3150800AC50621EFFF7FBF90220FFF7D0FF3846FEF722
S3150800AC6043FE064A137833B103498B6C43F001035C
S3150800AC708B6400231370F8BD00800A500E01002073
S3150800AC80830700F0010109D50122064B41F00201B4
S3150800AC901A70054A936C23F0010393640020FFF7AA
S3150800ACA0B1B900BF0E01002000800A50830742BFD9
S3150800ACB00222014B1A64704700900A5010B50446E8
S3150800ACC00020FFF7ABF9012C04D0022C05D1C0F304
S3150800ACD0400010BD00F00100FBE70020F9E738B599
S3150800ACE0FEF705FE04460020FFF798F9830700F0F3
S3150800ACF0010548BF45F0020500F003010020FFF7F3
S3150800AD0087F92846FFF7A8FE2046BDE83840FEF733
S3150800AD10F4BD3E20FDF74EBF08B50AF059FF0AF00C
S3150800AD2095FF0AF09CFF0AF0A3FFBDE808400AF069
S3150800AD30A6BF0AF089BF000010B504460BF092FCC6
S3150800AD400C4BA0F57A729A4212D84FF47A73B0FB7C
S3150800AD50F3F05C43084BB3FBF0F0B4FBF0F00228C9
S3150800AD6006D9BDE810400323B0FBF3F000F008B89D
S3150800AD7010BD00BFFFC99A3B40420F00000000000B
S3150800AD80013800D0FCE7704708B57EF0A1FB75F0E6
S3150800AD901BFA76F0B4FE7CF009FA79F09EF87AF0A0
S3150800ADA057F97CF089FF002008BD0000024A0349D4
S3150800ADB0034874F0E7BE00BF905C0A08E05C0A0826
S3150800ADC0B85C0A0838B50446FEF78AFD05462046EB
S3150800ADD0FBF7E1FD04462846FEF786FD204638BD0A
S3150800ADE038B50546FEF77CFD04462846FBF7D5FD33
S3150800ADF02046BDE83840FEF777BD70B50368CD1A22
S3150800AE00002D0DDD93F900601C78002E0BDB5C1C11
S3150800AE1004601B7813600368C91A13688B4236D915
S3150800AE206FF05F0070BD04F07F04013C032C2BD843
S3150800AE30DFE804F0020A1421012DF1D05B781360D3
S3150800AE40036802330360E6E7022DE9DDB3F8013053
S3150800AE505BBA9BB2136003680333F3E7032DDFDDA8
S3150800AE609C785D782402DB7844EA05442343136022
S3150800AE7003680433E6E7042DD2DDD3F801301BBAA4
S3150800AE80136003680533DDE76FF06300CAE7002047
S3150800AE90C8E770B404680E1B002E07DD26789E42AC
S3150800AEA008D10134046070BCFFF7A7BF6FF05F00DC
S3150800AEB070BC70476FF06100FAE737B51D46134658
S3150800AEC001AA0446FFF7E5FF18B9019B1BB96FF005
S3150800AED0630003B030BD236893F90030002BF6DB1E
S3150800AEE0019B3BB122681178A9B1042BEFD801D197
S3150800AEF00B06ECD400232B60019B5A1E0192002BF3
S3150800AF00E7D023682A681B7843EA02232B60236864
S3150800AF1001332360F0E70132013B22600193DFE74A
S3150800AF2013460222FFF7C9BF37B50223154601AA01
S3150800AF300446FFF7AEFF40B9019A2846216800F09B
S3150800AF404DFC2368019A1344236003B030BD38B51D
S3150800AF5003230446FFF79DFF18B9136813B96FF06A
S3150800AF60670038BD013B136023681A78002AF6D1BA
S3150800AF7001332360F5E72DE9F34190461F4601AA00
S3150800AF80302305460E46FFF784FF0446F0B92B68C2
S3150800AF90F61A002E37DD42461B78019942F8043B23
S3150800AFA02E6806230E4431462846FFF772FF0446EC
S3150800AFB060B92B68D8F80420C8F808309918B14247
S3150800AFC0296007D10C21384604F06EFA204602B0F3
S3150800AFD0BDE8F0819B5C3A4642F8043B2B68314653
S3150800AFE0013328462B60FFF708FF04460028EDD1F9
S3150800AFF02B687A68BB601344B3420CBF04466FF0F3
S3150800B00065042B60E2E76FF05F04DFE703687F2AD9
S3150800B010A3EB010107D8002969DD591E016001204B
S3150800B02003F8012C7047FF2A0DD801295FDD591E48
S3150800B030016003F8012C03685A1E0260812202206F
S3150800B04003F8012C7047B2F5803F13D202294EDD72
S3150800B050591E016003F8012C0368120A591E016083
S3150800B06003F8012C03685A1E02608222032003F8A3
S3150800B070012C7047B2F1807F19D2032937DD591E9A
S3150800B080016003F8012C0368591E0160110A03F8D0
S3150800B090011C0368120C591E016003F8012C036891
S3150800B0A05A1E02608322042003F8012C70470429E3
S3150800B0B01DDD591E016003F8012C0368591E016045
S3150800B0C0110A03F8011C0368591E0160110C03F8E4
S3150800B0D0011C0368120E591E016003F8012C03684F
S3150800B0E05A1E02608422052003F8012C70476FF06F
S3150800B0F06B0070470368591A0029C1BF03F1FF3175
S3150800B1000160012003F8012CD8BF6FF06B0070476F
S3150800B1102DE9F041984605460E4600232968881B06
S3150800B120002806DC6FF06B042046BDE8F0813B463C
S3150800B130F4E7481E286001F8012C1212002A03F1D0
S3150800B1400107F4DC296891F90020002A08DA8A1B2D
S3150800B150002AE7DD4A1E2A6000229F1C01F8012CFE
S3150800B1603A4631462846FFF751FF041EDCDB3146D6
S3150800B17028465FFA88F2FFF7BDFF0028AABFE41940
S3150800B18004462418D0E770B50D46064600681146F1
S3150800B190A8421C4609D3451B9D4206D3C01A1A4627
S3150800B1A0306098F0C0FF204670BD6FF06B00FBE77B
S3150800B1B02DE9F041074688461046154600F008FB7B
S3150800B1C039680646414504D26FF06B042046BDE84F
S3150800B1D0F081A1EB08028242F6D3091A02463960C9
S3150800B1E0284600F01CFB04460028EFD12B68012BEB
S3150800B1F00DD13B6893F90020002A08DAA3EB080270
S3150800B200002AE1DD5A1E3A60013603F8010C32467F
S3150800B21041463846FFF7FAFE041ED7DB02224146AE
S3150800B2203846FFF767FF031EAABFA0191C461C185D
S3150800B230CCE7F8B505460E46FFF7A5FF041E11DB59
S3150800B240224631462846FFF7E1FE2746041E09DB5B
S3150800B250062231462846FFF74DFF0028B2BF0446AE
S3150800B260E41924182046F8BD0223FFF751BFF8B5A4
S3150800B27005460E46FFF787FF041E11DB22463146B8
S3150800B2802846FFF7C3FE2746041E09DB042231467B
S3150800B2902846FFF72FFF0028B2BF0446E4192418F2
S3150800B2A02046F8BD2DE9F84F4FF0000B06468846B4
S3150800B2B0174699465C465D46DDF828A055450AD3EB
S3150800B2C0AA4604E00135AA454FF0010304D17CBB28
S3150800B2D000203C6014E0002319F805002028F1D06E
S3150800B2E0AA45F4D0AAEB0502012A0BD00D2809D1EC
S3150800B2F009EB050252780A2A10D02BB16FF02B0001
S3150800B300BDE8F88F0A28F7E70106F7D43D2807D1E4
S3150800B3100BF1010BBBF1020FF0D801340135CDE773
S3150800B320BBF1000FEAD101F0E5FA0028F5DAE5E706
S3150800B330062004F00703E408434344430733A4EB19
S3150800B3400B0404EBD3045EB1444509D80025344602
S3150800B350AB46A8461C4BCA44D14505D1A41BB7E742
S3150800B3606FF029003C60CBE719F8010BA0F10A023F
S3150800B370D2B2162A03D823FA02F2D207ECD43D2811
S3150800B3804FEA88180ED101350BF1010BBBF1040FFA
S3150800B390E2D14FEA1842012D227009D901344FF043
S3150800B3A0000BD9E701F0A6FA074B48EA0008EBE7D5
S3150800B3B04FEA1822627015B101250234EFE784F8C6
S3150800B3C00280AB460334C7E709004000F0B50546DE
S3150800B3D00E46074600240F2F44D86FF00F012809A0
S3150800B3E001FB0055072D38D956F8040B1168E3FB05
S3150800B3F0601442F8041B56F8040B1168E3FB60144A
S3150800B40042F8041B56F8040B1168E3FB601442F873
S3150800B410041B56F8040B1168E3FB601442F8041B7E
S3150800B42056F8040B1168E3FB601442F8041B56F83F
S3150800B430040B1168E3FB601442F8041B56F8040B6E
S3150800B4401168E3FB601442F8041B56F8040B1168F4
S3150800B450E3FB601442F8041B083D002D74D1002C50
S3150800B4607BD1F0BD103F56F8040B1168E3FB60145E
S3150800B47042F8041B56F8040B1168E3FB601442F803
S3150800B480041B56F8040B1168E3FB601442F8041B0E
S3150800B49056F8040B1168E3FB601442F8041B56F8CF
S3150800B4A0040B1168E3FB601442F8041B56F8040BFE
S3150800B4B01168E3FB601442F8041B56F8040B116884
S3150800B4C0E3FB601442F8041B56F8040B1168E3FB0F
S3150800B4D0601442F8041B56F8040B1168E3FB601469
S3150800B4E042F8041B56F8040B1168E3FB601442F893
S3150800B4F0041B56F8040B1168E3FB601442F8041B9E
