S01E0000636869702D65667233322D6C6F636B2D6578616D706C652E73333774
S3150800600000000420C9720108C5720108E9220608C1
S315080060107DB00008C5720108C5720108C57201087D
S31508006020C5720108C5720108C5720108A1B2010846
S31508006030C57201088C00002041B2010831410108EF
S3150800604089880008C5720108C5720108C572010869
S31508006050C5720108C5720108C5720108C572010832
S31508006060C5720108C5720108C5720108C572010822
S31508006070C5720108C5720108C5720108C572010812
S31508006080C5720108C5720108C5720108C572010802
S31508006090C5720108AD8E0008C5720108C5720108EF
S315080060A0C57201082990000805900008C572010804
S315080060B0C572010835130A082D1D0A08E51C0A08C9
S315080060C0E11C0A0801150A08291D0A08E91C0A081C
S315080060D0011D0A08ED1C0A088D1D0A086D1D0A080F
S315080060E0C5720108C5720108C5720108C5720108A2
S315080060F0A9760108C5720108C5720108C5720108AA
S31508006100C5720108C5720108C5720108C572010881
S31508006110C5720108C5720108C5720108C572010871
S31508006120C5720108C5720108C5720108C572010861
S31508006130C5720108C5720108C5720108C572010851
S31508006140C572010819780108C57201089FB90008C7
S31508006150E1FA0908C572010899D909089FD90908F9
S31508006160C5720108C5720108C5720108C572010821
S3150800617010B5054C237833B9044B13B1044800E035
S3150800618000BF0123237010BDD809002000000000BD
S3150800619084AA0B0808B5034B1BB10349034800E062
S315080061A000BF08BD00000000DC09002084AA0B0817
S315080061B0A3F5803A704700BF174B002B08BF134B57
S315080061C09D46FFF7F5FF00218B460F461348144AF4
S315080061D0121A9FF035FA0E4B002B00D098470D4B3C
S315080061E0002B00D098470020002104000D000D4820
S315080061F0002802D00C4800E000BF9FF095F9200067
S31508006200290001F0C9FE9FF005F800BF000008004C
S31508006210000000000000000000000420D80900204B
S315080062202820022000000000000000001FB50023FF
S315080062300C4600931021134B0A20134A0EF0ECFB70
S31508006240124B186030B912485BF018FF40F2017023
S3150800625000F032FA0F4B4FF4806202930E4B204641
S31508006260019301230D490093084B0FF0C5F930B986
S315080062700B485BF003FF40F2027000F01DFA0020A5
S3150800628004B010BD800B0020DF0A0020D40A0020CD
S3150800629080690A081C0A0020D00B00201A740A0814
S315080062A0A3690A0830B504460D46A7B029B9294896
S315080062B05BF0E4FE2F2000F0FFF9274B00221D605B
S315080062C0264B012100932648234610F0E3F8254B78
S315080062D0186030B924485BF0D1FE40F2047000F033
S315080062E0EBF9224B012200930A212346204810F09D
S315080062F0D1F8204B186030B91F485BF0BFFE40F25A
S31508006300047000F0D9F91D491D485BF0B7FE01F08D
S31508006310A3FE1C491C4801F0B5FE5AF09BFB036816
S3150800632003ACD3F88430984705AB039381230493D1
S3150800633027F0C2F8214627F075F830B994E803002B
S3150800634068F074FF002027B030BD10485BF096FE59
S31508006350F8E700BFBD690A08180A00207166000838
S31508006360D6690A08D80A0020DC690A0855640008B4
S31508006370F6690A08140A0020FF690A08196A0A0851
S31508006380226A0A08E88B0A08F80900203F6A0A0800
S3150800639008B526485CF0DBF8C8B125485EF02CFB4A
S315080063A0244B187022485EF0DBFA234B18702048FD
S315080063B05EF032FB214B187021485EF07BF80038FE
S315080063C018BF01201F4B187018485CF0C9F81E4BFF
S315080063D01B78022B14D01D4B1B6823B1DB7D13B130
S315080063E0FA22114614E0134B1B78ABB1124B1B78FB
S315080063F093B1124B1B7843B10121154801F033FEC6
S31508006400BDE80840124801F04BBE322240F2B631D0
S315080064100F4801F06DFEF3E70A4B1B780BB16422B7
S31508006420DFE740F2B6323221F2E700BFD051012051
S3150800643010980120DC0A0020F4090020100A002028
S3150800644008980120DD0A0020D01B0020180A002029
S31508006450F8090020FFF79CBF002307B50A480093F8
S315080064601A460321006810F045F830B907485BF072
S3150800647005FE40F2067000F01FF90022044B1A7060
S3150800648003B05DF804FB00BFD80A0020576A0A0863
S31508006490DE0A002037B5104D0446286810F08EF93C
S315080064A020B10E485BF0EAFDFFF7D6FF64232246CB
S315080064B0009304210023286810F01CF8012806D050
S315080064C007485BF0DBFD40F2057000F0F5F80122A5
S315080064D0044B1A7003B030BDD80A00206F6A0A0848
S315080064E08A6A0A08DE0A002010B50388012B25D11E
S315080064F0134B1B7813B3134C2378012B15D140F695
S31508006500B83111485BF0BAFD40F6B830FFF7C2FF64
S31508006510022300210D48237001F0A5FDBDE81040B7
S315080065204FF4FA71094801F0E7BD022B06D10023A2
S3150800653007482370BDE8104069F00EBD10BD00BFC6
S31508006540DE0A0020D01B0020A36A0A08F8090020EA
S3150800655010C9012038B50579194B012D1B7809D1C9
S315080065603BB9184C237823B940F6B830FFF792FFA9
S31508006570257038BD002BFCD0124C2578012D17D17B
S31508006580FFF76AFF0023104823705EF035FA0446C9
S3150800659048B929460D485DF07BFF2146BDE83840DD
S315080065A00A485DF07BBF0A48BDE838405BF066BD27
S315080065B0022DDED1FFF750FF002306482370F3E7CC
S315080065C0DE0A0020D01B0020109801200898012020
S315080065D0E26A0A08216B0A0813B50C4B1C680FF00F
S315080065E0E3F8002302460121204600930FF082FFBC
S315080065F0012809D006485BF041FD40F2057002B05B
S31508006600BDE8104000F058B802B010BD140A0020CA
S31508006610416B0A081FB5134C01902368F3B114F0B7
S31508006620BDFD01990346A0B10023206803AA039380
S315080066300EF092FB039B2BB14FF0E0234FF08052F4
S31508006640C3F8042D60B9084804B0BDE810405BF0F3
S3150800665015BD012220680EF093FAF3E70348F3E725
S3150800666004B010BDD40A0020596B0A08866B0A08C4
S315080066701FB50123ADF80030044B0190684603931B
S31508006680FFF7C8FF05B05DF804FB00BFE964000822
S31508006690CB68084603B1184701485BF0EFBC00BF5A
S315080066A0AE6B0A08014608B502485BF0E7FC14F031
S315080066B0B1FDFEE7DE6B0A0808B5FFF7F3FF000039
S315080066C010B50446E8B10FF067F80F4A54F8043CD1
S315080066D01068034206D114F09DFD0C490C489FF042
S315080066E0A7FAFEE754F8082C32B114F093FD0949CD
S315080066F007489FF09DFAFEE723EA0004083C0FF0DE
S3150800670003F9204610BD00BFD86B00200E6C0A089E
S315080067103D6C0A08566C0A08014B1868704700BF9A
S31508006720DC6B0020014B1868704700BFE06B002047
S3150800673008B514F08BFC044B1A68044B1A60BDE8C4
S31508006740084014F091BC00BFDC6B0020E06B002011
S31508006750F8B504460FF020F8184B1B6843B300251C
S315080067604FF0FF372E46164A11685A681B6895423D
S3150800677038BF1546974228BF1746994206F10106C3
S31508006780F3D10FF0C1F8C4E90157E66014F05EFCD6
S315080067900C4B1B6823600C4B1B6863610B4B1B6817
S315080067A0A3610B4B1B682361BDE8F84014F05CBC81
S315080067B04FF0FF371D461E46E3E700BFEC6B00208F
S315080067C0D41B0020DC6B0020E46B0020E86B002063
S315080067D0E06B002010B5144B04461B6888B013B94B
S315080067E001A8FFF7B5FF104B1A461B68A342FBD357
S315080067F0506811188C4201BF616814460918516027
S3150800680061686018834208D108480068834204D04A
S315080068105B680B44636013681B689442236018BF67
S31508006820146008B010BD00BFEC6B0020D41B00201C
S31508006830F8B504460EF0B0FF3C493D4D0B68CBB9A0
S3150800684000203C4B3C4A5E071CBF073323F0070376
S3150800685013605060394A22F00702C2E90000D01AD4
S31508006860C3E90020364B0A601860364B18604FF0B3
S3150800687000432B602B681C4206D00FF045F8002613
S315080068805BF0F0FF3046F8BD631E0A33F5D86007A3
S3150800689004F1080305D023F0070208329A42ECD91E
S315080068A01346284F3A689A42E7D3234A1468606821
S315080068B0984201D22068A0B90968A142DDD02168B2
S315080068C01668116062680836D21A102A10D9E018BC
S315080068D0410709D014F09EFC1B491C489FF0A8F9F3
S315080068E0FEE722460446E2E742606360FFF772FF6E
S315080068F0134962683B6808689B1A834238BF0B6075
S315080069003B602B68134363600023114A23601368B6
S31508006910013313600EF0F8FF7307B3D014F07AFC56
S315080069200C490A489FF084F9FEE700BFD41B0020F3
S31508006930D86B0020D81B0020EC6B0020D06B002001
S31508006940E06B0020DC6B0020766C0A083D6C0A08B8
S31508006950E46B0020B16C0A0813B501FB00F219B10B
S31508006960B2FBF1F181420CD110460192FFF760FFAC
S31508006970044618B10021019A9EF062FE204602B034
S3150800698010BD0024FAE7000010B5044670B3184A93
S3150800699050F8043C1268134206D114F03BFC154922
S315080069A015489FF045F9FEE750F8081C31B114F078
S315080069B031FC124910489FF03BF9FEE723EA02032F
S315080069C040F8043C0EF0E8FE0D4A54F8043C116801
S315080069D0A4F108000B441360FFF7FCFE094A13688C
S315080069E001331360BDE810400EF08EBF10BD00BF26
S315080069F0D86B00200E6C0A083D6C0A08566C0A080B
S31508006A00DC6B0020E86B0020F8B506460C46FFF75D
S31508006A1057FE0746C8B19CB1A0421CD021460120AA
S31508006A20FFF79AFF054648B1A7423A46314628BFBE
S31508006A3022469EF0DEFD3046FFF7A6FF2846F8BD43
S31508006A403046FFF7A1FF2546F8E72146BDE8F8409E
S31508006A500120FFF781BF3546F0E7FFF7E9BEFFF7EC
S31508006A6093BF0846FFF7E4BE0846FFF78DBF084602
S31508006A701146FFF7C9BF08B504F0AEFF0CF0B4FB2A
S31508006A805BF0F0FA28F028F9BDE8084026F032BE97
S31508006A90002213B50368ADF806209C680DF10603BD
S31508006AA0A047192816BFB0FA80F00120400902B0A5
S31508006AB010BD052B8CBF2F200020704770477047EC
S31508006AC0704770477047000001485DF0DFBE00BFA1
S31508006AD060A6012001485DF0DEBE00BF60A6012069
S31508006AE001F01EBC10B5044638219DF083FC2046F3
S31508006AF010BD10B5044604219DF07CFC204610BD4F
S31508006B0010B5044608219DF075FC204610BD00000E
S31508006B100D4A08B50260D0F8F4210AB19EF064FB6C
S31508006B20D0F84821002AF9D1D0F80421002AF5D155
S31508006B30D0F89820002AF1D1426D002AEED10369D7
S31508006B40002BEBD108BD00BFF8210B0838B5094B5F
S31508006B5004460360436853B1437C43B9C56835B1FD
S31508006B602B6828461B689847284659F0FFFF204699
S31508006B7038BD00BF28F30A08406808B15BF016BAAA
S31508006B800320704713B5406810B9032002B010BD42
S31508006B9000248DF8074022B90BB12F20F6E70DF136
S31508006BA007025BF0D7F9F1E730B540681C4685B0B7
S31508006BB010B9032005B030BD00251B888DF80B5091
S31508006BC022B90BB12F20F5E70DF10B0203950195BC
S31508006BD003AD00955BF0A2F9192801D00028E9D188
S31508006BE0039BB3F5803F28BF00232380E2E700001C
S31508006BF048F2010210B50388934212D190F9083081
S31508006C00012B15D10B485BF039FA36F0B1FA036857
S31508006C1040F6B8315C69084AA446BDE8104000232E
S31508006C20604748F20202934202D190F90930E7E739
S31508006C3010BD00BFEF6C0A08E16A000810B50446EB
S31508006C40FFF766FF20464FF41A719DF0D3FB2046E6
S31508006C5010BD10B50446FFF779FF204614219DF0B4
S31508006C60C9FB204610BD0000254B37B51425036027
S31508006C704FF0031200230446C0E90123C36000F164
S31508006C80280200F12C0102230095103034F00EFD85
S31508006C9004F16C0204F170010223009504F154001A
S31508006CA034F004FD282304F1B002009304F1B40182
S31508006CB0022304F1980034F0F9FC04F58E7204F509
S31508006CC090710223009504F5827034F0EFFC482396
S31508006CD004F5B072009304F5B271022304F5A470AA
S31508006CE034F0E4FC2C2304F50372009304F50471D4
S31508006CF0022304F5FA7034F0D9FC204603B030BDFF
S31508006D00F8210B0808B509485BF0B8F908485EF0A1
S31508006D1041FC50B9012106485DF06EFF28B90548C7
S31508006D205BF0ACF904485DF08FFD08BD176D0A08E5
S31508006D3010980120356D0A0860A601205AF078BF20
S31508006D40002310B504464360006808B159F00EFFE9
S31508006D50204610BD38B5002504464560006810B1C8
S31508006D6059F004FF256038BDF8B50546154B0446AD
S31508006D7045F8143B436800F11C0700F10C06B3B153
S31508006D802846FFF7E7FF3846FFF7E4FFE36803B94D
S31508006D90237294F82430304623F0050384F824300F
S31508006DA0FFF7D8FF0023237284F82430636038463F
S31508006DB0FFF7C6FF2846FFF7C3FF3046FFF7C0FFB9
S31508006DC02046F8BDA0240B0810B50446FFF7CCFFF3
S31508006DD0204628219DF00EFB204610BDF8B5044636
S31508006DE06E4DD5E88F3FDF070BD428469DF004FB90
S31508006DF038B128469DF00CFB694A6A496A489DF0F5
S31508006E00F4FA6A4DD5E88F3FDE070BD428469DF085
S31508006E10F3FA38B128469DF0FBFA614A6449654899
S31508006E209DF0E3FA644FD7E88F5F15F0010518D196
S31508006E3038469DF0E1FAA0B1604E614B3846C6E986
S31508006E400035C6E90355C6E90555C6E9075535723D
S31508006E5086F824509DF0DCFA3046514A59499DF08F
S31508006E60C4FA594DD5E88F3FD8070ED428469DF069
S31508006E70C3FA50B15548FFF7F7FE28469DF0C8FA01
S31508006E80474A534951489DF0B0FA524DD5E88F3FCD
S31508006E90D9070ED428469DF0AFFA50B14E4E4F4B47
S31508006EA0284633609DF0B4FA30463D4A4C499DF079
S31508006EB09CFA4C4DD5E88F3FDA070ED428469DF04C
S31508006EC09BFA50B1484E494B284633609DF0A0FACC
S31508006ED03046334A46499DF088FA464DD5E88F3FF5
S31508006EE0DB070BD428469DF087FA38B128469DF073
S31508006EF08FFA2B4A404941489DF077FA23691BB916
S31508006F00294B3F4A23615A60236B43B9294B5A6878
S31508006F1052B921691A725960DA601A822363636B5F
S31508006F20FBB9264D6B680BB10320F8BD05F11400BB
S31508006F302669FFF70FFF05F11C00FFF70BFFEB684B
S31508006F4003B92B7295F824302E4823F0050385F8EB
S31508006F502430FFF7FFFE00236E602B7285F824307D
S31508006F6065631A4E2169304663F0D6FD304662F0F5
S31508006F705EFF054608B12846D7E72269E6610AB9E1
S31508006F802F20D2E7184B63615A6039F0F9FA1B4B88
S31508006F9020626362104BA361EDE700BFA86E002074
S31508006FA000000020C16A00081C000020A46E002012
S31508006FB04D6B000808000020786E00207C6E0020CB
S31508006FC0A0240B08696D00080C6C0020106C0020CA
S31508006FD0116B0008046C0020086C0020EC6D0A0890
S31508006FE0BF6A0008F86B0020FC6B0020A82B0B0872
S31508006FF0C36A0008F46B0020C56A00080400002074
S31508007000BF510120886E002030B5044685B0394945
S31508007010394809F09FF839485BF030F82146384876
S315080070205BF02CF835485BF029F826F045FA00B1F4
S31508007030043036F04DF826F03FFA35F061FF314856
S315080070405BF01CF80021084634F0BEFA00284ED141
S315080070502D4D2B7843B928465BF078FB00280CBFEA
S31508007060012300232B7042D1214628485DF01CFAE3
S31508007070FFF748FE00283AD125485BF063FA254C0D
S31508007080D4E88F3FDB070BD420469DF0B5F938B11D
S3150800709020469DF0BDF9204A204921489DF0A5F9D2
S315080070A0204D1F4C28465DF0A9F82563002520468B
S315080070B0FFF794FE1C4B1D4801931D4B0395029345
S315080070C05DF02EFC01AB214603901A48A36269F0D5
S315080070D023F80F485BF044FA2A4617490C485BF038
S315080070E07FF916485AF0CAFF09485BF0E1FA05B07D
S315080070F030BD00BF1DB6030819B603084E6D0A0851
S31508007100816D0A088D6D0A08C8510120089801206A
S31508007110D0510120AC6E002000000020BD6A000896
S3150800712024000020B06E0020C96A000810980120CB
S31508007130D56A000810C90120F16B00089D6D0A0880
S3150800714010B5044608219DF055F9204610BD10B526
S31508007150044604219DF04EF9204610BD0648074B0B
S31508007160074A036000230749C0E90133C360037473
S31508007170436103839DF039B9B06E002078160B0879
S3150800718000000020B5410608FF22014B1A7070471F
S315080071905C00002070477047012838B504460D4644
S315080071A00CD8094B0949002818BF194608485AF04F
S315080071B065FF084804F0010100F055FF15B90122E2
S315080071C0054B5A7138BD00BF0C6E0A081A740A08B6
S315080071D0136E0A08D06E0020046F002010B50488CC
S315080071E0022C06D102798168094800F03BFB50B1B0
S315080071F010BD002CFCD1064800F0E9FA80F0010029
S315080072002146C2B2F0E70348BDE810405AF036BF3F
S315080072100C6F0020306E0A0830B515460C4685B04E
S3150800722081B11022002168469EF00AFA094B8DF8B2
S3150800723004509C4208D1012D06D1074B684603939A
S31508007240FFF7E8F905B030BD044B9C42FAD1044B70
S31508007250F4E700BFD08B0A08DD710008B88B0A086E
S315080072605565000810B5044608219DF0C3F8204668
S3150800727010BD000070B5037D194D0B2B2B7008BF90
S31508007280837D044608BF2B702E78FE2E0FD0FF2E66
S315080072901DD0022E23D835F06BFF036841F28831E2
S315080072A05D6923460F4AAC46BDE87040604735F035
S315080072B05FFF036822469B690A49984735F058FFDD
S315080072C003684FF47A715D69064A2346EBE735F0A1
S315080072D04FFF036822469B69024998472E7070BD86
S315080072E05C0000208971000810B568B908485AF092
S315080072F0C5FE084C637933B10022074907485BF09D
S315080073004FF90023637110BD0128F2D10448EEE756
S31508007310596E0A08046F002025730008D051012011
S31508007320786E0A0807B50D4800F051FA002814BF10
S3150800733002220122019218F0E7FD00230121019A99
S315080073401AF022FB30B90121054803B05DF804EBB9
S315080073505AF094BE03B05DF804FB00BF0C6F002022
S31508007360996E0A087047000010B5654986B0FEF7A1
S3150800737099FF044628B163485AF080FE2046FFF775
S315080073809BF9002460488DF808405BF0DBF802A9F9
S31508007390012016F0B3FD8DF8044018F0B5FD012163
S315080073A001AA18F009FE40B901231D201946574ABB
S315080073B034F04CFA05238DF804300023ADF80E306E
S315080073C018F0A2FD01210DF10E0218F0CDFD40B90D
S315080073D001231D2019464E4A34F038FA0A23ADF81F
S315080073E00E3000238DF8053018F08EFD01210DF1C1
S315080073F0050218F0D1FD40B901231D201946454A5A
S3150800740034F024FA0A238DF8053000238DF8063067
S3150800741018F07AFD01210DF1060218F0C5FD40B9F4
S3150800742001231D2019463C4A34F010FA0A238DF828
S31508007430063000238DF8073018F066FD01210DF19E
S31508007440070218F0C1FD40B901231D201946334A29
S3150800745034F0FCF90A238DF807302B485BF080F8E6
S315080074609DF808308DF80C301BB19DF809308DF861
S315080074700D309DF804009DF805109DF806209DF82E
S315080074800730BDF80E408DF81200ADF810408DF8A3
S3150800749013108DF815308DF8142006AB204803A973
S315080074A013E90C0000F0CEF8044628B11D485AF03E
S315080074B0E5FD2046FFF700F91B4A1C49184800F06D
S315080074C083F91B491B4800F0DDFD9DF808300BB910
S315080074D09DF08AFE9DF8091016488B1E594259419F
S315080074E000F0C1FD0022144907485BF059F859F02D
S315080074F0B1FA0368D3F884309847204606B010BD21
S31508007500E86E0020B56E0A08D0510120D46E0A082C
S315080075104C6F0A08B66F0A082C700A08A2700A0887
S315080075200C6F002018710A08E972000899710008A2
S31508007530008C0A08D06E00202573000830B505684F
S3150800754085B01048FFF710FF044628B10E485AF0D8
S3150800755095FD2046FFF7B0F8FFF73EF80B485AF0BE
S315080075608DFD0B4800F0C8F8064C0A2269462846E5
S315080075700DF0B4FC0128F8D169462046FFF788F8D3
S315080075800022F3E7046F002030710A0846710A08E2
S315080075900C6F00200149FEF749BE00BF3D75000883
S315080075A01FB50023CDE902330C4B0D4C0193022382
S315080075B00121009320460B4B0B4A1EF00DF820467E
S315080075C00A4A0B499CF011FF0A480B4B074A0B491C
S315080075D0036004B0BDE810409CF007BF7572000850
S315080075E0E86E002065730008957100080000002009
S315080075F00D560208046F002060710A08977100088A
S315080076004368987820B901229A709B6833B1184765
S31508007610022803D1032201209A70F6E7704700007A
S315080076201FB50FF0E5F80123ADF80030044B0190C3
S3150800763068460393FEF7EEFF05B05DF804FB00BF4E
S31508007640017600087FB50D4602A981E80C0000F511
S31508007650A156044600F5805303C946F8042B92B296
S315080076600A2A318007D90A211C485AF007FD40F238
S31508007670077004B070BD93F822240A2A02D90A2199
S315080076801748F2E793F823240A2A02D90A2115484B
S31508007690EBE793F824240A2AF8D893F825340A2B1A
S315080076A0F4D8114B00220093012123460F480EF00F
S315080076B0F1FE0F4B186028B90E485AF0DFFC40F26D
S315080076C00470D6E72B780BB99DF08EFD6B780020F9
S315080076D0022B0CBF03230123A370CAE76C710A08A7
S315080076E0D5710A084D720A0821760008BE720A0882
S315080076F034830020C6720A0837B5044601AB00F188
S315080077000C014FF48C7228485AF0FEF801AB04F5C8
S3150800771092714FF4C86225485AF0F6F801AB04F6A0
S315080077200C716422224804F580555AF0EDF801AB35
S3150800773004F577614FF448721E485AF0E5F895F853
S315080077402234B5F8202404F594515A43103101AB7C
S31508007750920019485AF0D8F8B5F8203495F8232439
S3150800776004F264715A43154801AB02EB82025AF0DF
S31508007770CBF8B5F8203495F8242404F6BC115A43FE
S315080077800F4801ABD2005AF0BFF895F8252401AB93
S3150800779002EB4202920004F66C610A485AF0B4F809
S315080077A0012003B030BD00BF107308001173080034
S315080077B01273080013730800147308001573080081
S315080077C01673080017730800C0E90112704780781D
S315080077D0C31E584258417047002307B50A4800930C
S315080077E01A46032100680EF085FE48B907485AF084
S315080077F045FC40F2067003B05DF804EBFEF75CBF8B
S3150800780003B05DF804FB00BF34830020E5720A0864
S3150800781073B5114E054630680C460EF0CFFF28B1F9
S315080078200E485AF02BFC2846FFF7D6FF642322465B
S3150800783000930421002330680EF05CFE012809D06D
S3150800784007485AF01BFC40F2057002B0BDE87040CC
S31508007850FEF732BF02B070BD348300206F6A0A0893
S31508007860FE720A08F8B583780546012B0E461446BB
S3150800787003D1012A12D00020F8BD032BFBD1002A20
S31508007880F9D117460A212846FFF7C2FF6B68AF7081
S3150800789013B13146204698470120EDE70227F1E764
S315080078A030B54AB3013A92B2092A25D81C2101FB00
S315080078B0020191F820401C7504B3D1E90354C3E9C9
S315080078C00054282505FB020201208C6902F5945212
S315080078D01032C3E90224CA691A6191F821205A753F
S315080078E091F82220D8759A7591F8242058761A7638
S315080078F091F826209A7630BD0020FCE70120FAE7A9
S315080079002DE9F74FDDF8349006469846139F7AB16D
S31508007910013A94B2092C0BD8D9F804B0BBF10A0F76
S3150800792008D90B461D200121404A009433F08EFFEA
S31508007930002077E000F5805393F82234BB4208D242
S315080079400B461D200121CDE90047394A33F07EFF59
S31508007950EEE74FF00A0ABBF1090F28BF4FF0090BF3
S315080079600AFB040A0AF60C755A46D9F80010284686
S315080079709DF03FFE1C22002302FB046205F80B3033
S31508007980D9F804104FF0010CC2E903510E9982F898
S315080079902480D1619DF83C1082F820109DF8401093
S315080079A082F821109DF8441082F822109DF83010B4
S315080079B082F82610282101FB046101F59451103143
S315080079C00A46BB4202F104020AD0129850F8230074
S315080079D0013342F8040C02F804CC22F8023CF0E722
S315080079E01C2202FB0464C4E9051306F58054B4F8A6
S315080079F0203406F10C015A430E485AF09BF894F8C5
S31508007A002234B4F8202406F594515A4310319200D2
S31508007A1009485AF08FF86422084806F60C715AF09D
S31508007A2089F8012003B0BDE8F08F00BF1E730A086D
S31508007A305D730A08107308001473080012730800AF
S31508007A4010B5029C13B92AB100201CE0013A92B283
S31508007A50092AF9D800EB021393F82411217099B179
S31508007A6093F82511221D6170D3F82801D3F82C113B
S31508007A7082E80300012093F83121627393F83331C9
S31508007A802073E373A07310BD0120FCE7E0B505463B
S31508007A909DF81800079F08B922B1E0BD013A92B2D5
S31508007AA0092A2DD805EB021686F831319DF81030D3
S31508007AB09DF8141086F8333102F5F7739BB286F8F1
S31508007AC0250105EBC30386F82411D7E900121846E9
S31508007AD09DF08FFD7A6805F58053C6E94A0293F84A
S31508007AE0222405F59271120106485AF023F84FF43C
S31508007AF04872054805F577615AF01CF80120CCE76D
S31508007B000020CAE7117308001373080010B502991C
S31508007B10CAB1C3B1013AD2B2092A14D8013B9BB201
S31508007B20092B10D83C246343062404FB0233034480
S31508007B3093F864274AB10020D3F865270A6093F8BA
S31508007B4069370B7110BD0120FCE78B20FAE70000AE
S31508007B5008B5B2B3ABB3013AD2B2092A31D8013B60
S31508007B609BB2092B2DD83C214B43062101FB02333E
S31508007B709DF80C20034483F865279DF8102000F231
S31508007B80647183F866279DF8142083F867279DF8A3
S31508007B90182083F868279DF81C2083F869279DF824
S31508007BA0082083F8642700F5805393F82324B3F854
S31508007BB0203405485A4302EB820259F0BBFF0020E5
S31508007BC008BD0120FCE700BF1573080010B5029C2C
S31508007BD0CAB1C3B1013AD2B2092A14D8013B9BB241
S31508007BE0092B10D878214B430C2101FB023303449F
S31508007BF093F8BC294AB1D3F8C009D3F8C41984E864
S31508007C000300002010BD0120FCE78B20FAE70000E6
S31508007C1008B53AB333B3013AD2B2092A22D8013B9E
S31508007C209BB2092B1ED878214B430C2101FB02334A
S31508007C30039A0344C3F8C029049A00F6BC11C3F892
S31508007C40C4299DF8082083F8BC2900F5805393F8C9
S31508007C502424B3F8203404485A43D20059F06AFF62
S31508007C60002008BD0120FCE7167308007AB1013A26
S31508007C70D2B2092A0BD800EB021090F86C2E42B14A
S31508007C8000F5676007C883E80700002070470120F1
S31508007C9070478B207047000010B5FAB1013AD2B28E
S31508007CA0092A1BD8029C00EB0211C1F8704E039CEE
S31508007CB081F86C3EC1F8744E9DF8104000F580536B
S31508007CC081F8784E93F8252400F66C6102EB42029F
S31508007CD00348920059F02EFF002010BD0120FCE752
S31508007CE0177308002DE9F7430E461F464FF00109A2
S31508007CF004460DF10701304690468DF8079016F0B8
S31508007D0023FA3D78A5B99DF8073053B918F0FCF861
S31508007D104246314618F0FCF80125284603B0BDE86E
S31508007D20F083334649461D20114A33F08FFDF4E7A8
S31508007D3004F5C86994F82531012B10D194F824313B
S31508007D406BB1D4F82C21BB689A4208D1002ADDD041
S31508007D507968D4F828019DF03CFC0028D6D0103468
S31508007D60A145E7D101220A9B00251A70D5E700BF75
S31508007D70C1730A0807B5009313460122FFF7B2FF3D
S31508007D8003B05DF804FB07B5009313460222FFF71C
S31508007D90A9FF03B05DF804FB0A2300210B4A013B47
S31508007DA0C2E90311C2E9051102F11C02F7D16422E6
S31508007DB00749013AC1E9013301F11001F9D1054B2F
S31508007DC0C3F82024A3F82424704700BF0C6F0020B2
S31508007DD0307000200C7F002070477047134610B59E
S31508007DE00A4601460548FFF7C5FF044620B10022AA
S31508007DF002210248FFF736FD204610BD0C6F002011
S31508007E00134610B50A4601460548FFF7BCFF044667
S31508007E1020B1012202210248FFF724FD204610BDA9
S31508007E200C6F002007B5009313460A46014603481F
S31508007E30FFF706FE03B05DF804FB00BF0C6F0020D9
S31508007E401FB5089C03949DF81C4002949DF81840A1
S31508007E50CDE9003413460A4601460248FFF716FEE6
S31508007E6004B010BD0C6F002013460A4601460148AF
S31508007E70FFF716BD0C6F002010B588B0109C07944C
S31508007E800F9C06949DF8384005949DF83440049458
S31508007E909DF8304003940B9C02940A9CCDE900346B
S31508007EA013460A4601460248FFF72AFD08B010BDE8
S31508007EB00C6F002007B5009313460A46014603488F
S31508007EC0FFF724FE03B05DF804FB00BF0C6F00202B
S31508007ED007B5009313460A4601460348FFF776FEA0
S31508007EE003B05DF804FB00BF0C6F002013460A467A
S31508007EF001460148FFF7BABE0C6F002010B586B0E0
S31508007F009DF8304005949DF82C4004949DF828402F
S31508007F1003949DF8244002949DF82040CDE900344E
S31508007F2013460A4601460248FFF712FE06B010BD80
S31508007F300C6F00201FB5079C0294069CCDE90034FF
S31508007F4013460A4601460248FFF762FE04B010BD12
S31508007F500C6F00201FB59DF81C400294069CCDE9C5
S31508007F60003413460A4601460248FFF795FE04B058
S31508007F7010BD00BF0C6F0020002202210148FFF748
S31508007F8071BC00BF0C6F0020704710B5044608216D
S31508007F909CF030FA204610BD08B5FEF76CFD19486E
S31508007FA0FFF732F810B1AC20FEF786FB164B1748E0
S31508007FB0D3F8841135F06FF8144835F079F8144879
S31508007FC05AF0C0FA65F038F960F08EF910485AF0A0
S31508007FD0C7FA10485AF052F80F48FFF7DBFA10B103
S31508007FE0AC20FEF769FB0D485AF048F803F001FD8E
S31508007FF033F000FB0A485AF041F8AC20FEF75CFB68
S31508008000002008BD0E740A0810F90120600000203F
S31508008010D05101201F740A08046F002031740A0821
S315080080204D740A08024A034903489CF0DEB900BFAA
S3150800803000000020897F00086000002007B5019035
S3150800804000F027FE02460199024803B05DF804EBEA
S31508008050FFF7E2B8046F00200EF0C6BC006908B14D
S315080080600EF063BC704700230022C0E902330023E8
S31508008070C0E90023006920B109B10EF050BC0EF02A
S3150800808051BC704730B40022002400250161C0E9C4
S31508008090004530BC1146C0E90222FFF7E4BF0000E4
S315080080A073B583680446FBB1C368EBB10F4B6846EA
S315080080B019680B68DB689847DDE9006520690EF0EA
S315080080C037FCD4E90232002808BF1346D4E9001267
S315080080D05B1842F10002B34272EB050304D2204654
S315080080E0FFF7BCFFC4E9006502B070BDE4020020DA
S315080080F0C0E90212FFF7D4BFC0E90211FFF7D0BFEB
S3150800810070B50446D1E9042352EA03000DD064256C
S315080081108868CE68A0FB050105FB06119CF0D4FE15
S31508008120012360702370204670BD0023237063709E
S31508008130F9E7D0E90201704770470023836070476A
S31508008140002343607047704704387047704770478C
S3150800815010B5044610219CF04DF9204610BDA0F13B
S315080081600400F5E710B5044B04460360006B08B13C
S3150800817058F0FCFC204610BD04150B0810B5044643
S3150800818001210C20054A33F061FBE06820B1BDE807
S31508008190104003689B68184710BD00BF6A740A0838
S315080081A0A0F10400EAE700BF38B50B4CD4E88F3FCE
S315080081B0DB070ED420469CF01FF950B1074D084B3B
S315080081C020462B609CF024F92846064A06499CF06E
S315080081D00CF9024838BD00BF388300203C830020D4
S315080081E0C8F60A08000000203981000810B50446C0
S315080081F00B4B03606433436000F51C7035F04EFF8B
S31508008200A36D23B1002204F13800A2659847A36A3A
S3150800821023B1002204F10800A2629847204610BD47
S315080082201CDC0A08A0F10400E0E700BF10B504460C
S31508008230006808B135F04AF9204610BD10B5044665
S31508008240034B40F8343BFFF7F1FF204610BD00BF53
S3150800825068D80A0837B5C0680D46144638B90121EA
S315080082600C200E4A33F0F2FA002003B030BD1A682B
S315080082702146019200221A6001AA20F0C7FB01A834
S31508008280FFF7D4FFA38823B9E38813B92378402BD3
S31508008290EAD02B8943F040032B81E5E77D740A0871
S315080082A0A0F10400D6E700BFF0B5876805460C467E
S315080082B085B017B9032005B0F0BD0023ADF8083026
S315080082C00B890E7B23B94B89022B1ED1142E02D0A3
S315080082D00123ADF80830606835F072F863683246F5
S315080082E0039302AB0093A168384603AB33F064FDF1
S315080082F0044603A8FFF79AFF2CB1A86818B133F013
S31508008300F3FC0023AB602046D5E7002BE0D1402ED6
S31508008310DDE710B5044604219CF06CF8204610BD34
S31508008320F7B5104F104E384620F0D8FE0F49104DBD
S3150800833001F54053D3F884310E4A0F4C5360384642
S315080083403346009521F02EF90C4B22463946304625
S31508008350336122F03FFB0A4B256263636C6003B00E
S31508008360F0BD00BF588400207000002010C901200D
S3150800837040830020680000202084002080510100EE
S31508008380B0740A0810B50446FFF730FF20464FF4CC
S3150800839022719CF02FF8204610BDA0F10400F1E7E9
S315080083A010B5044608219CF025F8204610BD10B5E6
S315080083B004461C219CF01EF8204610BD10B5044644
S315080083C0FFF73CFF2046E0219CF014F8204610BD3C
S315080083D010B50446FFF7C6FE204638219CF00AF879
S315080083E0204610BDF8B53C483C4B00240360643376
S315080083F0436000F10803C0E90233394BC0E90A407B
S31508008400036300F13803C0E90E33364BC0E9164062
S315080084100366354BC0E91A44C3672033C0F8803079
S315080084200523C0E92E44C0E93044C0E97244046714
S3150800843080F87440846780F8AC4080F8D041C0F872
S31508008440D44180F8D84180F8F04180F8084280F895
S315080084502042C0F85432254BC0E99D44C0F870321A
S31508008460234A244980F83842C0F8504280F85842D6
S3150800847080F87C42204D9BF0B8FF1D4A1F492048D2
S315080084809BF0B3FF1A4A1F491F489BF0AEFF2846C8
S31508008490002600271D4B6C6040F8103B2C7268F0D4
S315080084A073FB2846124A1A49C5E93444C5E93644D5
S315080084B09BF09BFF1748184BC0E90267C0E90467A1
S315080084C0C0E90644C0E90C440360094A1349BDE8FB
S315080084D0F8409BF08ABF00BF588400201CDC0A08BD
S315080084E0D9A40208F1920208C4740A086CFD0A08A5
S315080084F000000020ED810008408300204D8100081F
S31508008500680000204F8100087000002068D80A081B
S315080085103D8200082084002004150B0865810008A8
S3150800852008B5002304221946012002F0FFF90020AD
S3150800853008BD08B501213A2001F0FAF80EF084F9D1
S31508008540BDE808400EF02ABE01213A2001F0F0B835
S31508008550BFF34F8F0549064BCA6802F4E06213431E
S31508008560CB60BFF34F8F00BFFDE700BF00ED00E013
S315080085700400FA054FF000639A6A02F17841B1F5F2
S31508008580C04F03D21168074A914203D000230370F3
S3150800859083607047012202709A6A926842609B6AF9
S315080085A09B69F5E707B0CD5E08B54FF00053024A60
S315080085B01A60FFF7CDFF00BF02020FF030B54FF08B
S315080085C0006587B00191AB6A044603F17843B3F5B9
S315080085D0C04F10D201238DF80C30002303A8CDE933
S315080085E00433FFF7C7FF059B5B0504D5AB6A204636
S315080085F01B6C0199984707B030BD000073B54D4B09
S3150800860004461A781AB102221A7002B070BDCDE972
S3150800861000220028F9D001261E7001F0CEFF464D33
S31508008620464B186097F0C0F82B785BB900F00EFD42
S3150800863040B943480823434A434900689BF024FA53
S3150800864000B92E70414B5A6E22619B6E404A636197
S315080086504FF4804393663F4B5968A1613E49996040
S31508008660196E2160596E6160196CA160596CE160E0
S315080086703A49086C1864496C5964012151661B6EA5
S315080086809C043FD5364AD368D807FCD4354B1A68BC
S31508008690531C3CD04FF480139340334A136604238B
S315080086A0314C23664FF40073236600F02DFA01302F
S315080086B00BD000F029FA40F2011398421FBF4FF47D
S315080086C0005323664FF4804323660823264C6846E6
S315080086D023664FF4805323664FF0006323664FF4F6
S315080086E0002301A96366FFF769FF009B2366019BC8
S315080086F063662B78002B88D0124B1A6822665B6853
S31508008700636682E7194AD368D907FCD4BEE7184BD3
S315080087101B78002BC3D14FF400720D4B5A6603F534
S31508008720A6235B68002BBAD14FF480120E4B1A664B
S31508008730B5E700BF068700200487002008870020C9
S31508008740E0000020FC860020007108000080005030
S31508008750009000500080004455CEAC0000C0005484
S3150800876000000440DC000020009000440000045093
S315080087700587002070B5204D04462E78012E02D0BC
S3150800878001232B7070BD0028FCD000F0BDF9013024
S315080087900BD000F0B9F940F20113984205D0174BF7
S315080087A0174A5E66D368DE07FCD42268154B1A663C
S315080087B062685A66A2681A64E2685A64A269D007AF
S315080087C044BF00229A60104B1A68013207D10F4A3B
S315080087D0127822B90E494968C90748BF1A60226942
S315080087E00C4B5A6662699A6696F0FAFF0A4B186845
S315080087F001F0E9FE0023C4E7068700200090004048
S315080088000000044000800044DC00002005870020AA
S3150800881000C00550008000500887002070B54FF052
S315080088200064A36A03F17843B3F5C04F1DD2114E15
S31508008830337813F0FD0F1BD10F48FFF7DFFE012534
S315080088404FF480330D4A0E49C2F88051CB6015604B
S315080088500C4A1361A36ADB69984704460648FFF782
S3150800886089FF04B93570204670BD4FF48174FAE764
S315080088700024F8E705870020E086002000E100E0F4
S3150800888000A000440090004413B51F4B1B7803B9A1
S31508008890FEE700231D4CCDE900336A4608231C4930
S315080088A020689BF0F1F8F0B91A4AD2F84031D2F8AC
S315080088B040211F2B4FF0010310D9203A9340019A0B
S315080088C01343019308236A46114920689BF092F8DE
S315080088D04FF00053104A1A60FFF73AFE9340009A89
S315080088E013430093EEE70D4B9842F1D1094AD2F8AB
S315080088F04031D2F840211F2B4FF0010302D9203A0C
S315080089009340DEE79340ECE706870020E00000206E
S3150800891000710800008000440B020FF00BE000F025
S3150800892038B54FF00065AB6A044603F17842B2F5F4
S31508008930C04F12D21B6B03F17843B3F5C04F0CD26C
S315080089400648FFF75BFEAB6A20461B6B5B689847D9
S31508008950BDE838400148FFF70DBF38BD0C87002039
S315080089604FF000639B6A03F17842B2F5C04F07D215
S315080089701B6B03F17842B2F5C04F01D29B681847CA
S315080089804FF481707047000013B54FF000640190F2
S31508008990A36A03F17842B2F5C04F15D21B6B03F1F7
S315080089A07843B3F5C04F0FD20948FFF727FEA36AED
S315080089B001211B6B01A89B69984704460448FFF7E9
S315080089C0D9FE204602B010BD4FF48174F9E700BF06
S315080089D00C87002037B54FF00065CDE90021AB6A5A
S315080089E0044603F17840B0F5C04F12D21B6B83B131
S315080089F00948FFF703FEDDE90021AB6A20461B6B39
S31508008A005B6A984704460448FFF7B4FE204603B05D
S31508008A1030BD4FF40174F9E70C87002037B54FF0E5
S31508008A2000650191AB6A044603F17842B2F5C04F7E
S31508008A3015D21B6B03F17843B3F5C04F0FD2094823
S31508008A40FFF7DCFDAB6A20461B6B01999B6A9847CA
S31508008A5004460448FFF78EFE204603B030BD4FF4A7
S31508008A600174F9E70C8700204FF0006370B59B6A24
S31508008A700D4603F17843B3F5C04FADF50E7D17D219
S31508008A804FF40E726946FFF7A5FF044660B940F237
S31508008A90012629466846FFF7C1FFB042F9D040F2E1
S31508008AA00323984218BF044620460DF50E7D70BD77
S31508008AB04FF40174F8E7000037B54FF00065CDE9CB
S31508008AC00021AB6A044603F17840B0F5C04F16D2D0
S31508008AD01B6B03F17843B3F5C04F10D20948FFF773
S31508008AE08DFDDDE90021AB6A20461B6B9B6B984721
S31508008AF004460448FFF73EFE204603B030BD40F268
S31508008B000114F9E70C8700201FB54FF000639B6A34
S31508008B1003F17842B2F5C04F04D340F2011005B014
S31508008B205DF804FB1B6B03F17843B3F5C04FF4D231
S31508008B3001238DF80430002301A8CDE90233FFF79D
S31508008B4019FD039BDB03E8D5029B1A0EE5D0012A23
S31508008B5003D1C3F307430A2BDFD94FF000639B6A9F
S31508008B601B6B1B6C9847DAE737B54FF00065019128
S31508008B70AB6A044603F17842B2F5C04F15D21B6BB7
S31508008B8003F17843B3F5C04F0FD20948FFF736FD16
S31508008B90AB6A20461B6B0199DB6B98470446044871
S31508008BA0FFF7E8FD204603B030BD40F20114F9E7AF
S31508008BB00C8700202DE9F04399464FF000639B6A25
S31508008BC0174603F17842B2F5C04F05460E4691B0F6
S31508008BD04DD21B6B03F17843B3F5C04F47D203A8B8
S31508008BE0FFF79EFE079BDC68A3B2002B42D02846FF
S31508008BF001A9FFF7B5FE00BB029B06EB09059D42DE
S31508008C003BD8A1B2B6FBF1F401FB1463DDF804808E
S31508008C10D3B1B5FBF1F201FB12524C4204EA06004D
S31508008C2001EB080C62B12C40211A6044D1B94A46BE
S31508008C30394608EB0600FFF73FFF11B0BDE8F083A1
S31508008C40A9EB0104E118F0E7B9FBF1F301FB139373
S31508008C5008EB060023B14C4204EA09042144E5E77F
S31508008C604946E3E7FFF780FF0028E0D0E5E74FF441
S31508008C708170E2E740F20140DFE740F20240DCE7BC
S31508008C8003680B6001607047436803B118472220E8
S31508008C907047436903B11847FF20704710B40A6844
S31508008CA01378022B11D014203023147913FB0403F4
S31508008CB007481B585079C340DB4303F00103137080
S31508008CC008465DF8044BFFF7B9B95DF8044B7047E1
S31508008CD030C0035037B50468012105463A2000F034
S31508008CE027FD002301226179207901F01FFE142255
S31508008CF03023217913FB01230E4A9B586279D3400E
S31508008D00DB4303F001032370A379022B0ED100F095
S31508008D1023F92A460849607900F048F901230246F2
S31508008D2061792079CDE9003301F0A8FD002003B070
S31508008D3030BD00BF30C003509D8C0008036818780A
S31508008D407047000002681378022B24D014213023C0
S31508008D50107913FB001310495B585179CB40917970
S31508008D6003F00103012912D1508843EA40034FF664
S31508008D70E07063F03F039BB2834202D111705380C7
S31508008D8070474FF6DF718B42F9D10021F6E711B92A
S31508008D9083F001031370704730C0035003681A78D4
S31508008DA0022A03D100225A80FFF794BF704713B5F1
S31508008DB004682378022B10D0A379022B0BD100214B
S31508008DC0607900F0E1F80023627920791146CDE94F
S31508008DD0003301F053FD0223237002B010BD0000DA
S31508008DE038B5124B05461B78DBB1E0B101F0E5FB5F
S31508008DF00F4A00231146147B54B92B6001251A012A
S31508008E0001EB03131D738C5001F0DDFB204638BDC2
S31508008E100133082B02F11002EDD101F0D4FB05480D
S31508008E20F5E70548F3E70548F1E700BFA8880020FD
S31508008E3028870020048000F0028000F0018000F0FE
S31508008E40164B13B51868002301908DF8043001F00D
S31508008E50B4FB134B1C7824B101F0B5FB114802B0E2
S31508008E6010BD01221A7001F0AEFB0F4B1C731C7764
S31508008E7083F82C4083F83C4083F84C4083F85C40E8
S31508008E8083F86C4083F87C4004230DEB03008DF8CF
S31508008E90073001F08BFD2046E1E700BFFC740A08A5
S31508008EA0A8880020038000F0288700202DE9F843D1
S31508008EB0174B1F6D5B6D1F4000D5FEE70126002589
S31508008EC0144CDFF85480DFF85490374217D0C8F8AE
S31508008ED0506023689BB1A168284601316268A16089
S31508008EE09847637B012B0AD148B909EB45131A7BCE
S31508008EF060F341021A731A7F60F341021A7701354B
S31508008F00082D4FEA460604F11004DED1BDE8F883C1
S31508008F10000004502887002000200450A88700205D
S31508008F2070B5044601250B4E04B970BD94FAA4F039
S31508008F30B0FA80F005FA00F306EB001224EA0304FF
S31508008F405368002BF0D0117B11B191689847EBE775
S31508008F509847E9E7AC88002008B5192001F036FBE8
S31508008F6028B14FF00072074BC3F880211A601A2007
S31508008F7001F02CFB28B14FF08062024BC3F8802128
S31508008F801A6008BD00E100E038B505460C4601F058
S31508008F9014FB0022044B03EB05135C601A73BDE84F
S31508008FA0384001F010BB00BFAC880020F8B5054674
S31508008FB00F46164601F001FB104B05F0FC02D3F8EC
S31508008FC024140023EC1804F00304144321FA04FCC7
S31508008FD01CF0010F07D00133042BF3D1FF2401F055
S31508008FE0F2FA2046F8BDFF2CF9D00122044B03EB18
S31508008FF00413C3E901761A73F1E700BF00C00350F2
S31508009000AC880020074BD3F82404D3F8202403F5B2
S315080090100053104000F0553020F05020C3F82004CB
S31508009020FFF77EBF00C00350074BD3F82404D3F8DC
S31508009030202403F50053104000F0AA3020F0A020A9
S31508009040C3F82004FFF76CBF00C00350024B196831
S31508009050024B18689AF0FEBBE4000020E0000020EE
S315080090607047000037B5920004460D4601929DF000
S3150800907077FC431C0BD060B929462046019A9CF020
S31508009080A8FA0028044808BF002003B030BD0348EA
S31508009090FBE70348F9E700BF10E000F021E000F025
S315080090A024E000F013B5044601A801F085FD9DF8FB
S315080090B00630012223804FF4807300206380054B1D
S315080090C09B680A3303F01F0302FA03F3636002B0D6
S315080090D010BD00BF0080E00F01F0AABC08B501F082
S315080090E097FC002008BD10B5044644EA010313F0B6
S315080090F00303084609D1934201D1002010BD54F854
S31508009100231040F823100133F5E7214692009CF01E
S3150800911070FAF2E710B504469DF02AFC431C15D0F8
S31508009120B0B90C4B20469B680A3303F01F02012393
S31508009130934023F003032344984201D1002010BD35
S3150800914050F8042B0132F7D00348F8E70348F6E74E
S315080091500348F4E70080E00F0EE000F021E000F09D
S3150800916024E000F008B501F021FA014B186008BDAB
S31508009170208E0020014B186801F01CBA208E0020B2
S3150800918070470000044BD3F88420D206FBD4D3F8EA
S315080091908400C0F381107047004000502E4B98425F
S315080091A04AD022D82D4B984240D014D82C4B9842FE
S315080091B039D00AD82B4B984232D02B4B98422FD015
S315080091C02A4B98422CD000207047294B9842FAD156
S315080091D0284B186F7047284B98422AD0274B98423D
S315080091E0F1D1244BD3F880007047254B98422BD0F9
S315080091F009D8244B984223D0234B9842E3D11D4BE0
S31508009200D3F88C007047214B984221D003F574039C
S3150800921003F510539842D6D1164BD3F898007047E9
S31508009220144B986D7047134B586E7047114B586F17
S315080092307047104B986F70470E4BD3F884007047F1
S315080092400C4BD3F8880070470A4BD3F89000704748
S31508009250084BD3F8940070470048E8010024F4004E
S31508009260C0CF6A0080841E0000093D0040420F00FE
S31508009270405DC6000080E00FC0EA210180BA8C017B
S31508009280007E560380D54302006CDC020090D003B2
S3150800929038B5174B0546D3F820310C4603F00703BB
S315080092A0013B052B20D8DFE803F0030B130F171B30
S315080092B00EF06EF8052305B1286004B1236038BDA9
S315080092C00EF0A2F80323F6E70EF0BAF80723F2E742
S315080092D00EF0B2F80223EEE70EF05AF80623EAE794
S315080092E00EF092F80423E6E700231846E3E700BFEA
S315080092F00080005038B5174B0546D3F828310C4680
S3150800930003F00703013B052B20D8DFE803F003131E
S315080093101B0F0B170EF03CF8052305B1286004B1A6
S31508009320236038BD0EF034F80623F6E70EF088F809
S315080093300723F2E70EF068F80323EEE70EF064F869
S315080093400423EAE70EF078F80223E6E70023184636
S31508009350E3E700BF0080005073B50D460021114BAE
S315080093600191D3F88041064604F00304022C13D079
S31508009370032C0CD0012C13D101A8FFF789FF102468
S315080093800EB1019B336005B12C6002B070BD0EF0C2
S3150800939057F807240190F3E70EF04EF80190EFE72F
S315080093A00C46EDE700800050002337B50193154BB6
S315080093B00546D3F820320C4603F00703013B032B7E
S315080093C01ED8DFE803F0020E1318002101A8FFF7E4
S315080093D091FF12230DB1019A2A6004B1236003B0EC
S315080093E030BD0EF02DF807230190F3E70EF06AF86A
S315080093F00A230190EEE70EF06BF809230190E9E7DE
S315080094000023E7E70080005038B5104B0546D3F82F
S3150800941040310C4603F00303022B0BD0032B0DD06F
S31508009420012B0FD10EF04EF80A2305B1286004B1BE
S31508009430236038BD0EF04CF80923F6E70EF045F820
S315080094400C23F2E700231846EFE700BF0080005020
S31508009450002337B50193164B0546D3F860320C4600
S3150800946003F00703013B032B1FD8DFE803F0020EC6
S315080094701914002101A8FFF70BFF10230DB1019A5B
S315080094802A6004B1236003B030BD002101A8FFF7AC
S31508009490BBFF1123F2E70DF0D3FF07230190EDE799
S315080094A00DF0CAFF02230190E8E70023E6E700BFB4
S315080094B000800050002337B50193164B0546D3F8B4
S315080094C094320C4603F00703013B032B1FD8DFE851
S315080094D003F0020E1914002101A8FFF7D9FE102384
S315080094E00DB1019A2A6004B1236003B030BD002192
S315080094F001A8FFF789FF1123F2E70DF0A1FF072363
S315080095000190EDE70DF098FF02230190E8E70023AC
S31508009510E6E700BF0080005038B5134B0546D3F880
S3150800952000320C4603F00703013B032B18D8DFE88B
S3150800953003F0020A0E120DF0C5FF0A2305B12860D2
S3150800954004B1236038BD0DF0C3FF0923F6E70DF01B
S31508009550BCFF0C23F2E70DF041FF0F23800AEDE76D
S3150800956000231846EAE700BF0080005038B5134BC1
S315080095700546D3F808320C4603F00703013B032BD4
S3150800958018D8DFE803F0020A0E120DF09BFF0A2333
S3150800959005B1286004B1236038BD0DF099FF092391
S315080095A0F6E70DF092FF0C23F2E70DF017FF0F23F5
S315080095B0800AEDE700231846EAE700BF008000505E
S315080095C038B5104B0546D3F840320C4603F0030372
S315080095D0022B0BD0032B0DD0012B0FD10DF072FFF0
S315080095E00A2305B1286004B1236038BD0DF070FF69
S315080095F00923F6E70DF069FF0C23F2E70023184666
S31508009600EFE700BF0080005038B5104B0546D3F889
S3150800961060310C4603F00303022B0BD0032B0DD04D
S31508009620012B0FD10DF04EFF0A2305B1286004B1B6
S31508009630236038BD0DF04CFF0923F6E70DF045FF12
S315080096400C23F2E700231846EFE700BF008000501E
S3150800965070B5054614460E4600F0A8FF296881EA4B
S31508009660040202EA06044C402C60BDE8704000F093
S31508009670A1BF0000B0F5207F1FD009D8B0F5007F44
S3150800968015D003D868B1B0F5C07F0AD000200CE029
S31508009690B0F5607FFAD10B4BD3F88000C0F3011008
S315080096A003E0084B186FC0F3033001307047054BD1
S315080096B0D3F89000C0F30460F7E7024B186FC0F3C5
S315080096C08020F2E70080005002464FF48030104BAD
S315080096D010B598660020FFF7CDFF504341F671326A
S315080096E00C4BDC69DA635A6804F4803422F44012BD
S315080096F059B9094988428CBF4FF48010002010439D
S3150800970058600CB10022DA6310BD0449F2E700BFC5
S315080097100090005000000350005A6202002D3101EB
S3150800972008B50DF06DFEBDE808400021FFF7CCBF77
S31508009730430905D0012B0DD0022B094B18BF002376
S3150800974000F01F0041B103F58053012202FA00F030
S3150800975018607047034BF3E703F50053F5E700BFBE
S3150800976068800050648000501FB500228028044697
S31508009770019200F0BA8048D8002800F0BA80A0F11B
S3150800978020043D2C54D83D2C52D8DFE814F0B20002
S31508009790BE00B200BE00D700D700D700D700D7005A
S315080097A0BE00E1005B00F70081005B00BE00BE0062
S315080097B0BE005100510051005100510051005100A6
S315080097C05100BE00BE00BE0089000101BE00510066
S315080097D051005100510051005100510051005100F3
S315080097E05100510051005100D700B200B200B2003A
S315080097F0FC005B005B00060198006C00DC00510071
S315080098005100510051005100A900B0F5B06F00F0A9
S315080098109F802DD8B0F5207F77D00CD8B0F5C07FC3
S3150800982067D0B0F5007F67D0B0F5807F00F09580EF
S31508009830019804B010BDB0F5607F6CD00DD8B0F5B6
S31508009840407FF5D10DF0CAFD02464FF42070FFF7B0
S3150800985011FFB2FBF0F0400849E0B0F5806F6DD01B
S31508009860B0F5A06FE4D1002101A8FFF79DFDDFE761
S31508009870B0F5106F00F0878017D8B0F5E06F00F0EC
S3150800988087800AD8B0F5C06F78D0B0F5D06FCFD141
S31508009890002101A8FFF740FECAE7B0F5F06FC7D16F
S315080098A0002101A8FFF7B0FEC2E7B0F5406F4AD025
S315080098B013D8B0F5206F70D0B0F5286FB8D1002155
S315080098C0384B0391D3F8703203F00303012B02D10E
S315080098D003A8FFF799FD039B49E0B0F5486FA7D1A8
S315080098E0002101A8FFF7E6FDA2E70DF05DFD019056
S315080098F09EE70DF073FDFAE70DF056FD0246204689
S31508009900FFF7B8FEB2FBF0F0F1E70DF067FD02468F
S315080099104FF42070F4E7234BD3F8803003F00303A9
S31508009920012B04D0022B06D04FF46070E8E70DF047
S315080099303BFD0246F8E70DF083FDFAE7002101A892
S31508009940FFF7A6FC74E7002101A8FFF7D3FC6FE731
S31508009950002101A8FFF700FD6AE74FF0E023029215
S315080099601B695B0705D50DF039FD0290029B019333
S315080099705EE703A902A8FFF747FDF7E7002101A85C
S31508009980FFF742FD54E7002101A8FFF7EFFD4FE777
S31508009990002101A8FFF714FE4AE7002101A8FFF7F6
S315080099A057FD45E70080005008B58020FFF7DCFE2C
S315080099B0034B98429EBF4FF48032024B1A6708BD8C
S315080099C0005A620200A000501FB50023B0F5807F40
S315080099D0019300F0C38064D85D2855D84C2807D871
S315080099E02D2847D823282BD8019805B05DF804FB05
S315080099F04D381028F8D801A353F820F0539B0008D7
S31508009A00E9990008E9990008E9990008059B000802
S31508009A10E9990008E9990008F19B0008239B0008CA
S31508009A20C99A0008E79B0008E9990008E99900081F
S31508009A30E9990008E9990008E9990008FB9B0008DC
S31508009A4024380928D0D801A353F820F0539B0008DE
S31508009A50539B0008539B0008539B0008539B000820
S31508009A60E9990008499B0008E9990008E59A000861
S31508009A70899B00083D2800F082803E28B4D100204A
S31508009A8001A9FFF79DFDAFE78028ADD1604B1B6F9D
S31508009A9003F00703013B032BA6D8DFE803F0535076
S31508009AA0878FB0F5F06F6AD021D8B0F5B06F4BD07C
S31508009AB00FD8B0F5607F00F0858095D3B0F5806F3C
S31508009AC047D0B0F5A06F8FD1002001A9FFF76CFC35
S31508009AD08AE7B0F5D06F57D0B0F5E06FCFD0B0F5C4
S31508009AE0C06F81D1002001A9FFF78EFC7CE7B0F595
S31508009AF0206F7DD00BD8B0F5086F4AD0B0F5106F3F
S31508009B007FF472AF002001A9FFF730FD6CE7B0F5CE
S31508009B10406F68D0B0F5486F6FD0B0F5286F7FF406
S31508009B2063AF00213A4B0391D3F8703203F0030375
S31508009B30012B67D0022B14BF0B46152300E0052323
S31508009B40019351E70223FBE7002001A9FFF704FC74
S31508009B504AE7002001A9FFF79BFB45E702934FF070
S31508009B60E0231B695B0705D50DF038FC0D2303932D
S31508009B70039BE5E703A902A8FFF746FCF8E70020E0
S31508009B8001A9FFF741FD2FE7002001A9FFF7C4FC53
S31508009B902AE71F4BD3F8003103F00303022B07D043
S31508009BA0032B09D0012B0BD10DF02EFC0323C7E79D
S31508009BB00DF08EFC0923C3E70DF03CFC0823BFE734
S31508009BC00123BDE7124AD2F8802002F00302012AD7
S31508009BD005D0022AB4D10DF033FC0723B0E70DF007
S31508009BE0E3FB0E23ACE7002001A9FFF783FBFBE6A6
S31508009BF0002001A9FFF72CFCF6E6002001A9FFF7D3
S31508009C0059FCF1E603A8FFF7FFFB112398E700BF0D
S31508009C100080005008B5FFF7D7FE092811D00A388A
S31508009C20012811D84FF48002094B4FF6FF705A6687
S31508009C3003F5D8335B6A13F0010F18BF4FF4FA70B7
S31508009C4008BD044B1888FBE74FF6FF70F8E700BF1E
S31508009C50009000500601002038B504468020FFF722
S31508009C60B3FE032800F083804FF48012504B4FF068
S31508009C70A0615A6645F60E034E4AC2F880304E4B2E
S31508009C8099624FF4803103F580539962916D11F40E
S31508009C908031FBD1D4E900031B0543EA0063E07B6E
S31508009CA00343207B43EA0043607B43EA0033A07BFF
S31508009CB043EA801313619069D4E904531B0643EA07
S31508009CC0856300F000400343A07E0343207E43EAF9
S31508009CD00043607E43EA00239361136AE269E57EE6
S31508009CE0002A0CBF0020082023F00F03134343EA81
S31508009CF08503304A03431362E369304D002B37D19D
S31508009D0094F82430916A94F82000DB000D4043EA69
S31508009D10401394F821102B4343EA011343F480338C
S31508009D209362274B916D33EA0101FBD14FF08071A5
S31508009D30214881621369A56823F4700343EA055331
S31508009D4013614FF00043836194F822300BB91D4B21
S31508009D50996294F823301BB94FF48032194B9A62F2
S31508009D6094F825301BB1134B174AC3F8802038BD29
S31508009D70022B08D11161154891614FF408524FF42E
S31508009D807F41FFF765FC0B4994F822308A6A94F8FC
S31508009D9020001B06154043EA401394F824202B4361
S31508009DA043EAC20394F8232043EA02438B62D7E7C7
S31508009DB0009000500040005A0050005AC7FFFEFEAF
S31508009DC0030001000060005AF1A7FFFF3440005A63
S31508009DD0014B93F900007047040100204FF400017D
S31508009DE01B4A437810B551664FF4D151022402F547
S31508009DF0B832516217494F2B4C604FF0010428BF07
S31508009E004F2301F580514C601169C903FCD40178D0
S31508009E1043EA01235361D0E901131B0143EA0123F5
S31508009E20417B0B43017B43EA41039360C37B817B00
S31508009E301B0143EA4113417C0B43017C43EA41037E
S31508009E405360837C13B16FF4D153536210BD00BFC6
S31508009E500090005000100250014B1880704700BF58
S31508009E60060100200029CCBF01210021FFF72CBCE8
S31508009E70B0F5207F10B50C4657D008D8B0F5007F4E
S31508009E8048D003D830B3B0F5C07F23D010BDB0F5A5
S31508009E90607FFBD129492A48D1F8FC2012F080724C
S31508009EA01EBFD1F8FC3023F08073C1F8FC30D0F81F
S31508009EB08030611E23F0300444EA0114C0F8804063
S31508009EC0002AE3D01D4AD2F8FC3043F08073C2F86A
S31508009ED0FC30DBE7FFF724FC00F036F84FF480315E
S31508009EE0184B174A1967136F611E23F4704444EA26
S31508009EF0013414670DF072FA0446FFF743F9C0F10E
S31508009F0002012046FFF7AEFF00F024F8BDE8104036
S31508009F10FFF74ABD0A4A0139D2F8903023F0F854BF
S31508009F2044EA0164C2F89040B0E7054B013C196F5A
S31508009F3021F4806141EA84241C67A7E700ED00E06C
S31508009F40008000500090005002214FF42070FFF767
S31508009F508FBF000008B54FF4C070FFF705FCBDE8D9
S31508009F600840044988428CBF022101214FF4207021
S31508009F70FFF77EBF80F0FA02B0F5807FF8B50C4691
S31508009F8000F04E816BD85D285DD84C2804D82D2862
S31508009F9044D8232828D8F8BD4D381028FBD801A363
S31508009FA053F820F001A20008979F0008979F000821
S31508009FB0979F0008FBA00008979F0008979F000836
S31508009FC0B5A3000833A100088BA0000895A30008D4
S31508009FD0979F0008979F0008979F0008979F00087B
S31508009FE0979F0008D5A3000824380928D3D801A3C9
S31508009FF053F820F001A2000801A2000801A20008F7
S3150800A00001A2000801A20008979F0008E1A1000824
S3150800A010979F0008C1A00008CFA200083D2800F0BD
S3150800A02046813E28B7D1093C032C8CBF0021B04B92
S3150800A030B04A98BF195DD2F8403223F003030B43A8
S3150800A040C2F84032A7E78028A5D18B1E062B00F25E
S3150800A050C480DFE803F0BFADC27EC2C2BC00B0F563
S3150800A060F06F00F024813BD8B0F5B06F00F0B880EF
S3150800A0701BD8B0F5607F00F067818CD3B0F5806F90
S3150800A08000F0BE80B0F5A06F85D1073C0B2C8CBFC5
S3150800A0900021994B974A98BF195DD2F8203223F0D0
S3150800A0A007030B43C2F8203275E7B0F5D06F00F00E
S3150800A0B00E81B0F5E06FB6D0B0F5C06F7FF46BAF28
S3150800A0C0093C032C8CBF00218C4B8A4A98BF195D2A
S3150800A0D0D2F8403123F003030B43C2F840315AE764
S3150800A0E0B0F5206F00F0668117D8B0F5086F00F05C
S3150800A0F01B81B0F5106F7FF44EAF093C062C8CBF60
S3150800A10000217F4B7B4A98BF195DD2F8083223F0AD
S3150800A11007030B43C2F808323DE7B0F5406F00F07D
S3150800A1203981B0F5486F00F05581B0F5286F7FF496
S3150800A13032AF112C00F05E81152C14BF00210221CC
S3150800A1406C4AD2F8703223F003030B43C2F870321C
S3150800A15021E7002502264FF480370121022000F06E
S3150800A16059FAFFF7DDFAFFF7EFFE664B614A1F67FC
S3150800A170136F23F00703334313670DF02FF90646D1
S3150800A180FFF700F8C0F102013046FFF76BFE012128
S3150800A190002000F07FFAFFF7DDFEFFF705FC002D33
S3150800A1A07FF4F9AE032C7FF4F6AE574B9F62F2E6C6
S3150800A1B04FF48012534B0E465A664FF48032534B77
S3150800A1C09D6A03F58053C5F300659A62C3E70025C7
S3150800A1D00426C0E700250126BDE700252E46BAE776
S3150800A1E0023C0E2C8CBF0021494B424A98BF195D90
S3150800A1F0D2F8803123F003030B43C2F88031CAE654
S3150800A200023C052C8CBF0021424B3A4A98BF195D87
S3150800A210D2F8203123F007030B43C2F82031BAE6FF
S3150800A220A1F10904082C3FF6B6AE01A353F824F0B1
S3150800A23055A2000855A20008979F000855A20008D5
S3150800A24083A20008979F0008979F0008979F000819
S3150800A25055A200084FF48032264B2F49586E03F555
S3150800A26080535A664B6A43F001034B62C1035CBFD5
S3150800A2702A4B5A664FF0E022136923F00403136150
S3150800A28089E64FF480321B4B2349586E03F58053F9
S3150800A2905A664B6A23F001034B62C3035CBF1F4B2C
S3150800A2A05A664FF0E022136943F00403E7E7093CD6
S3150800A2B0032C8CBF00211A4B0E4A98BF195DD2F8A1
S3150800A2C0603123F003030B43C2F8603163E6093CAF
S3150800A2D0062C8CBF0021134B064A98BF195DD2F88D
S3150800A2E0003223F007030B43C2F8003253E600BFDF
S3150800A2F039750A080080005054750A0839750A0825
S3150800A3003D750A08009000500060005A0040005A47
S3150800A31024750A0833750A0800C0075000A00050C3
S3150800A32039750A083D750A08CC1E062C8CBF002113
S3150800A330314B324A98BF195DD2F8003123F0030336
S3150800A3400B43C2F8003126E62D49063CD1F8FC201D
S3150800A35012F080721EBFD1F8FC3023F08073C1F86A
S3150800A360FC30082C8CBF0020264B244998BF185D6A
S3150800A370D1F8803023F003030343C1F88030002A64
S3150800A3803FF409AE1E4AD2F8FC3043F08073C2F897
S3150800A390FC3000E6023C052C8CBF00211A4B174AFC
S3150800A3A098BF195DD2F8283123F007030B43C2F88A
S3150800A3B02831F0E5023C0F2C8CBF0021134B0F4AC5
S3150800A3C098BF195DD2F8603223F007030B43C2F831
S3150800A3D06032E0E5023C0F2C8CBF00210C4B074A8B
S3150800A3E098BF195DD2F8943223F007030B43C2F8DD
S3150800A3F09432D0E50121A3E644750A08008000508E
S3150800A40000ED00E04B750A0833750A0860750A08FE
S3150800A41060750A084FF4C02201212DE9F843054664
S3150800A4205C4B5A665C4A03F598335C6851605E6813
S3150800A43016F00206FBD1FEF7A5FE0128286805D10D
S3150800A440564B984202D90020BDE8F883544A0023A7
S3150800A45011461768B84202D35768B84205D901337E
S3150800A460192B02F11002F4D1002301EB0313D3E9EF
S3150800A470029028B1FEF792FE00F07F0049EA000933
S3150800A4808020FFF7A1FA052857D1FFF749F9FFF70A
S3150800A4905BFD4FF480323F4B4FF4C0701A67FFF7ED
S3150800A4A0E9F80128064644D102214FF4C070FFF7A7
S3150800A4B0DFFC01273B49CB6813F00608FBD1886807
S3150800A4C0C1F808908B6809F4F81203F4F8139A4255
S3150800A4D035D1AA88EB88344C43EA0243E3604FF44B
S3150800A4E00860A968FFF748FD2B7D297B002B6B7D4B
S3150800A4F014BF04220022002B18BF4FF040082B6916
S3150800A50043EA4103134343EA0803A36028680CF0AF
S3150800A51045FF4FF0000807221F4B1A610122A3F5D9
S3150800A52080535A60A3F580531C6914F00704FBD0C6
S3150800A5300BE0022801D10421B7E70027BAE714F097
S3150800A54001044FF001088860E5D18020FFF73CFA46
S3150800A550052817D127B131464FF4C070FFF788FC9C
S3150800A5600CF03CFF05460CF013FF0CF011FFFEF74C
S3150800A57009FEC0F102012846FFF774FCFFF7EAFC62
S3150800A580FFF712FAB8F1000F7FF45DAF631E584269
S3150800A590584159E70090005000E00150005A620205
S3150800A5A070750A080000015000C00150EFF31080D2
S3150800A5B072B6704700B962B67047EFF31180302360
S3150800A5C083F31188704780F311887047054B420959
S3150800A5D053F8223000F01F0023FA00F0C04300F0C1
S3150800A5E00100704700E100E0024A536B0342FCD1C8
S3150800A5F0704700BF0040095070470000034A0179C0
S3150800A600D36E23F030030B43D366704700400050E7
S3150800A61070470000F8B504461C4BD3F88420D106D1
S3150800A620FBD4D3F88430C3F381139C422CD00CF0AE
S3150800A630BBFE012C064602D12146FFF713FCFFF7A5
S3150800A640B5FF4FF00072124B07465A662046FFF7D1
S3150800A650DFFF4FF480630D4D621E93402B676B6ED0
S3150800A6609A0103D4D5F884309B060AD53846FFF7F5
S3150800A670A1FF022C08D13046BDE8F8400021FFF7BB
S3150800A680F1BBD5F88430EAE7F8BD00BF00400050BA
S3150800A6900060005007B518B901910CF085FE0199C4
S3150800A6A0064B1B7843B1064B984205D8012003B0E8
S3150800A6B05DF804EBFFF7AEBF0220F8E7D48E002062
S3150800A6C0005A62024FF00042154B10B55A664AF618
S3150800A6D0CD3314494C6C0B6404F0010488B901208D
S3150800A6E0FFF782FF4B68DB0704D50F4B58600B6BEF
S3150800A6F0D807FCD514B10B4B0C4A1A648EF0F0FC43
S3150800A70010BD0B6B1A07FCD42022074B9A62012254
S3150800A710A3F580535A60034A936A9B06FCD5E9E77A
S3150800A7200090005000400950006009503254FFFF65
S3150800A7304FF0004238B5164B01465A664AF6CD33F5
S3150800A740144C154A656C236443780B205B0043F070
S3150800A7500103D363FFF748FF63688A7823F4F87325
S3150800A76043EA02136360CA784B7943EA0223A3607B
S3150800A7700A798B7943EA022323610878FFF7A2FF57
S3150800A780EB0744BF054B23648EF0AAFC012038BDB5
S3150800A7900090005000400950004000503254FFFF1E
S3150800A7A04FF0004270B5124B04465D6E03F58053B8
S3150800A7B05A664AF6CD330F4980204E6C0B64FFF774
S3150800A7C013FF0B6A23F00F030F2C94BF234343F0A8
S3150800A7D00F030B62F30744BF074B0B64002DA2BFA0
S3150800A7E04FF00042054B5A668EF07AFC70BD00BFEA
S3150800A7F000800050004009503254FFFF00A000506E
S3150800A8004FF0004270B5104B04465D6E03F5805359
S3150800A8105A664AF6CD330D4980204E6C0B64FFF715
S3150800A820E3FE0B6A23F4F85343EA04230B62F307A7
S3150800A83044BF074B0B64002DA2BF4FF00042054BE7
S3150800A8405A668EF04DFC70BD0080005000400950DD
S3150800A8503254FFFF00A0005070B5054614460E4658
S3150800A860FFF7A4FE296881EA040202EA06044C40BE
S3150800A8702C60BDE87040FFF79DBE0000072AF7B5BB
S3150800A88001F0030614461F464FF003012CD8950025
S3150800A890A94000FA05F21C480191FFF7DDFF01996E
S3150800A8A01A4806FA05F2FFF7D7FF194B19499DF81A
S3150800A8B02000002F08BF1946012303FA04F40C6090
S3150800A8C0154B1649002808BF0B461C60144B10315F
S3150800A8D0C3F820449DF82400A3F6DC33002808BFFB
S3150800A8E00B461C6003B0F0BDA2F10805AD00A940F7
S3150800A8F000FA05F20B480191FFF7AEFF01990A48E5
S3150800A90006FA05F2CFE700BF00C4035008C4035097
S3150800A91010E4035010D4035014D4035014E4035025
S3150800A92000E0035004C403500CC403502DE9F04161
S3150800A93005460F461E4690464AB101233022194C59
S3150800A9408B4002FB00443EB304F5825423600F217A
S3150800A950072F05EB450388BFA7F108044FEA031341
S3150800A960114895BFBC00A40004330C3308FA04F25E
S3150800A970A1401844FFF770FFB8F1000F0AD1012172
S3150800A9803020084A01FA07F700FB05223EB102F516
S3150800A99082521760BDE8F08104F50154D6E702F546
S3150800A9A00152F6E700C0035030C0035010B501212C
S3150800A9B004462020FEF7BCFE01212120FEF7B8FE42
S3150800A9C00122114B5A60227812069A606178A278A1
S3150800A9D042EA01429A61FF229A6200229A631A6445
S3150800A9E04FF000425A654FF0FF324FF4001103F55D
S3150800A9F000531A65054AC2F88011E3781B01DBB2D9
S3150800AA0082F81533116010BD0000045000E100E023
S3150800AA104FF48032054B9A6641F6713203F51C33C2
S3150800AA20DA63012203F50053DA607047009000509C
S3150800AA3041F671320121064BDA6303F50052D16003
S3150800AA400022DA634FF48032A3F518339A6670470A
S3150800AA5000000350013831289ABF024B185C0020C9
S3150800AA60704700BF00770A08122801D0142804D1BD
S3150800AA70022904D0032908BF01210846704700218E
S3150800AA80FBE70000021E30B54FF000000CBF102592
S3150800AA90042547F60774084952B9831D51F823302F
S3150800AAA0234023B101308542F6D14FF0FF3030BD47
S3150800AAB000F11603F2E700BF0080035010B5C2F399
S3150800AAC00623044602F0070241B942EA03220B4B69
S3150800AAD042F44022063443F8242010BD1846114695
S3150800AAE0FFF7C2FF01461846FFF7B4FF034B41EADA
S3150800AAF00020163443F82400EFE700BF0080035017
S3150800AB000A4392B20021FFF7D9BF3AB122F00302F5
S3150800AB1002F1A04202F5603209B9106070470002DE
S3150800AB20FBE74FF050234FF400321A6770470000D6
S3150800AB30014BD3F89400704700400050436813B99E
S3150800AB40416070475B685A68012AFBD159607047B3
S3150800AB50836813B9816070475B685A68012AFBD11C
S3150800AB6059607047C369032B9FBF00EB830201330B
S3150800AB70D160C3617047C36910B5042B15D84FF06F
S3150800AB809842116CC902FCD504339B00136503680F
S3150800AB904FF098441360436813608368136000237A
S3150800ABA000F10C02C1698B4200D310BD52F8041B98
S3150800ABB001332160F6E700004FF48032064B5A66EF
S3150800ABC003F5E6239B69C3F38512827003F03F02FF
S3150800ABD01B0B4270037070470090005040F6B73266
S3150800ABE0064B5B689BB293429FBF4FF47A72B3FBE6
S3150800ABF0F2F3034AD05C88BF002070470080E00F5C
S3150800AC0032770A08054B9A689107FCD45A68920766
S3150800AC10F9D4DA69002AF6D1704700BF00800A50D5
S3150800AC2008B5FFF7EFFF0122024B03F580514A6092
S3150800AC301A6108BD00800A50074B5A68012A0AD1D2
S3150800AC405A68D20702D5DA69002AF9D102221A61AE
S3150800AC500122024B5A60704700800A5000A00A5031
S3150800AC6010B5064CFFF7CEFF6368012B03D1FFF73B
S3150800AC70E3FFFFF7C7FF0378E36010BD00800A50C3
S3150800AC80E8B94A680B7812B1127843EAC2034A78DF
S3150800AC90002A14BF0222002213438A6812B11278CE
S3150800ACA043EA82138A78002A14BF04220022134337
S3150800ACB0CA6812B1127843EA4223014A936470477C
S3150800ACC000800A5008B9014B5964704700900A5031
S3150800ACD008B9014B5964704700A00A5008B9014BDE
S3150800ACE01964704700A00A5010B9024B186C7047D7
S3150800ACF00020704700800A5048B911B1012903D0D5
S3150800AD007047044BD86C7047024B186D704700208B
S3150800AD10704700BF00800A5040B911B1012903D01D
S3150800AD207047034BDA647047014B1A65704700BFDA
S3150800AD3000800A5038B50446054D8EF028FA0FCC27
S3150800AD400FC594E8030085E80300002038BD00BF5E
S3150800AD50D88E002047F6FF739A42F0B563D00229D1
S3150800AD6063D8334BCF0003EBC10013F83110847856
S3150800AD70012913D10025C3781B1B9D4202D3E01875
S3150800AD80C0B2F0BD591B4668A3EB510136F91160F4
S3150800AD909642D4BF0D4601F1FF33EEE7406800281E
S3150800ADA0EFD0B0F90010914204DBB0F902109142DD
S3150800ADB0B8BF114682883B44FF2A19BFC8222826F5
S3150800ADC0B0F90620B0F90860A2EB01020CBF012514
S3150800ADD0002592FBF6F25F782A447B1E934228BF31
S3150800ADE013464FF47A7E00EBC305AE68EA88AC4694
S3150800ADF011FB02621E4622EAE272013302F5FA727A
S3150800AE009F42B2FBFEF204D9BCF80CC00835944543
S3150800AE10EBD200EBC6008088904228BF1046A042BD
S3150800AE2038BF2046ACE7FF20ABE70020A9E700BF04
S3150800AE30D88E00200229F0B553D82B4800EBC10460
S3150800AE4010F83110636801290FD1E078A478904290
S3150800AE5094BFC4EB0001C4EB0201001BCAB28242D4
S3150800AE60C8BF002233F91200F0BD002B39D0A178F3
S3150800AE70914202D3B3F90200F6E7E178B3F900008C
S3150800AE809142F1D999886478A1F1FF06013C714293
S3150800AE9003F10405E4B2714103F10C071FFA82FCC1
S3150800AEA0CEB2B44216D805EBC1014FF47A756A439F
S3150800AEB0B1F902404968521A04EBD47102EB6102F7
S3150800AEC092FBF4F29042CFDBB3F902009042CBDC5E
S3150800AED010B2C9E737F831E04E1CE645E3D33146F0
S3150800AEE0DEE70248C0E700BFD88E00200080FFFFDB
S3150800AEF00148FFF71FBF00BF708C0A08004870475B
S3150800AF00080100207FB50222084B0949CDE9012333
S3150800AF104FF04073CDE90313052301A94FF0FF3025
S3150800AF2005938EF028FB07B05DF804FB006A18004D
S3150800AF30000304006FF00402502110B50A480B4CB8
S3150800AF4012F0800FD3B21BBF03F00F03043BA31804
S3150800AF501B1802F101020CBF83F8001319764C2A5C
S3150800AF60EED1002010BD00BF00ED00E000E100E0DA
S3150800AF700CF052BB38B500F073FA0446E0B900F09D
S3150800AF8051FB4FF4167343430C4803F5742303F23D
S3150800AF903F23B3FBF0F30A4A0A4913600A220D68F5
S3150800AFA00948013A12F0FF0240F8043BF9D103EBD5
S3150800AFB0C3022B4413440B60204638BD40420F00A1
S3150800AFC02C8F0020F88E0020FC8E0020012208B568
S3150800AFD0034B1A7000F0FFFA024B186008BD00BF59
S3150800AFE0F48E0020288F0020F8B5144C237823B35C
S3150800AFF000F0F1FA124B134D1B68134EC01A0128C4
S3150800B00038BF0120114B124F18602B7856F82320B1
S3150800B01046F82300111A3A680E48521A0A213A606D
S3150800B0200932B2FBF1F20133DBB20260B3FBF1F293
S3150800B03001FB12332B7000232370F8BDF48E002019
S3150800B040288F0020248F0020FC8E0020F08E002000
S3150800B050F88E00202C8F0020BFF34F8F0549064B32
S3150800B060CA6802F4E0621343CB60BFF34F8F00BF98
S3150800B070FDE700BF00ED00E00400FA0508B5FFF79C
S3150800B080EBFF08BD034B1B78002B14BF01200220E1
S3150800B090704700BF3C8F00200329F8B598BF124BB4
S3150800B0A005460E468CBF00245C5C032805D8DFE8FD
S3150800B0B000F002080B0E44F002040C4B1F684FB94F
S3150800B0C0F8BD44F00804F8E744F02004F5E744F036
S3150800B0D08004F2E77B681A68144203D03146284692
S3150800B0E05B6898473F68EAE735770A08388F002093
S3150800B0F000292DE9F34114BF0121FF21254A00F15A
S3150800B100FF30135C0B4413543AD0234E3278012A8D
S3150800B11036D9FFF7B7FF0128044634D81F4FFFF783
S3150800B12045FA3B781BB31E4D2B781BB901222A70B2
S3150800B1301C4A1370DFF8708098F8003033B101901C
S3150800B14000F07EF80023019888F80030FFF732FAFD
S3150800B150012000F099F8FFF729FA2B782BB1019016
S3150800B16000F09CF8002301982B7000233B70FFF732
S3150800B17021FA3078A04203D02146FFF78DFF3470BC
S3150800B18002B0BDE8F081032AF3D10228F1D100F01C
S3150800B190A9F8EEE73C8F0020308F0020368F00207C
S3150800B1A0318F0020358F0020328F002010B50446DD
S3150800B1B0FFF7FCF9002C14BF0121FF21064A13787A
S3150800B1C00B44DBB21370B3FA83F3044A5B091370BA
S3150800B1D0BDE81040FFF7EEB93F8F00203E8F0020F4
S3150800B1E038B541600446FFF7E1F9054621460448AB
S3150800B1F0FDF746FD2846BDE83840FFF7DBB900BF36
S3150800B200388F002010B5094B1B786BB1084C237892
S3150800B21053B100F043F80023064A23701370012344
S3150800B220054A1370054A137010BD00BF308F002001
S3150800B230358F0020368F0020338F0020348F002072
S3150800B24038B50D4B1B7873B10C4C23788BB90C4B66
S3150800B2500C4D9A6D12F4803F06D0DB6D9B0703D523
S3150800B2604FF48033AB6238BDFFF7B0FE4FF480333E
S3150800B270AB6200232370F6E7458F0020448F002039
S3150800B2800040005A0050005A034B1B780BB10CF0D3
S3150800B290E1B90120704700BF458F002008B5FFF7C8
S3150800B2A0ABF9094A0949136F096823F007030B43E9
S3150800B2B01367074B1B781BB14FF48032054B9A6214
S3150800B2C0BDE808400CF08AB800800050408F002086
S3150800B2D0458F00200060005A0122014B1A70704702
S3150800B2E0458F00207047000030B50F4C4161236838
S3150800B2F0ABB92060836011E0891A41619A681D46DE
S3150800B3002AB113465A698A42F6D955B11A461346DE
S3150800B310A860836013B15A69511A596130BD002576
S3150800B320F0E72060F5E700BF5C8F002010B500F05D
S3150800B330B9FA0A4C0A4B19682368C31A01B10BB942
S3150800B340206010BD4A699A423ABF9B1A0022D21A57
S3150800B3504A6128BF00238968F0E700BF488F0020AC
S3150800B3605C8F002038B5134D2B685B6993B1124A80
S3150800B370022014681C4400F0A1FA204600F0A8FA3E
S3150800B38000230E492A680B70D088800709D5012347
S3150800B3900B7038BD022000F091FA022000F0E6FAA0
S3150800B3A0EEE79268002AF4D050690344012BEBD9E2
S3150800B3B0EFE700BF5C8F0020488F0020508F0020E9
S3150800B3C070B516469DF81420C0E903360271049A32
S3150800B3D0BDF8183002600022C380826004460D461C
S3150800B3E000F060FA3044A0613DB9E368656113B1C5
S3150800B3F020462168984796B13546FFF7D7F806469E
S3150800B400FFF794FF29462046FFF76EFF054B1B689A
S3150800B410A34201D1FFF7A6FF3046FFF7CBF800207D
S3150800B42070BD00BF5C8F002000220C490B687BB101
S3150800B43083420AD183687AB1936083681BB15A69DB
S3150800B44041690A445A61002070471A469B68EEE72C
S3150800B4500028EFD0022070470B60EEE75C8F0020D3
S3150800B46070B5FFF7AAF8144E05463478FCB9134BA5
S3150800B4701C60134B1C60134B1C8000F0E1F9012083
S3150800B48000F01CFA00F0A5FA0F4B0246186020B926
S3150800B4902846FFF798F8232070BD234640F2E73187
S3150800B4A00A4899F011FD0A4B1860012333702846A3
S3150800B4B0FFF789F80020EFE7468F00205C8F002011
S3150800B4C0488F0020528F0020588F002018FCFFFF5D
S3150800B4D04C8F00202DE9F0410546F8B1FFF766F8D4
S3150800B4E00F4F0646FFF722FF2846D7F80080FFF7DA
S3150800B4F09BFF044628B13046FFF75CF82046BDE8B6
