S01E0000636869702D65667233322D6C6F636B2D6578616D706C652E73333774
S315080060000000042019CA010817CA01085909080816
S31508006010E1D4000817CA010817CA010817CA0108F7
S3150800602017CA010817CA010817CA0108F116020893
S3150800603017CA01088C000020911602080D83010872
S315080060400D9F000817CA010817CA010817CA0108D0
S3150800605017CA010817CA010817CA010817CA01088A
S3150800606017CA010817CA010817CA0108418E00088D
S3150800607017CA010817CA010817CA010817CA01086A
S3150800608017CA010817CA010817CA010817CA01085A
S3150800609017CA010831A9000817CA010817CA010852
S315080060A017CA0108C9AA0008A1AA000817CA010840
S315080060B017CA010825400D081D4A0D08D5490D08BF
S315080060C0D1490D08F1410D08194A0D08D9490D089D
S315080060D0F1490D08DD490D087D4A0D085D4A0D0890
S315080060E017CA010817CA010817CA010817CA0108FA
S315080060F045CE010817CA010817CA010817CA0108B8
S3150800610017CA010817CA010817CA010817CA0108D9
S3150800611017CA010817CA010817CA010817CA0108C9
S3150800612017CA010817CA010817CA010817CA0108B9
S3150800613017CA010817CA010817CA010817CA0108A9
S3150800614017CA0108E5CF010817CA01089BDF00082E
S31508006150D1270D0817CA010889060D088F060D08EC
S3150800616017CA010817CA010817CA010817CA010879
S3150800617010B5054C237833B9044B13B1044800E035
S3150800618000BF0123237010BD380A0020000000005C
S31508006190F4C40F0808B5034B1BB10349034800E0D4
S315080061A000BF08BD000000003C0A0020F4C40F0828
S315080061B0A3F5803A704700BF174B002B08BF134B57
S315080061C09D46FFF7F5FF00218B460F461348144AF4
S315080061D0121AD2F0C3F80E4B002B00D098470D4B7D
S315080061E0002B00D098470020002104000D000D4820
S315080061F0002802D00C4800E000BFD2F02BF820009F
S31508006200290002F07DFCD1F09BFE00BF00000800CB
S31508006210000000000000000000000420380A0020EA
S31508006220503402200000000000000000012800D0C1
S3150800623070474FF6FF739942FAD1054B012283F84E
S315080062408120002283F8C52083F8C620F0E700BF26
S31508006250340C002010B584B00C4600230093164B6E
S31508006260164A10210A2012F039FD154B186090B114
S31508006270144B0293144B019301230093104B4FF4D4
S3150800628080621249204613F0C3FB114B186050B1C7
S31508006290002004B010BD0F487AF01EFA40F20170D3
S315080062A000F0D6FAE4E70C487AF016FA40F20270E3
S315080062B000F0CEFAECE700BFE40B0020440B002008
S315080062C0340B00207C0A0020FC0C0020FCA80D08DA
S315080062D0380B002060960D0884960D0830B5A7B0D7
S315080062E004460D46002941D02E4B1D602E4B0093C7
S315080062F02346002201212D4814F084FB2C4B1860FC
S3150800630000283AD02B4B0093234601220A212A481B
S3150800631014F078FB294B1860002836D028492948FC
S315080063207AF0DAF900F021FA2749284800F03CFA11
S3150800633078F008FB0368D3F88430984705AB0393D5
S31508006340812304934FF0020103A892F05DFF20BB5E
S315080063501F4C049A0399204603F040FB012211467C
S31508006360204603F0ADFB002027B030BD19487AF06F
S31508006370B3F92F2000F06CFAB6E717487AF0ACF9B3
S3150800638040F2047000F064FABCE714487AF0A4F905
S3150800639040F2047000F05CFAC0E711487AF09CF904
S315080063A0E1E700BF780A002025670008BC960D08BB
S315080063B03C0B0020C1640008E0960D08740A002012
S315080063C008970D0814970D080CCD0D08580A0020DB
S315080063D0340C0020A0960D08C4960D08EC960D08FE
S315080063E034970D0810B52C487AF045FCC0B92B4BEC
S315080063F01B78022B35D02A4B1B680BB1DB7D5BBBA8
S31508006400284B1B78002B37D0274B1B78002B33D013
S31508006410264B1B784BB30121254800F0B1F920E043
S31508006420244C20467DF0DBFB1E4B187020467DF081
S3150800643089FB1D4B187020467DF0E1FB1B4B18703D
S315080064401D487CF0CBFF003818BF01201B4B187085
S3150800645011487AF01AFCCAE7FA221146144800F0E5
S31508006460E1F9134800F0B4F910BD322240F2B63112
S315080064700F4800F0D7F9F4E7104B1B782BB16422CC
S3150800648011460B4800F0CEF9EBE740F2B63232215E
S31508006490074800F0C7F9E4E7C0640120FC1C0020A7
S315080064A0780A0020400B0020540A0020700A0020B9
S315080064B0580A002048AB01203CAB0120410B0020C4
S315080064C008B5FFF78FFF08BD00B583B0002200921C
S315080064D0134603210948006814F0B0FA28B1084B9E
S315080064E000221A7003B05DF804FB06487AF0F4F847
S315080064F040F2067000F0ACF9F1E700BF3C0B002053
S31508006500420B00204C970D0810B582B00446114B7B
S31508006510186814F021FC78B96423009300232246F6
S3150800652004210C48006814F089FA01280AD10A4B9C
S3150800653001221A7002B010BD08487AF0CDF8FFF7AC
S31508006540C3FFE9E706487AF0C7F840F2057000F09D
S315080065507FF9ECE73C0B0020420B002064970D08FE
S3150800656080970D080388012B2BD110B5154B1B7886
S315080065701BB1154A1278012A05D01BB1124B1B789C
S31508006580022B17D010BD40F6B83110487AF0A4F89F
S3150800659040F6B830FFF7B8FF0B4B02221A700C4CC6
S315080065A00021204600F0ECF84FF4FA71204600F07E
S315080065B03FF9E7E7044B00221A70064894F062F99F
S315080065C0E0E77047420B0020FC1C00209C970D0852
S315080065D0580A002040DD012010B50379012B0CD0A4
S315080065E01F4B1B781BB11F4A1278012A15D01BB105
S315080065F01C4B1B78022B2AD010BD194B1B78002B7D
S31508006600FAD1184B1B78002BF6D140F6B830FFF7B5
S315080066107BFF144B01221A70EEE7FFF755FF114B6B
S3150800662000221A70104803F060FA10487DF0D7FA75
S3150800663048B90F4C012120467CF0B8FE00212046BF
S315080066407CF0BCFED8E70B487AF046F8D4E7FFF7AB
S315080066503BFF044B00221A7007487AF03DF8CBE757
S31508006660420B0020FC1C0020340C002048AB012003
S315080066703CAB0120DC970D081C980D0810B582B0BC
S315080066800B4B1C6813F0AEFA024600230093012157
S31508006690204614F0D3F9012801D102B010BD0548EF
S315080066A07AF01AF840F2057000F0D2F8F5E700BF64
S315080066B0740A00203C980D0800487047340C0020E6
S315080066C010B582B0144B1B6813B304461AF08CFF3E
S315080066D080B10023019301AA21460F48006812F0F1
S315080066E0D5FC019B6BB14FF0E0234FF08052C3F805
S315080066F0042D06E00023012221460748006812F00F
S31508006700CDFB08B102B010BD044879F0E5FFF9E702
S31508006710034879F0E1FFF5E7340B002054980D089B
S3150800672084980D0800B585B00123ADF800300190B6
S31508006730034B03936846FFF7C3FF05B05DF804FBF8
S315080067406565000808B5CB6813B10846984708BDC3
S31508006750014879F0C1FFFAE7AC980D0808B54FF67D
S31508006760FF710120FFF762FD08BD08B514F0A0FB14
S3150800677008BD006918B108B503F0E4FE08BD704706
S3150800678008B50023C360836000220023C0E9002304
S31508006790006910B111B103F0CBFE08BD03F0CDFEC0
S315080067A0FBE700000000000008B59FED077B80EDC1
S315080067B0007B00228260C26001611146FFF7E0FF9C
S315080067C008BD00BFAFF30080000000000000000015
S315080067D0836823B370B582B00446C368ABB1104B67
S315080067E019680B68DB6868469847009E019D206912
S315080067F003F0ADFE58B1A168236862685B1842F1E0
S315080068000002B34272EB050303D302B070BDE16820
S31508006810F2E72046FFF7ADFF26606560F5E77047AB
S31508006820F402002008B58160C260FFF7D1FF08BDF9
S3150800683008B50A46FFF7F6FF08BD000008B5014689
S31508006840024879F049FF1AF00DFFFEE7DC980D08BB
S3150800685008B5FFF7F3FF0000124A12F0070F1ED023
S31508006860D11D21F00701C1F5A04313440A460E487D
S315080068700260002141601344083B23F007030B48DC
S31508006880036059601960991A51601360084B1960C2
S31508006890084B1960084B4FF000421A6070474FF4D6
S315080068A0A043E4E7041D0020186D0020001D002009
S315080068B00C6D0020086D0020046D002010B500B393
S315080068C0044613F087F954F8043C0F4A1268134239
S315080068D009D054F8081C69B11AF0C4FE0B490C48D3
S315080068E0D2F034F8FEE71AF0BDFE0A490848D2F09D
S315080068F02DF8FEE723EA0203A3F1080413F01CFAB5
S3150800690000E00024204610BD046D002058990D08AB
S315080069103C990D080C990D08014B1868704700BF83
S31508006920086D0020014B1868704700BF0C6D0020E9
S3150800693008B51AF0A3FD034B1A68034B1A601AF040
S31508006940ABFD08BD086D00200C6D0020F8B50746A4
S3150800695013F040F9174B1B6893B14FF0FF3600252B
S315080069602C4604E01B68144A12689A420CD001347B
S315080069705A68AA4200D91546B242F3D21646F1E73A
S315080069804FF0FF3600252C4613F0D6F97D60BE6021
S31508006990FC601AF073FD094B1B683B60084B1B68CB
S315080069A07B61084B1B68BB61074B1B683B611AF090
S315080069B073FDF8BD186D0020001D0020086D00202D
S315080069C0106D0020146D00200C6D002010B588B0E5
S315080069D00446164B1B6893B1144B1A461B68A34210
S315080069E0FBD351685018A0420DD0616860188342E5
S315080069F00ED02360944200D0146008B010BD01A8E0
S31508006A00FFF7A4FFE8E76068014451601446ECE725
S31508006A1007480068834206D05B68194461601368BA
S31508006A201B682360E6E72060E4E700BF186D0020D6
S31508006A30001D002038B5044613F0CCF83E4B1B6801
S31508006A40EBB13E4B1B681C421CD1631E13F10A0FA7
S31508006A500BD804F1080214F0070F05D022F007033B
S31508006A60083393425AD91A4682B913F065F90025B4
S31508006A707AF0A4FA15F0070F56D1284638BDFFF765
S31508006A80EBFEDEE713F058F90025F1E72C4B1B68FF
S31508006A90934202D32B490C6805E013F04DF9002503
S31508006AA0E6E721461C466368934202D22368002B18
S31508006AB0F7D1214B1B68A34212D00D68083523680D
S31508006AC00B6063689B1A102B12D9A01810F0070FD9
S31508006AD00AD01AF0C7FD1C491C48D1F037FFFEE75B
S31508006AE013F02AF90025C3E743606260FFF76EFFDB
S31508006AF0626813490B689B1A0B60154909688B4233
S31508006B0001D213490B600D4B1B68134363600023C6
S31508006B102360104A13680133136000E0002513F060
S31508006B200BF9002DA6D1A3E71AF09CFD0A490748E0
S31508006B30D1F00CFFFEE700BF001D0020046D002009
S31508006B40086D0020186D002078990D083C990D08ED
S31508006B500C6D0020106D0020B4990D0838B501FBA6
S31508006B6000F419B1B4FBF1F181420AD12046FFF7CE
S31508006B7061FF054618B122460021D1F0EFFB2846F1
S31508006B8038BD0025FBE7000080B338B50446A0F100
S31508006B90080550F8043C164A1268134209D050F802
S31508006BA0081C69B11AF05EFD12491348D1F0CEFEF1
S31508006BB0FEE71AF057FD11490F48D1F0C7FEFEE768
S31508006BC023EA020340F8043C13F004F854F8041CC2
S31508006BD00B4A13680B4413602846FFF7F7FE094A69
S31508006BE013680133136013F0A7F838BD704700BF68
S31508006BF0046D002058990D083C990D080C990D084C
S31508006C00086D0020146D0020F8B505460C46FFF700
S31508006C1055FED8B10746A4B1A04201D12E461AE0C6
S31508006C2021460120FFF79AFF0646A0B13A46A74239
S31508006C3028BF22462946D1F06AFB2846FFF7A4FF5B
S31508006C4009E02846FFF7A0FF002604E021460120B8
S31508006C50FFF784FF06463046F8BD08B5FFF7EAFE9B
S31508006C6008BD08B5FFF790FF08BD08B5FFF7CCFFCC
S31508006C7008BD08B50846FFF7F0FF08BD08B5084681
S31508006C80FFF7EFFF08BD08B508461146FFF7EDFF09
S31508006C9008BD08B507F0A4F910F01EFA79F010FD42
S31508006CA037F00EFB35F03CFB08BD10B582B000226C
S31508006CB0ADF8062003689C680DF10603A04719285D
S31508006CC002D020B1002000E0012002B010BD012052
S31508006CD0FBE7052B01D8002070472F2070470000DE
S31508006CE0014B0360704700BF509C0D08024A0260C2
S31508006CF0024A0260704700BF749C0D08509C0D083C
S31508006D00024A0260024A0260704700BF609C0D0892
S31508006D10549B0D08024A0260024A0260704700BF8F
S31508006D20309C0D08689B0D08034A0260034A0260FE
S31508006D30034A0260704700BFF8230F0844230F0870
S31508006D40FC9B0D08024A0260024A0260704700BFB7
S31508006D5020270F081C9C0D0808B502487CF088FE01
S31508006D6008BD00BF98B9012008B502487CF087FE27
S31508006D7008BD00BF98B9012008B502F0F9FB08BDA7
S31508006D80038848F20102934204D048F20202934271
S31508006D9012D0704790F90820012AF6D110B5094893
S31508006DA079F09AFC4BF0E6F803685C690023064A1A
S31508006DB040F6B831A04710BD90F90930012BE8D14B
S31508006DC0ECE700BFF4990D08796D0008012800D09A
S31508006DD0704708B54FF6FF73994200D008BD0948B9
S31508006DE0094B0360094B0360002343608360C3605B
S31508006DF00374436103764376054A0649D0F06DF974
S31508006E00ECE700BFDC6F0020C49B0D0860E30E08AA
S31508006E10000000203D2A080810B50446034B03600D
S31508006E203821D0F05FF9204610BD00BF509C0D08F0
S31508006E3010B50446044B0360044B03603821D0F0B8
S31508006E4051F9204610BD00BF749C0D08509C0D08D2
S31508006E5010B50446044B0360044B03600421D0F0CC
S31508006E6041F9204610BD00BF609C0D08549B0D08D3
S31508006E7010B50446044B0360044B03600821D0F0A8
S31508006E8031F9204610BD00BF309C0D08689B0D08DF
S31508006E9008B5104B0360D0F8F4317BB9D0F8483107
S31508006EA073B9D0F804316BB9D0F8983063B9436D2B
S31508006EB063B9036963B9084B036008BDD1F00CF8E0
S31508006EC0D1F00AF8D1F008F8D1F006F8D1F004F8B4
S31508006ED0D1F002F848160F08D89A0D0838B50446B6
S31508006EE00C4B036043688BB1437C4BB9C5683DB115
S31508006EF035B12B681B6828469847284677F0B2FDB7
S31508006F000023E3606374237423726360024B236077
S31508006F10204638BDA8A60E08C49B0D08406818B1BF
S31508006F2008B579F071FB08BD03207047406858B171
S31508006F3000B583B04FF0000C8DF807C032B179F078
S31508006F4035FB03B05DF804FB032070470BB12F2017
S31508006F50F7E70DF10702F2E770B582B00446A54BD4
S31508006F60D3E88F3F13F0010F3FD0A34BD3E88F3FF1
S31508006F7013F0010F47D0A14BD3E88F3F13F0010F51
S31508006F804FD09F4BD3E88F3F13F0010F67D09D4B2F
S31508006F90D3E88F3F13F0010F00F0CF809A4BD3E868
S31508006FA08F3F13F0010F00F0DC80984BD3E88F3F3A
S31508006FB013F0010F00F0EB802369002B00F0F68038
S31508006FC0236B002B00F0F780636B002B00F0068123
S31508006FD08F4D216928468AF0B9F9284689F0E8F9DB
S31508006FE0002800F0598102B070BD8248D0F07CF8C4
S31508006FF00028BAD07F48D0F083F8864A8649874861
S31508007000D0F06BF8B1E77C48D0F06EF80028B2D023
S315080070107948D0F075F87F4A81498248D0F05DF802
S31508007020A9E77648D0F060F80028AAD07E4D7F4BB5
S315080070302B607F4B2B6000236B602B72EB602B6100
S315080070406B61AB61EB612B6285F824306B48D0F03D
S3150800705057F8704A77492846D0F03FF891E76848CC
S31508007060D0F042F8002892D06948734B0360032396
S3150800707083800223C38000258560704A0260C5604C
S315080070801422009200F1280200F12C01103048F079
S31508007090A9FC2B46002B01DB013BFBE7684A1423BE
S315080070A000930223111DA2F1180048F09BFC00234F
S315080070B0002B01DB013BFBE7624A282300930223EE
S315080070C0111DA2F1180048F08DFC0023002B01DBEE
S315080070D0013BFBE75C4A142300930223111DA2F12E
S315080070E0180048F07FFC0023002B01DB013BFBE77F
S315080070F0564A482300930223111DA2F1180048F0AE
S3150800710071FC0023002B01DB013BFBE7504A2C23D3
S3150800711000930223111DA2F1180048F063FC002316
S31508007120002B01DB013BFBE73548CFF0E9FF394A85
S3150800713048493748CFF0D1FF29E73248CFF0D4FF86
S3150800714000283FF42BAF444D444B2B60444B2B6037
S315080071502C48CFF0D5FF2F4A42492846CFF0BDFF2D
S315080071601CE72948CFF0C0FF00283FF41EAF3E4D6C
S315080071703E4B2B603E4B2B603E4B2B602248CFF09C
S31508007180BFFF244A3C492846CFF0A7FF0DE71F4812
S31508007190CFF0AAFF00283FF40FAF1C48CFF0B0FF8E
S315080071A01C4A36493648CFF098FF05E71B4B354A47
S315080071B05A60236104E722691A4B5B6833B10320DE
S315080071C000287FF410AF174B2363FDE6154B00200C
S315080071D0187258745A60D8601874F1E72569124B0A
S315080071E05B68002B50D0032000287FF4FCAE0E4BC2
S315080071F06363EDE6D46F0020D06F0020A46F0020F3
S31508007200386D0020306D0020246D0020206D002090
S315080072103C6D002000000020156D00081C000020B1
S31508007220DD6E000808000020A86F0020889B0D0866
S3150800723058190F08DD720008D89A0D0848160F0865
S31508007240A86D0020EC6D0020586E00209C6E002072
S31508007250486F0020916E0008346D0020549B0D087D
S31508007260609C0D08016D0008286D0020FC9B0D0828
S3150800727044230F08F8230F08296D0008456D0008F8
S3150800728004000020B46401200F4E33689B6A304620
S31508007290984775600020A7E70C4BE361236983B123
S315080072A00B4A5360002000287FF49DAE084B6361AB
S315080072B04FF03CFD2062074B6362074BA361002039
S315080072C091E62F20EFE700BFA86F00203C6D002055
S315080072D0286D002004000020346D002010B50446F7
S315080072E0124B0360436823B1104B9B6A98470023EF
S315080072F0636000222262E06918B177F0B3FB0023CD
S31508007300E3610022A261606918B177F0ABFB002344
S31508007310636100222261E06818B177F0A3FB0023BD
S31508007320E360034B2360204610BD00BF58190F08C1
S31508007330889B0D0810B5134B0360D0F8F431ABB930
S315080073400446D0F848319BB9D0F8043193B9D0F83F
S3150800735098308BB9436D8BB903698BB90A4B0360B7
S315080073604FF41A71CFF0BEFE204610BDD0F0B4FD22
S31508007370D0F0B2FDD0F0B0FDD0F0AEFDD0F0ACFD4F
S31508007380D0F0AAFD48160F08D89A0D0810B504467D
S31508007390144B0360436823B1124B9B6A984700233A
S315080073A0636000222262E06918B177F05BFB002374
S315080073B0E3610022A261606918B177F053FB0023EC
S315080073C0636100222261E06818B177F04BFB002365
S315080073D0E360054B236028212046CFF083FE204634
S315080073E010BD00BF58190F08889B0D0838B504460C
S315080073F00E4B036043688BB1437C4BB9C5683DB1FE
S3150800740035B12B681B6828469847284677F02AFB2B
S315080074100023E3606374237423726360044B236060
S3150800742014212046CFF05EFE204638BDA8A60E08D9
S31508007430C49B0D0808B50A4879F04EF909487DF04D
S31508007440C1FB00B108BD012106487CF0F9FC002803
S31508007450F8D1054879F040F904487CF0E7FAF1E7F5
S315080074601C9A0D0848AB01203C9A0D0898B90120D2
S3150800747030B585B004463B493B480CF069F83B4DAE
S31508007480284679F029F92146394879F025F9284618
S3150800749079F022F9374879F01FF90021084648F0B3
S315080074A023FA08B105B030BD334B1B78002B41D009
S315080074B000200028F6D1214630487BF087FFFFF7E9
S315080074C0B9FF0028EED12E4879F0CEFB2D4BD3E834
S315080074D08F3F13F0010F36D02B4C20467BF06EFB06
S315080074E02A4D2C632846FFF737FD002401940294A1
S315080074F00394274B0193274B029327487CF0FAFA0B
S31508007500039001ABAB622946244893F053FA1C4D0D
S31508007510284679F0BAFB22462149284679F0CEFA60
S31508007520204879F0D9F8284679F05EFC0028B9D1C8
S315080075300020B7E7104D284679F0AEFCB0FA80F384
S315080075405B092B70B5E70F48CFF0CEFD0028C3D0F6
S315080075500C48CFF0D5FD144A14490C48CFF0BDFDB0
S31508007560BAE700BF45F904083DF90408589A0D081A
S315080075708C9A0D08989A0D08B86401203CAB012036
S31508007580C0640120D86F0020DC6F00202400002092
S31508007590596D0008696D000848AB012040DD0120DF
S315080075A0816D0008A89A0D0800000020ED6C0008FF
S315080075B008B578F091FD08BDB0F5803F2CBF0020D6
S315080075C0012070474068E0B170B584B01D460023BD
S315080075D08DF80F30BAB100230293019302AB0093E2
S315080075E02B8878F0C5FF0446192800D030B9029ECA
S315080075F03046FFF7E1FF68B900262E80204604B022
S3150800760070BD032070472B880BB12F20F7E70DF1CB
S315080076100F02E0E7B6B2F0E710B50446054B036083
S31508007620054B0360054B03600821CFF05BFD204640
S3150800763010BD00BFF8230F0844230F08FC9B0D0854
S3150800764010B50446044B0360044B03600421CFF0D5
S3150800765049FD204610BD00BF20270F081C9C0D08B9
S3150800766008B54FF6FF710120FFF7B0FB08BD000013
S31508007670024A0260024A0260704700BFB4A00D08C1
S31508007680A0A00D0808B5034A02211D2048F0A2FA59
S3150800769008BD00BF809C0D0808B5034A02211D20BD
S315080076A048F098FA08BD00BF909C0D0808B5044A32
S315080076B002211D2048F08EFA024BFF221A7008BDDF
S315080076C0A09C0D085C00002008B528B1012807D049
S315080076D00A4B5B7943B908BD094878F0FDFFF7E71F
S315080076E0084878F0F9FFF3E700220749074879F0D8
S315080076F0EFFA024B00225A71EDE700BF2C7000200A
S31508007700BC9C0D08DC9C0D080D780008C06401209F
S3150800771010B5002214460388022B04D033B140F278
S3150800772003746CB110BD02798168FAE7094800F064
S31508007730D2FB10B100210A46F3E700210122F0E747
S31508007740044800F015FC0028ECD1034878F0C4FF83
S31508007750E8E700BF34700020009D0D0801B300B5AE
S3150800776085B00846002300930193029303938DF88E
S3150800777004200C4B994205D00B4B98420AD005B011
S315080077805DF804FB012AF7D1084B03936846FEF718
S3150800779097FFF4E7064B03936846FEF791FFEEE77B
S315080077A0704700BFF4CC0D08DCCC0D081177000833
S315080077B0D965000870B50D46012804D915B90E4BD0
S315080077C001225A7170BD044600280CBF0126002606
S315080077D00FD10A490A4878F07FFF211E18BF0121F8
S315080077E00848FEF7CDFFFEF767FF314602F0EAF8D4
S315080077F0E4E70549EEE700BF2C700020FCA80D0859
S31508007800349D0D08F86F00202C9D0D0810B50A4808
S3150800781000F061FB48B1022420F0F8FE002322465E
S31508007820012124F052FB10B110BD0124F4E7012117
S31508007830024878F051FFF7E734700020549D0D0890
S3150800784010B50446044B0360044B03600821CFF0CF
S3150800785049FC204610BD00BFB4A00D08A0A00D0825
S31508007860012800D070474FF6FF739942FAD130B518
S3150800787085B00F4D0023039302930E4B0193022309
S3150800788000930D4B0D4A0121284628F071FD0C4C3A
S3150800789022460C492846CFF020FC0B480B4B0360C8
S315080078A00B4B036022460B49CFF017FC05B030BDE1
S315080078B010700020D97800089976000885760008A7
S315080078C000000020AD0303082C700020A0A00D08BE
S315080078D0B4A00D087176000870B50446037D224AE7
S315080078E013700B2B10D0204B1B78FE2B23D015D8EA
S315080078F0022B32D84AF03EFB03685D6923461B4AD1
S3150800790041F28831A84770BD837D194A02211D209E
S3150800791048F060F9A27D144B1A70E4E7FF2B1CD1DE
S315080079204AF028FB03689B692246104998470E4B84
S31508007930FF221A70E7E74AF01DFB03689B690B4DA7
S315080079402246294698474AF015FB03685E6923468E
S315080079502A464FF47A71B047D5E7064A02211D2018
S3150800796048F038F9CFE700BF5C000020AD76000884
S31508007970709D0D08C49D0D0810B588B00446FEF725
S315080079809BFE0122764901F0B5FF76492046FEF7AF
S31508007990A5FC002840F0A18000248DF80840724814
S315080079A079F062F902A901201DF014FE8DF807404E
S315080079B020F02CFE0DF10702012122F02DF80028F7
S315080079C000F093800023ADF8043020F01FFE01AAD2
S315080079D0012121F0CFF9002800F0918000238DF8CD
S315080079E0033020F013FE0DF10302012121F066FF9A
S315080079F0002800F08E8000238DF8023020F006FE65
S31508007A000DF10202012121F09BFF002800F08B8076
S31508007A1000238DF8013020F0F9FD0DF10102012156
S31508007A2022F046F9002800F088804F4879F02DF9B1
S31508007A309DF808308DF80C301BB19DF809308DF88B
S31508007A400D3004AB00220492ADF81420BDF80420D2
S31508007A50ADF810209DF807208DF812209DF8032018
S31508007A608DF813209DF802208DF814209DF801202A
S31508007A708DF8152093E803000690ADF81C1008ABA6
S31508007A8013E90C0003A9394800F01CF9044600283C
S31508007A905DD1374A3749354800F01AFA364937482A
S31508007AA0FEF782FE9DF80830002B57D09DF8091086
S31508007AB0022914BF002101213048FEF761FE002289
S31508007AC02F49294879F004F976F03CFF0368D3F882
S31508007AD084309847204608B010BD0446294878F0F7
S31508007AE0FBFD2046FEF7B4FE56E70123264A194653
S31508007AF01D2048F06FF805238DF8073062E701234B
S31508007B00224A19461D2048F065F80A23ADF80430C4
S31508007B1064E701231E4A19461D2048F05BF80A232C
S31508007B208DF8033067E701231A4A19461D2048F0E5
S31508007B3051F80A238DF802306AE70123164A1946D6
S31508007B401D2048F047F80A238DF801306DE71348E1
S31508007B5078F0C2FD2046FEF77BFE9AE7D0F0BCF926
S31508007B60DC9D0D0810700020C064012034700020D0
S31508007B70C9760008B577000824CD0D08F86F0020EF
S31508007B800D780008E89D0D08089E0D08809E0D08D2
S31508007B90EC9E0D08649F0D08DC9F0D0854A00D0887
S31508007BA030B585B004681248FFF7E6FEC0B9FEF79F
S31508007BB065FD104878F090FD0F4800F01DF90A227F
S31508007BC06946204611F030FB0128F8D16946084875
S31508007BD0FEF7B8FD00226946204611F025FBF3E7BB
S31508007BE00546064878F078FD2846FEF731FEDEE7BA
S31508007BF02C70002084A00D08347000206CA00D089D
S31508007C0008B50249FEF726FB08BD00BFA17B0008A0
S31508007C1008B54FF6FF710120FFF722FE08BD08B52B
S31508007C204368987828B901229A709B6803B19847E7
S31508007C3008BD0228FCD103229A700120F5E700004E
S31508007C40012800D070474FF6FF739942FAD10921EF
S31508007C50104B06E000221A605A609A60DA601C33FC
S31508007C6001390029F6DA63220B4B04E0002159603A
S31508007C7099601033013A002AF8DA084B0022A3F873
S31508007C80202483F8222483F8232483F8242483F8E1
S31508007C902524D7E740700020587100203480002042
S31508007CA000B585B013F074F80123ADF800300190E3
S31508007CB0034B03936846FEF703FD05B05DF804FB26
S31508007CC01F7C000830B585B004460D4602A880E83A
S31508007CD00C0004F5805C04F5A15303C843F8042B93
S31508007CE01980BCF820340A2B1ED804F5805393F863
S31508007CF022340A2B20D804F5805393F823340A2B10
S31508007D0021D804F5805393F824340A2B22D804F595
S31508007D10805393F825340A2B23D90A21204878F072
S31508007D20DBFC40F2077005E00A211E4878F0D4FC17
S31508007D3040F2077005B030BD0A211B4878F0CCFC2C
S31508007D4040F20770F6E70A21154878F0C5FC40F2BC
S31508007D500770EFE70A21124878F0BEFC40F2077078
S31508007D60E8E7124B0093234600220121104812F03F
S31508007D7049FE104B186040B12B7863B16B78022B23
S31508007D800BD00123A3700020D4E70B4878F0A4FC9D
S31508007D9040F20470CEE7D0F09FF80323A370F2E711
S31508007DA0A4A10D08C0A00D082CA10D08A17C0008EF
S31508007DB018A20D085C84002020A20D0809298CBF92
S31508007DC000200120704722B109298CBF002001201C
S31508007DD07047B1FA81F04009704709298CBF002025
S31508007DE00120704709298CBF002001207047092906
S31508007DF08CBF00200120704730B583B0044601AB24
S31508007E004FF48C7200F10C01294878F023F801AB85
S31508007E104FF4C86204F59271264878F01BF801AB56
S31508007E20642204F60C71244878F014F801AB4FF478
S31508007E30487204F57761214878F00CF804F5805506
S31508007E40B5F8202495F8223403FB02F201AB920020
S31508007E5004F5945110311A4877F0FCFF95F823245D
S31508007E60B5F8203403FB02F201AB02EB820204F2FE
S31508007E706471144877F0EEFF95F82424B5F8203499
S31508007E8003FB02F201ABD20004F6BC110E4877F0F0
S31508007E90E1FF95F8252402EB420201AB920004F6B5
S31508007EA06C610A4877F0D6FF012003B030BD00BFE9
S31508007EB01073080011730800127308001373080082
S31508007EC01473080015730800167308001773080062
S31508007ED04160826070478078032814BF0020012023
S31508007EE07047000000B583B00022009213460321B4
S31508007EF00748006812F0A2FD10B103B05DF804FB54
S31508007F00044878F0E9FB40F20670FEF7A1FCF4E7B6
S31508007F105C84002040A20D0830B583B005460C46A7
S31508007F20104B186812F018FF60B9642300930023F9
S31508007F30224604210B48006812F080FD012808D16A
S31508007F4003B030BD084878F0C7FB2846FFF7CAFFDC
S31508007F50EBE7064878F0C0FB40F20570FEF778FCC0
S31508007F60EEE700BF5C84002064970D085CA20D084C
S31508007F70F8B504460E4615468378012B03D0032B25
S31508007F8005D00020F8BD012AF9D1022701E065B91C
S31508007F902F460A212046FFF7BFFFA770636833B153
S31508007FA03146284698470120ECE70020EAE70120F9
S31508007FB0E8E700002DE9F0418CB0002A6AD00746B0
S31508007FC00E461D4602F1FF3C1FFA8CF42146FFF7C8
S31508007FD0F5FE804600285FD000943346304A0221D9
S31508007FE01D2047F0F7FDC4EBC40307EB830393F8A2
S31508007FF020302B75002B46D0C4EBC40307EB830354
S31508008000D9681A690891099208AA92E8030085E8CE
S31508008010030004EB840141F2902202EBC1023A44C8
S3150800802099690A920B9105F108020CA911E9030056
S3150800803082E80300DA692A6193F82110697593F8D2
S3150800804022C085F816C00120E87593F824302B76EF
S315080080506876C4EBC40407EB840090F82600A8767B
S315080080606F682C68ED6807900693CDF814C00491E4
S31508008070039202950194009733460A4A03211D206C
S3150800808047F0A8FD08E03346074A03211D2047F0BC
S31508008090A1FD01E04FF0000840460CB0BDE8F081B4
S315080080A07CA20D08E0A20D08BCA20D082DE9F04F30
S315080080B09BB005460C91144618460D939DF890B052
S315080080C0259F9DF89CA09DF8A0909DF8A4802B9EC6
S315080080D03B6809962A9A0892CDF81C80CDF8189024
S315080080E0CDF814A0269A04920393CDF808B001900F
S315080080F000940B46624A02211D2047F06BFD002CB6
S3150800810000F0B780013CA4B221462846FFF756FE88
S315080081100B90002800F0AF807B680A2B46D805F53F
S31508008120805393F82234B3424AD304EB84035B00AA
S3150800813003F608732B4410AA97E8030082E80300A5
S315080081400DF1480C8CE8030004330E9310D0092374
S315080081501993189108293ED919AB1B680F931A462B
S3150800816012990E98D0F0D3F800230E990F9A8B54D3
S315080081707B680E9A14921593C4EBC40305EB83032C
S3150800818003F10C0214A903C982E80300269ADA61EE
S3150800819083F820A083F8219083F8228083F826B0FC
S315080081A00D9A83F8242000222A9F28E000940C9B2D
S315080081B0344A01211D2047F00DFD00230B935AE098
S315080081C0019600940C9B304A01211D2047F002FDC0
S315080081D000230B934FE018ABBFE704EB840302EBD5
S315080081E0430303F2A44305EB830157F8220045F83D
S315080081F02300012005F8230013184B801A46B242C3
S31508008200EBD304EB840341F2902707EBC3032B441B
S3150800821016931796C4EBC40305EB8303143316AA07
S3150800822092E8030083E8030005F58056B6F8202493
S31508008230C2EBC202920005F10C01144877F016FF52
S31508008240B6F8202496F8223403FB02F29200E919C4
S315080082500F4877F00BFF642205F60C710D4877F08E
S3150800826005FF00940C9B0C4A02211D2047F0B2FC26
S3150800827001E000230B930B981BB0BDE8F08F00BFFD
S3150800828068A30D0828A40D0868A40D081073080033
S315080082901473080012730800CCA40D08F0B583B057
S315080082A005461446089E1F46002B3CD11A46214611
S315080082B0FFF789FD034698B300943B46224A0221FC
S315080082C01D2047F087FC04F1120305EB03131B7905
S315080082D0337000941D4A03211D2047F07BFC337838
S315080082E05BB304F1120205EB02125379737008327C
S315080082F0371D92E8030087E8030005EB041494F899
S315080083003121727394F83321F27301243473B473F0
S31508008310B26800920E4A03211D2047F05BFC2346F3
S31508008320184603B0F0BD541EA4B21A462146FFF7FC
S315080083304AFD03460028BFD1F2E7064A03211D205D
S3150800834047F048FC0123EBE700A50D0850A50D08EA
S315080083509CA50D087CA50D082DE9F04F87B00546AC
S31508008360144698469DF840A09DF844B09DF848707C
S31508008370DDF84C90002F52D13A462146FFF723FDEF
S315080083800346002847D0D9F80430CDF80CA0CDF81C
S315080083900880019300975B46264A02211D2047F074
S315080083A019FC04F1120605EB061686F804B0777177
S315080083B005EB041383F8318183F833A104F5F774C8
S315080083C005EBC404D9F80420D9F800102046CFF0EC
S315080083D09EFFD9F8043004940593083606AB13E9D2
S315080083E0030086E8030005F5805393F8222412015A
S315080083F005F59271104877F039FE4FF4487205F585
S3150800840077610E4877F032FE3B460D4A02211D2061
S3150800841047F0E0FB0123184607B0BDE8F08F541E6D
S31508008420A4B23A462146FFF7CEFC03460028AAD155
S31508008430F1E700BFCCA50D081173080013730800F7
S315080084404CA60D0842B370B505463BB3511ECEB2D5
S31508008450013B9CB23146FFF7C0FC08B321462846CB
S31508008460FFF7ACFCF0B106EB4603C4EB041292002E
S3150800847002EB43032B4493F86437ABB106EB460192
S3150800848002EB41010D44D5F86537049A136095F857
S3150800849069371371002002E001207047012070BD82
S315080084A00120FCE70120FAE78B20F8E7002A4CD0E8
S315080084B070B50546002B4AD0511ECEB2013B9CB280
S315080084C03146FFF78AFC002843D021462846FFF7A5
S315080084D075FC08B901203BE006EB4602C4EB041321
S315080084E09B0003EB42032B449DF8142083F8652771
S315080084F09DF8182083F866279DF81C2083F86727BF
S315080085009DF8202083F868279DF8242083F869279A
S3150800851006EB4606C4EB04139B0003EB46032B4409
S315080085209DF8102083F8642705F5805393F82324D3
S31508008530B3F8203403FB02F202EB820205F26471FF
S31508008540054877F093FD002002E0012070470120DE
S3150800855070BD0120FCE700BF1573080042B370B573
S3150800856005463BB3511ECEB2013B9CB23146FFF7DE
S3150800857039FC08B321462846FFF720FCF0B106EB84
S315080085804603C4EB0412D20002EB83032B4493F890
S31508008590BC39ABB106EB460102EB81010D4405F58A
S315080085A01C6595E80300049B83E80300002002E0AD
S315080085B001207047012070BD0120FCE70120FAE781
S315080085C08B20F8E7002A3CD070B50546002B3AD038
S315080085D0511ECEB2013B9CB23146FFF703FCA0B355
S315080085E021462846FFF7EAFB08B901202CE006EBEE
S315080085F04602C4EB0413DB0003EB82032B44059A03
S31508008600C3F8C029069AC3F8C42906EB4606C4EB84
S315080086100413DB0003EB86032B449DF8102083F834
S31508008620BC2905F5805393F82424B3F8203403FBBA
S3150800863002F2D20005F6BC11054877F017FD0020B6
S3150800864002E001207047012070BD0120FCE700BF51
S3150800865016730800BAB170B504461E46551EEDB22B
S315080086602946FFF7C4FB80B104EB051393F86C3E6B
S315080086706BB104EB051404F5676494E8070086E813
S315080086800700002070BD012070470120FAE78B2003
S31508008690F8E7000042B370B505461E46541EE4B21C
S315080086A02146FFF7A4FB08B9012070BD05EB0413AA
S315080086B0049AC3F8702E059AC3F8742EE73405EBAE
S315080086C004149DF81820227283F86C6E05F5805301
S315080086D093F8252402EB4202920005F66C610348E2
S315080086E077F0C4FC0020E0E7012070471773080004
S315080086F0012906D0022906D009B104487047044862
S315080087007047044870470448704700BF8CA60D0898
S315080087109CA60D0894A60D0880A60D082DE9F0471D
S3150800872084B005460F4690461E4601238DF80F3045
S315080087300DF10F0138461DF088F896F80090B9F14A
S31508008740000F01D0002434E03B46394A03211D209E
S3150800875047F040FA9DF80F309BB941462846FFF787
S31508008760C7FF03460097334A03211D2047F032FA14
S315080087701FF04CFF4246394620F086FA4FF0010AB0
S3150800878040E03B462C4A01211D2047F023FACA4601
S3150800879038E042B17168DCF80800CFF0A8FDF0B106
S315080087A04FF0000A00E0CA46BAF1000F19D10134A9
S315080087B0E4B2632C2AD804F1120C05EB0C1C9CF8C5
S315080087C00520012AF3D19CF80420002AEFD0DCF812
S315080087D00C20B1688A42DCD04FF0000AE4E7CA46AA
S315080087E0E2E741462846FFF783FF03460097134A08
S315080087F003211D2047F0EEF91FF008FF42463946CF
S3150800880020F042FA504604B0BDE8F08741462846B3
S31508008810FFF76EFF03460097094A03211D2047F01C
S31508008820D9F90C9B01221A704FF0000AEAE700BF3B
S31508008830B0A60D08ECA60D082CA70D087CA70D08F8
S31508008840E0A70D0800B583B0009313460122FFF791
S3150800885065FF03B05DF804FB00B583B000931346CB
S315080088600222FFF75BFF03B05DF804FB08B54FF67D
S31508008870FF710120FFF7E4F908BD0000F0B583B0E9
S3150800888044688768250CA6B200962B460A4A022138
S315080088901D2047F09FF940F201139C4201D003B016
S315080088A0F0BD002FFBD100962B46044A02211D205D
S315080088B047F090F9F3E700BF5CA80D087CA80D08FF
S315080088C07047000070B504460D46164603460A4A28
S315080088D002211D2047F07EF933462A4621460748DD
S315080088E0FFF7B0FF044608B9204670BD00220221F2
S315080088F00248FFF73DFBF7E79CA80D0834700020F7
S3150800890070B504460D46164603460A4A02211D203E
S3150800891047F060F933462A4621460748FFF79CFF89
S31508008920044608B9204670BD012202210248FFF715
S315080089301FFBF7E7C4A80D083470002000B583B004
S31508008940009313460A4601460248FFF7A7FC03B000
S315080089505DF804FB3470002010B584B0089C0394BD
S315080089609DF81C4002949DF8184001940093134604
S315080089700A4601460248FFF7EFFC04B010BD00BFE7
S315080089803470002008B513460A4601460148FFF729
S3150800899011FB08BD3470002010B588B0109C0794F0
S315080089A00F9C06949DF8384005949DF8344004942D
S315080089B09DF8304003940B9C02940A9C0194009302
S315080089C013460A4601460248FFF770FB08B010BD79
S315080089D03470002000B583B0009313460A4601465A
S315080089E00248FFF72FFD03B05DF804FB3470002042
S315080089F000B583B0009313460A4601460248FFF7BE
S31508008A00ADFD03B05DF804FB3470002008B51346CD
S31508008A100A4601460148FFF71DFE08BD34700020CE
S31508008A2010B586B09DF8304005949DF82C40049406
S31508008A309DF8284003949DF8244002949DF8204010
S31508008A400194009313460A4601460248FFF72EFD95
S31508008A5006B010BD3470002010B584B0079C02948F
S31508008A60069C0194009313460A4601460248FFF7FE
S31508008A70A9FD04B010BD00BF3470002010B584B045
S31508008A809DF81C400294069C0194009313460A46DE
S31508008A9001460248FFF7FEFD04B010BD3470002001
S31508008AA0024A0260024A0260704700BFC8810E0887
S31508008AB05CA90D08012800D0704708B54FF6FF736A
S31508008AC0994200D008BD034A03490448CEF005FB85
S31508008AD0F8E700BF00000020A18A00086000002017
S31508008AE010B50446044B0360044B03600821CEF01E
S31508008AF0F9FA204610BD00BFC8810E085CA90D080A
S31508008B0010B5FEF7C6F81B48FEF7B2FC50BB1A4C68
S31508008B101A4BD3F88411204649F094F9204649F0B7
S31508008B209DF9174C204678F09FF88DF011FB85F0DB
S31508008B302DF8204678F0A9F8124877F0CDFD1248AE
S31508008B40FFF75EF890B9114877F0C6FD05F054FABC
S31508008B5046F0DEFE0E4877F0BFFDAC20FDF778FE46
S31508008B60002010BDAC20FDF773FED0E7AC20FDF762
S31508008B706FFEE8E7F0A80D0860000020400D02200F
S31508008B80C064012004A90D082C70002018A90D083E
S31508008B9034A90D0870B50446044D2B689E6801F08B
S31508008BA00CFC024621462846B04770BD2C700020B2
S31508008BB008B54FF6FF710120FFF77CFF08BD38B1F5
S31508008BC041B10160028100228280C2800120704783
S31508008BD00020704700207047C28892B283889BB2F3
S31508008BE09A4216D0C28892B283889BB29A4209D218
S31508008BF00389828892B29B1AC08880B210FA83F0E1
S31508008C0080B27047C3889BB2808880B2181A80B237
S31508008C1070470020704710B50489FFF7DDFF201A5A
S31508008C2080B210BDF8B548B30F461546044659B389
S31508008C30038993422ED3FFF7EEFFA8421DD3268958
S31508008C40E3889BB2F61AB6B2B54229D92368E088FA
S31508008C503246394613FA80F0CFF059FBAA1BB919E8
S31508008C602068CFF054FBE28815FA82F5228995FB35
S31508008C70F2F302FB1355ADB2E580F8BD0D4B0E4A73
S31508008C8096210E48CFF030F90D4B0B4A97210B4829
S31508008C90CFF02AF90B4B084A98210848CFF024F957
S31508008CA02368E0882A46394613FA80F0CFF02FFB6E
S31508008CB0D9E700BF84A90D088CA90D08BCA90D0821
S31508008CC024AA0D0834AA0D0870B516461D46DCB24E
S31508008CD00E4B1A78A41AE4B20D48FFF79CFFA2B20D
S31508008CE0904209D20B4B2A4631460B48006812F0CF
S31508008CF039FD7BF075FF70BD044C2188314404486A
S31508008D00FFF790FF00232380ECE700BF6C86002066
S31508008D1060840020C98C000878010020F8B550B39B
S31508008D200F461546044661B3038993422FD3FFF7CE
S31508008D3053FFA84231D92689A3889BB2F61AB6B240
S31508008D40B5422FD92368A188324613FA81F13846ED
S31508008D50CFF0DDFAAA1B2168B819CFF0D8FAA38894
S31508008D6015FA83F3228993FBF2F102FB11339BB2C6
S31508008D70A380E8B2F8BD104B104AB5211048CFF0D1
S31508008D80B3F8104B0D4AB6210D48CFF0ADF80E4B8F
S31508008D900A4AB7210A48CFF0A7F82046FFF71CFF72
S31508008DA00546C8E72368A1882A4613FA81F138469A
S31508008DB0CFF0ADFAD3E700BF84A90D0854AA0D0871
S31508008DC0BCA90D088CAA0D0894AA0D0838B500F0A0
S31508008DD09DFE4FF4807212491248FFF7F0FE124DBD
S31508008DE0124C2B4680221249206812F0BBFC2B46F7
S31508008DF080221049206812F0B5FC0F4B4FF4006230
S31508008E00C3F880211A600D4800F500520423D36484
S31508008E1000F580521365052112F026FD38BD00BF06
S31508008E206C85002060840020C98C00087801002029
S31508008E306C840020EC84002000E100E00000015B67
S31508008E4008B57BF0CDFE024B0422DA6408BD00BFEC
S31508008E500020015B58B110B50C46014654B12246B4
S31508008E60074B186812F01EFC38B920B210BD4FF037
S31508008E70FF3070474FF0FF30F8E74FF0FF30F5E767
S31508008E8078010020002830D070B584B00C4605461D
S31508008E9000292DD01848FFF79FFEA04207D3224687
S31508008EA029461548FFF73AFF00B204B070BD03F033
S31508008EB0D2FB064601AB02AA03A91048006812F0C5
S31508008EC0C0FB0F4B1B88029A934203D3304603F02C
S31508008ED0C8FBE4E7D21A92B2039919440648FFF789
S31508008EE0A1FE074B029A1A80F0E74FF0FF30704751
S31508008EF04FF0FF30D9E700BF6084002078010020DA
S31508008F006C86002070B504460A694B6952EA03006C
S31508008F101ED08868C96810EB000C41EB010E1CEBEB
S31508008F20000C41EB0E0E4FEA4E1545EADC654FEA9A
S31508008F304C161CEB060C4EEB050E1CEB000041EB29
S31508008F400E01CEF039FE012323706070204670BDF5
S31508008F50002323706370F9E7D0E9020170472D20DA
S31508008F6070472D2070470120704701207047000088
S31508008F70024A0260024A0260704700BFD0AC0E087F
S31508008F80A8AB0D0870474FF48060704700238360D4
S31508008F907047002343607047044A026020324260EB
S31508008FA0034A4260034A0260704700BFD8AC0D0806
S31508008FB0C4AB0D087CAB0D080346064A40F8042CE2
S31508008FC0203240F80429044A4260044A43F8042C33
S31508008FD0704700BFD8AC0D08C4AB0D087CAB0D08B4
S31508008FE0024A0260024A0260704700BF20710E08FA
S31508008FF090AC0D08024A0260024A0260704700BF40
S3150800900080700E08E4AB0D0810B50446064B0360E5
S3150800901020334360054B4360054B03601021CEF0B7
S3150800902061F8204610BD00BFD8AC0D08C4AB0D08CA
S315080090307CAB0D0810B50446084B40F8043C2033B9
S3150800904044F80439064B6360064B40F8043C10218B
S315080090502046CEF047F8204610BD00BFD8AC0D0814
S31508009060C4AB0D087CAB0D0810B50446054B036070
S31508009070006B18B175F0F6FC00232363024B2360DE
S31508009080204610BDECE10E0820AB0D0810B50446CD
S31508009090054B0360406B08B149F01CF90023636374
S315080090A0024B2360204610BD24660E0854AB0D08FB
S315080090B010B50446174B03606433436000F51C7013
S315080090C04AF0F8F814F5EC7205D004F5147300E0CC
S315080090D0183B9A42FCD1104BE3672033C4F8803022
S315080090E00E4BC4F880300E4BE36704F13800A36DCD
S315080090F013B10022A265984704F10800A36A13B1C8
S315080091000022A2629847074B6360074B23602046FC
S3150800911010BD00BF646D0E08D8AC0D08C4AB0D08B1
S315080091207CAB0D0890AB0D0834AC0D0838B5054678
S315080091300446194B40F8043C643344F8043900F5F6
S315080091401B704AF0B7F815F5EA7205D004F51473E2
S3150800915000E0183B9A42FCD1104BE3672033C4F871
S3150800916080300F4BC4F880300E4BE36704F13800AB
S31508009170A36D13B10022A265984704F10800A36AFB
S3150800918013B10022A2629847074B6360074B45F864
S31508009190043C204638BD00BF646D0E08D8AC0D08E7
S315080091A0C4AB0D087CAB0D0890AB0D0834AC0D08AC
S315080091B00E4BD3E88F3F13F0010F01D00C487047D0
S315080091C010B50A48CDF090FF08B9094810BD084CFB
S315080091D0084B2360084B23600448CDF091FF074AEB
S315080091E007492046CDF079FFEFE700BF70860020DB
S315080091F074860020A8AB0D08D0AC0E08000000202D
S31508009200718F000810B50446054A01210C2046F066
S31508009210E1FCE06810B103689B68984710BD00BF81
S31508009220B0AA0D0810B50446054A01210C2046F0DF
S31508009230D1FCA06810B103689B68984710BD00BFB1
S31508009240B0AA0D0830B583B0C068D8B10D4614462B
S315080092501A68019200221A6001AA21462CF03EFAE9
S31508009260019808B149F036F8002301930C4B1B68A6
S315080092700093A3886BB12B8943F040032B81002010
S3150800928003B030BD074A01210C2046F0A3FC00209C
S31508009290F6E7E388002BEED12378402BEBD1EEE7F7
S315080092A010AD0D08C4AA0D0830B583B08068D8B1D2
S315080092B00D4614461A68009200221A606A4621462C
S315080092C02CF00CFA009808B149F004F80023009332
S315080092D00C4B1B680193A3886BB12B8943F04003A1
S315080092E02B81002003B030BD074A01210C2046F02F
S315080092F071FC0020F6E7E388002BEED12378402B9B
S31508009300EBD1EEE710AD0D08C4AA0D08F0B587B08D
S3150800931006460C46224A0321152046F05BFCB56832
S31508009320002D2DD00023ADF810301E4B1B6803937B
S3150800933023893BB31C4A1268039253B30123ADF841
S315080093401030277B606848F01BFF6368059304AB01
S31508009350009305AB3A46A168284646F0CBFF04467B
S31508009360059808B148F0B6FF002305932CB1B068FC
S3150800937018B146F0F7FD0023B360204607B0F0BDEC
S315080093800320FBE76289022AD4D1227B142AD1D191
S31508009390D7E76389002BD1D1237B402BCED1D0E7E9
S315080093A0F8AA0D0814AD0D0810AD0D08012800D057
S315080093B070474FF6FF739942FAD170B58AB04C4B95
S315080093C04C4A1A604C4A5A604C4A1A6064325A60CF
S315080093D003F10802DA609A6000229A62DB62484961
S315080093E01963CDF804D0CDF800D0089203F13801FE
S315080093F0D96399639A65DB65424919669A66DA669E
S315080094001A6783F874209A673F49D9673F49C3F8B2
S3150800941080103F49D9672031C3F8801083F8AC2003
S31508009420C3F8B820C3F8BC20C3F8C020C3F8C420CA
S31508009430C3F8C821C3F8CC2183F8D021C3F8D421B6
S31508009440042203F5EC7303E0002103F8181B013A24
S31508009450002AF9DA26480024C0F850420523C0F845
S31508009460543280F85842C0F87442C0F87842294B02
S31508009470C0F8703280F87C42274E32462749CDF034
S315080094802CFE324626492748CDF027FE3246264985
S315080094902648CDF022FE264D264B2B606C602C729A
S315080094A02846254B40F8103B92F0B2FBC5F8D04051
S315080094B0C5F8D440C5F8D840C5F8DC4032461F493F
S315080094C02846CDF00AFE1E481E4B036000220023E4
S315080094D0C0E90223C0E904231B4B03608461C4610D
S315080094E00463446332461949CDF0F7FD0AB070BDEE
S315080094F09087002034AC0D0890AB0D08646D0E08FB
S31508009500E57C03085D6703087CAB0D08C4AB0D0852
S31508009510D8AC0D082CB90E0800000020B190000840
S31508009520E18F000868000020F58F00087000002011
S315080095307886002054AB0D0824660E088D90000826
S315080095405887002020AB0D08ECE10E08699000084A
S3150800955010B50446044B0360044B03600421CDF0A8
S31508009560C1FD204610BD00BFD0AC0E08A8AB0D0843
S31508009570F0B583B00F4F38462CF038FF0E4901F589
S315080095804053D3F884310D4A53600D4E0D4D009566
S31508009590334638462DF036FC0B4B33610B4C2246CE
S315080095A0394630462EF05EFF094B636325626C60D0
S315080095B003B0F0BD9087002040DD01206800002040
S315080095C0700000207886002080510100588700200E
S315080095D00CAB0D0810B50446194B036064334360A1
S315080095E000F51C7049F066FE14F5EC7205D004F51A
S315080095F0147300E0183B9A42FCD1124BE367203300
S31508009600C4F88030104BC4F88030104BE36704F17F
S315080096103800A36D13B10022A265984704F108002B
S31508009620A36A13B10022A2629847094B6360094BEB
S3150800963023604FF422712046CDF054FD204610BD1C
S31508009640646D0E08D8AC0D08C4AB0D087CAB0D08CC
S3150800965090AB0D0834AC0D0838B5054604461B4BCF
S3150800966040F8043C643344F8043900F51B7049F0AB
S3150800967021FE15F5EA7205D004F5147300E0183BCF
S315080096809A42FCD1124BE3672033C4F88030114B61
S31508009690C4F88030104BE36704F13800A36D13B1AA
S315080096A00022A265984704F10800A36A13B10022B4
S315080096B0A2629847094B6360094B45F8043C4FF48E
S315080096C022712046CDF00EFD204638BD646D0E0889
S315080096D0D8AC0D08C4AB0D087CAB0D0890AB0D08D3
S315080096E034AC0D0810B50446044B0360044B036004
S315080096F00821CDF0F7FC204610BD00BF20710E08EA
S3150800970090AC0D0810B50446044B0360044B036087
S315080097101C21CDF0E7FC204610BD00BF80700E0866
S31508009720E4AB0D0810B50446074B0360406B08B15F
S3150800973048F0D0FD00236363044B2360E0212046F4
S31508009740CDF0D0FC204610BD24660E0854AB0D089B
S3150800975010B50446074B0360006B18B175F082F923
S3150800976000232363044B236038212046CDF0BAFC3E
S31508009770204610BDECE10E0820AB0D0808B54FF6E3
S31508009780FF710120FFF712FE08BD000000B583B087
S31508009790084803681988803901EBD171064B019393
S315080097A02D23009380230022491012F0C9FF03B02D
S315080097B05DF804FB188A002064B10D0830B58446AC
S315080097C00D4C00F1200E2546DCF80000DCF80410EC
S315080097D0DCF80820DCF80C300FC50CF1100C2C4610
S315080097E0F445F0D12B46DCF80000DCF80410DCF870
S315080097F0082007C330BD00BF188A002010B584B002
S315080098000446FFF7C3FF2046CFF02AFA142803D9E7
S3150800981012F068FE04B010BD0123029300220192E3
S31508009820009205222146024813F0C3F8F0E700BF6C
S31508009830188A002000B583B00B4B1B68198840397D
S3150800984001EBD17149105A88453A58B1074B019333
S3150800985040230093044812F073FF12F043FE03B04E
S315080098605DF804FB024BF2E7188A002018AF0D08D2
S3150800987018AD0D0810B582B00446B8B908210F4BCB
S315080098801B685A88453A02EBD27302EB63027CB92D
S3150800989010237CB912207CB9094C01940090074822
S315080098A012F04EFF12F01EFE02B010BD6821E6E768
S315080098B01223EEE71120EEE7024CEEE7188A0020A5
S315080098C040B10D0818B10D0810B50446084812F045
S315080098D0D7FE2046FFF792FF0020FFF7ABFF0021D7
S315080098E00846FFF7C7FF00210120FFF7C3FF10BD99
S315080098F0188A0020F8B504461746002579B10E46A1
S315080099000846CFF0ADF9142804D9204876F0E4FECD
S315080099102F2026E0314604F1B000CFF099F900F087
S3150800992007F90146F0B9002012F0AEFD0146F0B97C
S3150800993004F18406304612F06FFE0146E0B96FF076
S315080099407F43C4F888300023C4F88C30304612F0C0
S3150800995097FE0146A8B93046FFF730FF84F8C57070
S315080099602846F8BD0A4876F0B7FEAC25DBE7094875
S3150800997076F0B2FEAC25DBE7074876F0ADFEAC25FF
S31508009980DDE7064876F0A8FEAC25E4E734B40D0812
S3150800999048B40D0868B40D087CB40D0898B40D08D1
S315080099A008B5843012F06CFE08BD10B50446FFF702
S315080099B0F7FF04F1B000FFF787FF94F8C500FFF73B
S315080099C039FF10BD08B590F8813013B1002380F82F
S315080099D0813080F8C510FFF7E8FF08BD802A00D956
S315080099E0704708B5CEF093FC08BD2DE9F0478146CF
S315080099F0884617461E469DF820A000250AE07A19D3
S31508009A0008EB040109F1840012F061FE0134A64254
S31508009A10F5DC0135AA4501DD0024F8E7BDE8F08745
S31508009A202DE9F04184B08046012303934FF0FF33BC
S31508009A30029304230193009300231E4A1E49AAF0A9
S31508009A4055FA80B11B48A9F0A9FB064608F184001F
S31508009A5012F016FE06EB4607C7F1800707EBD77725
S31508009A607F1000251DE0154876F036FE1FE001340C
S31508009A70B44215DA2A4621460E48AAF0BDF800284F
S31508009A80F5D0F9B205EB45020A4404EB4403194440
S31508009A9003230093D2B2C9B24046FFF7A6FFE6E712
S31508009AA00135B54201DA0024E2E712F01BFD04B0E5
S31508009AB0BDE8F081D08A0020448A0020B0B40D08A1
S31508009AC038B504460D4690F881308B4206D045B12C
S31508009AD02046FFF7A5FF84F8815038BD002AFCD040
S31508009AE0F5E72046FFF761FFF5E710B5044690F85D
S31508009AF0813043B1FFF759FF94F8813083F00103B1
S31508009B0084F8813010BDFFF78BFFF5E708B5012310
S31508009B1004220021184602F0E3FF002008BD08B51C
S31508009B20002304221946012002F0DAFF002008BDAE
S31508009B3008B5012304220921022002F0D1FF0020E2
S31508009B4008BD08B501213A2001F0E0FB11F04AF9F9
S31508009B5012F096F908BD08B501213A2001F0D6FBA6
S31508009B6008BD0000BFF34F8F0549CA6802F4E062DA
S31508009B70044B1343CB60BFF34F8F00BFFDE700BF15
S31508009B8000ED00E00400FA050D4B1B68B3F1FF3F3A
S31508009B9006D04FF4801202FA03F30A4A1366704796
S31508009BA0094B1B785BB9094B4FF400725A6603F5EB
S31508009BB0A6235B681BB9034B4FF480121A667047DD
S31508009BC0DC00002000900044818B002000900050AB
S31508009BD0084B1B68B3F1FF3F0AD1074B1B783BB90B
S31508009BE0064B5B6813F0010F02D0024B00221A6085
S31508009BF0704700BFDC000020818B002000C00550A4
S31508009C004FF000639B6A03F17842B2F5C04F07D262
S31508009C101A680B4B9A4207D000230370836070477B
S31508009C200023037083607047012303704FF00063BD
S31508009C309A6A926842609B6A9B698360704700BF14
S31508009C4007B0CD5E08B54FF0005340F202221A80E5
S31508009C504FF20F025A80FFF785FF4FF000639B6AA9
S31508009C6003F17843B3F5C04F19D230B585B0054630
S31508009C700C4601238DF8043000230293039301A8B0
S31508009C80FFF7BEFF039B13F4806F06D04FF0006307
S31508009C909B6A1B6C21462846984705B030BD70471D
S31508009CA0494B1B78002B66D110B582B004460023B9
S31508009CB00193009300285CD0434B01221A7002F0EE
S31508009CC0CAFC424B1860C8F0E7FB414B1B78002BD7
S31508009CD055D0404B5A6E22619A6E626103F58052E6
S31508009CE04FF4804393663C4B5968A1613B499960A0
S31508009CF0196E2160596E6160196CA160596CE1603A
S31508009D003749086C1864496C5964012151661B6E01
S31508009D1013F4005F44D0334BDB6813F0010FFAD11C
S31508009D20FFF732FF304B04221A664FF400721A66A8
S31508009D3000F064FAB0F1FF3F38D12B4C08232366B4
S31508009D404FF4805323664FF0006323664FF40023D5
S31508009D506366694601A8FFF780FF019B2366009B9F
S31508009D6063661B4B1B7823B1204A1168216652682B
S31508009D70626602B010BD144B02221A70704700F0DA
S31508009D80B7FE0028A5D10823184A194919480068BA
S31508009D90CCF0F2FC00289CD10D4B01221A7098E7F2
S31508009DA0154BDB6813F0010FFAD1B9E700F026FA74
S31508009DB040F201139842C0D00B4B4FF400521A667A
S31508009DC04FF480421A66B8E7828B0020848B002005
S31508009DD0808B0020008000500080004455CEAC00E7
S31508009DE000C000540000044000900044788B002016
S31508009DF000710800E0000020000004501F4B1B788B
S31508009E00012B03D01D4B01221A70704710B504466A
S31508009E1020B300F0F3F9B0F1FF3F20D12268184BC8
S31508009E201A6662685A66A2681A64E2685A64A3697E
S31508009E3013F0010F02D0124B00229A60FFF7C8FEFA
S31508009E402269104B5A6662699A66C8F041FB0E4B46
S31508009E50186802F006FC094B00221A7010BD00F0C3
S31508009E60CDF940F201139842D8D0084B01225A6620
S31508009E70074BDB6813F0010FFAD1CFE7828B00207E
S31508009E800080004400800050848B00200090004031
S31508009E900000044038B54FF000639B6A03F178432D
S31508009EA0B3F5C04F26D2154B1B781BB1022B01D038
S31508009EB0002421E0124D2846FFF7F2FE1149012041
S31508009EC0C1F88001104B03F500544FF48032E2606C
S31508009ED0086003F580531A614FF000639B6ADB69DB
S31508009EE0984704462846FFF789FF2CB9034B0122F9
S31508009EF01A7001E04FF48174204638BD818B00202A
S31508009F005C8B002000E100E0008000442C4B1B78AD
S31508009F1003B9FEE700B583B0002300930193082335
S31508009F206A46284928480068CCF026FC48BB274BD7
S31508009F30D3F840311F2B1AD9244BD3F84021203AA5
S31508009F40012303FA02F2019B1343019308236A468D
S31508009F501C491D480068CCF0C5FB4FF0005340F281
S31508009F600B221A804FF20F025A80FFF7FBFD174BA0
S31508009F70D3F84021012303FA02F2009B134300930E
S31508009F80E4E7134A9042E8D1104BD3F840311F2B2F
S31508009F900ED90E4BD3F84021203A01239340019362
S31508009FA008236A46074908480068CCF09BFBD4E7B3
S31508009FB0064BD3F84021012393400093F0E700BFF6
S31508009FC0828B002000710800E00000200080004419
S31508009FD00BE000F038B54FF000639B6A03F1784256
S31508009FE0B2F5C04F14D204461B6B03F17843B3F5A0
S31508009FF0C04F0DD2074D2846FFF752FE4FF00063BB
S3150800A0009B6A1B6B5B68204698472846FFF7F6FE57
S3150800A01038BD00BF888B002008B54FF000639B6AE7
S3150800A02003F17842B2F5C04F08D21B6B03F17842B0
S3150800A030B2F5C04F05D29B68984701E04FF481708E
S3150800A04008BD4FF48170FBE730B583B001904FF03F
S3150800A05000639B6A03F17842B2F5C04F16D21B6BB8
S3150800A06003F17843B3F5C04F15D20C4D2846FFF7D8
S3150800A07017FE4FF000639B6A1B6B9B69012101A8C1
S3150800A080984704462846FFF7B9FE01E04FF4817465
S3150800A090204603B030BD4FF48174F9E7888B002061
S3150800A0A02DE9F0414FF000639B6A03F17844B4F55B
S3150800A0B0C04F17D207460E4615461B6BBBB1DFF8D5
S3150800A0C034804046FFF7ECFD4FF000639B6A1B6B3C
S3150800A0D05B6A2A4631463846984704464046FFF7A3
S3150800A0E08DFE01E04FF401742046BDE8F0814FF47F
S3150800A0F00174F9E7888B002070B54FF000639B6AFE
S3150800A10003F17842B2F5C04F18D205460C461B6BD0
S3150800A11003F17843B3F5C04F14D20C4E3046FFF71F
S3150800A120BFFD4FF000639B6A1B6B9B6A214628465E
S3150800A130984704463046FFF761FE01E04FF4017484
S3150800A140204670BD4FF40174FAE700BF888B0020E3
S3150800A15030B5ADF50F7D4FF000639B6A03F1784388
S3150800A160B3F5C04F15D20C464FF40E726946FFF789
S3150800A17097FF054678B921466846FFF7BDFF40F2C6
S3150800A18001239842F7D040F20323984203D00546AC
S3150800A19001E04FF4017528460DF50F7D30BD00002E
S3150800A1A0F8B50D464FF000639B6A03F17841B1F5A7
S3150800A1B0C04F19D2044616461B6B03F17843B3F514
S3150800A1C0C04F15D20C4F3846FFF76AFD4FF00063B3
S3150800A1D09B6A1B6B9B6B324629462046984704466A
S3150800A1E03846FFF70BFE01E040F201142046F8BDA1
S3150800A1F040F20114FAE700BF888B00204FF0006395
S3150800A2009B6A03F17842B2F5C04F29D21B6B03F162
S3150800A2107843B3F5C04F26D200B585B001238DF833
S3150800A220043000230293039301A8FFF7E9FC039B7C
S3150800A23013F4803F1AD0029BC3F307421B0E18D0B3
S3150800A240012B08D04FF000639B6A1B6B1B6C984769
S3150800A25005B05DF804FB0A2AF4D840F20110F7E7C6
S3150800A26040F20110704740F20110704740F20110A9
S3150800A270EEE740F20110EBE770B54FF000639B6A1A
S3150800A28003F17842B2F5C04F18D205460C461B6B4F
S3150800A29003F17843B3F5C04F14D20C4E3046FFF79E
S3150800A2A0FFFC4FF000639B6A1B6BDB6B214628465D
S3150800A2B0984704463046FFF7A1FD01E040F2011435
S3150800A2C0204670BD40F20114FAE700BF888B0020D3
S3150800A2D02DE9F04190B017461D464FF000639B6A82
S3150800A2E003F17842B2F5C04F4ED206460C461B6BB8
S3150800A2F003F17843B3F5C04F4BD201A8FFF76AFEC6
S3150800A300059BD3F80C801FFA88F3002B44D00EA9BE
S3150800A3103046FFF781FEC8BB0E9E63190F9A93421B
S3150800A3203DD81FFA88F8B4FBF8F208FB1242F2B1DE
S3150800A330C8F1000C0CEA04004044B3FBF8F108FB32
S3150800A340113179B103EA0C018844A8EB00013044C5
S3150800A35011B1FFF791FFC8B92A4639463019FFF7F8
S3150800A3601FFF13E0A2EB080808EB0501EFE7301919
S3150800A370B5FBF8F308FB135323B1C8F100012940D4
S3150800A3804144E5E72946E3E74FF4817010B0BDE89C
S3150800A390F0814FF48170F9E740F20140F6E740F2A8
S3150800A3A00240F3E703680B600160704708B543682D
S3150800A3B00BB1984708BD2220FCE708B543690BB1E5
S3150800A3C0984708BDFF20FCE70A681378022B00D1DE
S3150800A3D0704710B508461379517903EB43031B01FF
S3150800A3E01433064C1B59CB4013F0010F0CBF012345
S3150800A3F000231370FEF7CEFB10BD00BF30C003501C
S3150800A40030B583B00546046801213A2000F07EFF86
S3150800A410002301226179207902F062FB23796279AF
S3150800A42003EB43031B0114330F495B58D34013F066
S3150800A430010F0CBF012300232370A379022B02D03E
S3150800A440002003B030BD00F0D5FA2A4607496079E6
S3150800A45000F0F8FA02466179207901230193009306
S3150800A46002F0AAFAECE700BF30C00350C9A30008FF
S3150800A470036818787047000002681378022B12D018
S3150800A4801379517903EB43031B01143312481B5804
S3150800A490CB4003F0010003469179012904D011B994
S3150800A4A080F00100107070475188490089B20B434B
S3150800A4B043F47F4343F0C0034FF6E0718B4205D067
S3150800A4C04FF6DF718B4204D053807047012111701B
S3150800A4D0F6E700211170F7E730C0035008B50368A6
S3150800A4E01A78022A00D008BD00225A80FFF788FF92
S3150800A4F0F9E710B582B004682378022B04D0A37953
S3150800A500022B03D00223237002B010BD002160790C
S3150800A51000F088FA617920790023019300930A46AE
S3150800A52002F04AFAEEE708B543680068984708BD9E
S3150800A53008B583680068984708BD08B5C368006809
S3150800A540984708BD08B503690068984708BD08B567
S3150800A55043690068984708BD10B5044601213A20AA
S3150800A56000F0D4FEA378B3FA83F35B09042261787A
S3150800A570207802F0B5FA002010BD000083784BB9A8
S3150800A580037842780121914003EB43031B01064AF5
S3150800A590D1507047037842780121914003EB430379
S3150800A5A01B01024AD150704740E0035040D0035087
S3150800A5B083784BB9037842780121914003EB430332
S3150800A5C01B01064AD1507047037842780121914011
S3150800A5D003EB43031B01024AD150704740D0035096
S3150800A5E040E00350037842780121914003EB43038E
S3150800A5F01B01014AD150704740F0035002460378C8
S3150800A600407803EB43031B01103305495B58C340ED
S3150800A61003F0010093780BB980F00100704700BF82
S3150800A62030C00350F0B585B00C4694469DF83410FA
S3150800A630664A1278002A00F0BD800546BCF1070F6D
S3150800A64000F2BA800A9A002A00F0B8800B9A002A0B
S3150800A65000F0B6800E9AB2F5006F00F3B3800128B9
S3150800A6605BD05B4A02EB0C12127B002A00F0AC802E
S3150800A67000220092019202920392564A02EB4C1E65
S3150800A680002C4FD14FEA4C1600209051CEF804000A
S3150800A690CEF80800CEF80C009EF8020040F0100034
S3150800A6A08EF802009EF8030040F030008EF8030092
S3150800A6B021B9C1B241F003018EF8031000930E9B35
S3150800A6C0013B444A4FEA4C1002EB4C11165A63F30D
S3150800A6D00E1616520A9B8B600B9B4B60CB789DF827
S3150800A6E03C2062F38303CB70012D36D0109B002BE0
S3150800A6F056D0374A4FEA0C1102EB0C1310985050FB
S3150800A700119A5A6000249C605D73724669466046D9
S3150800A71002F084FA204605B0F0BD0C9A002AA0D1B2
S3150800A7202D48F8E72B4F4FEA4C1607EB4C12002042
S3150800A730B85150609060D060907840F010009070EA
S3150800A740D07840F00300D0700029B7D107EB4C123F
S3150800A750C1B241F03001D170B0E70E460A7B42F033
S3150800A76001020A73D2B242F002020A73CA680421CD
S3150800A77061F39F02F26006F1100796E80F0087E87A
S3150800A7800F00F2696FF0030161F39F02F2610C9BFF
S3150800A7907361012CAAD10B9AB2610C9A7260A5E773
S3150800A7A0002DA6D10B4B03EB4C139A786FF30412CA
S3150800A7B09A709EE70948AEE70748ACE70648AAE755
S3150800A7C00548A8E70448A6E70548A4E7248D00201D
S3150800A7D0A48B0020248C0020018000F0028000F069
S3150800A7E0078000F0134B1B78FBB110B50446F0B197
S3150800A7F001F031FF0023072B13DC0F4A02EB03128B
S3150800A800127B0AB10133F6E723600B4A190102EB02
S3150800A810031301241C730024545001F022FF204620
S3150800A82002E001F01EFF054810BD054870470548BF
S3150800A830FAE700BF248D0020A48B0020048000F0D6
S3150800A840028000F0018000F000B583B0144B1B684D
S3150800A850019300238DF8043001F0FDFE114B1B789F
S3150800A86033B9104B01221A7001F0FBFE002309E0F0
S3150800A87001F0F7FE0C480FE00C4A02EB0312002128
S3150800A88011730133072BF7DD04238DF807300DEB21
S3150800A890030002F091F9002003B05DF804FB00BF45
S3150800A8A0D0B40D08248D0020038000F0A48B00206E
S3150800A8B000B589B084460E9807900D9806909DF8C5
S3150800A8C0300005900B9804909DF82800039000200E
S3150800A8D00290019300920B4662460121FFF7A2FE01
S3150800A8E009B05DF804FB00000C4B1B7873B110B57A
S3150800A8F00C4607280CD869B1094B03EB00131B7BE0
S3150800A90053B102F0D5F92060002010BD0548704704
S3150800A9100548FAE70448F8E70448F6E7248D0020D6
S3150800A920A48B0020028000F0018000F0078000F070
S3150800A930F8B5194B1F6D5B6D1F4002D40125002425
S3150800A94002E0FEE701346D00072C24D83D42F9D019
S3150800A950124B1D652301124AD358002BF2D002EB85
S3150800A9600416B1680131B16072682046984780F0D4
S3150800A9700100C0B2737B012BE4D10028E2D0094B59
S3150800A98003EB44131A7B6FF341021A731A7F6FF3B2
S3150800A99041021A77D6E7F8BD00000450002004509B
S3150800A9A0A48B0020248C002010B5044602E0202049
S3150800A9B007E09047DCB194FAA4F00028F7D0B0FA83
S3150800A9C080F00123834024EA0304094B03EB0013B8
S3150800A9D05A68002AEED0064B03EB00131B7B002BAC
S3150800A9E0E7D0034B03EB001399689047E2E710BDE5
S3150800A9F0288D002008B5192001F036FE28B1084B2D
S3150800AA004FF00072C3F880211A601A2001F02CFE5C
S3150800AA1028B1034B4FF08062C3F880211A6008BD45
S3150800AA2000E100E038B505460C4601F014FE044B7B
S3150800AA3003EB05135C6000221A7301F012FE38BDA1
S3150800AA40288D0020F8B505460F46164601F003FE88
S3150800AA5005F0FC0C104BD3F824140023032B0CD858
S3150800AA60EC1804F0030444EA0C0421FA04F212F088
S3150800AA70010F03D00133DBB2F0E7FF24FF2C06D029
S3150800AA80064B03EB04135F609E6001221A7301F004
S3150800AA90E8FD2046F8BD00BF00C00350288D002001
S3150800AAA008B5084BD3F82404D3F82024104000F046
S3150800AAB0553020F0502003F50053C3F82004FFF763
S3150800AAC073FF08BD00C0035008B5084BD3F824042B
S3150800AAD0D3F82024104000F0AA3020F0A02003F577
S3150800AAE00053C3F82004FFF75FFF08BD00C00350FA
S3150800AAF008B5034B1968034B1868CBF023FD08BD4E
S3150800AB00E4000020E0000020B0F1FF3F01D010B9BA
S3150800AB107047024870470248704700BF21E000F0BE
S3150800AB2024E000F08908002301E0043001338B4259
S3150800AB3005D20268B2F1FF3FF7D000207047012026
S3150800AB407047704738B50446CEF07AFDFFF7DCFF4C
S3150800AB50054650B9074B9B680A3303F01F030121CA
S3150800AB6099402046FFF7DEFF08B1284638BD024D5A
S3150800AB70FBE700BF0080E00F0EE000F0F8B50546E1
S3150800AB800E4694002246CEF063FDFFF7BDFF07464A
S3150800AB9028B9224631462846CDF0A9FB08B93846D9
S3150800ABA0F8BD014FFBE700BF10E000F008B503460B
S3150800ABB0084613F0030F02D111F0030F0AD09200D2
S3150800ABC01946CDF0A4FB002008BD53F8041B40F835
S3150800ABD0041B013A002AF8D1F5E7000010B582B047
S3150800ABE0044601A802F0A4F99DF806302380012244
S3150800ABF0E2700020A070054B9B680A3303F01F0320
S3150800AC0002FA03F3636002B010BD00BF0080E00FD4
S3150800AC1008B502F07BF808BD08B502F067F8002011
S3150800AC2008BD000008B501F00FFD014B186008BD0E
S3150800AC309892002008B5024B186801F009FD08BD76
S3150800AC409892002070470000024B4FF480321A6732
S3150800AC50704700BF00900050324B984252D029D816
S3150800AC60314B984248D009D9304B984247D0304B9F
S3150800AC7098421DD12F4BD3F8800070472E4B98422F
S3150800AC8037D005D92D4B984210D12A4B186F7047EB
S3150800AC902B4B984202D02B4B984202D1254B986DEC
S3150800ACA07047294B9842F9D000207047002070471A
S3150800ACB000207047254B98422CD00CD9244B98423B
S3150800ACC02CD003F5740303F5105398420FD1194B92
S3150800ACD0D3F8980070471F4B984217D01E4B9842DE
S3150800ACE003D1144BD3F88C0070470020704700201E
S3150800ACF07047104B586E70470E4B586F70470D4B88
S3150800AD00986F70470B4BD3F884007047094BD3F8FC
S3150800AD1088007047074BD3F890007047054BD3F867
S3150800AD20940070470048E8010024F400C0EA2101B5
S3150800AD3080BA8C010080E00FC0CF6A00405DC60073
S3150800AD4080841E0000093D0040420F00007E560325
S3150800AD500090D00380D54302006CDC0238B5054666
S3150800AD600C460C4BD3F8803003F00303012B08D0B4
S3150800AD70022B0AD00023184605B1286004B12360C7
S3150800AD8038BD11F0BBFE0E23F6E711F005FF0723C9
S3150800AD90F2E700BF0080005038B505460C46164B52
S3150800ADA0D3F8203103F00703013B052B20D8DFE851
S3150800ADB003F0030B130F171B11F094FE052305B1BF
S3150800ADC0286004B1236038BD11F0C8FE0323F6E7F6
S3150800ADD011F0E2FE0723F2E711F0DAFE0223EEE7AE
S3150800ADE011F080FE0623EAE711F0B8FE0423E6E731
S3150800ADF000231846E3E700BF0080005038B5054633
S3150800AE000C46164BD3F8283103F00703013B052BF4
S3150800AE1020D8DFE803F003131B0F0B1711F062FEAF
S3150800AE20052305B1286004B1236038BD11F05AFE28
S3150800AE300623F6E711F0B0FE0723F2E711F08EFEBF
S3150800AE400323EEE711F08AFE0423EAE711F0A0FED9
S3150800AE500223E6E700231846E3E700BF0080005018
S3150800AE6070B582B006460D4600230193104BD3F801
S3150800AE70804104F00304022C16D0032C0FD0012CB9
S3150800AE8007D000240EB1019B336005B12C6002B0D7
S3150800AE9070BD002101A8FFF77FFF1024F2E711F02B
S3150800AEA07BFE01900724EDE711F072FE0190E9E7B9
S3150800AEB00080005030B583B005460C460023019348
S3150800AEC0144BD3F8203203F00703013B032B1ED89B
S3150800AED0DFE803F0020E1318002101A8FFF78EFF22
S3150800AEE012230DB1019A2A6004B1236003B030BD64
S3150800AEF011F052FE01900723F3E711F091FE01903D
S3150800AF000A23EEE711F092FE01900923E9E70023F0
S3150800AF10E7E700BF0080005038B505460C460F4BE2
S3150800AF20D3F8403103F00303022B0ED0032B10D0C5
S3150800AF30012B06D00023184605B1286004B123600A
S3150800AF4038BD11F06DFE0A23F6E711F06FFE0923EE
S3150800AF50F2E711F068FE0C23EEE700BF0080005010
S3150800AF6030B583B005460C46002301934FF0E02325
S3150800AF701B6913F0040F0CD011F0DAFD01900D23B4
S3150800AF8000930DB1019B2B600CB1009B236003B0AD
S3150800AF9030BD694601A8FFF7BFFFF2E730B583B0B9
S3150800AFA005460C4600230193144BD3F8603203F090
S3150800AFB00703013B032B1FD8DFE803F0020E191421
S3150800AFC0002101A8FFF7E8FE10230DB1019A2A60B7
S3150800AFD004B1236003B030BD002101A8FFF79CFF30
S3150800AFE01123F2E711F0D8FD01900723EDE711F0E0
S3150800AFF0CFFD01900223E8E70023E6E70080005032
S3150800B00030B583B005460C4600230193144BD3F89C
S3150800B010943203F00703013B032B1FD8DFE803F044
S3150800B020020E1914002101A8FFF7B6FE10230DB170
S3150800B030019A2A6004B1236003B030BD002101A83B
S3150800B040FFF76AFF1123F2E711F0A6FD0190072327
S3150800B050EDE711F09DFD01900223E8E70023E6E7FE
S3150800B0600080005030B583B005460C460023019396
S3150800B0700C4BD3F8703203F00303012B09D0022BD3
S3150800B0800DD115230DB1019A2A6004B1236003B0CE
S3150800B09030BD002101A8FFF73FFF1123F2E7002387
S3150800B0A0F0E700BF0080005038B505460C46124B45
S3150800B0B0D3F8003203F00703013B032B18D8DFE867
S3150800B0C003F0020A0E1211F0ABFD0A2305B128603F
S3150800B0D004B1236038BD11F0A9FD0923F6E711F084
S3150800B0E0A2FD0C23F2E711F023FD800A0F23EDE7FA
S3150800B0F000231846EAE700BF0080005038B5054629
S3150800B1000C46124BD3F8083203F00703013B032B16
S3150800B11018D8DFE803F0020A0E1211F081FD0A239F
S3150800B12005B1286004B1236038BD11F07FFD0923FD
S3150800B130F6E711F078FD0C23F2E711F0F9FC800A26
S3150800B1400F23EDE700231846EAE700BF008000500A
S3150800B15038B505460C460F4BD3F8403203F00303C7
S3150800B160022B0ED0032B10D0012B06D00023184635
S3150800B17005B1286004B1236038BD11F051FD0A23DA
S3150800B180F6E711F053FD0923F2E711F04CFD0C2305
S3150800B190EEE700BF0080005038B505460C460F4B59
S3150800B1A0D3F8603103F00303022B0ED0032B10D023
S3150800B1B0012B06D00023184605B1286004B1236088
S3150800B1C038BD11F02DFD0A23F6E711F02FFD0923EE
S3150800B1D0F2E711F028FD0C23EEE700BF00800050CF
S3150800B1E038B505460C46104BD3F8000100F00300AD
S3150800B1F0032815D8DFE800F002080C10012305B172
S3150800B200286004B1236038BD11F0A8FC0323F6E7D3
S3150800B21011F00CFD0923F2E711F0B8FC0823EEE75C
S3150800B22000231846EBE700BF00800050B0F5207FEA
S3150800B23020D00ED8B0F5007F16D020D810B1B0F5C2
S3150800B240C07F04D10F4B186FC0F3033018E00020FD
S3150800B25016E0B0F5607F05D10A4BD3F88000C0F33D
S3150800B26001100DE000200BE0064BD3F89000C0F368
S3150800B270046005E0034B186FC0F3802000E000204F
S3150800B280013070470080005038B505460C46174B0C
S3150800B2904FF480329A660020FFF7C8FF05FB00F0DE
S3150800B2A0134BDA6902F4803241F67131D9635B686F
S3150800B2B023F440136CB90F49884207D800210B4381
S3150800B2C00B494B600AB10022CA6338BD4FF480119E
S3150800B2D0F5E7002C07DD0849884201D80021EEE78A
S3150800B2E04FF48011EBE74FF44011E8E70090005067
S3150800B2F000000350005A6202002D310108B511F012
S3150800B30029FC0021FFF7C0FF08BD0000430905D04E
S3150800B310012B0ED0022B0ED0002200E0002200F0F6
S3150800B3201F0051B102F58052012303FA00F01060A4
S3150800B3307047034AF3E7034AF1E702F50052F3E7D9
S3150800B340648000506880005010B582B000230193D5
S3150800B3500093B0F5807F00F20781B0F5807F00F298
S3150800B3607A81DFE810F04A017801780178017801DE
S3150800B37078017801780178017801780178017801F7
S3150800B38078017801780178017801780178017801E7
S3150800B39078017801780178017801780178017801D7
S3150800B3A07801780178014A017B014A017B01510144
S3150800B3B051015101510151017B0121013B01A201BA
S3150800B3C0A7013B017B017B017B01780178017801AC
S3150800B3D0780178017801780178017B017B017B018E
S3150800B3E0B10168017B01780178017801780178015B
S3150800B3F07801780178017801780178017801780177
S3150800B40051014A014A014A015D013B013B01AC0178
S3150800B4107001930198017801780178017801780123
S3150800B42012017801780178017801780178017801AC
S3150800B4307801780178017801780178017801780136
S3150800B4407801780178017801780178017801780126
S3150800B4507801780178017801780178017801780116
S3150800B4607801780178017501780178017801780109
S3150800B47078017801780178017801780178017801F6
S3150800B48078017801780178017801780178017801E6
S3150800B49078017801780178017801780178017801D6
S3150800B4A078017801780178017801780178017801C6
S3150800B4B078017801780178017801780178017801B6
S3150800B4C078017801780178017801780178017801A6
S3150800B4D07801780178017801780178017801780196
S3150800B4E07801780178017801780178017801780186
S3150800B4F07801780178017801780178017801780176
