S01E0000636869702D65667233322D6C6F636B2D6578616D706C652E73333774
S3150800600000000420D1180208CD18020881B4060839
S31508006010FD530108CD180208CD180208CD1802084C
S31508006020CD180208CD180208CD180208A165020885
S31508006030CD1802088C0000204165020891DD010890
S31508006040FD1F0108CD180208CD180208CD18020850
S31508006050CD180208CD180208CD180208CD18020876
S31508006060CD180208CD180208CD180208A592000816
S31508006070CD180208CD180208CD180208CD18020856
S31508006080CD180208CD180208CD180208CD18020846
S31508006090CD18020811290108CD180208CD180208E2
S315080060A0CD180208A92A0108812A0108CD18020874
S315080060B0CD180208B55C0B08AD660B0865660B08BB
S315080060C061660B08815E0B08A9660B0869660B08F2
S315080060D081660B086D660B080D670B08ED660B08E5
S315080060E0CD180208CD180208CD180208CD180208E6
S315080060F0FD1C0208CD180208CD180208CD180208A2
S31508006100CD180208CD180208CD180208CD180208C5
S31508006110CD180208CD180208CD180208CD180208B5
S31508006120CD180208CD180208CD180208CD180208A5
S31508006130CD180208CD180208CD180208CD18020895
S31508006140CD1802089D1E0208CD180208655D0108D3
S31508006150A9440B08CD180208DD230B08E3230B0816
S31508006160CD180208CD180208CD180208CD18020865
S3150800617010B5054C237833B9044B13B1044800E035
S3150800618000BF0123237010BD400A00200000000054
S315080061902CA00D0808B5034B1BB10349034800E0C2
S315080061A000BF08BD00000000440A00202CA00D080E
S315080061B0A3F5803A704700BF174B002B08BF134B57
S315080061C09D46FFF7F5FF00218B460F461348144AF4
S315080061D0121AB3F056FC0E4B002B00D098470D4B05
S315080061E0002B00D098470020002104000D000D4820
S315080061F0002802D00C4800E000BFB3F0ADFB200039
S31508006200290002F087FFB3F01DFA00BF000008005E
S31508006210000000000000000000000420400A0020E2
S31508006220DCEB0220000000000000000000207047A0
S31508006230704770472D2070472D2070470020704703
S3150800624070476C207047012070470000044A0260BE
S31508006250044A0260044A0260044A0260704700BFAA
S31508006260B4E50C08C4B30B086CB30B0830B30B08C1
S3150800627010B50446104B036003F13402026103F1C2
S315080062805402026203F16802426203F17C028262EE
S315080062909033C362443046F091FE084BE362084BE4
S315080062A0A362084B6362084B2362084B2361084BC1
S315080062B02360204610BD00BF78660C0810B40B0892
S315080062C0B0B30B0858B30B081CB30B08E0B20B08A5
S315080062D000B30B0838B50546A0F12C04154B40F859
S315080062E02C3C03F1340240F81C2C03F1540240F80C
S315080062F00C2C03F1680240F8082C03F17C0240F8E4
S31508006300042C9033E362183046F058FE0A4BE362D9
S315080063100A4B45F8043C0A4B45F8083C094B45F836
S315080063200C3C094B45F81C3C084B45F82C3C2046D0
S3150800633038BD00BF78660C0810B40B08B0B30B085C
S3150800634058B30B081CB30B08E0B20B0800B30B08D4
S3150800635038B50546A0F12804144B40F8283C03F14B
S31508006360340240F8182C03F1540240F8082C03F1C3
S31508006370680240F8042C03F17C02A2629033436061
S315080063801C3046F01BFE0A4B6B600A4BA3620A4B95
S3150800639045F8043C094B45F8083C094B45F8183CB8
S315080063A0084B45F8283C204638BD00BF78660C08DF
S315080063B010B40B08B0B30B0858B30B081CB30B0882
S315080063C0E0B20B0800B30B0838B50546A0F1240463
S315080063D0134B40F8243C03F1340240F8142C03F123
S315080063E0540240F8042C03F16802626203F17C024D
S315080063F0426090338360203046F0E0FD094BAB6085
S31508006400094B6B60094B6362094B45F8043C094B21
S3150800641045F8143C084B45F8243C204638BD00BFD7
S3150800642078660C0810B40B08B0B30B0858B30B0801
S315080064301CB30B08E0B20B0800B30B0838B50546C9
S31508006440A0F12004124B40F8203C03F1340240F836
S31508006450102C03F15402226203F16802426003F130
S315080064607C0282609033C360243046F0A7FD094B56
S31508006470EB60094BAB60094B6B60094B2362094B18
S3150800648045F8103C084B45F8203C204638BD00BF6F
S3150800649078660C0810B40B08B0B30B0858B30B0891
S315080064A01CB30B08E0B20B0800B30B0838B5054659
S315080064B00446124B40F8103C03F1340244F8102904
S315080064C003F15402226203F16802626203F17C025C
S315080064D0A2629033E362343046F070FD084BE36203
S315080064E0084BA362084B6362084B2362084B23617F
S315080064F0084B45F8103C204638BD00BF78660C08A6
S3150800650010B40B08B0B30B0858B30B081CB30B0830
S31508006510E0B20B0800B30B08032809D8DFE800F03F
S31508006520020A06040448704704487047044870473E
S315080065300448704704487047C0AF0B08ACAF0B0857
S31508006540B4AF0B0890AF0B089CAF0B0805280ED804
S31508006550DFE800F0030F0507090B074870470748EF
S315080065607047074870470748704707487047074805
S3150800657070470748704700BF24B00B08DCAF0B080C
S31508006580F4AF0B0808B00B0814B00B0890AF0B0853
S31508006590D0AF0B0838B5164BD3E88F3F13F0010F71
S315080065A001D0144838BD1248B2F052FB0028F8D082
S315080065B0104C114B2360114B2360114B236020466E
S315080065C0104B40F8043B62252A460021B3F059FADD
S315080065D02A46002104F16600B3F053FA0448B2F0E3
S315080065E043FB094A09492046B2F02BFBD9E700BF0D
S315080065F05C0A0020600A002030B30B086CB30B0855
S31508006600C4B30B08B4E50C08000000204D6200086E
S31508006610012800D070474FF6FF739942FAD130B57A
S3150800662083B0FFF7B7FF014601248DF80440002325
S31508006630ADF806302348244A02600471C38031222B
S315080066408260C3608DF80040ADF802301F4D0561C9
S315080066500475C3828261C3611D4A02621D4A426291
S315080066601D4A82621D4AC2621D4A026002F1340551
S31508006670056102F15405056202F16805456202F1F9
S315080066807C0585629032C2620463416381634FF080
S31508006690FF32C26343648364A0F84C3003654365E4
S315080066A080F8583080F85C3080F8843080F8A5305F
S315080066B080F8A8300164C3630A4A0B49B2F0C1FAEC
S315080066C003B030BD180D002000B30B08E0B20B086C
S315080066D01CB30B0858B30B08B0B30B0810B40B085F
S315080066E078660C08000000207162000810B584B0B6
S315080066F00C4600230093164B164A10210A2018F060
S3150800670057F8154B186090B1144B0293144B01932C
S3150800671001230093104B4FF480621249204618F06B
S31508006720E1FE114B186050B1002004B010BD0F48AF
S3150800673064F066FD40F2017000F0F6FBE4E70C48F1
S3150800674064F05EFD40F2027000F0EEFBECE700BF7D
S31508006750C40C0020240C0020140C00205C0B002024
S31508006760D00D0020FCC30B08180C002034B00B0811
S3150800677058B00B0830B5A7B004460D4629B1334BBF
S315080067801D60334864F03CFD09E0324864F038FD8A
S315080067902F2000F0C9FBF2E70A2019F0ADF803F044
S315080067A059FF0028F8D02C4864F02AFD2B482FF012
S315080067B047F82B4B0093234600220121294819F05C
S315080067C037FD294B186060B3284B009323460122F6
S315080067D00A21274819F02CFD264B186048B326498C
S315080067E0264864F00DFD02F0F4FC2549254802F020
S315080067F00FFD62F037FE0368D3F88430984705AB7F
S315080068000393812304933AF021FA03A93AF0C8F9CD
S31508006810B8B903AB93E8030076F086F9002027B0F1
S3150800682030BD194864F0ECFC40F2047000F07CFBC3
S31508006830CAE7164864F0E4FC40F2047000F074FB02
S31508006840CDE7134864F0DCFCE8E700BF580B0020EE
S3150800685090B00B0874B00B08A4B00B08180D0020F4
S31508006860C56B0008B8B00B081C0C00207569000839
S31508006870DCB00B08540B002004B10B0810B10B0850
S31508006880A0DE0B08380B0020C0B00B08E8B00B08D8
S3150800689030B10B0810B52E4864F089FFC8B92D4BE6
S315080068A01B78022B38D02C4B1B6813B1DB7D002BD1
S315080068B02DD12A4B1B78002B39D0294B1B78002B5E
S315080068C035D0284B1B785BB30121274802F08CFC96
S315080068D022E0264C204667F0E0FA204B1870204646
S315080068E067F0ECFA1E4B1870637C042B14BF002368
S315080068F001231C4A1370204667F09AFA003818BF1D
S3150800690001201B4B1870124864F05BFFC7E7FA2298
S315080069101146154802F0BAFC134802F08DFC10BD6A
S31508006920322240F2B631104802F0B0FCF4E7104BC0
S315080069301B782BB1642211460B4802F0A7FCEBE743
S3150800694040F2B6323221084802F0A0FCE4E700BF64
S3150800695060480220D01D0020580B0020200C002083
S31508006960300B0020500B0020380B0020A089022095
S31508006970210C002008B5FFF78DFF08BD00B583B0D0
S3150800698000220092134603210948006819F096FC74
S3150800699028B1084B00221A7003B05DF804FB0648BC
S315080069A064F02EFC40F2067000F0BEFAF1E700BF74
S315080069B01C0C0020220C002048B10B0810B582B030
S315080069C00446114B186819F007FE78B9642300933A
S315080069D00023224604210C48006819F06FFC0128A0
S315080069E00AD10A4B01221A7002B010BD084864F099
S315080069F007FCFFF7C3FFE9E7064864F001FC40F22D
S31508006A00057000F091FAECE71C0C0020220C00201F
S31508006A1060B10B087CB10B080388012B2BD110B58C
S31508006A20154B1B781BB1154A1278012A05D01BB1E4
S31508006A30124B1B78022B17D010BD40F6B831104800
S31508006A4064F0DEFB40F6B830FFF7B8FF0B4B0222C6
S31508006A501A700C4C0021204602F0C6FB4FF4FA715E
S31508006A60204602F019FCE7E7044B00221A70064894
S31508006A7077F0E8FBE0E77047220C0020D01D0020E5
S31508006A8098B10B08380B0020F889022010B5037955
S31508006A90012B0CD01E4B1B781BB11E4A1278012AFB
S31508006AA015D01BB11B4B1B78022B27D010BD184BDA
S31508006AB01B78002BFAD1174B1B78002BF6D140F622
S31508006AC0B830FFF77BFF134B01221A70EEE7FFF78A
S31508006AD055FF104B00221A700F4867F0DEF948B9C7
S31508006AE00D4C0121204667F08BF90021204667F0FE
S31508006AF08FF9DBE7094864F083FBD7E7FFF73EFF2A
S31508006B00044B00221A70064864F07AFBCEE700BFF1
S31508006B10220C0020D01D0020A0890220D8B10B0825
S31508006B2018B20B0810B582B00B4B1C6818F0C4FDE0
S31508006B300246002300930121204619F0BFFB0128D5
S31508006B4001D102B010BD054864F05AFB40F2057049
S31508006B5000F0EAF9F5E700BF540B002038B20B083D
S31508006B6010B582B0144B1B6813B304461FF098FC8B
S31508006B7080B10023019301AA21460F48006817F047
S31508006B80EFFF019B6BB14FF0E0234FF08052C3F843
S31508006B90042D06E00023012221460748006817F065
S31508006BA0E7FE08B102B010BD044864F029FBF9E716
S31508006BB0034864F025FBF5E7140C002050B20B08D7
S31508006BC080B20B0800B585B00123ADF800300190FE
S31508006BD0034B03936846FFF7C3FF05B05DF804FB54
S31508006BE0196A000808B5CB6813B10846984708BD66
S31508006BF0014864F005FBFAE7A8B20B0810B504468D
S31508006C00124B036003F13402026103F1540202627B
S31508006C1003F16802426203F17C0282629033C36226
S31508006C20443046F0CBF90A4BE3620A4BA3620A4B9F
S31508006C3063620A4B23620A4B23610A4B2360B8211D
S31508006C402046B2F003F8204610BD00BF78660C084F
S31508006C5010B40B08B0B30B0858B30B081CB30B08D9
S31508006C60E0B20B0800B30B0838B50546A0F12C04B2
S31508006C70174B40F82C3C03F1340240F81C2C03F166
S31508006C80540240F80C2C03F1680240F8082C03F172
S31508006C907C0240F8042C9033E362183046F08EF9F3
S31508006CA00C4BE3620C4B45F8043C0C4B45F8083C8E
S31508006CB00B4B45F80C3C0B4B45F81C3C0A4B45F86E
S31508006CC02C3CB8212046B1F0C1FF204638BD00BF94
S31508006CD078660C0810B40B08B0B30B0858B30B0849
S31508006CE01CB30B08E0B20B0800B30B0838B5054611
S31508006CF0A0F12804164B40F8283C03F1340240F86A
S31508006D00182C03F1540240F8082C03F1680240F8E5
S31508006D10042C03F17C02A262903343601C3046F0D7
S31508006D204DF90C4B6B600C4BA3620C4B45F8043CBD
S31508006D300B4B45F8083C0B4B45F8183C0A4B45F8F5
S31508006D40283CB8212046B1F081FF204638BD00BF57
S31508006D5078660C0810B40B08B0B30B0858B30B08C8
S31508006D601CB30B08E0B20B0800B30B0838B5054690
S31508006D70A0F12404154B40F8243C03F1340240F8F2
S31508006D80142C03F1540240F8042C03F168026262E1
S31508006D9003F17C02426090338360203046F00EF99E
S31508006DA00B4BAB600B4B6B600B4B63620B4B45F8A5
S31508006DB0043C0B4B45F8143C0A4B45F8243CB821D7
S31508006DC02046B1F043FF204638BD00BF78660C0860
S31508006DD010B40B08B0B30B0858B30B081CB30B0858
S31508006DE0E0B20B0800B30B0838B50546A0F120043D
S31508006DF0144B40F8203C03F1340240F8102C03F100
S31508006E005402226203F16802426003F17C02826046
S31508006E109033C360243046F0D1F80B4BEB600B4B34
S31508006E20AB600B4B6B600B4B23620B4B45F8103C6E
S31508006E300A4B45F8203CB8212046B1F007FF20460A
S31508006E4038BD00BF78660C0810B40B08B0B30B0841
S31508006E5058B30B081CB30B08E0B20B0800B30B08B9
S31508006E6038B505460446144B40F8103C03F1340285
S31508006E7044F8102903F15402226203F1680262629F
S31508006E8003F17C02A2629033E362343046F096F84E
S31508006E900A4BE3620A4BA3620A4B63620A4B2362FC
S31508006EA00A4B23610A4B45F8103CB8212046B1F03D
S31508006EB0CDFE204638BD00BF78660C0810B40B0816
S31508006EC0B0B30B0858B30B081CB30B08E0B20B0899
S31508006ED000B30B0810B50446064B0360064B036067
S31508006EE0064B0360064B0360D021B1F0AFFE204687
S31508006EF010BD00BFB4E50C08C4B30B086CB30B088F
S31508006F0030B30B0808B54FF6FF710120FFF780FB79
S31508006F1008BD000008B50146024864F071F91FF083
S31508006F20F9FAFEE71CB40B0808B5FFF7F3FF0000F3
S31508006F30124A12F0070F1ED0D11D21F00701C1F524
S31508006F40084313440A460E48026000214160134470
S31508006F50083B23F007030B48036059601960991A28
S31508006F6051601360084B1960084B1960084B4FF0C5
S31508006F7000421A6070474FF40843E4E7D81D002022
S31508006F80ECA50020D41D0020E0A50020DCA50020EB
S31508006F90D8A5002010B500B3044618F085FB54F8B0
S31508006FA0043C0F4A1268134209D054F8081C69B108
S31508006FB01FF0B0FA0B490C48B3F002F9FEE71FF0D0
S31508006FC0A9FA0A490848B3F0FBF8FEE723EA0203E0
S31508006FD0A3F1080418F01AFC00E00024204610BDAE
S31508006FE0D8A5002098B40B087CB40B084CB40B0841
S31508006FF0014B1868704700BFDCA50020014B1868D4
S31508007000704700BFE0A5002008B51FF093F9034BB1
S315080070101A68034B1A601FF09BF908BDDCA500200F
S31508007020E0A50020F8B5074618F03EFB174B1B688D
S3150800703093B14FF0FF3600252C4604E01B68144A2E
S3150800704012689A420CD001345A68AA4200D91546E9
S31508007050B242F3D21646F1E74FF0FF3600252C462A
S3150800706018F0D4FB7D60BE60FC601FF063F9094B25
S315080070701B683B60084B1B687B61084B1B68BB6140
S31508007080074B1B683B611FF063F9F8BDECA50020B0
S31508007090D41D0020DCA50020E4A50020E8A50020DA
S315080070A0E0A5002010B588B00446164B1B6893B1BE
S315080070B0144B1A461B68A342FBD351685018A042CA
S315080070C00DD06168601883420ED02360944200D0C8
S315080070D0146008B010BD01A8FFF7A4FFE8E76068D0
S315080070E0014451601446ECE707480068834206D01D
S315080070F05B681944616013681B682360E6E72060D3
S31508007100E4E700BFECA50020D41D002038B50446EE
S3150800711018F0CAFA3E4B1B68EBB13E4B1B681C4283
S315080071201CD1631E13F10A0F0BD804F1080214F0E0
S31508007130070F05D022F00703083393425AD91A4697
S3150800714082B918F063FB002564F040FD15F0070FBF
S3150800715056D1284638BDFFF7EBFEDEE718F056FB9A
S315080071600025F1E72C4B1B68934202D32B490C6888
S3150800717005E018F04BFB0025E6E721461C46636848
S31508007180934202D22368002BF7D1214B1B68A342F6
S3150800719012D00D68083523680B6063689B1A102B9C
S315080071A012D9A01810F0070F0AD01FF0B3F91C491E
S315080071B01C48B3F005F8FEE718F028FB0025C3E7DE
S315080071C043606260FFF76EFF626813490B689B1A9B
S315080071D00B60154909688B4201D213490B600D4BA8
S315080071E01B681343636000232360104A1368013346
S315080071F0136000E0002518F009FB002DA6D1A3E7CF
S315080072001FF088F90A490748B2F0DAFFFEE700BF1F
S31508007210D41D0020D8A50020DCA50020ECA5002060
S31508007220B8B40B087CB40B08E0A50020E4A5002040
S31508007230F4B40B0838B501FB00F419B1B4FBF1F14D
S3150800724081420AD12046FFF761FF054618B122465A
S315080072500021B2F016FC284638BD0025FBE70000E1
S3150800726080B338B50446A0F1080550F8043C164A20
S315080072701268134209D050F8081C69B11FF04AF980
S3150800728012491348B2F09CFFFEE71FF043F9114973
S315080072900F48B2F095FFFEE723EA020340F8043CE4
S315080072A018F002FA54F8041C0B4A13680B441360CE
S315080072B02846FFF7F7FE094A13680133136018F0EA
S315080072C0A5FA38BD704700BFD8A5002098B40B08AA
S315080072D07CB40B084CB40B08DCA50020E8A50020FC
S315080072E0F8B505460C46FFF755FED8B10746A4B1D2
S315080072F0A04201D12E461AE021460120FFF79AFF47
S315080073000646A0B13A46A74228BF22462946B2F009
S3150800731091FB2846FFF7A4FF09E02846FFF7A0FFE0
S31508007320002604E021460120FFF784FF0646304682
S31508007330F8BD08B50EF039FD15F010FC63F054FFE2
S3150800734008BD10B582B00022ADF8062003689C6817
S315080073500DF10603A047192802D020B1002000E04D
S31508007360012002B010BD0120FBE7052B01D8002043
S3150800737070472F2070470000014B0360704700BF1D
S3150800738054B70B08024A0260024A0260704700BFFF
S3150800739078B70B0854B70B08024A0260024A026023
S315080073A0704700BF64B70B0858B60B08024A02605C
S315080073B0024A0260704700BF34B70B086CB60B0868
S315080073C0034A0260034A0260034A0260704700BF2C
S315080073D070010D08BC000D0800B70B08024A0260D0
S315080073E0024A0260704700BF98040D0820B70B08D0
S315080073F008B502F093FA08BD038848F201029342E1
S3150800740004D048F20202934212D0704790F908203D
S31508007410012AF6D110B5094863F0F2FE58F09CFB34
S3150800742003685C690023064A40F6B831A04710BDD8
S3150800743090F90930012BE8D1ECE700BF34B50B0809
S31508007440F1730008012800D0704708B54FF6FF739E
S31508007450994200D008BD0948094B0360094B0360EF
S31508007460002343608360C3600374436103764376F5
S31508007470054A0649B1F0E5FBECE700BFB0A80020D5
S31508007480C8B60B085CE10C0800000020C1D6060847
S3150800749010B50446034B03603821B1F0D7FB2046EC
S315080074A010BD00BF54B70B0810B50446044B036063
S315080074B0044B03603821B1F0C9FB204610BD00BF5C
S315080074C078B70B0854B70B0810B50446044B03608D
S315080074D0044B03600421B1F0B9FB204610BD00BF80
S315080074E064B70B0858B60B0810B50446044B03607E
S315080074F0044B03600821B1F0A9FB204610BD00BF6C
S3150800750034B70B086CB60B0808B5104B0360D0F8F7
S31508007510F4317BB9D0F8483173B9D0F804316BB976
S31508007520D0F8983063B9436D63B9036963B9084BFA
S31508007530036008BDB2F052F8B2F050F8B2F04EF857
S31508007540B2F04CF8B2F04AF8B2F048F808F30C0872
S31508007550DCB50B0838B504460C4B036043688BB1A1
S31508007560437C4BB9C5683DB135B12B681B682846C5
S315080075709847284662F006F80023E360637423748C
S3150800758023726360024B2360204638BDC0B20C08E4
S31508007590C8B60B08406818B108B563F0C9FD08BD40
S315080075A003207047406858B100B583B04FF0000C0F
S315080075B08DF807C032B163F08DFD03B05DF804FBAA
S315080075C0032070470BB12F20F7E70DF10702F2E70A
S315080075D070B582B00446A54BD3E88F3F13F0010F70
S315080075E03FD0A34BD3E88F3F13F0010F47D0A14BF1
S315080075F0D3E88F3F13F0010F4FD09F4BD3E88F3F4F
S3150800760013F0010F67D09D4BD3E88F3F13F0010F9E
S3150800761000F0CF809A4BD3E88F3F13F0010F00F0AC
S31508007620DC80984BD3E88F3F13F0010F00F0EB8016
S315080076302369002B00F0F680236B002B00F0F780FF
S31508007640636B002B00F006818F4D216928466DF08B
S31508007650AFFA28466CF0B8FA002800F0598102B053
S3150800766070BD8248B1F0F4FA0028BAD07F48B1F06C
S31508007670FBFA864A86498748B1F0E3FAB1E77C48BF
S31508007680B1F0E6FA0028B2D07948B1F0EDFA7F4AAF
S3150800769081498248B1F0D5FAA9E77648B1F0D8FA17
S315080076A00028AAD07E4D7F4B2B607F4B2B60002392
S315080076B06B602B72EB602B616B61AB61EB612B62CC
S315080076C085F824306B48B1F0CFFA704A77492846D6
S315080076D0B1F0B7FA91E76848B1F0BAFA002892D043
S315080076E06948734B036003238380C3800025856044
S315080076F0704B0360C56014230093022300F128022F
S3150800770000F12C01103055F031FF2B46002B01DB20
S31508007710013BFBE7684A142300930223111DA2F1DB
S31508007720180055F023FF0023002B01DB013BFBE784
S31508007730624A282300930223111DA2F1180055F06E
S3150800774015FF0023002B01DB013BFBE75C4A1423F2
S3150800775000930223111DA2F1180055F007FF00231C
S31508007760002B01DB013BFBE7564A48230093022323
S31508007770111DA2F1180055F0F9FE0023002B01DBBC
S31508007780013BFBE7504A2C2300930223111DA2F16B
S31508007790180055F0EBFE0023002B01DB013BFBE74D
S315080077A03548B1F061FA394A48493748B1F049FADB
S315080077B029E73248B1F04CFA00283FF42BAF444D84
S315080077C0444B2B60444B2B602C48B1F04DFA2F4AA2
S315080077D042492846B1F035FA1CE72948B1F038FA8B
S315080077E000283FF41EAF3E4D3E4B2B603E4B2B60B0
S315080077F03E4B2B602248B1F037FA244A3C492846CA
S31508007800B1F01FFA0DE71F48B1F022FA00283FF43D
S315080078100FAF1C48B1F028FA1C4A36493648B1F071
S3150800782010FA05E71B4B354A5A60236104E72269BB
S315080078301A4B5B6833B1032000287FF410AF174B4F
S315080078402363FDE6154B0020187258745A60D860F9
S315080078501874F1E72569124B5B68002B50D003209A
S3150800786000287FF4FCAE0E4B6363EDE6A8A8002063
S31508007870A4A8002078A800200CA6002004A60020B2
S31508007880F8A50020F4A5002010A60020000000207E
S31508007890AD7300081C00002055750008080000207C
S315080078A07CA800208CB60B0818F60C085579000839
S315080078B0DCB50B0808F30C087CA60020C0A600203F
S315080078C02CA7002070A700201CA800200975000816
S315080078D008A6002058B60B0864B70B089973000869
S315080078E0FCA5002000B70B08BC000D0870010D08A8
S315080078F0C1730008DD730008040000205048022008
S315080079000F4E33689B6A3046984775600020A7E794
S315080079100C4BE361236983B10B4A536000200028AE
S315080079207FF49DAE084B63615CF0ACFE2062074BAA
S315080079306362074BA361002091E62F20EFE700BFA3
S315080079407CA8002010A60020FCA50020040000202A
S3150800795008A6002010B50446124B0360436823B1FD
S31508007960104B9B6A98470023636000222262E069F5
S3150800797018B161F007FE0023E3610022A261606985
S3150800798018B161F0FFFD0023636100222261E068FF
S3150800799018B161F0F7FD0023E360034B236020462E
S315080079A010BD00BF18F60C088CB60B0810B5134BA3
S315080079B00360D0F8F431ABB90446D0F848319BB926
S315080079C0D0F8043193B9D0F898308BB9436D8BB998
S315080079D003698BB90A4B03604FF41A71B1F036F993
S315080079E0204610BDB1F0FAFDB1F0F8FDB1F0F6FD94
S315080079F0B1F0F4FDB1F0F2FDB1F0F0FD08F30C08BA
S31508007A00DCB50B0810B50446144B0360436823B174
S31508007A10124B9B6A98470023636000222262E06942
S31508007A2018B161F0AFFD0023E3610022A26160692D
S31508007A3018B161F0A7FD0023636100222261E068A6
S31508007A4018B161F09FFD0023E360054B23602821F0
S31508007A502046B1F0FBF8204610BD00BF18F60C080A
S31508007A608CB60B0838B504460E4B036043688BB1D9
S31508007A70437C4BB9C5683DB135B12B681B682846B0
S31508007A809847284661F07EFD0023E36063742374FB
S31508007A9023726360044B236014212046B1F0D6F8A4
S31508007AA0204638BDC0B20C08C8B60B0838B504461F
S31508007AB03649374811F04AFC364D284663F0A0FB94
S31508007AC02146354863F09CFB284663F099FB39F05C
S31508007AD0BDF8034600B10433184657F0C1FF39F024
S31508007AE0B5F857F0C1FE2D4863F08AFB0021084619
S31508007AF055F0BEFC00B138BD294B1B787BB300207E
S31508007B000028F8D12146274866F08AF9264863F006
S31508007B1047FE264BD3E88F3F13F0010F28D0244D9C
S31508007B20284665F08DFE234C25632046FFF750FD59
S31508007B302146214876F01EFC1B4C204663F041FE88
S31508007B4000221E49204663F051FD1D4863F058FB8C
S31508007B50204663F0F1FE0028CDD10020CBE7104D7A
S31508007B60284663F041FFB0FA80F35B092B70C7E73C
S31508007B700E48B1F06DF80028D1D00C48B1F074F871
S31508007B80104A11490B48B1F05CF8C8E7CDD405088E
S31508007B90C5D405085CB50B0890B50B089CB50B0851
S31508007BA058480220A089022060480220ACA800207C
S31508007BB0B0A8002024000020F8890220F9730008E4
S31508007BC0ACB50B08000000208573000808B563F003
S31508007BD015F808BDB0F5803F2CBF0020012070477E
S31508007BE04068E0B170B584B01D4600238DF80F30AB
S31508007BF0BAB100230293019302AB00932B8863F07A
S31508007C004BFA0446192800D030B9029E3046FFF7D1
S31508007C10E1FF68B900262E80204604B070BD032017
S31508007C2070472B880BB12F20F7E70DF10F02E0E71D
S31508007C30B6B2F0E710B50446054B0360054B036082
S31508007C40054B03600821B1F001F8204610BD00BFBE
S31508007C5070010D08BC000D0800B70B0810B50446E6
S31508007C60044B0360044B03600421B0F0EFFF204689
S31508007C7010BD00BF98040D0820B70B0808B54FF6CD
S31508007C80FF710120FFF7DEFB08BD0000024A026013
S31508007C90024A0260704700BFACBB0B0898BB0B08D2
S31508007CA008B5034A02211D2055F058FD08BD00BF3E
S31508007CB084B70B0808B5034A02211D2055F04EFD6E
S31508007CC008BD00BF94B70B0808B5044A02211D2059
S31508007CD055F044FD024BFF221A7008BDA4B70B08E5
S31508007CE05C00002038B50D46012804D915B9094BA2
S31508007CF001225A7138BD044650B90749074863F04E
S31508007D007FFA211E18BF0121054801F06DFAEDE73B
S31508007D100449F3E704A90020FCC30B08C8B70B08FD
S31508007D20D0A80020C0B70B0808B528B1012807D08D
S31508007D300A4B5B7943B908BD094863F061FAF7E76E
S31508007D40084863F05DFAF3E700220749074863F03D
S31508007D505BFD024B00225A71EDE700BF04A9002023
S31508007D60E8B70B0808B80B08157E0008604802201B
S31508007D7010B5002214460388022B04D033B140F212
S31508007D8003746CB110BD02798168FAE7094800F0FE
S31508007D909CFB10B100210A46F3E700210122F0E717
S31508007DA0044800F0DFFB0028ECD1034863F028FA0A
S31508007DB0E8E700BF0CA900202CB80B0801B300B5F2
S31508007DC085B00846002300930193029303938DF828
S31508007DD004200C4B994205D00B4B98420AD005B0AB
S31508007DE05DF804FB012AF7D1084B03936846FEF7B2
S31508007DF0B7FEF4E7064B03936846FEF7B1FEEEE7D7
S31508007E00704700BF38DE0B0820DE0B08717D0008BE
S31508007E108D6A000810B50A4800F057FB48B10224DD
S31508007E2025F078FB00232246012128F0D2FF10B165
S31508007E3010BD0124F4E70121024863F0E1F9F7E7F0
S31508007E400CA9002058B80B0810B50446044B03606B
S31508007E50044B03600821B0F0F9FE204610BD00BFB0
S31508007E60ACBB0B0898BB0B08012800D070474FF62F
S31508007E70FF739942FAD130B585B00F4D00230393AD
S31508007E8002930E4B0193022300930D4B0D4A0121D9
S31508007E9028462DF0E9F90C4C22460C492846B0F044
S31508007EA0D0FE0B480B4B03600B4B036022460B4975
S31508007EB0B0F0C7FE05B030BDE8A80020E17E000896
S31508007EC0B57C0008A17C000800000020A552030824
S31508007ED004A9002098BB0B08ACBB0B088D7C0008D6
S31508007EE070B50446037D224A13700B2B10D0204B25
S31508007EF01B78FE2B23D015D8022B32D857F02CFE30
S31508007F0003685D6923461B4A41F28831A84770BD5C
S31508007F10837D194A02211D2055F020FCA27D144BB1
S31508007F201A70E4E7FF2B1CD157F016FE03689B690D
S31508007F302246104998470E4BFF221A70E7E757F07A
S31508007F400BFE03689B690B4D22462946984757F056
S31508007F5003FE03685E6923462A464FF47A71B047E2
S31508007F60D5E7064A02211D2055F0F8FBCFE700BFEA
S31508007F705C000020C97C000874B80B08C8B80B0858
S31508007F8010B588B07449FEF7F5FB002840F0A180CB
S31508007F9000248DF80840714863F002FC02A901200C
S31508007FA022F0A2FA8DF8074025F0B4FA0DF107027F
S31508007FB0012126F0B5FC002800F093800023ADF8D7
S31508007FC0043025F0A7FA01AA012125F057FE00285A
S31508007FD000F0918000238DF8033025F09BFA0DF10F
S31508007FE00302012126F0EEFB002800F08E80002314
S31508007FF08DF8023025F08EFA0DF10202012126F0E5
S3150800800023FC002800F08B8000238DF8013025F032
S3150800801081FA0DF10102012126F0CEFD002800F0BB
S3150800802088804E4863F0CDFB9DF808308DF80C30FB
S315080080301BB19DF809308DF80D3004AB002204926F
S31508008040ADF81420BDF80420ADF810209DF80720DF
S315080080508DF812209DF803208DF813209DF8022034
S315080080608DF814209DF801208DF8152093E803005B
S315080080700690ADF81C1008AB13E90C0003A93848A4
S3150800808000F01AF9044600285DD1364A36493448C4
S3150800809000F018FA3549364801F0BAF89DF8083064
S315080080A0002B57D09DF80910022914BF0021012181
S315080080B02F4801F099F800222E49284863F0A4FBBE
S315080080C061F0D0F90368D3F884309847204608B0A1
S315080080D010BD0446284863F093F82046FEF724FFAF
S315080080E056E70123254A19461D2055F037FB052377
S315080080F08DF8073062E70123214A19461D2055F0FD
S315080081002DFB0A23ADF8043064E701231D4A1946FE
S315080081101D2055F023FB0A238DF8033067E701235A
S31508008120194A19461D2055F019FB0A238DF8023005
S315080081306AE70123154A19461D2055F00FFB0A2345
S315080081408DF801306DE7124863F05AF82046FEF7BD
S31508008150EBFE9AE7B1F042FAE8A800206048022050
S315080081600CA90020297D0008E57C0008B8DE0B086C
S31508008170D0A80020157E0008E0B80B0800B90B0847
S3150800818078B90B08E4B90B085CBA0B08D4BA0B0823
S315080081904CBB0B0830B585B004681248FFF7F0FEF3
S315080081A0C0B9FEF7BFFC104863F02AF80F4800F084
S315080081B01DF90A226946204616F0A0FD0128F8D1C5
S315080081C069460848FEF70EFD00226946204616F065
S315080081D095FDF3E70546064863F012F82846FEF7CC
S315080081E0A3FEDEE704A900207CBB0B080CA900202F
S315080081F064BB0B0808B50249FEF778FA08BD00BF4C
S315080082009581000808B54FF6FF710120FFF72CFE8F
S3150800821008BD08B54368987828B901229A709B6802
S3150800822003B1984708BD0228FCD103229A700120A1
S31508008230F5E70000012800D070474FF6FF73994212
S31508008240FAD10921104B06E000221A605A609A609A
S31508008250DA601C3301390029F6DA63220B4B04E095
S315080082600021596099601033013A002AF8DA084B60
S315080082700022A3F8202483F8222483F8232483F8F1
S31508008280242483F82524D7E718A9002030AA00203B
S315080082900CB9002000B585B018F0BAF90123ADF87D
S315080082A000300190034B03936846FEF759FC05B06E
S315080082B05DF804FB1382000830B585B004460D4608
S315080082C002A880E80C0004F5805C04F5A15303C8F5
S315080082D043F8042B1980BCF820340A2B1ED804F561
S315080082E0805393F822340A2B20D804F5805393F848
S315080082F023340A2B21D804F5805393F824340A2B07
S3150800830022D804F5805393F825340A2B23D90A2159
S31508008310204862F075FF40F2077005E00A211E4802
S3150800832062F06EFF40F2077005B030BD0A211B48A7
S3150800833062F066FF40F20770F6E70A21154862F018
S315080083405FFF40F20770EFE70A21124862F058FF14
S3150800835040F20770E8E7124B0093234600220121FA
S31508008360104817F065FF104B186040B12B7863B1C1
S315080083706B78022B0BD00123A3700020D4E70B489F
S3150800838062F03EFF40F20470CEE7B1F027F903230E
S31508008390A370F2E79CBC0B08B8BB0B0824BC0B08FF
S315080083A09582000810BD0B0834BD002018BD0B08C7
S315080083B009298CBF00200120704722B109298CBFEA
S315080083C0002001207047B1FA81F040097047092959
S315080083D08CBF00200120704709298CBF002001208E
S315080083E0704709298CBF00200120704730B583B03B
S315080083F0044601AB4FF48C7200F10C01294862F077
S31508008400B9FA01AB4FF4C86204F59271264862F0D6
S31508008410B1FA01AB642204F60C71244862F0AAFA98
S3150800842001AB4FF4487204F57761214862F0A2FA6D
S3150800843004F58055B5F8202495F8223403FB02F29A
S3150800844001AB920004F5945110311A4862F092FA81
S3150800845095F82324B5F8203403FB02F201AB02EBAE
S31508008460820204F26471144862F084FA95F82424AE
S31508008470B5F8203403FB02F201ABD20004F6BC11B6
S315080084800E4862F077FA95F8252402EB420201AB12
S31508008490920004F66C610A4862F06CFA012003B097
S315080084A030BD00BF1073080011730800127308006E
S315080084B01373080014730800157308001673080070
S315080084C0177308004160826070478078032814BFDC
S315080084D0002001207047000000B583B000220092FA
S315080084E0134603210748006817F0E8FE10B103B0E9
S315080084F05DF804FB044862F083FE40F20670FEF75E
S3150800850013FDF4E734BD002038BD0B0830B583B041
S3150800851005460C46104B186818F05EF860B96423D7
S3150800852000930023224604210B48006817F0C6FE74
S31508008530012808D103B030BD084862F061FE28461C
S31508008540FFF7CAFFEBE7064862F05AFE40F20570ED
S31508008550FEF7EAFCEEE700BF34BD002060B10B0869
S3150800856054BD0B08F8B504460E4615468378012B0C
S3150800857003D0032B05D00020F8BD012AF9D1022724
S3150800858001E065B92F460A212046FFF7BFFFA7700D
S31508008590636833B13146284698470120ECE7002046
S315080085A0EAE70120E8E700002DE9F0418CB0002A4F
S315080085B06AD007460E461D4602F1FF3C1FFA8CF4A8
S315080085C02146FFF7F5FE804600285FD00094334623
S315080085D0304A02211D2055F0C1F8C4EBC40307EB4D
S315080085E0830393F820302B75002B46D0C4EBC403C5
S315080085F007EB8303D9681A690891099208AA92E8D1
S31508008600030085E8030004EB840141F2902202EBA3
S31508008610C1023A4499690A920B9105F108020CA91C
S3150800862011E9030082E80300DA692A6193F8211048
S31508008630697593F822C085F816C00120E87593F885
S3150800864024302B766876C4EBC40407EB840090F8D4
S315080086502600A8766F682C68ED6807900693CDF813
S3150800866014C00491039202950194009733460A4A6E
S3150800867003211D2055F072F808E03346074A032106
S315080086801D2055F06BF801E04FF0000840460CB08D
S31508008690BDE8F08174BD0B08D8BD0B08B4BD0B0846
S315080086A02DE9F04F9BB005460C91144618460D93DC
S315080086B09DF890B0259F9DF89CA09DF8A0909DF8E8
S315080086C0A4802B9E3B6809962A9A0892CDF81C80AE
S315080086D0CDF81890CDF814A0269A04920393CDF8F5
S315080086E008B0019000940B46624A02211D2055F0FD
S315080086F035F8002C00F0B780013CA4B22146284684
S31508008700FFF756FE0B90002800F0AF807B680A2B17
S3150800871046D805F5805393F82234B3424AD304EB7E
S3150800872084035B0003F608732B4410AA97E803003A
S3150800873082E803000DF1480C8CE8030004330E931D
S3150800874010D009231993189108293ED919AB1B682B
S315080087500F931A4612990E98B1F06CF900230E99E8
S315080087600F9A8B547B680E9A14921593C4EBC40324
S3150800877005EB830303F10C0214A903C982E803007D
S31508008780269ADA6183F820A083F8219083F822805C
S3150800879083F826B00D9A83F8242000222A9F28E021
S315080087A000940C9B344A01211D2054F0D7FF002366
S315080087B00B935AE0019600940C9B304A01211D2028
S315080087C054F0CCFF00230B934FE018ABBFE704EB44
S315080087D0840302EB430303F2A44305EB830157F832
S315080087E0220045F82300012005F8230013184B80C2
S315080087F01A46B242EBD304EB840341F2902707EB07
S31508008800C3032B4416931796C4EBC40305EB8303E3
S31508008810143316AA92E8030083E8030005F5805688
S31508008820B6F82024C2EBC202920005F10C011448E6
S3150800883062F0AEF9B6F8202496F8223403FB02F269
S315080088409200E9190F4862F0A3F9642205F60C7143
S315080088500D4862F09DF900940C9B0C4A02211D20DC
S3150800886054F07CFF01E000230B930B981BB0BDE886
S31508008870F08F00BF60BE0B0820BF0B0860BF0B0857
S31508008880107308001473080012730800C4BF0B089D
S31508008890F0B583B005461446089E1F46002B3CD10A
S315080088A01A462146FFF789FD034698B300943B46CE
S315080088B0224A02211D2054F051FF04F1120305EB50
S315080088C003131B79337000941D4A03211D2054F0AD
S315080088D045FF33785BB304F1120205EB02125379B4
S315080088E073700832371D92E8030087E8030005EB2A
S315080088F0041494F83121727394F83321F273012425
S315080089003473B473B26800920E4A03211D2054F0E2
S3150800891025FF2346184603B0F0BD541EA4B21A46D6
S315080089202146FFF74AFD03460028BFD1F2E7064A6B
S3150800893003211D2054F012FF0123EBE7F8BF0B08B3
S3150800894048C00B0894C00B0874C00B082DE9F04FFB
S3150800895087B00546144698469DF840A09DF844B051
S315080089609DF84870DDF84C90002F52D13A462146C2
S31508008970FFF723FD0346002847D0D9F80430CDF881
S315080089800CA0CDF80880019300975B46264A022181
S315080089901D2054F0E3FE04F1120605EB061686F8D0
S315080089A004B0777105EB041383F8318183F833A19A
S315080089B004F5F77405EBC404D9F80420D9F80010B7
S315080089C02046B1F037F8D9F80430049405930836F0
S315080089D006AB13E9030086E8030005F5805393F810
S315080089E02224120105F59271104862F0D1F84FF46D
S315080089F0487205F577610E4862F0CAF83B460D4A9B
S31508008A0002211D2054F0AAFE0123184607B0BDE82E
S31508008A10F08F541EA4B23A462146FFF7CEFC034611
S31508008A200028AAD1F1E700BFC4C00B0811730800DB
S31508008A301373080044C10B0842B370B505463BB32F
S31508008A40511ECEB2013B9CB23146FFF7C0FC08B3BB
S31508008A5021462846FFF7ACFCF0B106EB4603C4EB0B
S31508008A600412920002EB43032B4493F86437ABB12C
S31508008A7006EB460102EB41010D44D5F86537049A29
S31508008A80136095F869371371002002E001207047DA
S31508008A90012070BD0120FCE70120FAE78B20F8E7EA
S31508008AA0002A4CD070B50546002B4AD0511ECEB2CE
S31508008AB0013B9CB23146FFF78AFC002843D0214689
S31508008AC02846FFF775FC08B901203BE006EB46028D
S31508008AD0C4EB04139B0003EB42032B449DF81420BC
S31508008AE083F865279DF8182083F866279DF81C20CB
S31508008AF083F867279DF8202083F868279DF82420A7
S31508008B0083F8692706EB4606C4EB04139B0003EBC0
S31508008B1046032B449DF8102083F8642705F58053F7
S31508008B2093F82324B3F8203403FB02F202EB820203
S31508008B3005F26471054862F02BF8002002E0012076
S31508008B407047012070BD0120FCE700BF15730800BF
S31508008B5042B370B505463BB3511ECEB2013B9CB23B
S31508008B603146FFF739FC08B321462846FFF720FCB3
S31508008B70F0B106EB4603C4EB0412D20002EB830302
S31508008B802B4493F8BC39ABB106EB460102EB8101E5
S31508008B900D4405F51C6595E80300049B83E803006E
S31508008BA0002002E001207047012070BD0120FCE78B
S31508008BB00120FAE78B20F8E7002A3CD070B5054675
S31508008BC0002B3AD0511ECEB2013B9CB23146FFF77C
S31508008BD003FCA0B321462846FFF7EAFB08B90120A3
S31508008BE02CE006EB4602C4EB0413DB0003EB82031E
S31508008BF02B44059AC3F8C029069AC3F8C42906EB7C
S31508008C004606C4EB0413DB0003EB86032B449DF8EE
S31508008C10102083F8BC2905F5805393F82424B3F86B
S31508008C20203403FB02F2D20005F6BC11054861F0B8
S31508008C30AFFF002002E001207047012070BD01202F
S31508008C40FCE700BF16730800BAB170B504461E46A5
S31508008C50551EEDB22946FFF7C4FB80B104EB051398
S31508008C6093F86C3E6BB104EB051404F5676494E85D
S31508008C70070086E80700002070BD01207047012024
S31508008C80FAE78B20F8E7000042B370B505461E46A2
S31508008C90541EE4B22146FFF7A4FB08B9012070BDB3
S31508008CA005EB0413049AC3F8702E059AC3F8742EBC
S31508008CB0E73405EB04149DF81820227283F86C6ECD
S31508008CC005F5805393F8252402EB4202920005F637
S31508008CD06C61034861F05CFF0020E0E70120704703
S31508008CE017730800012906D0022906D009B10448DD
S31508008CF0704704487047044870470448704700BFE7
S31508008D0084C10B0894C10B088CC10B0878C10B08E9
S31508008D102DE9F04784B005460F4690461E460123C6
S31508008D208DF80F300DF10F01384621F018FD96F831
S31508008D300090B9F1000F01D0002434E03B46394ACF
S31508008D4003211D2054F00AFD9DF80F309BB94146BA
S31508008D502846FFF7C7FF03460097334A03211D201D
S31508008D6054F0FCFC24F0D6FB4246394624F010FFAA
S31508008D704FF0010A40E03B462C4A01211D2054F0E1
S31508008D80EDFCCA4638E042B17168DCF80800B0F07C
S31508008D9041FEF0B14FF0000A00E0CA46BAF1000FF2
S31508008DA019D10134E4B2632C2AD804F1120C05EB6C
S31508008DB00C1C9CF80520012AF3D19CF80420002AF3
S31508008DC0EFD0DCF80C20B1688A42DCD04FF0000AFC
S31508008DD0E4E7CA46E2E741462846FFF783FF03462B
S31508008DE00097134A03211D2054F0B8FC24F092FB87
S31508008DF04246394624F0CCFE504604B0BDE8F0871A
S31508008E0041462846FFF76EFF03460097094A0321A5
S31508008E101D2054F0A3FC0C9B01221A704FF0000A87
S31508008E20EAE700BFA8C10B08E4C10B0824C20B0877
S31508008E3074C20B08D8C20B0800B583B0009313465A
S31508008E400122FFF765FF03B05DF804FB00B583B0A8
S31508008E50009313460222FFF75BFF03B05DF804FB9D
S31508008E6008B54FF6FF710120FFF7E4F908BD0000C9
S31508008E702DE9F04182B0984644688568260CA7B269
S31508008E80009733460C4A02211D2054F067FC40F235
S31508008E9001139C4202D002B0BDE8F081002DFAD140
S31508008EA098F80030019300973346044A02211D20A2
S31508008EB054F054FCEFE700BF54C30B0874C30B0807
S31508008EC07047000070B504460D46164603460A4A22
S31508008ED002211D2054F042FC33462A462146074803
S31508008EE0FFF7AAFF044608B9204670BD00220221F2
S31508008EF00248FFF737FBF7E79CC30B080CA90020CD
S31508008F0070B504460D46164603460A4A02211D2038
S31508008F1054F024FC33462A4621460748FFF796FFB5
S31508008F20044608B9204670BD012202210248FFF70F
S31508008F3019FBF7E7C4C30B080CA9002000B583B0DA
S31508008F40009313460A4601460248FFF7A1FC03B000
S31508008F505DF804FB0CA9002010B584B0089C0394A6
S31508008F609DF81C4002949DF81840019400931346FE
S31508008F700A4601460248FFF7E9FC04B010BD00BFE7
S31508008F800CA9002008B513460A4601460148FFF712
S31508008F900BFB08BD0CA9002010B588B0109C0794DF
S31508008FA00F9C06949DF8384005949DF83440049427
S31508008FB09DF8304003940B9C02940A9C01940093FC
S31508008FC013460A4601460248FFF76AFB08B010BD79
S31508008FD00CA9002000B583B0009313460A46014643
S31508008FE00248FFF729FD03B05DF804FB0CA9002031
S31508008FF000B583B0009313460A4601460248FFF7B8
S31508009000A7FD03B05DF804FB0CA9002008B51346BC
S315080090100A4601460148FFF717FE08BD0CA90020BD
S3150800902010B586B09DF8304005949DF82C40049400
S315080090309DF8284003949DF8244002949DF820400A
S315080090400194009313460A4601460248FFF728FD95
S3150800905006B010BD0CA9002010B584B0079C029478
S31508009060069C0194009313460A4601460248FFF7F8
S31508009070A3FD04B010BD00BF0CA9002010B584B034
S315080090809DF81C400294069C0194009313460A46D8
S3150800909001460248FFF7F8FD04B010BD0CA90020F0
S315080090A008B5002202210248FFF75CFA08BD00BF96
S315080090B00CA90020024A0260024A0260704700BFFB
S315080090C0C08C0C085CC40B08012800D0704708B592
S315080090D04FF6FF73994200D008BD034A0349044876
S315080090E0AFF0AFFDF8E700BF00000020B59000081C
S315080090F06000002010B50446044B0360044B03606F
S315080091000821AFF0A3FD204610BD00BFC08C0C0897
S315080091105CC40B0810B5FEF70CF91B48FEF7C6FC35
S3150800912050BB1A4C1A4BD3F8BC12204656F07CFC9E
S31508009130204656F085FC174C204662F031FB70F04D
S3150800914041FC68F031F9204662F03BFB124862F0B8
S3150800915057F81248FFF74EF890B9114862F050F8E0
S315080091600CF02FFE54F098F90E4862F049F8AC203E
S31508009170FDF7DAFE002010BDAC20FDF7D5FED0E7DE
S31508009180AC20FDF7D1FEE8E7F0C30B08600000202D
S31508009190F8B902206048022004C40B0804A900207C
S315080091A018C40B0834C40B0870B50446044D2B6864
S315080091B09E6809F07AF9024621462846B04770BDEE
S315080091C004A9002008B54FF6FF710120FFF77CFFC0
S315080091D008BD08B517F036FE08BD006918B108B510
S315080091E017F0C1FD08BD704708B50023C36083604A
S315080091F000220023C0E90023006910B111B117F05D
S31508009200A8FD08BD17F0AAFDFBE700000000000056
S3150800921008B59FED077B80ED007B00228260C26067
S3150800922001611146FFF7E0FF08BD00BFAFF30080FC
S315080092300000000000000000836823B370B582B008
S315080092400446C368ABB1104B19680B68DB686846FF
S315080092509847009E019D206917F08AFD58B1A168BC
S31508009260236862685B1842F10002B34272EB050399
S3150800927003D302B070BDE168F2E72046FFF7ADFF01
S3150800928026606560F5E770471803002008B5816019
S31508009290C260FFF7D1FF08BD08B50A46FFF7F6FF1B
S315080092A008BD0000014B0422DA6470470020015B08
S315080092B070B504460A694B6952EA03001ED08868ED
S315080092C0C96810EB000C41EB010E1CEB000C41EBDE
S315080092D00E0E4FEA4E1545EADC654FEA4C161CEBB6
S315080092E0060C4EEB050E1CEB000041EB0E01AFF031
S315080092F0E5FF012323706070204670BD00232370AC
S315080093006370F9E7D0E9020170472D2070472D20D8
S31508009310704701207047012070470000024A02602A
S31508009320024A0260704700BFC0B60C087CC50B082D
S3150800933070474FF4806070470023836070470023AE
S3150800934043607047044A026020324260034A426022
S31508009350034A0260704700BFACC60B0898C50B08E5
S3150800936050C50B080346064A40F8042C203240F83C
S315080093700429044A4260044A43F8042C704700BF93
S31508009380ACC60B0898C50B0850C50B08024A026004
S31508009390024A0260704700BFD47E0C0864C60B08F8
S315080093A0024A0260024A0260704700BF347E0C0817
S315080093B0B8C50B0810B50446064B03602033436056
S315080093C0054B4360054B03601021AFF03FFC204678
S315080093D010BD00BFACC60B0898C50B0850C50B08D6
S315080093E010B50446084B40F8043C203344F80439C9
S315080093F0064B6360064B40F8043C10212046AFF04C
S3150800940025FC204610BD00BFACC60B0898C50B0846
S3150800941050C50B0810B50446054B0360006B18B120
S3150800942060F0B0F800232363024B2360204610BD8A
S31508009430E8DF0C08F4C40B0810B50446054B0360B6
S31508009440406B08B156F022FD00236363024B23608C
S31508009450204610BDD8730C0828C50B0810B504465D
S31508009460174B03606433436000F51C7057F0FEFC2D
S3150800947014F5EC7205D004F5147300E0183B9A4213
S31508009480FCD1104BE3672033C4F880300E4BC4F888
S3150800949080300E4BE36704F13800A36D13B1002248
S315080094A0A265984704F10800A36A13B10022A262D4
S315080094B09847074B6360074B2360204610BD00BFE3
S315080094C0187B0C08ACC60B0898C50B0850C50B08CA
S315080094D064C50B0808C60B0838B505460446194B7B
S315080094E040F8043C643344F8043900F51B7057F01F
S315080094F0BDFC15F5EA7205D004F5147300E0183BB7
S315080095009A42FCD1104BE3672033C4F880300F4BE6
S31508009510C4F880300E4BE36704F13800A36D13B12D
S315080095200022A265984704F10800A36A13B1002235
S31508009530A2629847074B6360074B45F8043C2046F0
S3150800954038BD00BF187B0C08ACC60B0898C50B08BD
S3150800955050C50B0864C50B0808C60B080E4BD3E8A4
S315080095608F3F13F0010F01D00C48704710B50A4819
S31508009570AFF06EFB08B9094810BD084C084B2360CC
S31508009580084B23600448AFF06FFB074A074920469B
S31508009590AFF057FBEFE700BF38BD00203CBD002009
S315080095A07CC50B08C0B60C08000000201D930008F7
S315080095B010B50446054A01210C2054F0CFF8E0689E
S315080095C010B103689B68984710BD00BF84C40B0898
S315080095D010B50446054A01210C2054F0BFF8A068CE
S315080095E010B103689B68984710BD00BF84C40B0878
S315080095F030B583B0C068D8B10D4614461A680192D2
S3150800960000221A6001AA214630F008FD019808B127
S3150800961056F03CFC002301930C4B1B680093A3886F
S315080096206BB12B8943F040032B81002003B030BD7A
S31508009630074A01210C2054F091F80020F6E7E38848
S31508009640002BEED12378402BEBD1EEE7E4C60B08CE
S3150800965098C40B0830B583B08068D8B10D46144657
S315080096601A68009200221A606A46214630F0D6FC33
S31508009670009808B156F00AFC002300930C4B1B68AF
S315080096800193A3886BB12B8943F040032B810020FB
S3150800969003B030BD074A01210C2054F05FF80020C2
S315080096A0F6E7E388002BEED12378402BEBD1EEE7E3
S315080096B0E4C60B0898C40B08F0B587B006460C46F6
S315080096C0224A0321152054F049F8B568002D2DD0FB
S315080096D00023ADF810301E4B1B68039323893BB358
S315080096E01C4A1268039253B30123ADF81030277B46
S315080096F0606856F066FB6368059304AB009305AB98
S315080097003A46A168284654F0C5FB0446059808B1B0
S3150800971056F0BCFB002305932CB1B06818B154F081
S31508009720E5F90023B360204607B0F0BD0320FBE748
S315080097306289022AD4D1227B142AD1D1D7E7638938
S31508009740002BD1D1237B402BCED1D0E7CCC40B083C
S31508009750E8C60B08E4C60B08012800D070474FF688
S31508009760FF739942FAD170B58AB04C4B4C4A1A60CD
S315080097704C4A5A604C4A1A6064325A6003F108022D
S31508009780DA609A6000229A62DB6248491963CDF86A
S3150800979004D0CDF800D0089203F13801D963996353
S315080097A09A65DB65424919669A66DA661A6783F826
S315080097B074209A673F49D9673F49C3F880103F49E3
S315080097C0D9672031C3F8801083F8AC20C3F8B820D5
S315080097D0C3F8BC20C3F8C020C3F8C420C3F8C82106
S315080097E0C3F8CC2183F8D021C3F8D421042203F589
S315080097F0EC7303E0002103F8181B013A002AF9DA92
S3150800980026480024C0F850420523C0F8543280F890
S315080098105842C0F87442C0F87842294BC0F87032F2
S3150800982080F87C42274E32462749AFF00AFA32467C
S3150800983026492748AFF005FA324626492648AFF0AA
S3150800984000FA264D264B2B606C602C722846254B59
S3150800985040F8103B75F054FFC5F8D040C5F8D44021
S31508009860C5F8D840C5F8DC4032461F492846AFF04F
S31508009870E8F91E481E4B036000220023C0E90223B4
S31508009880C0E904231B4B03608461C4610463446319
S3150800989032461949AFF0D5F90AB070BD58BE002056
S315080098A008C60B0864C50B08187B0C0825C60308F0
S315080098B09DB0030850C50B0898C50B08ACC60B0825
S315080098C074C20C08000000205D9400088D930008FF
S315080098D068000020A19300087000002040BD002009
S315080098E028C50B08D8730C083994000820BE002038
S315080098F0F4C40B08E8DF0C081594000810B50446F4
S31508009900044B0360044B03600421AFF09FF9204623
S3150800991010BD00BFC0B60C087CC50B08F0B583B0F7
S315080099200F4F384631F002FA0E4901F54053D3F885
S31508009930BC320D4A53600D4E0D4D009533463846E0
S3150800994031F000FF0B4B33610B4C2246394630464B
S3150800995033F028FA094B636325626C6003B0F0BDE7
S3150800996058BE0020F88902206800002070000020F8
S3150800997040BD00208051010020BE0020E0C40B0835
S3150800998010B50446194B03606433436000F51C7038
S3150800999057F06CFA14F5EC7205D004F5147300E070
S315080099A0183B9A42FCD1124BE3672033C4F8803047
S315080099B0104BC4F88030104BE36704F13800A36DF0
S315080099C013B10022A265984704F10800A36A13B1EF
S315080099D00022A2629847094B6360094B23604FF443
S315080099E022712046AFF032F9204610BD187B0C08CC
S315080099F0ACC60B0898C50B0850C50B0864C50B0800
S31508009A0008C60B0838B5054604461B4B40F8043C07
S31508009A10643344F8043900F51B7057F027FA15F536
S31508009A20EA7205D004F5147300E0183B9A42FCD19B
S31508009A30124BE3672033C4F88030114BC4F88030EA
S31508009A40104BE36704F13800A36D13B10022A26539
S31508009A50984704F10800A36A13B10022A262984746
S31508009A60094B6360094B45F8043C4FF422712046C4
S31508009A70AFF0ECF8204638BD187B0C08ACC60B08CE
S31508009A8098C50B0850C50B0864C50B0808C60B0813
S31508009A9010B50446044B0360044B03600821AFF07D
S31508009AA0D5F8204610BD00BFD47E0C0864C60B0846
S31508009AB010B50446044B0360044B03601C21AFF049
S31508009AC0C5F8204610BD00BF347E0C08B8C50B0883
S31508009AD010B50446074B0360406B08B156F0D6F93B
S31508009AE000236363044B2360E0212046AFF0AEF801
S31508009AF0204610BDD8730C0828C50B0810B50446B7
S31508009B00074B0360006B18B15FF03CFD002323632D
S31508009B10044B236038212046AFF098F8204610BD44
S31508009B20E8DF0C08F4C40B0808B54FF6FF710120EE
S31508009B30FFF712FE08BD000010B5A4B04FF40042AE
S31508009B406349644861F05CFB4FF42051624802F0B7
S31508009B507BFAB0F5205F00F281805D495F4861F0CD
S31508009B604FFB312002F01EFB044600287FD15849DE
S31508009B705B4861F045FB5B4B02935B4B019301230A
S31508009B80009300234FF4E0625849594815F0AAFC9F
S31508009B90584B5860002870D04D49574861F030FB43
S31508009BA00021084602F012F9044600286CD14849FB
S31508009BB0524861F025FB802204A9012001F0F0FD3E
S31508009BC0002867D100238DF88F3004AA40494C48F5
S31508009BD061F016FB02F0A4F90446002860D13C495E
S31508009BE0484861F00DFB04F0DBFF062246490220D7
S31508009BF001F0D6FD0446002858D13E4C94F87E3034
S31508009C0094F87F2094F8801094F8810003900291CC
S31508009C100192009394F87D3094F87C202C493B48B7
S31508009C2061F0EEFA3A4814F055FB206039490020F5
S31508009C3001F078FF044600283ED13749062001F096
S31508009C4071FF044600283DD12A4A938943F001034F
S31508009C5093811F49314861F0D3FA05E0044602466C
S31508009C601B492F4861F0CCFA204624B010BD0246A5
S31508009C7017492C4861F0C4FAF6E715492A4861F0F5
S31508009C80BFFA6FF00104EFE702461149274861F071
S31508009C90B7FAE9E722460E49254861F0B1FAE3E743
S31508009CA002460B49234861F0ABFADDE7024608494C
S31508009CB0214861F0A5FAD7E7024605491F4861F031
S31508009CC09FFAD1E7024602491D4861F099FACBE7A7
S31508009CD0DCCC0B08ECC60B0858DE00203CC70B088A
S31508009CE084C70B08E0C0002098C10020A0C70B0855
S31508009CF02DC00008C4DD0020D4C70B0824C80B08F3
S31508009D0080C80B08DCC80B0840DE002030C90B08E9
S31508009D109CDD0020599D0008459D0008D4C90B0804
S31508009D2008C70B0850C70B08A8C70B08ECC70B08D1
S31508009D303CC80B08A0C80B08FCC80B085CC90B0874
S31508009D4094C90B0800B1704708B50B46114618466A
S31508009D5007F0ACFE08BD000010B502460A4CB4F880
S31508009D608E300A490A4861F04BFAB4F88E3001334E
S31508009D70A4F88E30A38923F00803A3812021206844
S31508009D8014F084FB10BD00BFC4DD0020C4CC0B0852
S31508009D90E0C90B0800B5ADF5057D0123009340F237
S31508009DA0022303AA0021204801F01CF90146D8B174
S31508009DB01E4B93F87220531EDBB2012B25D91B4B81
S31508009DC093F87230072B27D0184A92F8723001910F
S31508009DD0009302F1310310321549164861F010FA62
S31508009DE00DF5057D5DF804FB9DF815200F4B83F8EE
S31508009DF072209DF81420DA81DDF83A20C3F8822013
S31508009E00BDF83E20A3F88620D2E70B4B1A70074B05
S31508009E10062283F87220D2E7074B03221A70034BF7
S31508009E200D2283F87220CFE7D4DD0020C4DD0020A0
S31508009E30ACCC0B080CCA0B08BCDD002010B582B0F0
S31508009E40274B9B8913F0180F05D02649264861F041
S31508009E50D7F902B010BD224C94F87230009304F181
S31508009E60310304F110021F49204861F0C9F9A3899A
S31508009E7043F00803A3810EE0194B998921F00801E4
S31508009E809981B3F88E301749194861F0B9F94FF43A
S31508009E907A6015F031FD124AB2F88E3001339BB262
S31508009EA0A2F88E30042B0BD80D48124B00F1310264
S31508009EB090F87210103001F0D5F802460028DBD170
S31508009EC0074BB3F88E30052B05D00B4A05490B48CE
S31508009ED061F096F9BDE71946094861F091F9B8E7C6
S31508009EE0C4DD00209CCC0B0840CA0B0868CA0B08C6
S31508009EF090CA0B08059F0008D4DD0020F0CA0B089D
S31508009F00D0CA0B0810B5044602461A491A4861F029
S31508009F1077F91A4A938923F0080393811C20AFF036
S31508009F205BFD174B18600023036043608360C360C2
S31508009F300361436183619CB1104CB4F88E200D49CE
S31508009F40104861F05DF9B4F88E3001339BB2A4F87D
S31508009F508E30042B0DD82021206814F097FA08E0DB
S31508009F600449094861F04CF90121044B186814F0BA
S31508009F708DFA10BD8CCC0B0818CB0B08C4DD00205D
S31508009F80C0DD00202CCB0B0844CB0B0810B582B0E3
S31508009F9004460E4B1B7880F821300D4BDA8980F881
S31508009FA02820D3F88220C0F82220B3F88630C3844C
S31508009FB001220DF10701032001F0F2FB18B99DF803
S31508009FC007305B42638502B010BD00BFBCDD0020D0
S31508009FD0C4DD002030B589B00446002301930293FE
S31508009FE0039304930593069307931C2201A90A2059
S31508009FF001F0D6FB054608BB134A13681968019B8E
S3150800A0005B1A236013685968029A521A6260996843
S3150800A010039A521AA260D968049A521AE260196918
S3150800A020059A521A22615969069A521A62619A6900
S3150800A030079B9B1AA361284609B030BD0146034811
S3150800A04061F0DEF8F7E700BFC0DD002058CB0B084B
S3150800A05010B588B0002301930293039304930593E4
S3150800A060069307931C2201A90A2001F099FB0446CE
S3150800A07098B90C4B1A68019911601B68029A5A60C4
S3150800A080039A9A60049ADA60059A1A61069A5A61DE
S3150800A090079A9A61204608B010BD0146024861F049
S3150800A0A0AFF8F7E7C0DD002058CB0B0808B501F07C
S3150800A0B037FB08BDF0B5ADF50B7DFFF73DFD002874
S3150800A0C060D107F09FFD15F0F7FA0546002007F066
S3150800A0D0A1FD064600F0F4FA8849894861F090F82F
S3150800A0E0FA2300930023012233218648006814F0DE
S3150800A0F027F9044600284DD1824B9B8913F0100F8F
S3150800A1004ED114F0200F71D114F0010F73D114F051
S3150800A110020F40F0818014F0100FE1D0794B9B8933
S3150800A12013F4806FDCD1754F3946774861F068F8CB
S3150800A13000210D914FF4F8720EA8AFF0A2FC4FF46F
S3150800A140FA720DA9012001F09DFA04464FF4FA733C
S3150800A150024639466D4861F053F8002C00F08E80AF
S3150800A160684CA38923F48063A381636F0020984712
S3150800A17000236367A06F0028B2D0FDF771F80022AC
S3150800A180A267ADE702465D49614861F039F80DF509
S3150800A1900B7DF0BD024659495E4861F031F8ABE7E0
S3150800A1A015F08AFA074605F1FA038342A9D296F80A
S3150800A1B0A430302B01D00546A3E7574B1B780BB1CB
S3150800A1C005469EE7012000F0E1FA534B01221A707A
S3150800A1D0524B1B780BB13D4693E75149104600F0A8
S3150800A1E099FA4E4B01221A703D468AE7FFF7D2FDCF
S3150800A1F0FFF724FE88E741494A4861F001F8414AD9
S3150800A200938943F0100393810023444A1370424A0A
S3150800A210137007F0C5FC7AE73A4A938923F0580386
S3150800A22093813649404860F0EBFF07F0D5FC0020E3
S3150800A23000F0ACFA0023384A1370384A13706AE7FC
S3150800A2403A4860F0DDFF2E2304FB03F30DAA1A44F7
S3150800A250517A8DF82910927A5242ADF83220283375
S3150800A2600DAA1344D3F80620CDF82A205B89ADF849
S3150800A2702E30244B5B6F02A8984701349DF8343082
S3150800A280A3427FF76DAF2E2104FB01F108310DAB18
S3150800A2901944043102A8B0F040F91A4B9B6F002B01
S3150800A2A0CED0234860F0ACFF164F02AAB96F2148FA
S3150800A2B060F0A6FF02A9B86FB0F025F90028DCD136
S3150800A2C01D4860F09DFF2E2304FB03F30DAA1A44D4
S3150800A2D0517A8DF82910927A5242ADF832202833F5
S3150800A2E00DAA1344D3F80620CDF82A205B89ADF8C9
S3150800A2F02E307B6F02A89847BFE700BFECCC0B084F
S3150800A300A4CB0B08C4DD00200CCC0B0820CC0B0812
S3150800A31078CB0B08BCCB0B0898DD002099DD002014
S3150800A32046DE0020DCCB0B08F4CB0B0880CC0B08F0
S3150800A3303CCC0B0850CC0B086CCC0B0808B5034B6F
S3150800A3401B68186A143003F011FD08BDF0270120B8
S3150800A35008B514301844AFF06DFB08BD10B50446B7
S3150800A360002343608360C3600361C1F30B010430BB
S3150800A37003F0D4FE637943F050036371A37943F085
S3150800A3800103A3710E4B18682146243003F09CFD87
S3150800A3900C4C226892F82A3043F0010382F82A30DE
S3150800A3A0012003F0D5FA206847F22471243004F01E
S3150800A3B0E1FB10B900F0CAFC10BD6FF01D00FBE709
S3150800A3C0F0270120F427012010B584B0154B9B898E
S3150800A3D013F4007F19D1134C43F40073A381124977
S3150800A3E0124860F00DFF124B0293124B01930123A2
S3150800A3F0009300234FF400620F49104815F072F8D5
S3150800A400A06040B1002004B010BD07490C4860F0B8
S3150800A410F7FE0020F7E704490A4860F0F1FE01203C
S3150800A420F1E700BFC4DD002064CE0B0814CD0B088D
S3150800A430580601201007012024CD0B08B5A00008F6
S3150800A440FCCC0B082CCD0B08024A938943F08003F9
S3150800A45093817047C4DD0020024B9889C0F3C01071
S3150800A460704700BFC4DD002010B584B00D4AD06F18
S3150800A4700860B2F880308B8092F87E3092F87F10B0
S3150800A48092F8800092F8814003940290019100931B
S3150800A49092F87D3092F87C200349044860F0B0FEBB
S3150800A4A004B010BDC4DD002000CF0B0850CD0B084A
S3150800A4B070B50546084C22460849094860F0A0FED2
S3150800A4C0632229462046AFF0B5FA34F8043C43F037
S3150800A4D0040324F8043C70BDD4DD0020E8CE0B0844
S3150800A4E074CD0B0868B108B5074B9B8913F0040FA8
S3150800A4F001D1002008BD63220449AFF09BFA012070
S3150800A500F8E70020704700BFC4DD0020D4DD002036
S3150800A51010B5084C632200212046AFF0B2FA34F891
S3150800A520043C23F0040324F8043C0349034860F080
S3150800A53067FE10BDD4DD0020CCCE0B0884CD0B08F9
S3150800A54010B50D4B9B8913F0040F0ED00B4C234608
S3150800A550A4F121020A490B4860F052FE202154F862
S3150800A560310C13F093FF002010BD0549064860F032
S3150800A57047FE2320F8E700BFC4DD0020F5DD0020F4
S3150800A580B8CE0B0894CD0B08C8CD0B0808B5024900
S3150800A590024860F035FE08BD9CCE0B08F0CD0B08CE
S3150800A5A010B5084B988910F0100FC0F3001406D0A8
S3150800A5B0054A0649064860F023FE204610BD054AAE
S3150800A5C0F7E700BFC4DD002014CE0B0884CE0B08C5
S3150800A5D020CE0B0810CE0B08044B9B8913F0010FF5
S3150800A5E001D1002070470120704700BFC4DD00205C
S3150800A5F038B5094D2946094860F002FEFFF756FDB1
S3150800A6000446074A938923F010039381294605488F
S3150800A61060F0F6FD204638BD74CE0B0830CE0B0828
S3150800A620C4DD002084CD0B0810B550B9064B9C89B3
S3150800A630C4F3001422460549054860F0E1FD2046AA
S3150800A64010BD0024F6E700BFC4DD002050CE0B087D
S3150800A65040CE0B08024B988900F00100704700BFF6
S3150800A660C4DD002008B5FFF791FC08BD08B5FFF763
S3150800A670B1FC08BD08B5FFF7EBFC08BD38B50E4BB5
S3150800A6805B6F0BB1002038BD05460C4650B1AFF0E4
S3150800A6904CFF0130FCF73AFD074B986750B1294645
S3150800A6A0AFF03BFF044B5C671021186813F0EEFE11
S3150800A6B00120E8E70020E6E7C4DD00207047000037
S3150800A6C010B586B01049114860F09AFD002402942E
S3150800A6D003940494059401238DF80A301023ADF8E9
S3150800A6E0083069462046FFF7BFFE0098CDF81200ED
S3150800A6F0BDF80430ADF8163002AA2146044861F0C8
S3150800A7008DF906B010BD00BF18CF0B0830CE0B0868
S3150800A7105848022030B587B004460D4615491648F4
S3150800A72060F06EFD012C06D022461249134860F0EF
S3150800A73067FD07B030BD0F49114860F061FD002183
S3150800A7400191029103910491059102238DF8063037
S3150800A7501423ADF804300B4BDB89ADF812302868AA
S3150800A7600390AB88ADF8103001AA074861F056F996
S3150800A770DFE700BF2CCF0B0830CE0B0844CF0B0801
S3150800A78064CF0B08C4DD00205848022010B582B0FB
S3150800A79004462249224860F033FD0023019374B130
S3150800A7A001238DF806300423ADF804300DEB0302BF
S3150800A7B001211C4861F032F91CB902B010BD022310
S3150800A7C0EFE7012015F098F8174860F0E9FF174BF6
S3150800A7D0D3E88F3F13F0010F06D0154872F0D2F870
S3150800A7E0114860F0EEFFE8E71048AEF031FA0028AD
S3150800A7F0F3D00F4C00236360A36041F2A452A281F8
S3150800A80041F2AE52E281236123750848AEF02CFA74
S3150800A810084A09492046AEF014FADEE774CF0B0859
S3150800A82030CE0B0858480220604802201027012025
S3150800A8301427012000000020BDA60008052809D11C
S3150800A84008B5054B2022C3F82024044B1B6803B126
S3150800A850984708BD704700BF00E003502C27012029
S3150800A86008B50146024B1860024860F0C9FC08BDED
S3150800A8702C27012084CF0B08024B2022C3F824245E
S3150800A880704700BF00E00350054B4FF000721A6096
S3150800A8904FF080621A60034B2022C3F824247047C5
S3150800A8A000E100E000D0035082B000228DF80020BD
S3150800A8B007238DF801308DF804208DF80530034BF9
S3150800A8C0586CC0F3C01002B0704700BF00C00350F8
S3150800A8D010B582B0044601213A2008F007FD0CB1F4
S3150800A8E002B010BD00208DF8000006218DF8011079
S3150800A8F08DF804008DF80510012304220AF09CF84F
S3150800A900EEE700B1704700B583B08DF80000062168
S3150800A9108DF801108DF804008DF805100123072223
S3150800A9200AF08AF803B05DF804FB000078B982B033
S3150800A93000228DF8002006238DF801308DF80420BA
S3150800A9408DF80530024B40221A6402B070477047F2
S3150800A95000E0035008B50023012B0EDC03EB43028D
S3150800A960064901EB82025268824201D00133F3E7BD
S3150800A97003EB430351F82330984708BD30270120DD
S3150800A98008B514F099FE08BD00B9704708B5034626
S3150800A9904FF47A7000FB03F30348A0FB03308009E9
S3150800A9A014F0AAFF08BD00BFD34D621001294AD092
S3150800A9B0F0B583B00024012C41DC04EB440C254A95
S3150800A9C002EB8C0CDCF804200AB10134F3E7214DC4
S3150800A9D0660004EB440C05EB8C02722757729072E2
S3150800A9E00027D772089A45F82C2060468000083060
S3150800A9F028444FF47A7C0CFB03FC174BA3FB0C3C56
S3150800AA00164B0193164B00933B46CA1B18BF0122EF
S3150800AA104FEA9C11013015F027FC0746344405EB34
S3150800AA208405686090B114F047FE0246002400943D
S3150800AA3023460121384615F041FC204601E06FF017
S3150800AA40050003B0F0BD6FF00E0070476FF005000B
S3150800AA50F7E700BF30270120D34D621048270120B1
S3150800AA6055A9000870B586B002460D460F4E00245B
S3150800AA70346004940E4B03930294019101230093CE
S3150800AA800C4B4FF480110C48006807F026FF04941D
S3150800AA9003940294019500943346084A08490948E4
S3150800AAA0006807F0FFFE06B070BD00BF74270120DE
S3150800AAB03DAB00083C000A507827012044000A50A4
S3150800AAC0010010008027012070B586B00E46144696
S3150800AAD010B30246AA230370552343700123049238
S3150800AAE00F49039100250295019400930D4B4FF4ED
S3150800AAF080110D48006807F0F0FE0495039502954D
S3150800AB000194012300933346084A09490948006815
S3150800AB1007F0C8FE06B070BD0023074ADFE700BF8E
S3150800AB203DAB00083C000A507827012044000A5033
S3150800AB3001001000802701207427012000B583B08A
S3150800AB400023019301A9084B186814F077F8019BB4
S3150800AB502BB14FF0E0234FF08052C3F8042D0120AB
S3150800AB6003B05DF804FB00BF7C27012070B58AB0EE
S3150800AB7001213A2008F0BAFB00248DF80840062186
S3150800AB808DF809108DF80C408DF80D10012304225C
S3150800AB90204609F051FF8DF8104005268DF8116002
S3150800ABA08DF814408DF81560234604223146204658
S3150800ABB009F042FF07F00EFF8DF8184007258DF8BB
S3150800ABC019508DF81C408DF81D502346022229463F
S3150800ABD0204609F031FF8DF820408DF821508DF878
S3150800ABE024408DF8255001230193009432462946C6
S3150800ABF0204609F08DFE0849304607F003FF074B4B
S3150800AC002022C3F82424064B502283F81A2383F8FB
S3150800AC1019230AB070BD00BF3DA8000800E0035024
S3150800AC2000E100E0F0B585B000268DF80060062545
S3150800AC308DF801508DF804608DF805500B4C04F51D
S3150800AC40005340271F640A2014F056FE8DF808604A
S3150800AC508DF809508DF80C608DF80D5004F5805468
S3150800AC602764032014F048FE05B0F0BD00C0035069
S3150800AC7000B583B003230093124B0022114601202E
S3150800AC8013F096FD104B186000231A46194613F068
S3150800AC906FFE0E4B1B68596A0D4A11609A6A0D4B76
S3150800ACA01A600D4860F0ACFAFFF760FF0B4860F0D9
S3150800ACB0A7FAFFF7B7FF0A4860F0A2FA03B05DF8F3
S3150800ACC004FB00BF842701207C27012044010020C3
S3150800ACD08027012078270120A0CF0B08B4CF0B08C6
S3150800ACE0C8CF0B080AB90020704770B505460C4650
S3150800ACF01646144B4FF440629A634FF0FF31124BDD
S3150800AD00186814F09DF801280DD175B13246294608
S3150800AD102046FFF7D9FE4FF0FF310B4B186814F0A9
S3150800AD208FF8012806D0002070BD31462046FFF76F
S3150800AD3099FEF0E700231A4619460348006813F0FF
S3150800AD4017FEF0E700000A507C270120024B1B681B
S3150800AD501B6A5868704700BFF02701202DE9F843A1
S3150800AD601D469D4B1B681C6A2378002B00F02D811D
S3150800AD700646884617462378DBB2042B00F228815C
S3150800AD803DB10121084601F0E1FF8146002840F067
S3150800AD9016812378DBB20A2B00F20281DFE813F072
S3150800ADA008010B005B007B007B007B0008010801A3
S3150800ADB0080108010801E38D13F0010F28D004F1FA
S3150800ADC0140002F0D3FF0146002800F0A9800022F3
S3150800ADD042610283226B4261A28E0283DFF80092EF
S3150800ADE0D9F8002092F8293043F0010382F8293077
S3150800ADF0172003F0D5FAD9F8000047F2945110301D
S3150800AE0003F0B8FEFFF7A2FF8146002840F08F80C6
S3150800AE1004F1140002F0AAFF0146002800F08C8015
S3150800AE2000230375DFF8B891D9F8002092F8293085
S3150800AE3043F0010382F82930112003F0B1FAD9F85A
S3150800AE40000047F29451103003F094FEFFF77EFF9E
S3150800AE508146002877D104F1140002F087FF0146E5
S3150800AE60002875D0DFF87891D9F8002092F82930B3
S3150800AE7043F0010382F82930122003F091FAD9F839
S3150800AE80000048F2E801103003F074FEFFF75EFF99
S3150800AE908146002863D11434204602F067FF014634
S3150800AEA0002861D0DFF83891D9F8002092F82930C7
S3150800AEB043F0010382F82930BE2003F071FAD9F86D
S3150800AEC0000047F29451103003F054FEFFF73EFF9E
S3150800AED0814600284FD1204602F048FF81460028C7
S3150800AEE04ED000F11404322200212046AEF0C9FDEE
S3150800AEF04146204603F022F926B1314609F11800E9
S3150800AF00AFF00BFB89F83F70002D40D0334B1B6820
S3150800AF10C3F898504946132003F042FA814649E09F
S3150800AF200021012001F012FF6FF0030947E000211C
S3150800AF30012001F00BFF42E00021012001F006FF8D
S3150800AF406FF003093BE00021012001F0FFFE36E027
S3150800AF500021012001F0FAFE6FF003092FE000211D
S3150800AF60012001F0F3FE2AE00021012001F0EEFEA7
S3150800AF706FF0030923E00021012001F0E7FE1EE03F
S3150800AF800021012001F0E2FE6FF0030917E0144BDF
S3150800AF901A6892F8293043F0010382F82930B9E794
S3150800AFA085B90021012001F0D1FE6FF0040901E006
S3150800AFB04FF000091DB10021012001F0C7FE4846E7
S3150800AFC0BDE8F8836FF00409F4E76FF00209F6E7C5
S3150800AFD06FF00209F3E700BFF0270120E8270120F8
S3150800AFE0F42701202DE9F0411F461C4B1B681C6AFB
S3150800AFF023786BB305460E46904694F800C05FFA70
S3150800B0008CFCBCF1040F26D80121084601F09EFEEF
S3150800B010034610B11846BDE8F081C4F82480A7623B
S3150800B0200023069A31462846FFF798FE034600286D
S3150800B030F0D10B4B186848F6B801103003F09AFDAA
S3150800B0400021012001F082FEFFF780FE0346E1E7BA
S3150800B0506FF00203DEE76FF00203DBE7F02701205B
S3150800B060F42701202DE9F84F80460D461646B64AC4
S3150800B0701268146A99463BB10121084601F066FE3A
S3150800B0800746002840F0F18205B1C6B12378DBB245
S3150800B090042B1FD8E38E022B23D02378DBB20A2B8E
S3150800B0A000F2D182DFE813F0D9022800710090007F
S3150800B0B0C200D902D902D902D902D902D9020B2D66
S3150800B0C0E4D00A2DE2D00021012001F03FFE6FF006
S3150800B0D00107CAE20021012001F038FE6FF00207DD
S3150800B0E0C3E22B1FDBB2012BD7D90021012001F0C7
S3150800B0F02DFE6FF00107B8E2E38D13F0010F25D09E
S3150800B10004F1140002F032FE0146002800F0EB803C
S3150800B110002242610283226B4261A28E02838B4F18
S3150800B1203A6892F8293043F0010382F8293017204B
S3150800B13003F036F9386847F29451103003F01AFDD7
S3150800B140FFF704FE0746002840F0D48004F11400F7
S3150800B15002F00CFE0146002800F0D1807B4F3A68C9
S3150800B16092F8293043F0010382F82930112003F0C0
S3150800B17017F9386847F29451103003F0FBFCFFF7D3
S3150800B180E5FD0746002840F0C18004F1140002F0EE
S3150800B190EDFD0146002800F0BE806C4F3A6892F833
S3150800B1A0293043F0010382F82930122003F0F8F819
S3150800B1B0386848F2E801103003F0DCFCFFF7C6FDFA
S3150800B1C00746002840F0AE8004F1140002F0CEFDD8
S3150800B1D00746002800F0AB8000216162A162322296
S3150800B1E01430AEF04EFCB8F1000F04D0414607F11A
S3150800B1F01800AFF092F9DFF854A1DAF8002092F8B7
S3150800B200293043F0010382F829303946132003F028
S3150800B210C7F8DAF8000049F64041103003F0AAFCF6
S3150800B220FFF794FD0746002840F08880E38E022B3E
S3150800B23000F08E80092D00F0DB80032D00F01A81C6
S3150800B2406B1EDBB2012B0BD90D2D09D00E2D07D0A5
S3150800B250062D05D00C2D03D0072D01D0082D03D1BE
S3150800B260E38E022B40F03E811434204602F07EFD28
S3150800B2700146002800F0A081002343618361C36171
S3150800B2800362324E326892F8293043F0010382F89D
S3150800B29029306F2003F084F8306847F224711030A3
S3150800B2A003F068FCFFF752FD0746002840F08B8143
S3150800B2B0204602F05BFD0446002800F089817522CD
S3150800B2C000211430AEF0DDFB082D00F08881072D33
S3150800B2D000F0A181A5F10903DBB2022B00F29E81E1
S3150800B2E0002363757DE10021012001F02FFD6FF039
S3150800B2F00307BAE10021012001F028FDB5E100218C
S3150800B300012001F023FD6FF00307AEE100210120C3
S3150800B31001F01CFDA9E10021012001F017FD6FF0E5
S3150800B3200307A2E10021012001F010FD9DE10021A3
S3150800B330012001F00BFD6FF0030796E100210120C3
S3150800B34001F004FD91E100BFF0270120F427012058
S3150800B35004F1140002F00AFD0746002841D04FF414
S3150800B360AB7200211430AEF08CFB334607F1540261
S3150800B37006F1400AD3F800E0D3F804C09868D96803
S3150800B380C2F800E0C2F804C09060D16010331032F1
S3150800B3905345EFD1802206F1400107F19400AEF043
S3150800B3A049FBDFF8D4A2DAF8002092F8293043F0F6
S3150800B3B0010382F8293039464C2002F0F1FFDAF809
S3150800B3C0000048F6B801103003F0D4FBFFF7BEFCC6
S3150800B3D0074600283FF42EAF0021012001F0B6FCF5
S3150800B3E043E10021012001F0B1FC6FF003073CE1C5
S3150800B3F0E38E022B3FF421AF04F1140002F0B6FCF1
S3150800B400074680B34FF0000AC0F814A0C0F818A089
S3150800B410C0F81CA00121143002F080FE514607F145
S3150800B420160002F07BFE32687368BA61FB61924EC1
S3150800B430326892F8293043F0010382F829303946F8
S3150800B440722002F0ADFF30688C49103003F092FB91
S3150800B450FFF77CFC074600283FF406AF514601205B
S3150800B46001F074FC01E10021012001F06FFC6FF08E
S3150800B4700307FAE004F1140002F078FC074650B31B
S3150800B48000F1140A4FF0820B5A4600215046AEF0DE
S3150800B490F8FA5A4631465046AEF0CCFA764E32683D
S3150800B4A092F8293043F0010382F8293039462520DD
S3150800B4B002F076FF306848F6B801103003F05AFB00
S3150800B4C0FFF744FC074600283FF4CEAE00210120D2
S3150800B4D001F03CFCC9E00021012001F037FC6FF0C7
S3150800B4E00307C2E004F1140002F040FC07460028F6
S3150800B4F042D0632200211430AEF0C3FAEB1FDBB250
