S0220000636869702D65667233322D6C69676874696E672D6578616D706C652E733337C3
S21400000000000420ED3C0100E93C0100F9A70500D2
S2140000102D400000E93C0100E93C0100E93C0100FC
S214000020E93C0100E93C0100E93C0100C13F010058
S214000030E93C01008C000020814001004F050100D2
S214000040E93C01006D640900E93C0100E93C01005F
S214000050B95C0900C5640900796409009164090067
S2140000607164090085220000DD230000E93C0100E0
S214000070E93C0100E93C0100E93C0100E93C0100E3
S214000080E93C0100E93C0100F9230000E93C0100DD
S214000090E93C0100E93C0100E93C0100E93C0100C3
S2140000A0E93C0100E93C0100E93C0100E93C0100B3
S2140000B0C964090075640900B948000005650900AF
S2140000C0E93C0100E94B0900E93C0100E93C01007C
S2140000D0E93C0100E93C0100E93C0100E93C010083
S2140000E0E93C0100E93C0100E93C0100E93C010073
S2140000F0E93C0100E93C0100E93C0100E93C010063
S214000100E93C0100E93C0100E93C010010B5054C62
S214000110237833B9044B13B10448AFF300800123AE
S214000120237010BDF807002000000000C4D70A00A6
S21400013008B5034B1BB103490348AFF3008008BD65
S21400014000000000FC070020C4D70A00A3F5803A90
S214000150704700BF174B002B08BF134B9D46FFF799
S214000160F5FF00218B460F461348144A121A9DF0DD
S2140001708FF90E4B002B00D098470D4B002B00D06C
S21400018098470020002104000D000D48002802D0EA
S2140001900C48AFF300809DF0A9F82000290001F07C
S2140001A0E9FA9CF019FF00BF0000080000000000FC
S2140001B00000000000000420F8070020AC08022021
S2140001C000000000000000001FB500230093144A42
S2140001D0144B0C460A20102110F01EFE124B18601D
S2140001E030B912485AF0D2F940F2017000F03CFAE9
S2140001F00F4B02930F4B0193012300930E490A4BBA
S2140002004FF48062204611F07BFB30B90B485AF061
S214000210BDF940F2027000F027FA002004B010BDCD
S214000220FF080020A0090020F4080020B0E709001D
S2140002303C080020F0090020D3E70900D7E70900B2
S21400024030B50446A7B00D4629B929485AF09EF99C
S2140002502F2000F009FA274B27481D60274B0093F4
S21400026000222346012112F0ADFB254B186030B961
S21400027024485AF08BF940F2047000F0F5F9224B4E
S21400028000932248234601220A2112F09BFB204BB2
S214000290186030B91F485AF079F940F2047000F03F
S2140002A0E3F91D491D485AF071F901F0C3FA1C49DB
S2140002B01C4801F0D5FA58F045FE0368D3F88430A0
S2140002C0984705AB039303AC8123049325F076FA95
S2140002D0214625F029FA30B994E8030067F0B8FA09
S2140002E0002027B030BD10485AF050F9F8E700BF9C
S2140002F0F1E70900380800200AE8090015060000A2
S214000300F808002010E80900F10300002AE80900B8
S2140003103408002033E809004DE8090056E80900D3
S214000320C4060A001808002073E8090008B5264825
S2140003305AF095FBC8B125485CF0FCFD244B1870BC
S21400034022485CF0A8FD234B187020485CF003FEA2
S214000350214B187021485CF047FB214B003818BF32
S2140003600120187018485AF083FB1E4B1B78022B8E
S21400037014D01D4B1B6823B1DB7D13B1FA22114646
S21400038014E0134B1B78ABB1124B1B7893B1124B96
S2140003901B7843B11548012101F053FABDE8084027
S2140003A0124801F06BBA322240F2B6310F4801F023
S2140003B08DFAF3E70A4B1B780BB16422DFE740F2B5
S2140003C0B6323221F2E700BFD83A01201881012068
S2140003D0FC080020140800203008002010810120AE
S2140003E0FD080020F019002038080020180800201A
S2140003F0FFF79CBF07B500230A48009300681A461B
S214000400032112F0F9FA30B907485AF0BFF840F263
S214000410067000F029F9054B00221A7003B05DF84B
S21400042004FB00BFF80800208BE80900FE08002047
S21400043037B5104D0446286812F068FC20B10E4807
S2140004405AF0A4F8FFF7D6FF642300932868002329
S2140004502246042112F0D0FA012806D007485AF0A6
S21400046095F840F2057000F0FFF8054B01221A706F
S21400047003B030BDF8080020A3E80900BEE8090074
S214000480FE08002010B50388012B25D1134B1B78DE
S21400049013B3134C2378012B15D140F6B83111480D
S2140004A05AF074F840F6B830FFF7C2FF0E48022341
S2140004B00021237001F0C5F9BDE810400A484FF44A
S2140004C0FA7101F007BA022B06D100232370074801
S2140004D0BDE8104068F052B810BD00BFFE0800200E
S2140004E0F0190020D7E809001808002070B4012091
S2140004F038B50579194B012D1B7809D13BB9184C35
S214000500237823B940F6B830FFF792FF257038BD40
S214000510002BFCD0124C2578012D17D1FFF76AFF6F
S2140005200023104823705CF005FD044648B92946B0
S2140005300D485CF047FA21460B48BDE838405CF0B1
S21400054047BA0A48BDE838405AF020B8022DDED136
S214000550FFF750FF002306482370F3E7FE0800204D
S214000560F0190020188101201081012016E90900E9
S21400057055E9090013B50C4B1C6811F0BBFA0023B3
S214000580024600930121204612F036FA012809D0CF
S214000590064859F0FBFF40F2057002B0BDE8104077
S2140005A000F062B802B010BD3408002075E90900FA
S2140005B007B50146144803680BB3EFF3058353B938
S2140005C00068012210F050FCD8B9104803B05DF85E
S2140005D004EB59F0DBBF00230068019301AA10F07A
S2140005E05FFD019B002BEFD04FF0E0234FF08052D1
S2140005F0C3F8042DBFF34F8FBFF36F8FE4E70448B3
S214000600E4E703B05DF804FBF40800208DE9090078
S214000610BAE909001FB50123ADF800300190044B7C
S21400062003936846FFF7C4FF05B05DF804FB00BF00
S21400063085040000CB68084603B11847014859F006
S214000640A5BF00BFE2E90900014608B5054859F014
S2140006509DFF4FF0300383F31188BFF36F8FBFF316
S2140006604F8FFEE712EA090008B5FFF7EDFF00001E
S21400067010B5044648B311F035FA154A54F8043C50
S214000680106803420CD14FF0300383F31188BFF398
S2140006906F8FBFF34F8F0F490F489DF0EFF9FEE7BE
S2140006A054F8082C62B14FF0300383F31188BFF37F
S2140006B06F8FBFF34F8F094907489DF0DFF9FEE7BC
S2140006C023EA0004083C11F0CFFA204610BD00BF14
S2140006D0F869002042EA090071EA09008AEA09007E
S2140006E0014B1868704700BFFC690020014B186872
S2140006F0704700BF006A002008B513F073FC044B77
S2140007001A68044B1A60BDE8084013F095BC00BF99
S214000710FC690020006A0020F8B5044611F0E2F9F2
S214000720184B1B6843B3184A002511684FF0FF3773
S2140007302E465A681B68954238BF1546974228BF12
S2140007401746994206F10106F3D111F08DFAC4E975
S2140007500157E66013F046FC0C4B1B6823600C4BFD
S2140007601B6863610B4B1B68A3610B4B1B68236103
S214000770BDE8F84013F060BC4FF0FF371D461E463C
S214000780E3E700BF0C6A0020F4190020FC69002093
S214000790046A0020086A0020006A002010B5144B86
S2140007A01B6888B0044613B901A8FFF7B5FF104BC5
S2140007B01A461B68A342FBD3506811188C4201BF2F
S2140007C0616814460918516061686018834208D150
S2140007D008480068834204D05B680B446360136873
S2140007E01B682360944218BF146008B010BD00BF99
S2140007F00C6A0020F4190020F8B5044611F072F9CE
S2140008004249434D0B68CBB9424B434A5E071CBF77
S214000810073323F007030020136050603F4A22F09E
S2140008200702C2E90000D01AC3E900203C4B0A6068
S21400083018603C4B18604FF000432B602B681C423E
S21400084006D011F011FA5AF0A1FA00263046F8BD8B
S214000850631E0A33F5D8600704F1080305D023F0B9
S214000860070208329A42ECD913462E4F3A689A424B
S214000870E7D3294A14686068984201D22068D8B93C
S2140008800968A142DDD02168166811606268D21A34
S214000890102A06F1080616D9E01841070FD04FF0C7
S2140008A0300383F31188BFF36F8FBFF34F8F1E495A
S2140008B01E489DF0E3F8FEE722460446DBE742606A
S2140008C06360FFF76BFF164962683B6808689B1A0F
S2140008D0834238BF0B603B602B681343144A636047
S2140008E00023236013680133136011F0BDF973070A
S2140008F0ACD04FF0300383F31188BFF36F8FBFF394
S2140009004F8F0C4909489DF0B9F8FEE7F41900200E
S214000910F8690020F81900200C6A0020F069002011
S214000920006A0020FC690020AAEA090071EA0900B2
S214000930046A0020E5EA090013B501FB00F219B1CC
S214000940B2FBF1F181420CD110460192FFF754FF41
S214000950044618B1019A00219CF09AFD204602B088
S21400096010BD0024FAE7000010B5044600283AD06F
S2140009701D4A50F8043C126813420CD14FF0300365
S21400098083F31188BFF36F8FBFF34F8F1749184853
S2140009909DF074F8FEE750F8081C61B14FF0300384
S2140009A083F31188BFF36F8FBFF34F8F1149104841
S2140009B09DF064F8FEE723EA020340F8043C11F0D9
S2140009C091F80D4A54F8043C1168A4F108000B4451
S2140009D01360FFF7E3FE094A136801331360BDE8AE
S2140009E0104011F041B910BDF869002042EA090034
S2140009F071EA09008AEA0900FC690020086A0020FA
S214000A00F8B506460C46FFF733FE0746C8B19CB15C
S214000A10A0421CD021460120FFF78EFF054648B1B4
S214000A20A7423A46314628BF22469CF009FD30468A
S214000A30FFF79AFF2846F8BD3046FFF795FF254694
S214000A40F8E721460120BDE8F840FFF775BF3546B8
S214000A50F0E7FFF7D1BEFFF787BF0846FFF7CCBE2B
S214000A600846FFF781BF08461146FFF7C9BF08B51D
S214000A7003F040FF0DF0A0FC59F07CFD26F0B4FA20
S214000A80BDE8084024F0BABF13B5036800229C688E
S214000A90ADF806200DF10603A04719281ABFB0FAD4
S214000AA080F04009012002B010BD052B8CBF2F201E
S214000AB000207047704770477047704770470000C7
S214000AC001485CF07DB900BFBC91012001485CF094
S214000AD07CB900BFBC91012001F010B810B53821D8
S214000AE004469BF073FB204610BD10B50421044657
S214000AF09BF06CFB204610BD10B5082104469BF009
S214000B0065FB204610BD00000D4A0260D0F8F421B7
S214000B1008B50AB19CF04AFAD0F84821002AF9D163
S214000B20D0F80421002AF5D1D0F89820002AF1D177
S214000B30426D002AEED10369002BEBD108BD00BF41
S214000B40A87B0A0038B5094B03604368044653B1D6
S214000B50437C43B9C56835B12B6828461B6898475F
S214000B60284658F085FA204638BD00BF104D0A00CA
S214000B70406808B159F0A2BC0320704713B540681E
S214000B8010B9032002B010BD00248DF8074022B92A
S214000B900BB12F20F6E70DF1070259F063FCF1E7E1
S214000BA030B5406885B01C4610B9032005B030BD8E
S214000BB000251B888DF80B5022B90BB12F20F5E7C6
S214000BC00DF10B020395019503AD009559F02EFC2F
S214000BD0192801D00028E9D1039BB3F5803F28BF30
S214000BE000232380E2E7000010B5038848F20102E4
S214000BF0934212D190F90830012B15D10B4859F0C9
S214000C00C5FC34F043FC0368094A5C6940F6B83119
S214000C10A4460023BDE81040604748F20202934213
S214000C2002D190F90930E7E710BD00BF23EB0900B9
S214000C30D90A000010B50446FFF766FF20464FF4B9
S214000C401A719BF0C3FA204610BD10B50446FFF794
S214000C5079FF204614219BF0B9FA204610BD00000B
S214000C6037B5254B0360142500234FF003120446C6
S214000C70C0E90123C36000F1280200F12C010095B1
S214000C800223103032F094FE04F16C0204F170017D
S214000C900095022304F1540032F08AFE28230093C4
S214000CA004F1B00204F1B401022304F1980032F01A
S214000CB07FFE04F58E7204F590710095022304F50C
S214000CC0827032F075FE4823009304F5B07204F586
S214000CD0B271022304F5A47032F06AFE2C2300934E
S214000CE004F50372022304F5047104F5FA7032F079
S214000CF05FFE204603B030BDA87B0A0008B5094851
S214000D0059F044FC08485CF006FF50B9064801213B
S214000D105CF017FA28B9054859F038FC04485CF02E
S214000D202DF808BD4BEB09001881012069EB09007E
S214000D30BC91012059F004BA10B500230446436064
S214000D40006808B158F094F9204610BD38B5002563
S214000D5004464560006810B158F08AF9256038BD31
S214000D60F8B50546154B45F8143B4368044600F1B4
S214000D701C0700F10C06B3B12846FFF7E7FF38461C
S214000D80FFF7E4FFE36803B9237294F8243023F0F6
S214000D90050384F824303046FFF7D8FF002323727B
S214000DA084F8243063603846FFF7C6FF2846FFF70E
S214000DB0C3FF3046FFF7C0FF2046F8BD507E0A004E
S214000DC010B50446FFF7CCFF204628219BF0FEF91D
S214000DD0204610BDF8B5724D2B78BFF35B8FDF074A
S214000DE004460BD428469BF0F3F938B128469BF00E
S214000DF0FBF96C4A6C496D489BF0E3F96C4D2B7817
S214000E00BFF35B8FDE070BD428469BF0E1F938B1C1
S214000E1028469BF0E9F9634A664967489BF0D1F992
S214000E20664F3D78BFF35B8F15F0010518D1384645
S214000E309BF0CEF9A0B1624E624B35723846C6E9D9
S214000E400035C6E90355C6E90555C6E9075586F8CF
S214000E5024509BF0C9F9534A5B4930469BF0B1F9E0
S214000E605A4D2B78BFF35B8FD8070ED428469BF0DD
S214000E70AFF950B15648FFF7F3FE28469BF0B4F999
S214000E80484A544952489BF09CF9534D2B78BFF37F
S214000E905B8FD9070ED428469BF09AF950B14F4E77
S214000EA04F4B336028469BF09FF93E4A4D493046EB
S214000EB09BF087F94C4D2B78BFF35B8FDA070ED487
S214000EC028469BF085F950B1484E494B336028467A
S214000ED09BF08AF9334A474930469BF072F9464DF3
S214000EE02B78BFF35B8FDB070BD428469BF070F99B
S214000EF038B128469BF078F92A4A404940489BF08A
S214000F0060F923691BB9294B3E4A5A602361236B5B
S214000F1043B9294B5A6852B921691A725960DA6086
S214000F201A822363636BFBB9254D6B680BB10320F4
S214000F30F8BD05F114002669FFF708FF05F11C004F
S214000F40FFF704FFEB6803B92B7295F824302E48A0
S214000F5023F0050385F82430FFF7F8FE00232B72F4
S214000F6085F824306E606563194E2169304662F05C
S214000F7097F8304661F01FFA054608B12846D7E7CD
S214000F802269E6610AB92F20D2E7184B63615A60DE
S214000F9037F08AFC1A4B6362104B2062A361EDE7C0
S214000FA0C86C002000000020B90A00001C000020C9
S214000FB0C46C0020450B000008000020986C002040
S214000FC09C6C0020507E0A00610D00002C6A0020F8
S214000FD0306A0020090B0000246A0020286A0020DE
S214000FE020EC0900B70A0000186A00201C6A0020DE
S214000FF058850A00BB0A0000146A0020BD0A0000DB
S21400100004000020C73A0120A86C002030B53A49F9
S21400101085B00446394808F047FB394859F0B6FA17
S2140010203848214659F0B2FA354859F0AFFA24F05C
S214001030C5FB00B1043034F0D7F924F0BFFB34F020
S214001040EBF8314859F0A2FA0021084632F032FC9B
S21400105000284FD12D4D2B7843B9284659F004FE71
S21400106000280CBF012300232B7043D121462848BB
S2140010705BF0B4FCFFF742FE00283BD1254C264827
S21400108059F0E8FC2378BFF35B8FDB070BD42046D0
S2140010909BF09EF838B120469BF0A6F81F4A2049E0
S2140010A020489BF08EF8204D1E4C28465BF040FBF7
S2140010B020462563FFF78EFE1C4B019300251C4B34
S2140010C01C48029303955BF0C5FE01AB21460390D6
S2140010D01948A36267F032FB0F4859F0C9FC17495C
S2140010E00D482A4659F002FC154859F04FFA0A48AE
S2140010F059F06CFD05B030BD213903001D390300E1
S21400110082EB0900B5EB0900C1EB0900D03A0120DB
S21400111010810120CC6C0020D83A0120000000206D
S214001120B50A000024000020D06C0020C10A000090
S214001130CD0A00001881012070B40120E90B0000E0
S214001140D1EB090010B5082104469BF03FF8204675
S21400115010BD10B5042104469BF038F8204610BD9B
S2140011600648074B03600023C0E90133054A0649D9
S214001170C3600374436103839BF023B8D06C0020E4
S21400118028700A0000000020E9C60500014BFF2277
S2140011901A7070475C0000207047704738B50A4BDD
S2140011A000280CBF0125002508480C46084908BF42
S2140011B0194659F0EBF90748294600F042FB14B9E6
S2140011C0054B01225A7138BD44EC090047EC090072
S2140011D040EC0900086D0020206D002010B5048842
S2140011E0022C06D102798168084800F037FA40B12F
S2140011F010BD002CFCD1054800F0A1F9214602469E
S214001200F2E7BDE81040024859F0C0B9386D00203A
S21400121058EC090030B5154685B00C4681B1102251
S214001220002168469CF034F9094B8DF804509C4226
S21400123008D1012D06D1074B03936846FFF7B8F98E
S21400124005B030BD044B9C42FAD1044BF4E700BF16
S214001250AC060A00DD11000094060A00F104000046
S21400126007B50B4800F06BF901901DF035FB012126
S214001270019A00231DF0BBFB014628B1054803B0C8
S2140012805DF804EB59F082B903B05DF804FB00BFCB
S214001290386D002081EC090010B5082104469AF04C
S2140012A095FF204610BD000070B5037D194D0B2B31
S2140012B02B7004BF837D2B702E78FE2E04460FD035
S2140012C0FF2E1DD0022E23D834F0E0F80368124A11
S2140012D05D6941F288312346AC46BDE87040604700
S2140012E034F0D4F803680C499B692246984734F0DA
S2140012F0CDF80368084A5D694FF47A712346EBE738
S21400130034F0C4F8036804499B69224698472E7057
S21400131070BD00BF5C0000208D11000010B568B9DC
S214001320084859F033F9084C637933B1074908483F
S214001330002259F0BDFB0023637110BD0128F2D1D5
S2140013400448EEE799EC0900206D002061120000C9
S214001350D83A0120A2EC09007047000010B51449E5
S214001360FEF76EFF044628B1124859F00FF92046E2
S214001370FFF77AF9104800F0A7F8044628B10F489E
S21400138059F004F92046FFF76FF90D4A0D490A484F
S21400139000F0D2F80C490D4800F062FA064800F05A
S2140013A0CEF80146094800F04CFA204610BD00BFB2
S2140013B0EC6C0020ACEC0900386D0020CBEC09008A
S2140013C01D1300009D110000DC060A00086D0020B9
S2140013D030B505680F4885B0FFF7C0FF044628B152
S2140013E00D4859F0D3F82046FFF73EF9FFF7C2F84C
S2140013F00A48084C59F0CAF80A22694628460FF0EF
S214001400D7FE0128F8D169462046FFF713F90022D7
S214001410F3E700BF206D0020E3EC0900F9EC0900BB
S2140014200149FEF7D1BE00BFD11300001FB500234F
S214001430CDE902330C4C0D4B0193022300930C4A6A
S2140014400C4B012120461BF0C3FB0B4A0B492046E0
S2140014509AF0B7FE0A480B4B074A0B49036004B0E4
S214001460BDE810409AF0ADBEEC6C0020A91200005A
S21400147099110000591300000000002005CC01005F
S214001480206D002014ED09009B1100001FB511F01F
S2140014905DFC0123ADF80030037D01903BB1074BA6
S2140014A003936846FFF784F805B05DF804FB437DB8
S2140014B00BB1034BF4E7034BF2E700BFBD16000089
S2140014C0E5160000D51500001FB5164B0093044620
S2140014D0034600221448012111F074FA134B1860D9
S2140014E030B9134859F052F840F2047004B010BDF9
S2140014F0104859F0AFFA1DF0EFF90DF10F02012177
S2140015001DF0FEF90B4859F0B3FA9DF80F30002B8A
S2140015104FF0000014BF03230123A3702073206143
S214001520A082E3E78D14000020ED0900506D002036
S21400153029ED0900D83A0120C0E9011270478078E9
S214001540C31E58425841704707B500230A48009307
S21400155000681A46032111F04FFA48B9074859F0B7
S21400156015F840F2067003B05DF804EBFFF77CB8A0
S21400157003B05DF804FB00BF506D002049ED090084
S21400158073B5114E054630680C4611F0BFFB28B106
S2140015900E4858F0FBFF2846FFF7D6FF642300935B
S2140015A0306800232246042111F026FA012809D0CB
S2140015B0074858F0EBFF40F2057002B0BDE87040F7
S2140015C0FFF752B802B070BD506D0020A3E80900C6
S2140015D063ED090038B54468A378BBB90125A5704A
S2140015E0A3680BB128469847237BABB1A5B92369FE
S2140015F04FF47A7159432046FFF7C2FF0123237543
S21400160021690648BDE8384058F0C0BF022B03D118
S2140016100323A3700025E3E738BD00BF84ED09006F
S214001620027A437A5AB9012B11D9022B14BF002132
S2140016304FF44851084801234375FFF7A1BF012A1C
S21400164008D1002B40F2DC5118BF0021F2E74FF41E
S2140016504871EFE70021EDE7386D0020F8B5837894
S214001660012B04460F46164624D0457D05B1FAB137
S214001670032B21D1012E1FD1F5B9237D23B11DB92E
S21400168025752046FFF760FF637D2BB125B1204608
S214001690FFF75AFF002363750A212046FFF770FF05
S2140016A06368A57013B13946304698470120F8BDE7
S2140016B00225E2E7002AFBD00020F8E710B54468D0
S2140016C0237D5BB100230648237558F05FFF012297
S2140016D020461146BDE81040FFF7C0BF10BD00BF52
S2140016E0BBED090010B54468637D5BB10023064876
S2140016F0637558F04BFF012220461146BDE81040A6
S214001700FFF7ACBF10BD00BFDDED090013B5084CF8
S214001710084A00230093012120461DF079FB064A63
S2140017200649204602B0BDE810409AF04ABD00BF08
S214001730286D002021160000000000202DEE01007C
S2140017404268062A09D182683AB91A780348B2FA7A
S21400175082F252090221FFF781BF7047386D0020E0
S2140017607047704710B5082104469AF02FFD2046B2
S21400177010BD000008B5FFF77AF91948FFF746FCD8
S21400178010B1AC20FEF770FF164B1748D3F85C1F5D
S21400179033F00DFE144833F017FE144859F05AF98A
S2140017A064F00EF85FF062F8104859F061F91048DE
S2140017B058F0ECFE0F48FFF733FE10B1AC20FEF7F2
S2140017C053FF0D4858F0E2FE03F0A1F832F08CF813
S2140017D00A4858F0DBFEAC20FEF746FF002008BDA6
S2140017E0F1ED090070D4012060000020D83A0120F5
S2140017F0FEED0900206D002010EE09002CEE090019
S214001800024A034903489AF0DCBC00BF00000020EF
S214001810631700006000002007B5019000F029FC67
S21400182001990246024803B05DF804EBFFF7F2BCEC
S214001830206D002011F0CCBB006908B111F059BB37
S21400184070470023C0E9023300220023C0E90023CA
S214001850006920B109B111F046BB11F047BB7047D3
S21400186030B4002200240025C0E90045016130BCE8
S214001870C0E902221146FFF7E4BF000073B5836893
S2140018800446FBB1C368EBB10F4B19680B6868469A
S214001890DB6898472069DDE9006511F02DFBD4E987
S2140018A00232002808BF1346D4E900125B1842F142
S2140018B00002B34272EB050304D22046FFF7BCFFDA
S2140018C0C4E9006502B070BDD8020020C0E902126B
S2140018D0FFF7D4BFC0E90211FFF7D0BF70B5D1E95A
S2140018E00423044652EA03000DD08868CE686425B7
S2140018F0A0FB050105FB06119BF0D6F9012323701A
S2140019006070204670BD002323706370F9E7D0E94D
S21400191002017047704700238360704700234360CE
S21400192070477047043870477047704710B51021ED
S21400193004469AF04BFC204610BDA0F10400F5E7E3
S21400194010B5044B03600446006B08B157F090FBDB
S214001950204610BDB46E0A0010B50446064A0C2098
S214001960012132F003F9E06820B10368BDE81040B9
S2140019709B68184710BD00BF49EE0900A0F104009F
S214001980EAE700BF38B50B4C2378BFF35B8FDB0765
S2140019900ED420469AF01CFC50B1074D074B2B6026
S2140019A020469AF021FC064A064928469AF009FC89
S2140019B0014838BD546D0020586D0020B0500A0014
S2140019C000000020151900000C4B10B503600446FB
S2140019D06433436000F51C7034F0F0FCA36D23B153
S2140019E00022A26504F138009847A36A23B10022BA
S2140019F0A26204F108009847204610BD38360A0057
S214001A00A0F10400E0E700BF10B50446006808B186
S214001A1033F0ECFE204610BD10B5044B044640F8EB
S214001A20343BFFF7F1FF204610BD00BF84320A00AA
S214001A3037B5C0680D46144638B90F4A01210C2048
S214001A4032F094F8002003B030BD1A6801920022EC
S214001A501A60214601AA1FF08DF901A8FFF7D4FFEE
S214001A60A38823B9E38813B92378402BEAD02B89BF
S214001A7043F040032B81E5E75CEE0900A0F104008B
S214001A80D6E700BFF0B5876885B005460C4617B99F
S214001A90032005B0F0BD0023ADF808300B890E7B9F
S214001AA023B94B89022B1ED1142E02D00123ADF888
S214001AB00830606833F014FE6368039302AB00934B
S214001AC0A16803AB3246384632F008FB044603A84A
S214001AD0FFF79AFF2CB1A86818B132F097FA0023E6
S214001AE0AB602046D5E7002BE0D1402EDDE710B5F1
S214001AF0042104469AF06AFB204610BDF7B5104F45
S214001B00104E114C114D38461FF09CFC1049114ADE
S214001B1001F500533846D3F85C3F536033460095D2
S214001B201FF0F4FE0C4B336122463946304621F056
S214001B3005F90A4B636325626C6003B0F0BD00BF15
S214001B40786E002070000020406E0020606D00203F
S214001B5070B4012068000020805101008FEE09005B
S214001B6010B50446FFF730FF20464FF422719AF076
S214001B702DFB204610BDA0F10400F1E710B50821AA
S214001B8004469AF023FB204610BD10B51C210446DF
S214001B909AF01CFB204610BD10B50446FFF73CFF2C
S214001BA02046E0219AF012FB204610BD10B50446F0
S214001BB0FFF7C6FE204638219AF008FB204610BDE7
S214001BC0F8B53C483C4B03606433436000F10803BF
S214001BD0C0E90233394B036300F13803C0E90E3322
S214001BE0374B0366374BC36720330024C0F880307A
S214001BF00523C0E90A40C0E91640C0E91A44C0E916
S214001C002E44C0E93044C0E97244046780F874404A
S214001C10846780F8AC4080F8D041C0F8D44180F8A2
S214001C20D84180F8F04180F8084280F82042C0F899
S214001C305432254BC0F87032C0E99D44234A2449EB
S214001C4080F83842C0F8504280F8584280F87C420B
S214001C50204D9AF0B6FA1D4A1F4920489AF0B1FA6C
S214001C601A4A1F491F489AF0ACFA28461E4B40F8FD
S214001C70103B6C602C7267F093FA144A1B49284696
S214001C80C5E93444C5E936449AF09BFA1848194B1E
S214001C90036000260027C0E90267C0E90467C0E9C0
S214001CA00644C0E90C44094A1349BDE8F8409AF0D6
S214001CB088BA00BF786E002038360A004128020035
S214001CC059160200A0EE090018570A00000000206E
S214001CD0C9190000606D0020291900006800002066
S214001CE02B1900007000002084320A00191A000028
S214001CF0406E0020B46E0A004119000008B50023AB
S214001D0018460422052101F035FE002008BD00001B
S214001D1008B50548012100F0ABFC11F049F8BDE814
S214001D20084011F057BF00BF00350A0001480121E6
S214001D3000F09EBC00350A0010B50D4BD3F82828DD
S214001D40A2F17E63A3F58433B3F5104F0AD2094C93
S214001D50237813F0FD0F08D1D369984708B90123FB
S214001D60237010BD4FF48170FBE70020F9E700BF39
S214001D700000E10F007100204FF000530B4A1A607C
S214001D800B4A01239360136823F4E06343F48063F3
S214001D901360BFF34F8F0749074BCA6802F4E0622F
S214001DA01343CB60BFF34F8F00BFFDE702020FF077
S214001DB000500E4000ED00E00400FA050A4BD3F890
S214001DC02828A2F17E63A3F58433B3F5104F09D219
S214001DD0126BA2F17E63A3F58433B3F5104F01D2E4
S214001DE053681847704700BF0000E10F0B4BD3F84D
S214001DF02828A2F17E63A3F58433B3F5104F09D2E9
S214001E00126BA2F17E63A3F58433B3F5104F01D2B3
S214001E10936818474FF48170704700BF0000E10FC9
S214001E2007B50E4B0190D3F82828A2F17E63A3F5E0
S214001E308433B3F5104F0ED2126BA2F17E63A3F576
S214001E408433B3F5104F06D29369012101A8984751
S214001E5003B05DF804FB4FF48170F9E70000E10F72
S214001E6010B40A4BD3F82848A4F17E63A3F5843354
S214001E70B3F5104F05D2236B1BB15B6A5DF8044BBC
S214001E8018474FF401705DF8044B70470000E10FEF
S214001E900B4BD3F82828A2F17E63A3F58433B3F561
S214001EA0104F09D2126BA2F17E63A3F58433B3F50B
S214001EB0104F01D2936A18474FF40170704700BF65
S214001EC00000E10F70B5134BD3F82838A3F17E63FA
S214001ED0A3F58433B3F5104FE0B00D4616D24FF499
S214001EE0C0726946FFF7BCFF044660B940F201269F
S214001EF029466846FFF7CCFFB042F9D040F20323EC
S214001F00984218BF0446204660B070BD4FF4017476
S214001F10F9E700BF0000E10F10B40D4BD3F82848D6
S214001F20A4F17E63A3F58433B3F5104F0BD2246B74
S214001F30A4F17E63A3F58433B3F5104F03D2A36BED
S214001F405DF8044B184740F201105DF8044B7047EB
S214001F500000E10F0B4BD3F82828A2F17E63A3F50F
S214001F608433B3F5104F09D2126BA2F17E63A3F54A
S214001F708433B3F5104F01D2D36B184740F20110EB
S214001F80704700BF0000E10F2DE9F0439946334B40
S214001F901746D3F82828A2F17E63A3F58433B3F559
S214001FA0104F91B005460E464FD2136BA3F17E63D9
S214001FB0A3F58433B3F5104F47D203A8FFF7FEFE10
S214001FC0079BDC68A3B2002B42D001A92846FFF786
S214001FD00DFF00BB029B06EB09059D423BD8A1B254
S214001FE0B6FBF1F401FB1463DDF80480D3B1B5FB56
S214001FF0F1F24C4201FB125204EA060001EB080C17
S21400200062B12C40211A6044D1B94A46394608EBE1
S2140020100600FFF781FF11B0BDE8F083A9EB0104CD
S214002020E118F0E7B9FBF1F301FB139308EB0600A8
S21400203023B14C4204EA09042144E5E74946E3E7B4
S214002040FFF788FF0028E0D0E5E74FF48170E2E76D
S21400205040F20140DFE740F20240DCE70000E10F1B
S21400206003680B6001607047436803B1184722207D
S2140020707047436903B11847FF20704730221C237E
S21400208002FB003000F1047000F5204001EBC001B7
S21400209089000868704738B50D682B78022B0C4607
S2140020A00CD069792879FFF7E9FFB0FA80F040098B
S2140020B028702046BDE83840FFF7AEBB38BD0000AC
S2140020C037B5046801210546124800F0D1FA00230E
S2140020D061792079012201F04DFC61792079FFF7C2
S2140020E0CDFFB0FA80F35B092370A379022B0ED1E3
S2140020F000F01EF9084960792A4600F043F90123EA
S214002100617902462079CDE9003301F0EDFB00202D
S21400211003B030BD00350A00972000000368187829
S214002120704710B504682378022B15D061792079A2
S214002130FFF7A4FFA279012A15D10038638818BFDB
S214002140012040EA430363F03F039BB24FF6E07181
S2140021508B4202D12270638010BD4FF6DF7293422D
S214002160F9D10022F6E7002AF6D1B0FA80F040094D
S2140021702070F1E703681A78022A03D100225A80F9
S214002180FFF79EBF704713B504682378022B10D064
S214002190A379022B0BD16079002100F0E1F8627977
S2140021A020790023CDE90033114601F09DFB022380
S2140021B0237002B010BD000038B5124B1B780546E0
S2140021C0DBB1E0B100F0F7FE0F4A00231146147BA6
S2140021D054B92B601A0101EB031301258C501D73B3
S2140021E000F0EFFE204638BD0133082B02F1100246
S2140021F0EDD100F0E6FE0548F5E70548F3E70548AB
S214002200F1E700BF8472002004710020048000F013
S214002210028000F0018000F013B5164B186801909C
S21400222000238DF8043000F0C6FE134B1C7824B152
S21400223000F0C7FE114802B010BD01221A7000F06F
S214002240C0FE0F4B1C731C7783F82C4083F83C4071
S21400225083F84C4083F85C4083F86C4083F87C40FD
S21400226004230DEB03008DF8073001F0BFFB20467A
S214002270E1E700BFD8EE090084720020038000F07A
S214002280047100202DE9F843DFF86480D8F8607008
S214002290D8F86C301F4000D5FEE7144CDFF8549099
S2140022A001260025374217D0C8F8686023689BB11E
S2140022B0A16862680131A16028469847637B012BBC
S2140022C00AD148B909EB45131A7B60F341021A7329
S2140022D01A7F60F341021A770135082D4FEA460649
S2140022E004F11004DED1BDE8F88300BF04710020BD
S2140022F000200E408471002070B50C4E0446012567
S21400230004B970BD94FAA4F0B0FA80F006EB00129F
S21400231005FA00F324EA03045368002BF0D0117B7F
S21400232011B191689847EBE79847E9E78872002073
S21400233008B5122000F048FE28B1084B4FF4802262
S214002340C3F880211A600A2000F03EFE28B1034B35
S2140023504FF48062C3F880211A6008BD00E100E0F7
S21400236038B505460C4600F026FE054B03EB051374
S21400237000225C601A73BDE8384000F022BE00BF41
S21400238088720020F8B505460F46164600F013FE84
S214002390104B05F0FC02D3F828140023EC1804F0C8
S2140023A00304144321FA04FC1CF0010F07D0013388
S2140023B0042BF3D1FF2400F004FE2046F8BDFF2CCA
S2140023C0F9D0054B03EB04130122C3E901761A7317
S2140023D0F1E700BF00A0004088720020054BD3F84C
S2140023E02804D3F81C24104000F05530C3F8240409
S2140023F0FFF782BF00A00040054BD3F82804D3F8AF
S2140024001C24104000F0AA30C3F82404FFF774BF61
S21400241000A00040024B1968024B186899F002B9F8
S214002420E0000020DC0000207047000037B5920076
S21400243004460D46019201F0E7FB431C0BD060B941
S214002440019A294620469AF0EBFF0028044808BF68
S214002450002003B030BD0348FBE70348F9E700BFA0
S21400246010E000F021E000F024E000F013B5044690
S21400247001A801F073FC9DF80630238040F201139A
S2140024806380074BD3F8E4301B0E0A33012203F0B7
S2140024901F0302FA03F30020636002B010BD00BF02
S2140024A00081E00F01F0DCBA08B501F0C9FA00209F
S2140024B008BD10B5044644EA010313F003030846BA
S2140024C009D1934201D1002010BD54F8231040F8E2
S2140024D023100133F5E7920021469AF0B1FFF2E7A8
S2140024E010B5044601F042FB431C17D0C0B90D4B93
S2140024F0D3F8E4301B0E0A3303F01F020123934087
S21400250023F0030320462344984201D1002010BD47
S21400251050F8042B0132F7D00348F8E70348F6E7F3
S2140025200348F4E70081E00F0EE000F021E000F041
S21400253024E000F008B500F037FD014B186008BD38
S214002540F8770020014B186800F032BDF8770020BD
S214002550704700000C4B984210D90C4B984210D98B
S214002560022201230A490B640A49D1F8003123F0FC
S214002570807343EA0263C1F80031704700221346B5
S214002580F0E70122FBE700BF0048E8010090D00317
S2140025900000C84300400E4030B50F4B5B680F4B41
S2140025A000221C46C9B21D798D4202D11D688542A3
S2140025B00DD20132052A03F10803F4D1032206499D
S2140025C04B6823F0407343EA02634B6030BD04EB74
S2140025D0C2025279F3E700BF00000E402CEF09005C
S2140025E070B5084C41F67136256C266411F0AEFBCA
S2140025F00021FFF7D1FFADB2B5421CBF0023236414
S21400260070BD00BF00000E40044BDB6B5B0604D4BD
S214002610034AD2F8C830002BFBD1704700300E407A
S2140026200000C64308B5FFF7EFFF024B5868C0F33B
S214002630014008BD00300E40044BD3F84421D207B9
S21400264003D4D3F840211042FBD1704700400E401F
S21400265070B5064C41F67136256C2664FFF79CFF74
S214002660ADB2B5421CBF0023236470BD00000E400F
S21400267038B5C0F30323013B092B16D8DFE803F077
S2140026802616151505191C151F23124C0023C0F31A
S214002690043513B11846FFF7CFFF04F1424404F5A2
S2140026A0801405EBC404A400216038BD0A4C002346
S2140026B0EDE70A4C0123EAE7094C1023E7E7094C4B
S2140026C04FF48033E3E7084C0023E0E7074C002391
S2140026D0DDE700BFB0400E40C0400E40E0400E4078
S2140026E0E8400E40F0400E4050410E4000400E4084
S2140026F0C0F30313013B092B2AD8DFE803F0050BD0
S2140027000F1929291F23374B274BD3F80001C0F395
S21400271004207047244BD3F81401F8E7224BD3F873
S2140027200001C0F30060431C012098400138704748
S2140027301D4BD3F80C01C0F3082070471A4BD3F892
S2140027400801F8E7194B984204D0194B984207D075
S21400275000207047144BD3F8203103F00F03E3E753
S214002760114BD3F82031C3F30113DDE7114B984228
S2140027700CD003F5B01303F580539842E8D10A4B0A
S214002780D3F82801C0F30120031DCDE7064BD3F88C
S2140027902831E8E7084B9842DAD1034BD3F83001EA
S2140027A000F00300704700BF00400E408006160091
S2140027B080162E0090171A00A009140008B5FFF71F
S2140027C097FF013008BD000000F00F000138072811
S2140027D044D8DFE800F0040F1943232D4335244B7B
S2140027E0D3F8943003F00703023B052B38D8214A70
S2140027F0D05C70471E4BD3F8803003F00703013BD4
S214002800032B2FD81C4AF3E7194BD3F8843003F078
S2140028100703013B032B25D8184AE9E7144BD3F8E6
S214002820883003F00703013B032B1BD8144ADFE76D
S2140028300F4B1B6F13F0010F0CBF072009207047CA
S2140028400B4BD3F85C3103F03003202B0CD0302B2D
S2140028500CD0102B14BF01200720704700207047B3
S21400286005207047012070470420704708207047F5
S21400287000400E4000EF090006EF09000AEF0900CD
S21400288006EF090008B50146FFF79EFF1A4B99426E
S21400289011D01A4B994212D0194B994204D1194BB8
S2140028A0D3F8800000F007000138032821D8DFE8BD
S2140028B000F00A0E1612134BD3F88400F2E7114B01
S2140028C0D3F88800EEE7BDE8084011F0A3BABDE8EB
S2140028D0084011F0A5BABDE8084011F09EBA11F004
S2140028E039FA084BD3F80031C3F300630133D840FC
S2140028F008BD0020FCE700BF030020000500240000
S21400290002001E0000400E4000F47813B3F5B01F1E
S21400291010B5044674D025D8B3F5402F5ED010D835
S214002920B3F5802F49D005D83BB1B3F5003F4FD063
S214002930002010BDB3F5202FFAD1BDE8104011F0ED
S21400294009BAB3F5801F00F08480B3F5A01F4DD000
S214002950B3F5602FECD14A48FFF736FF072878D04A
S2140029600928E9E7B3F5381F53D013D8B3F5001F8D
S21400297058D00AD8B3F5D01F56D0B3F5F01FD7D12C
S2140029804048BDE81040FFF77DBFB3F5101FCFD11C
S2140029903D48F6E7B3F5481F4DD0B3F5781F65D030
S2140029A0B3F5401FC4D13948FFF76CFF384BD3F856
S2140029B02831C3F30123043320E011F0CBF9344B64
S2140029C0D3F80C31C3F308230133B0FBF3F0B0E7C0
S2140029D011F0C0F92E4BD3F80831F3E711F0BAF92D
S2140029E02B4BD3F81431C3F30423EDE72648FFF747
S2140029F049FF274BD3F8303103F00303D84098E75C
S214002A002048FFF73FFF224BD3F8203103F00F0397
S214002A10F4E71C48FFF736FF1D4BD3F82031C3F30D
S214002A200113EBE71948ACE71848FFF72BFF184BE4
S214002A30D3F82831F3E71748FFF7C6FE072808D073
S214002A40082809D004287FF473AFBDE8104011F0C1
S214002A50BDB9114B18686CE711F07CF90C4BD3F834
S214002A600031C3F3042303FB000062E711F072F9A0
S214002A7001462046FFF7A2FEB1FBF0F059E700BF83
S214002A8006000E0002001E000500240003002000C1
S214002A9000400E40B80032000001002008B5FFF7E5
S214002AA093FE02280ABF024B4FF6FF70188808BD37
S214002AB004010020014B1880704700BF040100206D
S214002AC0013810B5032812D8DFE800F0022E1220D5
S214002AD0214AC1F30801D2F86838002BFBD11F4AFF
S214002AE0136A23F4FF7323F001031943116210BD28
S214002AF0194A01F07F01D2F86038002BFBD1174A43
S214002B00136923F07F0319431161F0E7124A01F0BD
S214002B107F01D2F86438002BFBD1104A936923F06A
S214002B207F0319439161E2E70C4AD2F89030536A6A
S214002B3023F0300343F010035362146B084BC1F3C9
S214002B40C31003300F2803EA040328BF0F201943DD
S214002B5041EA00711163CAE70020C84300400E40F6
S214002B6000F8FF0F104A536A13F0300F18D02029D0
S214002B7013D0302914D000290C4B08BF4FF4400363
S214002B80D2F8901033EA0101FAD15B0246BFD2F8C0
S214002B90A000C0F38020012070474FF40003EFE749
S214002BA04FF44003ECE700BF00400E40FF33E10760
S214002BB002280AD129B1064B4FF48060C3F8A8005A
S214002BC0596612B10220FFF7CDBF0120704700BF43
S214002BD000400E400428F8B545D8314B314F13F865
S214002BE000C0314B1B5C002943D0304C022834F81F
S214002BF0106039D17C6A14F0300F35D12C4CE46B60
S214002C007C6AE40705D57D6A25F0300545F0100599
S214002C107D62244C2666274C23449B001D68002DAD
S214002C20FCD002B36444A4002368002BFCD0022826
S214002C3019D1C1B11B4D696A11F0010116D00122EC
S214002C402021FFF7B5FFD5F89C7001220021022055
S214002C50FFF7C0FFC7F30A010220FFF731FF2E6619
S214002C602368002BFCD0F8BD0021D2E7FFF77AFFDF
S214002C70E9E7114931F810103966012101FA03F32A
S214002C80D7F890101942FBD1002AECD00124054A4F
S214002C9004FA0CF4D2F890302342FBD1E3E700BFED
S214002CA00EEF090000400E4013EF090018EF090070
S214002CB000300E408004F21022EF0900112838B5CB
S214002CC00C4615D000F00F000138072869D8DFE859
S214002CD000F02B0464686283688E5E4D013C092C0C
S214002CE05FD8DFE804F0775F665E5E6D5E5E5E5C12
S214002CF0042912D111F06AF80546A8B10021284629
S214002D0000F088FB023C0A2C4BD8DFE804F03F3C7E
S214002D1030364A4A4A4A4A0F4200052904D14E4BE9
S214002D201D684E4B9D42E9D80025EBE7032005249D
S214002D3001221146FFF74EFFFFF752FC0DB1FFF7D9
S214002D4063FC474B5C6711F02FF8044611F002F85D
S214002D50FFF700FCFFF766FC01462046FFF778FC0D
S214002D60FDB928460121BDE8384000F053BB3D4878
S214002D70FFF7F0FB02200446DAE73A48FFF7EAFBE3
S214002D8001240320D4E701200324D1E700200424F3
S214002D90CEE70724D0E7344DA0E7344D9EE7042362
S214002DA02B6038BD012211460020FFF713FF0223D7
S214002DB0F6E7012211461046FFF70CFF0123EFE766
S214002DC010F0C8FFFFF7C6FB294B0122C3F8082600
S214002DD00323E5E70023E3E7072904D00929E0D128
S214002DE01F4B012201E01E4B00221A67D9E74C1E3A
S214002DF0072CD6D801A353F824F000BF4F2E0000AE
S214002E00A32D0000A32D0000412E0000A32D0000DE
S214002E10A32D0000332E00001D2E000003221049B3
S214002E20D1F85C3123F0300343EA0213C1F85C3179
S214002E30B7E7012211460420FFF7CCFE0122EEE799
S214002E40012211460220FFF7C5FE0222E7E7002214
S214002E50E5E700BF80400E407C020020002D3101D7
S214002E6000400E400148E80188400E4084400E4075
S214002E700010C84370B50D4614460AB1174B1B68C0
S214002E8010F0A4FF0121064600F0C4FA1CB3FFF7B9
S214002E90C9FB01463046FFF7DBFB1120FFF78EFC2F
S214002EA0B6FBF0F0FFF756FB012211460220FFF7B3
S214002EB091FE0B48416A002D14BF4FF0805200224D
S214002EC021F04051002C14BF4FF0005300230A435A
S214002ED01343436270BD002DE6D1EAE700300E4092
S214002EE000400E4010B504461120FFF76DFC00218F
S214002EF001220220FFF76EFE184A217C536A23F057
S214002F000103022908BF43F001035362144B2178E2
S214002F10C3F8A014A188637A43EAC123D362136B73
S214002F20A07A217A03F07F630343E08843EAC02354
S214002F3043EAC11303310F2928BF0F2143EA017367
S214002F401363A37B617B1B0143EA0133E17B0B43E5
S214002F50217B43EA0143536310BD00BF00400E408F
S214002F600000C84338B50E4D01461120FFF72CFC73
S214002F70AA6B0C4B0C7813401C434B7844EAC324D2
S214002F808B7844EA0364CB7844EA0324AB6BA34211
S214002F9005D0002101220846FFF71CFEAC6338BDB1
S214002FA000400E4080E4FFF8EFF3108072B67047E2
S214002FB000B962B67047EFF31180602383F311887F
S214002FC0704780F3118870474209054B53F822304A
S214002FD000F01F0023FA00F0C04300F00100704725
S214002FE000E100E030B5D1E90223D1E900540560E4
S214002FF004600260036030BD30B50568046802688E
S2140030000368C1E90054C1E9022330BDFFF7EABFF7
S2140030107FB58B07044611D00B466D4601F11006AE
S214003020186859682A4603C20833B3421546F7D1D2
S21400303069462046FFF7D6FF04B070BD00910099A0
S21400304004B0BDE87040FFF7CDBFFFF7D5BF30B581
S2140030508B0785B00C4610D06946FFF7CDFF0D46AE
S214003060234604AC2A4603CAA24218605960154695
S21400307003F10803F6D105B030BD0091009905B004
S214003080BDE83040FFF7B8BF10B5FFF7ABFFBDE8AF
S21400309010401031FFF7A6BF10B5FFF7ADFFBDE833
S2140030A010401031FFF7A8BF10B5FFF79BFF0C4686
S2140030B01031FFF797FF04F12001FFF793FF04F1AB
S2140030C03001BDE81040FFF78DBF00F1424303F525
S2140030D08013102A4FEA431305D101221A6000F527
S2140030E08870FFF7D1BF00221A602430FFF77ABF3E
S2140030F0F0B50B46990789B0054614461ED0082A37
S2140031006E4610D103F1100718685968324603C29C
S2140031100833BB421646F7D1224669462846FFF7D3
S214003120D4FF09B0F0BD03F120071868596832468D
S21400313003C20833BB421646F7D1EDE70093009969
S21400314009B0BDE8F040FFF7C0BF436823F01F0397
S2140031500E290BD8DFE801F008080808080B0B0B4F
S214003160080808080B0B0B00194341607047194309
S21400317041F01001F9E738B520301546FFF73CFF5F
S214003180102D04D1BDE838401031FFF735BF38BDEB
S21400319030B58B0789B00C4615461DD06946FFF73B
S2140031A0EAFF082D0CD16A4604AD134603CBAB42AA
S2140031B0206061601A4604F10804F6D109B030BDFB
S2140031C06B4608AD1A4603CAAA42206061601346E1
S2140031D004F10804F6D1F1E70091009909B0BDE8C2
S2140031E03040FFF7C8BF0000034BD86B80F04000AC
S2140031F0C0F38010704700BF00300E4042EA032341
S214003200B3F5007F39D016D8B3F5807F31D007D814
S2140032105BB3012B1ED00022134603600A60704782
S21400322040F201129342F6D1184BD3F824321A0E0C
S214003230C3F30743F1E7B3F5407F22D040F20132F3
S21400324093420ED040F201229342E4D10F4BD3F8C2
S214003250283202E00D4BD3F82432C3F30722DBB248
S214003260DBE70A4BD3F82832E1E7084BD3F81C32E9
S214003270F3E7064BD3F81C32D9E7044BD3F82032D9
S214003280EBE7024BD3F82032D1E700BF0081E00F16
S21400329008B5FFF7A9FF20B1024AD2F8C830002BC4
S2140032A0FBD108BD0000C64337B5FFF79DFF38B118
S2140032B0244B1B78C3F1020210239340224A136169
S2140032C02249234DD1F8804145F60E03C1F88031DE
S2140032D02B6823F0AA03DB05DB0D0B66FFF7D8FF90
S2140032E0194B1B68D80604F0010416D5D1F84031F6
S2140032F0DA01FBD4174B1B680B61174B1B78052BA9
S2140033000BD1164B18680190FFF7C2FF0E4B0198C1
S2140033105968C1F30141FFF79BF90F4B197805294E
S21400332002D01120FFF7CAFC2B68DB075EBF074BF5
S21400333002221A661CB1054B0022C3F8802103B096
S21400334030BD00BFBD78002000300E4000400E406B
S214003350AC780020B8780020B67800207C020020E8
S214003360FFF7A2BF70B50378124A002B4378946922
S21400337014BF04260026002B837814BF02250025E0
S214003380002B037924F03F0443EA0403C47814BFF7
S21400339008210021012C08BF43F0010333432B43CF
S2140033A00B4393611368417923F4403343EA0143A6
S2140033B0136070BD00300E4070B504460E46FFF731
S2140033C013FF10B3FFF764FF104B5B68C3F30143B2
S2140033D09C421AD00E4BD3F8003110F0BBFC022CE6
S2140033E0054602D12146FFF733F9C4F10202102345
S2140033F09340064A13610EB1FFF74AFF2CB92146E7
S2140034002846BDE87040FFF723B970BD00300E4077
S21400341000400E4013B50246FFF7E6FEC8B152B9AB
S2140034200D4B0191D3F8004110F094FCC4F3042234
S214003430019902FB0002094B1B7843B1084B9A42E4
S21400344005D8022002B0BDE81040FFF7B5BF002047
S214003450F8E702B010BD00BF00400E40BC78002068
S214003460002D310110B5224B4AF6E852596B5A63CB
S2140034709A6FD207FCD41B6C13F003031EBF1D4AC1
S2140034800124C2F8B44A834204D110B9194BC3F8D8
S214003490B40A10BD032B00D09BB9431E012B10D8D5
S2140034A0134A4FF40023D362936FDB07FCD4136CEC
S2140034B023F0030343F0010313640D4A536A1C030D
S2140034C0FCD50B4B9A6FD207FCD41A6C22F0030281
S2140034D002431A649A6F12F00102FBD10038054CC1
S2140034E018BF01200129C4F8B40A08BF5A63D0E700
S2140034F000300E400000C6432DE9F04F002389B08F
S214003500CDE90233CDE90433CDE90633A0F5E16316
S214003510B3F5966F04460D46914604D90025284615
S21400352009B0BDE8F08FB0F5E16F674B8CBF0122A4
S214003530002240F0BC80D3F81832C3F30721DBB278
S214003540079104934FF4167A4FF4966BDFF87C815C
S214003550D8F84C700192C7F301773B4605A902A83C
S214003560FFF74CFED8F8EC60019AC6F30126334606
S21400357006A903A8FFF742FE049B0799A4EB0B0ECF
S214003580A1EB030C0EFB0CFCBCFBFAF213EB020CDB
S2140035902CBF012300236145C0D3002BBED1069A61
S2140035A00398131A0EFB03F3B3FBFAF3C0182CBFF1
S2140035B0012300238242B1D3002BAFD1059B029991
S2140035C05A1A0EFB02FEBEFBFAFA11EB0A012CBFDA
S2140035D04FF0010E4FF0000E8B429FD3BEF1000F4E
S2140035E09CD1B9F1000F10D0D8F85C2022F4FE422E
S2140035F022F00202B4F5E16F42EA0C2218BF4FF047
S214003600020E42EA0E02C8F85C20002D4DD02E4B6A
S214003610022FD3F830223ED0032F3FD0012F14BF05
S214003620D2B2C2F30722120312F4702F7FF476AFE1
S214003630264FFB6E23F470431A43234BFA66022E82
S214003640D3F830222CD0032E2DD0012E14BFD2B2A8
S214003650C2F30722120312F4702F7FF45FAF1B4EE3
S214003660D6F8EC3023F470431A43C6F8EC20736E99
S214003670814238BF014623F4FF73E72923F0010394
S21400368028BFE721B4F5E16F18BF43F0010343EA12
S2140036904103736643E7C2F30742C4E7120EC2E76C
S2140036A0C2F30742D6E7120ED4E7012537E7D3F870
S2140036B01832190EC3F30743079104934FF4966A22
S2140036C04FF4E16B42E700BF0081E00F00300E4090
S2140036D0304B1A6FD96C11F0010F02F0060244D07D
S2140036E0002A42D0132851D9143813288CBF10232F
S2140036F008232849013BCA6C180322F47F4240EA9B
S21400370003231343CB64244BCA6C1B88C2F30322E7
S2140037102833013202EB820003EB5303B3FBF0F3D2
S214003720C86C013B072B28BF072320F0EE6040EA59
S214003730036343F48013CB64184BB3F90030002BBB
S21400374012DB03F12800C0F34E030344500800EBDD
S2140037504202B3FBF2F20B6D072A28BF072223F0C2
S214003760700343EA02120A657047D96C01F0010142
S214003770114304D1092809D90A380928B6E7DB6CB1
S21400378013F00103B5D01AB92728AFE70423B0E732
S2140037900023AEE700300E40B2780020B478002058
S2140037A0064A074BD3F88039136F23F007031843F4
S2140037B0044B10671888FFF78BBF00BF00300E4021
S2140037C00000C643B078002038B5374A022393631A
S2140037D0936B03F00F03022B044602D00025284605
S2140037E038BDE388B0F90C004A2B50D9B3F5FA7F00
S2140037F04FD340F6C3118B4294BF4FF000514FF0A9
S2140038004051D36C23F0405323F001030028A8BF97
S21400381043F001030B43D364D2F8EC3043F4407317
S214003820C2F8EC30214BA1881980D36E43F0807328
S214003830D3661F4BD3F8800900B10420FFF7B0FF12
S2140038401C4B218919801C4BB4F90C20A0881A80C7
S214003850FFF73EFFA37BFBB1012B21D0012260883E
S2140038601146FFF749FE05460028B7D00E4AD36B2F
S21400387043F48063D3636078FFF7F4FDA37AA3F183
S2140038802002534253410A4AC2F89437A7E7002160
S214003890B7E74FF08051B4E7034B084A9A65DDE777
S2140038A0014B074AFAE700BF00300E40B078002010
S2140038B00000C643B2780020B47800207740205736
S2140038C0372110B770B505460E461446FFF76CFB59
S2140038D0296881EA040202EA06044C402C60BDE82E
S2140038E07040FFF765BB0000072AF8B501F0030635
S2140038F014461F464FF00F0120D8950000FA05F237
S214003900A9401648FFF7DEFF0321154806FA05F220
S214003910A940FFF7D7FF13499DF8183021448900C6
S21400392001220F60C1F880300F4B02FA04F4C3F88E
S21400393024449DF81C30C1F80033F8BDA2F10805F8
S214003940AD0000FA05F2A9400848FFF7BBFF0321C7
S214003950074806FA05F2A940DBE700BF00A40040CE
S21400396008A400408020851000A0004004A4004069
S2140039700CA4004000EB4000F8B50D461F460401BD
S21400398016463AB1164801238B402044CFB100F1C9
S214003990C0600360072D4FF00F0115D8AB0011482B
S2140039A006FA03F299402044FFF78CFF46B90C4A0A
S2140039B0012101FA05F5224477B102F1C0621560D3
S2140039C0F8BD00F18060E4E7A5F108039B00064817
S2140039D006FA03F29940E6E702F18062EFE700BFDD
S2140039E00CA0004004A0004008A0004010B504460B
S2140039F001214FF4AA40FEF73BFEB4F801302278CE
S214003A005BBA9BB243EA02630B4A1360002313625D
S214003A10D36253634FF00043D3664FF0FF33936691
S214003A20064A4FF40071C2F88011E3785B01DBB2FE
S214003A3082F80933116010BD00200E4000E100E05E
S214003A40054B5A685B68054B41F671321A649A68F2
S214003A5022F001029A60704700300E4000000E40CF
S214003A60034B9A6822F001029A6000221A6470479B
S214003A7000000E40094A0A4BD969C90705D512B994
S214003A806FF002007047013AF6E7002AF8D00122EC
S214003A901861DA60D86940F3800070478096980015
S214003AA000000E4070B5C1B10E4A0023082550F83C
S214003AB0234094610C4CD5600133D669F60705D5D2
S214003AC014B96FF0020009E0013CF6E7002CF8D0CC
S214003AD0D469A40703D49942E9D1002070BD6FF0E1
S214003AE00100FBE700000E40809698002DE9F843A1
S214003AF01C4B884641F671311D6C19641A490746FD
S214003B0048684968996841F00101ADB29960960825
S214003B104FF00009B14501D3002005E007EB89040A
S214003B202046FFF7A7FF48B10E4B9A6822F0010225
S214003B309A600DB100221A64BDE8F883C4F30A0443
S214003B40C4F50064A408A6EB0901A14228BF2146DB
S214003B504046FFF7A7FF0028E6D1894408EB810816
S214003B60D8E700BF00000E4000300E4010B5234BD3
S214003B7041F671311A6C196421494C684968996894
S214003B8041F00101996001211861D960D9694C079B
S214003B9092B209D5996821F0010199600AB1002214
S214003BA01A644FF0FF3026E00221D9601549D86923
S214003BB0C00700D569B9D86910F002000BD0996823
S214003BC021F0010199600AB100221A646FF0010029
S214003BD011E00139EBE741B9986820F001009860E0
S214003BE002B119646FF0020005E0996821F0010146
S214003BF099600AB1186410BD1046FCE700000E403C
S214003C0000300E4080969800FFF770BF02F0070263
S214003C1042EA035201F4FE41024B14300A4343F8D1
S214003C202020704700600E40074B002047F60772C2
S214003C3000F1140153F821100A4204D001300C2878
S214003C40F6D14FF0FF30704700600E40014B012266
S214003C509A60704700500E40F0B5134B13495D68EC
S214003C60134E00221046D6F8E8714C680B687F07A2
S214003C700BD4B3F5006F06D012D8B3F5007F02D090
S214003C80B3F5806F01D144F480742B4202D02C42ED
S214003C9008BF18430132092A01F10801E3D1F0BD3B
S214003CA0B3F5803FEEE700BF00500E4054EF09002A
S214003CB00040E00F8B784A789B0143EA82030A783B
S214003CC01343CA7843EA02130A7943EAC2234A79BD
S214003CD043EA02338A79043043EA42430001014A48
S214003CE01350704700200440014B1860704700BF17
S214003CF000008442427801790378002A827870B501
S214003D0014BF04260026002AC27814BF10250025FA
S214003D10002A42794FEA023242EA012242EA0302CC
S214003D20837914BF20240024002BC37942EA03437E
S214003D3043EA0603027A43EA050314BF4FF4004140
S214003D4000212343002A14BF4FF4003200220B4305
S214003D501343014A136070BD002004400D4AD2F898
S214003D60E430D2F8E0109B0003F03C03C1F381116D
S214003D700B438370D2F8E03003F03F034370D2F871
S214003D80E830D2F8EC2003F0F003C2F3031213433A
S214003D900370704700FF0FE038B504468DF0F2FA66
S214003DA00FCC044D0FC594E80F0085E80F000020E7
S214003DB038BD00BFC078002047F6FF739A42F0B5C2
S214003DC069D0022969D8364B03EBC105CF00A87825
S214003DD013F83110012838BF01200129044613D1F9
S214003DE0EB781B1A0020984202D3E018C0B2F0BD50
S214003DF0191AA3EB51016E6836F911609642CCBFD2
S214003E0001F1FF330846EEE768680028EFD0B0F906
S214003E100010914204DBB0F902109142B8BF11467F
S214003E2082883B44FF2A08BFB0F906205F7807BFA8
S214003E30B0F9086001250025C82207F1FF3318BF36
S214003E402826521A92FBF6F22A44934228BF1346BB
S214003E5000EBC3054FF47A7EAE68EA8811FB026277
S214003E601E46013322EAE2729F4202F5FA72AC461F
S214003E70B2FBFEF205D9BCF80CC0944505F1080566
S214003E80EAD200EBC6008088904228BF1046A042C7
S214003E9038BF2046AAE7FF20A9E70020A7E700BF13
S214003EA0C07800200229F0B55FD8314B13F83100F6
S214003EB0012816D103EBC1018C78C878012C234663
S214003EC038BF0123904294BFC3EB0003C3EB020349
S214003ED0DBB2001B4A688342C8BF002332F91300D6
S214003EE0F0BD002A3FD003EBC1014B68002B3CD04D
S214003EF08878904202D3B3F90200F1E7CC78B3F9A0
S214003F0000009442ECD94C789988A1F1FF06013C58
S214003F10714203F10405E4B2714103F10C071FFA84
S214003F2082FCCEB2B44216D805EBC1014FF47A75C6
S214003F30B1F9024049686A43521A04EBD47102EBA5
S214003F40610292FBF4F29042CADBB3F9020090429F
S214003F50C6DC10B2C4E737F831E0E64501F10106E9
S214003F60E2D33146DDE70348BAE70348B8E700BFC7
S214003F70C07800200CFEFFFF0080FFFF08B5044855
S214003F80FFF70AFFBDE8084001208DF035BA00BFF4
S214003F9044B10A0000487047060100207FB5094B6F
S214003FA009490222CDE901234FF08373CDE90313BB
S214003FB04FF0FF300D2301A905938DF0A1FB07B04C
S214003FC05DF804FB006A180006010C0010B50C48EA
S214003FD00C4C6FF00402A02112F0800FD3B21BBF6E
S214003FE003F00F03043BA3181B1802F101020CBFD9
S214003FF083F800131976332AEED1002010BD00BFD7
S21400400000ED00E000E100E0BFF34F8F0549064BEE
S214004010CA6802F4E0621343CB60BFF34F8F00BF61
S214004020FDE700BF00ED00E00400FA0508B5FFF765
S214004030EBFF08BD034B1B78002B14BF01200220AA
S214004040704700BFEC7800200329F8B598BF134BE3
S214004050054698BF5C5C0E4688BF0024032805D83A
S214004060DFE800F002080B0E44F002040C4B1F6859
S2140040704FB9F8BD44F00804F8E744F02004F5E72B
S21400408044F08004F2E77B681A68144203D05B6849
S2140040903146284698473F68EAE700BF9CEF09008C
S2140040A0E87800202DE9F341274A01380029135CFF
S2140040B014BF0121FF210B4413543AD0234E32780B
S2140040C0012A36D9FFF7B6FF0128044634D8204F18
S2140040D0FEF76AFF3B781BB31E4D2B781BB90122F7
S2140040E02A701D4A1370DFF8748098F8003033B1D8
S2140040F0019000F048F80023019888F80030FEF799
S21400410057FF012000F040F8FEF74EFF2B782BB14A
S214004110019000F03BF8002301982B7000233B70C1
S214004120FEF746FF3078A04203D02146FFF78CFF0B
S214004130347002B0BDE8F081032AF3D10228F1D131
S21400414000F04CF8EEE700BFEC780020E0780020A6
S214004150E4780020E1780020E3780020E278002070
S21400416038B541600446FEF71FFF21460546044861
S214004170FDF776FF2846BDE83840FEF719BF00BFBA
S214004180E8780020704770470120704738B50E4C1D
S2140041900E4D23782BB92B781BB100F0ACF90C4BE5
S2140041A01860FFF7DDF82B786BB10A4AD2F890302A
S2140041B01B07FBD500F09FF9054B1B68C01A064B82
S2140041C018600023237038BDFC780020FD7800209E
S2140041D0F478002000400E40F8780020084B45F6A2
S2140041E00E02D3F88011C3F88021064A126802F442
S2140041F0A0721A66CA0744BF0022C3F8802170471F
S21400420000400E40F078002030B50F4C4161236826
S214004210ABB92060836011E0891A41619A681D4637
S2140042202AB113465A698A42F6D955B11A46A86089
S2140042301346836013B15A69511A596130BD00257F
S214004240F0E72060F5E700BF1479002010B500F015
S214004250C1FA0A4C0A4B19682368C31A01B10BB994
S214004260206010BD4A699A422EBFD21A9B1A0022BD
S2140042704A6128BF00238968F0E700BF0079002064
S2140042801479002038B5134D2B685B6993B1124A38
S214004290146802201C4400F0D1FA204600F0A0FA70
S2140042A00E492A6800230B70D088800709D50123A1
S2140042B00B7038BD022000F0C1FA022000F0E4FACC
S2140042C0EEE79268002AF4D050690344012BEBD93C
S2140042D0EFE700BF1479002000790020087900205D
S2140042E070B516469DF814200271049A0260C0E963
S2140042F003360022BDF818308260C38004460D469F
S21400430000F068FA3044A0613DB9E368656113B116
S21400431021682046984796B13546FEF745FE064684
S214004320FFF794FF29462046FFF76EFF054B1B68F4
S214004330A34201D1FFF7A6FF3046FEF739FE002064
S21400434070BD00BF147900200C490B6800227BB1B9
S21400435083420AD183687AB1936083681BB15A6935
S21400436041690A445A61002070471A469B68EEE786
S2140043700028EFD0022070470B60EEE7147900208B
S21400438070B5154EFEF717FE34780546FCB9134B8C
S2140043901C60134B1C60134B1C8000F0D7F90120E7
S2140043A000F04CFA00F0A0FA0F4B0246186020B955
S2140043B02846FEF706FE232070BD23460B4840F233
S2140043C0E73198F071FC0A4B1860012333702846D9
S2140043D0FEF7F7FD0020EFE7FE78002014790020B6
S2140043E0007900200A7900201079002018FCFFFFD1
S2140043F0047900202DE9F0410546F8B1FEF7D4FD1A
S2140044000F4F0646FFF722FF2846D7F80080FFF733
S2140044109BFF044628B13046FEF7CAFD2046BDE89D
S214004420F081A8453B6803D123B1FFF72BFFF2E7E5
S214004430002BF0D1022000F00FFAECE72224EDE783
S2140044401479002070B586B0154605911E460446C0
S21400445080B1FFF7CFFFBDF82C3002939DF82830CF
S2140044600599CDE9006300222B462046FFF738FF6A
S21400447006B070BD2220FBE738B50C46054698B15D
S21400448091B100230B70FEF796FD084B1B680121C7
S2140044900BB122781AB1FEF794FD002038BDAB426E
S2140044A014BF9B682170F3E72220F7E714790020F9
S2140044B0F0B587B01F4600230D4616468DF8173018
S2140044C00446A0B10DF11701FFF7D6FF9DF817209F
S2140044D07AB9BDF8343002939DF830302946CDE9DC
S2140044E0007320463346FFF7FBFE07B0F0BD2220E0
S2140044F0FBE70320F9E738B5FEF75DFD054600F05B
S21400450069F904462846FEF75CFD204638BD0000E3
S21400451070B5FEF750FD064600F05CF9084B1D88A6
S21400452004460120ADB200F0B7F918B100F052F918
S214004530013504463046FEF744FD2046294670BD48
S2140045400A790020014B1868704700BF10790020D8
S21400455070B50C4B1B6883420D4611D30A4B40F2D4
S214004560E7311E6800248C462146E0FB06C14FF466
S2140045707A720023604698F097FB2860204670BD4C
S2140045802120FCE7047900201079002010B50F4B9D
S2140045901A689AB1531E4FF47A711342A0FB0101B8
S2140045A00ED1B2FA82F2C2F11F04531CE040D2438D
S2140045B001FA03F3184321FA02F20243104610BD33
S2140045C0002398F071FB0246F8E700BF1079002040
S2140045D0164B8342164B8B4170B5154624D3154BAC
S2140045E01A680AB34FF47A76541EA0FB06031440EA
S2140045F006FB013111D1B2FA82F3C3F11F025E1C31
S21400460001FA06F6DB43D04021FA03F330431843A1
S214004610D140C5E90001204670BD002398F044FB58
S2140046200024C5E90001F6E72124F4E7EFA7C64B0E
S2140046303789410010790020C2072DE9F347044668
S2140046400BD53F4A138801339BB21380FFF7FEFD5C
S2140046503C4B1B680BB1FFF715FEA3076DD5FEF7A5
S214004660AAFC0546FFF7F2FD0026DFF8D88037469D
S214004670B146D8F800400CB163698BB1324B0022CA
S214004680012F1A7002D1022E08BF1F70002C44D0D2
S214004690FFF7F8FD284602B0BDE8F047FEF791BCEC
S2140046A023461A792179914288BF1C469B6813B12C
S2140046B05A69002AF5D02846FEF783FC256985B39B
S2140046C000F088F8A269861AF317B54279EB03035F
S2140046D028DA23691344A3610123226982B17BB9D6
S2140046E0A91B0191FEF767FC019982462046FFF759
S2140046F08BFDA36922691344A3615046FEF761FC53
S214004700E368E688013713B1216820469847FEF72C
S21400471052FC0546FFF79AFDABE7022000F09CF836
S214004720B8E72E46FEF747FC82462046FFF70CFE0B
S2140047305046FEF746FC0023CFE702B0BDE8F08700
S2140047400A790020147900200C79002010B51D4B42
S21400475086B01868596803AA03C2197AD3F8090004
S21400476011700190B3F80D201748DB7BADF80820D8
S21400477001218DF80A300024FDF77AFF03A88DF892
S2140047800C408DF81040FFF7B5FA01A901208DF80E
S2140047900440FFF78FFA0D4A536A23F4FF6323F0B1
S2140047A00703536240F2FF73136201209460FFF721
S2140047B09BFA074B4FF08042C3F880211A6006B080
S2140047C010BD00BFA0EF0900A0091400002004409F
S2140047D000E100E0014B9868704700BF00200440ED
S2140047E010B50446FEF7E0FB124A9368516D9269D5
S2140047F0520704D4CA1A032A01D899420DD1E21AE4
S214004800022A98BFDC1C0B4BB4F1FF3F38BF013CBB
S2140048105C655A6A42F004025A62FEF7C9FB064A11
S214004820137833B103490B6D43F002030B65002385
S214004830137010BD002004400C0100208207054ABA
S21400484000F00103516A48BF43F004030B43536270
S214004850704700BF00200440820700F0010309D51E
S214004860074A0121117007490A6D22F0030243F03E
S21400487004030A6503494A6A22EA03034B62704747
S2140048800C01002000200440830742BF014B042295
S214004890DA61704700200440064B01289B6904D06B
S2140048A0022805D1C3F38000704703F0010070476B
S2140048B0002070470020044010B5FEF77CFB094A34
S2140048C093690446590703F0010003F0070348BF45
S2140048D040F002001362FFF7AFFE2046BDE810402E
S2140048E0FEF76FBB002004400148FEF70DB800BF7E
S2140048F0A009140008B50EF07DFA0EF0CDFA0EF001
S214004900D6FA0EF0D6FABDE808400EF0D9BA0EF088
S214004910C1BA000010B504460FF046FA0B4BA0F5DE
S2140049207A729A4210D84FF47A735C43B0FBF3F075
S214004930074BB3FBF0F0B4FBF0F0032804D9BDE856
S2140049401040800800F00CB810BD00BFFFC99A3BAD
S21400495040420F00000000000000000000000000C1
S214004960013800D0FCE77047242070474420704789
S214004970B02070474FF48070704708B57EF062FC38
S21400498075F00AFB76F0A1FF7CF0F8FA79F08DF965
S2140049907AF043FA7DF07AF8002008BD024A03490F
S2140049A0034874F0C1BF00BFB0EF090000F0090073
S2140049B0D8EF090038B50446FEF7F6FA0546204655
S2140049C0FCF747F804462846FEF7F2FA204638BDBC
S2140049D038B50546FEF7E8FA04462846FCF73BF8E5
S2140049E02046BDE83840FEF7E3BA70B50368CD1A36
S2140049F0002D0DDD93F900601C78002E0BDB5C1C8F
S214004A0004601B7813600368C91A13688B4236D992
S214004A106FF05F0070BD04F07F04013C032C2BD8C0
S214004A20DFE804F0020A1421012DF1D05B78136050
S214004A30036802330360E6E7022DE9DDB3F80130D0
S214004A405BBA9BB2136003680333F3E7032DDFDD25
S214004A509C785D78DB78240244EA0544234313609F
S214004A6003680433E6E7042DD2DDD3F801301BBA21
S214004A70136003680533DDE76FF06300CAE70020C4
S214004A80C8E770B404680E1B002E07DD26789E4229
S214004A9008D10134046070BCFFF7A7BF6FF05F0059
S214004AA070BC70476FF06100FAE737B51D461346D5
S214004AB001AA0446FFF7E5FF18B9019B1BB96FF082
S214004AC0630003B030BD236893F90030002BF6DB9B
S214004AD0019B3BB122681178A9B1042BEFD801D114
S214004AE00B06ECD400232B60019B5A1E0192002B70
S214004AF0E7D023682A681B7843EA02232B602368E2
S214004B0001332360F0E70132013B22600193DFE7C7
S214004B1013460222FFF7C9BF37B50223154601AA7E
S214004B200446FFF7AEFF40B9019A2168284600F018
S214004B304DFC2368019A1344236003B030BD38B59A
S214004B4003230446FFF79DFF18B9136813B96FF0E7
S214004B50670038BD013B136023681A78002AF6D137
S214004B6001332360F5E72DE9F34190461F4601AA7D
S214004B70302305460E46FFF784FF0446F0B92B683F
S214004B80F61A002E37DD42461B7842F8043B0199A0
S214004B902E680E44062331462846FFF772FF044669
S214004BA060B92B68D8F80420C8F808309918B142C4
S214004BB0296007D10C21384604F080FD204602B05B
S214004BC0BDE8F0819B5C3A46314642F8043B2B68D0
S214004BD001332B602846FFF708FF04460028EDD176
S214004BE02B687A68BB601344B3422B600CBF044644
S214004BF06FF06504E2E76FF05F04DFE703687F2A83
S214004C00A3EB010107D8002969DD591E016003F8EE
S214004C10012C01207047FF2A0DD801295FDD591E9F
S214004C20016003F8012C03685A1E0260812203F813
S214004C30012C02207047B2F5803F13D202294EDDC8
S214004C40591E016003F8012C0368120A591E016000
S214004C5003F8012C03685A1E0260822203F8012C16
S214004C6003207047B2F1807F19D2032937DD591E21
S214004C70016003F8012C0368591E0160110A03F84D
S214004C80011C0368120C591E016003F8012C03680E
S214004C905A1E0260832203F8012C04207047042960
S214004CA01DDD591E016003F8012C0368591E0160C2
S214004CB0110A03F8011C0368591E0160110C03F861
S214004CC0011C0368120E591E016003F8012C0368CC
S214004CD05A1E0260842203F8012C052070476FF0EC
S214004CE06B0070470368591A0029C1BF03F1FF31F2
S214004CF00160012003F8012CD8BF6FF06B007047ED
S214004D002DE9F041984605460E4600232968881B83
S214004D10002806DC6FF06B042046BDE8F0813B46B9
S214004D20F4E7481E286001F8012C1212002A03F14D
S214004D300107F4DC296891F90020002A08DA8A1BAA
S214004D40002AE7DD4A1E2A60002201F8012C9F1C7B
S214004D503A4631462846FFF751FF041EDCDB5FFA71
S214004D6088F231462846FFF7BDFF0028A6BFE419A3
S214004D7024180446D0E770B5064600680D46A842DB
S214004D8011461C4609D3451B9D4206D3C01A306007
S214004D901A4698F055FB204670BD6FF06B00FBE797
S214004DA02DE9F041074610468846154600F008FBF8
S214004DB039684145064604D26FF06B042046BDE8CC
S214004DC0F081A1EB08028242F6D3091A0246396046
S214004DD0284600F052FB04460028EFD12B68012B32
S214004DE00DD13B6893F90020002A08DAA3EB0802ED
S214004DF0002AE1DD5A1E3A60013603F8010C3246FD
S214004E0041463846FFF7FAFE041ED7DB022241462B
S214004E103846FFF767FF031EA6BFA0191C181C46DE
S214004E20CCE7F8B505460E46FFF7A5FF041E11DBD6
S214004E30224631462846FFF7E1FE2746041E09DBD8
S214004E40062231462846FFF74DFF0028A6BFE41984
S214004E50241804462046F8BD0223FFF751BFF8B5D4
S214004E6005460E46FFF787FF041E11DB2246314635
S214004E702846FFF7C3FE2746041E09DB04223146F8
S214004E802846FFF72FFF0028A6BFE419241804467B
S214004E902046F8BD2DE9F84FDDF828A04FF0000BAE
S214004EA006468846174699465C465D4655450AD3EB
S214004EB0AA4604E00135AA454FF0010304D17CBBA5
S214004EC03C60002014E0002319F805002028F1D0EB
S214004ED0AA45F4D0AAEB0502012A0BD00D2809D169
S214004EE009EB050252780A2A10D02BB16FF02B007E
S214004EF0BDE8F88F0A28F7E70106F7D43D2807D162
S214004F000BF1010BBBF1020FF0D801340135CDE7F0
S214004F10BBF1000FEAD101F029FB0028F5DAE5E73E
S214004F2004F007030620E408434344430733A4EB96
S214004F300B0404EBD3045EB1444509D800251E4B90
S214004F40CA443446AB46A846D14505D1A41BB7E7AC
S214004F503C606FF02900CBE719F8010BA0F10A02BC
S214004F60D2B2162A03D823FA02F2D207ECD43D288E
S214004F704FEA88180ED101350BF1010BBBF1040F77
S214004F80E2D14FEA1842012D227009D901344FF0C0
S214004F90000BD9E701F0EAFA074B48EA0008EBE70E
S214004FA04FEA1822627015B102340125EFE784F843
S214004FB00280AB460334C7E709004000F0B505465B
S214004FC00E46074600240F2F44D828096FF00F011D
S214004FD001FB0055072D38D956F8040B1168E3FB82
S214004FE0601442F8041B56F8040B1168E3FB6014C7
S214004FF042F8041B56F8040B1168E3FB601442F8F1
S214005000041B56F8040B1168E3FB601442F8041BFB
S21400501056F8040B1168E3FB601442F8041B56F8BC
S214005020040B1168E3FB601442F8041B56F8040BEB
S2140050301168E3FB601442F8041B56F8040B116871
S214005040E3FB601442F8041B083D002D74D1002CCD
S2140050507BD1F0BD103F56F8040B1168E3FB6014DB
S21400506042F8041B56F8040B1168E3FB601442F880
S214005070041B56F8040B1168E3FB601442F8041B8B
S21400508056F8040B1168E3FB601442F8041B56F84C
S214005090040B1168E3FB601442F8041B56F8040B7B
S2140050A01168E3FB601442F8041B56F8040B116801
S2140050B0E3FB601442F8041B56F8040B1168E3FB8C
S2140050C0601442F8041B56F8040B1168E3FB6014E6
S2140050D042F8041B56F8040B1168E3FB601442F810
S2140050E0041B56F8040B1168E3FB601442F8041B1B
S2140050F056F8040B1168E3FB601442F8041B56F8DC
S214005100040B1168E3FB601442F8041B56F8040B0A
S2140051101168E3FB601442F8041B56F8040B116890
S214005120E3FB601442F8041B56F8040B1168E3FB1B
S214005130601442F8041B46E7013D56F8040B11685C
S214005140E3FB601442F8041B7FE713681B1942F860
S214005150043B2CBF0124002479E701F1804101398A
S21400516000EB81018142034600D270471B680A6843
S2140051701BBA12BA40F8042B41F80439F2E72DE9BD
S214005180F04711F0030418BF01249846436804EB67
S2140051909104A34205460E4617464FEA840AC1EB21
S2140051A084091BD34A460021806898F071F96A6822
S2140051B0A868121B92000021504498F069F9A9686B
S2140051C0324649444046B847064620B91CB1A8684E
S2140051D02146FFF7C2FF3046BDE8F0876FF00306B2
S2140051E0F9E700230122C0E900238360704710B569
S2140051F0044668B1806830B16168890004F05EFAE0
S214005200A06804F04BFA00230122C4E90023A3603F
S21400521010BD42F21073994270B504460D4602D98D
S2140052206FF00F0070BD43688B4216D204212846EB
S21400523004F02EFA06460028F2D0A16859B162683A
S214005240920098F0FDF86168A068890004F036FACC
S214005250A06804F023FAC4E901560020E2E738B556
S21400526004460D4619B9FFF7C2FF002038BD426854
S2140052708A4207D180689200002198F009F901233C
S2140052802360F2E7FFF7B3FF29462046BDE8384023
S214005290FFF7BFBF884270B505460E460AD04C6879
S2140052A040686CB9C8B1012382002B60A86821460B
S2140052B098F0EEF8002010E0B36853F8243013B9E5
S2140052C0013C002CF8D1013433682B60844205D9A8
S2140052D021462846FFF79DFF40B170BD021BA86817
S2140052E09200002100EB840098F0D2F8B168A8681C
S2140052F0A20098F0A5F8DDE770B50E460121044639
S214005300FFF787FF054688B9626801469200A068E5
S21400531098F0BEF8A36886EAE672002EA2EBE67264
S2140053201A60B4BF4FF0FF3301232360284670BDD8
S2140053304368B1EB431F3FBF4A09836853F8220016
S21400534001F01F013ABF20FA01F101F00100002030
S2140053507047F0B5002145680A46954202D1002400
S2140053602046F0BD836853F82260002326FA03F730
S214005370FF0701EB0304F3D40133202B01EB0304F6
S214005380F4D101322146E8E70246406888B19268C7
S214005390431E7BB952F8231000204FF00042114202
S2140053A004D1013020284FEA5202F8D10133C0EB75
S2140053B04310704752F823100029EBD1013BE8E771
S2140053C008B5FFF7E1FF0730C00808BD2DE9F0413A
S2140053D012F0030418BF012404EB92048846214609
S2140053E007461546FFF73BFF064668B965B1BB683A
S2140053F0C5EB84002A464146184498F021F81CB1B3
S214005400B8682146FFF7A9FE3046BDE8F081F8B53A
S2140054104368B2EB830F0E464FEA83041CD813464C
S214005420A3420CD1944600239C4517D1944204D243
S214005430121B0021301998F02BF800201CE087681A
S21400544023F0030C03F00305E90057F80C50CD4099
S214005450EDB27DB90133E3E7A446E4E7876823F0BD
S214005460030E03F00301CD0057F80E10E940F15487
S2140054700133D9E76FF00700F8BDF8B504460846D3
S2140054806368B2EB830F4FEA83051BD9521B8E1855
S214005490002197F0FDFF30462A46811800239A42E5
S2140054A012D10020F8BDA76823F0030C03F0030117
S2140054B0CE0057F80C10F140C9B289B90133AB429F
S2140054C0F1D1EAE71346FAE7A76823F0030603F0EC
S2140054D00300C500B859E84001F8010D0133DEE7C6
S2140054E06FF00700DEE7F8B505460E464C0901F0FA
S2140054F01F07FFF749FF6B683044B0EB431F05D822
S2140055001F2E0FD8002F41D100200AE010F01F01F7
S21400551018BF012101EB50112846FFF77AFE00283C
S214005520EED0F8BD6B686FF003009A006043194632
S214005530A142A2F104020CD8E21A9C4288BF0022C3
S21400554013449B000022043B191DDBD0A968CA50F7
S214005550F9E7AE6806EB020C01395CF800C046F8C5
S21400556002C0E5E7AB6853F8241001FA07F043F8E9
S2140055702400A86850F82430134340F8243021FA59
S21400558006F201346B68A342ECD8BDE70022C7F1EF
S2140055902006F7E7F0B443684C09A34201F01F0267
S2140055A001D304D192B3F0BC0021FFF7A5BE1F299A
S2140055B02ED8AAB90020F0BC704785686E5845F80A
S2140055C023600431013345682D1B9D42F5D8002425
S2140055D041689942EDD9816841F823400133F7E7E5
S2140055E043680024C2F12007013BE3D3816851F8E9
S2140055F0235025FA02F641F82360866856F82310F1
S214005600214346F8231005FA07F4EDE71F29D1D900
S214005610A1000023D7E730B543682BB94A6862B9C2
S214005620181E18BF012028E0826802EB830252F899
S214005630042C002AF2D1013BEFE78C6804EB8205CC
S21400564055F8045C35B9013AE9E7012015E04FF05A
S214005650FF3012E0002BFAD09342F6D8F7D3013B86
S214005660826852F8231054F823209142EDD803F1B3
S214005670FF33ECD35A1CF3D1002030BD30B543685D
S214005680024623B9486858B9002B36D12FE09068F7
S21400569000EB830050F8040C0028F3D1013BF0E740
S2140056A08C6804EB800555F8045C15BB0138EAE706
S2140056B002D20868404221E010680968002803DD2D
S2140056C0002907DA012019E0002903DD10B14FF0A8
S2140056D0FF3013E0013B916851F8235054F8231033
S2140056E08D420BD803F1FF33E4D3591CF3D10020CD
S2140056F004E0002BDDD08342DAD9106830BD1FB538
S21400570081EAE173A3EBE17300290093B4BF4FF085
S214005710FF330123019301A901230293CDF80CD096
S214005720FFF7ACFF05B05DF804FB90422DE9F041B1
S21400573006460F46154602D0884229D12F46012339
S21400574033607D6865BB29463046FFF762FD044638
S21400575018BBB368B9689C460746854229D103EB57
S2140057608503D7B17268AA4205F1010807D84146F9
S2140057703046FFF74EFD68BBB36803EB85031A6837
S214005780D21943F8042B2CBF012700274546E8E72B
S214005790FFF780FD04460028D0D02046BDE8F08103
S2140057A0BB6803EB850353F8043C002BCBD1013DCB
S2140057B0C8E7DCF80020D21951F820702CBF4FF053
S2140057C0010E4FF0000ED2194CF8042B4EF10007D4
S2140057D00130C2E70446E0E72DE9F8435468054681
S2140057E00E4690463CB97168A1420ED26FF009078A
S2140057F03846BDE8F883D8F8083003EB840353F83E
S214005800043C002BEFD1013CECE72846FFF701FDF6
S21400581007460028ECD17268A24209D9A868B16888
S214005820121B920001EB840100EB840097F008FE47
S2140058306A687068824207D9AB68121A9200002123
S21400584003EB800097F024FE0022D5F808C0D6F8B7
S21400585008E0D8F808801346A34212D172B14FF080
S214005860FF316B68A34225D9AB6853F82420EAB110
S214005870AA6852F82430013B42F8243001232B60FA
S214005880B6E75EF8236058F82300B11A81422CBFB1
S2140058904FF000094FF00109091A4CF82310964200
S2140058A02CBF4A4609F101020133D5E743F824101C
S2140058B00134D6E7DCD199E7F8B50D6813686B4379
