S01E0000636869702D65667233322D6C6F636B2D6578616D706C652E73333774
S21400000000000420B9C20100B7C20100D1BA07003F
S2140000100D6A0000B7C20100B7C20100B7C20100F6
S214000020B7C20100B7C20100B7C20100A1C50100F6
S214000030B7C201008C00002061C601004D670100B8
S214000040B7C201008DBD0C00B7C20100B7C20100E7
S214000050D9B50C00E5BD0C0099BD0C00B1BD0C0077
S21400006091BD0C003D450000A9460000B7C2010046
S214000070352E0000B7C20100B7C20100B7C20100AA
S214000080B7C20100B7C20100C9460000B7C20100EE
S214000090B7C20100B7C20100B7C20100B7C2010073
S2140000A0B7C20100B7C20100B7C20100B7C2010063
S2140000B0E9BD0C0095BD0C003174000025BE0C0097
S2140000C0B7C2010009A50C00B7C20100B7C2010003
S2140000D0B7C20100B7C20100B7C20100B7C2010033
S2140000E0B7C20100B7C20100B7C20100B7C2010023
S2140000F0B7C20100B7C20100B7C20100B7C2010013
S214000100B7C20100B7C20100B7C2010010B5054C66
S214000110237833B9044B13B10448AFF300800123AE
S214000120237010BD280800200000000084440F0043
S21400013008B5034B1BB103490348AFF3008008BD65
S214000140000000002C08002084440F00A3F5803A2D
S214000150704700BF174B002B08BF134B9D46FFF799
S214000160F5FF00218B460F461348144A121AD2F0A8
S21400017047FE0E4B002B00D098470D4B002B00D0AF
S21400018098470020002104000D000D48002802D0EA
S2140001900C48AFF30080D2F067FD2000290002F083
S2140001A0AFFCD2F0D7FB00BF000008000000000044
S2140001B0000000000000042028080020AC2E0220CA
S2140001C00000000000000000012800D070474FF635
S2140001D0FF739942FAD1054B012283F88120002251
S2140001E083F8C52083F8C620F0E700BF240A002065
S2140001F010B584B00C4600230093164B164A102107
S2140002000A2016F0EBFE154B186090B1144B0293C3
S214000210144B019301230093104B4FF48062124954
S214000220204617F063FD114B186050B1002004B053
S21400023010BD0F487BF00CFB40F2017000F0DEFAB8
S214000240E4E70C487BF004FB40F2027000F0D6FABC
S214000250ECE700BFD4090020340900202409002060
S2140002606C080020EC0A002080530D0028090020AE
S214000270E4400D0008410D0030B5A7B004460D4619
S214000280002941D02E4B1D602E4B009323460022A2
S21400029001212D4818F01AFE2C4B186000283AD081
S2140002A02B4B0093234601220A212A4818F00EFE03
S2140002B0294B1860002836D0284929487BF0C8FA10
S2140002C000F025FA2749284800F03EFA79F0F2FBBC
S2140002D00368D3F88430984705AB039381230493CF
S2140002E04FF0020103A894F071F820BB1F4C049A4B
S2140002F00399204603F066FB01221146204603F0D0
S214000300D3FB002027B030BD19487BF0A1FA2F2080
S21400031000F074FAB6E717487BF09AFA40F20470D9
S21400032000F06CFABCE714487BF092FA40F20470D6
S21400033000F064FAC0E711487BF08AFAE1E700BFF4
S21400034068080020C906000040410D002C09002066
S2140003505D04000064410D00640800208C410D001F
S21400036098410D00F0780D0048080020240A00206F
S21400037024410D0048410D0070410D00B8410D00AC
S21400038010B52C487BF035FDC0B92B4B1B78022BE3
S21400039035D02A4B1B680BB1DB7D5BBB284B1B782B
S2140003A0002B37D0274B1B78002B33D0264B1B78DF
S2140003B04BB30121254800F0B5F920E0244C204637
S2140003C07EF0E5FC1E4B187020467EF093FC1D4B1D
S2140003D0187020467EF0EBFC1B4B18701D487EF014
S2140003E0D5F8003818BF01201B4B187011487BF059
S2140003F00AFDCAE7FA221146144800F0E3F913484A
S21400040000F0B6F910BD322240F2B6310F4800F0C7
S214000410D9F9F4E7104B1B782BB1642211460B4830
S21400042000F0D0F9EBE740F2B6323221074800F090
S214000430C9F9E4E7F8610120EC1A002068080020FA
S21400044030090020440800206008002048080020EA
S21400045080A8012074A801203109002008B5FFF704
S2140004608FFF08BD00B583B000220092134603211B
S2140004700948006818F046FD28B1084B00221A709B
S21400048003B05DF804FB06487BF0E2F940F2067024
S21400049000F0B4F9F1E700BF2C0900203209002073
S2140004A0D0410D0010B582B00446114B186818F004
S2140004B0DDFE78B9642300930023224604210C480D
S2140004C0006818F01FFD01280AD10A4B01221A7095
S2140004D002B010BD08487BF0BBF9FFF7C3FFE9E7A1
S2140004E006487BF0B5F940F2057000F087F9ECE7B6
S2140004F02C09002032090020E8410D0004420D00BE
S2140005000388012B2BD110B5154B1B781BB1154A50
S2140005101278012A05D01BB1124B1B78022B17D07C
S21400052010BD40F6B83110487BF092F940F6B8306E
S214000530FFF7B8FF0B4B02221A700C4C0021204626
S21400054000F0F0F84FF4FA71204600F041F9E7E7C2
S214000550044B00221A70064895F074FAE0E77047DC
S21400056032090020EC1A002020420D004808002026
S21400057078DA012010B50379012B0CD01F4B1B78BD
S2140005801BB11F4A1278012A15D01BB11C4B1B78D1
S214000590022B2AD010BD194B1B78002BFAD1184B12
S2140005A01B78002BF6D140F6B830FFF77BFF144BD4
S2140005B001221A70EEE7FFF755FF114B00221A7062
S2140005C0104803F086FA10487EF0E1FB48B90F4C5D
S2140005D0012120467DF0C2FF002120467DF0C6FFA7
S2140005E0D8E70B487BF034F9D4E7FFF73BFF044B22
S2140005F000221A7007487BF02BF9CBE7320900205F
S214000600EC1A0020240A002080A8012074A80120EB
S21400061060420D00A0420D0010B582B00B4B1C6866
S21400062017F072FC0246002300930121204618F0C2
S21400063069FC012801D102B010BD05487BF008F91D
S21400064040F2057000F0DAF8F5E700BF6408002015
S214000650C0420D0000487047240A002000B583B051
S214000660164B1B682BB30146EFF3058343B90122F3
S2140006701248006816F07EFDB8B103B05DF804FBC2
S2140006800023019301AA0D48006816F0A1FE019B05
S214000690002BF1D04FF0E0234FF08052C3F8042D2A
S2140006A0BFF34F8FBFF36F8FE6E705487BF0D0F8B8
S2140006B0E3E704487BF0CCF8DFE700BF240900201E
S2140006C0D8420D0008430D0000B585B00123ADF8F3
S2140006D000300190034B03936846FFF7BFFF05B059
S2140006E05DF804FB0105000008B5CB6813B10846A9
S2140006F0984708BD01487BF0ABF8FAE730430D0099
S21400070008B54FF6FF710120FFF75EFD08BD08B57E
S21400071018F09AFE08BD006918B108B503F09CFCF5
S21400072008BD704708B50023C3608360002200231D
S214000730C0E90023006910B111B103F083FC08BDC5
S21400074003F085FCFBE7000008B59FED077B80ED16
S214000750007B00228260C26001611146FFF7E2FF63
S21400076008BD00BFAFF300800000000000000000DE
S214000770836823B370B582B00446C368ABB1104B30
S21400078019680B68DB6868469847009E019D2069DB
S21400079003F067FC58B1A168236862685B1842F1F1
S2140007A00002B34272EB050303D302B070BDE168EA
S2140007B0F2E72046FFF7AFFF26606560F5E7704773
S2140007C0EC02002008B58160C260FFF7D1FF08BDCB
S2140007D008B50A46FFF7F6FF08BD000008B5014653
S2140007E005487BF035F84FF0300383F31188BFF3EC
S2140007F06F8FBFF34F8FFEE760430D0008B5FFF71E
S214000800EDFF0000124A12F0070F1ED0D11D21F096
S2140008100701C1F5A04313440A460E4802600021B2
S21400082041601344083B23F007030B4803605960FC
S2140008301960991A51601360084B1960084B1960CB
S214000840084B4FF000421A6070474FF4A043E4E7AD
S214000850F41A0020086B0020F01A0020FC6A002022
S214000860F86A0020F46A002010B560B3044617F05A
S21400087043FB54F8043C154A126813420FD054F850
S214000880081CC9B14FF0300383F31188BFF36F8F94
S214000890BFF34F8F0E490F48D2F0A8FDFEE74FF08A
S2140008A0300383F31188BFF36F8FBFF34F8F0A496E
S2140008B00848D2F09BFDFEE723EA0203A3F10804F2
S2140008C017F0D4FB00E00024204610BDF46A002098
S2140008D0DC430D00C0430D0090430D00014B18682B
S2140008E0704700BFF86A0020014B1868704700BFC9
S2140008F0FC6A002008B51BF065FE034B1A68034B24
S2140009001A601BF089FE08BDF86A0020FC6A002009
S214000910F8B5074617F0F0FA174B1B6893B14FF07F
S214000920FF3600252C4604E01B68144A12689A42DB
S2140009300CD001345A68AA4200D91546B242F3D206
S2140009401646F1E74FF0FF3600252C4617F08EFBD3
S2140009507D60BE60FC601BF035FE094B1B683B608B
S214000960084B1B687B61084B1B68BB61074B1B6809
S2140009703B611BF051FEF8BD086B0020F01A00200A
S214000980F86A0020006B0020046B0020FC6A002040
S21400099010B588B00446164B1B6893B1144B1A4624
S2140009A01B68A342FBD351685018A0420DD0616863
S2140009B0601883420ED02360944200D0146008B0C2
S2140009C010BD01A8FFF7A4FFE8E760680144516086
S2140009D01446ECE707480068834206D05B68194473
S2140009E0616013681B682360E6E72060E4E700BFE9
S2140009F0086B0020F01A002038B5044617F07CFA81
S214000A00444B1B68EBB1444B1B681C421CD1631E55
S214000A1013F10A0F0BD804F1080214F0070F05D0E3
S214000A2022F007030833934260D91A4682B917F0BA
S214000A301DFB00257BF08CFB15F0070F5CD12846CC
S214000A4038BDFFF7DFFEDEE717F010FB0025F1E705
S214000A50324B1B68934202D331490C6805E017F00D
S214000A6005FB0025E6E721461C466368934202D252
S214000A702368002BF7D1274B1B68A34218D00D68BC
S214000A80083523680B6063689B1A102B18D9A018CA
S214000A9010F0070F10D04FF0300383F31188BFF328
S214000AA06F8FBFF34F8F1F491F48D2F09FFCFEE7A2
S214000AB017F0DCFA0025BDE743606260FFF768FFC9
S214000AC0626816490B689B1A0B60184909688B42C6
S214000AD001D216490B60104B1B681343636000235A
S214000AE02360134A13680133136000E0002517F0F3
S214000AF0BDFA002DA0D19DE74FF0300383F3118897
S214000B00BFF36F8FBFF34F8F0A490748D2F06EFCD2
S214000B10FEE700BFF01A0020F46A0020F86A002002
S214000B20086B0020FC430D00C0430D00FC6A00204B
S214000B30006B002038440D0038B501FB00F419B1F5
S214000B40B4FBF1F181420AD12046FFF755FF054676
S214000B5018B122460021D2F053F9284638BD0025A8
S214000B60FBE7000000283CD038B50446A0F1080595
S214000B7050F8043C1B4A126813420FD050F8081C69
S214000B80C9B14FF0300383F31188BFF36F8FBFF303
S214000B904F8F15491548D2F029FCFEE74FF0300379
S214000BA083F31188BFF36F8FBFF34F8F10490F4841
S214000BB0D2F01CFCFEE723EA020340F8043C17F0E0
S214000BC09BF954F8041C0B4A13680B441360284620
S214000BD0FFF7DEFE084A13680133136017F046FA83
S214000BE038BD7047F46A0020DC430D00C0430D009A
S214000BF090430D00F86A0020046B0020F8B5054607
S214000C000C46FFF731FED8B10746A4B1A04201D189
S214000C102E461AE021460120FFF78EFF0646A0B1B9
S214000C203A46A74228BF22462946D2F0C1F82846AF
S214000C30FFF798FF09E02846FFF794FF002604E038
S214000C4021460120FFF778FF06463046F8BD08B576
S214000C50FFF7D2FE08BD08B5FFF784FF08BD08B54C
S214000C60FFF7CCFF08BD08B50846FFF7F0FF08BD44
S214000C7008B50846FFF7EFFF08BD08B50846114659
S214000C80FFF7EDFF08BD08B506F0F8FB13F09CF97A
S214000C907AF0D2FD38F0C4FB36F00EFC08BD10B575
S214000CA082B00022ADF8062003689C680DF10603AA
S214000CB0A047192802D020B1002000E0012002B091
S214000CC010BD0120FBE7052B01D8002070472F2020
S214000CD070470000014B0360704700BFD4460D000C
S214000CE0024A0260024A0260704700BFF8460D00E2
S214000CF0D4460D00024A0260024A0260704700BFF6
S214000D00E4460D00D8450D00024A0260024A026021
S214000D10704700BFB4460D00EC450D00034A026064
S214000D20034A0260034A0260704700BF78CF0E0095
S214000D30C4CE0E0080460D00024A0260024A0260DF
S214000D40704700BFA0D20E00A0460D0008B50248AE
S214000D507DF066FF08BD00BFD0B6012008B502488A
S214000D607DF065FF08BD00BFD0B6012008B502F0D3
S214000D70F3FB08BD038848F20102934204D048F210
S214000D800202934212D0704790F90820012AF6D149
S214000D9010B509487AF05CFD4CF0A4F903685C696C
S214000DA00023064A40F6B831A04710BD90F9093036
S214000DB0012BE8D1ECE700BF78440D006D0D000074
S214000DC0012800D0704708B54FF6FF73994200D04F
S214000DD008BD0948094B0360094B036000234360C4
S214000DE08360C3600374436103764376054A06490D
S214000DF0D0F087FEECE700BFCC6D002048460D0023
S214000E00E08E0E0000000020E9DB070010B5044667
S214000E10034B03603821D0F079FE204610BD00BF9A
S214000E20D4460D0010B50446044B0360044B036023
S214000E303821D0F06BFE204610BD00BFF8460D00EE
S214000E40D4460D0010B50446044B0360044B036003
S214000E500421D0F05BFE204610BD00BFE4460D0026
S214000E60D8450D0010B50446044B0360044B0360E0
S214000E700821D0F04BFE204610BD00BFB4460D0042
S214000E80EC450D0008B5104B0360D0F8F4317BB983
S214000E90D0F8483173B9D0F804316BB9D0F898302F
S214000EA063B9436D63B9036963B9084B036008BD52
S214000EB0D1F01CFDD1F01AFDD1F018FDD1F016FDD1
S214000EC0D1F014FDD1F012FDC8C10E005C450D0036
S214000ED038B504460C4B036043688BB1437C4BB972
S214000EE0C5683DB135B12B681B682846984728462B
S214000EF078F07AFE0023E3606374237423726360E1
S214000F00024B2360204638BD28520E0048460D008E
S214000F10406818B108B57AF033FC08BD0320704766
S214000F20406858B100B583B04FF0000C8DF807C08C
S214000F3032B17AF0F7FB03B05DF804FB032070478C
S214000F400BB12F20F7E70DF10702F2E770B582B07C
S214000F500446A34B1B78BFF35B8F13F0010F45D0FD
S214000F60A04B1B78BFF35B8F13F0010F4CD09E4B4A
S214000F701B78BFF35B8F13F0010F53D09B4B1B788E
S214000F80BFF35B8F13F0010F6AD0994B1B78BFF34A
S214000F905B8F13F0010F00F0D180964B1B78BFF3E8
S214000FA05B8F13F0010F00F0DD80934B1B78BFF3CF
S214000FB05B8F13F0010F00F0EB802369002B00F02D
S214000FC0F680236B002B00F0F780636B002B00F09D
S214000FD051818A4D216928468BF094FA28468AF07A
S214000FE0C3FA002800F0598102B070BD7C48D0F0EA
S214000FF08FFD0028B4D07A48D0F096FD804A81490B
S2140010008148D0F07EFDABE77648D0F081FD002821
S214001010ADD07448D0F088FD794A7C497C48D0F041
S21400102070FDA4E77048D0F073FD0028A6D0794D77
S214001030794B2B60794B2B6000236B602B72EB6037
S2140010402B616B61AB61EB612B6285F824306648DF
S214001050D0F06AFD6A4A72492846D0F052FD8DE704
S2140010606248D0F055FD00288FD064486D4B036071
S214001070032383800223C380002585606A4A0260BA
S214001080C5601422009200F1280200F12C011030F5
S21400109049F052FD2B46002B01DB013BFBE7634A80
S2140010A0142300930223111DA2F1180049F044FDF9
S2140010B00023002B01DB013BFBE75D4A282300935E
S2140010C00223111DA2F1180049F036FD0023002B63
S2140010D001DB013BFBE7574A142300930223111D53
S2140010E0A2F1180049F028FD0023002B01DB013B8C
S2140010F0FBE7514A482300930223111DA2F1180072
S21400110049F01AFD0023002B01DB013BFBE74B4AAD
S2140011102C2300930223111DA2F1180049F00CFDA8
S2140011200023002B01DB013BFBE73048D0F0FCFC42
S214001130334A43493148D0F0E4FC26E72C48D0F047
S214001140E7FC00283FF429AF3E4D3F4B2B603F4B5A
S2140011502B602748D0F0E8FC294A3D492846D0F0C5
S214001160D0FC1AE72348D0F0D3FC00283FF41DAF8C
S214001170384D394B2B60394B2B60394B2B601D4853
S214001180D0F0D2FC1E4A37492846D0F0BAFC0CE70D
S2140011901948D0F0BDFC00283FF40FAF1648D0F039
S2140011A0C3FC174A30493148D0F0ABFC05E7164B74
S2140011B02F4A5A60236104E72269154B5B6833B1F6
S2140011C0032000287FF410AF114B2363FDE6104B7D
S2140011D00020187258745A60D8601874F1E700BF7F
S2140011E0C46D0020C06D0020946D0020286B002088
S2140011F0206B0020146B0020106B00202C6B00204E
S21400120000000020090D00001C000020D10E000088
S21400121008000020986D00200C460D00D8C40E0073
S214001220DD1200005C450D00C8C10E00986B002062
S214001230DC6B0020486C00208C6C0020386D002091
S214001240850E0000246B0020D8450D00E4460D00F6
S214001250F50C0000186B002080460D00C4CE0E0072
S21400126078CF0E001D0D0000390D00000400002090
S214001270EC6101202569144B5B6833B1032000281C
S2140012807FF4B2AE104B6363A3E60F4E33689B6ADF
S2140012903046984775600020F1E70C4BE361236900
S2140012A083B10B4A5360002000287FF49DAE084BA4
S2140012B0636150F0F3FD2062064B6362064BA36148
S2140012C0002091E62F20EFE7986D00202C6B002081
S2140012D0186B002004000020246B002010B5044684
S2140012E0124B0360436823B1104B9B6A9847002358
S2140012F0636000222262E06918B178F075FC002372
S214001300E3610022A261606918B178F06DFC0023E9
S214001310636100222261E06818B178F065FC002362
S214001320E360034B2360204610BD00BFD8C40E0008
S2140013300C460D0010B5134B0360D0F8F431ABB972
S2140013400446D0F848319BB9D0F8043193B9D0F8A8
S21400135098308BB9436D8BB903698BB90A4B036020
S2140013604FF41A71D0F0D2FB204610BDD1F0BEFA71
S214001370D1F0BCFAD1F0BAFAD1F0B8FAD1F0B6FA98
S214001380D1F0B4FAC8C10E005C450D0010B5044695
S214001390144B0360436823B1124B9B6A98470023A3
S2140013A0636000222262E06918B178F01DFC002319
S2140013B0E3610022A261606918B178F015FC002391
S2140013C0636100222261E06818B178F00DFC00230A
S2140013D0E360054B236028212046D0F097FB20468B
S2140013E010BD00BFD8C40E000C460D0038B504462C
S2140013F00E4B036043688BB1437C4BB9C5683DB167
S21400140035B12B681B6828469847284678F0ECFBD1
S2140014100023E3606374237423726360044B2360C9
S21400142014212046D0F072FB204638BD28520E000C
S21400143048460D0008B50A487AF00AFA09487EF0D0
S21400144099FC00B108BD012106487DF0D1FD0028B9
S214001450F8D105487AF0FCF904487DF0BFFBF1E7C7
S214001460A0440D0080A80120C0440D00D0B6012085
S21400147030B585B004463B493B480BF01BFC3B4D62
S21400148028467AF0E5F9214639487AF0E1F9284607
S2140014907AF0DEF937487AF0DBF90021084649F0A1
S2140014A0C3FA08B105B030BD334B1B78002B42D0D1
S2140014B000200028F6D1214630487DF05FF8FFF77F
S2140014C0B9FF0028EED12E487AF08CFC2D4B1B7805
S2140014D0BFF35B8F13F0010F36D02B4C20467CF009
S2140014E043FC2A4D2C632846FFF730FD0024019468
S2140014F002940394264B0193264B029326487DF0D4
S214001500D1FB039001ABAB622946244894F032FB32
S2140015101B4D28467AF077FC2246214928467AF069
S21400152089FB20487AF094F928467AF021FD0028B5
S214001530B8D10020B6E7104D28467AF071FDB0FA13
S21400154080F35B092B70B4E70E48D0F0E1FA002870
S214001550C3D00C48D0F0E8FA134A14490B48D0F030
S214001560D0FABAE799AA040091AA0400DC440D0058
S21400157010450D001C450D00F061012074A80120E7
S214001580F8610120C86D0020CC6D002024000020EA
S2140015904D0D00005D0D000080A8012078DA0120C6
S2140015A0750D00002C450D0000000020E10C000029
S2140015B008B579F04DFE08BDB0F5803F2CBF002081
S2140015C0012070474068E0B170B584B01D46002326
S2140015D08DF80F30BAB100230293019302AB00934B
S2140015E02B887AF081F80446192800D030B9029E7C
S2140015F03046FFF7E1FF68B900262E80204604B08B
S21400160070BD032070472B880BB12F20F7E70DF134
S2140016100F02E0E7B6B2F0E710B50446054B0360EC
S214001620054B0360054B03600821D0F06FFA204697
S21400163010BD00BF78CF0E00C4CE0E0080460D0051
S21400164010B50446044B0360044B03600421D0F03D
S2140016505DFA204610BD00BFA0D20E00A0460D00C9
S21400166008B54FF6FF710120FFF7AAFB08BD000082
S214001670024A0260024A0260704700BF384B0D0003
S214001680244B0D0008B5034A02211D2049F058FBE3
S21400169008BD00BF04470D0008B5034A02211D20FF
S2140016A049F04EFB08BD00BF14470D0008B5044ABC
S2140016B002211D2049F044FB024BFF221A7008BD90
S2140016C024470D005C00002008B528B1012807D08B
S2140016D00A4B5B7943B908BD09487AF0B9F8F7E7D1
S2140016E008487AF0B5F8F3E70022074907487AF089
S2140016F0ADFB024B00225A71EDE700BF1C6E0020C6
S21400170040470D0060470D000D180000F8610120ED
S21400171010B5002214460388022B04D033B140F2E1
S21400172003746CB110BD02798168FAE7094800F0CD
S214001730D2FB10B100210A46F3E700210122F0E7B0
S214001740044800F015FC0028ECD103487AF080F835
S214001750E8E700BF246E002084470D0001B300B503
S21400176085B00846002300930193029303938DF8F7
S21400177004200C4B994205D00B4B98420AD005B07A
S2140017805DF804FB012AF7D1084B03936846FEF781
S21400179065FFF4E7064B03936846FEF75FFFEEE748
S2140017A0704700BFD8780D00C0780D0011170000F4
S2140017B07505000070B50D46012804D915B90E4B05
S2140017C001225A7170BD044600280CBF012600266F
S2140017D00FD10A490A487AF03BF8211E18BF0121AA
S2140017E00848FEF79FFFFEF735FF314602F0DEF8A9
S2140017F0E4E70549EEE700BF1C6E002080530D00AD
S214001800B8470D00E86D0020B0470D0010B50A4837
S21400181000F061FB48B1022421F0D2FF00232246EB
S214001820012125F02CFC10B110BD0124F4E70121A4
S21400183002487AF00DF8F7E7246E0020D8470D002E
S21400184010B50446044B0360044B03600821D0F037
S2140018505DF9204610BD00BF384B0D00244B0D002F
S214001860012800D070474FF6FF739942FAD130B581
S21400187085B00F4D0023039302930E4B0193022372
S21400188000930D4B0D4A0121284629F04BFE0C4CC7
S21400189022460C492846D0F034F90B480B4B03601F
S2140018A00B4B036022460B49D0F02BF905B030BD38
S2140018B0006E0020D918000099160000851600005A
S2140018C00000002061B502001C6E0020244B0D00B5
S2140018D0384B0D007116000070B50446037D224A91
S2140018E013700B2B10D0204B1B78FE2B23D015D853
S2140018F0022B32D84BF0F6FB03685D6923461B4A81
S21400190041F28831A84770BD837D194A02211D2007
S21400191049F016FAA27D144B1A70E4E7FF2B1CD18F
S2140019204BF0E0FB03689B692246104998470E4B34
S214001930FF221A70E7E74BF0D5FB03689B690B4D57
S2140019402246294698474BF0CDFB03685E6923463E
S2140019502A464FF47A71B047D5E7064A02211D2081
S21400196049F0EEF9CFE700BF5C000020AD1600009E
S214001970F4470D0048480D0010B588B00446FEF741
S21400198069FE0122764901F0A9FF76492046FEF756
S21400199073FC002840F0A18000248DF808407248AF
S2140019A07AF020FA02A901201EF0F6FE8DF8074014
S2140019B021F006FF0DF10702012123F007F90028A8
S2140019C000F093800023ADF8043021F0F9FE01AA60
S2140019D0012122F0A9FA002800F0918000238DF85A
S2140019E0033021F0EDFE0DF10302012123F040F853
S2140019F0002800F08E8000238DF8023021F0E0FEF3
S214001A000DF10202012123F075F8002800F08B800A
S214001A1000238DF8013021F0D3FE0DF101020121E3
S214001A2023F020FA002800F088804F487AF0EBF97F
S214001A309DF808308DF80C301BB19DF809308DF8F4
S214001A400D3004AB00220492ADF81420BDF804203B
S214001A50ADF810209DF807208DF812209DF8032081
S214001A608DF813209DF802208DF814209DF8012093
S214001A708DF8152093E803000690ADF81C1008AB0F
S214001A8013E90C0003A9394800F01CF904460028A5
S214001A905DD1374A3749354800F01AFA3649374893
S214001AA0FEF752FE9DF80830002B57D09DF809101F
S214001AB0022914BF002101213048FEF733FE002220
S214001AC02F4929487AF0C2F977F0F4FF0368D3F873
S214001AD084309847204608B010BD0446294879F05F
S214001AE0B7FE2046FEF78AFE56E70123264A194629
S214001AF01D2049F025F905238DF8073062E70123FC
S214001B00224A19461D2049F01BF90A23ADF8043075
S214001B1064E701231E4A19461D2049F011F90A23DD
S214001B208DF8033067E701231A4A19461D2049F04D
S214001B3007F90A238DF802306AE70123164A194688
S214001B401D2049F0FDF80A238DF801306DE7134893
S214001B5079F07EFE2046FEF751FE9AE7D0F0C6FEEC
S214001B6060480D00006E0020F8610120246E002001
S214001B70C9160000B517000008790D00E86D0020B2
S214001B800D1800006C480D008C480D0004490D002F
S214001B9070490D00E8490D00604A0D00D84A0D0056
S214001BA030B585B004681248FFF7E6FEC0B9FEF708
S214001BB033FD104879F04CFE0F4800F01DF90A225C
S214001BC06946204615F092FC0128F8D16946084877
S214001BD0FEF78AFD00226946204615F087FCF3E7EB
S214001BE00546064879F034FE2846FEF707FEDEE78F
S214001BF01C6E0020084B0D00246E0020F04A0D00DD
S214001C0008B50249FEF7F4FA08BD00BFA11B0000A4
S214001C1008B54FF6FF710120FFF722FE08BD08B594
S214001C204368987828B901229A709B6803B1984750
S214001C3008BD0228FCD103229A700120F5E70000B7
S214001C40012800D070474FF6FF739942FAD1092158
S214001C50104B06E000221A605A609A60DA601C3365
S214001C6001390029F6DA63220B4B04E000215960A3
S214001C7099601033013A002AF8DA084B0022A3F8DC
S214001C80202483F8222483F8232483F8242483F84A
S214001C902524D7E7306E0020486F0020247E0020E1
S214001CA000B585B017F004FB0123ADF800300190B5
S214001CB0034B03936846FEF7D1FC05B05DF804FBC2
S214001CC01F1C000030B585B004460D4602A880E80B
S214001CD00C0004F5805C04F5A15303C843F8042BFC
S214001CE01980BCF820340A2B1ED804F5805393F8CC
S214001CF022340A2B20D804F5805393F823340A2B79
S214001D0021D804F5805393F824340A2B22D804F5FE
S214001D10805393F825340A2B23D90A21204879F0DA
S214001D2097FD40F2077005E00A211E4879F090FD05
S214001D3040F2077005B030BD0A211B4879F088FDD7
S214001D4040F20770F6E70A21154879F081FD40F267
S214001D500770EFE70A21124879F07AFD40F2077023
S214001D60E8E7124B0093234600220121104817F0A3
S214001D70ADF8104B186040B12B7863B16B78022B2E
S214001D800BD00123A3700020D4E70B4879F060FD48
S214001D9040F20470CEE7D0F0A9FD0323A370F2E76B
S214001DA0284C0D00444B0D00B04B0D00A11C00004C
S214001DB09C4C0D004C820020A44C0D0009298CBFC1
S214001DC000200120704722B109298CBF0020012085
S214001DD07047B1FA81F04009704709298CBF00208E
S214001DE00120704709298CBF00200120704709296F
S214001DF08CBF00200120704730B583B0044601AB8D
S214001E004FF48C7200F10C01294879F0DFF801AB31
S214001E104FF4C86204F59271264879F0D7F801AB02
S214001E20642204F60C71244879F0D0F801AB4FF424
S214001E30487204F57761214879F0C8F804F58055B2
S214001E40B5F8202495F8223403FB02F201AB920089
S214001E5004F5945110311A4879F0B8F895F823240F
S214001E60B5F8203403FB02F201AB02EB820204F267
S214001E706471144879F0AAF895F82424B5F820344B
S214001E8003FB02F201ABD20004F6BC110E4879F057
S214001E909DF895F8252402EB420201AB920004F669
S214001EA06C610A4879F092F8012003B030BD00BF9B
S214001EB010730800117308001273080013730800EB
S214001EC014730800157308001673080017730800CB
S214001ED04160826070478078032814BF002001208C
S214001EE07047000000B583B000220092134603211D
S214001EF00748006817F006F810B103B05DF804FB59
S214001F00044879F0A5FC40F20670FEF777FCF4E78B
S214001F104C820020C44C0D0030B583B005460C46FC
S214001F20104B186817F0A2F960B9642300930023D9
S214001F30224604210B48006816F0E4FF012808D169
S214001F4003B030BD084879F083FC2846FFF7CAFF87
S214001F50EBE7064879F07CFC40F20570FEF74EFC95
S214001F60EEE700BF4C820020E8410D00E04C0D007B
S214001F70F8B504460E4615468378012B03D0032B8E
S214001F8005D00020F8BD012AF9D1022701E065B985
S214001F902F460A212046FFF7BFFFA770636833B1BC
S214001FA03146284698470120ECE70020EAE7012062
S214001FB0E8E700002DE9F0418CB0002A6AD0074619
S214001FC00E461D4602F1FF3C1FFA8CF42146FFF731
S214001FD0F5FE804600285FD000943346304A022142
S214001FE01D2048F0ADFEC4EBC40307EB830393F853
S214001FF020302B75002B46D0C4EBC40307EB8303BD
S214002000D9681A690891099208AA92E8030085E837
S214002010030004EB840141F2902202EBC1023A4431
S21400202099690A920B9105F108020CA911E90300BF
S21400203082E80300DA692A6193F82110697593F83B
S21400204022C085F816C00120E87593F824302B7658
S2140020506876C4EBC40407EB840090F82600A876E4
S2140020606F682C68ED6807900693CDF814C004914D
S214002070039202950194009733460A4A03211D20D5
S21400208048F05EFE08E03346074A03211D2048F06C
S21400209057FE01E04FF0000840460CB0BDE8F08166
S2140020A0004D0D00644D0D00404D0D002DE9F04F24
S2140020B09BB005460C91144618460D939DF890B0BB
S2140020C0259F9DF89CA09DF8A0909DF8A4802B9E2F
S2140020D03B6809962A9A0892CDF81C80CDF818908D
S2140020E0CDF814A0269A04920393CDF808B0019078
S2140020F000940B46624A02211D2048F021FE002C67
S21400210000F0B780013CA4B221462846FFF756FEF1
S2140021100B90002800F0AF807B680A2B46D805F5A8
S214002120805393F82234B3424AD304EB84035B0013
S21400213003F608732B4410AA97E8030082E803000E
S2140021400DF1480C8CE8030004330E9310D00923DD
S2140021501993189108293ED919AB1B680F931A4694
S21400216012990E98D0F024FE00230E990F9A8B54E5
S2140021707B680E9A14921593C4EBC40305EB830395
S21400218003F10C0214A903C982E80300269ADA6157
S21400219083F820A083F8219083F8228083F826B065
S2140021A00D9A83F8242000222A9F28E000940C9B96
S2140021B0344A01211D2048F0C3FD00230B935AE04A
S2140021C0019600940C9B304A01211D2048F0B8FD72
S2140021D000230B934FE018ABBFE704EB840302EB3E
S2140021E0430303F2A44305EB830157F8220045F8A6
S2140021F02300012005F8230013184B801A46B2422C
S214002200EBD304EB840341F2902707EBC3032B4484
S21400221016931796C4EBC40305EB8303143316AA70
S21400222092E8030083E8030005F58056B6F82024FC
S214002230C2EBC202920005F10C01144878F0D2FFFE
S214002240B6F8202496F8223403FB02F29200E9192D
S2140022500F4878F0C7FF642205F60C710D4878F039
S214002260C1FF00940C9B0C4A02211D2048F068FD1B
S21400227001E000230B930B981BB0BDE8F08F00BF66
S214002280EC4D0D00AC4E0D00EC4E0D00107308002A
S2140022901473080012730800504F0D00F0B583B099
S2140022A005461446089E1F46002B3CD11A4621467A
S2140022B0FFF789FD034698B300943B46224A022165
S2140022C01D2048F03DFD04F1120305EB03131B79B6
S2140022D0337000941D4A03211D2048F031FD3378E9
S2140022E05BB304F1120205EB0212537973700832E5
S2140022F0371D92E8030087E8030005EB041494F802
S2140023003121727394F83321F27301243473B47359
S214002310B26800920E4A03211D2048F011FD2346A4
S214002320184603B0F0BD541EA4B21A462146FFF765
S2140023304AFD03460028BFD1F2E7064A03211D20C6
S21400234048F0FEFC0123EBE7844F0D00D44F0D0050
S21400235020500D0000500D002DE9F04F87B00546C7
S214002360144698469DF840A09DF844B09DF84870E5
S214002370DDF84C90002F52D13A462146FFF723FD58
S2140023800346002847D0D9F80430CDF80CA0CDF885
S2140023900880019300975B46264A02211D2048F0DC
S2140023A0CFFC04F1120605EB061686F804B077712A
S2140023B005EB041383F8318183F833A104F5F77431
S2140023C005EBC404D9F80420D9F800102046D0F054
S2140023D0EFFCD9F8043004940593083606AB13E9ED
S2140023E0030086E8030005F5805393F822241201C3
S2140023F005F59271104878F0F5FE4FF4487205F531
S21400240077610E4878F0EEFE3B460D4A02211D200D
S21400241048F096FC0123184607B0BDE8F08F541E1E
S214002420A4B23A462146FFF7CEFC03460028AAD1BE
S214002430F1E700BF50500D00117308001373080039
S214002440D0500D0042B370B505463BB3511ECEB218
S214002450013B9CB23146FFF7C0FC08B32146284634
S214002460FFF7ACFCF0B106EB4603C4EB0412920097
S21400247002EB43032B4493F86437ABB106EB4601FB
S21400248002EB41010D44D5F86537049A136095F8C0
S21400249069371371002002E001207047012070BDEB
S2140024A00120FCE70120FAE78B20F8E7002A4CD051
S2140024B070B50546002B4AD0511ECEB2013B9CB2E9
S2140024C03146FFF78AFC002843D021462846FFF70E
S2140024D075FC08B901203BE006EB4602C4EB04138A
S2140024E09B0003EB42032B449DF8142083F86527DA
S2140024F09DF8182083F866279DF81C2083F8672728
S2140025009DF8202083F868279DF8242083F8692703
S21400251006EB4606C4EB04139B0003EB46032B4472
S2140025209DF8102083F8642705F5805393F823243C
S214002530B3F8203403FB02F202EB820205F2647168
S214002540054878F04FFE002002E001207047012089
S21400255070BD0120FCE700BF1573080042B370B5DC
S21400256005463BB3511ECEB2013B9CB23146FFF747
S21400257039FC08B321462846FFF720FCF0B106EBED
S2140025804603C4EB0412D20002EB83032B4493F8F9
S214002590BC39ABB106EB460102EB81010D4405F5F3
S2140025A01C6595E80300049B83E80300002002E016
S2140025B001207047012070BD0120FCE70120FAE7EA
S2140025C08B20F8E7002A3CD070B50546002B3AD0A1
S2140025D0511ECEB2013B9CB23146FFF703FCA0B3BE
S2140025E021462846FFF7EAFB08B901202CE006EB57
S2140025F04602C4EB0413DB0003EB82032B44059A6C
S214002600C3F8C029069AC3F8C42906EB4606C4EBED
S2140026100413DB0003EB86032B449DF8102083F89D
S214002620BC2905F5805393F82424B3F8203403FB23
S21400263002F2D20005F6BC11054878F0D3FD002062
S21400264002E001207047012070BD0120FCE700BFBA
S21400265016730800BAB170B504461E46551EEDB294
S2140026602946FFF7C4FB80B104EB051393F86C3ED4
S2140026706BB104EB051404F5676494E8070086E87C
S2140026800700002070BD012070470120FAE78B206C
S214002690F8E7000042B370B505461E46541EE4B285
S2140026A02146FFF7A4FB08B9012070BD05EB041313
S2140026B0049AC3F8702E059AC3F8742EE73405EB17
S2140026C004149DF81820227283F86C6E05F580536A
S2140026D093F8252402EB4202920005F66C6103484B
S2140026E078F080FD0020E0E70120704717730800AF
S2140026F0012906D0022906D009B1044870470448CB
S2140027007047044870470448704700BF10510D00DA
S21400271020510D0018510D0004510D002DE9F04711
S21400272084B005460F4690461E4601238DF80F30AE
S2140027300DF10F0138461EF06AF996F80090B9F1CF
S214002740000F01D0002434E03B46394A03211D2007
S21400275048F0F6FA9DF80F309BB941462846FFF739
S214002760C7FF03460097334A03211D2048F0E8FAC6
S21400277021F026F84246394621F060FB4FF0010A68
S21400278040E03B462C4A01211D2048F0D9FACA46B3
S21400279038E042B17168DCF80800D0F0F9FAF0B120
S2140027A04FF0000A00E0CA46BAF1000F19D1013412
S2140027B0E4B2632C2AD804F1120C05EB0C1C9CF82E
S2140027C00520012AF3D19CF80420002AEFD0DCF87B
S2140027D00C20B1688A42DCD04FF0000AE4E7CA4613
S2140027E0E2E741462846FFF783FF03460097134A71
S2140027F003211D2048F0A4FA20F0E2FF42463946A5
S21400280021F01CFB504604B0BDE8F0874146284640
S214002810FFF76EFF03460097094A03211D2048F084
S2140028208FFA0C9B01221A704FF0000AEAE700BFED
S21400283034510D0070510D00B0510D0000520D00C6
S21400284064520D0000B583B0009313460122FFF7D3
S21400285065FF03B05DF804FB00B583B00093134634
S2140028600222FFF75BFF03B05DF804FB08B54FF6E6
S214002870FF710120FFF7E4F908BD0000F0B583B052
S21400288044688768250CA6B200962B460A4A0221A1
S2140028901D2048F055FA40F201139C4201D003B0C7
S2140028A0F0BD002FFBD100962B46044A02211D20C6
S2140028B048F046FAF3E700BFE0520D0000530D0063
S2140028C07047000070B504460D46164603460A4A91
S2140028D002211D2048F034FA33462A46214607488E
S2140028E0FFF7B0FF044608B9204670BD002202215B
S2140028F00248FFF73DFBF7E720530D00246E00204B
S21400290070B504460D46164603460A4A02211D20A7
S21400291048F016FA33462A4621460748FFF79CFF3A
S214002920044608B9204670BD012202210248FFF77E
S2140029301FFBF7E748530D00246E002000B583B058
S214002940009313460A4601460248FFF7A7FC03B069
S2140029505DF804FB246E002010B584B0089C039438
S2140029609DF81C4002949DF818400194009313466D
S2140029700A4601460248FFF7EFFC04B010BD00BF50
S214002980246E002008B513460A4601460148FFF7A4
S21400299011FB08BD246E002010B588B0109C07946B
S2140029A00F9C06949DF8384005949DF83440049496
S2140029B09DF8304003940B9C02940A9C019400936B
S2140029C013460A4601460248FFF770FB08B010BDE2
S2140029D0246E002000B583B0009313460A460146D5
S2140029E00248FFF72FFD03B05DF804FB246E0020BD
S2140029F000B583B0009313460A4601460248FFF727
S214002A00ADFD03B05DF804FB246E002008B5134648
S214002A100A4601460148FFF71DFE08BD246E002049
S214002A2010B586B09DF8304005949DF82C4004946F
S214002A309DF8284003949DF8244002949DF8204079
S214002A400194009313460A4601460248FFF72EFDFE
S214002A5006B010BD246E002010B584B0079C02940A
S214002A60069C0194009313460A4601460248FFF767
S214002A70A9FD04B010BD00BF246E002010B584B0C0
S214002A809DF81C400294069C0194009313460A4647
S214002A9001460248FFF7FEFD04B010BD246E00207C
S214002AA0024A0260024A0260704700BF482D0E00CC
S214002AB0E0530D00012800D0704708B54FF6FF73AD
S214002AC0994200D008BD034A03490448CFF019F8DC
S214002AD0F8E700BF00000020A12A000060000020E8
S214002AE010B50446044B0360044B03600821CFF086
S214002AF00DF8204610BD00BF482D0E00E0530D0017
S214002B0010B5FEF7C0F81B48FEF7B2FC50BB1A4CD7
S214002B101A4BD3F85C1F20464AF04CFA20464AF07F
S214002B2055FA174C204679F05DF98EF0EDFB86F0ED
S214002B3009F9204679F067F9124878F089FE1248BC
S214002B40FFF75EF890B9114878F082FE04F0A2FC18
S214002B5047F082FF0E4878F07BFEAC20FDF74EFE75
S214002B60002010BDAC20FDF749FED0E7AC20FDF7F5
S214002B7045FEE8E774530D006000002078FA012057
S214002B80F861012088530D001C6E00209C530D0038
S214002B90B8530D0070B50446044D2B689E6801F0CE
S214002BA08EF9024621462846B04770BD1C6E0020AE
S214002BB008B54FF6FF710120FFF77CFF08BD38B15E
S214002BC041B10160028100228280C28001207047EC
S214002BD00020704700207047C28892B283889BB25C
S214002BE09A4216D0C28892B283889BB29A4209D281
S214002BF00389828892B29B1AC08880B210FA83F04A
S214002C0080B27047C3889BB2808880B2181A80B2A0
S214002C1070470020704710B50489FFF7DDFF201AC3
S214002C2080B210BDF8B548B30F461546044659B3F2
S214002C30038993422ED3FFF7EEFFA8421DD32689C1
S214002C40E3889BB2F61AB6B2B54229D92368E08863
S214002C503246394613FA80F0D0F0AAF8AA1BB91902
S214002C602068D0F0A5F8E28815FA82F5228995FB4F
S214002C70F2F302FB1355ADB2E580F8BD0D4B0E4ADC
S214002C8096210E48CFF03AFE0D4B0B4A97210B4883
S214002C90CFF034FE0B4B084A98210848CFF02EFEA2
S214002CA02368E0882A46394613FA80F0D0F080F888
S214002CB0D9E700BF08540D0010540D0040540D0015
S214002CC0A8540D00B8540D0070B516461D46DCB26B
S214002CD00E4B1A78A41AE4B20D48FFF79CFFA2B276
S214002CE0904209D20B4B2A4631460B48006818F032
S214002CF007FB7DF04DF870BD044C21883144044834
S214002D00FFF790FF00232380ECE700BF5C840020E1
S214002D1050820020C92C000070010020F8B550B386
S214002D200F461546044661B3038993422FD3FFF737
S214002D3053FFA84231D92689A3889BB2F61AB6B2A9
S214002D40B5422FD92368A188324613FA81F1384656
S214002D50D0F02EF8AA1B2168B819D0F029F8A3885D
S214002D6015FA83F3228993FBF2F102FB11339BB22F
S214002D70A380E8B2F8BD104B104AB5211048CFF03A
S214002D80BDFD104B0D4AB6210D48CFF0B7FD0E4BDA
S214002D900A4AB7210A48CFF0B1FD2046FFF71CFFCC
S214002DA00546C8E72368A1882A4613FA81F1384603
S214002DB0CFF0FEFFD3E700BF08540D00D8540D0037
S214002DC040540D0010550D0018550D0038B500F094
S214002DD091FE4FF480720F490F48FFF7F0FE0F4D3B
S214002DE00F4C2B4680220F49206818F089FA2B4694
S214002DF080220D49206818F083FA0C4B4FF480525D
S214002E00C3F880211A600A4AD36C43F00403D364E3
S214002E1038BD00BF5C83002050820020C92C000013
S214002E20700100205C820020DC82002000E100E0CF
S214002E300000014008B57CF0ABFF08BD58B110B5E6
S214002E400C46014654B12246074B186818F040F865
S214002E5038B920B210BD4FF0FF3070474FF0FF304A
S214002E60F8E74FF0FF30F5E770010020002830D07B
S214002E7070B584B00C46054600292DD01848FFF7DB
S214002E80ABFEA04207D3224629461548FFF746FF69
S214002E9000B204B070BD02F0F2FA064601AB02AA18
S214002EA003A91048006817F0E2FF0F4B1B88029A30
S214002EB0934203D3304602F0E8FAE4E7D21A92B21D
S214002EC0039919440648FFF7ADFE074B029A1A808D
S214002ED0F0E74FF0FF3070474FF0FF30D9E700BF04
S214002EE050820020700100205C84002070B50446EB
S214002EF00A694B6952EA03001ED08868C96810EB5D
S214002F00000C41EB010E1CEB000C41EB0E0E4FEAE1
S214002F104E1545EADC654FEA4C161CEB060C4EEBEC
S214002F20050E1CEB000041EB0E01CFF05DFB01230C
S214002F3023706070204670BD002323706370F9E72D
S214002F40D0E9020170472D2070472D2070470120E0
S214002F507047012070470000024A0260024A026081
S214002F60704700BF50580E002C560D0070474FF4A7
S214002F70806070470023836070470023436070477B
S214002F80044A026020324260034A4260034A0260FA
S214002F90704700BF5C570D0048560D0000560D00E8
S214002FA00346064A40F8042C203240F80429044A16
S214002FB04260044A43F8042C704700BF5C570D007B
S214002FC048560D0000560D00024A0260024A026092
S214002FD0704700BFAC1C0E0014570D00024A02607A
S214002FE0024A0260704700BF0C1C0E0068560D00B7
S214002FF010B50446064B036020334360054B436020
S214003000054B03601021CEF081FD204610BD00BFA9
S2140030105C570D0048560D0000560D0010B50446CE
S214003020084B40F8043C203344F80439064B6360F0
S214003030064B40F8043C10212046CEF067FD2046A3
S21400304010BD00BF5C570D0048560D0000560D0021
S21400305010B50446054B0360006B18B176F0C4FD4E
S21400306000232363024B2360204610BD6C8D0E00A8
S214003070A4550D0010B50446054B0360406B08B11F
S2140030804AF0E0F900236363024B2360204610BD3C
S214003090B0110E00D8550D0010B50446174B03604E
S2140030A06433436000F51C704BF0BCF914F5EC7209
S2140030B005D004F5147300E0183B9A42FCD1104B7F
S2140030C0E3672033C4F880300E4BC4F880300E4BD4
S2140030D0E36704F13800A36D13B10022A265984798
S2140030E004F10800A36A13B10022A2629847074BB6
S2140030F06360074B2360204610BD00BFF0180E002B
S2140031005C570D0048560D0000560D0014560D0075
S214003110B8560D0038B505460446194B40F8043C31
S214003120643344F8043900F51B704BF07BF915F551
S214003130EA7205D004F5147300E0183B9A42FCD1FD
S214003140104BE3672033C4F880300F4BC4F8803050
S2140031500E4BE36704F13800A36D13B10022A2659D
S214003160984704F10800A36A13B10022A2629847A8
S214003170074B6360074B45F8043C204638BD00BF4C
S214003180F0180E005C570D0048560D0000560D0056
S21400319014560D00B8560D000E4B1B78BFF35B8F10
S2140031A013F0010F01D00C48704710B50948CEF057
S2140031B0AFFC08B9084810BD074C084B2360084B05
S2140031C023600448CEF0B0FC064A07492046CEF0FD
S2140031D098FCEFE760840020648400202C560D00E5
S2140031E050580E0000000020592F000010B504466D
S2140031F0054A01210C2047F0A3FDE06810B10368E2
S2140032009B68984710BD00BF34550D0010B50446A6
S214003210054A01210C2047F093FDA06810B1036811
S2140032209B68984710BD00BF34550D0030B583B07D
S214003230C068D8B10D4614461A68019200221A607A
S21400324001AA21462DF014FB019808B14AF0FAF8BD
S214003250002301930C4B1B680093A3886BB12B894A
S21400326043F040032B81002003B030BD074A012104
S2140032700C2047F065FD0020F6E7E388002BEED132
S2140032802378402BEBD1EEE794570D0048550D0000
S21400329030B583B08068D8B10D4614461A680092DF
S2140032A000221A606A4621462DF0E2FA009808B11C
S2140032B04AF0C8F8002300930C4B1B680193A388C0
S2140032C06BB12B8943F040032B81002003B030BD47
S2140032D0074A01210C2047F033FD0020F6E7E3887B
S2140032E0002BEED12378402BEBD1EEE794570D0060
S2140032F048550D00F0B587B006460C46224A032115
S214003300152047F01DFDB568002D2DD00023ADF823
S21400331010301E4B1B68039323893BB31C4A12686C
S214003320039253B30123ADF81030277B606849F051
S214003330DFFF6368059304AB009305AB3A46A168CC
S214003340284648F08DF80446059808B14AF07AF801
S214003350002305932CB1B06818B147F0B9FE0023DE
S214003360B360204607B0F0BD0320FBE76289022A5F
S214003370D4D1227B142AD1D1D7E76389002BD1D1AF
S214003380237B402BCED1D0E77C550D0098570D00FF
S21400339094570D00012800D070474FF6FF739942EE
S2140033A0FAD170B58AB04C4B4C4A1A604C4A5A60F7
S2140033B04C4A1A6064325A6003F10802DA609A6076
S2140033C000229A62DB6248491963CDF804D0CDF832
S2140033D000D0089203F13801D96399639A65DB65DA
S2140033E0424919669A66DA661A6783F874209A67FD
S2140033F03F49D9673F49C3F880103F49D967203114
S214003400C3F8801083F8AC20C3F8B820C3F8BC20FB
S214003410C3F8C020C3F8C420C3F8C821C3F8CC2121
S21400342083F8D021C3F8D421042203F5EC7303E01B
S214003430002103F8181B013A002AF9DA264800246E
S214003440C0F850420523C0F8543280F85842C0F8FD
S2140034507442C0F87842294BC0F8703280F87C423B
S214003460274E32462749CEF04CFB3246264927489F
S214003470CEF047FB324626492648CEF042FB264D84
S214003480264B2B606C602C722846254B40F8103B70
S21400349093F096FCC5F8D040C5F8D440C5F8D8409F
S2140034A0C5F8DC4032461F492846CEF02AFB1E48A7
S2140034B01E4B036000220023C0E90223C0E9042358
S2140034C01B4B03608461C46104634463324619493C
S2140034D0CEF017FB0AB070BD80850020B8560D00F0
S2140034E014560D00F0180E00792E0300F118030094
S2140034F000560D0048560D005C570D00AC640E00DB
S2140035000000002099300000C92F0000680000204D
S214003510DD2F00007000002068840020D8550D00C4
S214003520B0110E007530000048850020A4550D002F
S2140035306C8D0E005130000010B50446044B03603D
S214003540044B03600421CEF0E1FA204610BD00BF14
S21400355050580E002C560D00F0B583B00F4F38466D
S2140035602EF00EF80E4901F50053D3F85C3F0D4AD5
S21400357053600D4E0D4D0095334638462EF00CFD2B
S2140035800B4B33610B4C22463946304630F034F84C
S214003590094B636325626C6003B0F0BD8085002034
S2140035A078DA01206800002070000020688400207F
S2140035B0805101004885002090550D0010B5044646
S2140035C0194B03606433436000F51C704AF02AFF11
S2140035D014F5EC7205D004F5147300E0183B9A421B
S2140035E0FCD1124BE3672033C4F88030104BC4F88C
S2140035F08030104BE36704F13800A36D13B100224E
S214003600A265984704F10800A36A13B10022A262DB
S2140036109847094B6360094B23604FF4227120469C
S214003620CEF074FA204610BDF0180E005C570D0060
S21400363048560D0000560D0014560D00B8560D00E5
S21400364038B5054604461B4B40F8043C643344F842
S214003650043900F51B704AF0E5FE15F5EA7205D050
S21400366004F5147300E0183B9A42FCD1124BE36752
S2140036702033C4F88030114BC4F88030104BE36719
S21400368004F13800A36D13B10022A265984704F137
S2140036900800A36A13B10022A2629847094B636030
S2140036A0094B45F8043C4FF422712046CEF02EFA22
S2140036B0204638BDF0180E005C570D0048560D0029
S2140036C000560D0014560D00B8560D0010B50446F1
S2140036D0044B0360044B03600821CEF017FA204623
S2140036E010BD00BFAC1C0E0014570D0010B50446EC
S2140036F0044B0360044B03601C21CEF007FA2046FF
S21400370010BD00BF0C1C0E0068560D0010B5044618
S214003710074B0360406B08B149F094FE00236363D7
S214003720044B2360E0212046CEF0F0F9204610BD81
S214003730B0110E00D8550D0010B50446074B0360B7
S214003740006B18B176F050FA00232363044B236015
S21400375038212046CEF0DAF9204610BD6C8D0E00DA
S214003760A4550D0008B54FF6FF710120FFF712FEB5
S21400377008BD000000B583B0084803681988803982
S21400378001EBD171064B01932D2300938023002279
S214003790491018F025FC03B05DF804FB08880020EB
S2140037A0E85B0D0030B584460D4C00F1200E254632
S2140037B0DCF80000DCF80410DCF80820DCF80C303C
S2140037C00FC50CF1100C2C46F445F0D12B46DCF856
S2140037D00000DCF80410DCF8082007C330BD00BF8A
S2140037E00888002010B584B00446FFF7C3FF2046C3
S2140037F0CFF086FF142803D918F0C4FA04B010BD21
S21400380001230293002201920092052221460248DB
S21400381018F01FFDF0E700BF0888002000B583B051
S2140038200B4B1B681988403901EBD17149105A8837
S214003830453A58B1074B019340230093044818F0CB
S214003840CFFB18F09FFA03B05DF804FB024BF2E7DB
S214003850088800209C590D009C570D0010B582B0BA
S2140038600446B8B908210F4B1B685A88453A02EB44
S214003870D27302EB63027CB910237CB912207CB9A8
S214003880094C01940090074818F0AAFB18F07AFA41
S21400389002B010BD6821E6E71223EEE71120EEE73E
S2140038A0024CEEE708880020C45B0D009C5B0D0010
S2140038B010B50446084818F033FB2046FFF792FF81
S2140038C00020FFF7ABFF00210846FFF7C7FF0021E7
S2140038D00120FFF7C3FF10BD08880020F8B5044696
S2140038E01746002579B10E460846CFF009FF142882
S2140038F004D9204877F0ACFF2F2026E0314604F1AB
S214003900B000CFF0F5FE00F007F90146F0B9002050
S21400391018F00AFA0146F0B904F18406304618F0A9
S214003920CBFA0146E0B96FF07F43C4F88830002335
S214003930C4F88C30304618F0F3FA0146A8B9304681
S214003940FFF730FF84F8C5702846F8BD0A4877F0C0
S2140039507FFFAC25DBE7094877F07AFFAC25DBE78D
S214003960074877F075FFAC25DDE7064877F070FF6F
S214003970AC25E4E7B85E0D00CC5E0D00EC5E0D00F5
S214003980005F0D001C5F0D0008B5843018F0C8FA03
S21400399008BD10B50446FFF7F7FF04F1B000FFF7C7
S2140039A087FF94F8C500FFF739FF10BD08B590F8FB
S2140039B0813013B1002380F8813080F8C510FFF7FE
S2140039C0E8FF08BD802A00D9704708B5CFF0F0F9A7
S2140039D008BD2DE9F0478146884617461E469DF8E5
S2140039E020A000250AE07A1908EB040109F18400FA
S2140039F018F0BDFA0134A642F5DC0135AA4501DD12
S214003A000024F8E7BDE8F0872DE9F04184B0804651
S214003A10012303934FF0FF33029304230193009393
S214003A2000231E4A1E49ABF035FB80B11B48AAF0A6
S214003A3089FC064608F1840018F072FA06EB460781
S214003A40C7F1800707EBD7777F1000251DE01548E4
S214003A5077F0FEFE1FE00134B44215DA2A4621460E
S214003A600E48ABF09DF90028F5D0F9B205EB4502FB
S214003A700A4404EB4403194403230093D2B2C9B2A8
S214003A804046FFF7A6FFE6E70135B54201DA002417
S214003A90E2E718F077F904B0BDE8F081C0880020AE
S214003AA034880020345F0D0038B504460D4690F883
S214003AB081308B4206D045B12046FFF7A5FF84F83B
S214003AC0815038BD002AFCD0F5E72046FFF761FF9D
S214003AD0F5E710B5044690F8813043B1FFF759FF7B
S214003AE094F8813083F0010384F8813010BDFFF72D
S214003AF08BFFF5E708B5012304220521002002F01C
S214003B00F5FA002008BD08B5002304220521184652
S214003B1002F0ECFA002008BD08B5012304220F21AC
S214003B20032002F0E3FA002008BD000008B50121DA
S214003B30034800F013FF15F0EBFB17F0FBFD08BD84
S214003B4000350A0008B50121014800F007FF08BD4E
S214003B5000350A0008B50D4BD3F82828A2F17E637D
S214003B60A3F58433B3F5104F0DD2094B1B781BB168
S214003B70022B01D0002008E0D369984728B9044BEF
S214003B8001221A7001E04FF4817008BD0000E10FB9
S214003B904A8900204FF0005340F202221A804FF26A
S214003BA00F025A800A4A01239360136823F4E063E5
S214003BB043F480631360BFF34F8F0649CA6802F46C
S214003BC0E062054B1343CB60BFF34F8F00BFFDE7AA
S214003BD000500E4000ED00E00400FA0508B50A4B60
S214003BE0D3F82828A2F17E63A3F58433B3F5104FEB
S214003BF009D2126BA2F17E63A3F58433B3F5104F9E
S214003C0001D25368984708BD0000E10F08B50D4B78
S214003C10D3F82828A2F17E63A3F58433B3F5104FBA
S214003C200AD2126BA2F17E63A3F58433B3F5104F6C
S214003C3005D29368984701E04FF4817008BD4FF4B1
S214003C408170FBE70000E10F00B583B001900F4BD9
S214003C50D3F82828A2F17E63A3F58433B3F5104F7A
S214003C600CD2126BA2F17E63A3F58433B3F5104F2A
S214003C7009D29369012101A8984701E04FF48170A9
S214003C8003B05DF804FB4FF48170F9E70000E10F24
S214003C9010B50A4BD3F82848A4F17E63A3F5843305
S214003CA0B3F5104F04D2236B2BB15B6A984701E043
S214003CB04FF4017010BD4FF40170FBE70000E10FF8
S214003CC008B50D4BD3F82828A2F17E63A3F58433FC
S214003CD0B3F5104F0AD2126BA2F17E63A3F58433BC
S214003CE0B3F5104F05D2936A984701E04FF4017080
S214003CF008BD4FF40170FBE70000E10F30B5E1B0FE
S214003D00124BD3F82838A3F17E63A3F58433B3F5BA
S214003D10104F15D20C464FF4C0726946FFF7B8FF35
S214003D20054678B921466846FFF7CAFF40F20123E8
S214003D309842F7D040F20323984203D0054601E0AC
S214003D404FF40175284661B030BD00BF0000E10F9A
S214003D5010B50D4BD3F82848A4F17E63A3F5843341
S214003D60B3F5104F0AD2246BA4F17E63A3F5843317
S214003D70B3F5104F05D2A36B984701E040F201104F
S214003D8010BD40F20110FBE70000E10F08B50D4B37
S214003D90D3F82828A2F17E63A3F58433B3F5104F39
S214003DA00AD2126BA2F17E63A3F58433B3F5104FEB
S214003DB005D2D36B984701E040F2011008BD40F2EF
S214003DC00110FBE70000E10F2DE9F04190B01D4621
S214003DD0344BD3F82838A3F17E6CACF5843CBCF5A4
S214003DE0104F51D206460C4617461B6BA3F17E6356
S214003DF0A3F58433B3F5104F4BD201A8FFF7EEFEC0
S214003E00059BD3F80C801FFA88F3002B44D00EA92C
S214003E103046FFF7FBFEC8BB0E9E63190F9A93420F
S214003E203DD81FFA88F8B4FBF8F208FB1242F2B14C
S214003E30C8F1000C0CEA04004044B3FBF8F108FBA0
S214003E40113179B103EA0C018844A8EB0001304433
S214003E5011B1FFF79BFFC8B92A4639463019FFF75C
S214003E6077FF13E0A2EB080808EB0501EFE730192F
S214003E70B5FBF8F308FB135323B1C8F10001294042
S214003E804144E5E72946E3E74FF4817010B0BDE80A
S214003E90F0814FF48170F9E740F20140F6E740F216
S214003EA00240F3E70000E10F03680B600160704713
S214003EB008B543680BB1984708BD2220FCE708B553
S214003EC043690BB1984708BDFF20FCE70B681A78DA
S214003ED0022A00D1704710B508461A79597902EBC4
S214003EE042021201064C144401EBC402920012680E
S214003EF0B2FA82F252091A70FEF74CFE10BD00BFED
S214003F001CA0100230B583B005460468012117488E
S214003F1000F024FD002301226179207902F0E6F802
S214003F202379627903EB43031B011149194402EB21
S214003F30C1039B001B68B3FA83F35B092370A37964
S214003F40022B02D0002003B030BD00F057FB2A46FB
S214003F500849607900F07AFB0246617920790123EE
S214003F600193009302F044F8ECE700BF00350A0026
S214003F701CA01002CD3E00000368187870470000B1
S214003F8002681378022B17D01379517903EB430399
S214003F901B011648184401EBC0039B001968B1F1D9
S214003FA0000C18BF4FF0010C9079012805D018B905
S214003FB0B1FA81F149091170704753885B009BB2D2
S214003FC043EA0C0343F47F4343F0C0034FF6E0712B
S214003FD08B4205D04FF6DF718B4204D0538070477A
S214003FE001211170F6E700211170F7E71CA01002FE
S214003FF008B503681A78022A00D008BD00225A8045
S214004000FFF780FFF9E710B582B004682378022B2B
S21400401004D0A379022B03D00223237002B010BD74
S2140040200021607900F002FB61792079002301937A
S21400403000930A4601F0DCFFEEE708B54368006827
S214004040984708BD08B583680068984708BD08B556
S214004050C3680068984708BD08B5036900689847B4
S21400406008BD08B543690068984708BD10B5044602
S2140040700121094800F072FC0121084800F06EFC9E
S214004080A378B3FA83F35B0904226178207802F000
S2140040902DF8002010BD00BF4041050000350A0085
S2140040A083784BB90378427803EB43031B01012165
S2140040B09140064AD15070470378427803EB430399
S2140040C01B0101219140024AD15070470CA00044C8
S2140040D00CA0004683784BB90378427803EB430381
S2140040E01B0101219140064AD1507047037842785F
S2140040F003EB43031B0101219140024AD150704754
S2140041000CA000460CA000440378417801228A40A7
S21400411003EB43031B0103F1804303F520439A613D
S2140041207047000002460378417803EB43031B0107
S2140041300648184401EBC0039B001868C0B2937889
S21400414013B9B0FA80F04009704700BF0CA0100207
S214004150F0B585B00C4694469DF83410664A127841
S214004160002A00F0BD800546BCF1070F00F2BA80B9
S2140041700A9A002A00F0B8800B9A002A00F0B6804F
S2140041800E9AB2F5006F00F3B38001285BD05B4A4D
S21400419002EB0C12127B002A00F0AC800022009288
S2140041A0019202920392564A02EB4C1E002C4FD10B
S2140041B04FEA4C1600209051CEF80400CEF80800C6
S2140041C0CEF80C009EF8020040F010008EF80200B8
S2140041D09EF8030040F030008EF8030021B9C1B20B
S2140041E041F003018EF8031000930E9B013B444AF6
S2140041F04FEA4C1002EB4C11165A63F30E16165289
S2140042000A9B8B600B9B4B60CB789DF83C2062F33F
S2140042108303CB70012D36D0109B002B56D0374A27
S2140042204FEA0C1102EB0C1310985050119A5A607A
S21400423000249C605D7372466946604601F0FAFF92
S214004240204605B0F0BD0C9A002AA0D12D48F8E70C
S2140042502B4F4FEA4C1607EB4C120020B85150601B
S2140042609060D060907840F010009070D07840F069
S2140042700300D0700029B7D107EB4C12C1B241F051
S2140042803001D170B0E70E460A7B42F001020A7395
S214004290D2B242F002020A73CA68042161F39F0296
S2140042A0F26006F1100796E80F0087E80F00F26943
S2140042B06FF0030161F39F02F2610C9B7361012CA6
S2140042C0AAD10B9AB2610C9A7260A5E7002DA6D10E
S2140042D00B4B03EB4C139A786FF304129A709EE71D
S2140042E00948AEE70748ACE70648AAE70548A8E746
S2140042F00448A6E70548A4E7CC8A00204C8900209D
S214004300CC890020018000F0028000F0078000F0D9
S214004310134B1B78FBB110B50446F0B101F0AFF8B3
S2140043200023072B13DC0F4A02EB0312127B0AB1A1
S2140043300133F6E723600B4A190102EB031301244D
S2140043401C730024545001F0A0F8204602E001F04F
S2140043509CF8054810BD054870470548FAE700BFB9
S214004360CC8A00204C890020048000F0028000F0F7
S214004370018000F000B583B0144B1B680193002346
S2140043808DF8043001F07BF8114B1B7833B9104BD5
S21400439001221A7001F079F8002309E001F075F89F
S2140043A00C480FE00C4A02EB031200211173013394
S2140043B0072BF7DD04238DF807300DEB030001F023
S2140043C00FFF002003B05DF804FB00BF545F0D0034
S2140043D0CC8A0020038000F04C89002000B589B00C
S2140043E084460E9807900D9806909DF8300005902C
S2140043F00B9804909DF828000390002002900193EB
S21400440000920B4662460121FFF7A2FE09B05DF856
S21400441004FB000008B50A4B1B785BB107280BD8D5
S214004420084B03EB00131B7B43B1002101F0CEFECB
S214004430002008BD0448FCE70448FAE70448F8E70B
S214004440CC8A00204C890020028000F0018000F019
S214004450078000F008B50A4B1B785BB107280BD81D
S214004460084B03EB00131B7B43B1012101F0AEFEAA
S214004470002008BD0448FCE70448FAE70448F8E7CB
S214004480CC8A00204C890020028000F0018000F0D9
S214004490078000F0114B1B78BBB1072817D8C1B1B5
S2140044A00F4B03EB00131B7BABB11F280AD80D4B39
S2140044B01A6AC0B2012303FA00F0024202D00B705F
S2140044C0002070470020087070470748704707486C
S2140044D07047064870470648704700BFCC8A0020E1
S2140044E04C89002000200E40028000F0018000F081
S2140044F0078000F00C4B1B7873B110B50C460728EC
S2140045000CD869B1094B03EB00131B7B53B101F0C8
S214004510E5FE2060002010BD054870470548FAE714
S2140045200448F8E70448F6E7CC8A00204C890020C7
S214004530028000F0018000F0078000F0F8B5194B0B
S2140045401F6EDB6E1F4002D40125002402E0FEE74A
S21400455001346D00072C24D83D42F9D0114B9D66DE
S2140045602301114AD358002BF2D002EB0416B1688F
S2140045700131B16072682046984780F00100C0B2F1
S214004580737B012BE4D10028E2D0084B03EB4413E5
S2140045901A7B6FF341021A731A7F6FF341021A7780
S2140045A0D6E7F8BD00200E404C890020CC890020BC
S2140045B010B5044602E0202007E09047DCB194FAEC
S2140045C0A4F00028F7D0B0FA80F00123834024EA54
S2140045D00304094B03EB00135A68002AEED0064B7F
S2140045E003EB00131B7B002BE7D0034B03EB0013FE
S2140045F099689047E2E710BDD08A002008B51220DF
S21400460000F046FF28B1084B4FF48022C3F8802103
S2140046101A600A2000F03CFF28B1034B4FF480627A
S214004620C3F880211A6008BD00E100E038B50546F1
S2140046300C4600F024FF044B03EB05135C600022DD
S2140046401A7300F022FF38BDD08A0020F8B5054660
S2140046500F46164600F013FF05F0FC0C104BD3F87F
S21400466028140023032B0CD8EC1804F0030444EAA7
S2140046700C0421FA04F212F0010F03D00133DBB26E
S214004680F0E7FF24FF2C06D0064B03EB04135F6015
S2140046909E6001221A7300F0F8FE2046F8BD00BFA7
S2140046A000A00040D08A002008B5064BD3F82804A6
S2140046B0D3F81C24104000F05530C3F82404FFF74C
S2140046C077FF08BD00A0004008B5064BD3F82804C5
S2140046D0D3F81C24104000F0AA30C3F82404FFF7D7
S2140046E067FF08BD00A0004008B5034B1968034BE0
S2140046F01868CCF037FC08BDE0000020DC00002085
S214004700B0F1FF3F01D010B9704702487047024829
S214004710704700BF21E000F024E000F08908002385
S21400472001E0043001338B4205D20268B2F1FF3F4C
S214004730F7D000207047012070477047F8B505464F
S2140047400E469400224601F0FFFEFFF7D9FF07460B
S21400475028B9224631462846CEF01AFB08B9384614
S214004760F8BD014FFBE700BF10E000F008B50346B8
S214004770084613F0030F02D111F0030F0AD092007F
S2140047801946CEF015FB002008BD53F8041B40F870
S214004790041B013A002AF8D1F5E7000038B50446B4
S2140047A001F074FEFFF7ACFF054660B9084BD3F87E
S2140047B0E4301B0E0A3303F01F0301219940204604
S2140047C0FFF7ACFF08B1284638BD024DFBE700BF37
S2140047D00081E00F0EE000F010B582B0044601A89C
S2140047E001F076FF9DF8063023800122E270A27069
S2140047F0064BD3F8E4301B0E0A3303F01F0302FA0D
S21400480003F36360002002B010BD00BF0081E00F1C
S21400481008B501F093FD08BD08B501F07FFD002046
S21400482008BD000008B500F023FE014B186008BD67
S2140048304090002008B5024B186800F01DFE08BD29
S21400484040900020704700000C4B984205D90C4B56
S214004850984210D801210A4601E000210A46094B79
S2140048601A64094AD2F8003123F0807343EA0163E0
S214004870C2F80031704702210122F0E70048E80143
S2140048800090D0030000C84300400E40014B18685B
S214004890704700BF00010020114B5B68002300E05A
S2140048A00133042B0CD80F4A02EBC30292F804C063
S2140048B0CAB29445F4D10B4A52F833208242EFD361
S2140048C0052B0BD0074A02EBC3035979044A5368F9
S2140048D023F0407343EA0163536070470321F5E712
S2140048E000000E407C5F0D0003300F2828BF0F200D
S2140048F00007704708B517F013FD044BD3F80031D6
S214004900C3F3042303FB000008BD00BF00400E40B5
S21400491038B5084B1C6CA4B241F671351D6417F00F
S214004920FBFC0021FFF7B8FFAC4202D0014B00228F
S2140049301A6438BD00000E4038B5074B1C6CA4B294
S21400494041F671351D64FFF7A7FFAC4202D0024B5B
S21400495000221A6438BD00BF00000E4010B4C0F339
S2140049600323013B092B21D8DFE803F005082020AC
S21400497030232620292D0024164A01E00024164A5A
S214004980C0F3043054B1134BD3F8443113F0010F85
S21400499004D1104BD3F840311C42FAD102F1424305
S2140049A003F5801300EBC300800001605DF8044B44
S2140049B070470124094AE3E71024094AE0E74FF468
S2140049C08034084ADCE70024074AD9E70024074A6F
S2140049D0D6E700BF00400E40C0400E40E0400E400C
S2140049E0E8400E40F0400E4050410E40B0400E40B1
S2140049F0C0F30313013B092B6BD8DFE803F0050B6C
S214004A00111B6A6A2127415F334BD3F80001C0F3BC
S214004A1004207047304BD3F81401C0F304207047CD
S214004A202D4BD3F80001C0F30060431C01209840D2
S214004A3001387047284BD3F80C01C0F308207047A4
S214004A40254BD3F80801C0F308207047234B984243
S214004A5004D0234B98420AD0002070471E4BD3F850
S214004A60203103F00F0301209840013870471A4B9D
S214004A70D3F82031C3F30113012098400138704762
S214004A80184B984207D003F5B01303F580539842AD
S214004A900AD000207047104BD3F82831C3F3011317
S214004AA001209840013870470B4BD3F82801C0F31B
S214004AB00120031D01209840013870470A4B984298
S214004AC001D000207047044BD3F8300100F00300FB
S214004AD070470020704700BF00400E40800616005A
S214004AE080162E0090171A00A009140008B5FFF7CC
S214004AF07FFF013008BD000000F00F0001380728D6
S214004B0065D8DFE800F0041B2A643E4D64553B4B35
S214004B10D3F8943003F00703023B052B0CD8DFE8EC
S214004B2003F0055803070B0902207047042070475E
S214004B300B2070470C207047052070472F4BD3F88A
S214004B40803003F00703022B45D0042B45D0012B01
S214004B5001D00120704703207047284BD3F88430DB
S214004B6003F00703013B032B09D8DFE803F0023804
S214004B700604032070470A2070470620704701206D
S214004B8070471E4BD3F8883003F00703022B28D05B
S214004B90042B28D0012B01D001207047032070473A
S214004BA0164B1B6F13F001031FD003B30920704789
S214004BB0124BD3F85C3103F03003202B19D0302B86
S214004BC019D0102B01D00120704707207047002015
S214004BD0704703207047022070470A207047022063
S214004BE07047022070470A20704707207047012050
S214004BF07047042070470820704700BF00400E40F2
S214004C0010B50446FFF778FF1B4B9C4212D01B4B97
S214004C109C4215D01A4B9C4206D00138032828D84F
S214004C20DFE800F014171D1A164BD3F8800000F0CA
S214004C300700F2E7134BD3F8840000F00700ECE718
S214004C40104BD3F8880000F00700E6E717F0CCFB1F
S214004C5010BD17F0CFFBFBE717F0C9FBF8E717F01E
S214004C605FFB084BD3F80031C3F300630133D84031
S214004C70EEE70020ECE700BF03002000050024005C
S214004C8002001E0000400E4008B50748FFF734FF3C
S214004C90072804D0092805D117F042FB03E0FFF7E8
S214004CA0F5FD00E0002008BD06000E0008B100205B
S214004CB0704710B504460A48FFF71EFF072805D0C0
S214004CC0082809D0042804D0204610BDFFF7DEFDD2
S214004CD0FBE717F063FBF8E7FFF70CFEF5E700BF0E
S214004CE0B800320038B500F47813B3F5B01F00F002
S214004CF0938005463BD8B3F5402F00F0828010D94C
S214004D00B3F5801F00F0AA80B3F5A01F27D157483F
S214004D10FFF776FF564BD3F8303103F00303D84045
S214004D201CE0B3F5802F61D005D9B3F5202F14D140
S214004D3017F0F6FA12E0002B55D0B3F5003F0AD173
S214004D4017F0EEFA4A4BD3F80831C3F308230133C1
S214004D50B0FBF3F002E0002000E0002038BDB3F521
S214004D60602F02D1FFF790FFF8E70020F6E7B3F5D3
S214004D70381F5BD00ED9B3F5481F72D0B3F5781F35
S214004D8021D117F0CDFA04462846FFF7AFFEB4FB54
S214004D90F0F0E3E7B3F5001F52D006D9B3F5101FC5
S214004DA00FD13248FFF72CFFD8E7B3F5D01F4BD012
S214004DB0B3F5F01F03D12F48FFF722FFCEE7002000
S214004DC0CCE70020CAE7B3F5401F0AD12A48FFF710
S214004DD017FF274BD3F82831C3F301230433D840F9
S214004DE0BCE70020BAE717F09BFAB7E717F098FA87
S214004DF01F4BD3F80C31C3F308230133B0FBF3F099
S214004E00ACE717F08DFA1A4BD3F81431C3F304232A
S214004E100133B0FBF3F0A1E71648FFF7F1FE144BA1
S214004E20D3F8203103F00F03D84097E71148FFF777
S214004E30E7FE0F4BD3F82031C3F30113D8408DE7BC
S214004E400D48FFF7DDFE89E70B48FFF7D9FE084B54
S214004E50D3F82831C3F30113D8407FE7FFF716FDD8
S214004E607CE70020FFF722FF78E700BF050024005C
S214004E7000400E4002001E000300200008B5FFF7A9
S214004E803BFE022802D04FF6FF7008BD014B188883
S214004E90FBE700BF04010020014B1868704700BF05
S214004EA090020020014B1880704700BF04010020CC
S214004EB00138032818D8DFE800F00211070C0B4B66
S214004EC0186AC0F308007047084B186900F07F00A6
S214004ED07047064B986900F07F007047034BD3F885
S214004EE09C00C0F30A0070470020704700400E4048
S214004EF038B50C460138032812D8DFE800F0022E39
S214004F001220C1F308041F4BD3F86838002BFAD1DF
S214004F101D4A136A23F4FF7323F00103234313622D
S214004F2038BD01F07F04174BD3F86038002BFAD158
S214004F30154A136923F07F031C431461F0E701F060
S214004F407F04104BD3F86438002BFAD10E4A9369CD
S214004F5023F07F031C439461E2E70B4DD5F89030B5
S214004F606B6A23F0300343F010036B62C1F3C31087
S214004F70FFF7BAFC2A6B054B1340234303432B630E
S214004F80CEE700BF0020C84300400E4000F8FF0FE9
S214004F90134B5B6A13F0300F09D0202914D0302948
S214004FA015D009B10F4A04E04FF4400201E04FF477
S214004FB040020B4BD3F8903032EA0303F9D112F4D7
S214004FC0800F07D1012070474FF40002F1E74FF43D
S214004FD04002EEE7024BD3F8A000C0F380207047F3
S214004FE000400E40FF33E107022801D00120704741
S214004FF010B529B1054B4FF48064C3F8A840596634
S2140050000AB9012010BDFFF7C3FFFBE700400E40C2
S21400501070B5042800F28580DFE800F048425003AF
S2140050203C00022301250024AC46002967D0022854
S2140050304AD000213B4B1D663B4B23449B001B681C
S214005040002BF9D0002A6CD0374C6444A4002368A7
S214005050002BF9D0022864D1002962D0314B5B6A5C
S21400506013F0010F46D001222021FFF7BDFF0220DA
S214005070FFF71EFF0646012200210220FFF7C8FFA9
S21400508031460220FFF734FF264B1D662368002BAF
S214005090FCD046E02023102504244FF0050CC4E77E
S2140050A08023402506244FF0070CBEE74FF400731C
S2140050B04FF4807508244FF0090CB6E70823042542
S2140050C002244FF0030CB0E7164B5B6A13F0300F68
S2140050D00ED1164BDB6B134B5B6A13F0010FA9D096
S2140050E0104E736A23F0300343F010037362A1E797
S2140050F000219FE700210220FFF74AFFB7E7094992
S2140051000B66084BD3F890100123A3401942F8D140
S2140051103AB1044BD3F89020012303FA0CF31A4259
S214005120F7D170BD00400E408004F21000300E40F3
S21400513070B505460C4611280CD0002605F00F0564
S2140051406B1E072B00F28780DFE803F01E7A1C85B3
S2140051506F9985A5042903D005290BD00026EDE715
S21400516017F01CF90646002EE8D00021304600F065
S214005170F9FCE3E7FFF790FE0646604B9842F2D84C
S2140051800026DBE75E4D51E0023C0A2C63D8DFE8E0
S21400519004F00644093F6262626262474A000020E9
S2140051A0042504E05748FFF74FFB0220054601227E
S2140051B01146FFF72DFFFFF7ABFB4EB1524BDB6BF3
S2140051C013F0400F04D1514BD3F8C830002BFAD15E
S2140051D04F4B5D6717F0D0F8044617F0A1F8FFF7BD
S2140051E033FB494BDB6B13F0400F04D1474BD3F82E
S2140051F0C830002BFAD1444B5968C1F30141204610
S214005200FFF79AFB3EBB0121002000F0ABFC22E03A
S2140052103C48FFF719FB0320C9E701200325C6E732
S21400522003200525C3E70725C5E73A4D013C092CB1
S21400523011D8DFE804F0070911101018101010221A
S214005240354DF3E7002305E0012211460020FFF765
S214005250DFFE02232B6070BD012211461046FFF7C9
S214005260D7FE0123F6E717F05BF8FFF7EDFA2B4BB6
S2140052700122C3F808260323ECE70423EAE7072CF9
S21400528005D0092CE7D1224B01221A67E3E7204B11
S21400529000221A67DFE7013C072CDCD801A353F88D
S2140052A024F000BFC55200005752000057520000BD
S2140052B0E95200005752000057520000C952000041
S2140052C0F7520000002105E0012211460420FFF7F6
S2140052D09FFE01210E4AD2F85C3123F0300343EAE8
S2140052E00113C2F85C31B6E7012211460220FFF72F
S2140052F08FFE0221EEE70321ECE700BF002D31010F
S21400530084400E400148E80100300E400000C643CD
S21400531000400E4088400E4080400E400010C843BB
S21400532070B50C4615460AB11D4B1B6817F036F8CB
S2140053300646012100F016FCADB904B925B10122DC
S21400534011460220FFF764FE164B5A6A22F04052BE
S21400535014B34FF080530DB34FF000510B4313437B
S214005360104A536270BD0E4BDB6B13F0400F04D136
S2140053700D4BD3F8C830002BFAD1094B5968C1F34E
S21400538001413046FFF7D8FA1120FFF7AFFBB6FB16
S214005390F0F0FFF759FAD0E70023DCE70021DDE75D
S2140053A000300E4000400E400000C64370B5044674
S2140053B01120FFF7A1FB012200210220FFF728FEA3
S2140053C0237C022B2AD00022154E736A23F0010399
S2140053D0134373622278134BC3F8A024A288637A1F
S2140053E043EAC223F362356B05F07F65E38845EA3E
S2140053F0C325A37A1D43207A45EAC015FFF774FA41
S21400540005433563627BA37B1B0143EA0233E27BE1
S2140054101343227B43EA0243736370BD0122D3E742
S21400542000400E400000C84338B505461120FFF77F
S21400543063FB0D4A916B0D4B0B402C781C436B782D
S21400544044EAC324AB7844EA0364EB7844EA0324D2
S214005450936BA34200D138BD012200210846FFF716
S214005460D7FD014B9C63F6E700400E4080E4FFF852
S214005470EFF3108072B6704700B962B67047EFF36C
S2140054801180602383F31188704780F3118870477A
S2140054904209064B53F8223000F01F0023FA00F0B2
S2140054A080F0010000F00100704700BF00E100E05E
S2140054B0EFF3108313F0010F36D110B50446FFF753
S2140054C0E7FF00B110BD002C22DB04F1604404F5B8
S2140054D0614494F800235209EFF3118313B1B2EB41
S2140054E0531F23D2124B5B68C3F30803002BE9D08B
S2140054F0103BD9B25BB2002B10DB03F1604303F51F
S214005500614393F800335B099A42DBD30120D9E765
S21400551004F00F04074B1A5D5209DDE701F00F0196
S214005520044B5B5C5B09EFE7012070470120C9E78D
S21400553000ED00E014ED00E030B40D684C688A68B9
S214005540CB68056004600260036030BC704730B40E
S21400555005680468026803680D604C608A60CB606A
S21400556030BC704708B5FFF7E7FF08BD00B585B04B
S21400557084460B4611F0030F0DD0EE4608684968C6
S2140055809A68DB68AEE80F0069466046FFF7EAFFF8
S21400559005B05DF804FB00910099FFF7E3FFF7E71D
S2140055A008B5FFF7D4FF08BD10B584B00C4611F05F
S2140055B0030F0BD06946FFF7F3FFEC46BCE80F007D
S2140055C020606160A260E36004B010BD00910099A5
S2140055D0FFF7E6FFF8E738B504460D46FFF7ACFFE1
S2140055E005F110012046FFF7A7FF38BD38B5044681
S2140055F00D46FFF7ACFF05F110012046FFF7A7FFA9
S21400560038BD38B504460D46FFF796FF05F1100184
S2140056102046FFF791FF05F120012046FFF78CFF9B
S21400562005F130012046FFF787FF38BD08B5102A80
S2140056300AD000F1424303F580135B0100221A6092
S2140056402430FFF779FF08BD00F1424303F58013CD
S2140056505B0101221A6000F58870FFF7BCFFF2E7D5
S21400566030B589B005460C46964611F0030F1DD09E
S214005670082A13D0EC4608684968A268E368ACE8D4
S2140056800F0020696169A269E369ACE80F00724601
S21400569069462846FFF7CAFF09B030BDEC460868E1
S2140056A04968A268E368ACE80F00F0E7009100994B
S2140056B0FFF7BCFFF0E7436823F01F030E2910D85E
S2140056C0DFE801F008080808080B0B0B08080808B4
S2140056D00B0B0B00194341607047194341F0100152
S2140056E04160704770B50E46154600F1200420460E
S2140056F0FFF72DFF102D00D070BD06F110012046DB
S214005700FFF725FFF8E730B589B00C46154611F0CF
S214005710030F17D06946FFF7E5FF082D0BD06D463F
S2140057200FCD20606160A260E3600FCD20616161F3
S214005730A261E3610AE06D460FCD20606160A26061
S214005740E36003E000910099FFF7CCFF09B030BD9D
S2140057501A48C26CC2F30322194B1B8803F12801B6
S21400576003EB51032833013202EB8201B3FBF1F362
S214005770013B072B28BF0723C16C21F0EE6141EAED
S214005780036343F48013C3640E4BB3F90030002B5D
S21400579013DB9BB203F1280103EB510328335108B6
S2140057A001EB4202B3FBF2F3072B28BF0723026D7F
S2140057B022F0700242EA03130365704700300E4081
S2140057C0FA900020FC900020024B1880024B1980B3
S2140057D0704700BFFA900020FC90002010B101280E
S2140057E004D07047034B044A9A657047014B034A3E
S2140057F09A65704700300E4077402057372110B723
S2140058001A4BD3F83032032929D8DFE801F0021208
S2140058101518DBB24AB91B0333F4704121D1144882
S214005820C16E21F470411943C166012A09D00120D6
S2140058307047C3F30723EDE7C3F30743EAE71B0EFE
S214005840E8E71B0333F470420DD10949D1F8EC2088
S21400585022F470421343C1F8EC3001207047002058
S2140058607047002070470020704700BF0081E00F9F
S21400587000300E401B02A2B101221343B3F5007F95
S2140058804DD022D8B3F5807F42D00CD940F2011219
S214005890934215D1294BD3F824321A0EC3F307438B
S2140058A010E00022E9E763B3012B06D1234BD3F8BF
S2140058B02432C3F30722DBB204E00022134601E0E1
