S01E0000636869702D65667233322D6C6F636B2D6578616D706C652E73333774
S2140000000000042029520100275201002992040012
S214000010F96700002752010027520100275201000D
S2140000202752010027520100275201000155010006
S214000030275201008C000020C15501007BFD000006
S214000040275201000D4008002752010027520100E8
S214000050593808006540080019400800314008007B
S21400006011400800B9480000114A0000275201005C
S2140000709924000027520100275201002752010050
S21400008027520100275201002D4A00002752010086
S2140000902752010027520100275201002752010073
S2140000A02752010027520100275201002752010063
S2140000B06940080015400800FD6F0000A5400800D4
S2140000C027520100B92708002752010027520100D5
S2140000D02752010027520100275201002752010033
S2140000E02752010027520100275201002752010023
S2140000F02752010027520100275201002752010013
S21400010027520100275201002752010010B5054C66
S214000110237833B9044B13B10448AFF300800123AE
S214000120237010BD18080020000000000C250F00EA
S21400013008B5034B1BB103490348AFF3008008BD65
S214000140000000001C0800200C250F00A3F5803AD4
S214000150704700BF174B002B08BF134B9D46FFF799
S214000160F5FF00218B460F461348144A121A8AF0F0
S21400017017F90E4B002B00D098470D4B002B00D0E4
S21400018098470020002104000D000D48002802D0EA
S2140001900C48AFF300808AF029F82000290002F00E
S2140001A01BF989F099FE00BF00000800000000005F
S2140001B0000000000000042018080020E858022074
S2140001C000000000000000000020704770477047E5
S2140001D02D207047704700000B4B10B503F134021A
S2140001E0026103F15402026203F168020360426294
S2140001F003F17C0290338262C3620446443031F0DD
S214000200F1FD204610BD00BF402D0E00A0F11000ED
S214000210E2E7A0F12000DFE7A0F12400DCE7A0F190
S2140002202800D9E7A0F12C00D6E700BF03289ABF24
S214000230024B53F820000248704700BF20BC08005D
S214000240F4B8080005289ABF024B53F8200002486D
S214000250704700BF30BC0800F4B808001FB5002384
S2140002600093144A144B0C460A20102110F0EAF9A9
S214000270124B186030B9124848F0A0FE40F20170E8
S21400028000F026FB0F4B02930F4B019301230093C4
S2140002900E490A4B4FF48062204610F0D9FF30B961
S2140002A00B4848F08BFE40F2027000F011FB002075
S2140002B004B010BDF7090020980A0020EC090020C1
S2140002C0FEB8080034090020E40B00205BCA0800D2
S2140002D021B9080037B504460D4629B9294848F023
S2140002E06DFE2F2000F0F4FA274B28481D6048F0DA
S2140002F065FE03F0B5FC18B90A2011F007FAF8E716
S214000300234848F05BFE234820F02AFE224B009349
S214000310224823460022012111F08AFF204B186054
S21400032030B9204848F04AFE40F2047000F0D0FA97
S2140003301D4B00931D48234601220A2111F078FF29
S2140003401B4B186030B91B4848F038FE40F204706A
S21400035000F0BEFA1849194848F030FE00F054FA8A
S2140003601749184800F066FA47F06CF80368D3F8A7
S214000370843098474FF0020055F074F8002003B020
S21400038030BD00BF3BB908003009002054B9080052
S21400039068B90800E80A0020B50600007CB9080025
S2140003A0F009002082B908008D0400009CB90800FE
S2140003B02C090020A5B90800BFB90800C8B9080074
S2140003C080A40D001009002010B5274849F075F8E4
S2140003D0D8B1264C20464BF0C5F8254B1870204661
S2140003E04BF0CEF8234B1870637C1A1F53425341D0
S2140003F0214A204613704BF085F8204B003818BF72
S21400040001201870184849F061F81D4B1B78022B24
S21400041014D01C4B1B6823B1DB7D13B1FA221146A6
S21400042014E0134B1B78ABB1124B1B7893B1124BF5
S2140004301B7843B11448012100F0EDF9BDE81040E7
S214000440114800F005BA322240F2B6310E4800F0EC
S21400045027FAF3E7094B1B780BB16422DFE740F27B
S214000460B6323221F2E700BFE0A70120F8F90120FA
S214000470F40900200809002028090020F5090020BA
S214000480E41B00203009002010090020FFF79CBF65
S21400049007B500230A48009300681A46032111F0A6
S2140004A0E1FE30B9074848F089FD40F2067000F0DA
S2140004B00FFA054B00221A7003B05DF804FB00BF6C
S2140004C0F0090020E5B90800F609002037B5104D00
S2140004D00446286812F050F820B10E4848F06EFD29
S2140004E0FFF7D6FF642300932868002322460421E2
S2140004F011F0B8FE012806D0074848F05FFD40F22C
S214000500057000F0E5F9054B01221A7003B030BD06
S214000510F0090020FDB9080018BA0800F609002006
S21400052010B50388012B25D1134B1B7813B3134C3E
S2140005302378012B15D140F6B831114848F03EFD1E
S21400054040F6B830FFF7C2FF0E48022300212370A2
S21400055000F061F9BDE810400A484FF4FA7100F067
S214000560A3B9022B06D1002323700748BDE810402C
S21400057055F04EBE10BD00BFF6090020E41B00205B
S21400058031BA08001009002050FA012038B5057964
S214000590194B012D1B7809D13BB9184C237823B988
S2140005A040F6B830FFF792FF257038BD002BFCD020
S2140005B0124C2578012D17D1FFF76AFF002310484B
S2140005C023704AF0CFFF044648B929460C484AF043
S2140005D087FF21460A48BDE838404AF087BF0948E9
S2140005E0BDE8384048F0EABC022DDED1FFF750FFE8
S2140005F0002305482370F3E7F6090020E41B0020DB
S214000600F8F9012070BA0800AFBA080013B50C4B11
S2140006101C6810F045FF0023024600930121204687
S21400062011F020FE012809D0064848F0C7FC40F229
S214000630057002B0BDE8104000F04AB902B010BD27
S2140006402C090020CFBA080000487047A00B0020F5
S21400065007B50146144803680BB3EFF3058353B997
S2140006600068012210F02EF8D8B9104803B05DF8E3
S21400067004EB48F0A3BC00230068019301AA10F025
S2140006803DF9019B002BEFD04FF0E0234FF0805256
S214000690C3F8042DBFF34F8FBFF36F8FE4E7044812
S2140006A0E4E703B05DF804FBEC090020E7BA0800B5
S2140006B014BB08001FB50123ADF800300190044BB1
S2140006C003936846FFF7C4FF05B05DF804FB00BF60
S2140006D021050000CB68084603B11847014848F0DA
S2140006E06DBC00BF3CBB080010B50446FFF774FDA8
S2140006F02046B82188F01CFF204610BDA0F110004F
S214000700F2E7A0F12000EFE7A0F12400ECE7A0F16B
S2140007102800E9E7A0F12C00E6E710B5D021044652
S21400072088F006FF204610BD37B52E4C2E4D21789A
S214000730BFF35B8F11F001011AD12046019188F0BA
S214000740F9FE0199A0B12846284B40F8043B6222E6
S21400075089F026FE0199622205F1660089F020FEE6
S214000760204688F0F3FE224A2249284688F0DBFE1F
S214000770214801223123C0E90123C0E905231F4B8C
S214000780036003F13401016103F15401016203F1D6
S21400079068010024416203F17C019033C0E90B320A
S2140007A0C0E90D55C0E91144C0E91444C0E90F453D
S2140007B00F4AC460C4618162A0F84C40104980F8BA
S2140007C0584080F85C4080F8844080F8A54080F867
S2140007D0A84088F0A8FE0B4B83F8414083F84240BF
S2140007E003B030BD3408002038080020809E0E007C
S2140007F000000020D5010000E80A0020402D0E0071
S214000800D9010000A00B002011F0A0BF006908B1BC
S21400081003F0BEBD70470023C0E902330022002368
S214000820C0E90023006920B109B103F0ABBD03F0B5
S214000830ACBD704730B4002200240025C0E9004556
S214000840016130BCC0E902221146FFF7E4BF000098
S21400085073B583680446FBB1C368EBB10F4B1968E8
S2140008600B686846DB6898472069DDE9006503F099
S21400087092FDD4E90232002808BF1346D4E90012DC
S2140008805B1842F10002B34272EB050304D2204625
S214000890FFF7BCFFC4E9006502B070BD000300208E
S2140008A0C0E90212FFF7D4BFC0E90211FFF7D0BFBC
S2140008B0014608B5054848F081FB4FF0300383F346
S2140008C01188BFF36F8FBFF34F8FFEE748BC080059
S2140008D008B5FFF7EDFF000010B5044648B310F06A
S2140008E0D7FD154A54F8043C106803420CD14FF06B
S2140008F0300383F31188BFF36F8FBFF34F8F0F4919
S2140009000F488AF0E9F8FEE754F8082C62B14FF079
S214000910300383F31188BFF36F8FBFF34F8F0949FE
S21400092007488AF0D9F8FEE723EA0004083C10F0EE
S21400093071FE204610BD00BFECA3002078BC080066
S214000940A7BC0800C0BC0800014B1868704700BF71
S214000950F0A30020014B1868704700BFF4A30020E6
S21400096008B514F0DFFD044B1A68044B1A60BDE8A6
S214000970084014F001BE00BFF0A30020F4A300203E
S214000980F8B5044610F084FD184B1B6843B3184AAC
S214000990002511684FF0FF372E465A681B689542AF
S2140009A038BF1546974228BF1746994206F10106FA
S2140009B0F3D110F02FFEC4E90157E66014F0B2FD43
S2140009C00C4B1B6823600C4B1B6863610B4B1B684E
S2140009D0A3610B4B1B682361BDE8F84014F0CCBD47
S2140009E04FF0FF371D461E46E3E700BF00A4002079
S2140009F0E81B0020F0A30020F8A30020FCA30020A2
S214000A00F4A3002010B5144B1B6888B0044613B935
S214000A1001A8FFF7B5FF104B1A461B68A342FBD38D
S214000A20506811188C4201BF61681446091851605D
S214000A3061686018834208D108480068834204D081
S214000A405B680B44636013681B682360944218BF9E
S214000A50146008B010BD00BF00A40020E81B0020F2
S214000A60F8B5044610F014FD4249434D0B68CBB967
S214000A70424B434A5E071CBF073323F007030020A0
S214000A80136050603F4A22F00702C2E90000D01A05
S214000A90C3E900203C4B0A6018603C4B18604FF0DE
S214000AA000432B602B681C4206D010F0B3FD48F0C4
S214000AB0E7FE00263046F8BD631E0A33F5D8600709
S214000AC004F1080305D023F0070208329A42ECD955
S214000AD013462E4F3A689A42E7D3294A146860684C
S214000AE0984201D22068D8B90968A142DDD02168B1
S214000AF0166811606268D21A102A06F1080616D91E
S214000B00E01841070FD04FF0300383F31188BFF38E
S214000B106F8FBFF34F8F1E491E4889F0DDFFFEE73B
S214000B2022460446DBE742606360FFF76BFF164928
S214000B3062683B6808689B1A834238BF0B603B605C
S214000B402B681343144A6360002323601368013341
S214000B50136010F05FFD7307ACD04FF0300383F3E3
S214000B601188BFF36F8FBFF34F8F0C49094889F088
S214000B70B3FFFEE7E81B0020ECA30020EC1B0020E0
S214000B8000A40020E4A30020F4A30020F0A300208B
S214000B90E0BC0800A7BC0800F8A300201BBD0800A6
S214000BA013B501FB00F219B1B2FBF1F181420CD191
S214000BB010460192FFF754FF044618B1019A00212F
S214000BC089F0EEFB204602B010BD0024FAE70000D4
S214000BD010B5044600283AD01D4A50F8043C126866
S214000BE013420CD14FF0300383F31188BFF36F8F9D
S214000BF0BFF34F8F1749184889F06EFFFEE750F88D
S214000C00081C61B14FF0300383F31188BFF36F8F78
S214000C10BFF34F8F1149104889F05EFFFEE723EAC5
S214000C20020340F8043C10F033FC0D4A54F8043C30
S214000C301168A4F108000B441360FFF7E3FE094AAD
S214000C40136801331360BDE8104010F0E3BC10BD1C
S214000C50ECA3002078BC0800A7BC0800C0BC0800B5
S214000C60F0A30020FCA30020F8B506460C46FFF7CC
S214000C7033FE0746C8B19CB1A0421CD021460120D5
S214000C80FFF78EFF054648B1A7423A46314628BFD1
S214000C90224689F05DFB3046FFF79AFF2846F8BDEE
S214000CA03046FFF795FF2546F8E721460120BDE8C8
S214000CB0F840FFF775BF3546F0E708B506F0BCF913
S214000CC00DF076F9BDE8084048F06CB913B5036836
S214000CD000229C68ADF806200DF10603A0471928EF
S214000CE01ABFB0FA80F04009012002B010BD052BF3
S214000CF08CBF2F20002070477047704770477047A2
S214000D00704701F0E3BC10B53821044688F010FCAB
S214000D10204610BD10B50421044688F009FC204684
S214000D2010BD10B50821044688F002FC204610BD10
S214000D300D4A0260D0F8F42108B50AB189F0B6F879
S214000D40D0F84821002AF9D1D0F80421002AF5D19C
S214000D50D0F89820002AF1D1426D002AEED103691E
S214000D60002BEBD108BD00BF48AA0E0038B5094BD2
S214000D7003604368044653B1437C43B9C56835B144
S214000D802B6828461B689847284646F0F1FB204605
S214000D9038BD00BF206F0E00406808B148F0A6B806
S214000DA00320704713B5406810B9032002B010BD89
S214000DB000248DF8074022B90BB12F20F6E70DF17D
S214000DC0070248F067F8F1E730B5406885B01C4682
S214000DD010B9032005B030BD00251B888DF80B50D8
S214000DE022B90BB12F20F5E70DF10B020395019503
S214000DF003AD009548F032F8192801D00028E9D153
S214000E00039BB3F5803F28BF00232380E2E7000062
S214000E1010B5038848F20102934212D190F90830C7
S214000E20012B15D10B4848F0C9F83FF01FF90368AD
S214000E30094A5C6940F6B831A4460023BDE8104074
S214000E40604748F20202934202D190F90930E7E780
S214000E5010BD00BF59BD0800030D000010B50446C4
S214000E60FFF766FF20464FF41A7188F061FB2046B4
S214000E7010BD10B50446FFF779FF2046142188F010
S214000E8057FB204610BD000037B5254B254A0360AA
S214000E90142500230446C0E90123C36000F128029C
S214000EA000F12C010095022310303DF011FA04F1F8
S214000EB06C0204F170010095022304F154003DF029
S214000EC007FA2823009304F1B00204F1B4010223C8
S214000ED004F198003DF0FCF904F58E7204F590716B
S214000EE00095022304F582703DF0F2F94823009342
S214000EF004F5B07204F5B271022304F5A4703DF057
S214000F00E7F92C23009304F50372022304F5047119
S214000F1004F5FA703DF0DCF9204603B030BD00BFA2
S214000F2048AA0E000300020047F024BE10B50023B6
S214000F3004464360006808B146F01AFB204610BD20
S214000F4038B5002504464560006810B146F010FB31
S214000F50256038BDF8B50546154B45F8143B436883
S214000F60044600F11C0700F10C06B3B12846FFF753
S214000F70E7FF3846FFF7E4FFE36803B9237294F807
S214000F80243023F0050384F824303046FFF7D8FFDA
S214000F900023237284F8243063603846FFF7C6FFC8
S214000FA02846FFF7C3FF3046FFF7C0FF2046F8BDD0
S214000FB068AD0E0010B50446FFF7CCFF204628218A
S214000FC088F0B6FA204610BDF8B5724D2B78BFF300
S214000FD05B8FDF0704460BD4284688F0ABFA38B19F
S214000FE0284688F0B3FA6C4A6C496D4888F09BFA3C
S214000FF06C4D2B78BFF35B8FDE070BD4284688F04A
S21400100099FA38B1284688F0A1FA634A66496748D3
S21400101088F089FA664F3D78BFF35B8F15F00105BF
S21400102018D1384688F086FAA0B1624E624B357207
S2140010303846C6E90035C6E90355C6E90555C6E98A
S214001040075586F8245088F081FA534A5B493046A3
S21400105088F069FA5A4D2B78BFF35B8FD8070ED409
S214001060284688F067FA50B15648FFF70DFF284625
S21400107088F06CFA484A5449524888F054FA534D5E
S2140010802B78BFF35B8FD9070ED4284688F052FA28
S21400109050B14F4E4F4B3360284688F057FA3E4AC1
S2140010A04D49304688F03FFA4C4D2B78BFF35B8FA6
S2140010B0DA070ED4284688F03DFA50B1484E494B20
S2140010C03360284688F042FA334A4749304688F06B
S2140010D02AFA464D2B78BFF35B8FDB070BD42846E6
S2140010E088F028FA38B1284688F030FA2A4A40496B
S2140010F0404888F018FA23691BB9294B3E4A5A60C3
S2140011002361236B43B9294B5A6852B921691A7275
S2140011105960DA601A822363636BFBB9254D6B68EE
S2140011200BB10320F8BD05F114002669FFF708FF90
S21400113005F11C00FFF704FFEB6803B92B7295F866
S21400114024302E4823F0050385F82430FFF7F8FEF8
S21400115000232B7285F824306E606563194E216972
S21400116030464FF021FC30464EF0B7FD054608B13C
S2140011702846D7E72269E6610AB92F20D2E7184B3E
S21400118063615A6042F00CFA1A4B6362104B20629D
S214001190A361EDE7BCA6002000000020FD0C0000C7
S2140011A01C000020B8A600206D0D000008000020DE
S2140011B08CA6002090A6002068AD0E00550F0000FB
S2140011C020A4002024A40020310D000018A4002034
S2140011D01CA4002020BE0800FB0C00000CA400206D
S2140011E010A4002078B40E00FF0C000008A4002015
S2140011F0010D000004000020D3A701209CA60020BB
S21400120038B530490446304809F076F92F4847F09B
S214001210D5FE21462E4847F0D1FE2C4847F0CEFE9C
S2140012202C4847F0CBFE002108463CF0D3FF60B9BF
S214001230294D2B7853B9284648F048FA031E0CBFB0
S214001240012200222A7001D0184638BD21462348C4
S214001250234C4AF051F9234848F02AF92378BFF383
S2140012605B8FDB070BD4204688F064F938B1204644
S21400127088F06CF91C4A1D491D4888F054F91D4C2D
S214001280204649F0E5FF1A4908460C63FFF79CFE26
S2140012901749194855F09CF8124848F017F91749AD
S2140012A01048002248F03AF8154847F087FE0D48E7
S2140012B048F0BEF9044608B12046C6E701F004FD32
S2140012C0FAE700BF41E203003DE2030081BD0800EB
S2140012D0B4BD0800C0BD0800D8A70120F8F9012059
S2140012E0C0A60020E0A7012000000020F90C0000A6
S2140012F024000020C4A6002050FA0120110E000091
S214001300D0BD080010B50821044688F011F9204623
S21400131010BD10B50421044688F00AF9204610BD19
S2140013200648074B03600023C0E90133054A064917
S214001330C36003744361038388F0F5B8C4A6002035
S214001340D49A0E000000002009B204007047000086
S214001350024A02211D203DF099B800BF40BE080099
S214001360024A02211D203DF091B800BF50BE080081
S21400137008B5044A02211D203DF088F8024BFF22E2
S2140013801A7008BD5FBE08005C00002010B5048817
S214001390022C06D102798168094800F07DFB50B125
S2140013A010BD002CFCD1064800F02BFB80F001009D
S2140013B0C2B22146F0E7BDE81040024847F0FEBD45
S2140013C01CA7002079BE080030B5154685B00C462F
S2140013D081B110220021684688F0E2FF094B8DF8A3
S2140013E004509C4208D1012D06D1074B0393684652
S2140013F0FFF72EF905B030BD044B9C42FAD1044BE2
S214001400F4E700BF68A40D008D13000050A40D0083
S2140014108D050000012870B504460D4615D80D4B05
S2140014200D4980F00106002818BF19460B4847F002
S214001430C5FD06F0010604F001010948FFF7EBF9C7
S214001440FFF702F9314602F031FD15B9054B0122CE
S2140014505A7170BDA2BE08005BCA0800A9BE08008B
S214001460E0A6002014A7002010B50821044688F046
S2140014705FF8204610BD000070B5037D1F4D0B2B96
S21400148004462B7007D1837D1D4A02211D203CF0A7
S214001490FDFFA37D2B702E78FE2E0FD0FF2E1DD0C5
S2140014A0022E24D83EF0E2FD0368164A5D6941F23A
S2140014B088312346AC46BDE8704060473EF0D6FD16
S2140014C0036810499B69224698473EF0CFFD0368A3
S2140014D00C4A5D694FF47A712346EBE73EF0C6FD91
S2140014E0036808499B69224698472E7070BDBDE880
S2140014F07040054A02211D203CF0C8BF5C00002059
S214001500C6BE08007113000018BF080010B568B901
S214001510084847F053FD084C637933B1074908483B
S214001520002247F0F3FF0023637110BD0128F2D1BB
S2140015300448EEE72DBF080014A700204915000058
S214001540E0A701204CBF080007B50D4800F059FA87
S214001550002814BF02220122019219F04FF8019AC6
S214001560002301211AF0ACFF30B90648012103B070
S2140015705DF804EB47F022BD03B05DF804FB00BF46
S2140015801CA700206DBF080010B586B00446FFF704
S2140015905BF86749012202F029FC20466549FEF700
S2140015A099FE044628B1644847F008FD2046FFF738
S2140015B08FF9624800248DF8084047F079FF02A9A9
S2140015C0012016F0C1FF8DF8044019F017F801AAA3
S2140015D0012119F06BF840B901231946584A1D201D
S2140015E03CF054FF05238DF804300023ADF80E3090
S2140015F019F004F80DF10E02012119F02FF840B988
S214001600012319464F4A1D203CF040FF0A23ADF83F
S2140016100E3000238DF8053018F0F0FF0DF10502AE
S214001620012119F033F840B901231946464A1D2016
S2140016303CF02CFF0A238DF8053000238DF8063089
S21400164018F0DCFF0DF10602012119F027F840B969
S214001650012319463D4A1D203CF018FF0A238DF849
S214001660063000238DF8073018F0C8FF0DF107028A
S214001670012119F023F840B901231946344A1D20E8
S2140016803CF004FF0A238DF807302C4847F01EFF75
S2140016909DF808308DF80C301BB19DF809308DF898
S2140016A00D309DF804009DF805109DF806209DF865
S2140016B00730BDF80E40ADF810408DF812008DF8DA
S2140016C013108DF815308DF8142006AB13E90C00B6
S2140016D0204803A900F0D0F8044628B11E4847F079
S2140016E06DFC2046FFF7F4F81C4A1D49194800F027
S2140016F085F91C491C48FFF79DF89DF808300BB982
S21400170088F0D4FB9DF8091017488B1E59425941A2
S214001710FFF781F815490948002247F0F7FE45F023
S21400172091FE0368D3F884309847204606B010BD73
S21400173089BF0800F8A6002092BF0800E0A7012095
S214001740B1BF080029C0080093C0080009C10800FE
S2140017507FC108001CA70020F5C108000D15000079
S2140017601514000098A40D00E0A6002049150000FE
S21400177030B50568104885B0FFF706FF044628B167
S2140017800E4847F01BFC2046FFF7A2F8FEF73EFF88
S2140017900B48094C47F012FC0A4800F0C7F80A222A
S2140017A0694628460FF0ACF90128F8D1694620466C
S2140017B0FEF790FF0022F3E714A700200DC20800F2
S2140017C023C208001CA700200149FEF747BD00BF42
S2140017D0711700001FB50023CDE902330C4C0D4BEA
S2140017E00193022300930C4A0C4B012120461FF064
S2140017F049F90B4A0B49204687F095FE0A480B4BE1
S214001800074A0B49036004B0BDE8104087F08BBE62
S214001810F8A60020791400005113000061130000A0
S21400182000000020B90A020014A700203CC20800ED
S2140018304D1300004368987820B901229A709B687F
S21400184033B11847022803D103229A700120F6E725
S214001850704700001FB510F0AFFE0123ADF8003052
S2140018600190044B03936846FEF7F2FE05B05DF860
S21400187004FB00BF351800007FB50D4602A981E8BD
S2140018800C0000F5A156044600F5805303C946F83F
S214001890042B92B20A2A318007D91D480A2147F044
S2140018A08DFB40F2077004B070BD93F822240A2A1C
S2140018B002D918480A21F2E793F823240A2A02D903
S2140018C015480A21EBE793F824240A2AF8D893F857
S2140018D025340A2BF4D8114B0093114823460022D6
S2140018E0012110F0A5FC0F4B186028B90E4847F0F0
S2140018F065FB40F20470D6E72B780BB988F0D6FA71
S2140019006B78022B0CBF03230123A3700020CAE7C9
S21400191048C20800B1C2080029C3080055180000D4
S2140019209AC3080044BB0020A2C3080037B504468B
S21400193001AB00F10C014FF48C72284846F088FF8A
S21400194001AB04F592714FF4C862254804F5805542
S21400195046F07EFF01AB04F60C716422214846F087
S21400196077FF01AB04F577614FF448721E4846F0E6
S2140019706FFF95F82234B5F820241C485A4304F526
S214001980945101AB9200103146F062FFB5F8203456
S21400199095F8232416485A4304F2647101AB02EB0F
S2140019A0820246F055FFB5F8203495F824241148F5
S2140019B05A4304F6BC1101ABD20046F049FF95F835
S2140019C025240D4802EB420201AB920004F66C613E
S2140019D046F03EFF012003B030BD00BF1073080084
S2140019E011730800127308001373080014730800BC
S2140019F0157308001673080017730800C0E9011273
S214001A0070478078C31E58425841704707B5002378
S214001A100A48009300681A46032110F023FC48B9D0
S214001A20074847F0CBFA40F2067003B05DF804EBC7
S214001A30FEF74EBF03B05DF804FB00BF44BB0020BA
S214001A40C1C3080073B5114E054630680C4610F049
S214001A5093FD28B10E4847F0B1FA2846FFF7D6FFA7
S214001A6064230093306800232246042110F0FAFB1A
S214001A70012809D0074847F0A1FA40F2057002B0E5
S214001A80BDE87040FEF724BF02B070BD44BB002026
S214001A90FDB90800DAC30800F8B58378012B0546BF
S214001AA00E46144603D1012A12D00020F8BD032B9F
S214001AB0FBD1002AF9D117460A212846FFF7C2FFB4
S214001AC06B68AF7013B13146204698470120EDE7AA
S214001AD00227F1E72DE9F041074688B00E461D467D
S214001AE0002A4CD0013A94B2092C48D80B46254A15
S214001AF0009402211D203CF0C9FC1C2202FB04724B
S214001B0092F820302B754BB91F4A334603211D200F
S214001B103CF0BCFC012008B0BDE8F081D2E903131C
S214001B20C5E900134FF0280C0CFB0474906904F50B
S214001B3094541034C5E90240D7692F6192F821C049
S214001B4085F815C092F822E085F816E00124EC75B9
S214001B5092F8248085F818806C7692F82620AA766B
S214001B60CDE90031CDE90682CDE90207CDE904CE04
S214001B70064A334603211D203CF088FCCAE70020B5
S214001B80C9E700BFFAC308003AC408005EC40800EC
S214001B902DE9F04F8FB014460A939DF860300B93F2
S214001BA09DF874300C931F9B09931E9B08939DF819
S214001BB070A00C9BDDF864809DF86CB0CDF814B076
S214001BC0CDE906A31A9B0493D8F8003003930B9B29
S214001BD002930A9B0546CDE900230F460B46484A6A
S214001BE002211D203CF052FC74B1013CA4B2092C29
S214001BF00AD8D8F804200A2A08D9424A00943B4654
S214001C0001211D203CF042FC002076E005F58059BD
S214001C101F9B99F82214994208D2CDE900433A4A0C
S214001C203B4601211D203CF031FCEDE70A2606FB71
S214001C30045606F60C76092A28BF0922D8F80010A2
S214001C400D92304688F084FB0D9A1A9B0021B15401
S214001C501C22D8F8040002FB0452C2E903602826BE
S214001C60D36106FB04560C9B82F8223006F5945688
S214001C700B9B82F8263010360A9B82F820B082F83A
S214001C8021A082F824304FF0010C32461F9B994267
S214001C9002F104020AD01E9B53F8210042F8040CFD
S214001CA0013102F804CC22F8021CEFE71C2202FBEA
S214001CB00450C0E90561B9F8201414484A4305F1F8
S214001CC00C0146F0D9FE99F82234B9F820241048C1
S214001CD05A4305F594519200103146F0CDFE642229
S214001CE005F60C710B4846F0C7FE1D200A4A009404
S214001CF03B4602213CF0CAFB01200FB0BDE8F08F46
S214001D00E6C40800A4C50800E3C508001073080070
S214001D10147308001273080047C60800F7B5089D3C
S214001D200646144613B92AB100201CE0541EA4B27D
S214001D30092CF9D806EB04171A4A009402211D2034
S214001D403CF0A4FB97F824312B70174A009403212B
S214001D501D203CF09BFB2B783BB9144A03211D2029
S214001D603CF094FB012003B0F0BD97F825316B7072
S214001D7006EB04142A1DD4F82C11D4F8280182E8A6
S214001D80030097F831216A7397F83321EA73012428
S214001D90AA682C73AC73032100921D20044A3CF001
S214001DA075FBDFE77BC60800C8C60800F3C6080058
S214001DB010C708002DE9F04F85B006469DF8405044
S214001DC09DF838A09DF83CB0DDF84480144699464E
S214001DD015B92AB100203FE0541EA4B2092CF9D848
S214001DE0CDE9029AD8F804301D4A06EB041704F52C
S214001DF0F774CDE9005302215B461D20A4B23CF0E7
S214001E0045FB06EBC40487F824B187F8255187F80C
S214001E10319187F833A1D8E90012204688F098FA65
S214001E20D8F804300F48C7E94A4306F5805306F54C
S214001E30927193F82224120146F01EFE4FF4487267
S214001E4006F57761084846F017FE1D20074A2B4620
S214001E5002213CF01BFB012005B0BDE8F08F00BF5F
S214001E6040C708001173080013730800BFC70800B6
S214001E7010B50299CAB1C3B1013AD2B2092A14D830
S214001E80013B9BB2092B10D83C246343062404FB79
S214001E900233034493F864274AB1D3F865270A60EF
S214001EA093F869370B71002010BD0120FCE78B20EA
S214001EB0FAE7000008B5B2B3ABB3013AD2B2092ACA
S214001EC031D8013B9BB2092B2DD83C214B43062130
S214001ED001FB023303449DF80C2083F865279DF828
S214001EE0102083F866279DF8142083F867279DF84E
S214001EF0182083F868279DF81C2083F869279DF82A
S214001F00082083F8642700F5805300F2647193F884
S214001F102324B3F8203405485A4302EB820246F0E5
S214001F20ABFD002008BD0120FCE700BF15730800CC
S214001F3010B5029CCAB1C3B1013AD2B2092A14D86C
S214001F40013B9BB2092B10D878214B430C2101FB97
S214001F500233034493F8BC294AB1D3F8C009D3F836
S214001F60C41984E80300002010BD0120FCE78B2084
S214001F70FAE7000008B53AB333B3013AD2B2092AF9
S214001F8022D8013B9BB2092B1ED878214B430C214B
S214001F9001FB02330344039AC3F8C029049AC3F82A
S214001FA0C4299DF8082083F8BC2900F5805300F664
S214001FB0BC1193F82424B3F8203404485A43D200C2
S214001FC046F05AFD002008BD0120FCE71673080005
S214001FD07AB1013AD2B2092A0BD800EB021090F877
S214001FE06C2E42B100F5676007C883E80700002042
S214001FF07047012070478B207047000010B5FAB17B
S214002000013AD2B2092A1BD800EB0211029CC1F891
S214002010704E039CC1F8744E81F86C3E9DF81040DB
S21400202081F8784E00F5805300F66C6193F825240D
S214002030044802EB4202920046F01EFD002010BD4E
S2140020400120FCE7177308002DE9F0430D4685B024
S2140020501F4604464FF001090DF10F0128461646AB
S2140020608DF80F9016F096FB97F80080B8F1000FE9
S21400207027D12B46314A03211D203CF007FA9DF854
S2140020800F30BBB9022E96BF2D4B2E4B53F8263081
S2140020902D4A009503211D203CF0F8F918F0AEFA01
S2140020A03246294618F0AEFA4FF00108404605B011
S2140020B0BDE8F083254A2B4649461D203CF0E6F94C
S2140020C0F4E704F5C86994F82531012B21D194F87A
S2140020D02431F3B1D4F82C21BB689A4219D12AB125
S2140020E07968D4F8280188F023F990B9022E96BFB3
S2140020F0134B144B53F82630154A009503211D2028
S2140021003CF0C4F918F07AFA3246294618F07AFA02
S214002110CCE710344C45D6D1022E96BF084B094B5F
S21400212053F826300B4A009503211D203CF0AEF9EB
S2140021300C9B01221A704FF00008B7E7F3C708009F
S214002140B4C908007C8E0D002CC808006BC80800B7
S214002150B8C808001BC9080007B50093134601223B
S214002160FFF772FF03B05DF804FB07B50093134654
S2140021700222FFF769FF03B05DF804FB0C4A0A234E
S2140021800021013BC2E90311C2E9051102F11C025C
S214002190F7D108496422013AC1E9013301F110017F
S2140021A0F9D1054BC3F82024A3F82424704700BFB8
S2140021B01CA7002040A800201CB700207FB5D0E94F
S2140021C00146A5B2230C0A4A009502211D2003935E
S2140021D03CF05CF940F201129442039B06D12EB902
S2140021E0044A009502211D203CF050F904B070BD51
S2140021F0C0C90800DEC908007047000070B5034675
S21400220004460D4616460221094A1D203CF03EF9BA
S2140022102146084833462A46FFF79EFF044620B16B
S214002220044800220221FFF737FC204670BD00BF9D
S214002230FDC908001CA7002070B5034604460D46DD
S21400224016460221094A1D203CF020F9214608487E
S21400225033462A46FFF789FF044620B10448012288
S2140022600221FFF719FC204670BD00BF25CA0800F2
S2140022701CA7002007B5009313460A4601460348EC
S214002280FFF74CFD03B05DF804FB00BF1CA7002061
S2140022901FB5089C03949DF81C4002949DF81840B6
S2140022A0CDE9003413460A4601460248FFF782FD90
S2140022B004B010BD1CA7002013460A46014601487C
S2140022C0FFF708BC1CA7002010B588B0109C079428
S2140022D00F9C06949DF8384005949DF8344004946D
S2140022E09DF8304003940B9C02940A9CCDE9003480
S2140022F013460A4601460248FFF74AFC08B010BDDE
S2140023001CA7002007B5009313460A46014603485B
S214002310FFF7AEFD03B05DF804FB00BF1CA700206E
S21400232007B5009313460A4601460348FFF700FE2A
S21400233003B05DF804FB00BF1CA7002013460A4646
S21400234001460148FFF744BE1CA7002010B586B022
S2140023509DF8304005949DF82C4004949DF8284044
S21400236003949DF8244002949DF82040CDE9003463
S21400237013460A4601460248FFF79CFD06B010BD0C
S2140023801CA700201FB5079C0294069CCDE90034CC
S21400239013460A4601460248FFF7ECFD04B010BD9E
S2140023A01CA700201FB59DF81C400294069CCDE992
S2140023B0003413460A4601460248FFF71FFE04B0E3
S2140023C010BD00BF1CA70020704710B508210446AA
S2140023D087F0AEF8204610BD08B5FEF76EFC19482B
S2140023E0FEF70EFF10B1AC20FEF772FA164B174838
S2140023F0596B3DF0CCFD15483DF0D6FD144847F02E
S21400240057F850F079FE4BF05DFE114847F05EF845
S214002410104846F0D3FD1048FFF7D6F910B1AC20AF
S214002420FEF756FA0D4846F0C9FD04F012FE3BF0E2
S214002430EBFE0B4846F0C2FDAC20FEF749FA002042
S21400244008BD00BF4FCA0800502A022060000020C6
S214002450E0A7012060CA080014A7002072CA08007E
S2140024608ECA0800024A0349034887F05CB800BFDA
S21400247000000020C92300006000002007B501907E
S21400248001F0DBFE01990246024803B05DF804EB5A
S214002490FEF79ABF14A70020704770B5D1E9042351
S2140024A0044652EA03000DD08868CE686425A0FB77
S2140024B0050105FB061187F077FB0123237060708A
S2140024C0204670BD002323706370F9E7D0E902014F
S2140024D0704770470023836070470023436070474F
S2140024E07047043870477047704710B5102104468F
S2140024F087F01EF8204610BDA0F10400F5E70000A6
S21400250010B5044B03600446006B08B145F030F884
S214002510204610BD60990E0010B50446064A0C20F1
S21400252001213BF0B3FFE06820B10368BDE810402E
S2140025309B68184710BD00BFABCA0800A0F1040096
S214002540EAE700BF38B50B4C2378BFF35B8FDB0799
S2140025500ED4204686F0EEFF50B1074D074B2B6099
S214002560204686F0F3FF064A0649284686F0DBFF3B
S214002570014838BD48BB00204CBB0020F4720E005A
S21400258000000020D32400000C4B10B50360044666
S2140025906433436000F51C703EF086FCA36D23B1E7
S2140025A00022A26504F138009847A36A23B10022EE
S2140025B0A26204F108009847204610BDA4400E0011
S2140025C0A0F10400E0E700BF10B50446006808B1BB
S2140025D03DF06AFE204610BD10B5044B044640F898
S2140025E0343BFFF7F1FF204610BD00BFEC390E006C
S2140025F037B5C0680D46144638B90F4A01210C207D
S2140026003BF044FF002003B030BD1A680192002260
S2140026101A60214601AA21F0EDFC01A8FFF7D4FFBD
S214002620A38823B9E38813B92378402BEAD02B89F3
S21400263043F040032B81E5E7BECA0800A0F1040082
S214002640D6E700BFF0B505461B4A85B00C461520F8
S21400265003213BF01BFFAF6817B9032005B0F0BDA0
S2140026600023ADF808302389267B23B96389022B23
S2140026701ED1142E02D00123ADF8083060683DF05C
S214002680BDFD6368039302AB0093A16803AB3246BB
S21400269038463CF0F7F9044603A8FFF795FF2CB13F
S2140026A0A86818B13CF086F90023AB602046D5E751
S2140026B0002BE0D1402EDDE7F1CA080010B504215A
S2140026C0044686F035FF204610BD0000F7B50F4FD4
S2140026D00F4E104C104D384622F044F80F49104A61
S2140026E001F5405338465B6B53603346009522F045
S2140026F069FA0C4B336122463946304623F0BAFD60
S214002700094B636325626C6003B0F0BD68BC0020B3
S2140027107000002030BC002050BB002050FA012082
S214002720680000208051010002CB080010B5044666
S214002730FFF72AFF20464FF4227186F0F9FE204666
S21400274010BDA0F10400F1E710B50821044686F09C
S214002750EFFE204610BD10B51C21044686F0E8FEAC
S214002760204610BD10B50446FFF736FF2046E02190
S21400277086F0DEFE204610BD10B50446FFF7C0FE0C
S2140027802046382186F0D4FE204610BDF8B53C48D9
S2140027903C4B03606433436000F10803C0E9023336
S2140027A0394B036300F13803C0E90E33374B036639
S2140027B0374BC36720330024C0F880300523C0E9B8
S2140027C00A40C0E91640C0E91A44C0E92E44C0E9F0
S2140027D03044C0E97244046780F87440846780F827
S2140027E0AC4080F8D041C0F8D44180F8D84180F899
S2140027F0F04180F8084280F82042C0F85432254B59
S214002800C0F87032C0E99D44234A244980F8384213
S214002810C0F8504280F8584280F87C42204D86F03E
S21400282082FE1D4A1F49204886F07DFE1A4A1F492F
S2140028301F4886F078FE28461E4B40F8103B6C601A
S2140028402C7254F02FFB144A1B492846C5E9344421
S214002850C5E9364486F067FE1848194B0360002623
S2140028600027C0E90267C0E90467C0E90644C0E97A
S2140028700C44094A1349BDE8F84086F054BE00BF30
S21400288068BC0020A4400E00F15C0200594902001A
S21400289014CB0800CC7D0E00000000208925000027
S2140028A050BB0020E724000068000020E924000058
S2140028B070000020EC390E00D925000030BC002046
S2140028C060990E0001250000044B20B10122044847
S2140028D01A7046F073BB05221A707047F0BE0020CF
S2140028E04CCB08002DE9F7430C460E4600271EB1D8
S2140028F0738936681F44FAE73B2F98BFC7F13C063A
S21400290007EB060818F03F0F1ABF28F03F024C32BC
S21400291008F10C02002101A800F05CFA054640B15F
S2140029201C48394646F04AFB4FF0FF3003B0BDE87E
S214002930F083019B03F10C094CB16289616809EBD5
S214002940050087F005FD638924681D44F4E736B169
S2140029503246214609EB050087F022FD47460B2547
S2140029600124013D019807D000231A46394611F08C
S21400297099FE04460028F4D10198002100F034FAAC
S21400298034B10548394646F019FB6FF00B00CDE729
S2140029902046CBE75BCB08007CCB08002DE9F8434C
S2140029A0C57815F00605074629D1284600F0CCF86C
S2140029B0814620B3F98811B33C294FF0030238BF93
S2140029C03C2104207E7926F08BFE8046B8B108367E
S2140029D00446711962896068394487F0B9FC6389D6
S2140029E024681D44002CF4D1D9F8D430494640461A
S2140029F0984720B14046BDE8F84326F041BEBDE802
S214002A00F883000013B547F27343A0F802311B4B5E
S214002A10C0F8D8301A4BC0F8E0301A4BC0F8DC309B
S214002A200623044680F8F8306946002001F098F83E
S214002A309DF8003084F8F9309DF8013084F8FA30BB
S214002A409DF8023084F8FB309DF8033084F8FC30A3
S214002A509DF8043084F8FD309DF8053084F8FE308B
S214002A6040F2DC53A4F8F63094F80131002043F02D
S214002A702A0384F8013102B010BD00BF6DD80200F1
S214002A80E9E60200E528000010B50A4C0A490022D3
S214002A9020462EF0C7F80949002220462EF0C2F83C
S214002AA00120FFF711FF20460121BDE8104026F067
S214002AB042BD00BFF4BE0020059402004994020007
S214002AC010B5084C0020FFF7FFFE074900222046FD
S214002AD02EF0A8F820460549BDE8104000222EF04A
S214002AE0A1B800BFF4BE0020779402002194020033
S214002AF010B594B0114A124C0292124A0023CDE946
S214002B000032CDE90533CDE90733CDE90A33CDE907
S214002B100C33CDE90F33CDE911338DF824308DF821
S214002B2038308DF84C300AAA0FAB05A9204626F09F
S214002B30FDFB204626F060FC14B010BD150D03000A
S214002B40F4BE0020052A00000028024818BF002016
S214002B50704700BFF4BE00207047000070B50E4EF0
S214002B603478BFF35B8F14F0010412D1304686F040
S214002B70E1FC70B1094D0A4B6C613046C5E9014471
S214002B80C5E9033486F0E2FC064A0749284686F083
S214002B90CAFC024870BD00BF04C0002008C0002068
S214002BA0A415AE1500000020592B000070B5044691
S214002BB086B00D461348144946F000FA3CB1124957
S214002BC01248224606B0BDE8704046F0F7B9142613
S214002BD00D490F4846F0F2F93246214601A887F023
S214002BE0DFFB28680390C3238DF806300948AB88BE
S214002BF0ADF8046001AA2146ADF8103046F07CFD21
S214002C0006B070BDA1CB0800AECB0800C3CB080051
S214002C10E1CB0800D8A7012013B504461249134893
S214002C2046F0CCF900239C428DF8073014BF0123F0
S214002C3002238DF8063004230D48ADF804300DEB62
S214002C400302012146F058FD64B101200EF05EFD3E
S214002C50084846F02DFCFFF781FF52F037FA05488A
S214002C6046F034FC02B010BDF0CB0800A1CB080043
S214002C70D8A70120E0A7012007B51148114C46F05F
S214002C809DF900F087FB00254FF0FF320121002060
S214002C900FF048F900F09CFB0123ADF806502370B6
S214002CA00DF1060011F024FD28B9BDF80630C3F377
S214002CB00B03002BF4D1257000F07CFBE4E700BF8B
S214002CC000CC0800D8D000201FB50C4B02930C4B4C
S214002CD00193022300930B490B4800234FF48062B4
S214002CE00EF0B6FA094B186028B9094805B05DF829
S214002CF004EB46F063B905B05DF804FB20D0002075
S214002D0020C0002016CC0800792C0000DCD0002063
S214002D101DCC080010B5124C124846F04FF9226838
S214002D206AB1114C216829B9032201200DF0A4FCD8
S214002D30206058B10D4C236853B1002007E00121F4
S214002D4008460DF099FC20600028EAD1012010BD4D
S214002D5001200DF0C1FD2060B0FA80F04009F6E7D2
S214002D60ECD000202ECC0800F4D00020F0D00020BC
S214002D7008B5044846F022F9034B0020C3E90000DA
S214002D8008BD00BF3ECC0800E0D0002010B5054BC3
S214002D90054A1C68144404601A681144196000202F
S214002DA010BD00BFE0D00020DBCE0800014B036062
S214002DB00020704750BC0400024B53F821300360DB
S214002DC0002070472C8B0D000623038000207047E0
S214002DD00020704710B504461046FDF741FE2060FF
S214002DE0B0FA80F0400910BD08B5FDF7F1FE0020EE
S214002DF008BD000010B5044602F009FC4FF48073CD
S214002E0034B1044AC2F89C3002F007FC002010BD22
S214002E10014AF7E700A0004600A00044094B10B5A1
S214002E204FF48064C3F89C400A200EF06FFC064BFB
S214002E300320C3F89C400EF069FC044B0020586049
S214002E4010BD00BF00A0004400A00046E0D0002057
S214002E5010B5054C002120680DF006FF2068032100
S214002E600DF002FF002010BDF4D0002008B54FF48E
S214002E707A735843984234BF0A20B0FBF3F00EF042
S214002E8045FC002008BD0000024B18720020587256
S214002E90704700BFE0D000202DE9F341DFF84880FE
S214002EA007460D4614460026AE4201D1072011E023
S214002EB0D8F8000001220DF107010DF021FE0128CF
S214002EC00BD19DF80730BB4207D144B1054B1B68B8
S214002ED02360002002B0BDE8F0810136E4E720461A
S214002EE0F8E700BF78EF0020ECD0002008B5074BCD
S214002EF04FF4FA7118680DF0B7FE012804D00448A4
S214002F0046F05CF8072008BD0020FCE7F0D0002063
S214002F104DCC080008B5044800231A461946006838
S214002F200DF0D0FB002008BDF0D0002070B50446A0
S214002F300E4E00F05BFA327AA3789A42054612D11A
S214002F402288B2F5007F0ED2094B2146186887F01A
S214002F50FFF92146074811F8023F73720068022302
S214002F6000220DF0AFFB284670BD00BFE0D0002069
S214002F7078EF0020ECD0002011F06FBA40F6083051
S214002F8070470FB407B504A951F8040B019188F0F7
S214002F9019F803B05DF804EB04B0704713B5124B94
S214002FA01B7883421DD1114BD3F81C24C3F824246C
S214002FB00F4B00241868019401A90DF027FD0D4B56
S214002FC001AA186821460EF0F5FF019B4BB14FF0A1
S214002FD0E0234FF08052C3F8042DBFF34F8FBFF3AA
S214002FE06F8F02B010BD00BFDC00002000A00040C4
S214002FF0F4D00020DCD0002013B5234C23482178E1
S21400300045F0DCFF2248012101F04CFE002304229B
S2140030100A21032003F010F80023042208210320CD
S21400302003F00AF8002302220621012003F004F828
S21400303001221146002002F0E7F801F093FC00237D
S214003040CDE90033012318462278062102F0AEFFB0
S2140030501049207801F09EFC22780F48012101FAE1
S21400306002F253B2002B07DB5B0902F01F0260334B
S21400307001FA02F240F82320A02380F80A3380F8F1
S214003080123302B010BD00BFDC000020448B0D00E0
S21400309000350A009D2F000000E100E007B5002380
S2140030A001930A4B01A918680DF0B0FC019B4BB1C7
S2140030B04FF0E0234FF08052C3F8042DBFF34F8F3C
S2140030C0BFF36F8F012003B05DF804FB08D100202A
S2140030D070B5384D384E0FCD88B001AC0FC495E8AA
S2140030E00700364B01251D70354B8DF8125084E8CD
S2140030F0070000241C602946324B3348039301F036
S214003100D1FD2946314801F0CDFD01A9304610F029
S2140031104DFB33682E4843F000433360294601F0E8
S214003120C1FDB36F23F01F2323F01F0343F00123D9
S2140031302B43B3670B2373672146204602F029FF13
S2140031402B4620460422092102F076FF234620461D
S2140031500422062102F070FF23462A462046072155
S21400316002F06AFF234620460422082102F064FF8C
S2140031702146032228460DF07FFA164B22462146AA
S214003180186023460DF09EFA01F0A4FA2146124874
S21400319001F028FA2146114801F024FA2B46204671
S2140031A00422092102F048FF4FF440632046F360F2
S2140031B008B070BD5C8B0D000008014004D10020F3
S2140031C0FCD000200051250200350A0000620400F1
S2140031D04041050008D100200CD1002000D100207D
S2140031E038B50C4B0C4C18680C4D0DF06BFE206877
S2140031F001F01AFB286801F017FB286801F044FA72
S214003200206801F041FA01F01DFA054810F05EFA58
S214003210002038BD08D1002000D100200CD10020AD
S21400322000080140024B4FF40072DA60002070473D
S21400323000A00044024B4FF40072DA600020704792
S21400324000A0004630B5104B87B00024CDE90243FD
S214003250024601230D480191009304940D460C4B41
S21400326000684FF4602101F085FACDE90344CDE90A
S214003270015408480094084B084A0949006801F0C0
S2140032805FFA07B030BD00BF9D30000000D10020BF
S2140032901C0801400CD10020FCD00020340801405E
S2140032A001000E0070B5104B104A86B00024CDE920
S2140032B00243CDE9004106460D4804940D460D4BE9
S2140032C000684FF4602101F055FACDE90344CDE9DA
S2140032D00154012308480093084A09490068334608
S2140032E001F02EFA06B070BD9D300000F8D0002028
S2140032F000D100201C0801400CD1002034080140F9
S21400330001000E00F8B5214CBDF8187005461E46A3
S21400331023695B06FCD54FF44063E3606AB101396C
S21400332011F8013F636323699806FCD5013A92B20F
S214003330002AF5D123695B06FCD517B34FF440632A
S214003340E360134C4FF0FF3120680DF08DFC012830
S21400335019D1022D3946304610D1FFF773FF206889
S2140033604FF0FF310DF080FC012805D100232068C6
S2140033701A4619460DF0A6F9002003E0FFF792FF63
S214003380EDE70120F8BD0720FCE700BF000801407C
S21400339008D1002007B501230022CDE90023044A06
S2140033A006211278184602F001FE03B05DF804FB11
S2140033B0DC000020044B1A7801239340034A0020C7
S2140033C0C2F82834704700BFDC00002000A000468A
S2140033D0044B1A7801239340034A0020C2F828348D
S2140033E0704700BFDC00002000A000442DE9F04F2D
S2140033F08378CC2B89B0044620D8C22B03D8002073
S21400340009B0BDE8F08FC33B092BF8D801A252F8EB
S21400341023F000BF7B34000005350000FF330000BA
S214003420FF330000FF330000FF330000FF330000CF
S214003430213500002F3500000536000003F120027C
S214003440D2B2042ADBD8E03B042BD8D801A252F82B
S21400345023F000BF0D36000069340000FF33000083
S214003460093600005D360000914845F0A7FD9148FA
S2140034702246002146F040F9C1E743680A2B3FD8B0
S214003480DFE803F0063E3E3E3E3E1C36383A3C0041
S214003490894845F093FD894BA2681A60A2899A80F4
S2140034A0874B1A6892F8223243F0020382F82232DF
S2140034B00221844B18680CF0ADFEA0E7824845F068
S2140034C07DFD824B1978042999D80131C9B219704B
S2140034D07F4B804800221A7045F070FD784B1A68C2
S2140034E092F8223223F0010382F822328021E0E7AC
S2140034F07948E4E77948E2E77948E0E77948DEE7A3
S2140035007948DCE74189794845F058FD6C4B1A68E4
S21400351092F8223223F0020382F822320421C8E70E
S2140035200379002B7FF46BAFFFF738FA67E7838EDB
S2140035306F4E00F10807DC3B0697C3F3C03202FA71
S21400354083F390F82D20059290F82C20049290F8A2
S2140035502B20039290F82A20029290F829200192BC
S21400356090F828200092C28D317862485B1045F0B2
S21400357025FD614845F022FD604B186828B13946A4
S21400358087F04DFC00287FF43AAF3020FDF768FA4C
S214003590054618B95A4845F011FD30E7594B1A68E8
S2140035A00260186062683946043086F0D1FE6368AF
S2140035B02B4400221A7194F83030180715D50B23C7
S2140035C085F82530E38D85F82C3094F8343094F85F
S2140035D0352043EA0223EB85A36AC5F82630A38D7F
S2140035E06B8533780133337009E7590701D5022319
S2140035F0E6E79A0701D50123E2E713F0010318BFB7
S2140036000323DDE7402154E73F48C4E73F48DFF89F
S2140036100481DFF80491384F45F0D0FC254600269B
S2140036202388B3427FF6EBAE3146404645F0C6FCF3
S21400363005F1100AA6EB050B228805EB0B039A4250
S21400364006DD15F8011B484645F0B8FC5545F3D194
S2140036503846103645F0B2FCB6B2E1E761682C4851
S214003660DFF8B080DFF8B090234F45F0A7FC254682
S21400367000262388B3427FF6C2AE3146404645F068
S2140036809DFC05F1100AA6EB050B228805EB0B0343
S2140036909A4206DD15F8011B484645F08FFC554555
S2140036A0F3D13846103645F089FCB6B2E1E700BFE4
S2140036B0788B0D00D8A70120908B0D0012D100202A
S2140036C078EF00202CD10020A08B0D001CD100200C
S2140036D02AD10020768C0D00D08B0D00E98B0D00D2
S2140036E0028C0D00308C0D00588C0D00A08C0D0047
S2140036F010D10020B68C0D0028A90D0024D1002082
S214003700E88C0D0020D10020FA8C0D00188D0D00DD
S2140037103E8D0D002D8D0D00388D0D004FF0FF30C5
S21400372070474FF0FF3070474FF0FF307047000093
S21400373030B5424C2378DA0789B005D5404845F0C5
S2140037403DFC002009B030BD43F001032370FFF7B5
S214003750E1FA237813F004030793F2D1394845F0D1
S2140037602DFC227842F004022270FFF745FC0CF094
S2140037706FFC354A079B1060344A01920122009282
S214003780334934484FF480620DF0AEFD012802D074
S214003790314845F013FC314C204611F03DFA3049D3
S2140037A00546304845F00AFC072D42D004D86DB1D6
S2140037B0012D40D02C4838E040F601339D4233D0EE
S2140037C040F602339D42F5D128482EE094F81B328D
S2140037D0059394F81A32049394F81932039394F8E4
S2140037E01832029394F81732019394F81632009325
S2140037F094F8003294F8012294F802121C4845F01E
S214003800DDFB1C4845F0DAFB94F82232022B01D18E
S21400381011F0EAFC184845F0D1FBFFF769F90123DF
S214003820164884F822328AE7154845F0C7FB154843
S21400383085E71548F9E71548F7E700BF11D10020DE
S214003840538D0D00698D0D002CD1002034D1002041
S2140038508E8D0D0089390000798D0D0038D100203D
S214003860998D0D009F8D0D00708E0D00208E0D0021
S214003870B98D0D00F38D0D00848E0D00958E0D0014
S214003880018E0D00A38E0D003E8E0D005E8E0D0087
S21400389038B5154B0446024600F120011D4652F885
S2140038A0040B43F8040B8A42F9D112781A7004F11B
S2140038B0210141220D4886F04BFD0B490C4845F08E
S2140038C07DFB94F86230062B09D004D8013B012B0F
S2140038D005D9042304E00B2BFBD1062300E00223CA
S2140038E085F8623038BD00BF5CD300207DD3002051
S2140038F0BA8E0D0008B520B10249632286F028FD75
S214003900012008BD5CD3002002486322002186F017
S21400391047BD00BF5CD3002030B5184C23788BB071
S21400392053B31748214645F049FB022315480022A9
S2140039306E2145F043FB022200216E2011F05FFC51
S214003940204687F07EFA04F121050990284687F084
S21400395078FA0122002380B2019294F86220009245
S214003960CDE90350CDE90533099902931A4620465E
S21400397010F0FAFF0BB030BD0E20FBE75CD3002042
S214003980D28E0D00E28E0D002DE9F04F002091B092
S214003990FFF7DAF8DFF8B881DFF8B891C8F800006A
S2140039A00DF07EFD5F4F0646FA230093D9F800001F
S2140039B00023012266210CF059FB0306044609D5B4
S2140039C0594D2B7833B9594845F0F8FAFFF7A4FF5C
S2140039D001232B703B789D0740F18D800DF060FD34
S2140039E006F1FA038342054680F08580D8F8003059
S2140039F093F8A430302B11D14D4E337873B9012093
S214003A004FF0010AFFF708F986F800A0494E307813
S214003A1020B94949FFF7CAF886F800A0A00710D5D4
S214003A200020FFF7F9F8424A444800231370414A41
S214003A30137045F0C3FA3B7843F002033B70FFF780
S214003A4023F861070DD50020FFF7E6F8384A002373
S214003A501370384A13703B7823F002033B70FFF76D
S214003A602FF8A2062CD5364B1E68002E45D02422F1
S214003A70002107A886F094FC304687F0E2F91FFA8A
S214003A8080FA5246314608A886F062FC07AECDF8AA
S214003A901CA04FF0010A02232A4800226E2145F09E
S214003AA08DFA022200216E2011F0A9FB0022CDE93A
S214003AB00222CDE900A233461146012010F0DAFFBB
S214003AC063062CD5DFF890A0DFF890B09AF80010C7
S214003AD01D481E4E45F072FADBF80040336820465B
S214003AE06CB150F8042B059298472046FDF770F805
S214003AF0059A1446F2E7354690E7B246CBE7984774
S214003B008AF80040DFF838A0CBF80040DAF800006A
S214003B1018B1FDF75DF8CAF80040002333602E4662
S214003B2042E700BF11D100202AD10020418F0D00AE
S214003B3028D1002029D1002012D10020618F0D004D
S214003B4024D10020E28E0D00778F0D0018D10020C2
S214003B5030D100202CD1002010D1002020D1002010
S214003B601FB50E48D0F816320B60B0F81A328B80AC
S214003B7090F81B32029390F81A32019390F819329B
S214003B80009390F8183290F8172290F8161204480E
S214003B9045F014FA05B05DF804FB00BF38D10020EC
S214003BA0948F0D0010B5094845F008FA11F01CFB7B
S214003BB0074A137823F002031370064B044680214D
S214003BC018680CF027FB204610BD00BFC98F0D00FB
S214003BD011D100202CD100200120704710B5074BD2
S214003BE007491B78074813F0020FC3F34004064B3F
S214003BF008BF194645F0E2F9204610BD11D1002055
S214003C00DB8F0D00E28F0D00DE8F0D0010B5094929
S214003C100446094845F0D2F94CB9FFF7DFFF0446E1
S214003C2004490648224645F0C9F9204610BD00243E
S214003C30F6E700BFF98F0D00A1CB08000C900D0031
S214003C40014845F0BBB900BF1B900D00704700004F
S214003C50024B93F8220200F00100704738D1002092
S214003C60024B93F8220200F00100704738D1002082
S214003C7070B50E4E336804460D460BB1002070BD7D
S214003C8058B187F0DEF80130FCF7EAFE084A10600B
S214003C900028F3D0214687F0CCF8064B356018682C
S214003CA020210CF0B7FA0120E9E700BF18D1002068
S214003CB024D100202CD10020074A30B5034600F15D
S214003CC0280518685968144603C40833AB422246D0
S214003CD0F7D11868206030BDC0D300207FB5124EE3
S214003CE033681B88803B03EBD371104B01932D2365
S214003CF005460093002280234910304610F0C9F98B
S214003D00284687F09EF8142809D800220123CDE91A
S214003D100123009229460522304610F0C8FA05B065
S214003D20BDE8604010F0B6B8C0D300207B940D000C
S214003D3037B50C4C0C4D236819885A880B4B403904
S214003D40002808BF2B46019301EBD1714023009356
S214003D50453A4910204610F09CF903B0BDE83040C3
S214003D6010F098B8C0D300202B900D002B920D00B9
S214003D7037B500280E480F4D03685A880E4BA2F13F
S214003D80450202EBD2710ABF2B461124122402EB25
S214003D906102CDE9004308BF08214FF0120318BFA7
S214003DA0682110F076F903B0BDE8304010F072B824
S214003DB0C0D3002052940D002B940D0010B504467D
S214003DC0094810F0B1F82046FFF788FF0020FFF7FB
S214003DD0AFFF00210846FFF7CBFFBDE810400021EB
S214003DE00120FFF7C5BF00BFC0D3002073B505464E
S214003DF0164681B10846019187F023F814280199E8
S214003E0005D91D4845F0DAF82F2002B070BD05F13F
S214003E102C0087F00EF800F056F8044620B1014654
S214003E20164845F0CBF8AC24002010F009F80146FF
S214003E3018B1134845F0C2F8AC24284610F0C8F86C
S214003E40014618B10F4845F0B9F8AC246FF07F4230
S214003E500023C5E90123284610F066F8014618B18C
S214003E60094845F0ABF8AC242846FFF725FF85F84F
S214003E7041602046C9E700BF4B970D005D970D00D7
S214003E807A970D008D970D00A9970D0010F04CB88D
S214003E9010B50446FFF7FAFF04F12C00FFF78EFF7B
S214003EA094F84100BDE81040FFF742BF80F841108B
S214003EB0FFF7EEBF08B5002318460422052102F0DE
S214003EC0BBF8002008BD08B5042201230F210320FB
S214003ED002F0B2F8002008BD08B50548012100F040
S214003EE0E1FE0EF09BFBBDE808400FF0D5BC00BF1E
S214003EF000350A000148012100F0D4BE00350A0052
S214003F0010B50D4BD3F82828A2F17E63A3F58433B1
S214003F10B3F5104F0AD2094C237813F0FD0F08D1E1
S214003F20D369984708B90123237010BD4FF48170F8
S214003F30FBE70020F9E700BF0000E10FECD300200C
S214003F404FF000530B4A1A600B4A01239360136824
S214003F5023F4E06343F480631360BFF34F8F074995
S214003F60074BCA6802F4E0621343CB60BFF34F8F7F
S214003F7000BFFDE702020FF000500E4000ED00E02B
S214003F800400FA050A4BD3F82828A2F17E63A3F5AD
S214003F908433B3F5104F09D2126BA2F17E63A3F5FA
S214003FA08433B3F5104F01D253681847704700BFEB
S214003FB00000E10F0B4BD3F82828A2F17E63A3F58F
S214003FC08433B3F5104F09D2126BA2F17E63A3F5CA
S214003FD08433B3F5104F01D2936818474FF48170BD
S214003FE0704700BF0000E10F07B50E4B0190D3F8F5
S214003FF02828A2F17E63A3F58433B3F5104F0ED2C2
S214004000126BA2F17E63A3F58433B3F5104F06D28C
S2140040109369012101A8984703B05DF804FB4FF4AB
S2140040208170F9E70000E10F10B40A4BD3F8284876
S214004030A4F17E63A3F58433B3F5104F05D2236B4A
S2140040401BB15B6A5DF8044B18474FF401705DF8CE
S214004050044B70470000E10F0B4BD3F82828A2F161
S2140040607E63A3F58433B3F5104F09D2126BA2F129
S2140040707E63A3F58433B3F5104F01D2936A1847D5
S2140040804FF40170704700BF0000E10F70B5134B8E
S214004090D3F82838A3F17E63A3F58433B3F5104F25
S2140040A0E0B00D4616D24FF4C0726946FFF7BCFF6B
S2140040B0044660B940F2012629466846FFF7CCFF61
S2140040C0B042F9D040F20323984218BF0446204677
S2140040D060B070BD4FF40174F9E700BF0000E10F57
S2140040E010B40D4BD3F82848A4F17E63A3F58433AF
S2140040F0B3F5104F0BD2246BA4F17E63A3F5843383
S214004100B3F5104F03D2A36B5DF8044B184740F28B
S21400411001105DF8044B70470000E10F0B4BD3F81D
S2140041202828A2F17E63A3F58433B3F5104F09D295
S214004130126BA2F17E63A3F58433B3F5104F01D260
S214004140D36B184740F20110704700BF0000E10F24
S2140041502DE9F0439946334B1746D3F82828A2F1A9
S2140041607E63A3F58433B3F5104F91B005460E4633
S2140041704FD2136BA3F17E63A3F58433B3F5104FD0
S21400418047D203A8FFF7FEFE079BDC68A3B2002B0E
S21400419042D001A92846FFF70DFF00BB029B06EBA5
S2140041A009059D423BD8A1B2B6FBF1F401FB1463AE
S2140041B0DDF80480D3B1B5FBF1F24C4201FB12529C
S2140041C004EA060001EB080C62B12C40211A604498
S2140041D0D1B94A46394608EB0600FFF781FF11B011
S2140041E0BDE8F083A9EB0104E118F0E7B9FBF1F3B1
S2140041F001FB139308EB060023B14C4204EA0904C2
S2140042002144E5E74946E3E7FFF788FF0028E0D0CA
S214004210E5E74FF48170E2E740F20140DFE740F265
S2140042200240DCE70000E10F03680B6001607047A6
S214004230436803B1184722207047436903B1184703
S214004240FF20704730221C2302FB003000F1047070
S21400425000F5204001EBC00189000868704738B5BA
S2140042600D682B78022B0C460CD069792879FFF75D
S214004270E9FFB0FA80F0400928702046BDE83840D3
S214004280FEF7FCB838BD000037B5046801210546C6
S214004290124800F007FD002361792079012201F021
S2140042A0CBFE61792079FFF7CDFFB0FA80F35B098A
S2140042B02370A379022B0ED100F054FB08496079D5
S2140042C02A4600F079FB0123617902462079CDE980
S2140042D0003301F06BFE002003B030BD00350A004D
S2140042E05F42000003681878704710B504682378AA
S2140042F0022B15D061792079FFF7A4FFA279012A55
S21400430015D10038638818BF012040EA430363F0E4
S2140043103F039BB24FF6E0718B4202D1227063805E
S21400432010BD4FF6DF729342F9D10022F6E7002A5D
S214004330F6D1B0FA80F040092070F1E703681A78E9
S214004340022A03D100225A80FFF79EBF704713B59A
S21400435004682378022B10D0A379022B0BD1607946
S214004360002100F017FB627920790023CDE90033A5
S214004370114601F01BFE0223237002B010BDD0E9E7
S21400438000031847836800681847C3680068184722
S21400439003690068184743690068184710B501218B
S2140043A00446094800F07EFC0848012100F07AFC2B
S2140043B0A37820786178B3FA83F35B09042201F0CE
S2140043C03BFE002010BD00BF4041050000350A003E
S2140043D0437810B5012204780C219A40302313FB51
S2140043E00413817803F1804303F5204319B903F1E0
S2140043F080631A6010BD03F1C063FAE7437810B516
S214004400012204780C219A40302313FB0413817890
S21400441003F1804303F5204319B903F1C0631A6022
S21400442010BD03F18063FAE74178037801228A40E1
S21400443030214B4303F1804303F520439A617047D4
S214004440024600780C21302313FB001303F104739B
S214004450517803F5204301EBC3039B00186893785B
S214004460C0B213B9B0FA80F0400970472DE9F04F9A
S2140044709A46554B85B01B78DDF83C909DF844B0C5
S214004480DDF8508006460F461546002B00F08B8060
S214004490072A00F28A800E9B002B00F08680B9F176
S2140044A0000F00F08280129BB3F5006F7DDC0128C0
S2140044B002D1109B002B78D0444B03EB05131B7BDB
S2140044C0002B74D0424C10220021684685F068FF0D
S2140044D004EB45141022002F57D13946204685F0AC
S2140044E05FFF43F210036380BBF1000F03D1E37854
S2140044F043F00303E370364A0E9BCDF800A002EBB0
S214004500451CCCE90193129B013BC3F30A009DF8BE
S2140045104C30690103F003039B0643EA001E535820
S2140045202C4818404EEA0003012E535041D1132365
S214004530CCF80C309CE80F000CF1100E8EE80F0043
S214004540DCF81C20109BCCF814306FF0030161F3EC
S2140045509F02012FCCF81C2003D1CCF81890CCF881
S21400456004301A4A290102EB051342F8018000279D
S214004570159A5A6028469F605E732246694601F087
S214004580E1FD384605B0BDE8F08F0021204685F0F5
S21400459007FF4FF444736380BBF1000FABD1E378A1
S2140045A043F03003A6E70C48ECE70C48EAE70C4873
S2140045B0E8E7B8F1000FD4D19CF8023068F3041392
S2140045C08CF80230CDE700BF70D50020F0D3002075
S2140045D070D400200F80FFF3028000F0018000F00E
S2140045E0078000F038B5124B1B780546DBB1E0B10A
S2140045F001F00DF80F4A00231146147B54B92B60C6
S2140046001A0101EB031301258C501D7301F005F808
S214004610204638BD0133082B02F11002EDD100F020
S214004620FCFF0548F5E70548F3E70548F1E700BF56
S21400463070D50020F0D30020048000F0028000F047
S214004640018000F013B500F0E2FF0C4A0023147B53
S2140046507CB90133082B02F11002F8D1019001F069
S21400466027FD074B01981C7000F0D7FF204602B0CC
S21400467010BD00F0D2FF0348F9E700BFF0D30020DA
S21400468070D50020058000F010B50D4B1B78044651
S21400469093B1072812D800F0BAFF0A4B03EB0413B5
S2140046A01A7B2AB100241C7300F0B7FF204610BD09
S2140046B000F0B3FF0448FAE70448F8E70448F6E7D2
S2140046C070D50020F0D30020068000F0028000F0B5
S2140046D0018000F013B5164B1868019000238DF882
S2140046E0043000F094FF134B1C7824B100F095FFC3
S2140046F0114802B010BD01221A7000F08EFF0F4B59
S2140047001C731C7783F82C4083F83C4083F84C409D
S21400471083F85C4083F86C4083F87C4004230DEB00
S21400472003008DF8073001F0E3FC2046E1E700BF08
S214004730BE970D0070D50020038000F0F0D3002057
S21400474010B588B00E9C07940D9C06949DF83040DA
S21400475005940B9C04949DF8284003940024CDE90E
S214004760013400920B46024621462046FFF77EFEA5
S21400477008B010BD10B588B00E9C07940D9C06942A
S2140047809DF8304005940B9C04949DF828400394B3
S2140047900024CDE9013400920B4602460121204652
S2140047A0FFF764FE08B010BD08B50A4A12785AB181
S2140047B007280BD8084A02EB00131B7B43B10021E5
S2140047C001F08CFC002008BD0448FCE70448FAE72A
S2140047D00448F8E770D50020F0D30020028000F0EF
S2140047E0018000F0078000F008B50A4A12785AB136
S2140047F007280BD8084A02EB00131B7B43B10121A4
S21400480001F06CFC002008BD0448FCE70448FAE709
S2140048100448F8E770D50020F0D30020028000F0AE
S214004820018000F0078000F008B50A4A127852B1FD
S21400483007280AD8084A02EB00131B7B3BB101F09D
S214004840CFFC002008BD0548FCE70548FAE7054808
S214004850F8E700BF70D50020F0D30020028000F0FB
S214004860018000F0078000F00D4B1B7893B10728FD
S21400487012D889B10B4B03EB00131B7B73B10A4BA9
S2140048801A6A012303FA00F010401ABF00200B70CA
S21400489008707047054870470548704705487047D8
S2140048A070D50020F0D3002000200E40028000F0DB
S2140048B0018000F0078000F02DE9F843DFF86480FF
S2140048C0D8F86070D8F86C301F4000D5FEE7144C5E
S2140048D0DFF8549001260025374217D0C8F86860E4
S2140048E023689BB1A16862680131A1602846984799
S2140048F0637B012B0AD148B909EB45131A7B60F399
S21400490041021A731A7F60F341021A770135082DA7
S2140049104FEA460604F11004DED1BDE8F88300BF76
S214004920F0D3002000200E4070D4002070B50C4E4E
S2140049300446012504B970BD94FAA4F0B0FA80F0DC
S21400494006EB001205FA00F324EA03045368002B72
S214004950F0D0117B11B191689847EBE79847E9E7EB
S21400496074D5002008B5122000F05AFE28B1084B76
S2140049704FF48022C3F880211A600A2000F050FE0F
S21400498028B1034B4FF48062C3F880211A6008BD3B
S21400499000E100E038B505460C4600F038FE054B51
S2140049A003EB051300225C601A73BDE8384000F084
S2140049B034BE00BF74D50020F8B505460F4616462F
S2140049C000F025FE104B05F0FC02D3F82814002357
S2140049D0EC1804F00304144321FA04FC1CF0010F45
S2140049E007D00133042BF3D1FF2400F016FE204637
S2140049F0F8BDFF2CF9D0054B03EB04130122C3E9E5
S214004A0001761A73F1E700BF00A0004074D50020BD
S214004A10054BD3F82804D3F81C24104000F055307A
S214004A20C3F82404FFF782BF00A00040054BD3F86C
S214004A302804D3F81C24104000F0AA30C3F824043D
S214004A40FFF774BF00A00040024B1968024B1868BD
S214004A5083F09ABFE4000020E000002070470000CA
S214004A6037B5920004460D46019201F0B3FC431C94
S214004A700BD060B9019A2946204685F059FC0028DB
S214004A80044808BF002003B030BD0348FBE70348D6
S214004A90F9E700BF10E000F021E000F024E000F0AD
S214004AA013B5044601A801F03FFD9DF806302380AB
S214004AB040F201136380074BD3F8E4301B0E0A3331
S214004AC0012203F01F0302FA03F30020636002B022
S214004AD010BD00BF0081E00F01F0A8BB08B501F0D3
S214004AE095FB002008BD10B5044644EA010313F008
S214004AF00303084609D1934201D1002010BD54F8A3
S214004B00231040F823100133F5E79200214685F084
S214004B101FFCF2E710B5044601F00EFC431C17D04C
S214004B20C0B90D4BD3F8E4301B0E0A3303F01F0256
S214004B300123934023F0030320462344984201D1E7
S214004B40002010BD50F8042B0132F7D00348F8E7D8
S214004B500348F6E70348F4E70081E00F0EE000F0B4
S214004B6021E000F024E000F008B500F049FD014B1C
S214004B70186008BDE8DA0020014B186800F044BD54
S214004B80E8DA0020704700000C4B984210D90C4B16
S214004B90984210D9022201230A490B640A49D1F827
S214004BA0003123F0807343EA0263C1F80031704796
S214004BB000221346F0E70122FBE700BF0048E801A9
S214004BC00090D0030000C84300400E4030B50F4BA5
S214004BD05B680F4B00221C46C9B21D798D4202D17C
S214004BE01D6885420DD20132052A03F10803F4D16F
S214004BF0032206494B6823F0407343EA02634B6086
S214004C0030BD04EBC2025279F3E700BF00000E404D
S214004C1014980D0070B5084C41F67136256C266464
S214004C2010F032FB0021FFF7D1FFADB2B5421CBF3A
S214004C300023236470BD00BF00000E40044BDB6BF6
S214004C405B0604D4034AD2F8C830002BFBD1704769
S214004C5000300E400000C64308B5FFF7EFFF024BDA
S214004C605868C0F3014008BD00300E40044BD3F82E
S214004C704421D20703D4D3F840211042FBD1704719
S214004C8000400E4070B5064C41F67136256C266421
S214004C90FFF79CFFADB2B5421CBF0023236470BD76
S214004CA000000E4038B5C0F30323013B092B16D88D
S214004CB0DFE803F02616151505191C151F23124CE0
S214004CC00023C0F3043513B11846FFF7CFFF04F1F5
S214004CD0424404F5801405EBC404A400216038BDEA
S214004CE00A4C0023EDE70A4C0123EAE7094C10239F
S214004CF0E7E7094C4FF48033E3E7084C0023E0E78E
S214004D00074C0023DDE700BFB0400E40C0400E4019
S214004D10E0400E40E8400E40F0400E4050410E404D
S214004D2000400E40C0F30313013B092B2AD8DFE8EE
S214004D3003F0050B0F1929291F23374B274BD3F8F0
S214004D400001C0F304207047244BD3F81401F8E7A1
S214004D50224BD3F80001C0F30060431C01209840AA
S214004D60013870471D4BD3F80C01C0F3082070477C
S214004D701A4BD3F80801F8E7194B984204D0194BA0
S214004D80984207D000207047144BD3F8203103F028
S214004D900F03E3E7114BD3F82031C3F30113DDE72C
S214004DA0114B98420CD003F5B01303F5805398428C
S214004DB0E8D10A4BD3F82801C0F30120031DCDE744
S214004DC0064BD3F82831E8E7084B9842DAD1034B74
S214004DD0D3F8300100F00300704700BF00400E40DB
S214004DE08006160080162E0090171A00A0091400E0
S214004DF008B5FFF797FF013008BD000000F00F0070
S214004E000138072844D8DFE800F0040F1943232DA3
S214004E104335244BD3F8943003F00703023B052BAD
S214004E2038D8214AD05C70471E4BD3F8803003F048
S214004E300703013B032B2FD81C4AF3E7194BD3F883
S214004E40843003F00703013B032B25D8184AE9E713
S214004E50144BD3F8883003F00703013B032B1BD811
S214004E60144ADFE70F4B1B6F13F0010F0CBF072030
S214004E70092070470B4BD3F85C3103F03003202B2E
S214004E800CD0302B0CD0102B14BF012007207047FD
S214004E9000207047052070470120704704207047A7
S214004EA00820704700400E40E8970D00EE970D0072
S214004EB0F2970D00EE970D0008B50146FFF79EFF2E
S214004EC01A4B994211D01A4B994212D0194B99425B
S214004ED004D1194BD3F8800000F0070001380328EE
S214004EE021D8DFE800F00A0E1612134BD3F8840020
S214004EF0F2E7114BD3F88800EEE7BDE8084010F063
S214004F0027BABDE8084010F029BABDE8084010F0FE
S214004F1022BA10F0BDF9084BD3F80031C3F3006392
S214004F200133D84008BD0020FCE700BF0300200086
S214004F300500240002001E0000400E4000F4781316
S214004F40B3F5B01F10B5044674D025D8B3F5402F7E
S214004F505ED010D8B3F5802F49D005D83BB1B3F555
S214004F60003F4FD0002010BDB3F5202FFAD1BDE88A
S214004F70104010F08DB9B3F5801F00F08480B3F5B3
S214004F80A01F4DD0B3F5602FECD14A48FFF736FF8F
S214004F90072878D00928E9E7B3F5381F53D013D887
S214004FA0B3F5001F58D00AD8B3F5D01F56D0B3F5C6
S214004FB0F01FD7D14048BDE81040FFF77DBFB3F5DE
S214004FC0101FCFD13D48F6E7B3F5481F4DD0B3F5D7
S214004FD0781F65D0B3F5401FC4D13948FFF76CFF82
S214004FE0384BD3F82831C3F30123043320E010F004
S214004FF04FF9344BD3F80C31C3F308230133B0FB1D
S214005000F3F0B0E710F044F92E4BD3F80831F3E78D
S21400501010F03EF92B4BD3F81431C3F30423EDE71D
S2140050202648FFF749FF274BD3F8303103F0030338
S214005030D84098E72048FFF73FFF224BD3F82031AF
S21400504003F00F03F4E71C48FFF736FF1D4BD3F8B9
S2140050502031C3F30113EBE71948ACE71848FFF714
S2140050602BFF184BD3F82831F3E71748FFF7C6FE97
S214005070072808D0082809D004287FF473AFBDE8B5
S214005080104010F041B9114B18686CE710F000F9A9
S2140050900C4BD3F80031C3F3042303FB000062E794
S2140050A010F0F6F801462046FFF7A2FEB1FBF0F03E
S2140050B059E700BF06000E0002001E00050024008F
S2140050C00300200000400E40B8003200040100201B
S2140050D008B5FFF793FE02280ABF024B4FF6FF7093
S2140050E0188808BD08010020014B1880704700BFD3
S2140050F008010020013810B5032812D8DFE800F0B8
S214005100022E1220214AC1F30801D2F86838002B7B
S214005110FBD11F4A136A23F4FF7323F001031943DC
S214005120116210BD194A01F07F01D2F86038002BD9
S214005130FBD1174A136923F07F0319431161F0E787
S214005140124A01F07F01D2F86438002BFBD1104AD6
S214005150936923F07F0319439161E2E70C4AD2F882
S2140051609030536A23F0300343F010035362146BFD
S214005170084BC1F3C31003300F2803EA040328BF0B
S2140051800F20194341EA00711163CAE70020C843A3
S21400519000400E4000F8FF0F104A536A13F0300F1D
S2140051A018D0202913D0302914D000290C4B08BF62
S2140051B04FF44003D2F8901033EA0101FAD15B02B3
S2140051C046BFD2F8A000C0F38020012070474FF4FD
S2140051D00003EFE74FF44003ECE700BF00400E404B
S2140051E0FF33E10702280AD129B1064B4FF480604D
S2140051F0C3F8A800596612B10220FFF7CDBF012000
S214005200704700BF00400E400428F8B545D8314B23
S214005210314F13F800C0314B1B5C002943D0304C93
S214005220022834F8106039D17C6A14F0300F35D17A
S2140052302C4CE46B7C6AE40705D57D6A25F03005C6
S21400524045F010057D62244C2666274C23449B00BF
S2140052501D68002DFCD002B36444A4002368002B14
S214005260FCD0022819D1C1B11B4D696A11F00101A9
S21400527016D001222021FFF7B5FFD5F89C70012239
S21400528000210220FFF7C0FFC7F30A010220FFF744
S21400529031FF2E662368002BFCD0F8BD0021D2E734
S2140052A0FFF77AFFE9E7114931F810103966012156
S2140052B001FA03F3D7F890101942FBD1002AECD07C
S2140052C00124054A04FA0CF4D2F890302342FBD1AC
S2140052D0E3E700BFF6970D0000400E40FB970D0079
S2140052E000980D0000300E408004F2100A980D0061
S2140052F0112838B50C4615D000F00F0001380728E5
S21400530069D8DFE800F02B0464686283688E5E4D1F
S214005310013C092C5FD8DFE804F0775F665E5E6DBF
S2140053205E5E5E5C042912D10FF0EEFF0546A8B162
S2140053300021284600F0C4FB023C0A2C4BD8DFE8CC
S21400534004F03F3C30364A4A4A4A4A0F4200052992
S21400535004D14E4B1D684E4B9D42E9D80025EBE725
S2140053600320052401221146FFF74EFFFFF752FCEB
S2140053700DB1FFF763FC474B5C670FF0B3FF0446C5
S2140053800FF086FFFFF700FCFFF766FC014620469D
S214005390FFF778FCFDB928460121BDE8384000F04B
S2140053A08FBB3D48FFF7F0FB02200446DAE73A4899
S2140053B0FFF7EAFB01240320D4E701200324D1E70A
S2140053C000200424CEE70724D0E7344DA0E7344D70
S2140053D09EE704232B6038BD012211460020FFF70C
S2140053E013FF0223F6E7012211461046FFF70CFFD3
S2140053F00123EFE70FF04CFFFFF7C6FB294B012216
S214005400C3F808260323E5E70023E3E7072904D0CB
S2140054100929E0D11F4B012201E01E4B00221A672A
S214005420D9E74C1E072CD6D801A353F824F000BFAA
S21400543083540000D7530000D75300007554000073
S214005440D7530000D75300006754000051540000A3
S21400545003221049D1F85C3123F0300343EA0213EB
S214005460C1F85C31B7E7012211460420FFF7CCFEF5
S2140054700122EEE7012211460220FFF7C5FE0222B6
S214005480E7E70022E5E700BF80400E4094020020D8
S214005490002D310100400E400148E80188400E40D2
S2140054A084400E400010C84370B50D4614460AB13D
S2140054B0174B1B680FF028FF0121064600F000FB83
S2140054C01CB3FFF7C9FB01463046FFF7DBFB112094
S2140054D0FFF78EFCB6FBF0F0FFF756FB01221146F5
S2140054E00220FFF791FE0B48416A002D14BF4FF0D3
S2140054F08052002221F04051002C14BF4FF0005380
S21400550000230A431343436270BD002DE6D1EAE749
S21400551000300E4000400E4010B504461120FFF744
S2140055206DFC002101220220FFF76EFE184A217C46
S214005530536A23F00103022908BF43F001035362B4
S214005540144B2178C3F8A014A188637A43EAC123D8
S214005550D362136BA07A217A03F07F630343E0885B
S21400556043EAC02343EAC11303310F2928BF0F21A2
S21400557043EA01731363A37B617B1B0143EA013398
S214005580E17B0B43217B43EA0143536310BD00BF1D
S21400559000400E400000C84338B50E4D01461120AD
S2140055A0FFF72CFCAA6B0C4B0C7813401C434B7873
S2140055B044EAC3248B7844EA0364CB7844EA0324A1
S2140055C0AB6BA34205D0002101220846FFF71CFE64
S2140055D0AC6338BD00400E4080E4FFF80028A7BF4B
S2140055E000F1604000F5614000F00F00034BACBFD7
S2140055F090F80003185C4009704700BF14ED00E007
S214005600EFF3108072B6704700B962B67047EFF3DA
S2140056101180602383F31188704780F311887047E8
S2140056204209054B53F8223000F01F0023FA00F021
S214005630C04300F00100704700E100E008B50146F5
S214005640EFF31083DB0702D50122104608BDFFF7F3
S214005650E7FF02460028F7D10846FFF7BFFF0146DE
S214005660EFF3118313B1B0EB531FEDD2074B5B681A
S214005670C3F30803002BE8D0103B58B2FFF7AEFF89
S21400568088428CBF00220122DFE700BF00ED00E069
S21400569030B5D1E90223D1E9005405600460026008
S2140056A0036030BD30B50568046802680368C1E968
S2140056B00054C1E9022330BDFFF7EABF7FB58B0770
S2140056C0044611D00B466D4601F11006186859685D
S2140056D02A4603C20833B3421546F7D16946204628
S2140056E0FFF7D6FF04B070BD0091009904B0BDE886
S2140056F07040FFF7CDBFFFF7D5BF30B58B0785B03D
S2140057000C4610D06946FFF7CDFF0D46234604AC85
S2140057102A4603CAA24218605960154603F10803D8
S214005720F6D105B030BD0091009905B0BDE8304017
S214005730FFF7B8BF10B5FFF7ABFFBDE8104010315C
S214005740FFF7A6BF10B5FFF7ADFFBDE8104010315C
S214005750FFF7A8BF10B5FFF79BFF0C461031FFF709
S21400576097FF04F12001FFF793FF04F13001BDE835
S2140057701040FFF78DBF00F1424303F58013102A57
S2140057804FEA431305D101221A6000F58870FFF72F
S214005790D1BF00221A602430FFF77ABFF0B50B465F
S2140057A0990789B0054614461ED0082A6E4610D1C1
S2140057B003F1100718685968324603C20833BB4223
S2140057C01646F7D1224669462846FFF7D4FF09B0A9
S2140057D0F0BD03F1200718685968324603C2083343
S2140057E0BB421646F7D1EDE70093009909B0BDE835
S2140057F0F040FFF7C0BF436823F01F030E290BD805
S214005800DFE801F008080808080B0B0B0808080872
S2140058100B0B0B00194341607047194341F0100110
S214005820F9E738B520301546FFF73CFF102D04D1B8
S214005830BDE838401031FFF735BF38BD30B58B07AF
S21400584089B00C4615461DD06946FFF7EAFF082DBD
S2140058500CD16A4604AD134603CBAB4220606160B0
S2140058601A4604F10804F6D109B030BD6B4608ADFF
S2140058701A4603CAAA4220606160134604F108046F
S214005880F6D1F1E70091009909B0BDE83040FFF786
S214005890C8BF0000034BD86B80F04000C0F38010F8
S2140058A0704700BF00300E4042EA0323B3F5007F86
S2140058B039D016D8B3F5807F31D007D85BB3012B2B
