S0200000636869702D65667233322D77696E646F772D6578616D706C652E73333783
S3150800600000000420717901086F79010841F205083A
S31508006010F5B000086F7901086F7901086F790108F2
S315080060206F7901086F7901086F79010841B901088C
S315080060306F79010888000020E1B80108E1410108EC
S31508006040318800086F7901086F7901086F790108AE
S315080060506F7901086F7901086F7901086F7901086E
S315080060606F7901086F7901086F7901086F7901085E
S315080060706F7901086F7901086F7901086F7901084E
S315080060806F7901086F7901086F7901086F7901083E
S315080060906F790108258F00086F7901086F79010863
S315080060A06F790108A19000087D9000086F790108B2
S315080060B06F790108ADE20908A5EC09085DEC090845
S315080060C059EC090879E40908A1EC090861EC090802
S315080060D079EC090865EC090805ED0908E5EC0908F5
S315080060E06F7901086F7901086F7901086F790108DE
S315080060F0517D01086F7901086F7901086F790108E8
S315080061006F7901086F7901086F7901086F790108BD
S315080061106F7901086F7901086F7901086F790108AD
S315080061206F7901086F7901086F7901086F7901089D
S315080061306F7901086F7901086F7901086F7901088D
S315080061406F790108C17E01086F7901084BBA00080A
S3150800615059CA09086F79010811A9090817A9090870
S315080061606F7901086F7901086F7901086F7901085D
S3150800617010B5054C237833B9044B13B1044800E035
S3150800618000BF0123237010BDF8090020000000009D
S31508006190DC580B0808B5034B1BB10349034800E05C
S315080061A000BF08BD00000000FC090020DC580B08F1
S315080061B0A3F5803A704700BF174B002B08BF134B57
S315080061C09D46FFF7F5FF00218B460F461348144AF4
S315080061D0121A9CF0E9F90E4B002B00D098470D4B8C
S315080061E0002B00D098470020002104000D000D4820
S315080061F0002802D00C4800E000BF9CF051F92000AE
S31508006200290001F031FD9BF0C1FF00BF0000080026
S31508006210000000000000000000000420F80900202B
S31508006220A01C0220000000000000000010F0CCBBFB
S31508006230006908B102F0B0BD704700230022C0E92A
S3150800624002330023C0E90023006920B109B102F036
S315080062509DBD02F09EBD704730B400220024002583
S315080062600161C0E9004530BC1146C0E90222FFF7CA
S31508006270E4BF000073B583680446FBB1C368EBB19D
S315080062800F4B684619680B68DB689847DDE90065B7
S31508006290206902F084FDD4E90232002808BF1346BB
S315080062A0D4E900125B1842F10002B34272EB05030F
S315080062B004D22046FFF7BCFFC4E9006502B070BDF2
S315080062C00C030020C0E90212FFF7D4BFC0E902118F
S315080062D0FFF7D0BF014608B5024858F07BFE15F017
S315080062E0E9FAFEE7E8380A0808B5FFF7F3FF000001
S315080062F010B50446E8B10FF0A7FA0F4A54F8043C63
S315080063001068034206D115F0D5FA0C490C489CF0E2
S3150800631043FCFEE754F8082C32B115F0CBFA0949CC
S3150800632007489CF039FCFEE723EA0004083C0FF016
S3150800633043FB204610BD00BF185A002018390A082A
S3150800634047390A0860390A08014B1868704700BFC0
S315080063501C5A0020014B1868704700BF205A0020BD
S3150800636008B515F0C7F9044B1A68044B1A60BDE85E
S31508006370084015F0CDB900BF1C5A0020205A00204D
S31508006380F8B504460FF060FA184B1B6843B30025AE
S315080063904FF0FF372E46164A11685A681B68954211
S315080063A038BF1546974228BF1746994206F1010697
S315080063B0F3D10FF001FBC4E90157E66015F09AF92D
S315080063C00C4B1B6823600C4B1B6863610B4B1B68EB
S315080063D0A3610B4B1B682361BDE8F84015F098B91B
S315080063E04FF0FF371D461E46E3E700BF2C5A002034
S315080063F0140A00201C5A0020245A0020285A00207B
S31508006400205A002010B5144B04461B6888B013B9EF
S3150800641001A8FFF7B5FF104B1A461B68A342FBD32A
S31508006420506811188C4201BF6168144609185160FA
S3150800643061686018834208D108480068834204D01E
S315080064405B680B44636013681B689442236018BF3B
S31508006450146008B010BD00BF2C5A0020140A002092
S31508006460F8B504460FF0F0F93C493D4D0B68CBB939
S3150800647000203C4B3C4A5E071CBF073323F007034A
S3150800648013605060394A22F00702C2E90000D01AA8
S31508006490C3E90020364B0A601860364B18604FF087
S315080064A000432B602B681C4206D00FF085FA0026A5
S315080064B059F076F93046F8BD631E0A33F5D86007F9
S315080064C004F1080305D023F0070208329A42ECD9F2
S315080064D01346284F3A689A42E7D3234A14686068F5
S315080064E0984201D22068A0B90968A142DDD0216886
S315080064F01668116062680836D21A102A10D9E01890
S31508006500410709D015F0D6F91B491C489CF044FBF5
S31508006510FEE722460446E2E742606360FFF772FF41
S31508006520134962683B6808689B1A834238BF0B6048
S315080065303B602B68134363600023114A236013688A
S31508006540013313600FF038FA7307B3D015F0B2F9B8
S315080065500C490A489CF020FBFEE700BF140A0020FD
S31508006560185A0020180A00202C5A0020105A002019
S31508006570205A00201C5A002080390A0847390A0880
S31508006580245A0020BB390A0813B501FB00F219B1D9
S31508006590B2FBF1F181420CD110460192FFF760FF80
S315080065A0044618B10021019A9BF0FEFF204602B06E
S315080065B010BD0024FAE7000010B5044670B3184A67
S315080065C050F8043C1268134206D115F073F91549C0
S315080065D015489CF0E1FAFEE750F8081C31B115F0B1
S315080065E069F9124910489CF0D7FAFEE723EA020334
S315080065F040F8043C0FF028F90D4A54F8043C116899
S31508006600A4F108000B441360FFF7FCFE094A13685F
S3150800661001331360BDE810400FF0CEB910BD00BFBE
S31508006620185A002018390A0847390A0860390A082A
S315080066301C5A0020285A0020F8B506460C46FFF7D3
S3150800664057FE0746C8B19CB1A0421CD0214601207E
S31508006650FFF79AFF054648B1A7423A46314628BF92
S3150800666022469BF07AFF3046FFF7A6FF2846F8BD7C
S315080066703046FFF7A1FF2546F8E72146BDE8F84072
S315080066800120FFF781BF3546F0E7FFF7E9BEFFF7C0
S3150800669093BF0846FFF7E4BE0846FFF78DBF0846D6
S315080066A01146FFF7C9BF08B505F0ECF90CF0F4FD83
S315080066B058F084FC26F03CF9BDE8084024F046BEB4
S315080066C0002213B50368ADF806209C680DF1060391
S315080066D0A047192816BFB0FA80F00120400902B079
S315080066E010BD052B8CBF2F200020704770477047C0
S315080066F0704770477047000001485BF055B800BF07
S31508006700D4A2012001485BF054B800BFD4A20120EE
S3150800671001F016BC10B5044638219AF027FE20462B
S3150800672010BD10B5044604219AF020FE204610BD7F
S3150800673010B5044608219AF019FE204610BD00003F
S315080067400D4A08B50260D0F8F4210AB19BF008FD9D
S31508006750D0F84821002AF9D1D0F80421002AF5D129
S31508006760D0F89820002AF1D1426D002AEED10369AB
S31508006770002BEBD108BD00BF18D10A0838B5094B64
S3150800678004460360436853B1437C43B9C56835B1D1
S315080067902B6828461B689847284657F093F82046E2
S315080067A038BD00BFC0A10A08406808B158F0AABBA6
S315080067B00320704713B5406810B9032002B010BD16
S315080067C000248DF8074022B90BB12F20F6E70DF10A
S315080067D0070258F06BFBF1E730B540681C4685B0F8
S315080067E010B9032005B030BD00251B888DF80B5065
S315080067F022B90BB12F20F5E70DF10B020395019590
S3150800680003AD009558F036FB192801D00028E9D1C8
S31508006810039BB3F5803F28BF00232380E2E70000EF
S3150800682048F2010210B50388934212D190F9083054
S31508006830012B15D10B4858F0CDFB34F0B1F803689D
S3150800684040F6B8315C69084AA446BDE81040002302
S31508006850604748F20202934202D190F90930E7E70D
S3150800686010BD00BFF9390A081167000810B50446BB
S31508006870FFF766FF20464FF41A719AF077FD204617
S3150800688010BD10B50446FFF779FF204614219AF08B
S315080068906DFD204610BD0000254B37B51425036055
S315080068A000230446234AC360C0E9012300F12C01F2
S315080068B000F1280202230095103032F029FB04F17A
S315080068C06C0204F170010223009504F1540032F0C1
S315080068D01FFB282304F1B002009304F1B40102233C
S315080068E004F1980032F014FB04F58E7204F59071E9
S315080068F00223009504F5827032F00AFB482304F55A
S31508006900B072009304F5B271022304F5A47032F054
S31508006910FFFA2C2304F50372009304F5047102238D
S3150800692004F5FA7032F0F4FA204603B030BD00BF21
S3150800693018D10A080300020008B5094858F04AFBAE
S3150800694008485BF0C4FD50B9012106485BF0DBF846
S3150800695028B9054858F03EFB04485AF003FF08BD1D
S31508006960213A0A08309201203F3A0A08D4A20120A7
S3150800697058F00AB9002310B504464360006808B108
S3150800698056F0A0FF204610BD38B5002504464560E0
S31508006990006810B156F096FF256038BDF8B5054673
S315080069A0154B044645F8143B436800F11C0700F1F3
S315080069B00C06B3B12846FFF7E7FF3846FFF7E4FFB2
S315080069C0E36803B9237294F82430304623F00503AC
S315080069D084F82430FFF7D8FF0023237284F8243084
S315080069E063603846FFF7C6FF2846FFF7C3FF304601
S315080069F0FFF7C0FF2046F8BDC0D30A0810B5044605
S31508006A00FFF7CCFF204628219AF0B0FC204610BD9F
S31508006A10F8B504466E4DD5E88F3FDF070BD42846F8
S31508006A209AF0A6FC38B128469AF0AEFC694A6A493B
S31508006A306A489AF096FC6A4DD5E88F3FDE070BD474
S31508006A4028469AF095FC38B128469AF09DFC614A8A
S31508006A50644965489AF085FC644FD7E88F5F15F05E
S31508006A60010518D138469AF083FCA0B1604E614BF7
S31508006A703846C6E90035C6E90355C6E90555C6E9E7
S31508006A800755357286F824509AF07EFC3046514AEE
S31508006A9059499AF066FC594DD5E88F3FD8070ED468
S31508006AA028469AF065FC50B15548FFF7F5FE28468A
S31508006AB09AF06AFC474A534951489AF052FC524D9B
S31508006AC0D5E88F3FD9070ED428469AF051FC50B125
S31508006AD04E4E4F4B284633609AF056FC30463D4A98
S31508006AE04C499AF03EFC4C4DD5E88F3FDA070ED458
S31508006AF028469AF03DFC50B1484E494B284633602B
S31508006B009AF042FC3046334A46499AF02AFC464DEA
S31508006B10D5E88F3FDB070BD428469AF029FC38B115
S31508006B2028469AF031FC2B4A404941489AF019FC0C
S31508006B3023691BB9294B3F4A23615A60236B43B922
S31508006B40294B5A6852B921691A725960DA601A8251
S31508006B502363636BFBB9264D6B680BB10320F8BD45
S31508006B6005F114002669FFF70FFF05F11C00FFF772
S31508006B700BFFEB6803B92B7295F824302E4823F0E7
S31508006B80050385F82430FFF7FFFE00236E602B729D
S31508006B9085F8243065631A4E2169304660F032FF65
S31508006BA0304660F0C8F8054608B12846D7E7226996
S31508006BB0E6610AB92F20D2E7184B63615A6037F0AD
S31508006BC09BF81B4B20626362104BA361EDE700BF85
S31508006BD0E85C002000000020F16600081C00002088
S31508006BE0E45C00207D67000808000020B85C0020EF
S31508006BF0BC5C0020C0D30A089D6900084C5A0020D6
S31508006C00505A002041670008445A0020485A00207C
S31508006C10F43A0A08EF660008385A00203C5A002061
S31508006C20D0DA0A08F3660008345A0020F566000828
S31508006C3004000020E34B0120C85C002030B5044660
S31508006C4085B03449344809F0DDFA344858F0C2F9B9
S31508006C502146334858F0BEF9304858F0BBF9314858
S31508006C6058F0B8F90021084632F0E0F800284ED16D
S31508006C702D4D2B7843B9284658F008FD00280CBF3F
S31508006C80012300232B7042D1214628485AF09AFB4B
S31508006C90FFF752FE00283AD1254858F0F9FB254C53
S31508006CA0D4E88F3FDB070BD420469AF061FB38B156
S31508006CB020469AF069FB204A204921489AF051FB60
S31508006CC0204D1F4C28465AF02DFA256300252046EC
S31508006CD0FFF79EFE1C4B1D4801931D4B039502931F
S31508006CE05AF09AFD01AB214603901A48A36266F052
S31508006CF031F90F4858F0DAFB2A4617490C4858F07C
S31508006D001BFB164858F066F9094858F071FC05B09F
S31508006D1030BD00BF818E03087D8E0308583A0A08E5
S31508006D208B3A0A08973A0A08E84B0120289201206C
S31508006D30F04B0120EC5C002000000020ED66000806
S31508006D4024000020F05C0020F9660008309201203B
S31508006D500567000888C5012021680008A73A0A08BF
S31508006D6010B5044608219AF001FB204610BD10B55F
S31508006D70044604219AF0FAFA204610BD0648074B45
S31508006D80074A036000230749C0E90133C360037457
S31508006D90436103839AF0E5BAF05C002094C50A08BB
S31508006DA000000020DD10060870477047084611B13C
S31508006DB00B685B6818477047084611B10B685B6833
S31508006DC0184770471FB500F0D7FD102203680192D7
S31508006DD000229B69ADF8082001A9984705B05DF81F
S31508006DE004FB00008FB5044623485AF085FD0026AB
S31508006DF080F00100214FDFF88080DFF88490C5B26B
S31508006E00236820461B6B9847384658F046FB88B1DE
S31508006E1040465AF071FD207440465AF01EFD6074D3
S31508006E2048465AF0D5FA003818BF0120A0743846EB
S31508006E3058F03CFB237CAB4209D00D222368204640
S31508006E405B6B0192002201A9ADF808209847A37C44
S31508006E50B34209D00F22236820465B6B01920022B9
S31508006E6001A9ADF808209847236820469B6B9847E8
S31508006E70257CA67CC4E700BF30920120F04B012098
S31508006E802892012030B5017D04460B2908BF817D73
S31508006E9085B0022905D90231C9B2012919D905B027
S31508006EA030BD00F069FD112203680192002201A994
S31508006EB0ADF808209B69984733F072FD036841F2E4
S31508006EC088315D692346AC46074A05B0BDE83040BF
S31508006ED0604733F065FD2246036803499B6905B0A0
S31508006EE0BDE83040184700BFC56D000813B5044615
S31508006EF001228388A17800888DF80420ADF8063031
S31508006F0049B101A923F084FA4CB1204602B0BDE884
S31508006F10104056F0D7BC01A923F04BFAF4E702B0AB
S31508006F2010BD10B5044683780279002B14BF3021B2
S31508006F300C21008822F0E2FF24B12046BDE810406B
S31508006F4056F0C0BC10BD0022C368027503B11847CD
S31508006F5070471FB54368002B0CBF0524072400F0B3
S31508006F600BFD0022036801A99B690194ADF808206E
S31508006F70984704B010BD1FB5044600F0FDFC6268D2
S31508006F800368002A0CBF06220822019200229B6988
S31508006F90ADF8082001A9984704B010BD90F83C3018
S31508006FA000EB03101C307047838B8B4207D0838D10
S31508006FB08B4206D1012300EB03101C3070470023D7
S31508006FC0F9E70020704700007FB501800C460546AA
S31508006FD000F0D2FC036800954FF4FA729E6A1D49C8
S31508006FE01D4BB047686000F0C7FC036800954FF476
S31508006FF0FA729E6A19491A4BB0470021A8602046C2
S3150800700017F0CDFB7721204617F0E9FB0121204632
S3150800701017F005FC0B21204617F021FC0821204615
S3150800702022F0F8FE204622F005FF40F062008DF8B7
S31508007030080002A9204622F0FAFE20460A2122F07C
S31508007040A7FF0823204603A98DF80C3022F0AFFFCE
S3150800705004B070BD143B0A08BD7300081F3B0A083C
S315080070602D76000837B5044656F0A0FB0368D3F81A
S3150800707084309847236800949D6A40F6B8322046C3
S315080070800F4B1049A84723686060002120461B6AF9
S315080070900D4A98472368A0601B6A0C4A01212046BE
S315080070A098470121E06004F11C00FFF78DFF04F109
S315080070B02C000221FFF788FF002003B030BD00BF77
S315080070C0E57100082A3B0A083A3B0A083D3B0A08CC
S315080070D010B5044600F050FC03686168DB6A9847FF
S315080070E000F04AFC0368A168DB6ABDE8104018474F
S315080070F010B5044603684168DB6A9847236820464A
S31508007100A1685B6A984723682046E1685B6A9847E6
S3150800711004F11C00FFF7DCFF04F12C00BDE8104069
S31508007120FFF7D6BF38B504460D4858F0B1F92088A0
S3150800713022F072FE05460A4858F0B8F9082D8CBFA9
S315080071400825084B064898BF5D5D58F0A1F9294601
S31508007150208822F05FFE024858F0A8F9284638BD74
S31508007160F04B0120423B0A0830B5437D0446827D38
S3150800717085B023B30123056892B10376C37590F8E9
S315080071803C300922B3FA83F35B0980F83C30AB69DB
S315080071900192002201A9ADF80820984705B030BD34
S315080071A0417EC375AC6929B10193ADF8082001A9E0
S315080071B0A047F3E70323ADF808100193F7E7002A81
S315080071C0ECD00123037690F83C0004EB00101C3049
S315080071D0FFF7A8FF237D1BB1A0F1080253425341D4
S315080071E02375DBE7006908B1FFF7BEBF704708B52E
S315080071F0062056F041FB18B1002303808370838074
S3150800720008BD000070B5144606460D46FFF7EFFFA9
S31508007210024648B133888580038084700349044850
S31508007220BDE8704058F062B970BD00BFED6E000849
S31508007230F04B012073B50023044611480D468DF81E
S31508007240043058F025F9208801A917F059FA06469E
S315080072500B4858F02BF986B99DF804306BB1BDF888
S3150800726006104FF47A72284622F06FFF0146012273
S315080072702046FFF7C7FF02B070BD41F28831F6E736
S31508007280F04B012073B50023044611480D468DF8CE
S31508007290043058F0FDF8208801A917F0F3F90646DE
S315080072A00B4858F003F986B99DF804306BB1BDF860
S315080072B006104FF47A72284622F047FF014600224C
S315080072C02046FFF79FFF02B070BD41F28831F6E70E
S315080072D0F04B01200AB1FFF7ADBFFFF7D3BF00009F
S315080072E070B5144606460D46FFF781FF024648B1BB
S315080072F0338805710380847003490448BDE87040EB
S3150800730058F0F4B870BD00BF236F0008F04B012099
S315080073107FB50023044628488DF800308DF80430E0
S315080073200E4658F0B5F801A9208817F020F96946E5
S31508007330208817F0A7F99DF804308DF808301BB19E
S31508007340BDF80630ADF80A309DF800308DF80C30DF
S315080073501BB1BDF80230ADF80E3003A902A823F020
S3150800736012F80546144858F0A1F8B6B160680368E3
S31508007370DB689847257329462046FFF783FF0022D6
S315080073802046217BFFF7ACFF237B23B1606810B151
S3150800739003689B68984704B070BD237BAB42EAD06C
S315080073A09DF804302BB132462046BDF80610FFF78B
S315080073B029FF00232373E2E7F04B0120006910B18F
S315080073C00021FFF7A5BF70477FB50023044628486C
S315080073D08DF800308DF804300E4658F059F801A99A
S315080073E0208817F002F96946208817F089F99DF870
S315080073F004308DF808301BB1BDF80630ADF80A30F8
S315080074009DF800308DF80C301BB1BDF80230ADF890
S315080074100E3003A902A822F0B6FF0546144858F014
S3150800742045F8B6B1A0680368DB68984765732946CE
S315080074302046FFF7FFFE01222046617BFFF750FF3B
S31508007440637B23B1A06810B103689B68984704B0B2
S3150800745070BD637BAB42EAD09DF804302BB10122A4
S315080074602046BDF80610FFF7CDFE00236373E2E75A
S31508007470F04B01201FB5FFF797FD00230C468DF84A
S3150800748004308DF808308DF80C3068B10C2A09D80C
S31508007490062A09D9073A052A06D8DFE802F02E0592
S315080074A0050F070B172A18D004B010BD0121FFF7E6
S315080074B02FFFF9E70121FFF787FFF5E7154857F092
S315080074C0E7FF204622F0ECFC8DF80C0003A822F01A
S315080074D0E6FC104857F0EAFFE6E70E4857F0D8FFF3
S315080074E0204622F058FD8DF8040001A822F052FD2E
S315080074F0204601A922F05BFDEBE7064857F0C8FFD6
S31508007500204622F097FC8DF8080002A822F08EFC8F
S31508007510DFE700BFF04B01201FB50B680446013BAF
S315080075200B2B13D8DFE803F0141206101A1D535656
S315080075301212127801234376606838B103689B6893
S3150800754004B0BDE8104018470023437604B010BDC8
S31508007550354804B0BDE8104065F01CBC01234375EE
S31508007560EAE700234375406810B10368DB6898476B
S31508007570637E4BB10422236820469B690192002250
S3150800758001A9ADF808209847E37D13B10023E375F8
S31508007590DCE7A17D227D79B182F001022275012204
S315080075A00B212276E2752268204692690191ADF890
S315080075B0083001A99047C9E7012194F83C0004EB7B
S315080075C000101C3004B0BDE81040FFF783BE01234D
S315080075D08375B1E700238375406810B10368DB68DB
S315080075E09847637E4BB10422236820469B69019223
S315080075F0002201A9ADF808209847237E13B100237D
S315080076002376A3E7617D227D0029C5D194F83C0045
S31508007610022104EB0010D4E78A68898804B0BDE823
S315080076201040FFF727BF00BF88C50120006910B1C9
S315080076300021FFF7C9BE70471FB50023CDE9023305
S31508007640094B0A4C01930223012100932046084B5B
S31508007650084A1BF049F92046074A084904B0BDE81C
S31508007660104099F07EBE00BF856E00080C5D0020B4
S31508007670AB6D0008A96D0008000000201D2902084E
S31508007680704710B5044600F077F90368A2682188A8
S31508007690DB69BDE81040184770477047704700001F
S315080076A037B5044680690FF0E1F818B1236820461B
S315080076B0DB689847A5690EF0CFF864230246009365
S315080076C00121002328460EF06DFF012805D0054844
S315080076D057F080FCAC20FEF707FE0123237503B0A4
S315080076E030BD00BF4B3B0A0808B50FF0D9F818B1F2
S315080076F0BDE80840FFF727BC08BD00000148FFF7B2
S3150800770071BB00BF285D002030B585B00546FFF780
S31508007710A9FC1A4B4FF480620293194B194901933D
S3150800772001231948009300230DF0BEFF286428B9E9
S31508007730164857F04FFC0B2005B030BD00240C212D
S315080077400A20134B134A00940DF0BEF9686408B971
S315080077501148EEE7FEF76AFD104905F14800FEF705
S315080077607BFD0F4905F16000FEF776FD22462146AE
S315080077700C4800F0F7FC2046DEE700BF106F00203B
S31508007780105F0020603B0A08FD760008643B0A0883
S31508007790C05E0020485E0020803B0A08BC570A08E5
S315080077A0D4570A08C86F002008B5034857F012FCDA
S315080077B004F075F9002008BDA33B0A0808B5FFF7D1
S315080077C097FC31F049FB044857F004FCBDE8084033
S315080077D0AC20FEF789BD00BFBF3B0A081FB50023D2
S315080077E004460A220193ADF80830606C01A90DF031
S315080077F0CDFB012806D1236820465B6B01A9984773
S315080078000022F2E704B010BD38B50C2014460D4628
S3150800781099F0BDFD024AC0E90154026038BD00BFB7
S31508007820A43C0A0810B504464830FEF723FD04F1C7
S315080078306000BDE81040FEF71DBD10B504460C21DA
S3150800784099F094FD204610BD10B504461C2199F008
S315080078508DFD204610BD10B504464FF4907199F081
S3150800786085FD204610BD00001FB5436C04460191F6
S31508007870F3B113F0E7FF01990346A0B10023606C4A
S3150800788003AA03930DF0C0FA039B2BB14FF0E02334
S315080078904FF08052C3F8042D50B9064804B0BDE82D
S315080078A0104057F097BB0122606C0DF0C1F9F3E761
S315080078B004B010BDDC3B0A081FB50C23ADF8081050
S315080078C0044801A901930392FFF7CEFF05B05DF8BE
S315080078D004FB00BF285D0020002307B5037500934D
S315080078E01A46032180690EF05DFE40B9054857F037
S315080078F071FBAC2003B05DF804EBFEF7F5BC03B0F2
S315080079005DF804FB093C0A0813B504460846114607
S31508007910C4E901020022E360049B22752361094B36
S31508007920A2612360084B009323460EF00BFEA0616C
S3150800793028B9064857F04EFBAC20FEF7D5FC204682
S3150800794002B010BDF83C0A08E97600081D3C0A0892
S3150800795030B51C2087B0CDE90421039399F017FDB3
S31508007960DDE9033204460A9D05990095FFF7CCFF29
S31508007970204607B030BD000000487047285D00204B
S3150800798037B5002504462946C0E90155C0E903551F
S315080079904561058320221C309AF006FE094B4FF4F8
S315080079A07A722360C4E91055074B084984F83C509D
S315080079B0009404F1FC00FFF7A7FF2046C4F818510D
S315080079C003B030BDB43C0A080D7B0008313C0A08F8
S315080079D07FB50446FFF7E2FA637E064604F16005C2
S315080079E004F14800A3B100210190FEF726FC019896
S315080079F04FF4FA71FEF76AFC28460021FEF71DFCD3
S31508007A004FF4FA71284604B0BDE87040FEF75EBC34
S31508007A10E37C13B1C822114606E0237C43B3637C9A
S31508007A2033B3322240F2B6310024FEF74BFC1B4832
S31508007A308DF8084057F02CFD02A9308816F022FE72
S31508007A40164857F033FD9DF8080050B142F21073FE
S31508007A50ADF80C40ADF80E300399BDF80A0022F0D7
S31508007A60D4FA317B61B164212846FEF72FFC0DE07C
S31508007A70A37C0BB16422CEE740F2B6323221D3E7BB
S31508007A80012805D101462846FEF7D7FB04B070BD8C
S31508007A900228F8D04FF47A71E6E700BFF04B0120D0
S31508007AA07FB5037C054653B3FFF778FA00230446EF
S31508007AB014488DF808308DF80C3057F0E9FC20880A
S31508007AC022F0AAF902A90646208816F04EFC03A958
S31508007AD0208816F088FC0B4857F0E8FC9DF80C3017
S31508007AE06BB19DF8083053B1D5F81831314600937B
S31508007AF0BDF80A20BDF80E30034800F085FC04B036
S31508007B0070BD00BFF04B0120C86F0020002302485B
S31508007B10C0F81831FFF7C4BF285D00200A2A0346BB
S31508007B2008D001D81AB170470E3A012A04D8184667
S31508007B30FFF7B6BFFFF74CBF7047000038B50D46D4
S31508007B400446FFF7E9FC2B68DA1E0E2A45D8DFE85B
S31508007B5002F00F19444444442B203A081D141425F6
S31508007B6025002046AA68A988BDE83840FFF7D6BF91
S31508007B7040F6B831194857F02DFA2046BDE8384086
S31508007B80FFF726BF164857F025FAF6E72046FFF70F
S31508007B901FFF2046BDE83840FFF782BFA3F1110258
S31508007BA053425341E374E8E704F1FC00FFF778FD1C
S31508007BB02046FFF7F3F90388012B0CBF01230223A4
S31508007BC0C4F81831E5E704F1FC00FFF769FD237DE9
S31508007BD0002B14BF04230323F2E738BD3C3C0A08F4
S31508007BE07B3C0A0810B50A4B0846D3E90224094B20
S31508007BF0994208BF144601F020F80128204603D10F
S31508007C00BDE81040FFF7A5B9BDE81040FFF7B3B9C6
S31508007C10285D00208C570A0801460148FFF7E2BF95
S31508007C20285D0020002210B5074B084C83F8412038
S31508007C30204683F84220FFF7A3FE2046BDE8104001
S31508007C40034A044999F08DBBC86F0020285D0020BF
S31508007C500000002099760008704710B504460821F0
S31508007C6099F084FB204610BD38B5FEF71CFD1F4869
S31508007C70FEF7E4FF10B1AC20FEF736FB1C4B1D489F
S31508007C80D3F8841132F01FFE1A4832F029FEFFF7A6
S31508007C9073FE0446184857F09DF9184857F0F8FB44
S31508007CA0236820469B689847054662F033FA5DF0DC
S31508007CB09DFA124857F0FAFB2DB1114857F08AF988
S31508007CC02846FEF711FB23682046DB6898470546D9
S31508007CD028B10C4857F07EF92846FEF705FB2368BD
S31508007CE020465B699847284638BD00BF083D0A0804
S31508007CF088F501205C000020163D0A08F04B01209B
S31508007D00233D0A08333D0A08024A0349034899F005
S31508007D1028BB00BF00000020597C00085C0000203A
S31508007D2070B50446D1E9042352EA03000DD0642550
S31508007D308868CE68A0FB050105FB06119AF080F855
S31508007D40012360702370204670BD00232370637082
S31508007D50F9E7D0E90201704770470023836070474E
S31508007D600023436070477047043870477047704770
S31508007D7010B50446102199F0F9FA204610BDA0F175
S31508007D800400F5E710B5044B04460360006B08B120
S31508007D9055F098FD204610BD20C40A0810B50446C3
S31508007DA001210C20054A31F083F9E06820B1BDE8CD
S31508007DB0104003689B68184710BD00BF443D0A0879
S31508007DC0A0F10400EAE700BF38B50B4CD4E88F3FB2
S31508007DD0DB070ED4204699F0CBFA50B1074D084B75
S31508007DE020462B6099F0D0FA2846064A064999F0AB
S31508007DF0B8FA024838BD00BF0C7000201070002089
S31508007E0060A50A0800000020597D000810B5044640
S31508007E100B4B03606433436000F51C7033F0FAFCC7
S31508007E20A36D23B1002204F13800A2659847A36A1E
S31508007E3023B1002204F10800A2629847204610BD2B
S31508007E40F88C0A08A0F10400E0E700BF10B5044664
S31508007E50006808B132F000FF204610BD10B5044690
S31508007E60034B40F8343BFFF7F1FF204610BD00BF37
S31508007E7044890A0837B5C0680D46144638B9012141
S31508007E800C200E4A31F014F9002003B030BD1A68F0
S31508007E902146019200221A6001AA1DF067FE01A878
S31508007EA0FFF7D4FFA38823B9E38813B92378402BB7
S31508007EB0EAD02B8943F040032B81E5E7573D0A08B2
S31508007EC0A0F10400D6E700BFF0B5876805460C4662
S31508007ED085B017B9032005B0F0BD0023ADF808300A
S31508007EE00B890E7B23B94B89022B1ED1142E02D087
S31508007EF00123ADF80830606832F028FE6368324620
S31508007F00039302AB0093A168384603AB31F086FBB6
S31508007F10044603A8FFF79AFF2CB1A86818B131F0F8
S31508007F2015FB0023AB602046D5E7002BE0D1402E99
S31508007F30DDE710B50446042199F018FA204610BD6D
S31508007F40F7B5104F104E38461EF078F90F49104D08
S31508007F5001F54053D3F884310E4A0F4C5360384626
S31508007F60334600951EF0CEFB0C4B2246394630466A
S31508007F7033611FF0DFFD0A4B256263636C6003B053
S31508007F80F0BD00BF307100206C00002088C50120BC
S31508007F901870002064000020F8700020805101004D
S31508007FA08A3D0A0810B50446FFF730FF20464FF40D
S31508007FB0227199F0DBF9204610BDA0F10400F1E723
S31508007FC010B50446082199F0D1F9204610BD10B520
S31508007FD004461C2199F0CAF9204610BD10B504467E
S31508007FE0FFF73CFF2046E02199F0C0F9204610BD76
S31508007FF010B50446FFF7C6FE2046382199F0B6F9B3
S31508008000204610BDF8B53C483C4B00240360643359
S31508008010436000F10803C0E90233394BC0E90A405E
S31508008020036300F13803C0E90E33364BC0E9164046
S315080080300366354BC0E91A44C3672033C0F880305D
S315080080400523C0E92E44C0E93044C0E972440467F8
S3150800805080F87440846780F8AC4080F8D041C0F856
S31508008060D44180F8D84180F8F04180F8084280F879
S315080080702042C0F85432254BC0E99D44C0F87032FE
S31508008080234A244980F83842C0F8504280F85842BA
S3150800809080F87C42204D99F064F91D4A1F49204812
S315080080A099F05FF91A4A1F491F4899F05AF9284664
S315080080B0002600271D4B6C6040F8103B2C7265F0BB
S315080080C081FC2846124A1A49C5E93444C5E93644AA
S315080080D099F047F91748184BC0E90267C0E90467E1
S315080080E0C0E90644C0E90C440360094A1349BDE8DF
S315080080F0F84099F036B900BF30710020F88C0A08AC
S3150800810039760208516402089C3D0A088CAB0A08B5
S31508008110000000200D7E0008187000206D7D000804
S31508008120640000206F7D00086C00002044890A085E
S315080081305D7E0008F870002020C40A08857D0008C6
S315080081400346074A30B500F12805144618685968E9
S31508008150083303C4AB422246F7D11868206030BD05
S31508008160B873002073B50546164681B108460191D5
S315080081709AF09CFE1428019905D91D4856F02AFF45
S315080081802F2002B070BD05F12C009AF087FE00F092
S315080081909AF9044620B10146164856F01BFFAC244E
S315080081A000200FF0B1FA014618B1134856F012FF35
S315080081B0AC2428460FF070FB014618B10F4856F05C
S315080081C009FFAC246FF07F4200232846C5E9012346
S315080081D00FF00EFB014618B1094856F0FBFEAC2419
S315080081E02846FFF7ADFF204685F84160C9E700BF7E
S315080081F0D43D0A08E63D0A08033E0A08163E0A0860
S31508008200323E0A0870470FF0F3BA084611461A4676
S315080082100FF06CBB0FF0A2BA70B5044680680D4625
S31508008220164630B103689B68984743B2002B02DBB9
S3150800823070BD4FF0FF33E06838B1036832469B687B
S315080082402946984743B2002BF2DA206938B1036809
S3150800825032469B682946984743B2002BE8DAD8B2DB
S31508008260E6E7000010B5C468013C032C1AD8437A27
S315080082708B4217D8007A1844884213D9934211D8EA
S3150800828090420FD9D21AC91A4FF00043064823FA6A
S3150800829001F150F8240050F82230194214BF012089
S315080082A0002010BDFF20FCE7483E0A0812F0010333
S315080082B006D083880433934294BF00200120704778
S315080082C01846704711F0010306D0838804338B42A1
S315080082D094BF0020012070471846704770477047C2
S315080082E0704770477047704710B504460C2199F0DF
S315080082F03DF8204610BD10B50446082199F036F819
S31508008300204610BD10B50446082199F02FF82046DE
S3150800831010BD10B50446102199F028F8204610BD66
S3150800832010B50446082199F021F8204610BD10B56D
S315080083300446142199F01AF8204610BD0B1F772B16
S3150800834005D8032A06D97B2A13D8FF2070474B1E67
S315080083507D2B10D84AB17E2A0DD80339792906D83B
S31508008360033A792A94BF0022012210467047012257
S31508008370FBE77E2AF4D90020704711F00101034675
S3150800838030B512D19C88057A0134101FB0FBF5F080
S31508008390B4FBF5F484420AD3D988043100FB0511ED
S315080083A08A428CBF0020012030BD0020FCE7084629
S315080083B0FAE70000052838B50D46144609D80328FB
S315080083C00AD9082098F0E3FF0C4B8580C480036027
S315080083D012E00638022806D9082098F0D8FF084B7C
S315080083E08580C480F3E70C2098F0D1FF054B858083
S315080083F003600A23C480037238BD00BFC4400A085C
S31508008400B0400A089C400A082DE9F0418CB01E4687
S31508008410ADF80A30244B17460193244B05460393BF
S31508008420129B0846069343F220033946ADF8082006
S31508008430ADF810203246ADF81260ADF81430FFF7EB
S31508008440B9FF1B4B0446079301AB099303ABCDE970
S315080084500A302846ADF82260ADF82070FFF7D2FE44
S3150800846080462846FFF7CFFE002600273A463146C3
S3150800847007A8FFF7D1FE28B13B46324641462846B3
S31508008480FFF7C3FE0137802FF0D10136802EECD1DD
S315080084902846FFF7BFFE1CB1236820465B6898474D
S315080084A00CB0BDE8F08100BF74400A0860400A08B5
S315080084B088400A0808B5002304221946012002F05C
S315080084C071FA002008BD08B50422012309210220FB
S315080084D002F068FA002008BD08B501213A2001F02B
S315080084E063F90EF009FABDE808400EF0BFBE012197
S315080084F03A2001F059B90000BFF34F8F0549064BE2
S31508008500CA6802F4E0621343CB60BFF34F8F00BF23
S31508008510FDE700BF00ED00E00400FA054FF0006338
S315080085209A6A02F17841B1F5C04F03D21168074A39
S31508008530914203D0002303708360704701220270C2
S315080085409A6A926842609B6A9B69F5E707B0CD5EB6
S3150800855008B54FF00053024A1A60FFF7CDFF00BF77
S3150800856002020FF030B54FF0006587B00191AB6A93
S31508008570044603F17843B3F5C04F10D201238DF8B2
S315080085800C30002303A8CDE90433FFF7C7FF059B8A
S315080085905B0504D5AB6A20461B6C0199984707B062
S315080085A030BD000073B54D4B04461A781AB1022245
S315080085B01A7002B070BDCDE900220028F9D0012654
S315080085C01E7002F036F8464D464B186094F0A8F82F
S315080085D02B785BB900F076FD40B943480823434A37
S315080085E04349006898F00CFA00B92E70414B5A6E50
S315080085F022619B6E404A63614FF4804393663F4B0A
S315080086005968A1613E499960196E2160596E616089
S31508008610196CA160596CE1603A49086C1864496C98
S315080086205964012151661B6E9C043FD5364AD368AE
S31508008630D807FCD4354B1A68531C3CD04FF480132A
S315080086409340334A13660423314C23664FF4007370
S31508008650236600F02DFA01300BD000F029FA40F21B
S31508008660011398421FBF4FF4005323664FF480430B
S3150800867023660823264C684623664FF480532366F0
S315080086804FF0006323664FF4002301A96366FFF7E2
S3150800869069FF009B2366019B63662B78002B88D0B5
S315080086A0124B1A6822665B68636682E7194AD368C2
S315080086B0D907FCD4BEE7184B1B78002BC3D14FF45F
S315080086C000720D4B5A6603F5A6235B68002BBAD1D8
S315080086D04FF480120E4B1A66B5E700BF0A740020E5
S315080086E0087400200C740020DC00002000740020B0
S315080086F0007108000080005000900050008000447F
S3150800870055CEAC0000C0005400000440D80000203C
S3150800871000900044000004500974002070B5204DF4
S3150800872004462E78012E02D001232B7070BD002836
S31508008730FCD000F0BDF901300BD000F0B9F940F2D9
S315080087400113984205D0174B174A5E66D368DE07B1
S31508008750FCD42268154B1A6662685A66A2681A64BF
S31508008760E2685A64A269D00744BF00229A60104B97
S315080087701A68013207D10F4A127822B90E49496898
S31508008780C90748BF1A6022690C4B5A6662699A661D
S3150800879093F0E2FF0A4B186801F051FF0023C4E783
S315080087A00A74002000900040000004400080004445
S315080087B0D80000200974002000C005500080005031
S315080087C00C74002070B54FF00064A36A03F1784377
S315080087D0B3F5C04F1DD2114E337813F0FD0F1BD1E0
S315080087E00F48FFF7DFFE01254FF480330D4A0E4987
S315080087F0C2F88051CB6015600C4A1361A36ADB6925
S31508008800984704460648FFF789FF04B9357020469D
S3150800881070BD4FF48174FAE70024F8E70974002064
S31508008820E473002000E100E000A00044009000444A
S3150800883013B51F4B1B7803B9FEE700231D4CCDE982
S3150800884000336A4608231C49206898F0D9F8F0B91D
S315080088501A4AD2F84031D2F840211F2B4FF00103B3
S3150800886010D9203A9340019A1343019308236A4684
S315080088701149206898F07AF84FF00053104A1A60A8
S31508008880FFF73AFE9340009A13430093EEE70D4B29
S315080088909842F1D1094AD2F84031D2F840211F2B2B
S315080088A04FF0010302D9203A9340DEE79340ECE704
S315080088B00A740020DC0000200071080000800044D3
S315080088C00B020FF00BE000F038B54FF00065AB6A0D
S315080088D0044603F17842B2F5C04F12D21B6B03F17E
S315080088E07843B3F5C04F0CD20648FFF75BFEAB6A78
S315080088F020461B6B5B689847BDE838400148FFF780
S315080089000DBF38BD107400204FF000639B6A03F159
S315080089107842B2F5C04F07D21B6B03F17842B2F525
S31508008920C04F01D29B6818474FF48170704700000A
S3150800893013B54FF000640190A36A03F17842B2F5CB
S31508008940C04F15D21B6B03F17843B3F5C04F0FD256
S315080089500948FFF727FEA36A01211B6B01A89B693B
S31508008960984704460448FFF7D9FE204602B010BDD2
S315080089704FF48174F9E700BF1074002037B54FF043
S315080089800065CDE90021AB6A044603F17840B0F5ED
S31508008990C04F12D21B6B83B10948FFF703FEDDE90E
S315080089A00021AB6A20461B6B5B6A9847044604485D
S315080089B0FFF7B4FE204603B030BD4FF40174F9E763
S315080089C01074002037B54FF000650191AB6A044674
S315080089D003F17842B2F5C04F15D21B6B03F1784309
S315080089E0B3F5C04F0FD20948FFF7DCFDAB6A204646
S315080089F01B6B01999B6A984704460448FFF78EFE4D
S31508008A00204603B030BD4FF40174F9E71074002016
S31508008A104FF0006370B59B6A0D4603F17843B3F5D2
S31508008A20C04FADF50E7D17D24FF40E726946FFF7AB
S31508008A30A5FF044660B940F2012629466846FFF7B5
S31508008A40C1FFB042F9D040F20323984218BF04464A
S31508008A5020460DF50E7D70BD4FF40174F8E7000051
S31508008A6037B54FF00065CDE90021AB6A044603F13E
S31508008A707840B0F5C04F16D21B6B03F17843B3F5B7
S31508008A80C04F10D20948FFF78DFDDDE90021AB6A1A
S31508008A9020461B6B9B6B984704460448FFF73EFE2F
S31508008AA0204603B030BD40F20114F9E710740020E7
S31508008AB01FB54FF000639B6A03F17842B2F5C04FC9
S31508008AC004D340F2011005B05DF804FB1B6B03F1FB
S31508008AD07843B3F5C04FF4D201238DF80430002350
S31508008AE001A8CDE90233FFF719FD039BDB03E8D59F
S31508008AF0029B1A0EE5D0012A03D1C3F307430A2BBA
S31508008B00DFD94FF000639B6A1B6B1B6C9847DAE74B
S31508008B1037B54FF000650191AB6A044603F1784218
S31508008B20B2F5C04F15D21B6B03F17843B3F5C04FAE
S31508008B300FD20948FFF736FDAB6A20461B6B019931
S31508008B40DB6B984704460448FFF7E8FD204603B068
S31508008B5030BD40F20114F9E7107400202DE9F04306
S31508008B6099464FF000639B6A174603F17842B2F5BF
S31508008B70C04F05460E4691B04DD21B6B03F17843A4
S31508008B80B3F5C04F47D203A8FFF79EFE079BDC68E4
S31508008B90A3B2002B42D0284601A9FFF7B5FE00BBB9
S31508008BA0029B06EB09059D423BD8A1B2B6FBF1F440
S31508008BB001FB1463DDF80480D3B1B5FBF1F201FBC8
S31508008BC012524C4204EA060001EB080C62B12C4032
S31508008BD0211A6044D1B94A46394608EB0600FFF720
S31508008BE03FFF11B0BDE8F083A9EB0104E118F0E7F7
S31508008BF0B9FBF1F301FB139308EB060023B14C42D2
S31508008C0004EA09042144E5E74946E3E7FFF780FF5C
S31508008C100028E0D0E5E74FF48170E2E740F2014032
S31508008C20DFE740F20240DCE703680B60016070474B
S31508008C30436803B1184722207047436903B11847B0
S31508008C40FF20704710B40A681378022B11D014203D
S31508008C503023147913FB040307481B585079C34083
S31508008C60DB4303F00103137008465DF8044BFEF777
S31508008C70D3BF5DF8044B704730C0035037B504685E
S31508008C80012105463A2000F08FFD00230122617973
S31508008C90207901F087FE14223023217913FB012362
S31508008CA00E4A9B586279D340DB4303F001032370D5
S31508008CB0A379022B0ED100F08BF92A460849607970
S31508008CC000F0B0F90123024661792079CDE9003335
S31508008CD001F010FE002003B030BD00BF30C00350C5
S31508008CE0458C0008036818787047000002681378F6
S31508008CF0022B24D014213023107913FB00131049BA
S31508008D005B585179CB40917903F00103012912D1BF
S31508008D10508843EA40034FF6E07063F03F039BB286
S31508008D20834202D11170538070474FF6DF718B4230
S31508008D30F9D10021F6E711B983F0010313707047E2
S31508008D4030C0035003681A78022A03D100225A80D9
S31508008D50FFF794BF704713B504682378022B10D029
S31508008D60A379022B0BD10021607900F049F9002381
S31508008D70627920791146CDE9003301F0BBFD022363
S31508008D80237002B010BDD0E9000318478368006855
S31508008D901847C36800681847036900681847436995
S31508008DA00068184710B5044601213A2000F0FCFC7B
S31508008DB0A3782078B3FA83F3042261785B0901F07B
S31508008DC0F1FD002010BD000010B50122437801789E
S31508008DD0847830209A40054B00FB01331CB903F513
S31508008DE001531A6010BD03F58253FAE700C0035019
S31508008DF010B5012243780178847830209A40054BD3
S31508008E0000FB01331CB903F582531A6010BD03F544
S31508008E100153FAE700C003500122437801789A40CB
S31508008E2030235943014B5A50704700BF40F0035056
S31508008E30102130230246007813FB001305495078A9
S31508008E405B58C34003F0010093780BB980F001002A
S31508008E50704700BF30C0035038B5124B05461B7823
S31508008E60DBB1E0B101F0E5FB0F4A00231146147BA4
S31508008E7054B92B6001251A0101EB03131D738C509D
S31508008E8001F0DDFB204638BD0133082B02F1100244
S31508008E90EDD101F0D4FB0548F5E70548F3E70548A9
S31508008EA0F1E700BFAC7500202C740020048000F0A8
S31508008EB0028000F0018000F0164B13B518680023F5
S31508008EC001908DF8043001F0B4FB134B1C7824B1E3
S31508008ED001F0B5FB114802B010BD01221A7001F06D
S31508008EE0AEFB0F4B1C731C7783F82C4083F83C4071
S31508008EF083F84C4083F85C4083F86C4083F87C40E8
S31508008F0004230DEB03008DF8073001F08BFD204696
S31508008F10E1E700BFD0400A08AC750020038000F0E6
S31508008F202C7400202DE9F843174B1F6D5B6D1F400D
S31508008F3000D5FEE701260025144CDFF85480DFF83B
S31508008F405490374217D0C8F8506023689BB1A1687F
S31508008F50284601316268A1609847637B012B0AD1D4
S31508008F6048B909EB45131A7B60F341021A731A7F55
S31508008F7060F341021A770135082D4FEA460604F1D7
S31508008F801004DED1BDE8F883000004502C740020DC
S31508008F9000200450AC74002070B5044601250B4E21
S31508008FA004B970BD94FAA4F0B0FA80F005FA00F39B
S31508008FB006EB001224EA03045368002BF0D0117B59
S31508008FC011B191689847EBE79847E9E7B075002033
S31508008FD008B5192001F036FB28B14FF00072074B8F
S31508008FE0C3F880211A601A2001F02CFB28B14FF033
S31508008FF08062024BC3F880211A6008BD00E100E0D8
S3150800900038B505460C4601F014FB0022044B03EB69
S3150800901005135C601A73BDE8384001F010BB00BF49
S31508009020B0750020F8B505460F46164601F001FB57
S31508009030104B05F0FC02D3F824140023EC1804F0B6
S315080090400304144321FA04FC1CF0010F07D0013372
S31508009050042BF3D1FF2401F0F2FA2046F8BDFF2CC9
S31508009060F9D00122044B03EB0413C3E901761A7302
S31508009070F1E700BF00C00350B0750020074BD3F8D6
S315080090802404D3F8202403F50053104000F055308B
S3150800909020F05020C3F82004FFF77EBF00C003501D
S315080090A0074BD3F82404D3F8202403F500531040C3
S315080090B000F0AA3020F0A020C3F82004FFF76CBF08
S315080090C000C00350024B1968024B186897F07EBB24
S315080090D0E0000020DC0000207047000037B5920051
S315080090E004460D4601929AF0F7FB431C0BD060B973
S315080090F029462046019A99F020FA0028044808BF14
S31508009100002003B030BD0348FBE70348F9E700BF7A
S3150800911010E000F021E000F024E000F013B504466A
S3150800912001A801F085FD9DF80630012223804FF441
S31508009130807300206380054B9B680A3303F01F0386
S3150800914002FA03F3636002B010BD00BF0080E00FAF
S3150800915001F0AABC08B501F097FC002008BD10B5BF
S31508009160044644EA010313F00303084609D193426F
S3150800917001D1002010BD54F8231040F82310013304
S31508009180F5E72146920099F0E8F9F2E710B50446AA
S315080091909AF09AFB431C15D0B0B90C4B20469B6835
S315080091A00A3303F01F020123934023F003032344E9
S315080091B0984201D1002010BD50F8042B0132F7D097
S315080091C00348F8E70348F6E70348F4E70080E00FAA
S315080091D00EE000F021E000F024E000F008B501F010
S315080091E021FA014B186008BD207B0020014B186846
S315080091F001F01CBA207B002070470000044BD3F80E
S315080092008420D206FBD4D3F88400C0F381107047BB
S31508009210004000502E4B98424AD022D82D4B9842F7
S3150800922040D014D82C4B984239D00AD82B4B9842A8
S3150800923032D02B4B98422FD02A4B98422CD0002064
S315080092407047294B9842FAD1284B186F7047284B1C
S3150800925098422AD0274B9842F1D1244BD3F8800064
S315080092607047254B98422BD009D8244B984223D0D7
S31508009270234B9842E3D11D4BD3F88C007047214B02
S31508009280984221D003F5740303F510539842D6D1BA
S31508009290164BD3F898007047144B986D7047134BCC
S315080092A0586E7047114B586F7047104B986F704740
S315080092B00E4BD3F8840070470C4BD3F888007047E0
S315080092C00A4BD3F890007047084BD3F894007047C0
S315080092D00048E8010024F400C0CF6A0080841E001C
S315080092E000093D0040420F00405DC6000080E00FC7
S315080092F0C0EA210180BA8C01007E560380D543025C
S31508009300006CDC020090D00338B5174B0546D3F83D
S3150800931020310C4603F00703013B052B20D8DFE874
S3150800932003F0030B130F171B0EF086FB052305B17D
S31508009330286004B1236038BD0EF0BAFB0323F6E7B4
S315080093400EF0D2FB0723F2E70EF0CAFB0223EEE784
S315080093500EF072FB0623EAE70EF0AAFB0423E6E703
S3150800936000231846E3E700BF0080005038B5174BC6
S315080093700546D3F828310C4603F00703013B052BB5
S3150800938020D8DFE803F003131B0F0B170EF054FB6E
S31508009390052305B1286004B1236038BD0EF04CFBE7
S315080093A00623F6E70EF0A0FB0723F2E70EF080FB94
S315080093B00323EEE70EF07CFB0423EAE70EF090FBAE
S315080093C00223E6E700231846E3E700BF00800050C3
S315080093D073B50D460021114B0191D3F8804106461D
S315080093E004F00304022C13D0032C0CD0012C13D147
S315080093F001A8FFF789FF10240EB1019B336005B160
S315080094002C6002B070BD0EF06FFB07240190F3E7E5
S315080094100EF066FB0190EFE70C46EDE70080005082
S31508009420002337B50193154B0546D3F820320C4671
S3150800943003F00703013B032B1ED8DFE803F0020EF7
S315080094401318002101A8FFF791FF12230DB1019A05
S315080094502A6004B1236003B030BD0EF045FB072334
S315080094600190F3E70EF082FB0A230190EEE70EF077
S3150800947083FB09230190E9E70023E7E70080005012
S3150800948038B5104B0546D3F840310C4603F00303B4
S31508009490022B0BD0032B0DD0012B0FD10EF066FB40
S315080094A00A2305B1286004B1236038BD0EF064FBB9
S315080094B00923F6E70EF05DFB0C23F2E700231846B6
S315080094C0EFE700BF00800050002337B50193164B25
S315080094D00546D3F860320C4603F00703013B032B1D
S315080094E01FD8DFE803F0020E1914002101A8FFF7C0
S315080094F00BFF10230DB1019A2A6004B1236003B053
S3150800950030BD002101A8FFF7BBFF1123F2E70EF0DB
S31508009510EBFA07230190EDE70EF0E2FA0223019039
S31508009520E8E70023E6E700BF00800050002337B5D0
S315080095300193164B0546D3F894320C4603F00703FD
S31508009540013B032B1FD8DFE803F0020E1914002194
S3150800955001A8FFF7D9FE10230DB1019A2A6004B1BC
S31508009560236003B030BD002101A8FFF789FF11234E
S31508009570F2E70EF0B9FA07230190EDE70EF0B0FA1C
S3150800958002230190E8E70023E6E700BF00800050C9
S3150800959038B5134B0546D3F800320C4603F00703DB
S315080095A0013B032B18D8DFE803F0020A0E120EF06F
S315080095B0DDFA0A2305B1286004B1236038BD0EF030
S315080095C0DBFA0923F6E70EF0D4FA0C23F2E70EF0DD
S315080095D059FA0F23800AEDE700231846EAE700BF89
S315080095E00080005038B5134B0546D3F808320C46B0
S315080095F003F00703013B032B18D8DFE803F0020A40
S315080096000E120EF0B3FA0A2305B1286004B12360DE
S3150800961038BD0EF0B1FA0923F6E70EF0AAFA0C23C4
S31508009620F2E70EF02FFA0F23800AEDE7002318461B
S31508009630EAE700BF0080005038B5104B0546D3F85E
S3150800964040320C4603F00303022B0BD0032B0DD03C
S31508009650012B0FD10EF08AFA0A2305B1286004B14E
S31508009660236038BD0EF088FA0923F6E70EF081FA72
S315080096700C23F2E700231846EFE700BF00800050EE
S3150800968038B5104B0546D3F860310C4603F0030392
S31508009690022B0BD0032B0DD0012B0FD10EF066FA3F
S315080096A00A2305B1286004B1236038BD0EF064FAB8
S315080096B00923F6E70EF05DFA0C23F2E700231846B5
S315080096C0EFE700BF0080005070B5054614460E4609
S315080096D000F0A8FF296881EA040202EA06044C4061
S315080096E02C60BDE8704000F0A1BF0000B0F5207FF7
S315080096F01FD009D8B0F5007F15D003D868B1B0F5EA
S31508009700C07F0AD000200CE0B0F5607FFAD10B4B81
S31508009710D3F88000C0F3011003E0084B186FC0F3BC
S31508009720033001307047054BD3F89000C0F304604E
S31508009730F7E7024B186FC0F38020F2E7008000506D
S3150800974002464FF48030104B10B598660020FFF79C
S31508009750CDFF504341F671320C4BDC69DA635A6827
S3150800976004F4803422F4401259B9094988428CBF5E
S315080097704FF480100020104358600CB10022DA63C1
S3150800978010BD0449F2E700BF0090005000000350E6
S31508009790005A6202002D310108B50EF085F9BDE8C0
S315080097A008400021FFF7CCBF430905D0012B0DD097
S315080097B0022B094B18BF002300F01F0041B103F527
S315080097C08053012202FA00F018607047034BF3E752
S315080097D003F50053F5E700BF688000506480005029
S315080097E01FB5002280280446019200F0BA8048D8A6
S315080097F0002800F0BA80A0F120043D2C54D83D2C56
S3150800980052D8DFE814F0B200BE00B200BE00D7009E
S31508009810D700D700D700D700BE00E1005B00F700ED
S3150800982081005B00BE00BE00BE0051005100510021
S3150800983051005100510051005100BE00BE00BE004B
S3150800984089000101BE00510051005100510051002C
S315080098505100510051005100510051005100510072
S31508009860D700B200B200B200FC005B005B00060144
S3150800987098006C00DC005100510051005100510065
S31508009880A900B0F5B06F00F09F802DD8B0F5207F05
S3150800989077D00CD8B0F5C07F67D0B0F5007F67D019
S315080098A0B0F5807F00F09580019804B010BDB0F542
S315080098B0607F6CD00DD8B0F5407FF5D10EF0E2F898
S315080098C002464FF42070FFF711FFB2FBF0F0400894
S315080098D049E0B0F5806F6DD0B0F5A06FE4D10021F6
S315080098E001A8FFF79DFDDFE7B0F5106F00F0878050
S315080098F017D8B0F5E06F00F087800AD8B0F5C06FCA
S3150800990078D0B0F5D06FCFD1002101A8FFF740FE7F
S31508009910CAE7B0F5F06FC7D1002101A8FFF7B0FE7E
S31508009920C2E7B0F5406F4AD013D8B0F5206F70D0B3
S31508009930B0F5286FB8D10021384B0391D3F87032AF
S3150800994003F00303012B02D103A8FFF799FD039B3C
S3150800995049E0B0F5486FA7D1002101A8FFF7E6FD59
S31508009960A2E70EF075F801909EE70EF08BF8FAE77D
S315080099700EF06EF802462046FFF7B8FEB2FBF0F08E
S31508009980F1E70EF07FF802464FF42070F4E7234B18
S31508009990D3F8803003F00303012B04D0022B06D042
S315080099A04FF46070E8E70EF053F80246F8E70EF059
S315080099B09BF8FAE7002101A8FFF7A6FC74E7002147
S315080099C001A8FFF7D3FC6FE7002101A8FFF700FD08
S315080099D06AE74FF0E02302921B695B0705D50EF094
S315080099E051F80290029B01935EE703A902A8FFF7CC
S315080099F047FDF7E7002101A8FFF742FD54E70021DC
S31508009A0001A8FFF7EFFD4FE7002101A8FFF714FEB5
S31508009A104AE7002101A8FFF757FD45E700800050F7
S31508009A2008B58020FFF7DCFE034B98429EBF4FF433
S31508009A308032024B1A6708BD005A620200A0005025
S31508009A401FB50023B0F5807F019300F0C38064D86A
S31508009A505D2855D84C2807D82D2847D823282BD831
S31508009A60019805B05DF804FB4D381028F8D801A315
S31508009A7053F820F0CB9B0008619A0008619A000809
S31508009A80619A00087D9B0008619A0008619A00089F
S31508009A90699C00089B9B0008419B00085F9C000886
S31508009AA0619A0008619A0008619A0008619A00089C
S31508009AB0619A0008739C000824380928D0D801A3A5
S31508009AC053F820F0CB9B0008CB9B0008CB9B0008E3
S31508009AD0CB9B0008CB9B0008619A0008C19B000835
S31508009AE0619A00085D9B0008019C00083D2800F06B
S31508009AF082803E28B4D1002001A9FFF79DFDAFE77B
S31508009B008028ADD1604B1B6F03F00703013B032B85
S31508009B10A6D8DFE803F05350878FB0F5F06F6AD008
S31508009B2021D8B0F5B06F4BD00FD8B0F5607F00F0F4
S31508009B30858095D3B0F5806F47D0B0F5A06F8FD1EB
S31508009B40002001A9FFF76CFC8AE7B0F5D06F57D063
S31508009B50B0F5E06FCFD0B0F5C06F81D1002001A974
S31508009B60FFF78EFC7CE7B0F5206F7DD00BD8B0F5FB
S31508009B70086F4AD0B0F5106F7FF472AF002001A9C4
S31508009B80FFF730FD6CE7B0F5406F68D0B0F5486F69
S31508009B906FD0B0F5286F7FF463AF00213A4B03917D
S31508009BA0D3F8703203F00303012B67D0022B14BFDE
S31508009BB00B46152300E00523019351E70223FBE733
S31508009BC0002001A9FFF704FC4AE7002001A9FFF7D6
S31508009BD09BFB45E702934FF0E0231B695B0705D51E
S31508009BE00DF050FF0D230393039BE5E703A902A895
S31508009BF0FFF746FCF8E7002001A9FFF741FD2FE72C
S31508009C00002001A9FFF7C4FC2AE71F4BD3F800314F
S31508009C1003F00303022B07D0032B09D0012B0BD12A
S31508009C200DF046FF0323C7E70DF0A6FF0923C3E798
S31508009C300DF054FF0823BFE70123BDE7124AD2F807
S31508009C40802002F00302012A05D0022AB4D10DF0C1
S31508009C504BFF0723B0E70DF0FBFE0E23ACE7002011
S31508009C6001A9FFF783FBFBE6002001A9FFF72CFCFF
S31508009C70F6E6002001A9FFF759FCF1E603A8FFF76D
S31508009C80FFFB112398E700BF0080005008B5FFF7D7
S31508009C90D7FE092811D00A38012811D84FF48002B6
S31508009CA0094B4FF6FF705A6603F5D8335B6A13F013
S31508009CB0010F18BF4FF4FA7008BD044B1888FBE76C
S31508009CC04FF6FF70F8E700BF009000500201002031
S31508009CD038B504468020FFF7B3FE032800F08380DA
S31508009CE04FF48012504B4FF0A0615A6645F60E03AA
S31508009CF04E4AC2F880304E4B99624FF4803103F5D4
S31508009D0080539962916D11F48031FBD1D4E9000337
S31508009D101B0543EA0063E07B0343207B43EA0043D9
S31508009D20607B43EA0033A07B43EA801313619069A2
S31508009D30D4E904531B0643EA856300F00040034355
S31508009D40A07E0343207E43EA0043607E43EA002365
S31508009D509361136AE269E57E002A0CBF0020082099
S31508009D6023F00F03134343EA8503304A0343136280
S31508009D70E369304D002B37D194F82430916A94F872
S31508009D802000DB000D4043EA401394F821102B43D2
S31508009D9043EA011343F480339362274B916D33EA08
S31508009DA00101FBD14FF08071214881621369A568D2
S31508009DB023F4700343EA055313614FF000438361AC
S31508009DC094F822300BB91D4B996294F823301BB9CD
S31508009DD04FF48032194B9A6294F825301BB1134B15
S31508009DE0174AC3F8802038BD022B08D111611548DF
S31508009DF091614FF408524FF47F41FFF765FC0B4918
S31508009E0094F822308A6A94F820001B06154043EA23
S31508009E10401394F824202B4343EAC20394F82320E2
S31508009E2043EA02438B62D7E7009000500040005A8D
S31508009E300050005AC7FFFEFE030001000060005AEA
S31508009E40F1A7FFFF3440005A014B93F90000704711
S31508009E50000100204FF400011B4A437810B55166F3
S31508009E604FF4D151022402F5B832516217494F2BEB
S31508009E704C604FF0010428BF4F2301F580514C6018
S31508009E801169C903FCD4017843EA01235361D0E977
S31508009E9001131B0143EA0123417B0B43017B43EA80
S31508009EA041039360C37B817B1B0143EA4113417CD9
S31508009EB00B43017C43EA41035360837C13B16FF47F
S31508009EC0D153536210BD00BF0090005000100250DD
S31508009ED0014B1880704700BF020100200029CCBF43
S31508009EE001210021FFF72CBCB0F5207F10B50C46E8
S31508009EF057D008D8B0F5007F48D003D830B3B0F5AE
S31508009F00C07F23D010BDB0F5607FFBD129492A4810
S31508009F10D1F8FC2012F080721EBFD1F8FC3023F075
S31508009F208073C1F8FC30D0F88030611E23F030040D
S31508009F3044EA0114C0F88040002AE3D01D4AD2F84A
S31508009F40FC3043F08073C2F8FC30DBE7FFF724FCF3
S31508009F5000F036F84FF48031184B174A1967136F1B
S31508009F60611E23F4704444EA013414670DF08AFD37
S31508009F700446FFF743F9C0F102012046FFF7AEFF9A
S31508009F8000F024F8BDE81040FFF74ABD0A4A013937
S31508009F90D2F8903023F0F85444EA0164C2F89040AD
S31508009FA0B0E7054B013C196F21F4806141EA84242E
S31508009FB01C67A7E700ED00E0008000500090005005
S31508009FC002214FF42070FFF78FBF000008B54FF449
S31508009FD0C070FFF705FCBDE80840044988428CBFFD
S31508009FE0022101214FF42070FFF77EBF80F0FA02AC
S31508009FF0B0F5807FF8B50C4600F04E816BD85D2829
S3150800A0005DD84C2804D82D2844D8232828D8F8BD4C
S3150800A0104D381028FBD801A353F820F079A2000880
S3150800A0200FA000080FA000080FA0000873A10008E1
S3150800A0300FA000080FA000082DA40008ABA1000877
S3150800A04003A100080DA400080FA000080FA000082F
S3150800A0500FA000080FA000080FA000084DA40008D4
S3150800A06024380928D3D801A353F820F079A2000888
S3150800A07079A2000879A2000879A2000879A2000846
S3150800A0800FA0000859A200080FA0000839A100086F
S3150800A09047A300083D2800F046813E28B7D1093C71
S3150800A0A0032C8CBF0021B04BB04A98BF195DD2F87B
S3150800A0B0403223F003030B43C2F84032A7E7802857
S3150800A0C0A5D18B1E062B00F2C480DFE803F0BFADD6
S3150800A0D0C27EC2C2BC00B0F5F06F00F024813BD846
S3150800A0E0B0F5B06F00F0B8801BD8B0F5607F00F00F
S3150800A0F067818CD3B0F5806F00F0BE80B0F5A06F95
S3150800A10085D1073C0B2C8CBF0021994B974A98BFE9
S3150800A110195DD2F8203223F007030B43C2F8203228
S3150800A12075E7B0F5D06F00F00E81B0F5E06FB6D0E8
S3150800A130B0F5C06F7FF46BAF093C032C8CBF0021D0
S3150800A1408C4B8A4A98BF195DD2F8403123F0030335
S3150800A1500B43C2F840315AE7B0F5206F00F066812C
S3150800A16017D8B0F5086F00F01B81B0F5106F7FF4B3
S3150800A1704EAF093C062C8CBF00217F4B7B4A98BF0B
S3150800A180195DD2F8083223F007030B43C2F80832E8
S3150800A1903DE7B0F5406F00F03981B0F5486F00F043
S3150800A1A05581B0F5286F7FF432AF112C00F05E812F
S3150800A1B0152C14BF002102216C4AD2F8703223F004
S3150800A1C003030B43C2F8703221E7002502264FF439
S3150800A1D080370121022000F059FAFFF7DDFAFFF770
S3150800A1E0EFFE664B614A1F67136F23F0070333437D
S3150800A1F013670DF047FC0646FFF700F8C0F10201A9
S3150800A2003046FFF76BFE0121002000F07FFAFFF7CA
S3150800A210DDFEFFF705FC002D7FF4F9AE032C7FF475
S3150800A220F6AE574B9F62F2E64FF48012534B0E463A
S3150800A2305A664FF48032534B9D6A03F58053C5F333
S3150800A24000659A62C3E700250426C0E700250126B3
S3150800A250BDE700252E46BAE7023C0E2C8CBF00212E
S3150800A260494B424A98BF195DD2F8803123F003035F
S3150800A2700B43C2F88031CAE6023C052C8CBF00218C
S3150800A280424B3A4A98BF195DD2F8203123F00703AA
S3150800A2900B43C2F82031BAE6A1F10904082C3FF6AF
S3150800A2A0B6AE01A353F824F0CDA20008CDA200084B
S3150800A2B00FA00008CDA20008FBA200080FA0000806
S3150800A2C00FA000080FA00008CDA200084FF48032A6
S3150800A2D0264B2F49586E03F580535A664B6A43F04E
S3150800A2E001034B62C1035CBF2A4B5A664FF0E0225A
S3150800A2F0136923F00403136189E64FF480321B4B7C
S3150800A3002349586E03F580535A664B6A23F00103B6
S3150800A3104B62C3035CBF1F4B5A664FF0E0221369BA
S3150800A32043F00403E7E7093C032C8CBF00211A4BD2
S3150800A3300E4A98BF195DD2F8603123F003030B4328
S3150800A340C2F8603163E6093C062C8CBF0021134B2A
S3150800A350064A98BF195DD2F8003223F007030B436B
S3150800A360C2F8003253E600BF0D410A0800800050CB
S3150800A37028410A080D410A0811410A0800900050B0
S3150800A3800060005A0040005AF8400A0807410A08C7
S3150800A39000C0075000A000500D410A0811410A08E4
S3150800A3A0CC1E062C8CBF0021314B324A98BF195D52
S3150800A3B0D2F8003123F003030B43C2F8003126E636
S3150800A3C02D49063CD1F8FC2012F080721EBFD1F848
S3150800A3D0FC3023F08073C1F8FC30082C8CBF0020B9
S3150800A3E0264B244998BF185DD1F8803023F0030323
S3150800A3F00343C1F88030002A3FF409AE1E4AD2F85A
S3150800A400FC3043F08073C2F8FC3000E6023C052CB1
S3150800A4108CBF00211A4B174A98BF195DD2F828310C
S3150800A42023F007030B43C2F82831F0E5023C0F2C52
S3150800A4308CBF0021134B0F4A98BF195DD2F86032C2
S3150800A44023F007030B43C2F86032E0E5023C0F2C09
S3150800A4508CBF00210C4B074A98BF195DD2F894327D
S3150800A46023F007030B43C2F89432D0E50121A3E693
S3150800A47018410A080080005000ED00E01F410A0854
S3150800A48007410A0834410A0834410A084FF4C02231
S3150800A49001212DE9F84305465C4B5A665C4A03F5EB
S3150800A4A098335C6851605E6816F00206FBD1FEF7C9
S3150800A4B0A5FE0128286805D1564B984202D90020E6
S3150800A4C0BDE8F883544A002311461768B84202D3F8
S3150800A4D05768B84205D90133192B02F11002F4D195
S3150800A4E0002301EB0313D3E9029028B1FEF792FE8D
S3150800A4F000F07F0049EA00098020FFF7A1FA052845
S3150800A50057D1FFF749F9FFF75BFD4FF480323F4B10
S3150800A5104FF4C0701A67FFF7E9F80128064644D1D8
S3150800A52002214FF4C070FFF7DFFC01273B49CB68D7
S3150800A53013F00608FBD18868C1F808908B6809F4FF
S3150800A540F81203F4F8139A4235D1AA88EB88344CEA
S3150800A55043EA0243E3604FF40860A968FFF748FD41
S3150800A5602B7D297B002B6B7D14BF04220022002B38
S3150800A57018BF4FF040082B6943EA4103134343EAE7
S3150800A5800803A36028680DF05DFA4FF0000807225B
S3150800A5901F4B1A610122A3F580535A60A3F5805315
S3150800A5A01C6914F00704FBD00BE0022801D1042132
S3150800A5B0B7E70027BAE714F001044FF001088860EE
S3150800A5C0E5D18020FFF73CFA052817D127B1314697
S3150800A5D04FF4C070FFF788FC0DF054FA05460DF0ED
S3150800A5E02BFA0DF029FAFEF709FEC0F102012846FA
S3150800A5F0FFF774FCFFF7EAFCFFF712FAB8F1000F51
S3150800A6007FF45DAF631E5842584159E700900050E9
S3150800A61000E00150005A620244410A080000015055
S3150800A62000C00150EFF3108072B6704700B962B6E9
S3150800A6307047EFF31180302383F31188704780F356
S3150800A64011887047054B420953F8223000F01F0065
S3150800A65023FA00F0C04300F00100704700E100E073
S3150800A660024A536B0342FCD1704700BF00400950B1
S3150800A67070470000034A0179D36E23F030030B4379
S3150800A680D36670470040005070470000F8B504468E
S3150800A6901C4BD3F88420D106FBD4D3F88430C3F3FB
S3150800A6A081139C422CD00DF0D3F9012C064602D119
S3150800A6B02146FFF713FCFFF7B5FF4FF00072124B68
S3150800A6C007465A662046FFF7DFFF4FF480630D4DB5
S3150800A6D0621E93402B676B6E9A0103D4D5F88430BB
S3150800A6E09B060AD53846FFF7A1FF022C08D130464B
S3150800A6F0BDE8F8400021FFF7F1BBD5F88430EAE75A
S3150800A700F8BD00BF004000500060005007B518B9FA
S3150800A71001910DF09DF90199064B1B7843B1064B43
S3150800A720984205D8012003B05DF804EBFFF7AEBFE9
S3150800A7300220F8E7D47B0020005A62024FF000425C
S3150800A740154B10B55A664AF6CD3314494C6C0B6452
S3150800A75004F0010488B90120FFF782FF4B68DB0784
S3150800A76004D50F4B58600B6BD807FCD514B10B4BAF
S3150800A7700C4A1A648BF070FC10BD0B6B1A07FCD4DC
S3150800A7802022074B9A620122A3F580535A60034A96
S3150800A790936A9B06FCD5E9E70090005000400950F3
S3150800A7A0006009503254FFFF4FF0004238B5164B8F
S3150800A7B001465A664AF6CD33144C154A656C23642D
S3150800A7C043780B205B0043F00103D363FFF748FF90
S3150800A7D063688A7823F4F87343EA02136360CA78D5
S3150800A7E04B7943EA0223A3600A798B7943EA022369
S3150800A7F023610878FFF7A2FFEB0744BF054B2364E4
S3150800A8008BF02AFC012038BD00900050004009500A
S3150800A810004000503254FFFF4FF0004270B5124B13
S3150800A82004465D6E03F580535A664AF6CD330F49E2
S3150800A83080204E6C0B64FFF713FF0B6A23F00F039F
S3150800A8400F2C94BF234343F00F030B62F30744BF57
S3150800A850074B0B64002DA2BF4FF00042054B5A660A
S3150800A8608BF0FAFB70BD00BF008000500040095015
S3150800A8703254FFFF00A000504FF0004270B5104B55
S3150800A88004465D6E03F580535A664AF6CD330D4984
S3150800A89080204E6C0B64FFF7E3FE0B6A23F4F85333
S3150800A8A043EA04230B62F30744BF074B0B64002DEE
S3150800A8B0A2BF4FF00042054B5A668BF0CDFB70BD28
S3150800A8C000800050004009503254FFFF00A000509D
S3150800A8D070B5054614460E46FFF7A4FE296881EAB8
S3150800A8E0040202EA06044C402C60BDE87040FFF7FB
S3150800A8F09DBE0000072AF7B501F0030614461F4659
S3150800A9004FF003012CD89500A94000FA05F21C481F
S3150800A9100191FFF7DDFF01991A4806FA05F2FFF7DC
S3150800A920D7FF194B19499DF82000002F08BF194673
S3150800A930012303FA04F40C60154B1649002808BFD6
S3150800A9400B461C60144B1031C3F820449DF82400B4
S3150800A950A3F6DC33002808BF0B461C6003B0F0BD25
S3150800A960A2F10805AD00A94000FA05F20B480191CD
S3150800A970FFF7AEFF01990A4806FA05F2CFE700BFCE
S3150800A98000C4035008C4035010E4035010D4035005
S3150800A99014D4035014E4035000E0035004C40350D5
S3150800A9A00CC403502DE9F04105460F461E46904655
S3150800A9B04AB101233022194C8B4002FB00443EB3B6
S3150800A9C004F5825423600F21072F05EB450388BF42
S3150800A9D0A7F108044FEA0313114895BFBC00A40069
S3150800A9E004330C3308FA04F2A1401844FFF770FF49
S3150800A9F0B8F1000F0AD101213020084A01FA07F7F9
S3150800AA0000FB05223EB102F582521760BDE8F081CF
S3150800AA1004F50154D6E702F50152F6E700C00350E3
S3150800AA2030C0035010B5012104462020FEF7BCFEB5
S3150800AA3001212120FEF7B8FE0122114B5A60227827
S3150800AA4012069A606178A27842EA01429A61FF2268
S3150800AA509A6200229A631A644FF000425A654FF0D0
S3150800AA60FF324FF4001103F500531A65054AC2F880
S3150800AA708011E3781B01DBB282F81533116010BD33
S3150800AA800000045000E100E04FF48032054B9A665E
S3150800AA9041F6713203F51C33DA63012203F50053DC
S3150800AAA0DA6070470090005041F671320121064B7A
S3150800AAB0DA6303F50052D1600022DA634FF480327C
S3150800AAC0A3F518339A6670470000035001383128F9
S3150800AAD09ABF024B185C0020704700BFD4420A0890
S3150800AAE0122801D0142804D1022904D0032908BF4A
S3150800AAF00121084670470021FBE70000021E30B519
S3150800AB004FF000000CBF1025042547F607740849C6
S3150800AB1052B9831D51F82330234023B101308542B1
S3150800AB20F6D14FF0FF3030BD00F11603F2E700BF53
S3150800AB300080035010B5C2F30623044602F007024C
S3150800AB4041B942EA03220B4B42F44022063443F849
S3150800AB50242010BD18461146FFF7C2FF01461846C5
S3150800AB60FFF7B4FF034B41EA0020163443F82400EC
S3150800AB70EFE700BF008003500A4392B20021FFF7B7
S3150800AB80D9BF3AB122F0030202F1A04202F56032BF
S3150800AB9009B9106070470002FBE74FF050234FF4E5
S3150800ABA000321A6770470000014BD3F894007047CB
S3150800ABB000400050436813B9416070475B685A68A3
S3150800ABC0012AFBD159607047836813B981607047C1
S3150800ABD05B685A68012AFBD159607047C369032B21
S3150800ABE09FBF00EB83020133D160C3617047C3691D
S3150800ABF010B5042B15D84FF09842116CC902FCD534
S3150800AC0004339B00136503684FF098441360436848
S3150800AC10136083681360002300F10C02C1698B423C
S3150800AC2000D310BD52F8041B01332160F6E700007B
S3150800AC304FF48032064B5A6603F5E6239B69C3F345
S3150800AC408512827003F03F021B0B42700370704737
S3150800AC500090005040F6B732064B5B689BB29342B1
S3150800AC609FBF4FF47A72B3FBF2F3034AD05C88BFF6
S3150800AC70002070470080E00F06430A08054B9A68D3
S3150800AC809107FCD45A689207F9D4DA69002AF6D1F2
S3150800AC90704700BF00800A5008B5FFF7EFFF012292
S3150800ACA0024B03F580514A601A6108BD00800A50BC
S3150800ACB0074B5A68012A0AD15A68D20702D5DA69B7
S3150800ACC0002AF9D102221A610122024B5A60704702
S3150800ACD000800A5000A00A5010B5064CFFF7CEFFB8
S3150800ACE06368012B03D1FFF7E3FFFFF7C7FF03787C
S3150800ACF0E36010BD00800A50E8B94A680B7812B1C3
S3150800AD00127843EAC2034A78002A14BF02220022B4
S3150800AD1013438A6812B1127843EA82138A78002AA2
S3150800AD2014BF042200221343CA6812B1127843EAF8
S3150800AD304223014A9364704700800A5008B9014BC0
S3150800AD405964704700900A5008B9014B5964704716
S3150800AD5000A00A5008B9014B1964704700A00A50B0
S3150800AD6010B9024B186C70470020704700800A50D3
S3150800AD7048B911B1012903D07047044BD86C704704
S3150800AD80024B186D70470020704700BF00800A50BC
S3150800AD9040B911B1012903D07047034BDA647047F3
S3150800ADA0014B1A65704700BF00800A5038B5044643
S3150800ADB0054D8BF0A8F90FCC0FC594E8030085E87C
S3150800ADC00300002038BD00BFD87B002047F6FF737C
S3150800ADD09A42F0B563D0022963D8334BCF0003EB10
S3150800ADE0C10013F831108478012913D10025C378DE
S3150800ADF01B1B9D4202D3E018C0B2F0BD591B466822
S3150800AE00A3EB510136F911609642D4BF0D4601F104
S3150800AE10FF33EEE740680028EFD0B0F90010914202
S3150800AE2004DBB0F902109142B8BF114682883B4450
S3150800AE30FF2A19BFC8222826B0F90620B0F90860EB
S3150800AE40A2EB01020CBF0125002592FBF6F25F7802
S3150800AE502A447B1E934228BF13464FF47A7E00EBA2
S3150800AE60C305AE68EA88AC4611FB02621E4622EAB2
S3150800AE70E272013302F5FA729F42B2FBFEF204D97E
S3150800AE80BCF80CC008359445EBD200EBC6008088A8
S3150800AE90904228BF1046A04238BF2046ACE7FF20A4
S3150800AEA0ABE70020A9E700BFD87B00200229F0B550
S3150800AEB053D82B4800EBC10410F8311063680129F8
S3150800AEC00FD1E078A478904294BFC4EB0001C4EB9C
S3150800AED00201001BCAB28242C8BF002233F912001F
S3150800AEE0F0BD002B39D0A178914202D3B3F9020004
S3150800AEF0F6E7E178B3F900009142F1D999886478C8
S3150800AF00A1F1FF06013C714203F10405E4B2714167
S3150800AF1003F10C071FFA82FCCEB2B44216D805EB31
S3150800AF20C1014FF47A756A43B1F902404968521A69
S3150800AF3004EBD47102EB610292FBF4F29042CFDB90
S3150800AF40B3F902009042CBDC10B2C9E737F831E01A
S3150800AF504E1CE645E3D33146DEE70248C0E700BFAC
S3150800AF60D87B00200080FFFF0148FFF71FBF00BF06
S3150800AF70A05B0A0800487047040100207FB502223A
S3150800AF80084B0949CDE901234FF04073CDE9031376
S3150800AF90052301A94FF0FF3005938BF0A8FA07B0F7
S3150800AFA05DF804FB006A1800000304006FF0040251
S3150800AFB0502110B50A480B4C12F0800FD3B21BBFB4
S3150800AFC003F00F03043BA3181B1802F101020CBF80
S3150800AFD083F8001319764C2AEED1002010BD00BF65
S3150800AFE000ED00E000E100E00CF06ABE38B500F0C4
S3150800AFF073FA0446E0B900F06BFB4FF4167343434B
S3150800B0000C4803F5742303F23F23B3FBF0F30A4A13
S3150800B0100A4913600A220D680948013A12F0FF022C
S3150800B02040F8043BF9D103EBC3022B4413440B60ED
S3150800B030204638BD40420F002C7C0020F87B0020BB
S3150800B040FC7B0020012208B5034B1A7000F019FB9F
S3150800B050024B186008BD00BFF47B0020287C002046
S3150800B060F8B5144C237823B300F00BFB124B134DA1
S3150800B0701B68134EC01A012838BF0120114B124F06
S3150800B08018602B7856F8232046F82300111A3A68D8
S3150800B0900E48521A0A213A600932B2FBF1F201331C
S3150800B0A0DBB20260B3FBF1F201FB12332B70002313
S3150800B0B02370F8BDF47B0020287C0020247C002027
S3150800B0C0FC7B0020F07B0020F87B00202C7C0020F5
S3150800B0D0BFF34F8F0549064BCA6802F4E062134373
S3150800B0E0CB60BFF34F8F00BFFDE700BF00ED00E068
S3150800B0F00400FA0508B5FFF7EBFF08BD034B1B78FC
S3150800B100002B14BF01200220704700BF3C7C0020A2
S3150800B1100329F8B598BF124B05460E468CBF002486
S3150800B1205C5C032805D8DFE800F002080B0E44F043
S3150800B13002040C4B1F684FB9F8BD44F00804F8E741
S3150800B14044F02004F5E744F08004F2E77B681A68C7
S3150800B150144203D0314628465B6898473F68EAE7B9
S3150800B16009430A08387C002000292DE9F34114BF59
S3150800B1700121FF21254A00F1FF30135C0B441354CB
S3150800B1803AD0234E3278012A36D9FFF7B7FF01287D
S3150800B190044634D81F4FFFF745FA3B781BB31E4DBC
S3150800B1A02B781BB901222A701C4A1370DFF87080AD
S3150800B1B098F8003033B1019000F07EF8002301982A
S3150800B1C088F80030FFF732FA012000F099F8FFF707
S3150800B1D029FA2B782BB1019000F09CF800230198EE
S3150800B1E02B7000233B70FFF721FA3078A04203D07A
S3150800B1F02146FFF78DFF347002B0BDE8F081032ABF
S3150800B200F3D10228F1D100F0A9F8EEE73C7C002042
S3150800B210307C0020367C0020317C0020357C0020E4
S3150800B220327C002010B50446FFF7FCF9002C14BF49
S3150800B2300121FF21064A13780B44DBB21370B3FAD7
S3150800B24083F3044A5B091370BDE81040FFF7EEB9B3
S3150800B2503F7C00203E7C002038B541600446FFF75D
S3150800B260E1F9054621460448FDF7DEFC2846BDE817
S3150800B2703840FFF7DBB900BF387C002010B5094B12
S3150800B2801B786BB1084C237853B100F043F80023C0
S3150800B290064A237013700123054A1370054A137072
S3150800B2A010BD00BF307C0020357C0020367C002095
S3150800B2B0337C0020347C002038B50D4B1B7873B1E5
S3150800B2C00C4C23788BB90C4B0C4D9A6D12F4803FBD
S3150800B2D006D0DB6D9B0703D54FF48033AB6238BDD0
S3150800B2E0FFF7B0FE4FF48033AB6200232370F6E716
S3150800B2F0457C0020447C00200040005A0050005A3B
S3150800B300034B1B780BB10CF0F9BC0120704700BF4A
S3150800B310457C002008B5FFF7ABF9094A0949136FC0
S3150800B320096823F007030B431367074B1B781BB108
S3150800B3304FF48032054B9A62BDE808400CF0A2BB78
S3150800B34000800050407C0020457C00200060005AA8
S3150800B3500122014B1A707047457C00207047000097
S3150800B36030B50F4C41612368ABB92060836011E0AA
S3150800B370891A41619A681D462AB113465A698A4252
S3150800B380F6D955B11A461346A860836013B15A69AF
S3150800B390511A596130BD0025F0E72060F5E700BF76
S3150800B3A05C7C002010B500F0D3FA0A4C0A4B1968E9
S3150800B3B02368C31A01B10BB9206010BD4A699A42C5
S3150800B3C03ABF9B1A0022D21A4A6128BF002389680D
S3150800B3D0F0E700BF487C00205C7C002038B5134DA0
S3150800B3E02B685B6993B1124A022014681C4400F06A
S3150800B3F0BBFA204600F0C2FA00230E492A680B70F1
S3150800B400D088800709D501230B7038BD022000F0CB
S3150800B410ABFA022000F000FBEEE79268002AF4D0AF
S3150800B42050690344012BEBD9EFE700BF5C7C002091
S3150800B430487C0020507C002070B516469DF81420E4
S3150800B440C0E903360271049ABDF81830026000227A
S3150800B450C380826004460D4600F07AFA3044A06143
S3150800B4603DB9E368656113B120462168984796B1EE
S3150800B4703546FFF7D7F80646FFF794FF29462046D4
S3150800B480FFF76EFF054B1B68A34201D1FFF7A6FF26
S3150800B4903046FFF7CBF8002070BD00BF5C7C00206B
S3150800B4A000220C490B687BB183420AD183687AB1C2
S3150800B4B0936083681BB15A6941690A445A6100203E
S3150800B4C070471A469B68EEE70028EFD002207047BF
S3150800B4D00B60EEE75C7C002070B5FFF7AAF8144E07
S3150800B4E005463478FCB9134B1C60134B1C60134B90
S3150800B4F01C8000F0FBF9012000F036FA00F0BFFAD4
