S0240000636869702D65667233322D746865726D6F737461742D6578616D706C652E733337CC
S21400000000000420C1B60100BFB60100F96D07006C
S214000010555E0000BFB60100BFB60100BFB60100C6
S214000020BFB60100BFB60100BFB60100A1B901000E
S214000030BFB601009000002061BA01008D5B010090
S214000040BFB60100C5720C00BFB60100BFB6010006
S214000050116B0C001D730C00D1720C00E9720C00C1
S214000060C9720C0085390000F13A0000BFB60100E5
S21400007095220000BFB60100BFB60100BFB6010062
S214000080BFB60100BFB60100113B0000BFB60100BD
S214000090BFB60100BFB60100BFB60100BFB6010083
S2140000A0BFB60100BFB60100BFB60100BFB6010073
S2140000B021730C00CD720C00796800005D730C0093
S2140000C0BFB60100415A0C00BFB60100BFB6010022
S2140000D0BFB60100BFB60100BFB60100BFB6010043
S2140000E0BFB60100BFB60100BFB60100BFB6010033
S2140000F0BFB60100BFB60100BFB60100BFB6010023
S214000100BFB60100BFB60100BFB6010010B5054C72
S214000110237833B9044B13B10448AFF300800123AE
S214000120237010BD2008002000000000789C0E0000
S21400013008B5034B1BB103490348AFF3008008BD65
S2140001400000000024080020789C0E00A3F5803AEA
S214000150704700BF174B002B08BF134B9D46FFF799
S214000160F5FF00218B460F461348144A121ACEF0AC
S214000170DFF80E4B002B00D098470D4B002B00D01D
S21400018098470020002104000D000D48002802D0EA
S2140001900C48AFF30080CEF003F82000290001F0F1
S2140001A0DFFECDF073FE00BF000008000000000078
S2140001B00000000000000420200800209C210220EF
S2140001C00000000000000000012800D070474FF635
S2140001D0FF739942FAD1054B012283F88120002251
S2140001E083F8C52083F8C620F0E700BF1C0A00206D
S2140001F010B584B00C4600230093164B164A102107
S2140002000A2016F00BF9154B186090B1144B0293A8
S214000210144B019301230093104B4FF48062124954
S214000220204616F083FF114B186050B1002004B032
S21400023010BD0F4876F0A0FC40F2017000F0DEFA28
S214000240E4E70C4876F098FC40F2027000F0D6FA2C
S214000250ECE700BFCC0900202C0900201C09002078
S21400026064080020E40A002038F60C00200900206C
S21400027014F60C003CF60C0030B5A7B004460D464C
S214000280002941D02E4B1D602E4B009323460022A2
S21400029001212D4818F03AF82C4B186000283AD067
S2140002A02B4B0093234601220A212A4818F02EF8E9
S2140002B0294B1860002836D02849294876F05CFC7F
S2140002C000F025FA2749284800F03EFA74F086FD2B
S2140002D00368D3F88430984705AB039381230493CF
S2140002E04FF0020103A88FF03FFB20BB1F4C049A7F
S2140002F00399204602F08AFD01221146204602F0AC
S214000300F7FD002027B030BD194876F035FC2F20C9
S21400031000F074FAB6E7174876F02EFC40F2047048
S21400032000F06CFABCE7144876F026FC40F2047045
S21400033000F064FAC0E7114876F01EFCE1E700BF63
S21400034060080020C906000074F60C00240900208E
S2140003505D04000098F60C005C080020C0F60C0057
S214000360CCF60C00C0250D00400800201C0A00201A
S21400037058F60C007CF60C00A4F60C00ECF60C000C
S21400038010B52C4876F0C9FEC0B92B4B1B78022B53
S21400039035D02A4B1B680BB1DB7D5BBB284B1B782B
S2140003A0002B37D0274B1B78002B33D0264B1B78DF
S2140003B04BB30121254800F0B5F920E0244C204637
S2140003C079F07FFE1E4B1870204679F029FE1D4BF3
S2140003D01870204679F086FE1B4B18701D4879F081
S2140003E069FA003818BF01201B4B1870114876F0C8
S2140003F09EFECAE7FA221146144800F0E3F91348B5
S21400040000F0B6F910BD322240F2B6310F4800F0C7
S214000410D9F9F4E7104B1B782BB1642211460B4830
S21400042000F0D0F9EBE740F2B6323221074800F090
S214000430C9F9E4E790520120E41A00206008002081
S214000440280900203C08002058080020400800200A
S214000450189901200C9901202909002008B5FFF7FA
S2140004608FFF08BD00B583B000220092134603211B
S2140004700948006817F066FF28B1084B00221A707A
S21400048003B05DF804FB064876F076FB40F2067093
S21400049000F0B4F9F1E700BF240900202A09002083
S2140004A004F70C0010B582B00446114B186818F01B
S2140004B0FDF878B9642300930023224604210C48F3
S2140004C0006817F03FFF01280AD10A4B01221A7074
S2140004D002B010BD084876F04FFBFFF7C3FFE9E710
S2140004E0064876F049FB40F2057000F087F9ECE725
S2140004F0240900202A0900201CF70C0038F70C00FD
S2140005000388012B2BD110B5154B1B781BB1154A50
S2140005101278012A05D01BB1124B1B78022B17D07C
S21400052010BD40F6B831104876F026FB40F6B830DD
S214000530FFF7B8FF0B4B02221A700C4C0021204626
S21400054000F0F0F84FF4FA71204600F041F9E7E7C2
S214000550044B00221A70064890F044FDE0E770470E
S2140005602A090020E41A002054F70C004008002056
S21400057068CD012010B50379012B0CD01F4B1B78DA
S2140005801BB11F4A1278012A15D01BB11C4B1B78D1
S214000590022B2AD010BD194B1B78002BFAD1184B12
S2140005A01B78002BF6D140F6B830FFF77BFF144BD4
S2140005B001221A70EEE7FFF755FF114B00221A7062
S2140005C0104802F0AAFC104879F07BFD48B90F4CA1
S2140005D00121204679F056F90021204679F05AF993
S2140005E0D8E70B4876F0C8FAD4E7FFF73BFF044B92
S2140005F000221A70074876F0BFFACBE72A090020D7
S214000600E41A00201C0A0020189901200C990120E9
S21400061094F70C00D4F70C0010B582B00B4B1C6896
S21400062016F092FE0246002300930121204617F0A2
S21400063089FE012801D102B010BD054876F09CFA6B
S21400064040F2057000F0DAF8F5E700BF5C0800201D
S214000650F4F70C00004870471C0A002000B583B071
S214000660164B1B682BB30146EFF3058343B90122F3
S2140006701248006815F09EFFB8B103B05DF804FBA1
S2140006800023019301AA0D48006816F0C1F8019BEB
S214000690002BF1D04FF0E0234FF08052C3F8042D2A
S2140006A0BFF34F8FBFF36F8FE6E7054876F064FA27
S2140006B0E3E7044876F060FADFE700BF1C09002095
S2140006C00CF80C003CF80C0000B585B00123ADF822
S2140006D000300190034B03936846FFF7BFFF05B059
S2140006E05DF804FB0105000008B5CB6813B10846A9
S2140006F0984708BD014876F03FFAFAE764F80C0020
S21400070008B54FF6FF710120FFF75EFD08BD08B57E
S21400071018F09EF808BD006918B108B502F0C0FED2
S21400072008BD704708B50023C3608360002200231D
S214000730C0E90023006910B111B102F0A7FE08BDA0
S21400074002F0A9FEFBE7000008B59FED077B80EDF1
S214000750007B00228260C26001611146FFF7E2FF63
S21400076008BD00BFAFF300800000000000000000DE
S214000770836823B370B582B00446C368ABB1104B30
S21400078019680B68DB6868469847009E019D2069DB
S21400079002F08BFE58B1A168236862685B1842F1CC
S2140007A00002B34272EB050303D302B070BDE168EA
S2140007B0F2E72046FFF7AFFF26606560F5E7704773
S2140007C0F002002008B58160C260FFF7D1FF08BDC7
S2140007D008B50A46FFF7F6FF08BD000008B5014653
S2140007E0054876F0C9F94FF0300383F31188BFF35C
S2140007F06F8FBFF34F8FFEE794F80C0008B5FFF736
S214000800EDFF0000124A12F0070F1ED0D11D21F096
S2140008100701C1F5A04313440A460E4802600021B2
S21400082041601344083B23F007030B4803605960FC
S2140008301960991A51601360084B1960084B1960CB
S214000840084B4FF000421A6070474FF4A043E4E7AD
S214000850EC1A0020006B0020E81A0020F46A002042
S214000860F06A0020EC6A002010B560B3044616F06B
S21400087063FD54F8043C154A126813420FD054F82E
S214000880081CC9B14FF0300383F31188BFF36F8F94
S214000890BFF34F8F0E490F48CEF040F8FEE74FF0FB
S2140008A0300383F31188BFF36F8FBFF34F8F0A496E
S2140008B00848CEF033F8FEE723EA0203A3F1080463
S2140008C016F0F4FD00E00024204610BDEC6A00207F
S2140008D010F90C00F4F80C00C4F80C00014B186872
S2140008E0704700BFF06A0020014B1868704700BFD1
S2140008F0F46A002008B51BF065F8034B1A68034B32
S2140009001A601BF089F808BDF06A0020F46A00201F
S214000910F8B5074616F010FD174B1B6893B14FF05D
S214000920FF3600252C4604E01B68144A12689A42DB
S2140009300CD001345A68AA4200D91546B242F3D206
S2140009401646F1E74FF0FF3600252C4616F0AEFDB2
S2140009507D60BE60FC601BF035F8094B1B683B6091
S214000960084B1B687B61084B1B68BB61074B1B6809
S2140009703B611BF051F8F8BD006B0020E81A002020
S214000980F06A0020F86A0020FC6A0020F46A002062
S21400099010B588B00446164B1B6893B1144B1A4624
S2140009A01B68A342FBD351685018A0420DD0616863
S2140009B0601883420ED02360944200D0146008B0C2
S2140009C010BD01A8FFF7A4FFE8E760680144516086
S2140009D01446ECE707480068834206D05B68194473
S2140009E0616013681B682360E6E72060E4E700BFE9
S2140009F0006B0020E81A002038B5044616F09CFC70
S214000A00444B1B68EBB1444B1B681C421CD1631E55
S214000A1013F10A0F0BD804F1080214F0070F05D0E3
S214000A2022F007030833934260D91A4682B916F0BB
S214000A303DFD002576F020FD15F0070F5CD1284619
S214000A4038BDFFF7DFFEDEE716F030FD0025F1E7E4
S214000A50324B1B68934202D331490C6805E016F00E
S214000A6025FD0025E6E721461C466368934202D230
S214000A702368002BF7D1274B1B68A34218D00D68BC
S214000A80083523680B6063689B1A102B18D9A018CA
S214000A9010F0070F10D04FF0300383F31188BFF328
S214000AA06F8FBFF34F8F1F491F48CDF037FFFEE70C
S214000AB016F0FCFC0025BDE743606260FFF768FFA8
S214000AC0626816490B689B1A0B60184909688B42C6
S214000AD001D216490B60104B1B681343636000235A
S214000AE02360134A13680133136000E0002516F0F4
S214000AF0DDFC002DA0D19DE74FF0300383F3118875
S214000B00BFF36F8FBFF34F8F0A490748CDF006FF3C
S214000B10FEE700BFE81A0020EC6A0020F06A00201A
S214000B20006B002030F90C00F4F80C00F46A00208A
S214000B30F86A00206CF90C0038B501FB00F419B116
S214000B40B4FBF1F181420AD12046FFF755FF054676
S214000B5018B122460021CDF0EBFB284638BD002513
S214000B60FBE7000000283CD038B50446A0F1080595
S214000B7050F8043C1B4A126813420FD050F8081C69
S214000B80C9B14FF0300383F31188BFF36F8FBFF303
S214000B904F8F15491548CDF0C1FEFEE74FF03003E4
S214000BA083F31188BFF36F8FBFF34F8F10490F4841
S214000BB0CDF0B4FEFEE723EA020340F8043C16F04C
S214000BC0BBFB54F8041C0B4A13680B4413602846FE
S214000BD0FFF7DEFE084A13680133136016F066FC62
S214000BE038BD7047EC6A002010F90C00F4F80C00D1
S214000BF0C4F80C00F06A0020FC6A0020F8B5054630
S214000C000C46FFF731FED8B10746A4B1A04201D189
S214000C102E461AE021460120FFF78EFF0646A0B1B9
S214000C203A46A74228BF22462946CDF059FB284619
S214000C30FFF798FF09E02846FFF794FF002604E038
S214000C4021460120FFF778FF06463046F8BD08B576
S214000C50FFF7D2FE08BD08B5FFF784FF08BD08B54C
S214000C60FFF7CCFF08BD08B50846FFF7F0FF08BD44
S214000C7008B50846FFF7EFFF08BD08B50846114659
S214000C80FFF7EDFF08BD08B505F01CFE12F0BCFB33
S214000C9075F066FF34F098FD32F0E0FD08BD10B543
S214000CA082B00022ADF8062003689C680DF10603AA
S214000CB0A047192802D020B1002000E0012002B091
S214000CC010BD0120FBE7052B01D8002070472F2020
S214000CD070470000014B0360704700BF08FC0C0023
S214000CE0024A0260024A0260704700BF2CFC0C00F9
S214000CF008FC0C00024A0260024A0260704700BF0D
S214000D0018FC0C000CFB0C00024A0260024A02604F
S214000D10704700BFE8FB0C0020FB0C00034A026093
S214000D20034A0260034A0260704700BFD8260E00DE
S214000D3020260E00B4FB0C00024A0260024A026043
S214000D40704700BF002A0E00D4FB0C0008B502480E
S214000D5079F0FCF808BD00BFBCA9012008B5024820
S214000D6079F0FBF808BD00BFBCA9012008B501F06A
S214000D7023FE08BD038848F20102934204D048F2DD
S214000D800202934212D0704790F90820012AF6D149
S214000D9010B5094875F0F0FE48F04AFC03685C6937
S214000DA00023064A40F6B831A04710BD90F9093036
S214000DB0012BE8D1ECE700BFACF90C006D0D00008C
S214000DC0012800D0704708B54FF6FF73994200D04F
S214000DD008BD0948094B0360094B036000234360C4
S214000DE08360C3600374436103764376054A06490D
S214000DF0CCF023F9ECE700BFC46D00207CFB0C00B0
S214000E0034E60D0000000020118F070010B50446E0
S214000E10034B03603821CCF015F9204610BD00BF07
S214000E2008FC0C0010B50446044B0360044B03603A
S214000E303821CCF007F9204610BD00BF2CFC0C0072
S214000E4008FC0C0010B50446044B0360044B03601A
S214000E500421CCF0F7F8204610BD00BF18FC0C00AB
S214000E600CFB0C0010B50446044B0360044B0360F7
S214000E700821CCF0E7F8204610BD00BFE8FB0C00C8
S214000E8020FB0C0008B5104B0360D0F8F4317BB99A
S214000E90D0F8483173B9D0F804316BB9D0F898302F
S214000EA063B9436D63B9036963B9084B036008BD52
S214000EB0CCF0B8FFCCF0B6FFCCF0B4FFCCF0B2FF6D
S214000EC0CCF0B0FFCCF0AEFF20190E0090FA0C006C
S214000ED038B504460C4B036043688BB1437C4BB972
S214000EE0C5683DB135B12B681B682846984728462B
S214000EF074F00EF80023E360637423742372636057
S214000F00024B2360204638BD68A90D007CFB0C0010
S214000F10406818B108B575F0C7FD08BD03207047D6
S214000F20406858B100B583B04FF0000C8DF807C08C
S214000F3032B175F08BFD03B05DF804FB03207047FB
S214000F400BB12F20F7E70DF10702F2E770B582B07C
S214000F500446A34B1B78BFF35B8F13F0010F45D0FD
S214000F60A04B1B78BFF35B8F13F0010F4CD09E4B4A
S214000F701B78BFF35B8F13F0010F53D09B4B1B788E
S214000F80BFF35B8F13F0010F6AD0994B1B78BFF34A
S214000F905B8F13F0010F00F0D180964B1B78BFF3E8
S214000FA05B8F13F0010F00F0DD80934B1B78BFF3CF
S214000FB05B8F13F0010F00F0EB802369002B00F02D
S214000FC0F680236B002B00F0F780636B002B00F09D
S214000FD051818A4D2169284686F04CFC284685F0CA
S214000FE07BFC002800F0598102B070BD7C48CCF034
S214000FF02BF80028B4D07A48CCF032F8804A8149E1
S2140010008148CCF01AF8ABE77648CCF01DF80028FB
S214001010ADD07448CCF024F8794A7C497C48CCF0B2
S2140010200CF8A4E77048CCF00FF80028A6D0794D4D
S214001030794B2B60794B2B6000236B602B72EB6037
S2140010402B616B61AB61EB612B6285F824306648DF
S214001050CCF006F86A4A72492846CBF0EEFF8DE7D8
S2140010606248CBF0F1FF00288FD064486D4B0360D8
S214001070032383800223C380002585606A4A0260BA
S214001080C5601422009200F1280200F12C011030F5
S21400109045F0C4FF2B46002B01DB013BFBE7634A10
S2140010A0142300930223111DA2F1180045F0B6FF89
S2140010B00023002B01DB013BFBE75D4A282300935E
S2140010C00223111DA2F1180045F0A8FF0023002BF3
S2140010D001DB013BFBE7574A142300930223111D53
S2140010E0A2F1180045F09AFF0023002B01DB013B1C
S2140010F0FBE7514A482300930223111DA2F1180072
S21400110045F08CFF0023002B01DB013BFBE74B4A3D
S2140011102C2300930223111DA2F1180045F07EFF38
S2140011200023002B01DB013BFBE73048CBF098FFA8
S214001130334A43493148CBF080FF26E72C48CBF0B2
S21400114083FF00283FF429AF3E4D3F4B2B603F4BBB
S2140011502B602748CBF084FF294A3D492846CBF030
S2140011606CFF1AE72348CBF06FFF00283FF41DAF53
S214001170384D394B2B60394B2B60394B2B601D4853
S214001180CBF06EFF1E4A37492846CBF056FF0CE7D9
S2140011901948CBF059FF00283FF40FAF1648CBF0A4
S2140011A05FFF174A30493148CBF047FF05E7164B3B
S2140011B02F4A5A60236104E72269154B5B6833B1F6
S2140011C0032000287FF410AF114B2363FDE6104B7D
S2140011D00020187258745A60D8601874F1E700BF7F
S2140011E0BC6D0020B86D00208C6D0020206B0020A8
S2140011F0186B00200C6B0020086B0020246B00206E
S21400120000000020090D00001C000020D10E000088
S21400121008000020906D002040FB0C00301C0E00E3
S214001220DD12000090FA0C0020190E00906B0020D2
S214001230D46B0020406C0020846C0020306D0020B1
S214001240850E00001C6B00200CFB0C0018FC0C002C
S214001250F50C0000106B0020B4FB0C0020260E00DE
S214001260D8260E001D0D0000390D000004000020D9
S214001270845201202569144B5B6833B10320002893
S2140012807FF4B2AE104B6363A3E60F4E33689B6ADF
S2140012903046984775600020F1E70C4BE361236900
S2140012A083B10B4A5360002000287FF49DAE084BA4
S2140012B063614DF09BF82062064B6362064BA361A8
S2140012C0002091E62F20EFE7906D0020246B002091
S2140012D0106B0020040000201C6B002010B5044694
S2140012E0124B0360436823B1104B9B6A9847002358
S2140012F0636000222262E06918B173F009FE0023E1
S214001300E3610022A261606918B173F001FE002358
S214001310636100222261E06818B173F0F9FD0023D2
S214001320E360034B2360204610BD00BF301C0E0058
S21400133040FB0C0010B5134B0360D0F8F431ABB98A
S2140013400446D0F848319BB9D0F8043193B9D0F8A8
S21400135098308BB9436D8BB903698BB90A4B036020
S2140013604FF41A71CBF06EFE204610BDCCF05AFD3D
S214001370CCF058FDCCF056FDCCF054FDCCF052FD30
S214001380CCF050FD20190E0090FA0C0010B5044663
S214001390144B0360436823B1124B9B6A98470023A3
S2140013A0636000222262E06918B173F0B1FD002389
S2140013B0E3610022A261606918B173F0A9FD002301
S2140013C0636100222261E06818B173F0A1FD00237A
S2140013D0E360054B236028212046CBF033FE2046F1
S2140013E010BD00BF301C0E0040FB0C0038B5044694
S2140013F00E4B036043688BB1437C4BB9C5683DB167
S21400140035B12B681B6828469847284673F080FD40
S2140014100023E3606374237423726360044B2360C9
S21400142014212046CBF00EFE204638BD68A90D00DC
S2140014307CFB0C0008B50A4875F09EFB094879F05D
S21400144054FE00B108BD0121064878F06FFF002861
S214001450F8D1054875F090FB044878F055FDF1E7A3
S214001460D4F90C0018990120F4F90C00BCA901204D
S21400147030B585B004463B493B480AF03BFE3B4D41
S214001480284675F079FB2146394875F075FB2846E5
S21400149075F072FB374875F06FFB0021084645F083
S2140014A035FD08B105B030BD334B1B78002B42D05C
S2140014B000200028F6D12146304878F0F3F9FFF7EF
S2140014C0B9FF0028EED12E4875F020FE2D4B1B7874
S2140014D0BFF35B8F13F0010F36D02B4C204677F00E
S2140014E0D7FD2A4D2C632846FFF730FD00240194D3
S2140014F002940394264B0193264B0293264878F0D9
S21400150067FD039001ABAB62294624488FF002FECC
S2140015101B4D284675F00BFE22462149284675F0DD
S2140015201DFD204875F028FB284675F0B5FE0028FE
S214001530B8D10020B6E7104D284675F005FFB0FA82
S21400154080F35B092B70B4E70E48CBF07DFD0028D6
S214001550C3D00C48CBF084FD134A14490B48CBF09B
S2140015606CFDBAE77D6F0400756F040010FA0C007E
S21400157044FA0C0050FA0C00885201200C99012005
S21400158090520120C06D0020C46D00202400002071
S2140015904D0D00005D0D00001899012068CD01205A
S2140015A0750D000060FA0C0000000020E10C000041
S2140015B008B574F0E1FF08BDB0F5803F2CBF0020F1
S2140015C0012070474068E0B170B584B01D46002326
S2140015D08DF80F30BAB100230293019302AB00934B
S2140015E02B8875F015FA0446192800D030B9029EEB
S2140015F03046FFF7E1FF68B900262E80204604B08B
S21400160070BD032070472B880BB12F20F7E70DF134
S2140016100F02E0E7B6B2F0E710B50446054B0360EC
S214001620054B0360054B03600821CBF00BFD2046FD
S21400163010BD00BFD8260E0020260E00B4FB0C00FE
S21400164010B50446044B0360044B03600421CBF042
S214001650F9FC204610BD00BF002A0E00D4FB0C008B
S21400166008B54FF6FF710120FFF7AAFB08BD000082
S214001670024A0260024A0260704700BFD4FF0C00B4
S214001680C0FF0C0008B5034A02211D2045F0CAFD24
S21400169008BD00BF38FC0C0008B5034A02211D2017
S2140016A045F0C0FD08BD00BF48FC0C0008B5044A64
S2140016B002211D2045F0B6FD024BFF221A7008BD20
S2140016C058FC0C005C00002000B585B00123ADF886
S2140016D000300190034B03936846FEF7BFFF05B04A
S2140016E05DF804FB611A000000B585B00123ADF873
S2140016F000300190034B03936846FEF7AFFF05B03A
S2140017005DF804FB0917000008B50388012B00D01C
S21400171008BD4FF4FA71064875F02EFA0548064BD8
S214001720C360FEF79BFF054B00221A70F0E700BF70
S21400173074FC0C000C6E002075050000046E002082
S214001740002954D000B585B000230093019302937E
S21400175003938DF80420264B994205D0254B9942D9
S2140017601FD005B05DF804FB012A0ED0224B1B7873
S2140017709BB1224B02221A70214B00221A70214B79
S21400178003936846FEF76AFFEBE701231B4A1370D4
S2140017901B4A13701C4B0393F3E7184B00221A7076
S2140017A0EAE792B1194B002119801A7101221849F3
S2140017B00A7018490A70184A0392DA606846FEF7FB
S2140017C04DFF1248FEF74AFFCBE7104B1A71134B3A
S2140017D01B7843B10E4B02221A700E4B00221A7071
S2140017E0084B0393EAE70A4B00221A70F5E77047A6
S2140017F0A8250D0090250D000B6E0020056E00201C
S214001800256E0020511B0000611A00000C6E00209F
S214001810046E0020246E0020091700000A6E0020C7
S21400182010B50446044B0360044B03600821CBF05C
S21400183009FC204610BD00BFD4FF0C00C0FF0C0002
S214001840012800D070474FF6FF739942FAD130B5A1
S21400185085B00F4D0023039302930E4B0193022392
S21400186000930D4B0D4A0121284625F021F90C4C1A
S21400187022460C492846CBF0E0FB0B480B4B036096
S2140018800B4B036022460B49CBF0D7FB05B030BDAF
S214001890E06D0020B91800009916000085160000BB
S2140018A000000020ED6A0200FC6D0020C0FF0C0066
S2140018B0D4FF0C007116000070B50446244A0221BD
S2140018C01D2045F0AFFC237D224A13700B2B10D051
S2140018D0204B1B78FE2B23D015D8022B32D847F08E
S2140018E0A7FE03685D6923461B4A41F28831A84774
S2140018F070BDA37D194A02211D2045F093FCA27DF0
S214001900144B1A70E4E7FF2B1CD147F091FE0368D6
S2140019109B692246104998470E4BFF221A70E7E74C
S21400192047F086FE03689B690B4D2246294698477A
S21400193047F07EFE03685E6923462A464FF47A71B6
S214001940B047D5E7064A02211D2045F06BFCCFE7DD
S214001950B4FC0C005C000020AD160000CCFC0C00B3
S21400196020FD0C0010B582B004461E4B00930346C3
S214001970002201211C4816F0C9FC1C4B1860C8B197
S2140019801B4B00932346002201211A4816F0BEFC8A
S214001990194B1860B0B1FEF75DFE0022174901F042
S2140019A0CDF917492046FEF767FC044690B9204655
S2140019B002B010BD134875F0DFF840F20470FEF771
S2140019C01DFFDDE7104875F0D7F840F20470FEF70B
S2140019D015FFE0E70D4875F0CFF82046FEF70EFF3E
S2140019E0E5E700BFC916000038FD0C00206E002099
S2140019F0E916000068FD0C001C6E002094FD0C002B
S214001A00E06D002048FD0C0074FD0C00A4FD0C00E9
S214001A1008B50249FEF7ECFB08BD00BFB11D00008B
S214001A2000B583B0002200921346032109480068DF
S214001A3016F088FC28B1084B00221A7003B05DF837
S214001A4004FB064875F098F840F20670FEF7D6FEDE
S214001A50F1E700BF206E00200B6E0020C4FD0C00D6
S214001A6008B50388012B16D10D4B1B68012B13D02C
S214001A700B4B01221A600B4BB3F900300A4AB2F93D
S214001A80002007490968094875F076F8084B0022D7
S214001A901A70FFF7C5FF08BD014B00221A60EAE77F
S214001AA060000020066E0020086E0020E8FD0C0096
S214001AB0056E002010B582B00446114B186816F06B
S214001AC0F5FD78B9642300930023224604210C48D0
S214001AD0006816F037FC01280AD10A4B01221A705A
S214001AE002B010BD084875F047F8FFF799FFE9E720
S214001AF0064875F041F840F20570FEF77FFEECE709
S214001B00206E00200B6E002038FE0C0054FE0C00E9
S214001B1000B583B0002200921346032109480068EE
S214001B2016F010FC28B1084B00221A7003B05DF8BE
S214001B3004FB064875F020F840F20670FEF75EFEDD
S214001B40F1E700BF1C6E00200A6E002070FE0C003D
S214001B5030B583B0764B1B78022B05D0754B1B78BF
S214001B60022B73D003B030BDFFF75AFF724B1B68D1
S214001B70012B38D04FF44863ADF806306F4D284639
S214001B8075F0C4FA6E4C214601201EF00FF90DF1D7
S214001B90060101201EF0F8F8284675F0C8FAB4F9D8
S214001BA00030BDF9062093424CDA254601332380E7
S214001BB0624C204675F0AAFAB5F9001001201EF016
S214001BC007F9204675F0B3FA594B00221A705A4BA3
S214001BD01B685B4AB2F900205A49B1F900105A480E
S214001BE074F0CAFFBEE740F6B833ADF80630534D82
S214001BF0284675F08BFA534C214601201EF0F8F863
S214001C000DF1060101201EF09BF8284675F08FFAAC
S214001C10B4F90030BDF9062093420FDA25460133A9
S214001C202380464C204675F071FAB5F90010012065
S214001C301EF0F0F8204675F07AFAC5E7434874F0CF
S214001C409BFFC1E7414874F097FFBDE7FFF760FFD1
S214001C50394B1B68012B38D04FF4C863ADF80630FB
S214001C60364D284675F052FA354C214601201EF0B6
S214001C709DF80DF1060101201EF074F8284675F057
S214001C8056FAB4F90030BDF9062093424CDD2546DD
S214001C90013B2380294C204675F038FAB5F9001030
S214001CA001201EF095F8204675F041FA214B0022DF
S214001CB01A70214B1B68224AB2F900202149B1F95B
S214001CC00010214874F058FF4CE74FF42F73ADF81E
S214001CD006301A4D284675F019FA1A4C214601208E
S214001CE01EF086F80DF1060101201EF017F82846B2
S214001CF075F01DFAB4F90030BDF9062093420FDDE9
S214001D002546013B23800D4C204675F0FFF9B5F9BA
S214001D10001001201EF07EF8204675F008FAC5E790
S214001D200B4874F029FFC1E7094874F025FFBDE7AA
S214001D30056E0020046E00206000002090520120F6
S214001D40066E0020086E0020C8FE0C0098FE0C00F0
S214001D500CFF0C0010B582B00446114B186816F044
S214001D60A5FC78B9642300930023224604210C487E
S214001D70006816F0E7FA01280AD10A4B01221A7009
S214001D8002B010BD084874F0F7FEFFF7C1FEE9E7A1
S214001D90064874F0F1FE40F20570FEF72FFDECE702
S214001DA01C6E00200A6E00203CFF0C0064FF0C0036
S214001DB030B585B005683048FFF7D4FD002837D128
S214001DC0FEF72AFC2D4874F0D7FE4FF0FF32694626
S214001DD0284614F0ABFD0446012CF6D16946264889
S214001DE0FEF782FC00226946284614F09FFD044652
S214001DF0234B1B7823BB234B1B784BBB224B1B78F8
S214001E001BB1224B1B78022B2AD0214B1B78002BB0
S214001E10E2D0204B1B78022BDED1FFF779FE684616
S214001E20FFF796FE0023174A13701A4A1370D3E77B
S214001E300446194874F0A0FE2046FEF7DFFCBFE714
S214001E404FF47A70FFF736FE0D4B00221A70D2E779
S214001E504FF4FA70FFF77EFF0A4B00221A70CDE7A8
S214001E60FFF7DEFD6846FFF773FE0023044A137093
S214001E70064A1370C9E700BFFC6D0020A4FF0C00E3
S214001E80256E0020246E00200B6E0020056E0020BC
S214001E900A6E0020046E00208CFF0C0008B54FF67A
S214001EA0FF710120FFF7CCFC08BD00002DE9F041D2
S214001EB084B00F4616461D464468D0F80880A3B284
S214001EC00093230C0C4A02211D2045F0ABF9032C8D
S214001ED002D004B0BDE8F0812B78039602930197F8
S214001EE01FFA88F300934FEA1843044A02211D2084
S214001EF045F098F9EDE700BFE0FF0C0000000D008C
S214001F00024A0260024A0260704700BF40840D0029
S214001F10B0000D00012800D0704708B54FF6FF73DB
S214001F20994200D008BD034A03490448CBF085F81F
S214001F30F8E700BF00000020011F0000640000203A
S214001F4010B50446044B0360044B03600821CBF035
S214001F5079F8204610BD00BF40840D00B0000D008B
S214001F6010B5FEF790FE1B48FFF782FA50BB1A4CDE
S214001F701A4BD3F85C1F204647F0C2FA204647F0BB
S214001F80CBFA174C204675F0C1F88AF075FB82F044
S214001F9091F8204675F0CBF8124874F0EDFD124823
S214001FA0FFF736FD90B9114874F0E6FD04F096FC94
S214001FB044F0C4FF0E4874F0DFFDAC20FEF71EFCB4
S214001FC0002010BDAC20FEF719FCD0E7AC20FEF7D1
S214001FD015FCE8E744000D006400002068ED0120D1
S214001FE09052012058000D00FC6D00206C000D0082
S214001FF088000D0070B50446044D2B689E6801F0FD
S21400200082F9024621462846B04770BDFC6D002086
S21400201008B54FF6FF710120FFF77CFF08BD38B109
S21400202041B10160028100228280C2800120704797
S2140020300020704700207047C28892B283889BB207
S2140020409A4216D0C28892B283889BB29A4209D22C
S2140020500389828892B29B1AC08880B210FA83F0F5
S21400206080B27047C3889BB2808880B2181A80B24C
S21400207070470020704710B50489FFF7DDFF201A6F
S21400208080B210BDF8B548B30F461546044659B39E
S214002090038993422ED3FFF7EEFFA8421DD326896D
S2140020A0E3889BB2F61AB6B2B54229D92368E0880F
S2140020B03246394613FA80F0CCF012F9AA1BB91949
S2140020C02068CCF00DF9E28815FA82F5228995FB96
S2140020D0F2F302FB1355ADB2E580F8BD0D4B0E4A88
S2140020E096210E48CBF0A6FE0D4B0B4A97210B48C7
S2140020F0CBF0A0FE0B4B084A98210848CBF09AFE7E
S2140021002368E0882A46394613FA80F0CCF0E8F8CF
S214002110D9E700BFD8000D00E0000D0010010D004B
S2140021207C010D008C010D0070B516461D46DCB214
S2140021300E4B1A78A41AE4B20D48FFF79CFFA2B221
S214002140904209D20B4B2A4631460B48006818F0DD
S214002150DBFA78F0D7FF70BD044C21883144044880
S214002160FFF790FF00232380ECE700BF34700020C9
S214002170286E00202921000074010020F8B550B315
S2140021800F461546044661B3038993422FD3FFF7E3
S21400219053FFA84231D92689A3889BB2F61AB6B255
S2140021A0B5422FD92368A188324613FA81F1384602
S2140021B0CCF096F8AA1B2168B819CCF091F8A38841
S2140021C015FA83F3228993FBF2F102FB11339BB2DB
S2140021D0A380E8B2F8BD104B104AB5211048CBF0EA
S2140021E029FE104B0D4AB6210D48CBF023FE0E4BB0
S2140021F00A4AB7210A48CBF01DFE2046FFF71CFF0F
S2140022000546C8E72368A1882A4613FA81F13846AE
S214002210CCF066F8D3E700BFD8000D00AC010D0087
S21400222010010D00E4010D00EC010D0038B500F0C2
S21400223085FE4FF480720F490F48FFF7F0FE0F4DF2
S2140022400F4C2B4680220F49206818F05DFA2B466B
S21400225080220D49206818F057FA0C4B4FF4805234
S214002260C3F880211A600A4AD36C43F00403D3648F
S21400227038BD00BF346F0020286E002029210000E2
S21400228074010020346E0020B46E002000E100E0EF
S2140022900000014008B578F035FF08BD58B110B50C
S2140022A00C46014654B12246074B186818F014F83D
S2140022B038B920B210BD4FF0FF3070474FF0FF30F6
S2140022C0F8E74FF0FF30F5E774010020002830D023
S2140022D070B584B00C46054600292DD01848FFF787
S2140022E0ABFEA04207D3224629461548FFF746FF15
S2140022F000B204B070BD02F0E6FA064601AB02AAD0
S21400230003A91048006817F0B6FF0F4B1B88029A07
S214002310934203D3304602F0DCFAE4E7D21A92B2D4
S214002320039919440648FFF7ADFE074B029A1A8038
S214002330F0E74FF0FF3070474FF0FF30D9E700BFAF
S214002340286E0020740100203470002070B504460A
S2140023500A694B6952EA03001ED08868C96810EB08
S214002360000C41EB010E1CEB000C41EB0E0E4FEA8D
S2140023704E1545EADC654FEA4C161CEB060C4EEB98
S214002380050E1CEB000041EB0E01CBF0C9FB012350
S21400239023706070204670BD002323706370F9E7D9
S2140023A0D0E9020170472D2070472D20704701208C
S2140023B07047012070470000024A0260024A02602D
S2140023C0704700BF90AF0D0000030D0070474FF43C
S2140023D08060704700238360704700234360704727
S2140023E0044A026020324260034A4260034A0260A6
S2140023F0704700BF30040D001C030D00D4020D0012
S2140024000346064A40F8042C203240F80429044AC1
S2140024104260044A43F8042C704700BF30040D00A5
S2140024201C030D00D4020D00024A0260024A02603C
S214002430704700BFE86E0D00E8030D00024A026018
S214002440024A0260704700BF486E0D003C030D0054
S21400245010B50446064B036020334360054B4360CB
S214002460054B03601021CAF0EDFD204610BD00BFED
S21400247030040D001C030D00D4020D0010B50446F8
S214002480084B40F8043C203344F80439064B63609C
S214002490064B40F8043C10212046CAF0D3FD2046E7
S2140024A010BD00BF30040D001C030D00D4020D004B
S2140024B010B50446054B0360006B18B172F028FD9A
S2140024C000232363024B2360204610BDC0E40D00AA
S2140024D078020D0010B50446054B0360406B08B14A
S2140024E047F056FA00236363024B2360204610BD74
S2140024F0EC630D00AC020D0010B50446174B0360EC
S2140025006433436000F51C7048F032FA14F5EC7240
S21400251005D004F5147300E0183B9A42FCD1104B2A
S214002520E3672033C4F880300E4BC4F880300E4B7F
S214002530E36704F13800A36D13B10022A265984743
S21400254004F10800A36A13B10022A2629847074B61
S2140025506360074B2360204610BD00BF2C6B0D0048
S21400256030040D001C030D00D4020D00E8020D001F
S2140025708C030D0038B505460446194B40F8043C5C
S214002580643344F8043900F51B7048F0F1F915F58A
S214002590EA7205D004F5147300E0183B9A42FCD1A9
S2140025A0104BE3672033C4F880300F4BC4F88030FC
S2140025B00E4BE36704F13800A36D13B10022A26549
S2140025C0984704F10800A36A13B10022A262984754
S2140025D0074B6360074B45F8043C204638BD00BFF8
S2140025E02C6B0D0030040D001C030D00D4020D00F2
S2140025F0E8020D008C030D000E4B1B78BFF35B8FBB
S21400260013F0010F01D00C48704710B50948CAF006
S2140026101BFD08B9084810BD074C084B2360084B43
S21400262023600448CAF01CFD064A07492046CAF043
S21400263004FDEFE7387000203C70002000030D001A
S21400264090AF0D0000000020B923000010B504462E
S214002650054A01210C2044F0E5FDE06810B103684E
S2140026609B68984710BD00BF08020D0010B50446D1
S214002670054A01210C2044F0D5FDA06810B103687E
S2140026809B68984710BD00BF08020D0030B583B0A8
S214002690C068D8B10D4614461A68019200221A6026
S2140026A001AA214629F060FA019808B147F070F9AE
S2140026B0002301930C4B1B680093A3886BB12B89F6
S2140026C043F040032B81002003B030BD074A0121B0
S2140026D00C2044F0A7FD0020F6E7E388002BEED19F
S2140026E02378402BEBD1EEE768040D001C020D00AA
S2140026F030B583B08068D8B10D4614461A6800928B
S21400270000221A606A46214629F02EFA009808B17F
S21400271047F03EF9002300930C4B1B680193A388F7
S2140027206BB12B8943F040032B81002003B030BDF2
S214002730074A01210C2044F075FD0020F6E7E388E7
S214002740002BEED12378402BEBD1EEE768040D008A
S2140027501C020D00F0B587B006460C46224A03213F
S214002760152044F05FFDB568002D2DD00023ADF890
S21400277010301E4B1B68039323893BB31C4A126818
S214002780039253B30123ADF81030277B606847F0FF
S21400279055F86368059304AB009305AB3A46A16809
S2140027A0284645F0CFF80446059808B147F0F0F8FB
S2140027B0002305932CB1B06818B144F0FBFE00234B
S2140027C0B360204607B0F0BD0320FBE76289022A0B
S2140027D0D4D1227B142AD1D1D7E76389002BD1D15B
S2140027E0237B402BCED1D0E750020D006C040D00A9
S2140027F068040D00012800D070474FF6FF73994219
S214002800FAD170B58AB04C4B4C4A1A604C4A5A60A2
S2140028104C4A1A6064325A6003F10802DA609A6021
S21400282000229A62DB6248491963CDF804D0CDF8DD
S21400283000D0089203F13801D96399639A65DB6585
S214002840424919669A66DA661A6783F874209A67A8
S2140028503F49D9673F49C3F880103F49D9672031BF
S214002860C3F8801083F8AC20C3F8B820C3F8BC20A7
S214002870C3F8C020C3F8C420C3F8C821C3F8CC21CD
S21400288083F8D021C3F8D421042203F5EC7303E0C7
S214002890002103F8181B013A002AF9DA264800241A
S2140028A0C0F850420523C0F8543280F85842C0F8A9
S2140028B07442C0F87842294BC0F8703280F87C42E7
S2140028C0274E32462749CAF0B8FB324626492748E3
S2140028D0CAF0B3FB324626492648CAF0AEFB264D60
S2140028E0264B2B606C602C722846254B40F8103B1C
S2140028F08FF036FDC5F8D040C5F8D440C5F8D840AE
S214002900C5F8DC4032461F492846CAF096FB1E48EA
S2140029101E4B036000220023C0E90223C0E9042303
S2140029201B4B03608461C4610463446332461949E7
S214002930CAF083FB0AB070BD587100208C030D00EE
S214002940E8020D002C6B0D0071E10200E9CB0200DD
S214002950D4020D001C030D0030040D00F8BB0D0062
S21400296000000020F9240000292400006C0000204C
S2140029703D2400007400002040700020AC020D00D2
S214002980EC630D00D52400002071002078020D00B5
S214002990C0E40D00B124000010B50446044B0360EB
S2140029A0044B03600421CAF04DFB204610BD00BF57
S2140029B090AF0D0000030D00F0B583B00F4F384602
S2140029C029F05AFF0E4901F50053D3F85C3F0D4A33
S2140029D053600D4E0D4D0095334638462AF058FC90
S2140029E00B4B33610B4C2246394630462BF080FFAA
S2140029F0094B636325626C6003B0F0BD587100201C
S214002A0068CD01206C00002074000020407000207B
S214002A10805101002071002064020D0010B50446AC
S214002A20194B03606433436000F51C7047F0A0FF49
S214002A3014F5EC7205D004F5147300E0183B9A42C6
S214002A40FCD1124BE3672033C4F88030104BC4F837
S214002A508030104BE36704F13800A36D13B10022F9
S214002A60A265984704F10800A36A13B10022A26287
S214002A709847094B6360094B23604FF42271204648
S214002A80CAF0E0FA204610BD2C6B0D0030040D0095
S214002A901C030D00D4020D00E8020D008C030D008F
S214002AA038B5054604461B4B40F8043C643344F8EE
S214002AB0043900F51B7047F05BFF15F5EA7205D088
S214002AC004F5147300E0183B9A42FCD1124BE367FE
S214002AD02033C4F88030114BC4F88030104BE367C5
S214002AE004F13800A36D13B10022A265984704F1E3
S214002AF00800A36A13B10022A2629847094B6360DC
S214002B00094B45F8043C4FF422712046CAF09AFA65
S214002B10204638BD2C6B0D0030040D001C030D0044
S214002B20D4020D00E8020D008C030D0010B504461B
S214002B30044B0360044B03600821CAF083FA204666
S214002B4010BD00BFE86E0D00E8030D0010B504468A
S214002B50044B0360044B03601C21CAF073FA204642
S214002B6010BD00BF486E0D003C030D0010B50446B6
S214002B70074B0360406B08B146F00AFF002363630F
S214002B80044B2360E0212046CAF05CFA204610BDC4
S214002B90EC630D00AC020D0010B50446074B036055
S214002BA0006B18B172F0B4F900232363044B236062
S214002BB038212046CAF046FA204610BDC0E40D0073
S214002BC078020D0008B54FF6FF710120FFF712FEE0
S214002BD008BD000000B583B008480368198880392E
S214002BE001EBD171064B01932D2300938023002225
S214002BF0491018F0F9FB03B05DF804FBE073002001
S214002C00BC080D0030B584460D4C00F1200E25465C
S214002C10DCF80000DCF80410DCF80820DCF80C30E7
S214002C200FC50CF1100C2C46F445F0D12B46DCF801
S214002C300000DCF80410DCF8082007C330BD00BF35
S214002C40E073002010B584B00446FFF7C3FF2046AB
S214002C50CBF0EEFF142803D918F098FA04B010BD94
S214002C600123029300220192009205222146024887
S214002C7018F0F3FCF0E700BFE073002000B583B067
S214002C800B4B1B681988403901EBD17149105A88E3
S214002C90453A58B1074B019340230093044818F077
S214002CA0A3FB18F073FA03B05DF804FB024BF2E7DF
S214002CB0E073002070060D0070040D0010B582B0A1
S214002CC00446B8B908210F4B1B685A88453A02EBF0
S214002CD0D27302EB63027CB910237CB912207CB954
S214002CE0094C01940090074818F07EFB18F04EFA45
S214002CF002B010BD6821E6E71223EEE71120EEE7EA
S214002D00024CEEE7E073002098080D0070080D00F6
S214002D1010B50446084818F007FB2046FFF792FF58
S214002D200020FFF7ABFF00210846FFF7C7FF002192
S214002D300120FFF7C3FF10BDE0730020F8B504467E
S214002D401746002579B10E460846CBF071FF1428C9
S214002D5004D9204873F010FF2F2026E0314604F1F6
S214002D60B000CBF05DFF00F0FBF80146F0B90020A4
S214002D7018F0DEF90146F0B904F18406304618F082
S214002D809FFA0146E0B96FF07F43C4F8883000230D
S214002D90C4F88C30304618F0C7FA0146A8B9304659
S214002DA0FFF730FF84F8C5702846F8BD0A4873F070
S214002DB0E3FEAC25DBE7094873F0DEFEAC25DBE777
S214002DC0074873F0D9FEAC25DDE7064873F0D4FE5D
S214002DD0AC25E4E78C0B0D00A00B0D00C00B0D001E
S214002DE0D40B0D00F00B0D0008B5843018F09CFADB
S214002DF008BD10B50446FFF7F7FF04F1B000FFF773
S214002E0087FF94F8C500FFF739FF10BD802A00D968
S214002E10704708B5CBF064FA08BD2DE9F047814647
S214002E20884617461E469DF820A000250AE07A1917
S214002E3008EB040109F1840018F09DFA0134A6425B
S214002E40F5DC0135AA4501DD0024F8E7BDE8F0878A
S214002E502DE9F04184B08046012303934FF0FF3301
S214002E60029304230193009300231E4A1E49A7F0F1
S214002E70ADFB80B11B48A6F001FD064608F18400B4
S214002E8018F052FA06EB4607C7F1800707EBD7772C
S214002E907F1000251DE0154873F06EFE1FE001341C
S214002EA0B44215DA2A4621460E48A7F015FA00283D
S214002EB0F5D0F9B205EB45020A4404EB4403194485
S214002EC003230093D2B2C9B24046FFF7A6FFE6E757
S214002ED00135B54201DA0024E2E718F057F904B0EC
S214002EE0BDE8F081987400200C740020080C0D00DA
S214002EF038B504460D4690F881308B4206D045B171
S214002F002046FFF7A5FF84F8815038BD002AFCD084
S214002F10F5E72046FFF76DFFF5E710B5044690F895
S214002F20813043B1FFF765FF94F8813083F00103E9
S214002F3084F8813010BDFFF78BFFF5E708B5012355
S214002F4004220521002002F0F5FA002008BD08B58D
S214002F50002304220521184602F0ECFA002008BDE2
S214002F6008B5012304220F21032002F0E3FA002013
S214002F7008BD000008B50121034800F013FF15F056
S214002F80CBFB17F0DBFD08BD00350A0008B50121B4
S214002F90014800F007FF08BD00350A0008B50D4BD4
S214002FA0D3F82828A2F17E63A3F58433B3F5104F37
S214002FB00DD2094B1B781BB1022B01D0002008E074
S214002FC0D369984728B9044B01221A7001E04FF4E0
S214002FD0817008BD0000E10F227500204FF00053FD
S214002FE040F202221A804FF20F025A800A4A012348
S214002FF09360136823F4E06343F480631360BFF3C5
S2140030004F8F0649CA6802F4E062054B1343CB6053
S214003010BFF34F8F00BFFDE700500E4000ED00E00D
S2140030200400FA0508B50A4BD3F82828A2F17E63F7
S214003030A3F58433B3F5104F09D2126BA2F17E6369
S214003040A3F58433B3F5104F01D25368984708BDF3
S2140030500000E10F08B50D4BD3F82828A2F17E63D7
S214003060A3F58433B3F5104F0AD2126BA2F17E6338
S214003070A3F58433B3F5104F05D29368984701E063
S2140030804FF4817008BD4FF48170FBE70000E10F3C
S21400309000B583B001900F4BD3F82828A2F17E63C9
S2140030A0A3F58433B3F5104F0CD2126BA2F17E63F6
S2140030B0A3F58433B3F5104F09D29369012101A813
S2140030C0984701E04FF4817003B05DF804FB4FF4BD
S2140030D08170F9E70000E10F10B50A4BD3F82848D5
S2140030E0A4F17E63A3F58433B3F5104F04D2236BAB
S2140030F02BB15B6A984701E04FF4017010BD4FF4A6
S2140031000170FBE70000E10F08B50D4BD3F8282847
S214003110A2F17E63A3F58433B3F5104F0AD2126B87
S214003120A2F17E63A3F58433B3F5104F05D2936AFC
S214003130984701E04FF4017008BD4FF40170FBE7BB
S2140031400000E10F30B5E1B0124BD3F82838A3F1F8
S2140031507E63A3F58433B3F5104F15D20C464FF4B7
S214003160C0726946FFF7B8FF054678B9214668463B
S214003170FFF7CAFF40F201239842F7D040F203233C
S214003180984203D0054601E04FF40175284661B029
S21400319030BD00BF0000E10F10B50D4BD3F8284836
S2140031A0A4F17E63A3F58433B3F5104F0AD2246BE3
S2140031B0A4F17E63A3F58433B3F5104F05D2A36B59
S2140031C0984701E040F2011010BD40F20110FBE705
S2140031D00000E10F08B50D4BD3F82828A2F17E6356
S2140031E0A3F58433B3F5104F0AD2126BA2F17E63B7
S2140031F0A3F58433B3F5104F05D2D36B984701E09F
S21400320040F2011008BD40F20110FBE70000E10F9C
S2140032102DE9F04190B01D46344BD3F82838A3F181
S2140032207E6CACF5843CBCF5104F51D206460C467D
S21400323017461B6BA3F17E63A3F58433B3F5104FDB
S2140032404BD201A8FFF7EEFE059BD3F80C801FFAC1
S21400325088F3002B44D00EA93046FFF7FBFEC8BB10
S2140032600E9E63190F9A93423DD81FFA88F8B4FB56
S214003270F8F208FB1242F2B1C8F1000C0CEA0400A6
S2140032804044B3FBF8F108FB113179B103EA0C01B5
S2140032908844A8EB0001304411B1FFF79BFFC8B982
S2140032A02A4639463019FFF777FF13E0A2EB0808E5
S2140032B008EB0501EFE73019B5FBF8F308FB1353ED
S2140032C023B1C8F1000129404144E5E72946E3E778
S2140032D04FF4817010B0BDE8F0814FF48170F9E7CB
S2140032E040F20140F6E740F20240F3E70000E10F4B
S2140032F003680B600160704708B543680BB19847D8
S21400330008BD2220FCE708B543690BB1984708BD05
S214003310FF20FCE70B681A78022A00D1704710B528
S21400332008461A79597902EB42021201064C1444F7
S21400333001EBC40292001268B2FA82F252091A70C5
S214003340FEF758FE10BD00BF1CA0100230B583B0BB
S214003350054604680121174800F024FD00230122D9
S2140033606179207902F0E6F82379627903EB43036A
S2140033701B011149194402EBC1039B001B68B3FAF9
S21400338083F35B092370A379022B02D0002003B0DD
S21400339030BD00F057FB2A460849607900F07AFBFA
S2140033A002466179207901230193009302F044F8E4
S2140033B0ECE700BF00350A001CA010021533000021
S2140033C0036818787047000002681378022B17D03D
S2140033D01379517903EB43031B011648184401EB9C
S2140033E0C0039B001968B1F1000C18BF4FF0010C28
S2140033F09079012805D018B9B1FA81F14909117000
S214003400704753885B009BB243EA0C0343F47F4348
S21400341043F0C0034FF6E0718B4205D04FF6DF71E4
S2140034208B4204D05380704701211170F6E70021CB
S2140034301170F7E71CA0100208B503681A78022A74
S21400344000D008BD00225A80FFF780FFF9E710B5CC
S21400345082B004682378022B04D0A379022B03D011
S2140034600223237002B010BD0021607900F002FB39
S214003470617920790023019300930A4601F0DCFF6E
S214003480EEE708B543680068984708BD08B5836846
S2140034900068984708BD08B5C3680068984708BD27
S2140034A008B503690068984708BD08B54369006811
S2140034B0984708BD10B504460121094800F072FC83
S2140034C00121084800F06EFCA378B3FA83F35B0989
S2140034D004226178207802F02DF8002010BD00BF8D
S2140034E04041050000350A0083784BB903784278DE
S2140034F003EB43031B0101219140064AD15070475C
S2140035000378427803EB43031B0101219140024AF2
S214003510D15070470CA000440CA0004683784BB9ED
S2140035200378427803EB43031B0101219140064ACE
S214003530D15070470378427803EB43031B01012107
S2140035409140024AD15070470CA000460CA000449F
S2140035500378417801228A4003EB43031B0103F101
S214003560804303F520439A617047000002460378C3
S214003570417803EB43031B010648184401EBC003E4
S2140035809B001868C0B2937813B9B0FA80F040096F
S214003590704700BF0CA01002F0B585B00C469446EC
S2140035A09DF83410664A1278002A00F0BD80054661
S2140035B0BCF1070F00F2BA800A9A002A00F0B88021
S2140035C00B9A002A00F0B6800E9AB2F5006F00F350
S2140035D0B38001285BD05B4A02EB0C12127B002AF8
S2140035E000F0AC8000220092019202920392564AAA
S2140035F002EB4C1E002C4FD14FEA4C160020905187
S214003600CEF80400CEF80800CEF80C009EF80200B3
S21400361040F010008EF802009EF8030040F03000E4
S2140036208EF8030021B9C1B241F003018EF80310F1
S21400363000930E9B013B444A4FEA4C1002EB4C11A0
S214003640165A63F30E1616520A9B8B600B9B4B6042
S214003650CB789DF83C2062F38303CB70012D36D0E7
S214003660109B002B56D0374A4FEA0C1102EB0C1376
S21400367010985050119A5A6000249C605D737246F0
S2140036806946604601F0FAFF204605B0F0BD0C9A88
S214003690002AA0D12D48F8E72B4F4FEA4C1607EB2F
S2140036A04C120020B85150609060D060907840F086
S2140036B010009070D07840F00300D0700029B7D189
S2140036C007EB4C12C1B241F03001D170B0E70E46A4
S2140036D00A7B42F001020A73D2B242F002020A7377
S2140036E0CA68042161F39F02F26006F1100796E8AB
S2140036F00F0087E80F00F2696FF0030161F39F0285
S214003700F2610C9B7361012CAAD10B9AB2610C9AE0
S2140037107260A5E7002DA6D10B4B03EB4C139A78ED
S2140037206FF304129A709EE70948AEE70748ACE7C5
S2140037300648AAE70548A8E70448A6E70548A4E718
S214003740A476002024750020A4750020018000F0D7
S214003750028000F0078000F0134B1B78FBB110B519
S2140037600446F0B101F0AFF80023072B13DC0F4A34
S21400377002EB0312127B0AB10133F6E723600B4A11
S214003780190102EB031301241C730024545001F0AA
S214003790A0F8204602E001F09CF8054810BD054858
S2140037A070470548FAE700BFA4760020247500207D
S2140037B0048000F0028000F0018000F000B583B0C5
S2140037C0144B1B68019300238DF8043001F07BF83E
S2140037D0114B1B7833B9104B01221A7001F079F89F
S2140037E0002309E001F075F80C480FE00C4A02EBE4
S2140037F00312002111730133072BF7DD04238DF824
S21400380007300DEB030001F00FFF002003B05DF85A
S21400381004FB00BF280C0D00A4760020038000F0F7
S2140038202475002000B589B084460E9807900D9840
S21400383006909DF8300005900B9804909DF828009F
S214003840039000200290019300920B4662460121ED
S214003850FFF7A2FE09B05DF804FB000008B50A4BAE
S2140038601B785BB107280BD8084B03EB00131B7BB8
S21400387043B1002101F0CEFE002008BD0448FCE75D
S2140038800448FAE70448F8E7A476002024750020E8
S214003890028000F0018000F0078000F008B50A4BB7
S2140038A01B785BB107280BD8084B03EB00131B7B78
S2140038B043B1012101F0AEFE002008BD0448FCE73C
S2140038C00448FAE70448F8E7A476002024750020A8
S2140038D0028000F0018000F0078000F0114B1B789A
S2140038E0BBB1072817D8C1B10F4B03EB00131B7BE6
S2140038F0ABB11F280AD80D4B1A6AC0B2012303FACF
S21400390000F0024202D00B700020704700200870C2
S214003910704707487047074870470648704706488C
S214003920704700BFA47600202475002000200E40BB
S214003930028000F0018000F0078000F00C4B1B783E
S21400394073B110B50C4607280CD869B1094B03EBC8
S21400395000131B7B53B101F0E5FE2060002010BD74
S214003960054870470548FAE70448F8E70448F6E7CC
S214003970A476002024750020028000F0018000F06C
S214003980078000F0F8B5194B1F6EDB6E1F4002D49F
S2140039900125002402E0FEE701346D00072C24D840
S2140039A03D42F9D0114B9D662301114AD358002B96
S2140039B0F2D002EB0416B1680131B160726820469D
S2140039C0984780F00100C0B2737B012BE4D1002839
S2140039D0E2D0084B03EB44131A7B6FF341021A73D1
S2140039E01A7F6FF341021A77D6E7F8BD00200E4023
S2140039F024750020A475002010B5044602E020209F
S214003A0007E09047DCB194FAA4F00028F7D0B0FAAB
S214003A1080F00123834024EA0304094B03EB0013E0
S214003A205A68002AEED0064B03EB00131B7B002BD4
S214003A30E7D0034B03EB001399689047E2E710BD0D
S214003A40A876002008B5122000F046FF28B1084BE3
S214003A504FF48022C3F880211A600A2000F03CFF51
S214003A6028B1034B4FF48062C3F880211A6008BD6A
S214003A7000E100E038B505460C4600F024FF044B94
S214003A8003EB05135C6000221A7300F022FF38BDBA
S214003A90A8760020F8B505460F46164600F013FF38
S214003AA005F0FC0C104BD3F828140023032B0CD87D
S214003AB0EC1804F0030444EA0C0421FA04F212F0B1
S214003AC0010F03D00133DBB2F0E7FF24FF2C06D052
S214003AD0064B03EB04135F609E6001221A7300F02E
S214003AE0F8FE2046F8BD00BF00A00040A8760020E3
S214003AF008B5064BD3F82804D3F81C24104000F071
S214003B005530C3F82404FFF777FF08BD00A0004037
S214003B1008B5064BD3F82804D3F81C24104000F050
S214003B20AA30C3F82404FFF767FF08BD00A00040D2
S214003B3008B5034B1968034B1868C8F0AFFC08BDFE
S214003B40E4000020E0000020B0F1FF3F01D010B9F3
S214003B507047024870470248704700BF21E000F0F7
S214003B6024E000F08908002301E0043001338B4292
S214003B7005D20268B2F1FF3FF7D00020704701205F
S214003B8070477047F8B505460E469400224601F089
S214003B90FFFEFFF7D9FF074628B9224631462846DA
S214003BA0CAF08EFB08B93846F8BD014FFBE700BFE8
S214003BB010E000F008B50346084613F0030F02D1E4
S214003BC011F0030F0AD092001946CAF089FB0020B4
S214003BD008BD53F8041B40F8041B013A002AF8D12C
S214003BE0F5E7000038B5044601F074FEFFF7ACFFB9
S214003BF0054660B9084BD3F8E4301B0E0A3303F0D1
S214003C001F03012199402046FFF7ACFF08B1284664
S214003C1038BD024DFBE700BF0081E00F0EE000F06C
S214003C2010B582B0044601A801F076FF9DF8063074
S214003C3023800122E270A270064BD3F8E4301B0EFC
S214003C400A3303F01F0302FA03F36360002002B096
S214003C5010BD00BF0081E00F08B501F093FD08BD60
S214003C6008B501F07FFD002008BD000008B500F093
S214003C7023FE014B186008BD187C002008B5024BD7
S214003C80186800F01DFE08BD187C00207047000074
S214003C900C4B984205D90C4B984210D801210A4685
S214003CA001E000210A46094B1A64094AD2F800319D
S214003CB023F0807343EA0163C2F8003170470221A3
S214003CC00122F0E70048E8010090D0030000C84356
S214003CD000400E40014B1868704700BF04010020EA
S214003CE0114B5B68002300E00133042B0CD80F4A0D
S214003CF002EBC30292F804C0CAB29445F4D10B4A50
S214003D0052F833208242EFD3052B0BD0074A02EB42
S214003D10C3035979044A536823F0407343EA0163A6
S214003D20536070470321F5E700000E40500C0D006D
S214003D3003300F2828BF0F200007704708B517F07C
S214003D40F3FC044BD3F80031C3F3042303FB000059
S214003D5008BD00BF00400E4038B5084B1C6CA4B22E
S214003D6041F671351D6417F0DBFC0021FFF7B8FF44
S214003D70AC4202D0014B00221A6438BD00000E404F
S214003D8038B5074B1C6CA4B241F671351D64FFF7BD
S214003D90A7FFAC4202D0024B00221A6438BD00BF17
S214003DA000000E4010B4C0F30323013B092B21D8BA
S214003DB0DFE803F00508202030232620292D0024E4
S214003DC0164A01E00024164AC0F3043054B1134BDF
S214003DD0D3F8443113F0010F04D1104BD3F840311F
S214003DE01C42FAD102F1424303F5801300EBC300F4
S214003DF0800001605DF8044B70470124094AE3E740
S214003E001024094AE0E74FF48034084ADCE700242F
S214003E10074AD9E70024074AD6E700BF00400E400D
S214003E20C0400E40E0400E40E8400E40F0400E40DD
S214003E3050410E40B0400E40C0F30313013B092B27
S214003E406BD8DFE803F0050B111B6A6A2127415F78
S214003E50334BD3F80001C0F304207047304BD3F83F
S214003E601401C0F3042070472D4BD3F80001C0F3B3
S214003E700060431C0120984001387047284BD3F857
S214003E800C01C0F308207047254BD3F80801C0F397
S214003E9008207047234B984204D0234B98420AD000
S214003EA0002070471E4BD3F8203103F00F0301208B
S214003EB09840013870471A4BD3F82031C3F30113EA
S214003EC00120984001387047184B984207D003F5F8
S214003ED0B01303F5805398420AD000207047104B69
S214003EE0D3F82831C3F301130120984001387047F6
S214003EF00B4BD3F82801C0F30120031D0120984086
S214003F00013870470A4B984201D000207047044B96
S214003F10D3F8300100F0030070470020704700BF60
S214003F2000400E408006160080162E0090171A00DD
S214003F30A009140008B5FFF77FFF013008BD000098
S214003F4000F00F000138072865D8DFE800F0041BF2
S214003F502A643E4D64553B4BD3F8943003F0070378
S214003F60023B052B0CD8DFE803F0055803070B09C6
S214003F7002207047042070470B2070470C207047C3
S214003F80052070472F4BD3F8803003F00703022B31
S214003F9045D0042B45D0012B01D0012070470320CB
S214003FA07047284BD3F8843003F00703013B032BFC
S214003FB009D8DFE803F002380604032070470A2019
S214003FC0704706207047012070471E4BD3F8883094
S214003FD003F00703022B28D0042B28D0012B01D096
S214003FE00120704703207047164B1B6F13F0010328
S214003FF01FD003B309207047124BD3F85C3103F08F
S2140040003003202B19D0302B19D0102B01D00120D3
S2140040107047072070470020704703207047022033
S21400402070470A20704702207047022070470A2017
S214004030704707207047012070470420704708200B
S214004040704700BF00400E4010B50446FFF778FFEB
S2140040501B4B9C4212D01B4B9C4215D01A4B9C42C9
S21400406006D00138032828D8DFE800F014171D1AF8
S214004070164BD3F8800000F00700F2E7134BD3F896
S214004080840000F00700ECE7104BD3F8880000F03F
S2140040900700E6E717F0ACFB10BD17F0AFFBFBE739
S2140040A017F0A9FBF8E717F03FFB084BD3F80031F1
S2140040B0C3F300630133D840EEE70020ECE700BF0F
S2140040C0030020000500240002001E0000400E40F1
S2140040D008B50748FFF734FF072804D0092805D19C
S2140040E017F022FB03E0FFF7F5FD00E0002008BD17
S2140040F006000E0008B10020704710B504460A48B6
S214004100FFF71EFF072805D0082809D0042804D08A
S214004110204610BDFFF7DEFDFBE717F043FBF8E790
S214004120FFF70CFEF5E700BFB800320038B500F424
S2140041307813B3F5B01F00F0938005463BD8B3F56F
S214004140402F00F0828010D9B3F5801F00F0AA80BF
S214004150B3F5A01F27D15748FFF776FF564BD3F885
S214004160303103F00303D8401CE0B3F5802F61D054
S21400417005D9B3F5202F14D117F0D6FA12E0002B8C
S21400418055D0B3F5003F0AD117F0CEFA4A4BD3F814
S2140041900831C3F308230133B0FBF3F002E000203C
S2140041A000E0002038BDB3F5602F02D1FFF790FF86
S2140041B0F8E70020F6E7B3F5381F5BD00ED9B3F565
S2140041C0481F72D0B3F5781F21D117F0ADFA044618
S2140041D02846FFF7AFFEB4FBF0F0E3E7B3F5001FA9
S2140041E052D006D9B3F5101F0FD13248FFF72CFF77
S2140041F0D8E7B3F5D01F4BD0B3F5F01F03D12F4847
S214004200FFF722FFCEE70020CCE70020CAE7B3F591
S214004210401F0AD12A48FFF717FF274BD3F828314B
S214004220C3F301230433D840BCE70020BAE717F0F5
S2140042307BFAB7E717F078FA1F4BD3F80C31C3F3C5
S21400424008230133B0FBF3F0ACE717F06DFA1A4B16
S214004250D3F81431C3F304230133B0FBF3F0A1E722
S2140042601648FFF7F1FE144BD3F8203103F00F0386
S214004270D84097E71148FFF7E7FE0F4BD3F82031F9
S214004280C3F30113D8408DE70D48FFF7DDFE89E73D
S2140042900B48FFF7D9FE084BD3F82831C3F30113B8
S2140042A0D8407FE7FFF716FD7CE70020FFF722FFE8
S2140042B078E700BF0500240000400E4002001E0004
S2140042C00300200008B5FFF73BFE022802D04FF699
S2140042D0FF7008BD014B1888FBE700BF08010020EF
S2140042E0014B1868704700BF94020020014B1880ED
S2140042F0704700BF080100200138032818D8DFE8FF
S21400430000F00211070C0B4B186AC0F30800704748
S214004310084B186900F07F007047064B986900F05C
S2140043207F007047034BD3F89C00C0F30A00704729
S2140043300020704700400E4038B50C460138032870
S21400434012D8DFE800F0022E1220C1F308041F4B3B
S214004350D3F86838002BFAD11D4A136A23F4FF738A
S21400436023F001032343136238BD01F07F04174B8B
S214004370D3F86038002BFAD1154A136923F07F036F
S2140043801C431461F0E701F07F04104BD3F8643847
S214004390002BFAD10E4A936923F07F031C439461E5
S2140043A0E2E70B4DD5F890306B6A23F0300343F00C
S2140043B010036B62C1F3C310FFF7BAFC2A6B054B00
S2140043C01340234303432B63CEE700BF0020C843BC
S2140043D000400E4000F8FF0F134B5B6A13F0300FDF
S2140043E009D0202914D0302915D009B10F4A04E08D
S2140043F04FF4400201E04FF440020B4BD3F89030EC
S21400440032EA0303F9D112F4800F07D10120704776
S2140044104FF40002F1E74FF44002EEE7024BD3F808
S214004420A000C0F38020704700400E40FF33E10735
S214004430022801D00120704710B529B1054B4FF472
S2140044408064C3F8A84059660AB9012010BDFFF77A
S214004450C3FFFBE700400E4070B5042800F28580DD
S214004460DFE800F0484250033C0002230125002408
S214004470AC46002967D002284AD000213B4B1D6677
S2140044803B4B23449B001B68002BF9D0002A6CD0C2
S214004490374C6444A4002368002BF9D0022864D16A
S2140044A0002962D0314B5B6A13F0010F46D001221F
S2140044B02021FFF7BDFF0220FFF71EFF0646012260
S2140044C000210220FFF7C8FF31460220FFF734FF25
S2140044D0264B1D662368002BFCD046E020231025C3
S2140044E004244FF0050CC4E78023402506244FF033
S2140044F0070CBEE74FF400734FF4807508244FF0A6
S214004500090CB6E70823042502244FF0030CB0E795
S214004510164B5B6A13F0300F0ED1164BDB6B134B4A
S2140045205B6A13F0010FA9D0104E736A23F03003B4
S21400453043F010037362A1E700219FE700210220E9
S214004540FFF74AFFB7E709490B66084BD3F8901008
S2140045500123A3401942F8D13AB1044BD3F8902076
S214004560012303FA0CF31A42F7D170BD00400E4047
S2140045708004F21000300E4070B505460C46112837
S2140045800CD0002605F00F056B1E072B00F2878067
S214004590DFE803F01E7A1C856F9985A5042903D0F1
S2140045A005290BD00026EDE717F0FCF80646002E8E
S2140045B0E8D00021304600F0F9FCE3E7FFF790FE74
S2140045C00646604B9842F2D80026DBE75E4D51E087
S2140045D0023C0A2C63D8DFE804F00644093F626216
S2140045E0626262474A000020042504E05748FFF74D
S2140045F04FFB0220054601221146FFF72DFFFFF76D
S214004600ABFB4EB1524BDB6B13F0400F04D1514B5A
S214004610D3F8C830002BFAD14F4B5D6717F0B0F8CF
S214004620044617F081F8FFF733FB494BDB6B13F0BA
S214004630400F04D1474BD3F8C830002BFAD1444B77
S2140046405968C1F301412046FFF79AFB3EBB0121A2
S214004650002000F0ABFC22E03C48FFF719FB0320EB
S214004660C9E701200325C6E703200525C3E707257C
S214004670C5E73A4D013C092C11D8DFE804F00709DC
S2140046801110101810101022354DF3E7002305E026
S214004690012211460020FFF7DFFE02232B6070BDCB
S2140046A0012211461046FFF7D7FE0123F6E717F062
S2140046B03BF8FFF7EDFA2B4B0122C3F8082603233D
S2140046C0ECE70423EAE7072C05D0092CE7D1224BB8
S2140046D001221A67E3E7204B00221A67DFE7013C56
S2140046E0072CDCD801A353F824F000BF0D470000C8
S2140046F09F4600009F460000314700009F4600008E
S2140047009F460000114700003F470000002105E0DB
S214004710012211460420FFF79FFE01210E4AD2F81F
S2140047205C3123F0300343EA0113C2F85C31B6E78C
S214004730012211460220FFF78FFE0221EEE7032139
S214004740ECE700BF002D310184400E400148E8012F
S21400475000300E400000C64300400E4088400E4029
S21400476080400E400010C84370B50C4615460AB18E
S2140047701D4B1B6817F016F80646012100F016FCC4
S214004780ADB904B925B1012211460220FFF764FE37
S214004790164B5A6A22F0405214B34FF080530DB3B2
S2140047A04FF000510B431343104A536270BD0E4B3B
S2140047B0DB6B13F0400F04D10D4BD3F8C830002B41
S2140047C0FAD1094B5968C1F301413046FFF7D8FAD0
S2140047D01120FFF7AFFBB6FBF0F0FFF759FAD0E772
S2140047E00023DCE70021DDE700300E4000400E40ED
S2140047F00000C64370B504461120FFF7A1FB012256
S21400480000210220FFF728FE237C022B2AD000225C
S214004810154E736A23F00103134373622278134B19
S214004820C3F8A024A288637A43EAC223F362356BF6
S21400483005F07F65E38845EAC325A37A1D43207A01
S21400484045EAC015FFF774FA05433563627BA37B20
S2140048501B0143EA0233E27B1343227B43EA024313
S214004860736370BD0122D3E700400E400000C843CA
S21400487038B505461120FFF763FB0D4A916B0D4BCB
S2140048800B402C781C436B7844EAC324AB7844EA8C
S2140048900364EB7844EA0324936BA34200D138BD4B
S2140048A0012200210846FFF7D7FD014B9C63F6E77F
S2140048B000400E4080E4FFF8EFF3108072B67047B9
S2140048C000B962B67047EFF31180602383F3118856
S2140048D0704780F3118870474209064B53F8223020
S2140048E000F01F0023FA00F080F0010000F0010045
S2140048F0704700BF00E100E0EFF3108313F0010FF4
S21400490036D110B50446FFF7E7FF00B110BD002C06
S21400491022DB04F1604404F5614494F80023520954
S214004920EFF3118313B1B2EB531F23D2124B5B6824
S214004930C3F30803002BE9D0103BD9B25BB2002BBF
S21400494010DB03F1604303F5614393F800335B0922
S2140049509A42DBD30120D9E704F00F04074B1A5D17
S2140049605209DDE701F00F01044B5B5C5B09EFE7E2
S214004970012070470120C9E700ED00E014ED00E0DB
S21400498030B40D684C688A68CB68056004600260C5
S214004990036030BC704730B405680468026803687A
S2140049A00D604C608A60CB6030BC704708B5FFF77E
S2140049B0E7FF08BD00B585B084460B4611F0030F2F
S2140049C00DD0EE46086849689A68DB68AEE80F00C6
S2140049D069466046FFF7EAFF05B05DF804FB009104
S2140049E00099FFF7E3FFF7E708B5FFF7D4FF08BD28
S2140049F010B584B00C4611F0030F0BD06946FFF7D4
S214004A00F3FFEC46BCE80F0020606160A260E36044
S214004A1004B010BD00910099FFF7E6FFF8E738B53F
S214004A2004460D46FFF7ACFF05F110012046FFF7E0
S214004A30A7FF38BD38B504460D46FFF7ACFF05F1B5
S214004A4010012046FFF7A7FF38BD38B504460D46CF
S214004A50FFF796FF05F110012046FFF791FF05F1DD
S214004A6020012046FFF78CFF05F130012046FFF7B6
S214004A7087FF38BD08B5102A0AD000F1424303F577
S214004A8080135B0100221A602430FFF779FF08BD0F
S214004A9000F1424303F580135B0101221A6000F522
S214004AA08870FFF7BCFFF2E730B589B005460C46C4
S214004AB0964611F0030F1DD0082A13D0EC4608685E
S214004AC04968A268E368ACE80F0020696169A269DA
S214004AD0E369ACE80F00724669462846FFF7CAFF4E
S214004AE009B030BDEC4608684968A268E368ACE8DF
S214004AF00F00F0E700910099FFF7BCFFF0E743686E
S214004B0023F01F030E2910D8DFE801F00808080874
S214004B10080B0B0B080808080B0B0B001943416029
S214004B207047194341F010014160704770B50E465A
S214004B30154600F120042046FFF72DFF102D00D06B
S214004B4070BD06F110012046FFF725FFF8E730B5E7
S214004B5089B00C46154611F0030F17D06946FFF7CB
S214004B60E5FF082D0BD06D460FCD20606160A2607A
S214004B70E3600FCD20616161A261E3610AE06D46EA
S214004B800FCD20606160A260E36003E000910099B1
S214004B90FFF7CCFF09B030BD1A48C26CC2F303223F
S214004BA0194B1B8803F1280103EB5103283301320C
S214004BB002EB8201B3FBF1F3013B072B28BF07236F
S214004BC0C16C21F0EE6141EA036343F48013C364D1
S214004BD00E4BB3F90030002B13DB9BB203F1280118
S214004BE003EB51032833510801EB4202B3FBF2F307
S214004BF0072B28BF0723026D22F0700242EA031338
S214004C000365704700300E40D27C0020D47C002024
S214004C10024B1880024B1980704700BFD27C0020E0
S214004C20D47C002010B1012804D07047034B044AFE
S214004C309A657047014B034A9A65704700300E40EC
S214004C4077402057372110B71A4BD3F83032032954
S214004C5029D8DFE801F002121518DBB24AB91B03A7
S214004C6033F4704121D11448C16E21F470411943C8
S214004C70C166012A09D001207047C3F30723EDE778
S214004C80C3F30743EAE71B0EE8E71B0333F470425F
S214004C900DD10949D1F8EC2022F470421343C1F833
S214004CA0EC3001207047002070470020704700203D
S214004CB0704700BF0081E00F00300E401B02A2B11B
S214004CC001221343B3F5007F4DD022D8B3F5807F81
S214004CD042D00CD940F20112934215D1294BD3F899
S214004CE024321A0EC3F3074310E00022E9E763B349
S214004CF0012B06D1234BD3F82432C3F30722DBB2B1
S214004D0004E00022134601E00022134603600A6016
S214004D107047B3F5407F2DD040F20132934206D162
S214004D20184BD3F828321A0EC3F30743EEE740F2C7
S214004D300122934206D1134BD3F82832C3F307223D
S214004D40DBB2E3E700221346E0E70E4BD3F81C3253
S214004D50C3F30722DBB2D9E70A4BD3F81C321A0E8C
S214004D60C3F30743D2E7074BD3F82032C3F3072237
S214004D70DBB2CBE7034BD3F820321A0EC3F307435C
S214004D80C4E700BF0081E00F10B5002855D0464BA1
S214004D90DB6B13F0400F07D1444B1B78C3F10202C4
S214004DA010239340404A1361414AD2F8804104F0F0
S214004DB0010445F60E03C2F880313E4B1B6803F033
S214004DC0010003F01001084303F04001084303F01C
S214004DD00401014303F480730B431366324BDB6B11
S214004DE013F0400F04D1344BD3F8C830002BFAD15F
S214004DF02D4B1B6813F0100F0DD02D4BD3F8403100
S214004E0013F0807FF9D12D4B1A68294B1A612C4B71
S214004E101B78052B30D02A4B197805293FD1254B16
S214004E201B6813F0010F02D1214B02221A661CB137
S214004E301F4B0022C3F8802110BD1D4BD3F89020D5
S214004E401C4B1A601120FFF77BF81D4B1870164B91
S214004E50DB6B13F0400F04D1174BD3F8C830002B90
S214004E60FAD1114B5B68C3F30143104A1370104B21
S214004E701A69124B1A60DFE7124B18680A4BDB6B95
S214004E8013F0400F04D10C4BD3F8C830002BFAD1E6
S214004E90054B5968C1F30141FEF772FFBBE71120CD
S214004EA0FFF76AFBBBE700BF00300E40DD7C00204A
S214004EB000400E40CC7C00200000C643D87C00207A
S214004EC0D67C00209402002008B50120FFF75CFF86
S214004ED008BD0000134B9A6922F03F020378D3B155
S214004EE004234178C9B102210B438178B9B1082166
S214004EF00B43C178012900D000210B4301790B43F5
S214004F001343084A9361136823F44033417943EA14
S214004F100143136070470023E3E70021E4E7002124
S214004F20E6E700BF00300E401D4BDB6B13F0400F72
S214004F3035D170B504460D46194BDB6B13F0400FA8
S214004F4004D1184BD3F8C830002BFAD1144B5B6849
S214004F50C3F301439C4218D0134BD3F8003116F02C
S214004F60E3FB0646022C11D0C4F102021023934044
S214004F700B4A136145B1D36B13F0400F04D1094BB4
S214004F80D3F8C830002BFAD124B170BD0221FEF749
S214004F90F7FEE9E700213046FEF7F2FEF5E7704738
S214004FA000300E400000C64300400E4038B5114B9E
S214004FB0DB6B13F0400F0BD10C4650B10E4B1B7839
S214004FC013B10E4B98420FD921460020FFF7ACFFD5
S214004FD038BD0B4BD3F80001C0F30420451C16F077
S214004FE0A3FB05FB00F0E9E721460220FFF79CFF44
S214004FF0EEE700BF00300E40DC7C0020002D3101C3
S21400500000400E4010B42C4B5A6B4AF6E8515963D8
S214005010294B9B6F13F0010FFAD1274B1B6C13F033
S214005020030303D025490124C1F8B44AD9B281420A
S21400503021D0032B00D01BB9431EDBB2012B21D994
S2140050401D4B9B6F13F0010FFAD11B490B6C23F01D
S214005050030303430B64184B9B6F13F0010FFAD145
S214005060003818BF0120154BC3F8B40A012A1FD018
S2140050705DF8044B70470028FAD1104B0022C3F8A5
S214005080B42AF5E70C4B4FF40021D9620A4B9B6F0C
S21400509013F0010FFAD108490B6C23F0030343F019
S2140050A001030B64044B5B6A13F4002FFAD0C7E7C6
S2140050B0014B00225A63DBE700300E400000C64377
S2140050C02DE9F04F8DB000910192002309930A93C9
S2140050D00B93069307930893039304930593664AEA
S2140050E01288ADF808208DF80A30A0F5E163B3F514
S2140050F0966F00F2B0800646B0F5E16F8CBF4FF0B9
S21400510001094FF000096FD94FF496644FF4E1653A
S214005110B6F5E16F6DD9594BD3F8183208931A0ECD
S2140051200592C3F307430893DFF85481D8F84C7010
S214005130C7F301778DF808703B464A4603A906A8D0
S214005140FFF7BCFDD8F8EC30C3F301288DF80980D2
S21400515043464A4604A907A8FFF7B0FD721B089B02
S2140051600599C91A02FB01F1B1FBF4F10B91194440
S2140051700B91DDF80CA0DDF818C0AAEB0C0502FBBD
S21400518005F5B5FBF4F5099565440995DDF810E0DD
S2140051900798AEEB000B0BFB02F2B2FBF4F40A949A
S2140051A004440A94059A8A4259D38B4259D8A64594
S2140051B059D3A04259D8AA4559D3AC4559D8019BD2
S2140051C073B12F4BDB6D23F4FE4323F0020343EA57
S2140051D00123B6F5E16F16D902210B43284AD365A1
S2140051E0009B93B9012037E04FF416744FF4966590
S2140051F08EE7224BD3F818320893C3F307220592A2
S214005200DBB2089390E70021E7E7002239464846DC
S214005210FFF71AFD00B3012241464846FFF714FD8A
S214005220D0B1AC4238BF2C460994E72C28BFE724FF
S2140052300994134B5B6E23F4FF7323F0010343EAD8
S2140052404403B6F5E16F04D9012213430C4A5366B2
S21400525002E00022F9E700200DB0BDE8F08F002044
S214005260FAE70020F8E70020F6E70020F4E7002041
S214005270F2E70020F0E700BF780C0D000081E00F99
S21400528000300E4008B5214B1A6FDB6C13F0010F8F
S21400529009D012F0060F06D013281FD91438132889
S2140052A01ED8082323E0194BDB6C13F0010F09D13D
S2140052B012F0060F06D1092814D90A38092813D87F
S2140052C0082314E0114BDB6C13F001030FD012F02F
S2140052D0060F0BD1272817D8082308E0042306E07A
S2140052E0102304E0042302E0102300E00023013B27
S2140052F01A0342EA03220549CB6C23F47F43134387
S214005300CB64FFF749FC08BD1023F0E700300E40E1
S21400531008B5074BD3F88039064A136F23F0070306
S21400532003431367044B1888FFF7ACFF08BD00BFA4
S2140053300000C64300300E40D07C002008B5084A66
S214005340D36E43F08073D366064BD3F880391BB117
S2140053500420FFF7DDFF08BD0020FFF7D9FFFAE7BE
S21400536000300E400000C64338B5304B02229A6328
S2140053709B6B03F00F03934254D10446B0F90C1014
S214005380C3884A2B09D9B3F5FA7F41D340F6C31236
S214005390934240D84FF0005200E00022234BDB6CD3
S2140053A023F0405323F00103002937DB01210A4391
S2140053B013431E4AD364D2F8EC3043F44073C2F869
S2140053C0EC30A2881A4B1A80FFF7B8FFB4F90C101D
S2140053D02089FFF71DFCA088FFF754FFA07BFFF78E
S2140053E021FC012211466088FFF76AFE0546D0B10F
S2140053F00E4AD36B43F48063D3636078FFF702FEF4
S214005400A37A202B0CD000220A4BC3F894270AE07C
S2140054104FF08052C2E74FF04052BFE70021C6E788
S2140054200122F1E70025284638BD00BF00300E40B7
S214005430D07C00200000C6432DE9F8430C461546F4
S2140054401E46072A41D893004FF00F0808FA03F8C3
S21400545000FA03F7FFF730FA324AD2F8001487EA68
S214005460010303EA08034B40C2F80034FFF728FAAA
S2140054704FF00008072D3FD8A90003278F4004F0FF
S21400548003048C40FFF718FA264BD3F80824544040
S2140054903C405440C3F80844FFF712FA224B2B4412
S2140054A09B001E60214B2B449B009DF820201A6019
S2140054B00123AB401B4AC2F824341D4B2B449B00EF
S2140054C09DF824201A60BDE8F883A2F108084FEA88
S2140054D088030F2707FA03F900FA03F7FFF7ECF93A
S2140054E0104BD3F80424574007EA09075740C3F87F
S2140054F00474FFF7E5F9BDE74FEA8808032707FAC3
S21400550008F704F0030404FA08F4FFF7D5F9054B8E
S214005510D3F80C2454403C405440C3F80C44FFF7E6
S214005520CFF9BBE700A0004080208510A0208510A2
S214005530402185102DE9F04704460E461F4690464A
S2140055403AB183B300EB400109010122B2402D4B72
S2140055505A50072E2FD804EB44031B01DFF8AC90FB
S2140055609944B3004FF00F0A0AFA03FA08FA03F553
S214005570FFF7A2F9D9F8002085EA020303EA0A0336
S2140055805340C9F80030FFF79BF9B8F1000F08D177
S21400559077B304EB44042401012101FA06F6194B03
S2140055A01E51BDE8F08700EB400109010122B24020
S2140055B0154B5A50CDE704EB44031B01DFF850901F
S2140055C09944A6F1080292004FF00F0A0AFA02FA6E
S2140055D008FA02F5FFF770F9D9F8003085EA0302F9
S2140055E002EA0A025A40C9F80020FFF769F9CCE738
S2140055F004EB44042401012101FA06F6024B1E5175
S214005600CFE700BF0CA000460CA0004404A000405A
S21400561008A0004081F00101024B03449B00196082
S214005620704700BFA001F11010B5044601214FF4E9
S214005630AA40FEF7B7FB23786178A27842EA0122F7
S21400564042EA03620B4B1A6000221A62DA625A635D
S2140056504FF00042DA664FF0FF329A66064A4FF481
S2140056600071C2F88011E3785B01DBB282F809337F
S214005670116010BD00200E4000E100E070B50C4641
S214005680C3B201259D40254EB5660B6800EB400170
S21400569006EB0111C1F88030637BC1F8883094F8BE
S2140056A00AC0E37A1B0543EA0C4394F80CC043EAAD
S2140056B04C53C1F8843022F00302C1F89820FFF75B
S2140056C002F9F36E2B43F366237A13B1736B2B4305
S2140056D07363637A1BB1114AD36A2B43D3620F4BB1
S2140056E01B68227922B1D243120262F47F42134031
S2140056F062790AB143EA0223A2791AB1D24362F070
S214005700FF021340E27902B11343044A1360044BCC
S2140057109D62D563FFF7DDF870BD00BF00200E4028
S21400572000200E44F8B50446C3B201259D40FFF79D
S214005730CAF80B4B1F6E9E6A04EB440403EB04147A
S214005740D4F88C40FFF7C5F82F40C4F30A10354252
S21400575003D100B907B90130F8BD0020FCE700BF4F
S21400576000200E40054B5A685B68054B41F67132C7
S2140057701A649A6822F001029A60704700300E4060
S21400578000000E40034B9A6822F001029A60002245
S2140057901A64704700000E400C4B0D4AD26912F096
S2140057A0010F02D00BB1013BF7E74BB1084B186174
S2140057B00122DA60DB6913F0040F04D10020704781
S2140057C06FF0020070474FF0FF30704780969800E9
S2140057D000000E408C46D1B900207047DBB1114B5B
S2140057E0DB6913F0020F19D1614512D250F8042B71
S2140057F00C4B9A6101310822DA600B4B094AD269D8
S21400580012F0010FEAD0002BE8D0013BF6E70021AA
S214005810EAE7002070476FF0020070476FF0010063
S214005820704700BF00000E40809698002DE9F047B4
S21400583080460E46254B196C1FFA81F941F67131E8
S2140058401964234948684968996841F001019960DC
S214005850970800231D4614E01C498A6822F00102BE
S2140058608A60B9F1000F2DD00A460021116429E0A4
S21400587051463046FFF7AEFF0346C0B9554406EB27
S2140058808A06BD4213D208EB85042046FFF784FF44
S21400589003460028E0D1C4F30A04C4F50064A30854
S2140058A0A7EB050ABAEB940FE2D39A46E0E707495E
S2140058B08A6822F001028A60B9F1000F02D00A4617
