S0220000636869702D65667233322D6C69676874696E672D6578616D706C652E733337C3
S315080060000000042055AC010851AC0108591B0608CC
S3150800601041DE000851AC010851AC010851AC010839
S3150800602051AC010851AC010851AC010831F901081D
S3150800603051AC01088C000020D1F80108D567010889
S3150800604005A8000851AC010851AC010851AC01087B
S3150800605051AC010851AC010851AC010851AC01081A
S3150800606051AC010851AC010851AC01083986000849
S3150800607051AC010851AC010851AC010851AC0108FA
S3150800608051AC010851AC010851AC010851AC0108EA
S3150800609051AC0108F5B2000851AC010851AC010831
S315080060A051AC01088DB4000865B4000851AC01086C
S315080060B051AC0108FDCE0A08F5D80A08ADD80A0879
S315080060C0A9D80A08C9D00A08F1D80A08B1D80A080E
S315080060D0C9D80A08B5D80A0855D90A0835D90A0800
S315080060E051AC010851AC010851AC010851AC01088A
S315080060F081B0010851AC010851AC010851AC010846
S3150800610051AC010851AC010851AC010851AC010869
S3150800611051AC010851AC010851AC010851AC010859
S3150800612051AC010851AC010851AC010851AC010849
S3150800613051AC010851AC010851AC010851AC010839
S3150800614051AC010821B2010851AC0108A9E70008C1
S31508006150F1B60A0851AC010825960A082B960A08D2
S3150800616051AC010851AC010851AC010851AC010809
S3150800617010B5054C237833B9044B13B1044800E035
S3150800618000BF0123237010BD100A00200000000084
S31508006190F073110808B5034B1BB10349034800E027
S315080061A000BF08BD00000000140A0020F0731108A3
S315080061B0A3F5803A704700BF174B002B08BF134B57
S315080061C09D46FFF7F5FF00218B460F461348144AF4
S315080061D0121AAAF07AFD0E4B002B00D098470D4BE9
S315080061E0002B00D098470020002104000D000D4820
S315080061F0002802D00C4800E000BFAAF0D1FC20001D
S31508006200290002F0B9F9AAF041FB00BF0000080016
S31508006210000000000000000000000420100A002012
S31508006220BC4102200000000000000000002070476A
S31508006230704770472D2070472D2070470020704703
S3150800624070476C207047012070470000044A0260BE
S31508006250044A0260044A0260044A0260704700BFAA
S3150800626018B9100818260B08C0250B0884250B0832
S3150800627010B50446104B036003F13402026103F1C2
S315080062805402026203F16802426203F17C028262EE
S315080062909033C36244303DF011FB084BE362084B70
S315080062A0A362084B6362084B2362084B2361084BC1
S315080062B02360204610BD00BFD039100864260B089D
S315080062C004260B08AC250B0870250B0834250B088B
S315080062D054250B0838B50546A0F12C04154B40F893
S315080062E02C3C03F1340240F81C2C03F1540240F80C
S315080062F00C2C03F1680240F8082C03F17C0240F8E4
S31508006300042C9033E36218303DF0D8FA0A4BE36266
S315080063100A4B45F8043C0A4B45F8083C094B45F836
S315080063200C3C094B45F81C3C084B45F82C3C2046D0
S3150800633038BD00BFD039100864260B0804260B08A0
S31508006340AC250B0870250B0834250B0854250B08BB
S3150800635038B50546A0F12804144B40F8283C03F14B
S31508006360340240F8182C03F1540240F8082C03F1C3
S31508006370680240F8042C03F17C02A2629033436061
S315080063801C303DF09BFA0A4B6B600A4BA3620A4B22
S3150800639045F8043C094B45F8083C094B45F8183CB8
S315080063A0084B45F8283C204638BD00BFD0391008B0
S315080063B064260B0804260B08AC250B0870250B0869
S315080063C034250B0854250B0838B50546A0F12404D6
S315080063D0134B40F8243C03F1340240F8142C03F123
S315080063E0540240F8042C03F16802626203F17C024D
S315080063F042609033836020303DF060FA094BAB6011
S31508006400094B6B60094B6362094B45F8043C094B21
S3150800641045F8143C084B45F8243C204638BD00BFD7
S31508006420D039100864260B0804260B08AC250B087F
S3150800643070250B0834250B0854250B0838B5054676
S31508006440A0F12004124B40F8203C03F1340240F836
S31508006450102C03F15402226203F16802426003F130
S315080064607C0282609033C36024303DF027FA094BE2
S31508006470EB60094BAB60094B6B60094B2362094B18
S3150800648045F8103C084B45F8203C204638BD00BF6F
S31508006490D039100864260B0804260B08AC250B080F
S315080064A070250B0834250B0854250B0838B5054606
S315080064B00446124B40F8103C03F1340244F8102904
S315080064C003F15402226203F16802626203F17C025C
S315080064D0A2629033E36234303DF0F0F9084BE36290
S315080064E0084BA362084B6362084B2362084B23617F
S315080064F0084B45F8103C204638BD00BFD039100877
S3150800650064260B0804260B08AC250B0870250B0817
S3150800651034250B0854250B08032809D8DFE800F0B2
S31508006520020A06040448704704487047044870473E
S31508006530044870470448704738220B0824220B0881
S315080065402C220B0808220B0814220B0805280ED843
S31508006550DFE800F0030F0507090B074870470748EF
S315080065607047074870470748704707487047074805
S3150800657070470748704700BF8C220B0854220B0847
S315080065806C220B0880220B08F0F60F0808220B086D
S3150800659048220B0838B5164BD3E88F3F13F0010F86
S315080065A001D0144838BD1248A9F076FC0028F8D066
S315080065B0104C114B2360114B2360114B236020466E
S315080065C0104B40F8043B62252A460021AAF07DFBC1
S315080065D02A46002104F16600AAF077FB0448A9F0D0
S315080065E067FC094A09492046A9F04FFCD9E700BFCC
S315080065F02C0A0020300A002084250B08C0250B0829
S3150800660018260B0818B91008000000204D6200086B
S31508006610012800D070474FF6FF739942FAD130B57A
S3150800662083B0FFF7B7FF014601248DF80440002325
S31508006630ADF806302348244A02600471C38031222B
S315080066408260C3608DF80040ADF802301F4D0561C9
S315080066500475C3828261C3611D4A02621D4A426291
S315080066601D4A82621D4AC2621D4A026002F1340551
S31508006670056102F15405056202F16805456202F1F9
S315080066807C0585629032C2620463416381634FF080
S31508006690FF32C26343648364A0F84C3003654365E4
S315080066A080F8583080F85C3080F8843080F8A5305F
S315080066B080F8A8300164C3630A4A0B49A9F0E5FBD0
S315080066C003B030BDE80C002054250B0834250B0810
S315080066D070250B08AC250B0804260B0864260B0846
S315080066E0D0391008000000207162000810B584B087
S315080066F00C4600230093164B164A10210A2010F068
S3150800670051FD154B186090B1144B0293144B01932D
S3150800671001230093104B4FF480621249204611F072
S31508006720DBFB114B186050B1002004B010BD0F48B8
S315080067305BF0D2F840F2017000F04AFCE4E70C483E
S315080067405BF0CAF840F2027000F042FCECE700BFCA
S31508006750940C0020F40B0020E40B00202C0B0020E6
S31508006760A00D0020C0220B08E80B00209C220B0875
S31508006770C4220B0830B583B004460D4629B12B4B0D
S315080067801D602B485BF0A8F809E02A485BF0A4F8DE
S315080067902F2000F01DFCF2E70A2011F0DBFD03F0C4
S315080067A017FE0028F8D024485BF096F8234826F010
S315080067B06FFA234B0093234600220121214812F049
S315080067C023FB214B186008B3204B00932346012274
S315080067D00A211F4812F018FB1E4B1860F0B11E491B
S315080067E01E485BF079F800F082FB1D491D4800F051
S315080067F09BFB59F06BF80368D3F8843098474FF041
S3150800680002006CF04DFE002003B030BD16485BF068
S3150800681063F840F2047000F0DBFBD5E713485BF041
S315080068205BF840F2047000F0D3FBD8E7280B002091
S31508006830FC220B08E0220B0810230B08E80C0020AA
S31508006840A16B000824230B08EC0B002051690008F3
S3150800685048230B08240B002070230B087C230B0805
S3150800686050051008080B00202C230B0854230B088E
S3150800687010B52E485BF0FBFAC8B92D4B1B78022BD6
S3150800688038D02C4B1B6813B1DB7D002B2DD12A4B3E
S315080068901B78002B39D0294B1B78002B35D0284B79
S315080068A01B785BB30121274800F02CFB22E0264C1D
S315080068B020465DF008FE204B187020465DF014FE59
S315080068C01E4B1870637C042B14BF002301231C4A3B
S315080068D0137020465DF0C2FD003818BF01201B4B1F
S315080068E0187012485BF0CDFAC7E7FA221146154828
S315080068F000F058FB134800F02BFB10BD322240F283
S31508006900B631104800F04EFBF4E7104B1B782BB15C
S31508006910642211460B4800F045FBEBE740F2B6321D
S315080069203221084800F03EFBE4E700BFB88D01209D
S31508006930A01D0020280B0020F00B0020000B0020D3
S31508006940200B0020080B0020D8DF0120F10B0020C7
S3150800695008B5FFF78DFF08BD00B583B00022009289
S31508006960134603210948006812F06AFA28B1084B51
S3150800697000221A7003B05DF804FB06485AF0ACFF13
S3150800698040F2067000F024FBF1E700BFEC0B002094
S31508006990F20B00209C230B0810B582B00446114B5D
S315080069A0186812F0DBFB78B96423009300232246AB
S315080069B004210C48006812F043FA01280AD10A4B50
S315080069C001221A7002B010BD08485AF085FFFFF779
S315080069D0C3FFE9E706485AF07FFF40F2057000F06A
S315080069E0F7FAECE7EC0B0020F20B0020B4230B08B7
S315080069F0D0230B080388012B2BD110B5154B1B7818
S31508006A001BB1154A1278012A05D01BB1124B1B7807
S31508006A10022B17D010BD40F6B83110485AF05CFF6B
S31508006A2040F6B830FFF7B8FF0B4B02221A700C4C31
S31508006A300021204600F066FA4FF4FA71204600F06D
S31508006A40B7FAE7E7044B00221A7006486EF0AAF870
S31508006A50E0E77047F20B0020A01D0020EC230B088E
S31508006A60080B002030E0012010B50379012B0CD06B
S31508006A701E4B1B781BB11E4A1278012A15D01BB172
S31508006A801B4B1B78022B27D010BD184B1B78002BED
S31508006A90FAD1174B1B78002BF6D140F6B830FFF722
S31508006AA07BFF134B01221A70EEE7FFF755FF104BD9
S31508006AB000221A700F485DF006FD48B90D4C0121F9
S31508006AC020465DF0B3FC002120465DF0B7FCDBE70D
S31508006AD009485AF001FFD7E7FFF73EFF044B0022AB
S31508006AE01A7006485AF0F8FECEE700BFF20B0020EF
S31508006AF0A01D0020D8DF01202C240B086C240B08CD
S31508006B0010B582B00B4B1C6811F004FB024600233B
S31508006B1000930121204612F093F9012801D102B011
S31508006B2010BD05485AF0D8FE40F2057000F050FA3C
S31508006B30F5E700BF240B00208C240B0810B582B0A3
S31508006B40144B1B6813B3044618F06CFE80B100237F
S31508006B50019301AA21460F48006810F0FBFC019B2F
S31508006B606BB14FF0E0234FF08052C3F8042D06E0D6
S31508006B700023012221460748006810F0F3FB08B1FC
S31508006B8002B010BD04485AF0A7FEF9E703485AF0C8
S31508006B90A3FEF5E7E40B0020A4240B08D4240B0875
S31508006BA000B585B00123ADF800300190034B03937F
S31508006BB06846FFF7C3FF05B05DF804FBF5690008F2
S31508006BC008B5CB6813B10846984708BD01485AF07E
S31508006BD083FEFAE7FC240B0810B50446124B036043
S31508006BE003F13402026103F15402026203F16802FE
S31508006BF0426203F17C0282629033C36244303CF005
S31508006C005DFE0A4BE3620A4BA3620A4B63620A4BB8
S31508006C1023620A4B23610A4B2360B8212046A9F058
S31508006C2039F9204610BD00BFD039100864260B0874
S31508006C3004260B08AC250B0870250B0834250B0811
S31508006C4054250B0838B50546A0F12C04174B40F817
S31508006C502C3C03F1340240F81C2C03F1540240F892
S31508006C600C2C03F1680240F8082C03F17C0240F86A
S31508006C70042C9033E36218303CF020FE0C4BE362A0
S31508006C800C4B45F8043C0C4B45F8083C0B4B45F8B7
S31508006C900C3C0B4B45F81C3C0A4B45F82C3CB821E0
S31508006CA02046A9F0F7F8204638BD00BFD0391008AD
S31508006CB064260B0804260B08AC250B0870250B0860
S31508006CC034250B0854250B0838B50546A0F12804C9
S31508006CD0164B40F8283C03F1340240F8182C03F10F
S31508006CE0540240F8082C03F1680240F8042C03F11A
S31508006CF07C02A262903343601C303CF0DFFD0C4BF3
S31508006D006B600C4BA3620C4B45F8043C0B4B45F8E7
S31508006D10083C0B4B45F8183C0A4B45F8283CB8216B
S31508006D202046A9F0B7F8204638BD00BFD03910086C
S31508006D3064260B0804260B08AC250B0870250B08DF
S31508006D4034250B0854250B0838B50546A0F124044C
S31508006D50154B40F8243C03F1340240F8142C03F197
S31508006D60540240F8042C03F16802626203F17C02C3
S31508006D7042609033836020303CF0A0FD0B4BAB6043
S31508006D800B4B6B600B4B63620B4B45F8043C0B4B90
S31508006D9045F8143C0A4B45F8243CB8212046A9F08E
S31508006DA079F8204638BD00BFD039100864260B088C
S31508006DB004260B08AC250B0870250B0834250B0890
S31508006DC054250B0838B50546A0F12004144B40F8A5
S31508006DD0203C03F1340240F8102C03F154022262DD
S31508006DE003F16802426003F17C0282609033C3605B
S31508006DF024303CF063FD0B4BEB600B4BAB600B4B4D
S31508006E006B600B4B23620B4B45F8103C0A4B45F85D
S31508006E10203CB8212046A9F03DF8204638BD00BFE1
S31508006E20D039100864260B0804260B08AC250B0875
S31508006E3070250B0834250B0854250B0838B505466C
S31508006E400446144B40F8103C03F1340244F8102968
S31508006E5003F15402226203F16802626203F17C02C2
S31508006E60A2629033E36234303CF028FD0A4BE362B9
S31508006E700A4BA3620A4B63620A4B23620A4B2361DD
S31508006E800A4B45F8103CB8212046A9F003F82046DD
S31508006E9038BD00BFD039100864260B0804260B0835
S31508006EA0AC250B0870250B0834250B0854250B0850
S31508006EB010B50446064B0360064B0360064B036099
S31508006EC0064B0360D021A8F0E5FF204610BD00BFA1
S31508006ED018B9100818260B08C0250B0884250B08B6
S31508006EE008B54FF6FF710120FFF792FB08BD08B5FC
S31508006EF012F00AFA08BD006918B108B503F09EFF3A
S31508006F0008BD704708B50023C360836000220023CC
S31508006F10C0E90023006910B111B103F085FF08BD6F
S31508006F2003F087FFFBE7000008B59FED077B80EDC0
S31508006F30007B00228260C26001611146FFF7E2FF12
S31508006F4008BD00BFAFF3008000000000000000008D
S31508006F50836823B370B582B00446C368ABB1104BDF
S31508006F6019680B68DB6868469847009E019D20698A
S31508006F7003F069FF58B1A168236862685B1842F19B
S31508006F800002B34272EB050303D302B070BDE16899
S31508006F90F2E72046FFF7AFFF26606560F5E7704722
S31508006FA0F802002008B58160C260FFF7D1FF08BD6E
S31508006FB008B50A46FFF7F6FF08BD000008B5014602
S31508006FC002485AF089FC18F06DFCFEE770260B089B
S31508006FD008B5FFF7F3FF0000124A12F0070F1ED09C
S31508006FE0D11D21F00701C1F5084313440A460E488E
S31508006FF00260002141601344083B23F007030B4855
S31508007000036059601960991A51601360084B19603A
S31508007010084B1960084B4FF000421A6070474FF44E
S315080070200843E4E7A81D0020BCA50020A41D0020F5
S31508007030B0A50020ACA50020A8A5002010B500B377
S31508007040044611F05FF854F8043C0F4A12681342DC
S3150800705009D054F8081C69B118F024FC0B490C48EF
S31508007060AAF0D2F9FEE718F01DFC0A490848AAF06A
S31508007070CBF9FEE723EA0203A3F1080411F0F4F8BA
S3150800708000E00024204610BDA8A50020EC260B0829
S31508007090D0260B08A0260B08014B1868704700BFBE
S315080070A0ACA50020014B1868704700BFB0A50020AA
S315080070B008B518F001FB034B1A68034B1A6018F061
S315080070C009FB08BDACA50020B0A50020F8B5074609
S315080070D011F018F8174B1B6893B14FF0FF360025CF
S315080070E02C4604E01B68144A12689A420CD00134F4
S315080070F05A68AA4200D91546B242F3D21646F1E7B3
S315080071004FF0FF3600252C4611F0AEF87D60BE60C4
S31508007110FC6018F0D1FA094B1B683B60084B1B68EA
S315080071207B61084B1B68BB61074B1B683B6118F00A
S31508007130D1FAF8BDBCA50020A41D0020ACA50020EE
S31508007140B4A50020B8A50020B0A5002010B588B0C9
S315080071500446164B1B6893B1144B1A461B68A34288
S31508007160FBD351685018A0420DD06168601883425D
S315080071700ED02360944200D0146008B010BD01A858
S31508007180FFF7A4FFE8E76068014451601446ECE79E
S3150800719007480068834206D05B6819446160136833
S315080071A01B682360E6E72060E4E700BFBCA5002073
S315080071B0A41D002038B5044610F0A4FF3E4B1B68FA
S315080071C0EBB13E4B1B681C421CD1631E13F10A0F20
S315080071D00BD804F1080214F0070F05D022F00703B4
S315080071E0083393425AD91A4682B911F03DF8002558
S315080071F05BF03CF815F0070F56D1284638BDFFF767
S31508007200EBFEDEE711F030F80025F1E72C4B1B68A2
S31508007210934202D32B490C6805E011F025F80025A6
S31508007220E6E721461C466368934202D22368002B90
S31508007230F7D1214B1B68A34212D00D680835236885
S315080072400B6063689B1A102B12D9A01810F0070F51
S315080072500AD018F027FB1C491C48AAF0D5F8FEE707
S3150800726011F002F80025C3E743606260FFF76EFF7E
S31508007270626813490B689B1A0B60154909688B42AB
S3150800728001D213490B600D4B1B681343636000233F
S315080072902360104A13680133136000E0002510F0DC
S315080072A0E3FF002DA6D1A3E718F0FCFA0A49074820
S315080072B0AAF0AAF8FEE700BFA41D0020A8A5002092
S315080072C0ACA50020BCA500200C270B08D0260B086F
S315080072D0B0A50020B4A5002048270B0838B501FB47
S315080072E000F419B1B4FBF1F181420AD12046FFF747
S315080072F061FF054618B122460021A9F0E6FC28469A
S3150800730038BD0025FBE7000080B338B50446A0F178
S31508007310080550F8043C164A1268134209D050F87A
S31508007320081C69B118F0BEFA12491348AAF06CF89D
S31508007330FEE718F0B7FA11490F48AAF065F8FEE714
S3150800734023EA020340F8043C10F0DCFE54F8041C5F
S315080073500B4A13680B4413602846FFF7F7FE094AE1
S3150800736013680133136010F07FFF38BD704700BF04
S31508007370A8A50020EC260B08D0260B08A0260B088B
S31508007380ACA50020B8A50020F8B505460C46FFF7C1
S3150800739055FED8B10746A4B1A04201D12E461AE03F
S315080073A021460120FFF79AFF0646A0B13A46A742B2
S315080073B028BF22462946A9F061FC2846FFF7A4FF04
S315080073C009E02846FFF7A0FF002604E02146012031
S315080073D0FFF784FF06463046F8BD08B507F007FAFA
S315080073E00EF0DEF85AF06CFA08BD10B582B000222D
S315080073F0ADF8062003689C680DF10603A047192816
S3150800740002D020B1002000E0012002B010BD01200A
S31508007410FBE7052B01D8002070472F207047000096
S31508007420014B0360704700BFA8290B08024A026097
S31508007430024A0260704700BFCC290B08A8290B082E
S31508007440024A0260024A0260704700BFB8290B0868
S31508007450AC280B08024A0260024A0260704700BF65
S3150800746088290B08C0280B08034A0260034A0260F1
S31508007470034A0260704700BF20D410086CD3100876
S3150800748054290B08024A0260024A0260704700BF8C
S3150800749048D7100874290B0808B501F009FC08BD7F
S315080074A0038848F20102934204D048F2020293424A
S315080074B012D0704790F90820012AF6D110B509486C
S315080074C05AF00AFA4EF0C6FB03685C690023064ABE
S315080074D040F6B831A04710BD90F90930012BE8D124
S315080074E0ECE700BF88270B0899740008012800D02C
S315080074F0704708B54FF6FF73994200D008BD094892
S31508007500094B0360094B0360002343608360C36033
S315080075100374436103764376054A0649A8F0B5FC29
S31508007520ECE700BF80A800201C290B08C0B410088F
S3150800753000000020ED3C060810B50446034B036026
S315080075403821A8F0A7FC204610BD00BFA8290B08C3
S3150800755010B50446044B0360044B03603821A8F0B9
S3150800756099FC204610BD00BFCC290B08A8290B089A
S3150800757010B50446044B0360044B03600421A8F0CD
S3150800758089FC204610BD00BFB8290B08AC280B089B
S3150800759010B50446044B0360044B03600821A8F0A9
S315080075A079FC204610BD00BF88290B08C0280B08A7
S315080075B008B5104B0360D0F8F4317BB9D0F84831E0
S315080075C073B9D0F804316BB9D0F8983063B9436D04
S315080075D063B9036963B9084B036008BDA9F022F9CA
S315080075E0A9F020F9A9F01EF9A9F01CF9A9F01AF9D1
S315080075F0A9F018F970C6100830280B0838B50446E3
S315080076000C4B036043688BB1437C4BB9C5683DB1ED
S3150800761035B12B681B6828469847284658F0E6F97E
S315080076200023E3606374237423726360024B236050
S31508007630204638BD208310081C290B08406818B15D
S3150800764008B55AF0E1F808BD03207047406858B1FC
S3150800765000B583B04FF0000C8DF807C032B15AF070
S31508007660A5F803B05DF804FB032070470BB12F2083
S31508007670F7E70DF10702F2E770B582B00446A54BAD
S31508007680D3E88F3F13F0010F3FD0A34BD3E88F3FCA
S3150800769013F0010F47D0A14BD3E88F3F13F0010F2A
S315080076A04FD09F4BD3E88F3F13F0010F67D09D4B08
S315080076B0D3E88F3F13F0010F00F0CF809A4BD3E841
S315080076C08F3F13F0010F00F0DC80984BD3E88F3F13
S315080076D013F0010F00F0EB802369002B00F0F68011
S315080076E0236B002B00F0F780636B002B00F00681FC
S315080076F08F4D2169284663F041FD284662F070FDEA
S31508007700002800F0598102B070BD8248A8F0C4FB79
S315080077100028BAD07F48A8F0CBFB864A8649874816
S31508007720A8F0B3FBB1E77C48A8F0B6FB0028B2D0B6
S315080077307948A8F0BDFB7F4A81498248A8F0A5FB95
S31508007740A9E77648A8F0A8FB0028AAD07E4D7F4B6B
S315080077502B607F4B2B6000236B602B72EB602B61D9
S315080077606B61AB61EB612B6285F824306B48A8F03E
S315080077709FFB704A77492846A8F087FB91E7684837
S31508007780A8F08AFB002892D06948734B036003234C
S3150800779083800223C38000258560704A0260C56025
S315080077A01422009200F1280200F12C0110304BF04F
S315080077B089FF2B46002B01DB013BFBE7684A1423B4
S315080077C000930223111DA2F118004BF07BFF002342
S315080077D0002B01DB013BFBE7624A282300930223C7
S315080077E0111DA2F118004BF06DFF0023002B01DBE1
S315080077F0013BFBE75C4A142300930223111DA2F107
S3150800780018004BF05FFF0023002B01DB013BFBE771
S31508007810564A482300930223111DA2F118004BF083
S3150800782051FF0023002B01DB013BFBE7504A2C23C9
S3150800783000930223111DA2F118004BF043FF002309
S31508007840002B01DB013BFBE73548A8F031FB394A41
S3150800785048493748A8F019FB29E73248A8F01CFB25
S3150800786000283FF42BAF444D444B2B60444B2B6010
S315080078702C48A8F01DFB2F4A42492846A8F005FBCC
S315080078801CE72948A8F008FB00283FF41EAF3E4D28
S315080078903E4B2B603E4B2B603E4B2B602248A8F09C
S315080078A007FB244A3C492846A8F0EFFA0DE71F488B
S315080078B0A8F0F2FA00283FF40FAF1C48A8F0F8FA2F
S315080078C01C4A36493648A8F0E0FA05E71B4B354A04
S315080078D05A60236104E722691A4B5B6833B10320B7
S315080078E000287FF410AF174B2363FDE6154B0020E5
S315080078F0187258745A60D8601874F1E72569124BE3
S315080079005B68002B50D0032000287FF4FCAE0E4B9A
S315080079106363EDE678A8002074A8002048A8002034
S31508007920DCA50020D4A50020C8A50020C4A50020F9
S31508007930E0A5002000000020557400081C00002067
S31508007940FD750008080000204CA80020E0280B0858
S3150800795080C91008FD79000830280B0870C6100881
S315080079604CA6002090A60020FCA6002040A70020D8
S31508007970ECA70020B1750008D8A50020AC280B0894
S31508007980B8290B0841740008CCA5002054290B0817
S315080079906CD3100820D41008697400088574000890
S315080079A004000020AC8D01200F4E33689B6A3046D8
S315080079B0984775600020A7E70C4BE361236983B1FC
S315080079C00B4A5360002000287FF49DAE084B636184
S315080079D052F090FE2062074B6362074BA3610020BA
S315080079E091E62F20EFE700BF4CA80020E0A5002075
S315080079F0CCA5002004000020D8A5002010B5044618
S31508007A00124B0360436823B1104B9B6A98470023C7
S31508007A10636000222262E06918B157F0E7FF00238D
S31508007A20E3610022A261606918B157F0DFFF002305
S31508007A30636100222261E06818B157F0D7FF00237E
S31508007A40E360034B2360204610BD00BF80C91008C1
S31508007A50E0280B0810B5134B0360D0F8F431ABB926
S31508007A600446D0F848319BB9D0F8043193B9D0F818
S31508007A7098308BB9436D8BB903698BB90A4B036090
S31508007A804FF41A71A8F006FA204610BDA8F0CAFEEF
S31508007A90A8F0C8FEA8F0C6FEA8F0C4FEA8F0C2FE6C
S31508007AA0A8F0C0FE70C6100830280B0810B50446AA
S31508007AB0144B0360436823B1124B9B6A9847002313
S31508007AC0636000222262E06918B157F08FFF002335
S31508007AD0E3610022A261606918B157F087FF0023AD
S31508007AE0636100222261E06818B157F07FFF002326
S31508007AF0E360054B236028212046A8F0CBF92046F1
S31508007B0010BD00BF80C91008E0280B0838B5044628
S31508007B100E4B036043688BB1437C4BB9C5683DB1D6
S31508007B2035B12B681B6828469847284657F05EFFEC
S31508007B300023E3606374237423726360044B236039
S31508007B4014212046A8F0A6F9204638BD208310083F
S31508007B501C290B0808B501F0E9FB08BD38B5044631
S31508007B60314932480AF014F9314D284659F0B4FE25
S31508007B702146304859F0B0FE284659F0ADFE2E4849
S31508007B8059F0AAFE002108464BF01EFD00B138BD8B
S31508007B902A4B1B788BB300200028F8D121462848A9
S31508007BA05CF054FC27485AF05BF9274BD3E88F3F23
S31508007BB013F0010F2AD0254D28465CF057F9244CBE
S31508007BC025632046FFF758FD214622486DF082F8C6
S31508007BD01C4C20465AF055F900221F4920465AF0F7
S31508007BE06DF81E4859F078FE20465AF0F9F9002833
S31508007BF0CDD1FFF7AFFF0020C9E7104D28465AF050
S31508007C0049FAB0FA80F35B092B70C5E70E48A8F06D
S31508007C1043F90028CFD00C48A8F04AF9104A114970
S31508007C200B48A8F032F9C6E7253605081D360508BB
S31508007C30B0270B08E4270B08F0270B08B08D0120A6
S31508007C40D8DF0120B88D01207CA8002080A800205C
S31508007C502400002030E00120A174000800280B0849
S31508007C60000000202D74000808B559F033FB08BD44
S31508007C70B0F5803F2CBF0020012070474068E0B176
S31508007C8070B584B01D4600238DF80F30BAB10023B5
S31508007C900293019302AB00932B8859F069FD0446C1
S31508007CA0192800D030B9029E3046FFF7E1FF68B9BF
S31508007CB000262E80204604B070BD032070472B880E
S31508007CC00BB12F20F7E70DF10F02E0E7B6B2F0E7A8
S31508007CD010B50446054B0360054B0360054B03606E
S31508007CE00821A8F0D7F8204610BD00BF20D41008F8
S31508007CF06CD3100854290B0810B50446044B0360CE
S31508007D00044B03600421A8F0C5F8204610BD00BF47
S31508007D1048D7100874290B0808B54FF6FF710120DB
S31508007D20FFF7E4FB08BD0000024A0260024A02604F
S31508007D30704700BF782B0B08642B0B0838B50C4628
S31508007D4000280CBF012500250CD10749074859F022
S31508007D50C3FD29460648FFF7D5F814B9054B012295
S31508007D605A7138BD0449F1E7DC290B08E0290B08EC
S31508007D70B8A80020D0A80020D8290B0808B5034ABF
S31508007D8002211D204BF096FD08BD00BFF4290B0803
S31508007D9008B5034A02211D204BF08CFD08BD00BF23
S31508007DA0042A0B0808B5044A02211D204BF082FD5F
S31508007DB0024BFF221A7008BD142A0B085C0000202B
S31508007DC010B5002214460388022B04D033B140F2C2
S31508007DD003746CB110BD02798168FAE7094800F0AE
S31508007DE010FA10B100210122F3E700210A46F0E754
S31508007DF0044800F0BBFA0028ECD1034859F06CFDA2
S31508007E00E8E700BFE8A80020302A0B0801B300B550
S31508007E1085B00846002300930193029303938DF8D7
S31508007E2004200C4B994205D00B4B98420AD005B05A
S31508007E305DF804FB012AF7D1084B03936846FEF761
S31508007E407DFEF4E7064B03936846FEF777FEEEE7FA
S31508007E50704700BF3805100820051008C17D0008C6
S31508007E60696A000808B528B1012807D00A4B5B796A
S31508007E7043B908BD094859F02FFDF7E7084859F0F6
S31508007E802BFDF3E70022074907485AF01DF8024B75
S31508007E9000225A71EDE700BFD0A800205C2A0B0823
S31508007EA0682A0B08AD7E0008B88D012010B5094870
S31508007EB000F0A7F9044626F0DFF800232246012140
S31508007EC026F08EF900B910BD0146034859F004FDA5
S31508007ED0F9E700BFE8A80020742A0B0810B5044685
S31508007EE0044B0360044B03600821A7F0D3FF204628
S31508007EF010BD00BF782B0B08642B0B08012800D097
S31508007F0070474FF6FF739942FAD130B585B00F4DD9
S31508007F100023039302930E4B0193022300930D4B08
S31508007F200D4A0121284623F079FC0C4C22460C49BF
S31508007F302846A7F0AAFF0B480B4B03600B4B0360C0
S31508007F4022460B49A7F0A1FF05B030BD9CA800202A
S31508007F50757F0008917D00087D7D000800000020DF
S31508007F6059B80208D0A80020642B0B08782B0B08F8
S31508007F70297D000870B50446037D224A13700B2B31
S31508007F8010D0204B1B78FE2B23D015D8022B32D8C5
S31508007F904DF060FE03685D6923461B4A41F288314D
S31508007FA0A84770BD837D194A02211D204BF082FC2B
S31508007FB0A27D144B1A70E4E7FF2B1CD14DF04AFE44
S31508007FC003689B692246104998470E4BFF221A7090
S31508007FD0E7E74DF03FFE03689B690B4D22462946AD
S31508007FE098474DF037FE03685E6923462A464FF4E4
S31508007FF07A71B047D5E7064A02211D204BF05AFC94
S31508008000CFE700BF5C000020A57D00088C2A0B087E
S31508008010E02A0B0870B51649FEF7ACFBC0B915483F
S3150800802000F0B2F80446D8B9124E134A134930463E
S3150800803000F0E4F8124D13492846FEF775FF30465E
S3150800804000F0DFF801462846FEF75CFF204670BDC3
S3150800805004460D4859F040FC2046FEF7B9FFDEE716
S315080080600A4859F039FC2046FEF7B2FFDCE700BFA4
S315080080709CA80020E8A80020657E00083D7D000831
S31508008080B8A8002068051008F82A0B08182B0B0852
S3150800809030B585B004681148FFF7BCFFA8B9FEF7EC
S315080080A02FFD0F4859F018FC0A22694620460FF0A2
S315080080B01FFB0128F8D169460848FEF781FD002212
S315080080C0694620460FF014FBF3E70546054859F0C4
S315080080D003FC2846FEF77CFFE1E700BFD0A8002096
S315080080E0482B0B08302B0B0808B50249FEF7FEFA99
S315080080F008BD00BF9180000808B54FF6FF71012042
S31508008100FFF7FCFE08BD000000B585B011F042F887
S315080081100123ADF800300190037D3BB1074B039373
S315080081206846FEF70BFD05B05DF804FB437D13B109
S31508008130034B0393F4E7034B0393F1E7E18300084A
S31508008140058400089D820008012800D070474FF674
S31508008150FF739942FAD110B582B0074C00230093F9
S31508008160064A0121204626F0D1FA054A0549204645
S31508008170A7F08BFE02B010BDD8A80020E98200083F
S315080081800000002031E7020830B585B00446164BDA
S315080081900093034600220121144810F035FE144BC3
S315080081A01860C8B1134D284659F05AFE25F064FFE9
S315080081B00DF10F02012125F075FF284659F061FEE1
S315080081C09DF80F3073B10323A37000202075207328
S315080081D02061607505B030BD074859F07DFB40F257
S315080081E00470F7E70123EFE709810008842B0B08E1
S315080081F000A90020B88D0120902B0B0841608260F1
S3150800820070478078032814BF0020012070470000BB
S3150800821000B583B000220092134603210748006880
S3150800822010F00EFE10B103B05DF804FB044859F0D7
S3150800823053FB40F20670FEF7CBFEF4E700A90020D8
S31508008240B02B0B0830B583B005460C46104B1868A2
S3150800825010F084FF60B964230093002322460421AA
S315080082600B48006810F0ECFD012808D103B030BDBA
S31508008270084859F031FB2846FFF7CAFFEBE70648DE
S3150800828059F02AFB40F20570FEF7A2FEEEE700BFA2
S3150800829000A90020B4230B08CC2B0B0838B544687A
S315080082A0A378C3B90120A0700546A3680BB1284678
S315080082B09847237B8BB185B923694FF47A7103FB01
S315080082C001F12046FFF7BEFF012323752169054802
S315080082D059F002FB01E0022B00D038BD0323A3703E
S315080082E00025E2E7F02B0B0808B5037A427AF3B9C2
S315080082F02AB1012A0BD0022A11D000211AE0164A07
S3150800830002211D204BF0D6FA4FF4487112E0134AA9
S3150800831002211D204BF0CEFA4FF448710AE0104AAC
S3150800832002211D204BF0C6FA4FF4485102E0012BFA
S3150800833006D000210B4801234375FFF783FF08BDCC
S315080083400AB10021F6E7084A02211D204BF0B2FACD
S3150800835040F2DC51EEE700BF282C0B08742C0B0802
S31508008360AC2C0B08E8A80020202D0B08F8B504460D
S315080083700E4615468378012B01D0427D02B15DB1C8
S31508008380032B01D00020F8BD012D01D00020FAE70B
S31508008390637D03BB002700E00227237D03B177B185
S315080083A0637D03B18FB90A212046FFF74BFFA770FB
S315080083B0636893B13146284698470120E3E70023CE
S315080083C023752046FFF724FFEAE72046FFF720FF3C
S315080083D000236375E7E70020D5E70120D3E700000F
S315080083E010B54468237D03B910BD002323750448DE
S315080083F059F072FA012211462046FFF7B7FFF3E754
S315080084008C2D0B0810B54468637D03B910BD002395
S315080084106375044859F060FA012211462046FFF7B1
S31508008420A5FFF3E7B02D0B0808B54FF6FF7101203D
S31508008430FFF78AFE08BD00002DE9F04184B00E461C
S3150800844090461D4644688768A3B20093230C2B4ABE
S3150800845002211D204BF02EFA062C0BD0082C14D026
S31508008460B4F5407F1FD0072C2BD0032C37D004B08F
S31508008470BDE8F081002FF1D12A78B2FA82F25209CA
S3150800848002211F48FFF772FFF1E72B78CDF80C8021
S3150800849002930196BBB200933B0C1A4A02211D2097
S315080084A04BF008FAE3E72B78CDF80C800293019697
S315080084B0BBB200933B0C144A02211D204BF0FAF97B
S315080084C0D5E72B78CDF80C8002930196BBB20093C2
S315080084D03B0C0E4A02211D204BF0ECF9C7E72B781E
S315080084E0CDF80C8002930196BBB200933B0C084A68
S315080084F002211D204BF0DEF9B9E700BFC42D0B0899
S31508008500E8A80020E42D0B082C2E0B08742E0B0867
S31508008510C82E0B0870470000024A0260024A026031
S31508008520704700BF205E1008742F0B08012800D082
S31508008530704708B54FF6FF73994200D008BD034A45
S3150800854003490448A7F0A1FCF8E700BF0000002093
S31508008550198500086000002010B50446044B036026
S31508008560044B03600821A7F095FC204610BD00BF08
S31508008570205E1008742F0B0810B5FEF72EFF1B4857
S31508008580FFF7ECFA50BB1A4C1A4BD3F85C1220468C
S315080085904DF0C8FA20464DF0D1FA174C204659F04E
S315080085A05FFC67F0EDFC5FF009FA204659F069FCBC
S315080085B0124859F091F91248FFF796FD90B91148FB
S315080085C059F08AF906F01FF94BF012F80E4859F0DF
S315080085D083F9AC20FEF7FCFC002010BDAC20FEF7AA
S315080085E0F7FCD0E7AC20FEF7F3FCE8E70C2F0B0806
S315080085F06000002030100220B88D01201C2F0B08C7
S31508008600D0A80020302F0B084C2F0B0870B5044655
S31508008610044D2B689E6802F04CFB0246214628460C
S31508008620B04770BDD0A8002008B54FF6FF710120ED
S31508008630FFF77CFF08BD0000014B0422DA6470478F
S315080086400020015B70B504460A694B6952EA0300CB
S315080086501ED08868C96810EB000C41EB010E1CEBB4
S31508008660000C41EB0E0E4FEA4E1545EADC654FEA63
S315080086704C161CEB060C4EEB050E1CEB000041EBF2
S315080086800E01A7F03FFF012323706070204670BDDE
S31508008690002323706370F9E7D0E9020170472D20A3
S315080086A070472D2070470120704701207047000051
S315080086B0024A0260024A0260704700BF208710081B
S315080086C094300B0870474FF480607047002383602E
S315080086D07047002343607047044A026020324260B4
S315080086E0034A4260034A0260704700BFC4310B0860
S315080086F0B0300B0868300B080346064A40F8042CCD
S31508008700203240F80429044A4260044A43F8042CFB
S31508008710704700BFC4310B08B0300B0868300B082F
S31508008720024A0260024A0260704700BFF45210080B
S315080087307C310B08024A0260024A0260704700BF99
S3150800874054521008D0300B0810B50446064B036087
S3150800875020334360054B4360054B03601021A7F0A7
S3150800876099FB204610BD00BFC4310B08B0300B087A
S3150800877068300B0810B50446084B40F8043C203313
S3150800878044F80439064B6360064B40F8043C102154
S315080087902046A7F07FFB204610BD00BFC4310B085A
S315080087A0B0300B0868300B0810B50446054B03605B
S315080087B0006B18B157F01AF900232363024B2360A4
S315080087C0204610BD4CB310080C300B0810B50446F3
S315080087D0054B0360406B08B14DF07CFB00236363D7
S315080087E0024B2360204610BDF847100840300B089E
S315080087F010B50446174B03606433436000F51C70DC
S315080088004EF02CFB14F5EC7205D004F5147300E059
S31508008810183B9A42FCD1104BE3672033C4F88030EA
S315080088200E4BC4F880300E4BE36704F13800A36D95
S3150800883013B10022A265984704F10800A36A13B190
S315080088400022A2629847074B6360074B23602046C5
S3150800885010BD00BF384F1008C4310B08B0300B08E4
S3150800886068300B087C300B0820310B0838B50546F4
S315080088700446194B40F8043C643344F8043900F5BF
S315080088801B704EF0EBFA15F5EA7205D004F5147371
S3150800889000E0183B9A42FCD1104BE3672033C4F83A
S315080088A080300F4BC4F880300E4BE36704F1380074
S315080088B0A36D13B10022A265984704F10800A36AC4
S315080088C013B10022A2629847074B6360074B45F82D
S315080088D0043C204638BD00BF384F1008C4310B0889
S315080088E0B0300B0868300B087C300B0820310B08B9
S315080088F00E4BD3E88F3F13F0010F01D00C48704799
S3150800890010B50A48A7F0C8FA08B9094810BD084CB6
S31508008910084B2360084B23600448A7F0C9FA074AA6
S3150800892007492046A7F0B1FAEFE700BF04A90020DF
S3150800893008A9002094300B082087100800000020A2
S31508008940B186000810B50446054A01210C204AF0F4
S31508008950B1FFE06810B103689B68984710BD00BF77
S315080089609C2F0B0810B50446054A01210C204AF035
S31508008970A1FFA06810B103689B68984710BD00BFA7
S315080089809C2F0B0830B583B0C068D8B10D46144685
S315080089901A68019200221A6001AA214629F012F8E3
S315080089A0019808B14DF096FA002301930C4B1B6809
S315080089B00093A3886BB12B8943F040032B810020D9
S315080089C003B030BD074A01210C204AF073FF00208E
S315080089D0F6E7E388002BEED12378402BEBD1EEE7C0
S315080089E0FC310B08B02F0B0830B583B08068D8B1BE
S315080089F00D4614461A68009200221A606A462146F5
S31508008A0028F0E0FF009808B14DF064FA00230093BF
S31508008A100C4B1B680193A3886BB12B8943F0400369
S31508008A202B81002003B030BD074A01210C204AF0F3
S31508008A3041FF0020F6E7E388002BEED12378402B90
S31508008A40EBD1EEE7FC310B08B02F0B08F0B587B079
S31508008A5006460C46224A032115204AF02BFFB56824
S31508008A60002D2DD00023ADF810301E4B1B68039344
S31508008A7023893BB31C4A1268039253B30123ADF80A
S31508008A801030277B60684DF0C0F96368059304AB26
S31508008A90009305AB3A46A16828464BF09BFA044674
S31508008AA0059808B14DF016FA002305932CB1B06865
S31508008AB018B14BF0C7F80023B360204607B0F0BDE5
S31508008AC00320FBE76289022AD4D1227B142AD1D15A
S31508008AD0D7E76389002BD1D1237B402BCED1D0E7B2
S31508008AE0E42F0B0800320B08FC310B08012800D0D4
S31508008AF070474FF6FF739942FAD170B58AB04C4B5E
S31508008B004C4A1A604C4A5A604C4A1A6064325A6097
S31508008B1003F10802DA609A6000229A62DB62484929
S31508008B201963CDF804D0CDF800D0089203F13801C6
S31508008B30D96399639A65DB65424919669A66DA6666
S31508008B401A6783F874209A673F49D9673F49C3F87B
S31508008B5080103F49D9672031C3F8801083F8AC20CC
S31508008B60C3F8B820C3F8BC20C3F8C020C3F8C42093
S31508008B70C3F8C821C3F8CC2183F8D021C3F8D4217F
S31508008B80042203F5EC7303E0002103F8181B013AED
S31508008B90002AF9DA26480024C0F850420523C0F80E
S31508008BA0543280F85842C0F87442C0F87842294BCB
S31508008BB0C0F8703280F87C42274E32462749A7F023
S31508008BC064F9324626492748A7F05FF9324626490E
S31508008BD02648A7F05AF9264D264B2B606C602C7256
S31508008BE02846254B40F8103B6DF0CAF9C5F8D04029
S31508008BF0C5F8D440C5F8D840C5F8DC4032461F4908
S31508008C002846A7F042F91E481E4B0360002200239F
S31508008C10C0E90223C0E904231B4B03608461C461D5
S31508008C200463446332461949A7F02FF90AB070BDA8
S31508008C3028AA002020310B087C300B08384F100872
S31508008C40CD3F0308452A030868300B08B0300B08E7
S31508008C50C4310B081893100800000020F18700089B
S31508008C60218700086800002035870008700000206A
S31508008C7010A9002040300B08F8471008CD870008D7
S31508008C80F0A900200C300B084CB31008A98700087F
S31508008C9010B50446044B0360044B03600421A7F097
S31508008CA0F9F8204610BD00BF2087100894300B083D
S31508008CB0F0B583B00F4F384629F00CFD0E4901F583
S31508008CC04053D3F85C320D4A53600D4E0D4D009556
S31508008CD0334638462AF00AFA0B4B33610B4C2246C8
S31508008CE0394630462BF032FD094B636325626C60CA
S31508008CF003B0F0BD28AA002030E00120680000205B
S31508008D007000002010A9002080510100F0A9002061
S31508008D10F82F0B0810B50446194B036064334360FB
S31508008D2000F51C704EF09AF814F5EC7205D004F5AF
S31508008D30147300E0183B9A42FCD1124BE3672033C8
S31508008D40C4F88030104BC4F88030104BE36704F148
S31508008D503800A36D13B10022A265984704F10800F4
S31508008D60A36A13B10022A2629847094B6360094BB4
S31508008D7023604FF422712046A7F08CF8204610BDD8
S31508008D80384F1008C4310B08B0300B0868300B0890
S31508008D907C300B0820310B0838B5054604461B4BBA
S31508008DA040F8043C643344F8043900F51B704EF06F
S31508008DB055F815F5EA7205D004F5147300E0183B6A
S31508008DC09A42FCD1124BE3672033C4F88030114B2A
S31508008DD0C4F88030104BE36704F13800A36D13B173
S31508008DE00022A265984704F10800A36A13B100227D
S31508008DF0A2629847094B6360094B45F8043C4FF457
S31508008E0022712046A7F046F8204638BD384F10088C
S31508008E10C4310B08B0300B0868300B087C300B08DF
S31508008E2020310B0810B50446044B0360044B03605D
S31508008E300821A7F02FF8204610BD00BFF4521008ED
S31508008E407C310B0810B50446044B0360044B0360E1
S31508008E501C21A7F01FF8204610BD00BF5452100869
S31508008E60D0300B0810B50446074B0360406B08B1B9
S31508008E704DF030F800236363044B2360E02120465D
S31508008E80A7F008F8204610BDF847100840300B0830
S31508008E9010B50446074B0360006B18B156F0A6FDE3
S31508008EA000232363044B236038212046A6F0F2FFF3
S31508008EB0204610BD4CB310080C300B0808B54FF609
S31508008EC0FF710120FFF712FE08BD000008B518B9AA
S31508008ED0054B05221A7008BD034B01221A70034878
S31508008EE058F0FAFCF7E700BFB0AC002004320B08D4
S31508008EF032B32DE9F04107460E4611463B2A00D803
S31508008F003C21032204202FF000FF804690B104463E
S31508008F10002507E0628971196068A7F0AFFE6389CA
S31508008F201D442468002CF5D1D7F8D430394640467C
S31508008F30984708B9BDE8F08140462FF0B4FEF9E736
S31508008F40704700002DE9F04383B00C460B46002518
S31508008F5002E05A8915441B68002BFAD13B2D1BD811
S31508008F60C5F13C0905EB090818F03F0F17D028F0A2
S31508008F703F024C32002101A800F06AFA064688B979
S31508008F80019F0C37ACB162896168B819A7F076FE03
S31508008F9063891E442468F5E74FF00009E2E708F103
S31508008FA00C02E7E72946174858F096FC4FF0FF30C1
S31508008FB01EE0B9F1000F02D1002301240EE04A4653
S31508008FC00021B819A7F081FE4546F5E700231A46A1
S31508008FD02946019811F000FA0446334614B15E1C7E
S31508008FE0092BF3DD0021019800F03DFA1CB9002099
S31508008FF003B0BDE8F0832946034858F06DFC6FF0CE
S315080090000B00F5E714320B0838320B0810B582B09E
S315080090100446062380F8F8306946002001F052F924
S315080090209DF8003084F8F9309DF8013084F8FA305C
S315080090309DF8023084F8FB309DF8033084F8FC3044
S315080090409DF8043084F8FD309DF8053084F8FE302C
S3150800905040F2DC53A4F8F63094F8013143F02A03C1
S3150800906084F8013102B010BDC37813F0060F00D0A2
S31508009070704710B50446002000F086F828B16179DB
S315080090802144E2880831FFF733FF10BD08B5732283
S3150800909080F80221742280F80321064AC0F8D820F5
S315080090A0054AC0F8E020054AC0F8DC20FFF7AEFF05
S315080090B0002008BDA9DD0308B5EE0308458F0008A2
S315080090C020B310B594B0044600230593069307937E
S315080090D008938DF824300A930B930C930D938DF80F
S315080090E038300F931093119312938DF84C30084A29
S315080090F00292084A019200930FAB0AAA05A92FF01B
S3150800910091FB20462FF024FC14B010BD704700BF19
S31508009110392204088D90000810B5094C0022094927
S31508009120204639F00DF800220749204639F008F89C
S315080091300120FFF7CBFE012120462FF0D9FC10BDF8
S31508009140B4AC00205D890308AD89030810B500207A
S31508009150FFF7BCFE054C00220549204638F0F0FF13
S3150800916000220449204638F0EBFF10BDB4AC0020BD
S31508009170DF8903088189030808B500210148FFF73C
S315080091809FFF08BDB4AC002008B90248704700200C
S31508009190704700BFB4AC00207047000030B587B0F8
S315080091A004460D461249134858F096FBD4B910499F
S315080091B0114858F091FB0021019102910391049105
S315080091C00591C3238DF806301423ADF804302868BA
S315080091D00390AB88ADF8103001AA084858F074FF20
S315080091E007B030BD22460249054858F075FBF7E737
S315080091F070320B0860320B08A8320B08B08D0120BC
S3150800920088320B0810B582B004462649264858F01D
S3150800921063FB0023019374B101238DF80630042300
S31508009220ADF804300DEB03020121204858F04CFF3D
S315080092301CB902B010BD0223EFE701200FF08AF82F
S315080092401B4858F00DFE1B4BD3E88F3F13F0010F58
S3150800925006D0194869F0CAFE154858F012FEE8E724
S315080092601448A6F019FE0028F3D0134C00236360B7
S31508009270A36041F2A452A28141F2AE52E281236177
S31508009280237500200021C4E9060184F82030012353
S31508009290A3620848A6F00CFE084A09492046A6F02B
S315080092A0F4FDD6E7B8320B0860320B08B08D012002
S315080092B0B88D0120C4AD0020C8AD002000000020F4
S315080092C09991000800B583B00023ADF806300B4B22
S315080092D001221A700DF1060011F038FC024628B971
S315080092E0BDF80630C3F30B03002BF3D1034B002163
S315080092F01970104603B05DF804FB00BFB0BE00202D
S3150800930008B5094858F0E8FA00F080FB4FF0FF323C
S31508009310012100200FF0F2FB00F096FBFFF7D2FFC9
S3150800932000F084FBF2E700BFC8320B0800B585B031
S315080093300B4B02930B4B01930223009300234FF42C
S315080093408062094909480EF0C7FD094B186010B13B
S3150800935005B05DF804FB074858F0BEFAF8E700BF09
S31508009360F8BD0020F8AD0020E0320B080193000894
S31508009370B4BE0020E8320B0808B5174858F0ACFA16
S31508009380164B1B683BB1164B1B687BB1154B1B680C
S31508009390BBB1002008BD0022012108460DF04EFF92
S315080093A00E4B18600028EED10120F3E703220021B6
S315080093B001200DF043FF0A4B18600028E6D1012072
S315080093C0E8E701200EF08AF8064B186008B100207D
S315080093D0E0E70120DEE700BFFC320B08C4BE002030
S315080093E0CCBE0020C8BE002008B5044858F074FA60
S315080093F0034B00201860586008BD00BF0C330B08EB
S31508009400B8BE002010B4064B064C1A681444046013
S315080094101A680A441A6000205DF8044B704700BFBA
S31508009420B8BE0020B8350B08014B03600020704712
S3150800943050BC0400024B53F82130036000207047EB
S3150800944008F20F08062303800020704700207047A3
S3150800945010B504461046FDF7ADFE206008B10020A1
S3150800946010BD0120FCE708B5FDF74EFF002008BD3A
S3150800947010B5044603F0D1FD34B1054B20221A6716
S3150800948003F0D1FD002010BD024B20221A67F7E732
S3150800949000D0035000E0035038B5094C04F50053DA
S315080094A020251D640A200EF055FF04F58054256416
S315080094B003200EF04FFF0020024B586038BD00BF56
S315080094C000C00350B8BE002010B5054C0021206826
S315080094D00EF0B0F9032120680EF0ACF9002010BD9B
S315080094E0CCBE002008B54FF47A7300FB03F3064898
S315080094F0A0FB03208009B3F57A7F00D20A200EF07C
S3150800950029FF002008BD00BFD34D6210024B187218
S3150800951000205872704700BFB8BE0020F0B583B06F
S3150800952006460D461746002400E00134AC4212D226
S3150800953001220DF10701094B18680EF0D9F8012828
S31508009540F3D19DF80730B342EFD117B1044B1B682E
S315080095503B60002000E0072003B0F0BDC4BE002039
S315080095605CD4002008B54FF4FA71064B18680EF063
S3150800957061F9012801D1002008BD034858F0ACF96B
S315080095800720F9E7C8BE00201C330B0808B50023DE
S315080095901A461946024800680DF0E4FE002008BD88
S315080095A0C8BE002038B5044600F03AFC05460E4B06
S315080095B01A7AA3789A4201D0284638BD2288B2F58D
S315080095C0007FF9D22146094B1868A7F057FB2146B8
S315080095D011F8022F044B5A7202230022044800682D
S315080095E00DF0C0FEE8E700BFB8BE00205CD400203E
S315080095F0C4BE002008B510F0B9FB08BD40F6083017
S3150800960070470FB400B583B004A951F8040B019153
S31508009610A8F070F903B05DF804EB04B070470000D9
S31508009620124B1B78834200D0704710B582B0104B9E
S31508009630D3F8202403F50053C3F82024002401940A
S3150800964001A90C4B18680DF0F3FF01AA21460A4B35
S3150800965018680FF0A1FA019B2BB14FF0E0234FF0E9
S315080096608052C3F8042D02B010BD00BFDC000020F4
S3150800967000C00350CCBE0020B4BE002010B582B096
S31508009680204C2178204858F027F901213A2002F089
S315080096901FFB002304220521184603F0BFFE002302
S315080096A004220521012003F0B9FE00230222082125
S315080096B0184603F0B3FE01F07FFE002001900090EB
S315080096C001232278082103F015FE1049207801F0BD
S315080096D08BFE2278012393405AB2002A09DB03F055
S315080096E01F035209012101FA03F36032084941F8C0
S315080096F02230074B502283F81A2383F8192302B025
S3150800970010BD00BFDC00002020F20F0821960008DB
S3150800971000E100E000B583B00023019301A9084BDE
S3150800972018680DF085FF019B2BB14FF0E0234FF031
S315080097308052C3F8042D012003B05DF804FB00BF76
S31508009740E0BE002070B588B001AC324D0FCD0FC415
S3150800975095E8070084E8070001252F4B1D700024B3
S315080097602E4B1C602E4B03938DF8125029463A2037
S3150800977002F0AEFA2946292002F0AAFA294E01A9D2
S31508009780304610F0D7F9B36843F00043B360264B70
S31508009790264AC3F838274FF00212C3F8302702F5D5
S315080097A08032C3F834271C22C3F820272B4604220C
S315080097B02146022003F032FE2346042229460220CF
S315080097C003F02CFE23462A460221084603F026FE0D
S315080097D0234604220321022003F020FE0322214609
S315080097E028460DF02BFD124B1860234622462146CB
S315080097F00DF0B8FD01F0F4FC21460E4801F06EFCB0
S3150800980021460D4801F06AFC4FF440637361204617
S3150800981008B070BD38F20F08DCBE0020D4BE0020A8
S315080098200051250200C0055000C003500200010087
S31508009830E0BE0020E4BE0020D8BE002038B50C4BA0
S3150800984018680EF069F90B4C206801F033FD0A4DD3
S31508009850286801F02FFD286801F098FC206801F0BF
S3150800986095FC01F06DFC054810F03AF9002038BD6A
S31508009870E0BE0020D8BE0020E4BE002000C005508F
S31508009880024B0122C3F8A0200020704700E00350D5
S31508009890024B0122C3F8A0200020704700D00350D5
S315080098A030B587B002460D46002404940D4B039349
S315080098B002940191012300930B4B4FF480210B482E
S315080098C0006801F0DCFC049403940294019500946A
S315080098D0074B084A08490948006801F0B5FC07B073
S315080098E030BD00BF1597000824C00550D8BE00201B
S315080098F0D4BE00203CC0055002000400E4BE00208F
S3150800990070B586B006460D46002404940D4B0393A5
S315080099100294019100940C4B0C4A4FF480210C4898
S31508009920006801F0ACFC04940394029401950123A9
S3150800993000933346074A08490848006801F084FC42
S3150800994006B070BD1597000824C00550D0BE00208B
S31508009950D8BE00203CC0055002000400E4BE00202A
S3150800996070B504461D46BDF81060264B9B6913F07A
S31508009970400FFAD0234B4FF4406058616AB9A6B934
S31508009980012070BD08781F4BD8631E4B9B6913F0E6
S31508009990200FFAD0013A92B20131002AF2D1194BBE
S315080099A09B6913F0400FFAD0E9E7164B4FF4406273
S315080099B05A614FF0FF31144B18680DF03BFF012830
S315080099C001D00720DDE7022C0DD031462846FFF7E7
S315080099D097FF4FF0FF310C4B18680DF02BFF01284D
S315080099E006D00020CDE731462846FFF759FFF0E7B5
S315080099F000231A461946044800680DF0B3FC0020F7
S31508009A00BFE700BF00C00550E0BE002000B583B028
S31508009A100123019300200090034A1278082103F0DD
S31508009A2069FC03B05DF804FBDC000020044B1A78DF
S31508009A3001239340034AC2F824340020704700BF2C
S31508009A40DC00002000D00350044B1A780123934011
S31508009A50034AC2F824340020704700BFDC00002007
S31508009A6000E0035008B5024857F036FF08BD00BFAE
S31508009A7054F20F0838B50C460A2937D8DFE801F042
S31508009A8006363636363622262A2E3200054625482A
S31508009A9057F022FF244B28681860AA889A80234B1F
S31508009AA01A6892F8223243F0020382F8223202211F
S31508009AB01F4B18680DF0E4F91CB11E4B19780429E0
S31508009AC018D938BD1C4857F007FFF5E71B4857F06B
S31508009AD003FFF1E71A4857F0FFFEEDE7194857F07C
S31508009AE0FBFEE9E7184857F0F7FEE5E7174857F091
S31508009AF0F3FEE1E70131C9B21970154B00221A705D
S31508009B00144857F0E9FE094B1A6892F8223203F016
S31508009B10FE0382F822328021054B18680DF0B0F951
S31508009B20CFE700BF74F20F08ECBE00205CD400201B
S31508009B3008BF0020F8BE002084F20F08B4F20F0810
S31508009B40D0F20F08ECF20F081CF30F0844F30F08C5
S31508009B5006BF002064F30F0808B5084857F0BCFE96
S31508009B60074B1A6892F8223203F0FD0382F8223274
S31508009B700421044B18680DF083F908BD90F30F080B
S31508009B805CD4002008BF002008B54021024B1868A5
S31508009B900DF076F908BD00BF08BF0020F0B589B002
S31508009BA00446038EDC3BC3F3C03202FA83F390F813
S31508009BB0242090F8251090F8260094F8275094F859
S31508009BC0287094F829C0261D0696CDF814C0049767
S31508009BD003950290019100925B10628D2A490978DB
S31508009BE02A4857F079FE2A4857F076FE294B186816
S31508009BF018B13146A7F0ABFD38BB3020FDF7DAFACD
S31508009C00054620B3244B1A6802601860226831465C
S31508009C100430A7F033F823682B4400221A7194F80D
S31508009C202C3013F0080F16D00B2385F82530638DDA
S31508009C3085F82C30238EEB85636AC5F82630238D8C
S31508009C406B85114A13780133137009B0F0BD1348B8
S31508009C5057F042FEF9E713F0040F03D0022385F804
S31508009C602530E4E713F0020F03D0012385F82530E9
S31508009C70DDE713F0010F03D0032385F82530D6E777
S31508009C80002385F82530D2E7E8BE0020A8F30F08A0
S31508009C902C06100800BF0020FCBE0020DCF30F08CD
S31508009CA000B583B00DF038F80A4B18600A4B0193DB
S31508009CB00123009300234FF48062084908480EF0F8
S31508009CC047F9012802D103B05DF804FB054857F0AF
S31508009CD003FEF8E708BF002010BF0020F0F30F08C6
S31508009CE0D9A00008FCF30F08F0B587B0FFF7D8FF36
S31508009CF0284810F0F1FD04462749284857F0ECFD9E
S31508009D00072C3FD00BD940F601339C4234D040F69D
S31508009D1002339C423AD1224857F0DEFD2FE02CB19F
S31508009D20012C33D11F4857F0D7FD28E0194D95F877
S31508009D30163295F8172295F8181295F8190295F81B
S31508009D401A6295F81B720597049603900291019280
S31508009D50009395F8003295F8012295F802121248F8
S31508009D6057F0BAFD114857F0B7FD95F82232022B85
S31508009D7005D110F0C9FE02E00D4857F0ADFD2046AA
S31508009D8007B0F0BD0B4857F0A7FDF8E70A4857F0AB
S31508009D90A3FDF4E714BF00201CF40F0824F40F08F1
S31508009DA0ACF40F08ECF40F0840F40F087CF40F0825
S31508009DB08CF40F08CCF40F0800F50F0808B5124B01
S31508009DC01B7813F0040F00D008BD104857F084FD27
S31508009DD00D4A137843F004031370FFF74FFCFFF79F
S31508009DE083FF60B90A4857F077FDFFF7C5F9094BB5
S31508009DF0012283F82222084857F06EFDE4E7074857
S31508009E0057F06AFDE0E700BFE9BE002014F50F0829
S31508009E1024F50F0814BF002038F50F0848F50F0879
S31508009E202DE9F04105468378C33B212B1AD8DFE894
S31508009E3003F01C211919191919262C301919191981
S31508009E401919191919191919191919191919193756
S31508009E501119345C384857F03FFD2A460021374827
S31508009E6058F032F90020BDE8F08141680830FFF764
S31508009E7001FEF7E741890430FFF76EFEF2E7037942
S31508009E80002BEFD1FFF7F0F8ECE70430FFF786FE7A
S31508009E90E8E74068FFF778FEE4E7FFF7E3FDE1E768
S31508009EA0274857F019FD2E464FF0000806E02548CA
S31508009EB057F012FD08F110081FFA88F82B88434559
S31508009EC0D0D947464146204857F006FD00240F2CB6
S31508009ED0EDD83B192A889342E9DA16F8011B1B4884
S31508009EE057F0FAFC0134E4B2F1E74168184857F034
S31508009EF0F3FC2E464FF0000806E0124857F0ECFC3B
S31508009F0008F110081FFA88F82B884345AAD947464E
S31508009F1041460D4857F0E0FC00240F2CEDD83B19BC
S31508009F202A889342E9DA16F8011B084857F0D4FC48
S31508009F300134E4B2F1E700BF60F50F08B08D0120E7
S31508009F4078F50F082C06100890F50F089CF50F08F1
S31508009F50A4F50F084FF0FF3070474FF0FF307047F9
S31508009F604FF0FF307047000008B5094B1B7813F017
S31508009F70010F09D143F00103054A1370FFF7FCF9F5
S31508009F80FFF71CFF002008BD024857F0A5FCF9E7BB
S31508009F90E9BE0020BCF50F0870B504468446244D7A
S31508009FA000F12006AE46DCF80000DCF80410DCF808
S31508009FB00820DCF80C30AEE80F000CF1100C7546E2
S31508009FC0B445EFD19CF800308EF80030184D412288
S31508009FD004F1210105F12100A6F050FE2946154895
S31508009FE057F07AFC94F86230013B0A2B1BD8DFE85D
S31508009FF003F006101A1A1A151A1A1A1A0B000C4B1D
S3150800A000022283F8622070BD094B062283F862207B
S3150800A010F9E7074B022283F86220F4E7044B022291
S3150800A02083F86220EFE7024B042283F86220EAE70E
S3150800A03038C10020D4F50F0830B108B563220349AA
S3150800A040A6F01CFE012008BD0020704738C100207C
S3150800A05008B5632200210248A6F037FE08BD00BFF6
S3150800A06038C10020194B1B786BB3F0B589B0174C73
S3150800A0702146174857F030FC022300226E21154866
S3150800A08057F02AFC022200216E2010F049FD2046D6
S3150800A090A7F06FFB054694F8627004F12106304676
S3150800A0A0A7F067FB00220692059280B204900396F9
S3150800A0B0029201230193009713462946204610F081
S3150800A0C07BFA09B0F0BD0E20704700BF38C10020EA
S3150800A0D0ECF50F08FCF50F08F0B58FB00020FFF778
S3150800A0E053F8694B18600EF015F8064675E0674890
S3150800A0F057F0F2FBFFF7B6FF654B01221A707EE0B8
S3150800A1000EF008F8054606F1FA0383427DD25E4B47
S3150800A1101B6893F8A430302B01D0064675E05D4BDA
S3150800A1201B780BB1064670E00120FFF76BF8594B18
S3150800A13001221A70584B1B780BB12E4665E0574919
S3150800A1400020FFF72BF8544B01221A702E465CE0CC
S3150800A1500020FFF757F800234E4A13704E4A137033
S3150800A1604F4857F0B9FB4F4A137843F00203137070
S3150800A170FEF7D2FF4CE00020FFF744F80023454ADB
S3150800A1801370454A1370474A137823F00203137075
S3150800A190FEF7DCFF3FE0002755E0204650F8045B59
S3150800A1A0414B1B6898472046FDF7AEF82C46002C15
S3150800A1B0F3D13D4B1B680020984700233B4A1360A8
S3150800A1C03B4A13703B4B186820B1FDF79DF8394B95
S3150800A1D000221A60344B00221A60FA2300930023E7
S3150800A1E001226621344800680CF0A4FD044610F0EC
S3150800A1F0800F04D0264B1B78002B3FF478AF294BF1
S3150800A2001B7813F0020F7FF47BAF14F0020F9FD177
S3150800A21014F0040FAFD114F0200F29D0254B1D6878
S3150800A220002DB8D02422002105A8A6F04EFD284608
S3150800A230A7F09FFA87B23A46294606A8A6F01EFD59
S3150800A2400597012705AD022300226E211B4857F00A
S3150800A25043FB022200216E2010F062FC00210391CC
S3150800A2600291019100972B460A46012010F02AFA1E
S3150800A27014F0400FB1D00E4B1978114857F02CFB4B
S3150800A2800A4B1C6893E700BF0CBF00205CF60F085A
S3150800A29006BF002004BF002005BF0020ECBE00203A
S3150800A2A07CF60F08E9BE0020F4BE0020FCBE0020A4
S3150800A2B0E8BE002000BF002008BF0020FCF50F08FC
S3150800A2C094F60F0800B585B00D48D0F816320B6025
S3150800A2D0B0F81A328B8090F8193290F81A2290F852
S3150800A2E01B1202910192009390F8183290F81722E7
S3150800A2F090F81612034857F0EFFA05B05DF804FB1C
S3150800A30014BF0020B4F60F0810B5094857F0E4FA50
S3150800A31010F0FAFB0446074A137823F00203137079
S3150800A3208021054B18680CF0ABFD204610BD00BF18
S3150800A330ECF60F08E9BE002008BF00200120704790
S3150800A34010B5074B1B78C3F3400413F0020F05D072
S3150800A3500449054857F0C0FA204610BD0349F8E7F6
S3150800A360E9BE002004F70F0808F70F0800F70F08E2
S3150800A37010B504460849094857F0AEFA3CB100241E
S3150800A38022460549064857F0A7FA204610BDFFF7AA
S3150800A390D7FF0446F4E700BF20F70F0860320B0822
S3150800A3A034F70F0808B5024857F096FA08BD00BFFB
S3150800A3B044F70F0870470000044B93F8220210F088
S3150800A3C0010000D170470120FCE700BF14BF002040
S3150800A3D0024B93F8220200F00100704714BF0020D8
S3150800A3E038B50F4B1B680BB1002038BD05460C4627
S3150800A3F050B1A7F0BEF90130FCF7DCFE094B186036
S3150800A40058B12946A7F0ADF9054B1C602021064B2B
S3150800A41018680CF035FD0120E7E70020E5E700BFE6
S3150800A420F4BE002000BF002008BF002008B50023A6
S3150800A43004221946012002F0F1FF002008BD08B5E4
S3150800A44001213A2001F044FC0EF0CEFE08BD08B505
S3150800A45001213A2001F03CFC08BD0000BFF34F8FF4
S3150800A4600549CA6802F4E062044B1343CB60BFF3A4
S3150800A4704F8F00BFFDE700BF00ED00E00400FA05BE
S3150800A4800D4B1B68B3F1FF3F06D04FF4801202FA5A
S3150800A49003F30A4A13667047094B1B785BB9094BE5
S3150800A4A04FF400725A6603F5A6235B681BB9034B83
S3150800A4B04FF480121A667047E000002000900044AE
S3150800A4C0C1C1002000900050084B1B68B3F1FF3F44
S3150800A4D00AD1074B1B783BB9064B5B6813F0010F93
S3150800A4E002D0024B00221A60704700BFE00000202D
S3150800A4F0C1C1002000C005504FF000639B6A03F1FC
S3150800A5007842B2F5C04F07D21A680B4B9A4207D069
S3150800A51000230370836070470023037083607047CD
S3150800A520012303704FF000639A6A926842609B6A3F
S3150800A5309B698360704700BF07B0CD5E08B54FF0D2
S3150800A540005340F202221A804FF20F025A80FFF798
S3150800A55085FF4FF000639B6A03F17843B3F5C04F5C
S3150800A56019D230B585B005460C4601238DF804305E
S3150800A57000230293039301A8FFF7BEFF039B13F47E
S3150800A580806F06D04FF000639B6A1B6C21462846F5
S3150800A590984705B030BD7047494B1B78002B66D1EC
S3150800A5A010B582B0044600230193009300285CD0BE
S3150800A5B0434B01221A7002F030FD424B1860A0F09E
S3150800A5C0FBFE414B1B78002B55D0404B5A6E22613F
S3150800A5D09A6E626103F580524FF4804393663C4B52
S3150800A5E05968A1613B499960196E2160596E61608D
S3150800A5F0196CA160596CE1603749086C1864496C9C
S3150800A6005964012151661B6E13F4005F44D0334B25
S3150800A610DB6813F0010FFAD1FFF732FF304B042243
S3150800A6201A664FF400721A6600F064FAB0F1FF3F3A
S3150800A63038D12B4C082323664FF4805323664FF0FA
S3150800A640006323664FF400236366694601A8FFF793
S3150800A65080FF019B2366009B63661B4B1B7823B117
S3150800A660204A116821665268626602B010BD144B12
S3150800A67002221A70704700F01DFF0028A5D1082392
S3150800A680184A194919480068A4F04EFF00289CD1B9
S3150800A6900D4B01221A7098E7154BDB6813F0010F72
S3150800A6A0FAD1B9E700F026FA40F201139842C0D071
S3150800A6B00B4B4FF400521A664FF480421A66B8E7FD
S3150800A6C0C2C10020C4C10020C0C1002000800050C3
S3150800A6D00080004455CEAC0000C000540000044081
S3150800A6E000900044B8C1002000710800E400002072
S3150800A6F0000004501F4B1B78012B03D01D4B012271
S3150800A7001A70704710B5044620B300F0F3F9B0F19B
S3150800A710FF3F20D12268184B1A6662685A66A268FB
S3150800A7201A64E2685A64A36913F0010F02D0124B47
S3150800A73000229A60FFF7C8FE2269104B5A666269C2
S3150800A7409A66A0F055FE0E4B186802F06CFC094B91
S3150800A75000221A7010BD00F0CDF940F2011398429C
S3150800A760D8D0084B01225A66074BDB6813F0010F55
S3150800A770FAD1CFE7C2C10020008000440080005013
S3150800A780C4C10020009000400000044038B54FF0D6
S3150800A79000639B6A03F17843B3F5C04F26D2154B85
S3150800A7A01B781BB1022B01D0002421E0124D28464C
S3150800A7B0FFF7F2FE11490120C1F88001104B03F59D
S3150800A7C000544FF48032E260086003F580531A6142
S3150800A7D04FF000639B6ADB69984704462846FFF7F3
S3150800A7E089FF2CB9034B01221A7001E04FF48174DA
S3150800A7F0204638BDC1C100209CC1002000E100E010
S3150800A800008000442C4B1B7803B9FEE700B583B0E3
S3150800A81000230093019308236A46284928480068BC
S3150800A820A4F082FE48BB274BD3F840311F2B1AD918
S3150800A830244BD3F84021203A012303FA02F2019B64
S3150800A8401343019308236A461C491D480068A4F06F
S3150800A85021FE4FF0005340F20B221A804FF20F02EE
S3150800A8605A80FFF7FBFD174BD3F84021012303FA63
S3150800A87002F2009B13430093E4E7134A9042E8D19F
S3150800A880104BD3F840311F2B0ED90E4BD3F840216D
S3150800A890203A01239340019308236A46074908484A
S3150800A8A00068A4F0F7FDD4E7064BD3F8402101234E
S3150800A8B093400093F0E700BFC2C100200071080072
S3150800A8C0E4000020008000440BE000F038B54FF0AB
S3150800A8D000639B6A03F17842B2F5C04F14D204466E
S3150800A8E01B6B03F17843B3F5C04F0DD2074D2846CD
S3150800A8F0FFF752FE4FF000639B6A1B6B5B682046AE
S3150800A90098472846FFF7F6FE38BD00BFC8C10020A5
S3150800A91008B54FF000639B6A03F17842B2F5C04F61
S3150800A92008D21B6B03F17842B2F5C04F05D29B687B
S3150800A930984701E04FF4817008BD4FF48170FBE73A
S3150800A94030B583B001904FF000639B6A03F17842FB
S3150800A950B2F5C04F16D21B6B03F17843B3F5C04F5F
S3150800A96015D20C4D2846FFF717FE4FF000639B6A79
S3150800A9701B6B9B69012101A8984704462846FFF7E7
S3150800A980B9FE01E04FF48174204603B030BD4FF4A0
S3150800A9908174F9E7C8C100202DE9F0414FF0006342
S3150800A9A09B6A03F17844B4F5C04F17D207460E46A2
S3150800A9B015461B6BBBB1DFF834804046FFF7ECFD4C
S3150800A9C04FF000639B6A1B6B5B6A2A463146384622
S3150800A9D0984704464046FFF78DFE01E04FF40174A0
S3150800A9E02046BDE8F0814FF40174F9E7C8C100209C
S3150800A9F070B54FF000639B6A03F17842B2F5C04F19
S3150800AA0018D205460C461B6B03F17843B3F5C04FC5
S3150800AA1014D20C4E3046FFF7BFFD4FF000639B6A19
S3150800AA201B6B9B6A21462846984704463046FFF723
S3150800AA3061FE01E04FF40174204670BD4FF40174C5
S3150800AA40FAE700BFC8C1002030B5ADF50F7D4FF05D
S3150800AA5000639B6A03F17843B3F5C04F15D20C46E1
S3150800AA604FF40E726946FFF797FF054678B92146F7
S3150800AA706846FFF7BDFF40F201239842F7D040F23F
S3150800AA800323984203D0054601E04FF40175284692
S3150800AA900DF50F7D30BD0000F8B50D464FF000638B
S3150800AAA09B6A03F17841B1F5C04F19D204461646A0
S3150800AAB01B6B03F17843B3F5C04F15D20C4F3846DC
S3150800AAC0FFF76AFD4FF000639B6A1B6B9B6B324670
S3150800AAD029462046984704463846FFF70BFE01E00C
S3150800AAE040F201142046F8BD40F20114FAE700BF0F
S3150800AAF0C8C100204FF000639B6A03F17842B2F5A3
S3150800AB00C04F29D21B6B03F17843B3F5C04F26D249
S3150800AB1000B585B001238DF8043000230293039312
S3150800AB2001A8FFF7E9FC039B13F4803F1AD0029BA8
S3150800AB30C3F307421B0E18D0012B08D04FF0006351
S3150800AB409B6A1B6B1B6C984705B05DF804FB0A2AC9
S3150800AB50F4D840F20110F7E740F20110704740F2CE
S3150800AB600110704740F20110EEE740F20110EBE7E2
S3150800AB7070B54FF000639B6A03F17842B2F5C04F97
S3150800AB8018D205460C461B6B03F17843B3F5C04F44
S3150800AB9014D20C4E3046FFF7FFFC4FF000639B6A59
S3150800ABA01B6BDB6B21462846984704463046FFF761
S3150800ABB0A1FD01E040F20114204670BD40F20114E7
S3150800ABC0FAE700BFC8C100202DE9F04190B017464A
S3150800ABD01D464FF000639B6A03F17842B2F5C04FF9
S3150800ABE04ED206460C461B6B03F17843B3F5C04FAD
S3150800ABF04BD201A8FFF76AFE059BD3F80C801FFA13
S3150800AC0088F3002B44D00EA93046FFF781FEC8BB57
S3150800AC100E9E63190F9A93423DD81FFA88F8B4FB23
S3150800AC20F8F208FB1242F2B1C8F1000C0CEA040073
S3150800AC304044B3FBF8F108FB113179B103EA0C0182
S3150800AC408844A8EB0001304411B1FFF791FFC8B959
S3150800AC502A4639463019FFF71FFF13E0A2EB08080A
S3150800AC6008EB0501EFE73019B5FBF8F308FB1353BA
S3150800AC7023B1C8F1000129404144E5E72946E3E745
S3150800AC804FF4817010B0BDE8F0814FF48170F9E798
S3150800AC9040F20140F6E740F20240F3E703680B6032
S3150800ACA00160704708B543680BB1984708BD222074
S3150800ACB0FCE708B543690BB1984708BDFF20FCE7D8
S3150800ACC00A681378022B00D1704710B50846137925
S3150800ACD0517903EB43031B011433064C1B59CB4034
S3150800ACE013F0010F0CBF012300231370FDF78EFC30
S3150800ACF010BD00BF30C0035030B583B005460468A8
S3150800AD0001213A2000F0E4FF00230122617920792D
S3150800AD1002F084FB2379627903EB43031B011433A6
S3150800AD200F495B58D34013F0010F0CBF01230023D2
S3150800AD302370A379022B02D0002003B030BD00F0A7
S3150800AD403BFB2A460749607900F05EFB02466179BB
S3150800AD50207901230193009302F0CCFAECE700BFB7
S3150800AD6030C00350C1AC000803681878704700006B
S3150800AD7002681378022B12D01379517903EB430337
S3150800AD801B01143312481B58CB4003F0010003463D
S3150800AD909179012904D011B980F00100107070472B
S3150800ADA05188490089B20B4343F47F4343F0C003FB
S3150800ADB04FF6E0718B4205D04FF6DF718B4204D017
S3150800ADC05380704701211170F6E700211170F7E7EB
S3150800ADD030C0035008B503681A78022A00D008BDA7
S3150800ADE000225A80FFF788FFF9E710B582B0046899
S3150800ADF02378022B04D0A379022B03D002232370D5
S3150800AE0002B010BD0021607900F0EEFA6179207970
S3150800AE100023019300930A4602F06CFAEEE708B5A0
S3150800AE2043680068984708BD08B58368006898476E
S3150800AE3008BD08B5C3680068984708BD08B5036922
S3150800AE400068984708BD08B543690068984708BD73
S3150800AE5010B5044601213A2000F03AFFA378B3FA68
S3150800AE6083F35B0904226178207802F0D7FA002080
S3150800AE7010BD000083784BB90378427801219140D0
S3150800AE8003EB43031B01064AD15070470378427807
S3150800AE900121914003EB43031B01024AD15070473D
S3150800AEA040E0035040D0035083784BB9037842788A
S3150800AEB00121914003EB43031B01064AD150704719
S3150800AEC0037842780121914003EB43031B01024AB0
S3150800AED0D150704740D0035040E003500378427881
S3150800AEE00121914003EB43031B01014AD1507047EE
S3150800AEF040F0035002460378407803EB43031B01F6
S3150800AF00103305495B58C34003F0010093780BB929
S3150800AF1080F00100704700BF30C00350F0B585B01F
S3150800AF200C4694469DF83410664A1278002A00F0BA
S3150800AF30BD800546BCF1070F00F2BA800A9A002ABE
S3150800AF4000F0B8800B9A002A00F0B6800E9AB2F587
S3150800AF50006F00F3B38001285BD05B4A02EB0C124A
S3150800AF60127B002A00F0AC80002200920192029225
S3150800AF700392564A02EB4C1E002C4FD14FEA4C1650
S3150800AF8000209051CEF80400CEF80800CEF80C0048
S3150800AF909EF8020040F010008EF802009EF80300AA
S3150800AFA040F030008EF8030021B9C1B241F0030128
S3150800AFB08EF8031000930E9B013B444A4FEA4C104F
S3150800AFC002EB4C11165A63F30E1616520A9B8B6047
S3150800AFD00B9B4B60CB789DF83C2062F38303CB70C8
S3150800AFE0012D36D0109B002B56D0374A4FEA0C114C
S3150800AFF002EB0C1310985050119A5A6000249C606A
S3150800B0005D7372466946604602F0C4FA204605B08A
S3150800B010F0BD0C9A002AA0D12D48F8E72B4F4FEA2D
S3150800B0204C1607EB4C120020B85150609060D06067
S3150800B030907840F010009070D07840F00300D070FF
S3150800B0400029B7D107EB4C12C1B241F03001D170DB
S3150800B050B0E70E460A7B42F001020A73D2B242F00A
S3150800B06002020A73CA68042161F39F02F26006F1BC
S3150800B070100796E80F0087E80F00F2696FF00301E2
S3150800B08061F39F02F2610C9B7361012CAAD10B9AA2
S3150800B090B2610C9A7260A5E7002DA6D10B4B03EBA3
S3150800B0A04C139A786FF304129A709EE70948AEE734
S3150800B0B00748ACE70648AAE70548A8E70448A6E70C
S3150800B0C00548A4E764C30020E4C1002064C2002048
S3150800B0D0018000F0028000F0078000F0134B1B7817
S3150800B0E0FBB110B50446F0B101F097FF0023072B1A
S3150800B0F013DC0F4A02EB0312127B0AB10133F6E79F
S3150800B10023600B4A190102EB031301241C73002464
S3150800B110545001F088FF204602E001F084FF0548FC
S3150800B12010BD054870470548FAE700BF64C300200C
S3150800B130E4C10020048000F0028000F0018000F0E5
S3150800B14038B501F06AFF04460023072B06DC0C4AD3
S3150800B15002EB0312127B12B90133F6E7002222B181
S3150800B160204601F060FF074838BD02F0C3F9002504
S3150800B170054B1D70204601F056FF2846F4E700BF30
S3150800B180E4C10020058000F064C300200F4B1B7843
S3150800B190BBB110B50446072815D801F03EFF0C4B85
S3150800B1A003EB04131B7B1BB901F03DFF09480BE0B9
S3150800B1B0074B03EB041300241C7301F034FF2046ED
S3150800B1C002E005487047054810BD00BF64C300206B
S3150800B1D0E4C10020068000F0028000F0018000F043
S3150800B1E000B583B0144B1B68019300238DF8043017
S3150800B1F001F013FF114B1B7833B9104B01221A705B
S3150800B20001F011FF002309E001F00DFF0C480FE0E3
S3150800B2100C4A02EB0312002111730133072BF7DDE9
S3150800B22004238DF807300DEB030002F081F90020A6
S3150800B23003B05DF804FB00BF54F70F0864C3002091
S3150800B240038000F0E4C1002000B589B084460E985A
S3150800B25007900D9806909DF8300005900B9804907D
S3150800B2609DF82800039000200290019300920B4657
S3150800B27062460146FFF752FE09B05DF804FB00B5C9
S3150800B28089B084460E9807900D9806909DF8300070
S3150800B29005900B9804909DF82800039000200290D2
S3150800B2A0019300920B4662460121FFF737FE09B06B
S3150800B2B05DF804FB08B50A4B1B7853B107280AD872
S3150800B2C0084B03EB00131B7B3BB102F0ADF90020E2
S3150800B2D008BD0548FCE70548FAE70548F8E700BF52
S3150800B2E064C30020E4C10020028000F0018000F061
S3150800B2F0078000F0F8B5194B1F6D5B6D1F4002D42F
S3150800B3000125002402E0FEE701346D00072C24D84D
S3150800B3103D42F9D0124B1D652301124AD358002B22
S3150800B320F2D002EB0416B1680131B16072682046AA
S3150800B330984780F00100C0B2737B012BE4D1002846
S3150800B340E2D0094B03EB44131A7B6FF341021A73DD
S3150800B3501A7F6FF341021A77D6E7F8BD000004504A
S3150800B36000200450E4C1002064C2002010B5044641
S3150800B37002E0202007E09047DCB194FAA4F0002808
S3150800B380F7D0B0FA80F00123834024EA0304094B7E
S3150800B39003EB00135A68002AEED0064B03EB0013A2
S3150800B3A01B7B002BE7D0034B03EB001399689047F0
S3150800B3B0E2E710BD68C3002008B5192001F036FE83
S3150800B3C028B1084B4FF00072C3F880211A601A2082
S3150800B3D001F02CFE28B1034B4FF08062C3F88021A0
S3150800B3E01A6008BD00E100E038B505460C4601F0D4
S3150800B3F014FE044B03EB05135C6000221A7301F07C
S3150800B40012FE38BD68C30020F8B505460F46164635
S3150800B41001F003FE05F0FC0C104BD3F824140023AE
S3150800B420032B0CD8EC1804F0030444EA0C0421FAA4
S3150800B43004F212F0010F03D00133DBB2F0E7FF2468
S3150800B440FF2C06D0064B03EB04135F609E600122B7
S3150800B4501A7301F0E8FD2046F8BD00BF00C003508E
S3150800B46068C3002008B5084BD3F82404D3F8202471
S3150800B470104000F0553020F0502003F50053C3F873
S3150800B4802004FFF773FF08BD00C0035008B5084B3A
S3150800B490D3F82404D3F82024104000F0AA3020F072
S3150800B4A0A02003F50053C3F82004FFF75FFF08BD8B
S3150800B4B000C0035008B5034B1968034B1868A3F07E
S3150800B4C019FF08BDE8000020E4000020B0F1FF3FA6
S3150800B4D001D010B97047024870470248704700BF4C
S3150800B4E021E000F024E000F08908002301E00430A0
S3150800B4F001338B4205D20268B2F1FF3FF7D0002034
