:020000040800F2
:1060000000000420B1EB0108ADEB010869FB0708B3
:106010005DCC0008ADEB0108ADEB0108ADEB01086C
:10602000ADEB0108ADEB0108ADEB0108512302080F
:10603000ADEB01088C000020F1220208C7A4010882
:10604000ADEB0108ADEB0108ADEB0108ADEB0108CC
:10605000ADEB0108ADEB0108ADEB0108ADEB0108BC
:10606000ADEB0108ADEB0108ADEB0108E58B0008D5
:10607000ADEB0108ADEB0108ADEB0108ADEB01089C
:10608000ADEB0108ADEB0108ADEB0108ADEB01088C
:10609000ADEB0108F9A30008ADEB0108ADEB010879
:1060A000ADEB010891A5000869A50008ADEB01085A
:1060B000ADEB010895180D088D220D0845220D083D
:1060C00041220D08611A0D0889220D0849220D0888
:1060D00061220D084D220D08ED220D08CD220D087C
:1060E000ADEB0108ADEB0108ADEB0108ADEB01082C
:1060F0006DEF0108ADEB0108ADEB0108ADEB010858
:10610000ADEB0108ADEB0108ADEB0108ADEB01080B
:10611000ADEB0108ADEB0108ADEB0108ADEB0108FB
:10612000ADEB0108ADEB0108ADEB0108ADEB0108EB
:10613000ADEB0108ADEB0108ADEB0108ADEB0108DB
:10614000ADEB01080DF10108ADEB010817D7000810
:1061500041000D08ADEB0108F9DE0C08FFDE0C086C
:10616000ADEB0108ADEB0108ADEB0108ADEB0108AB
:1061700010B5054C237833B9044B13B1044800E043
:1061800000BF0123237010BD200A00200000000082
:10619000A4960F0808B5034B1BB10349034800E060
:1061A00000BF08BD00000000240A0020A4960F08CC
:1061B000A3F5803A704700BF174B002B08BF134B65
:1061C0009D46FFF7F5FF00218B460F461348144A02
:1061D000121ACFF0DDFF0E4B002B00D098470D4B6D
:1061E000002B00D098470020002104000D000D482E
:1061F000002802D00C4800E000BFCFF045FF20008F
:10620000290002F051FBCFF0B5FD00BF00000800EF
:10621000000000000000000000000420200A002010
:1062200020230220000000000000000008B516F046
:106230001BFF08BD006918B108B503F079FE08BD61
:10624000704708B50023C360836000220023C0E9C3
:106250000023006910B111B103F060FE08BD03F026
:1062600062FEFBE70000000008B59FED077B80EDB4
:10627000007B00228260C26001611146FFF7E1FFEE
:1062800008BD00BFAFF30080000000000000000068
:10629000836823B370B582B00446C368ABB1104BBA
:1062A00019680B68DB6868469847009E019D206965
:1062B00003F043FE58B1A168236862685B1842F19D
:1062C0000002B34272EB050303D302B070BDE16874
:1062D000F2E72046FFF7AEFF26606560F5E77047FE
:1062E000F402002008B58160C260FFF7D1FF08BD4D
:1062F00008B50A46FFF7F6FF08BD000008B50146DD
:10630000024879F0F1FA1BF0DDFFFEE798740D0802
:1063100008B5FFF7F3FF0000124A12F0070F1ED076
:10632000D11D21F00701C1F5A04313440A460E48D0
:106330000260002141601344083B23F007030B482F
:10634000036059601960991A51601360084B196015
:10635000084B1960084B4FF000421A6070474FF429
:10636000A043E4E7400A0020545A00203C0A0020E1
:10637000485A0020445A0020405A002010B500B36B
:10638000044615F005FD54F8043C0F4A1268134208
:1063900009D054F8081C69B11BF094FF0B490C4854
:1063A000D0F0EEF9FEE71BF08DFF0A490848D0F067
:1063B000E7F9FEE723EA0203A3F1080415F09AFDCA
:1063C00000E00024204610BD405A002014750D083E
:1063D000F8740D08C8740D08014B1868704700BFA9
:1063E000445A0020014B1868704700BF485A0020EB
:1063F00008B51BF077FE034B1A68034B1A601BF0BD
:106400007FFE08BD445A0020485A0020F8B50746D0
:1064100015F0BEFC174B1B6893B14FF0FF360025FB
:106420002C4604E01B68144A12689A420CD00134CE
:106430005A68AA4200D91546B242F3D21646F1E78D
:106440004FF0FF3600252C4615F054FD7D60BE60F0
:10645000FC601BF047FE094B1B683B60084B1B6848
:106460007B61084B1B68BB61074B1B683B611BF0E2
:1064700047FEF8BD545A00203C0A0020445A002030
:106480004C5A0020505A0020485A002010B588B0BD
:106490000446164B1B6893B1144B1A461B68A34263
:1064A000FBD351685018A0420DD061686018834238
:1064B0000ED02360944200D0146008B010BD01A833
:1064C000FFF7A4FFE8E76068014451601446ECE779
:1064D00007480068834206D05B681944616013680E
:1064E0001B682360E6E72060E4E700BF545A002001
:1064F0003C0A002038B5044615F04AFC3E4B1B68A8
:10650000EBB13E4B1B681C421CD1631E13F10A0FFA
:106510000BD804F1080214F0070F05D022F007038E
:10652000083393425AD91A4682B915F0E3FC002584
:1065300079F054FE15F0070F56D1284638BDFFF705
:10654000EBFEDEE715F0D6FC0025F1E72C4B1B68CF
:10655000934202D32B490C6805E015F0CBFC0025D3
:10656000E6E721461C466368934202D22368002B6B
:10657000F7D1214B1B68A34212D00D680835236860
:106580000B6063689B1A102B12D9A01810F0070F2C
:106590000AD01BF097FE1C491C48D0F0F1F8FEE72A
:1065A00015F0A8FC0025C3E743606260FFF76EFFAB
:1065B000626813490B689B1A0B60154909688B4286
:1065C00001D213490B600D4B1B681343636000231A
:1065D0002360104A13680133136000E0002515F0B2
:1065E00089FC002DA6D1A3E71BF06CFE0A490748E1
:1065F000D0F0C6F8FEE700BF3C0A0020405A002059
:10660000445A0020545A002034750D08F8740D08BF
:10661000485A00204C5A002070750D0838B501FB0F
:1066200000F419B1B4FBF1F181420AD12046FFF721
:1066300061FF054618B122460021CFF0A9FD28468A
:1066400038BD0025FBE7000080B338B50446A0F153
:10665000080550F8043C164A1268134209D050F855
:10666000081C69B11BF02EFE12491348D0F088F8BF
:10667000FEE71BF027FE11490F48D0F081F8FEE736
:1066800023EA020340F8043C15F082FB54F8041C92
:106690000B4A13680B4413602846FFF7F7FE094ABC
:1066A00013680133136015F025FC38BD704700BF37
:1066B000405A002014750D08F8740D08C8740D08B0
:1066C000445A0020505A0020F8B505460C46FFF702
:1066D00055FED8B10746A4B1A04201D12E461AE01A
:1066E00021460120FFF79AFF0646A0B13A46A7428D
:1066F00028BF22462946CFF024FD2846FFF7A4FFF5
:1067000009E02846FFF7A0FF002604E0214601200B
:10671000FFF784FF06463046F8BD08B5FFF7EAFEEE
:1067200008BD08B5FFF790FF08BD08B5FFF7CCFF1F
:1067300008BD08B50846FFF7F0FF08BD08B50846D4
:10674000FFF7EFFF08BD08B508461146FFF7EDFF5C
:1067500008BD08B507F002F813F054F802F0E6FEA1
:1067600079F0B6F837F022FE35F05CFE36F01AFA12
:1067700008BD10B582B00022ADF8062003689C6801
:106780000DF10603A047192802D020B1002000E037
:10679000012002B010BD0120FBE7052B01D800202D
:1067A00070472F2070470000014B0360704700BF07
:1067B0000C780D08024A0260024A0260704700BF6E
:1067C00030780D080C780D08024A0260024A026017
:1067D000704700BF1C780D0810770D08024A026050
:1067E000024A0260704700BFEC770D0824770D085D
:1067F000034A0260034A0260034A0260704700BF16
:1068000010D40E0860D30E08B8770D08024A026053
:10681000024A0260704700BF38D70E08D8770D08CB
:1068200008B502487AF078FD08BD00BF50AF0120DE
:1068300008B502487AF077FD08BD00BF50AF0120CF
:1068400008B502F053FD08BD038848F201029342E7
:1068500004D048F20202934212D0704790F9082007
:10686000012AF6D110B5094879F03EF84BF00CFE3C
:1068700003685C690023064A40F6B831A04710BDA2
:1068800090F90930012BE8D1ECE700BFB0750D0895
:106890004168000810B50446034B03603821CEF070
:1068A0003BFB204610BD00BF0C780D0810B5044618
:1068B000044B0360044B03603821CEF02DFB2046CF
:1068C00010BD00BF30780D080C780D0810B50446D7
:1068D000044B0360044B03600421CEF01DFB2046F3
:1068E00010BD00BF1C780D0810770D0810B50446C8
:1068F000044B0360044B03600821CEF00DFB2046DF
:1069000010BD00BFEC770D0824770D0808B5104BBB
:106910000360D0F8D4317BB9D0F8483173B9D0F8DE
:1069200004316BB9D0F8983063B9436D63B903692A
:1069300063B9084B036008BDCFF0E8F9CFF0E6F982
:10694000CFF0E4F9CFF0E2F9CFF0E0F9CFF0DEF9E3
:106950006CC60E0894760D0838B504460C4B0360DF
:1069600043688BB1437C4BB9C5683DB135B12B68E9
:106970001B6828469847284678F01AFA0023E360F7
:106980006374237423726360024B2360204638BD16
:10699000F07B0E0880770D08406818B108B578F0D4
:1069A0003BFF08BD03207047406858B100B583B075
:1069B0004FF0000C8DF807C032B178F0FFFE03B045
:1069C0005DF804FB032070470BB12F20F7E70DF1B2
:1069D0000702F2E770B582B00446A54BD3E88F3FBB
:1069E00013F0010F3FD0A34BD3E88F3F13F0010FFB
:1069F00047D0A14BD3E88F3F13F0010F4FD09F4BEF
:106A0000D3E88F3F13F0010F67D09D4BD3E88F3F42
:106A100013F0010F00F0CF809A4BD3E88F3F13F0B3
:106A2000010F00F0DC80984BD3E88F3F13F0010F8B
:106A300000F0EB802369002B00F0F680236B002B25
:106A400000F0F780636B002B00F006818F4D216909
:106A5000284682F09FFF284681F0DAFF002800F0E8
:106A6000598102B070BD8248CEF058FA0028BAD0E1
:106A70007F48CEF05FFA864A86498748CEF047FACB
:106A8000B1E77C48CEF04AFA0028B2D07948CEF07F
:106A900051FA7F4A81498248CEF039FAA9E776480F
:106AA000CEF03CFA0028AAD07E4D7F4B2B607F4B66
:106AB0002B6000236B602B72EB602B616B61AB6111
:106AC000EB612B6285F824306B48CEF033FA704AC4
:106AD00077492846CEF01BFA91E76848CEF01EFAB7
:106AE000002892D06948734B0360032383800223FC
:106AF000C38000258560704A0260C5601422009240
:106B000000F1280200F12C01103049F0B7FA2B46B1
:106B1000002B01DB013BFBE7684A142300930223AF
:106B2000111DA2F1180049F0A9FA0023002B01DB86
:106B3000013BFBE7624A282300930223111DA2F1C7
:106B4000180049F09BFA0023002B01DB013BFBE717
:106B50005C4A142300930223111DA2F1180049F08E
:106B60008DFA0023002B01DB013BFBE7564A38235B
:106B700000930223111DA2F1180049F07FFA0023AF
:106B8000002B01DB013BFBE7504A1C23009302234F
:106B9000111DA2F1180049F071FA0023002B01DB4E
:106BA000013BFBE73548CEF0C5F9394A484937483B
:106BB000CEF0ADF929E73248CEF0B0F900283FF425
:106BC0002BAF444D444B2B60444B2B602C48CEF0F4
:106BD000B1F92F4A42492846CEF099F91CE72948D5
:106BE000CEF09CF900283FF41EAF3E4D3E4B2B608B
:106BF0003E4B2B603E4B2B602248CEF09BF9244A43
:106C00003C492846CEF083F90DE71F48CEF086F9BF
:106C100000283FF40FAF1C48CEF08CF91C4A3649CF
:106C20003648CEF074F905E71B4B354A5A602361AC
:106C300004E722691A4B5B6833B1032000287FF414
:106C400010AF174B2363FDE6154B002018725874E4
:106C50005A60D8601874F1E72569124B5B68002B05
:106C600050D0032000287FF4FCAE0E4B6363EDE6AA
:106C7000D05C0020CC5C0020A05C0020745A002076
:106C80006C5A0020605A00205C5A0020785A00207C
:106C900000000020DD6700081C0000205969000882
:106CA00008000020A45C002044770D0874C90E0879
:106CB000596D000894760D086CC60E08E45A002041
:106CC000285B0020945B0020D85B0020645C0020DF
:106CD0000D690008705A002010770D081C780D0807
:106CE000C9670008645A0020B8770D0860D30E0801
:106CF00010D40E08F16700080D6800080400002099
:106D00001C6001200F4E33689B6A304698477560BF
:106D10000020A7E70C4BE361236983B10B4A536062
:106D2000002000287FF49DAE084B636150F0F2F91B
:106D30002062074B6362074BA361002091E62F207E
:106D4000EFE700BFA45C0020785A0020645A0020BE
:106D500004000020705A002010B50446124B036056
:106D6000436823B1104B9B6A98470023636000225D
:106D70002262E06918B178F01BF80023E361002279
:106D8000A261606918B178F013F8002363610022F2
:106D90002261E06818B178F00BF80023E360034B40
:106DA0002360204610BD00BF74C90E0844770D084B
:106DB00010B5134B0360D0F8D431ABB90446D0F80A
:106DC00048319BB9D0F8043193B9D0F898308BB9D9
:106DD000436D8BB903698BB90A4B03604FF40A7199
:106DE000CEF09AF8204610BDCEF090FFCEF08EFF88
:106DF000CEF08CFFCEF08AFFCEF088FFCEF086FF7B
:106E00006CC60E0894760D0810B50446144B03604A
:106E1000436823B1124B9B6A9847002363600022AA
:106E20002262E06918B177F0C3FF0023E36100221A
:106E3000A261606918B177F0BBFF00236361002293
:106E40002261E06818B177F0B3FF0023E360054BDF
:106E5000236028212046CEF05FF8204610BD00BFF9
:106E600074C90E0844770D0838B504460E4B03600C
:106E700043688BB1437C4BB9C5683DB135B12B68D4
:106E80001B6828469847284677F092FF0023E36066
:106E90006374237423726360044B236014212046BF
:106EA000CEF03AF8204638BDF07B0E0880770D080A
:106EB00008B50A4878F018FD09487BF0D7FA00B108
:106EC00008BD012106487AF00FFC0028F8D10548DA
:106ED00078F00AFD04487AF0FDF9F1E7D8750D085D
:106EE00000A10120F8750D0850AF012030B585B024
:106EF0000446384938480DF065FE384D284678F08C
:106F0000F3FC2146364878F0EFFC284678F0ECFC9C
:106F1000344878F0E9FC0021084649F031F808B11E
:106F200005B030BD304B1B78002B3CD00020002832
:106F3000F6D121462D4879F091FEFFF7B9FF0028E0
:106F4000EED12B4878F098FF2A4BD3E88F3F13F00F
:106F5000010F31D0284D2846FFF73CFD0024019455
:106F600002940394254B0193254B029325487AF014
:106F700015FA039001ABAB62294623488BF03EFF24
:106F80001B4D284678F089FF22462049284678F094
:106F90009DFE1F4878F0A8FC284679F02DF80028BF
:106FA000BED10020BCE7104D284679F07DF8B0FA3C
:106FB00080F35B092B70BAE70E48CDF0AFFF0028D5
:106FC000C8D00C48CDF0B6FF124A13490A48CDF09C
:106FD0009EFFBFE7DDFF0408D5FF040814760D0807
:106FE00048760D0854760D0820600120F4A0012099
:106FF00028600120D45C00202400002021680008C3
:107000003168000800A1012018D201204968000859
:1070100064760D0800000020B567000808B578F018
:1070200063F908BDB0F5803F2CBF002001207047F8
:107030004068E0B170B584B01D4600238DF80F3074
:10704000BAB100230293019302AB00932B8878F02E
:1070500097FB0446192800D030B9029E3046FFF74E
:10706000E1FF68B900262E80204604B070BD0320E1
:1070700070472B880BB12F20F7E70DF10F02E0E7E7
:10708000B6B2F0E710B50446054B0360054B03604C
:10709000054B03600821CDF03FFF204610BD00BF27
:1070A00010D40E0860D30E08B8770D0810B504464A
:1070B000044B0360044B03600421CDF02DFF2046F8
:1070C00010BD00BF38D70E08D8770D08014BFF223E
:1070D0001A7070475C00002008B5034A02211D2089
:1070E00049F0C4F808BD00BF3C780D0808B5034A54
:1070F00002211D2049F0BAF808BD00BF4C780D08E8
:1071000010B50C4630B101280CD014B9094B01223E
:10711000DA7010BD084878F0E7FB00210748FFF758
:1071200090F8F2E7064878F0DFFB01210348FFF70B
:1071300088F8EAE7E46E00205C780D08B06E002065
:107140007C780D0808B528B1012807D00A4BDB78F8
:1071500043B908BD094878F0C7FBF7E7084878F05D
:10716000C3FBF3E700220749074878F0B9FE024B5A
:107170000022DA70EDE700BFE46E0020A0780D0871
:10718000C0780D08D97100082860012010B50022D0
:1071900014460388022B04D033B140F203746CB15F
:1071A00010BD02798168FAE7094800F0BCFD10B112
:1071B00000210A46F3E700210122F0E7044800F02D
:1071C000FFFD0028ECD1034878F08EFBE8E700BF14
:1071D000E86E0020E4780D0810B50A4800F0A3FD21
:1071E00048B1022421F0B0FF00232246012125F0FE
:1071F00022FB10B110BD0124F4E70121024878F010
:1072000073FBF7E7E86E002010790D08012800D025
:1072100070474FF6FF739942FAD110B584B00A4C0B
:10722000002303930293094B019302230093084B1D
:10723000084A0121204629F003FD074A0749204654
:10724000CDF065FE04B010BDC86E0020617200086C
:10725000ED700008D9700008000000207D0C0308C4
:1072600070B50446037D224A13700B2B10D0204BBF
:107270001B78FE2B23D015D8022B32D84BF004F903
:1072800003685D6923461B4A41F28831A84770BDF7
:10729000837D194A02211D2048F0E8FFA27D144B8E
:1072A0001A70E4E7FF2B1CD14BF0EEF803689B69E2
:1072B0002246104998470E4BFF221A70E7E74BF021
:1072C000E3F803689B690B4D2246294698474BF02B
:1072D000DBF803685E6923462A464FF47A71B047AB
:1072E000D5E7064A02211D2048F0C0FFCFE700BFC6
:1072F0005C000020CD7000082C790D0880790D0805
:1073000000B585B000230093134B144A10210A20C6
:1073100013F0C2FD124B186098B1124B0293124B3E
:1073200001930123009300234FF480620F4910481A
:1073300014F04CFC0F4B186058B1002005B05DF8FC
:1073400004FB0D4878F0D0FA40F20170FEF7E0FF40
:10735000E3E740F20270F1E75C5E0020BC5D0020D4
:10736000AC5D0020F05C0020B05E002074860D084B
:10737000D5780008B05D002098790D0810B5ACB044
:107380000346884A009200220121874815F018FC24
:10739000864B1860002800F0B8808549854878F051
:1073A000A3FA00248DF89840834878F065FD26A95B
:1073B00001201EF03BFF8DF8974021F0C5FE0DF136
:1073C0009702012122F0E2FF002800F0A6800023AE
:1073D000ADF8943021F0B8FE25AA012122F09AF9E7
:1073E000002800F0A48000238DF8933021F0ACFE3B
:1073F0000DF19302012122F01BFF002800F0A18073
:1074000000238DF8923021F09FFE0DF192020121B0
:1074100022F050FF002800F09E8000238DF891306C
:1074200021F092FE0DF19102012123F0FBF80028DA
:1074300000F09B80604878F030FD9DF898308DF822
:107440009C301BB19DF899308DF89D3028AB0022FF
:107450002892ADF8A420BDF89420ADF8A0209DF8A6
:1074600097208DF8A2209DF893208DF8A3209DF8F9
:1074700092208DF8A4209DF891208DF8A52093E806
:1074800003002A90ADF8AC102CAB13E90C0027A92F
:107490004A4800F03FFB0446002870D1484A494959
:1074A000464800F03DFCFEF7C1FE47494748FEF75D
:1074B000DBFE47494748FEF7D7FE9DF89830002B82
:1074C00064D09DF89930022B62D000214148FEF72C
:1074D000B8FE00224049384878F002FD77F0D2FB30
:1074E0000368D3F88430984704AB02938123039355
:1074F0004FF0020102A88AF0DBF800284DD1029873
:1075000002F048F820462CB010BD344878F0ECF971
:1075100040F20470FEF7FCFE3FE70123304A1946B3
:107520001D2048F0A3FE05238DF897304FE7012377
:107530002C4A19461D2048F099FE0A23ADF89430D4
:1075400051E70123284A19461D2048F08FFE0A23DF
:107550008DF8933054E70123244A19461D2048F042
:1075600085FE0A238DF8923057E70123204A1946F9
:107570001D2048F07BFE0A238DF891305AE71D4804
:1075800078F0B2F92046FEF7C3FE87E7CEF0BEFBE7
:1075900001211048FEF755FE9BE7174878F0A4F943
:1075A000B0E700BF95780008BC790D08B45D0020F5
:1075B000E0790D08EC790D0828600120E86E0020C4
:1075C0004571000801710008F0A70D08D85C002083
:1075D00008A80D08B06E0020D9710008C4790D0804
:1075E0000C7A0D08847A0D08F07A0D08687B0D0876
:1075F000E07B0D08587C0D08707C0D0810B582B03A
:10760000044600220092134603210848006815F042
:10761000F3FA18B10023A37002B010BD044878F04B
:1076200063F940F20670FEF773FEF3E7B45D0020E5
:10763000887C0D0830B583B004460D46114B1868A0
:1076400015F068FC70B96423009300232A460421D6
:107650000C48006815F0D0FA01280AD10123A37064
:1076600003B030BD084878F03FF92046FFF7C6FF69
:10767000E9E7064878F038F940F20570FEF748FE71
:10768000ECE700BFB45D0020A07C0D08BC7C0D08B9
:1076900038B50388012B0BD11A4B9B781BB1194AC3
:1076A0005278012A05D01BB1164B5B78022B22D0F1
:1076B00038BD40F6B831144878F016F9114C40F650
:1076C000B8312046FFF7B6FF022363700F4D00214B
:1076D0002846FEF7B6FD0E4C00212046FEF7B1FD10
:1076E0004FF4FA712846FEF703FE4FF4FA71204674
:1076F000FEF7FEFDDCE7034B00225A7005488BF0D5
:10770000E7FAD5E7E46E0020D87C0D08D85C0020AD
:10771000B06E002018D2012010B50379012B0CD0D7
:10772000244B9B781BB1234A5278012A16D01BB1F7
:10773000204B5B78022B29D010BD1E4B9B78002B71
:10774000FAD11C4B5B78002BF6D11A4C40F6B831BD
:107750002046FFF76FFF01236370EDE7154C2046CD
:10776000FFF74CFF00236370134879F08CFE48B993
:10777000124C0121204679F061FA0021204679F06F
:1077800065FAD9E70E4878F0AFF8D5E70D4800F074
:10779000CAFA80F00101C9B20B48FEF752FD054C50
:1077A0002046FFF72BFF00236370084878F09CF811
:1077B000C2E700BFE46E002000A10120F4A0012078
:1077C000187D0D08E86E0020B06E0020587D0D0871
:1077D00010B582B0144B1B6813B30C461AF038FD79
:1077E00080B10023019301AA21460F48006813F0DD
:1077F0002BFD019B6BB14FF0E0234FF08052C3F89B
:10780000042D06E00023012221460748006813F0FA
:1078100023FC08B102B010BD044878F065F8F9E720
:10782000034878F061F8F5E7AC5D0020787D0D083D
:10783000A87D0D0811B300B585B00846002300935C
:107840000193029303938DF804200D4B994205D0C8
:107850000C4B98420BD005B05DF804FB012AF7D120
:10786000094B039369460948FFF7B2FFF3E7084B5A
:10787000039369460548FFF7ABFFECE7704700BF8D
:10788000D8A70D08C0A70D088D710008E46E002070
:107890001977000800B585B00123ADF800300190DC
:1078A000044B039369460448FFF792FF05B05DF867
:1078B00004FB00BF91760008E46E002008B5CB6899
:1078C00013B10846984708BD014878F00DF8FAE76B
:1078D000D07D0D0810B584B04F48FFF74FFD18B9A3
:1078E0004E4878F001F883E004464D4877F0FCFFFD
:1078F0002046FEF70DFDF3E74A4800F0A5F94A4B94
:1079000001221A7079E069464348FFF7D7FF002249
:107910006946464B186813F065FD0128F3D04448CA
:1079200078F0B1FA20BB3C4B5B78022B5AD0414B2C
:10793000DB7D002B33D1404B1B78FF2B09D0002B74
:1079400033D03D4B1B78012B35D03B4B1B78022BA2
:1079500038D03A4B1B78002B3CD0394B1B78002B8E
:1079600038D0322240F2B6313648FEF7BBFC39E05F
:10797000354C204679F087FD304B1870204679F061
:1079800035FD2F4B1870314879F070F9003818BF69
:1079900001202F4B1870264878F07FFAC3E7FA22AF
:1079A00011462848FEF79EFCC5E7322211462548BD
:1079B000FEF798FCC5E74FF47A7211462148FEF7AE
:1079C00091FCC2E74FF42F724FF496711D48FEF7F9
:1079D00089FCBEE71E4B1B78B3B1642211461948DF
:1079E000FEF780FC1748FEF753FC1A48FEF750FCE0
:1079F0000D4B1B78002B3FF47FAF0A2269460B4BDF
:107A0000186813F0EFFC88E740F2B63232210D48D7
:107A1000FEF768FCE6E700BFE46E0020187E0D0864
:107A2000007E0D08E86E0020A85D0020AC5D0020FF
:107A300028600120C86E00205C000020AC5E0020A1
:107A4000B85D0020D85C002000A10120F4A0012036
:107A5000B95D0020B06E002008B54FF6FF7101201F
:107A6000FFF7D4FB08BD08B54368187928B901228F
:107A70001A71DB6803B1984708BD0228FCD10322C4
:107A80001A710120F5E70000012800D070474FF679
:107A9000FF739942FAD10921104B06E000221A60C7
:107AA0005A609A60DA601C3301390029F6DA6322E1
:107AB0000B4B04E00021596099601033013A002A11
:107AC000F8DA084B0022A3F8082283F80A2283F888
:107AD0000B2283F80C2283F80D22D7E7F86E0020E2
:107AE00010700020E87E002000B585B015F02EFA59
:107AF0000123ADF800300190044B0393694604481C
:107B0000FFF766FE05B05DF804FB00BF677A00086A
:107B1000E46E002030B585B004460D4602A880E82A
:107B20000C0004F5805303C8C3F80822A3F80C1214
:107B3000B3F808320A2B1ED804F5805393F80A32A2
:107B40000A2B20D804F5805393F80B320A2B21D846
:107B500004F5805393F80C320A2B22D804F5805395
:107B600093F80D320A2B23D90A21214877F0BCFE65
:107B700040F2077005E00A211E4877F0B5FE40F29A
:107B8000077005B030BD0A211B4877F0ADFE40F20A
:107B90000770F6E70A21164877F0A6FE40F2077054
:107BA000EFE70A21124877F09FFE40F20770E8E7FE
:107BB000124B0093234600220121114815F000F8D2
:107BC000104B186040B12B7863B16B78022B0BD04F
:107BD000012323710020D4E70B4877F085FE40F2A3
:107BE0000470CEE7CEF092F803232371F2E700BFD2
:107BF000107F0D082C7E0D08987E0D08E97A00088C
:107C0000847F0D08F88000208C7F0D0809298CBF27
:107C100000200120704722B109298CBF00200120DB
:107C20007047B1FA81F04009704709298CBF0020E4
:107C30000120704709298CBF0020012070470929C5
:107C40008CBF00200120704730B583B0044601ABE3
:107C50004FF48C7200F11001294877F003FA01AB60
:107C60004FF4C86204F59471264877F0FBF901AB34
:107C7000642204F6F441244877F0F4F901AB4FF4A0
:107C8000487204F65851214877F0ECF904F5805514
:107C9000B5F8082295F80A3203FB02F201AB920014
:107CA00004F5835118311A4877F0DCF995F80B2266
:107CB000B5F8083203FB02F201AB02EB820204F5D5
:107CC000ED61144877F0CEF995F80C22B5F808323A
:107CD00003FB02F201ABD20004F65C110E4877F010
:107CE000C1F995F80D2202EB420201AB920004F6B5
:107CF0007C410A4877F0B6F9012003B030BD00BFDF
:107D00001073080011730800127308001373080041
:107D10001473080015730800167308001773080021
:107D20008160C26070470079032814BF00200120E1
:107D30007047000000B583B0002200921346032173
:107D40000748006814F058FF10B103B05DF804FB59
:107D5000044877F0C9FD40F20670FEF7D9FAF4E75F
:107D6000F8800020AC7F0D0830B583B005460C4686
:107D7000104B186815F0CEF860B964230093002307
:107D8000224604210B48006814F036FF012808D170
:107D900003B030BD084877F0A7FD2846FFF7CAFFBB
:107DA000EBE7064877F0A0FD40F20570FEF7B0FA69
:107DB000EEE700BFF8800020A07C0D08C87F0D080A
:107DC000F8B504460E4615460379012B03D0032B64
:107DD00005D00020F8BD012AF9D1022701E065B9DC
:107DE0002F460A212046FFF7BFFF2771A36833B152
:107DF0003146284698470120ECE70020EAE70120B9
:107E0000E8E700002DE9F0418CB0002A6AD007466F
:107E10000E461D4602F1FF3C1FFA8CF42146FFF787
:107E2000F5FE804600285FD000943346304A022198
:107E30001D2048F01BFAC4EBC40307EB830393F83F
:107E400024302B75002B46D0C4EBC40307EB83030F
:107E500019695A690891099208AA92E8030085E80D
:107E6000030004EB840141F2780202EBC1023A44C0
:107E7000D9690A920B9105F108020CA911E90300D6
:107E800082E803001A6A2A6193F82510697593F84D
:107E900026C085F816C00120E87593F828302B76A7
:107EA0006876C4EBC40407EB840090F82A00A87637
:107EB0006F682C68ED6807900693CDF814C00491A4
:107EC000039202950194009733460A4A03211D202C
:107ED00048F0CCF908E03346074A03211D2048F05A
:107EE000C5F901E04FF0000840460CB0BDE8F08154
:107EF000E87F0D084C800D0828800D082DE9F04F13
:107F00009BB005460C91144618460D939DF890B011
:107F1000259F9DF89CA09DF8A0909DF8A4802B9E85
:107F20003B6809962A9A0892CDF81C80CDF81890E3
:107F3000CDF814A0269A04920393CDF808B00190CE
:107F400000940B46624A02211D2048F08FF9002C54
:107F500000F0B780013CA4B221462846FFF756FE48
:107F60000B90002800F0AF807B680A2B46D805F5FF
:107F7000805393F80A32B3424AD304EB84035B0084
:107F800003F54F632B4410AA97E8030082E803002F
:107F90000DF1480C8CE8030004330E9310D0092334
:107FA0001993189108293ED919AB1B680F931A46EB
:107FB00012990E98CEF0C5F800230E990F9A8B54A3
:107FC0007B680E9A14921593C4EBC40305EB8303EC
:107FD00003F1100214A903C982E80300269A1A6269
:107FE00083F824A083F8259083F8268083F82AB0AC
:107FF0000D9A83F8282000222A9F28E000940C9BE9
:10800000344A01211D2048F031F900230B935AE036
:10801000019600940C9B304A01211D2048F026F95E
:1080200000230B934FE018ABBFE704EB840302EB94
:10803000430303F21E4305EB830157F8220045F882
:108040002300012005F8230013184B801A46B24282
:10805000EBD304EB840341F2780707EBC3032B4413
:1080600016931796C4EBC40305EB8303183316AAC3
:1080700092E8030083E8030005F58056B6F808226D
:10808000C2EBC202920005F11001144877F0F6F835
:10809000B6F8082296F80A3203FB02F29200E919B8
:1080A0000F4877F0EBF8642205F6F4410D4877F0BD
:1080B000E5F800940C9B0C4A02211D2048F0D6F8EC
:1080C00001E000230B930B981BB0BDE8F08F00BFBD
:1080D000D4800D0894810D08D4810D081073080018
:1080E000147308001273080038820D082DE9F0415E
:1080F00082B006461D46089F013A94B21A462146B0
:10810000FFF789FD804618B9404602B0BDE8F0810E
:1081100000942B461F4A02211D2048F0A7F855B3B2
:1081200006EB041393F828313B7000941A4A03219C
:108130001D2048F09BF83B782BB306EB041292F815
:1081400029317B703D1D02F5967292E8030085E8A7
:108150000300133406EB041462797A73E279FA733C
:1081600001223A73BA73BA6800920C4A03211D20A7
:1081700048F07CF8C8E700942B46094A01211D20ED
:1081800048F074F8C0E7074A03211D2048F06EF854
:10819000BAE700BF6C820D0804830D0850830D08F8
:1081A000BC820D0830830D082DE9F04F89B00546DB
:1081B00099469DF848A09DF84CB09DF85060DDF8B8
:1081C0005480013A94B232462146FFF724FD0590CF
:1081D00018B9059809B0BDE8F08FD8F80430CDF88B
:1081E0000CA0CDF80890019300965B46204A02212E
:1081F0001D2048F03BF805EB041787F828B187F8F5
:10820000296104F1130305EB031383F8059083F848
:1082100007A004F2AB1405EBC404D8F80420D8F886
:1082200000102046CDF08DFFD8F804300694079357
:1082300007F5967708AB13E9030087E8030005F517
:10824000805393F80A22120105F59471094877F0DA
:1082500015F84FF4487205F65851074877F00EF8B4
:108260003346064A02211D2048F000F8B1E700BF5E
:1082700080830D08117308001373080000840D0833
:10828000F2B170B50546EBB1511ECEB2013B9CB2C6
:108290003146FFF7CAFCB8B121462846FFF7B6FCC5
:1082A000A0B106EB8606322303FB04642C44D4F809
:1082B0006837049A136094F86C371371002002E059
:1082C00001207047012070BD0120FCE70120FAE782
:1082D000E2B370B50646DBB3511ECDB2013B9CB292
:1082E0002946FFF7A2FCA8B321463046FFF78EFCD3
:1082F00008B901202DE005EB8505322303FB04536B
:1083000033449DF8142083F868279DF8182083F8DB
:1083100069279DF81C2083F86A279DF8202083F8A0
:108320006B279DF8242083F86C2706F5805393F87B
:108330000B22B3F8083203FB02F202EB820206F5CD
:10834000ED61054876F09AFF002002E001207047B9
:10835000012070BD0120FCE715730800FAB170B56B
:108360000546F3B1511ECEB2013B9CB23146FFF738
:1083700061FCC0B121462846FFF748FCA8B104EBD8
:10838000840406EB440404F22B1405EBC404043407
:1083900094E80300049B83E80300002002E001202E
:1083A0007047012070BD0120FCE70120FAE70000C2
:1083B000AAB370B50546A3B3511ECEB2013B9CB221
:1083C0003146FFF737FC70B321462846FFF71EFC05
:1083D00008B9012026E004EB840306EB430303F213
:1083E0002B1305EBC303059A5A6004EB840306EBD9
:1083F000430303F22B1305EBC303069A9A6005F5BA
:10840000805393F80C22B3F8083203FB02F2D20037
:1084100005F65C11054876F031FF002002E00120EE
:108420007047012070BD0120FCE700BF16730800F3
:10843000A2B170B504461E46551EEDB22946FFF79F
:10844000FEFB68B105EB450504EB850505F67C45AB
:1084500095E8070086E80700002070BD01207047FE
:108460000120FAE732B338B50546541EE4B221467E
:10847000FFF7E5FB08B9012038BD04EB440305EB29
:108480008303049AC3F87C2C059AC3F8802C1C46FD
:108490009DF8183084F8843C05F5805393F80D223C
:1084A00002EB4202920005F67C41034876F0E6FEBC
:1084B0000020E1E70120704717730800012906D06A
:1084C000022906D009B1044870470448704704489F
:1084D00070470448704700BF40840D0850840D0861
:1084E00048840D0834840D082DE9F04385B0054615
:1084F0000C4690461E4601238DF80F300DF10F01FA
:1085000020461DF0AAFF37780FB1002426E06B88C3
:10851000324A03211D2047F0A9FE9DF80F30002BA1
:1085200046D141462846FFF7C9FF034600942C4A2E
:1085300003211D2047F09AFE012739E042B17168FE
:10854000DCF80400CDF0EDFD18B34FF0000900E0B9
:10855000B946B9F1000F1ED10134E4B2632C2BD817
:1085600005EB041393F82931012BF5D105EB041326
:1085700093F82831002BEFD04FEA041C0CF5947CC3
:10858000AC44DCF80820B3689A42D7D04FF0000919
:10859000DFE7B946DDE741462846FFF78FFF034690
:1085A0006A8800920F4A03211D2047F05FFE4F4664
:1085B000384605B0BDE8F08341462846FFF77EFF08
:1085C00003466A880092084A03211D2047F04EFEA8
:1085D0000C9B01221A700027EAE700BF64840D0893
:1085E000B4840D08F4840D0858850D0800B583B0D7
:1085F000009313460122FFF777FF03B05DF804FBF9
:1086000000B583B0009313460222FFF76DFF03B05D
:108610005DF804FB08B54FF6FF710120FFF734FA4F
:1086200008BD0000F0B583B044688768250CA6B289
:1086300000962B460A4A02211D2047F017FE40F201
:1086400001139C4201D003B0F0BD002FFBD1009676
:108650002B46044A02211D2047F008FEF3E700BF25
:10866000D4850D08F4850D087047000070B50446E8
:108670000D46164603460A4A02211D2047F0F6FD24
:1086800033462A4621460748FFF7B0FF044608B99B
:10869000204670BD002202210248FFF791FBF7E758
:1086A00014860D08E86E002070B504460D46164687
:1086B00003460A4A02211D2047F0D8FD33462A46C8
:1086C00021460748FFF79CFF044608B9204670BDC5
:1086D000012202210248FFF773FBF7E73C860D08F1
:1086E000E86E002000B583B0009313460A460146A9
:1086F0000248FFF7FBFC03B05DF804FBE86E0020C6
:1087000010B584B0089C03949DF81C4002949DF819
:1087100018400194009313460A4601460248FFF7A9
:1087200043FD04B010BD00BFE86E002008B513463D
:108730000A4601460148FFF765FB08BDE86E0020C8
:1087400010B588B0109C07940F9C06949DF8384093
:1087500005949DF8344004949DF8304003940B9C9C
:1087600002940A9C0194009313460A46014602486B
:10877000FFF7C4FB08B010BDE86E002000B583B061
:10878000009313460A4601460248FFF779FD03B0FD
:108790005DF804FBE86E002000B583B0009313463B
:1087A0000A4601460248FFF7D9FD03B05DF804FB15
:1087B000E86E002008B513460A4601460148FFF757
:1087C00037FE08BDE86E002010B586B09DF8304039
:1087D00005949DF82C4004949DF8284003949DF83E
:1087E000244002949DF820400194009313460A46C9
:1087F00001460248FFF76CFD06B010BDE86E002090
:1088000010B584B0079C0294069C01940093134613
:108810000A4601460248FFF7CBFD04B010BD00BF79
:10882000E86E002010B584B09DF81C400294069CB0
:108830000194009313460A4601460248FFF712FED0
:1088400004B010BDE86E0020024A0260024A0260D5
:10885000704700BFD0590E08D4860D08012800D0FB
:10886000704708B54FF6FF73994200D008BD034A20
:1088700003490448CCF04BFBF8E700BF00000020A0
:10888000498800086000002010B50446044B0360CE
:10889000044B03600821CCF03FFB204610BD00BF15
:1088A000D0590E08D4860D0810B5FDF752FF1B48AD
:1088B000FEF71CFB50BB1A4C1A4BD3F85C1A20462F
:1088C00049F044FD204649F04DFD174C204677F015
:1088D000D3FA85F0F7FE7DF063FC204677F0DDFAF1
:1088E000124877F001F81248FEF70AFD90B91148D6
:1088F00076F0FAFF04F03EFF47F056FB0E4876F0A4
:10890000F3FFAC20FDF704FD002010BDAC20FDF707
:10891000FFFCD0E7AC20FDF7FBFCE8E768860D081C
:108920006000002018F20120286001207C860D08DC
:10893000E46E002090860D08AC860D0810B5044644
:1089400001F031FA024621460148FEF773FF10BDDF
:10895000E46E002008B54FF6FF710120FFF77EFF9F
:1089600008BD38B141B10160028100228280C2801D
:10897000012070470020704700207047C28892B2E3
:1089800083889BB29A4216D0C28892B283889BB2E7
:108990009A4209D20389828892B29B1AC08880B217
:1089A00010FA83F080B27047C3889BB2808880B28F
:1089B000181A80B270470020704710B50489FFF77D
:1089C000DDFF201A80B210BDF8B548B30F4615463A
:1089D000044659B3038993422ED3FFF7EEFFA84212
:1089E0001DD32689E3889BB2F61AB6B2B54229D9BF
:1089F0002368E0883246394613FA80F0CDF0A1FBB7
:108A0000AA1BB9192068CDF09CFBE28815FA82F503
:108A1000228995FBF2F302FB1355ADB2E580F8BD58
:108A20000D4B0E4A96210E48CDF078F90D4B0B4AAE
:108A300097210B48CDF072F90B4B084A9821084852
:108A4000CDF06CF92368E0882A46394613FA80F0A5
:108A5000CDF077FBD9E700BFF8860D0800870D0839
:108A600030870D0890870D08A0870D0870B5164651
:108A70001D46DCB20E4B1A78A41AE4B20D48FFF77B
:108A80009CFFA2B2904209D20B4B2A4631460B48BA
:108A9000006815F023F979F0F7FC70BD044C2188CB
:108AA00031440448FFF790FF00232380ECE700BF28
:108AB00008830020FC8000206D8A000878010020D7
:108AC000F8B550B30F461546044661B30389934287
:108AD0002FD3FFF753FFA84231D92689A3889BB231
:108AE000F61AB6B2B5422FD92368A188324613FAD6
:108AF00081F13846CDF025FBAA1B2168B819CDF0CD
:108B000020FBA38815FA83F3228993FBF2F102FB81
:108B100011339BB2A380E8B2F8BD104B104AB521C7
:108B20001048CDF0FBF8104B0D4AB6210D48CDF0A2
:108B3000F5F80E4B0A4AB7210A48CDF0EFF8204667
:108B4000FFF71CFF0546C8E72368A1882A4613FAE9
:108B500081F13846CDF0F5FAD3E700BFF8860D086D
:108B6000C0870D0830870D08F8870D0800880D08AC
:108B700038B500F05DFD4FF4807212491248FFF7DE
:108B8000F0FE124D124C2B4680221249206815F03F
:108B9000A5F82B4680221049206815F09FF80F4B4E
:108BA0004FF40062C3F880211A600D4800F50052AE
:108BB0000423D36400F580521365052115F0AAF94A
:108BC00038BD00BF08820020FC8000206D8A0008AC
:108BD00078010020088100208881002000E100E069
:108BE0000000015B08B579F04FFC024B0422DA6407
:108BF00008BD00BF0020015B58B110B50C4601460E
:108C000054B12246074B186814F046FE38B920B21A
:108C100010BD4FF0FF3070474FF0FF30F8E74FF0D6
:108C2000FF30F5E778010020002830D070B584B01F
:108C30000C46054600292DD01848FFF79FFEA0429C
:108C400007D3224629461548FFF73AFF00B204B081
:108C500070BD03F0E2F8064601AB02AA03A9104872
:108C6000006814F0E8FD0F4B1B88029A934203D36F
:108C7000304603F0D8F8E4E7D21A92B203991944C7
:108C80000648FFF7A1FE074B029A1A80F0E74FF063
:108C9000FF3070474FF0FF30D9E700BFFC80002065
:108CA000780100200883002070B504460A694B69EA
:108CB00052EA03001ED08868C96810EB000C41EB33
:108CC000010E1CEB000C41EB0E0E4FEA4E1545EA6F
:108CD000DC654FEA4C161CEB060C4EEB050E1CEB4C
:108CE000000041EB0E01CCF081FE01232370607087
:108CF000204670BD002323706370F9E7D0E90201BC
:108D000070472D2070472D207047012070470120AB
:108D100070470000024A0260024A0260704700BFCA
:108D200050830E0814890D0870474FF48060704717
:108D3000002383607047002343607047044A026049
:108D400020324260034A4260034A0260704700BF1B
:108D5000408A0D0830890D08E8880D080346064A48
:108D600040F8042C203240F80429044A4260044AA6
:108D700043F8042C704700BF408A0D0830890D0865
:108D8000E8880D0810B50446154B03606033436056
:108D900010F5E87205D000F5127300E0183B9A4216
:108DA000FCD1104BE3672033C4F880300E4BC4F87D
:108DB00080300E4BE36704F13800A36D13B100223D
:108DC000A265984704F10800A36A13B10022A262C9
:108DD0009847074B6360074B2360204610BD00BFD8
:108DE00034460E08408A0D0830890D08E8880D08C1
:108DF000FC880D08A0890D0838B505460446174BB8
:108E000040F8043C603344F8043910F5E67205D0AC
:108E100004F5127300E0183B9A42FCD1104BE36753
:108E20002033C4F880300F4BC4F880300E4BE3671A
:108E300004F13800A36D13B10022A265984704F134
:108E40000800A36A13B10022A2629847074B63602F
:108E5000074B45F8043C204638BD00BF34460E0899
:108E6000408A0D0830890D08E8880D08FC880D0837
:108E7000A0890D08024A0260024A0260704700BFE2
:108E8000C4490E08F8890D08024A0260024A0260CD
:108E9000704700BF4C490E0850890D0810B50446B4
:108EA000064B036020334360054B4360054B036072
:108EB0001021CCF031F8204610BD00BF408A0D08CB
:108EC00030890D08E8880D0810B50446084B40F8B5
:108ED000043C203344F80439064B6360064B40F8E9
:108EE000043C10212046CCF017F8204610BD00BFEE
:108EF000408A0D0830890D08E8880D0810B5044631
:108F0000054B0360006B18B175F052FF002323631B
:108F1000024B2360204610BD68AF0E088C880D08F8
:108F200010B50446054B0360406B08B149F04EFC98
:108F300000236363024B2360204610BD003F0E08F0
:108F4000C0880D080E4BD3E88F3F13F0010F01D0FE
:108F50000C48704710B50A48CBF0E0FF08B9094843
:108F600010BD084C084B2360084B23600448CBF02D
:108F7000E1FF074A07492046CBF0C9FFEFE700BFF2
:108F80000C8300201083002014890D0850830E08E4
:108F900000000020158D000810B50446054A012187
:108FA0000C2047F063F9E06810B103689B689847AC
:108FB00010BD00BF1C880D0810B50446054A0121EC
:108FC0000C2047F053F9A06810B103689B689847DC
:108FD00010BD00BF1C880D0830B583B0C068D8B183
:108FE0000D4614461A68019200221A6001AA214611
:108FF0002CF0CEFF019808B149F0E8FB0023019363
:109000000C4B1B680093A3886BB12B8943F0400382
:109010002B81002003B030BD074A01210C2047F00E
:1090200025F90020F6E7E388002BEED12378402BCA
:10903000EBD1EEE7788A0D0830880D0830B583B0A3
:109040008068D8B10D4614461A68009200221A6052
:109050006A4621462CF09CFF009808B149F0B6FB07
:10906000002300930C4B1B680193A3886BB12B89E1
:1090700043F040032B81002003B030BD074A01219B
:109080000C2047F0F3F80020F6E7E388002BEED140
:109090002378402BEBD1EEE7788A0D0830880D0855
:1090A000F0B587B006460C46224A0321152047F04A
:1090B000DDF8B568002D2DD00023ADF810301E4B23
:1090C0001B68039323893BB31C4A1268039253B372
:1090D0000123ADF81030277B606849F0DBFA636844
:1090E000059304AB009305AB3A46A168284647F0C8
:1090F00003FC0446059808B149F068FB002305937A
:109100002CB1B06818B147F075FA0023B36020465F
:1091100007B0F0BD0320FBE76289022AD4D1227B8D
:10912000142AD1D1D7E76389002BD1D1237B402BDF
:10913000CED1D0E764880D087C8A0D08788A0D08A6
:10914000012800D070474FF6FF739942FAD170B5ED
:109150008AB0474B474A1A60474A5A60474A1A60E2
:1091600060325A6003F10802DA609A6000229A6263
:10917000DB6243491963CDF804D0CDF800D00892E2
:1091800003F13801D96399639A65DB653D49196636
:109190009A66DA661A6783F874209A673A49D9673B
:1091A0003A49C3F880103A49D9672031C3F8801092
:1091B000C3F8AC20C3F8B020C3F8B420C3F8B8207B
:1091C000C3F8BC21C3F8C02183F8C421C3F8C82167
:1091D000042203F5E87303E0002103F8181B013AA9
:1091E000002AF9DA22480024C0F848420523C0F8D2
:1091F0004C3280F85042274E32462749CBF087FE4A
:10920000324626492648CBF082FE3246254926487A
:10921000CBF07DFE254D264B2B606C602C722846D2
:10922000244B40F8103B8AF0D3FEC5F8D040C5F877
:10923000D440C5F8D840C5F8DC4032461E4928461F
:10924000CBF065FE1D481E4B036000220023C0E9E1
:109250000223C0E904231B4B03608461C4610463DF
:10926000446332461849CBF052FE0AB070BD00BFCD
:1092700030840020A0890D08FC880D0834460E08B3
:10928000B9840308016F0308E8880D0830890D08C8
:10929000408A0D0800000020858D0008758E0008AA
:1092A00068000020898E00087000002018830020CC
:1092B000C0880D08003F0E08218F0008F8830020A9
:1092C0008C880D0868AF0E08FD8E000810B50446A6
:1092D000044B0360044B03600421CBF01DFE2046C9
:1092E00010BD00BF50830E0814890D08F0B583B07F
:1092F0000F4F38462DF01AFC0E4901F50053D3F8F4
:109300005C3A0D4A53600D4E0D4D0095334638467C
:109310002EF074F90B4B33610B4C22463946304624
:109320002FF07CFC094B636325626C6003B0F0BDD9
:109330003084002018D20120680000207000002036
:109340001883002080510100F883002078880D08E0
:1093500010B50446174B03606033436010F5E872A4
:1093600005D000F5127300E0183B9A42FCD1124B75
:10937000E3672033C4F88030104BC4F88030104BC2
:10938000E36704F13800A36D13B10022A26598478A
:1093900004F10800A36A13B10022A2629847094BA6
:1093A0006360094B23604FF41A712046CBF0B4FD83
:1093B000204610BD34460E08408A0D0830890D083D
:1093C000E8880D08FC880D08A0890D0838B5054609
:1093D0000446194B40F8043C603344F8043910F556
:1093E000E67205D004F5127300E0183B9A42FCD1F6
:1093F000124BE3672033C4F88030114BC4F880303F
:10940000104BE36704F13800A36D13B10022A2658D
:10941000984704F10800A36A13B10022A26298479A
:10942000094B6360094B45F8043C4FF41A71204620
:10943000CBF072FD204638BD34460E08408A0D0838
:1094400030890D08E8880D08FC880D08A0890D08F2
:1094500010B50446044B0360044B03600821CBF0B5
:109460005BFD204610BD00BFC4490E08F8890D08F9
:1094700010B50446044B0360044B03601C21CBF081
:109480004BFD204610BD00BF4C490E0850890D0809
:1094900010B50446074B0360406B08B149F096F9DC
:1094A00000236363044B2360E0212046CBF034FDAE
:1094B000204610BD003F0E08C0880D0810B50446B8
:1094C000074B0360006B18B175F072FC0023236337
:1094D000044B236038212046CBF01EFD204610BDF2
:1094E00068AF0E088C880D0808B54FF6FF71012093
:1094F000FFF726FE08BD00002DE9F84380460F4621
:1095000016469946002509E07A1908EB0401064839
:1095100015F0F9FA0134A642F6DC0135A94501DD62
:109520000024F8E7BDE8F8839886002008B500F02D
:1095300091F8A0B1002015F0C3F90146A0B9104878
:1095400015F086FA014698B90D486FF07F434360E5
:109550000023836015F0B0FA014668B908BD0146E2
:10956000084876F0C1F9E5E7074876F0BDF9E6E787
:10957000064876F0B9F9E7E7054876F0B5F9EDE782
:1095800098860020808A0D08A08A0D08B48A0D08EC
:10959000D08A0D08F0B585B0012303934FF0FF3357
:1095A000029304230193009300231D4A1D49A2F056
:1095B000F1FF78B11A48A2F045F906461A4815F0AD
:1095C0007BFA06EB4607C7F1800707EBD7777F10DA
:1095D00000251CE0154876F087F91EE00134B442FE
:1095E00014DA2A4621460E48A2F05AFE0028F5D089
:1095F000F8B205EB4501014404EB4403184403238E
:109600001A46C9B2C0B2FFF777FFE7E70135B542A6
:1096100001DA0024E3E715F081F905B0F0BD00BFE1
:10962000C48600205087002098860020E88A0D0814
:1096300008B5012304220021184602F001FE002093
:1096400008BD08B5002304221946012002F0F8FDE8
:10965000002008BD08B5012304220921022002F0E0
:10966000EFFD002008BD08B501213A2001F030FBD4
:1096700013F096FCFFF7EEFF13F084FD08BD08B56C
:1096800001213A2001F024FB08BD00000D4B1B68AE
:10969000B3F1FF3F06D04FF4801202FA03F30A4AF7
:1096A00013667047094B1B785BB9094B4FF4007286
:1096B0005A6603F5A6235B681BB9034B4FF480126F
:1096C0001A667047DC00002000900044F8870020F4
:1096D00000900050084B1B68B3F1FF3F0AD1074BC5
:1096E0001B783BB9064B5B6813F0010F02D0024BAD
:1096F00000221A60704700BFDC000020F8870020BD
:1097000000C005504FF000639B6A03F17842B2F548
:10971000C04F07D21A680B4B9A4207D00023037040
:1097200083607047002303708360704701230370D8
:109730004FF000639A6A926842609B6A9B698360FB
:10974000704700BF07B0CD5E4FF0005340F20222D9
:109750001A804FF20F025A80BFF34F8F0549CA6833
:1097600002F4E062044B1343CB60BFF34F8F00BFA2
:10977000FDE700BF00ED00E00400FA054FF00063D4
:109780009B6A03F17843B3F5C04F19D230B585B069
:1097900005460C4601238DF8043000230293039301
:1097A00001A8FFF7AFFF039B13F4806F06D04FF0C3
:1097B00000639B6A1B6C21462846984705B030BD64
:1097C000704700003A4B1B78002B59D130B583B05D
:1097D000044600230193009300284FD00125344B09
:1097E0001D7002F01AFB334B1860C6F08DFA324B35
:1097F0005A6E22619A6E626103F580524FF4804383
:1098000093662E4B5968A1612D499960196E2160AC
:10981000596E6160196CA160596CE1602949086C4E
:109820001864496C596455661B6E13F4005F2BD0A5
:10983000254BDB6813F0010FFAD1FFF727FF234B0D
:1098400004221A664FF400721A6600F0CDF9B0F1E6
:10985000FF3F1FD11D4C082323664FF4805323661E
:109860004FF0006323664FF400236366694601A846
:10987000FFF784FF019B2366009B636603B030BD46
:109880000B4B02221A707047114BDB6813F0010F6B
:10989000FAD1D2E700F0A8F940F201139842D9D0EA
:1098A0000A4B4FF400521A664FF480421A66D1E711
:1098B000F9870020FC8700200080005000800044D1
:1098C00055CEAC0000C0005400000440009000449D
:1098D000000004501F4B1B78012B03D01D4B0122AD
:1098E0001A70704710B5044620B300F07DF9B0F14E
:1098F000FF3F20D12268184B1A6662685A66A26838
:109900001A64E2685A64A36913F0010F02D0124B83
:1099100000229A60FFF7DEFE2269104B5A666269E8
:109920009A66C6F00DFA0E4B186802F07CFA094BE5
:1099300000221A7010BD00F057F940F2011398424E
:10994000D8D0084B01225A66074BDB6813F0010F91
:10995000FAD1CFE7F9870020008000440080005052
:10996000FC870020009000400000044038B54FF014
:1099700000639B6A03F17843B3F5C04F18D20E4BD6
:109980001B781BB1022B01D0002413E00B4D28469D
:10999000FFF718FF4FF000639B6ADB6998470446A6
:1099A0002846FFF797FF2CB9034B01221A7001E0FC
:1099B0004FF48174204638BDF8870020DC870020F2
:1099C00038B54FF000639B6A03F17842B2F5C04F9F
:1099D00014D204461B6B03F17843B3F5C04F0DD28C
:1099E000074D2846FFF7EEFE4FF000639B6A1B6BA6
:1099F0005B68204698472846FFF76CFF38BD00BFDC
:109A00000088002008B54FF000639B6A03F178429C
:109A1000B2F5C04F08D21B6B03F17842B2F5C04FCC
:109A200005D29B68984701E04FF4817008BD4FF460
:109A30008170FBE730B583B001904FF000639B6A03
:109A400003F17842B2F5C04F16D21B6B03F1784395
:109A5000B3F5C04F15D20C4D2846FFF7B3FE4FF0BB
:109A600000639B6A1B6B9B69012101A89847044610
:109A70002846FFF72FFF01E04FF48174204603B022
:109A800030BD4FF48174F9E7008800202DE9F041E2
:109A90004FF000639B6A03F17844B4F5C04F17D2CE
:109AA00007460E4615461B6BBBB1DFF834804046B7
:109AB000FFF788FE4FF000639B6A1B6B5B6A2A46C8
:109AC00031463846984704464046FFF703FF01E019
:109AD0004FF401742046BDE8F0814FF40174F9E7BA
:109AE0000088002070B54FF000639B6A03F1784254
:109AF000B2F5C04F18D205460C461B6B03F17843F4
:109B0000B3F5C04F14D20C4E3046FFF75BFE4FF05A
:109B100000639B6A1B6B9B6A214628469847044654
:109B20003046FFF7D7FE01E04FF40174204670BDC8
:109B30004FF40174FAE700BF0088002030B5ADF59E
:109B40000F7D4FF000639B6A03F17843B3F5C04F7C
:109B500015D20C464FF40E726946FFF797FF054683
:109B600078B921466846FFF7BDFF40F201239842CD
:109B7000F7D040F20323984203D0054601E04FF4AA
:109B8000017528460DF50F7D30BD0000F8B50D4676
:109B90004FF000639B6A03F17841B1F5C04F19D2D1
:109BA000044616461B6B03F17843B3F5C04F15D23C
:109BB0000C4F3846FFF706FE4FF000639B6A1B6BA5
:109BC0009B6B324629462046984704463846FFF7A5
:109BD00081FE01E040F201142046F8BD40F201147C
:109BE000FAE700BF008800204FF000639B6A03F192
:109BF0007842B2F5C04F29D21B6B03F17843B3F51D
:109C0000C04F26D200B585B001238DF80430002363
:109C10000293039301A8FFF775FD039B13F4803FA4
:109C20001AD0029BC3F307421B0E18D0012B08D099
:109C30004FF000639B6A1B6B1B6C984705B05DF887
:109C400004FB0A2AF4D840F20110F7E740F20110B1
:109C5000704740F20110704740F20110EEE740F209
:109C60000110EBE770B54FF000639B6A03F1784297
:109C7000B2F5C04F18D205460C461B6B03F1784372
:109C8000B3F5C04F14D20C4E3046FFF79BFD4FF09A
:109C900000639B6A1B6BDB6B214628469847044692
:109CA0003046FFF717FE01E040F20114204670BD78
:109CB00040F20114FAE700BF008800202DE9F041CE
:109CC00090B017461D464FF000639B6A03F178423F
:109CD000B2F5C04F4ED206460C461B6B03F17843DB
:109CE000B3F5C04F4BD201A8FFF76AFE059BD3F82E
:109CF0000C801FFA88F3002B44D00EA93046FFF7E2
:109D000081FEC8BB0E9E63190F9A93423DD81FFA7D
:109D100088F8B4FBF8F208FB1242F2B1C8F1000C6B
:109D20000CEA04004044B3FBF8F108FB113179B1AF
:109D300003EA0C018844A8EB0001304411B1FFF79D
:109D400091FFC8B92A4639463019FFF71FFF13E0C3
:109D5000A2EB080808EB0501EFE73019B5FBF8F3B3
:109D600008FB135323B1C8F1000129404144E5E742
:109D70002946E3E74FF4817010B0BDE8F0814FF45D
:109D80008170F9E740F20140F6E740F20240F3E764
:109D900003680B600160704708B543680BB19847D2
:109DA00008BD2220FCE708B543690BB1984708BD00
:109DB000FF20FCE70A681378022B00D1704710B52A
:109DC00008461379517903EB43031B011433064C06
:109DD0001B59CB4013F0010F0CBF0123002313705C
:109DE000FEF7ACFD10BD00BF30C0035030B583B0EE
:109DF0000546046801213A2000F06AFF0023012291
:109E00006179207902F01CFA2379627903EB43032C
:109E10001B0114330F495B58D34013F0010F0CBFE3
:109E2000012300232370A379022B02D0002003B06A
:109E300030BD00F043FB2A460749607900F066FB1D
:109E400002466179207901230193009302F064F9BD
:109E5000ECE700BF30C00350B59D000803681878D8
:109E60007047000002681378022B12D013795179E1
:109E700003EB43031B01143312481B58CB4003F080
:109E8000010003469179012904D011B980F0010045
:109E9000107070475188490089B20B4343F47F43E7
:109EA00043F0C0034FF6E0718B4205D04FF6DF71EF
:109EB0008B4204D05380704701211170F6E70021D6
:109EC0001170F7E730C0035008B503681A78022A0A
:109ED00000D008BD00225A80FFF788FFF9E710B5CF
:109EE00082B004682378022B04D0A379022B03D01C
:109EF0000223237002B010BD0021607900F0F6FA51
:109F0000617920790023019300930A4602F004F955
:109F1000EEE708B543680068984708BD08B5836850
:109F20000068984708BD08B5C3680068984708BD31
:109F300008B503690068984708BD08B5436900681B
:109F4000984708BD10B5044601213A2000F0C0FE34
:109F5000A378B3FA83F35B0904226178207802F0D6
:109F60006FF9002010BD000083784BB90378427868
:109F70000121914003EB43031B01064AD150704776
:109F8000037842780121914003EB43031B01024A0D
:109F9000D150704740E0035040D0035083784BB914
:109FA000037842780121914003EB43031B01064AE9
:109FB000D1507047037842780121914003EB43036D
:109FC0001B01024AD150704740D0035040E003507B
:109FD000037842780121914003EB43031B01014ABE
:109FE000D150704740F0035002460378407803EBAD
:109FF00043031B01103305495B58C34003F00100C4
:10A0000093780BB980F00100704700BF30C0035057
:10A01000F0B585B00C4694469DF83410664A127827
:10A02000002A00F0BD800546BCF1070F00F2BA809F
:10A030000A9A002A00F0B8800B9A002A00F0B68035
:10A040000E9AB2F5006F00F3B38001285BD05B4A33
:10A0500002EB0C12127B002A00F0AC80002200926E
:10A06000019202920392564A02EB4C1E002C4FD1F1
:10A070004FEA4C1600209051CEF80400CEF80800AC
:10A08000CEF80C009EF8020040F010008EF802009E
:10A090009EF8030040F030008EF8030021B9C1B2F1
:10A0A00041F003018EF8031000930E9B013B444ADC
:10A0B0004FEA4C1002EB4C11165A63F30E1616526F
:10A0C0000A9B8B600B9B4B60CB789DF83C2062F326
:10A0D0008303CB70012D36D0109B002B56D0374A0E
:10A0E0004FEA0C1102EB0C1310985050119A5A6061
:10A0F00000249C605D7372466946604602F04CF92C
:10A10000204605B0F0BD0C9A002AA0D12D48F8E7F2
:10A110002B4F4FEA4C1607EB4C120020B851506001
:10A120009060D060907840F010009070D07840F04F
:10A130000300D0700029B7D107EB4C12C1B241F037
:10A140003001D170B0E70E460A7B42F001020A737B
:10A15000D2B242F002020A73CA68042161F39F027C
:10A16000F26006F1100796E80F0087E80F00F26929
:10A170006FF0030161F39F02F2610C9B7361012C8C
:10A18000AAD10B9AB2610C9A7260A5E7002DA6D1F4
:10A190000B4B03EB4C139A786FF304129A709EE703
:10A1A0000948AEE70748ACE70648AAE70548A8E72C
:10A1B0000448A6E70548A4E79C8900201C880020E5
:10A1C0009C880020018000F0028000F0078000F0F1
:10A1D000134B1B78FBB110B50446F0B101F01DFE26
:10A1E0000023072B13DC0F4A02EB0312127B0AB188
:10A1F0000133F6E723600B4A190102EB0313012434
:10A200001C730024545001F00EFE204602E001F0C1
:10A210000AFE054810BD054870470548FAE700BF2B
:10A220009C8900201C880020048000F0028000F03F
:10A23000018000F000B583B0144B1B68019300232C
:10A240008DF8043001F0E9FD114B1B7833B9104B48
:10A2500001221A7001F0E7FD002309E001F0E3FD9F
:10A260000C480FE00C4A02EB03120021117301337A
:10A27000072BF7DD04238DF807300DEB030002F008
:10A2800059F8002003B05DF804FB00BF088B0D08EF
:10A290009C890020038000F01C88002000B589B054
:10A2A00084460E9807900D9806909DF83000059012
:10A2B0000B9804909DF828000390002002900193D1
:10A2C00000920B4662460121FFF7A2FE09B05DF83D
:10A2D00004FB000008B50A4B1B785BB107280BD8BC
:10A2E000084B03EB00131B7B43B1002102F014F871
:10A2F000002008BD0448FCE70448FAE70448F8E7F2
:10A300009C8900201C880020028000F0018000F061
:10A31000078000F008B50A4B1B785BB107280BD803
:10A32000084B03EB00131B7B43B1012101F0F4FF49
:10A33000002008BD0448FCE70448FAE70448F8E7B1
:10A340009C8900201C880020028000F0018000F021
:10A35000078000F0104B1B78B3B1072816D8B9B1AD
:10A360000E4B03EB00131B7BA3B11F2809D80C4B2A
:10A37000DA6A012303FA00F0024202D00B700020D7
:10A3800070470020087070470648704706487047BD
:10A3900005487047054870479C8900201C880020AC
:10A3A00000000450028000F0018000F0078000F0FF
:10A3B0000C4B1B7873B110B50C4607280CD869B14B
:10A3C000094B03EB00131B7B53B102F02FF8206005
:10A3D000002010BD054870470548FAE70448F8E733
:10A3E0000448F6E79C8900201C880020028000F0C9
:10A3F000018000F0078000F0F8B5194B1F6D5B6D10
:10A400001F4002D40125002402E0FEE701346D0064
:10A41000072C24D83D42F9D0124B1D652301124A66
:10A42000D358002BF2D002EB0416B1680131B160B1
:10A4300072682046984780F00100C0B2737B012B00
:10A44000E4D10028E2D0094B03EB44131A7B6FF3ED
:10A4500041021A731A7F6FF341021A77D6E7F8BDEB
:10A4600000000450002004501C8800209C8800201C
:10A4700010B5044602E0202007E09047DCB194FAD2
:10A48000A4F00028F7D0B0FA80F00123834024EA3A
:10A490000304094B03EB00135A68002AEED0064B65
:10A4A00003EB00131B7B002BE7D0034B03EB0013E4
:10A4B00099689047E2E710BDA089002008B51920EF
:10A4C00001F0B4FC28B1084B4FF00072C3F88021B2
:10A4D0001A601A2001F0AAFC28B1034B4FF08062E9
:10A4E000C3F880211A6008BD00E100E038B50546D8
:10A4F0000C4601F092FC044B03EB05135C60002258
:10A500001A7301F090FC38BDA0890020F8B505460B
:10A510000F46164601F081FC05F0FC0C104BD3F8F9
:10A5200024140023032B0CD8EC1804F0030444EA91
:10A530000C0421FA04F212F0010F03D00133DBB254
:10A54000F0E7FF24FF2C06D0064B03EB04135F60FB
:10A550009E6001221A7301F066FC2046F8BD00BF20
:10A5600000C00350A089002008B5084BD3F824048C
:10A57000D3F82024104000F0553020F0502003F58F
:10A580000053C3F82004FFF773FF08BD00C0035059
:10A5900008B5084BD3F82404D3F82024104000F069
:10A5A000AA3020F0A02003F50053C3F82004FFF7E1
:10A5B0005FFF08BD00C0035008B5034B1968034B8B
:10A5C0001868C9F0F7FB08BDE4000020E000002097
:10A5D000B0F1FF3F01D010B9704702487047024800
:10A5E000704700BF21E000F024E000F0890800235C
:10A5F00001E0043001338B4205D20268B2F1FF3F23
:10A60000F7D00020704701207047704738B50446E6
:10A61000CCF032FFFFF7DCFF054650B9074B9B68D3
:10A620000A3303F01F03012199402046FFF7DEFFA4
:10A6300008B1284638BD024DFBE700BF0080E00F9F
:10A640000EE000F0F8B505460E4694002246CCF028
:10A650001BFFFFF7BDFF074628B9224631462846B3
:10A66000CBF05FFD08B93846F8BD014FFBE700BFEE
:10A6700010E000F008B50346084613F0030F02D1BE
:10A6800011F0030F0AD092001946CBF05AFD0020BA
:10A6900008BD53F8041B40F8041B013A002AF8D106
:10A6A000F5E7000010B582B0044601A801F0FEFFF6
:10A6B0009DF8063023800122E2700020A070054B37
:10A6C0009B680A3303F01F0302FA03F3636002B0CE
:10A6D00010BD00BF0080E00F08B501F0D5FE08BD39
:10A6E00008B501F0C1FE002008BD000008B501F06A
:10A6F0008DFB014B186008BD108F002008B5024B80
:10A70000186801F087FB08BD108F0020704700001B
:10A71000024B4FF480321A67704700BF0090005020
:10A7200038B505460C460C4BD3F8803003F00303D4
:10A73000012B08D0022B0AD00023184605B128604F
:10A7400004B1236038BD14F09FFA0E23F6E714F02D
:10A75000E9FA0723F2E700BF0080005038B505464C
:10A760000C46164BD3F8203103F00703013B052BB1
:10A7700020D8DFE803F0030B130F171B14F07EFA49
:10A78000052305B1286004B1236038BD14F0ACFA8C
:10A790000323F6E714F0C6FA0723F2E714F0BEFA33
:10A7A0000223EEE714F06AFA0623EAE714F09CFAB3
:10A7B0000423E6E700231846E3E700BF00800050CB
:10A7C00038B505460C46164BD3F8283103F007037D
:10A7D000013B052B20D8DFE803F003131B0F0B17F9
:10A7E00014F04CFA052305B1286004B1236038BD8C
:10A7F00014F044FA0623F6E714F094FA0723F2E77C
:10A8000014F072FA0323EEE714F06EFA0423EAE779
:10A8100014F084FA0223E6E700231846E3E700BFBA
:10A820000080005070B582B006460D4600230193AB
:10A83000104BD3F8804104F00304022C16D0032CF3
:10A840000FD0012C07D000240EB1019B336005B15D
:10A850002C6002B070BD002101A8FFF77FFF10241B
:10A86000F2E714F05FFA01900724EDE714F056FACE
:10A870000190E9E70080005030B583B005460C46F2
:10A8800000230193144BD3F8203203F00703013B5C
:10A89000032B1ED8DFE803F0020E1318002101A8D5
:10A8A000FFF78EFF12230DB1019A2A6004B12360D5
:10A8B00003B030BD14F036FA01900723F3E714F02B
:10A8C00075FA01900A23EEE714F076FA0190092355
:10A8D000E9E70023E7E700BF0080005038B50546F0
:10A8E0000C460F4BD3F8403103F00303022B0ED07C
:10A8F000032B10D0012B06D00023184605B1286089
:10A9000004B1236038BD14F051FA0A23F6E714F0BD
:10A9100053FA0923F2E714F04CFA0C23EEE700BFD8
:10A920000080005030B583B005460C4600230193EB
:10A930004FF0E0231B6913F0040F0CD014F0BEF9A4
:10A9400001900D2300930DB1019B2B600CB1009B76
:10A95000236003B030BD694601A8FFF7BFFFF2E7EF
:10A9600030B583B005460C4600230193144BD3F851
:10A97000603203F00703013B032B1FD8DFE803F02D
:10A98000020E1914002101A8FFF7E8FE10230DB1F3
:10A99000019A2A6004B1236003B030BD002101A8F0
:10A9A000FFF79CFF1123F2E714F0BCF90190072395
:10A9B000EDE714F0B3F901900223E8E70023E6E79E
:10A9C0000080005030B583B005460C46002301934B
:10A9D000144BD3F8943203F00703013B032B1FD829
:10A9E000DFE803F0020E1914002101A8FFF7B6FEFC
:10A9F00010230DB1019A2A6004B1236003B030BD69
:10AA0000002101A8FFF76AFF1123F2E714F08AF989
:10AA100001900723EDE714F081F901900223E8E7A4
:10AA20000023E6E70080005030B583B005460C46B1
:10AA3000002301930C4BD3F8703203F00303012B76
:10AA400009D0022B0DD115230DB1019A2A6004B152
:10AA5000236003B030BD002101A8FFF73FFF1123A1
:10AA6000F2E70023F0E700BF0080005038B505464C
:10AA70000C46124BD3F8003203F00703013B032BC3
:10AA800018D8DFE803F0020A0E1214F08FF90A2337
:10AA900005B1286004B1236038BD14F08DF9092395
:10AAA000F6E714F086F90C23F2E714F007F9800AB0
:10AAB0000F23EDE700231846EAE700BF00800050AF
:10AAC00038B505460C46124BD3F8083203F007039D
:10AAD000013B032B18D8DFE803F0020A0E1214F032
:10AAE00065F90A2305B1286004B1236038BD14F06C
:10AAF00063F90923F6E714F05CF90C23F2E714F08C
:10AB0000DDF8800A0F23EDE700231846EAE700BFCF
:10AB10000080005038B505460C460F4BD3F8403244
:10AB200003F00303022B0ED0032B10D0012B06D011
:10AB30000023184605B1286004B1236038BD14F025
:10AB400035F90A23F6E714F037F90923F2E714F090
:10AB500030F90C23EEE700BF0080005038B5054601
:10AB60000C460F4BD3F8603103F00303022B0ED0D9
:10AB7000032B10D0012B06D00023184605B1286006
:10AB800004B1236038BD14F011F90A23F6E714F07C
:10AB900013F90923F2E714F00CF90C23EEE700BFD8
:10ABA0000080005038B505460C46104BD3F8000124
:10ABB00000F00300032815D8DFE800F002080C10AD
:10ABC000012305B1286004B1236038BD14F08CF86E
:10ABD0000323F6E714F0F0F80923F2E714F09CF8E9
:10ABE0000823EEE700231846EBE700BF0080005083
:10ABF000B0F5207F20D00ED8B0F5007F16D020D839
:10AC000010B1B0F5C07F04D10F4B186FC0F3033003
:10AC100018E0002016E0B0F5607F05D10A4BD3F8AC
:10AC20008000C0F301100DE000200BE0064BD3F8CC
:10AC30009000C0F3046005E0034B186FC0F3802060
:10AC400000E00020013070470080005038B5054614
:10AC50000C46174B4FF480329A660020FFF7C8FF6E
:10AC600005FB00F0134BDA6902F4803241F67131D2
:10AC7000D9635B6823F440136CB90F49884207D845
:10AC800000210B430B494B600AB10022CA6338BD57
:10AC90004FF48011F5E7002C07DD0849884201D800
:10ACA0000021EEE74FF48011EBE74FF44011E8E7A5
:10ACB0000090005000000350005A6202002D310144
:10ACC00008B514F00DF80021FFF7C0FF08BD000023
:10ACD000430905D0012B0ED0022B0ED0002200E03C
:10ACE000002200F01F0051B102F58052012303FA47
:10ACF00000F010607047034AF3E7034AF1E702F5FA
:10AD00000052F3E7648000506880005010B582B0B4
:10AD1000002301930093B0F5807F00F20781B0F526
:10AD2000807F00F27A81DFE810F04A017801780133
:10AD3000780178017801780178017801780178014B
:10AD4000780178017801780178017801780178013B
:10AD5000780178017801780178017801780178012B
:10AD6000780178017801780178014A017B014A0174
:10AD70007B01510151015101510151017B0121011F
:10AD80003B01A201A7013B017B017B017B01780113
:10AD900078017801780178017801780178017B01E8
:10ADA0007B017B01B10168017B01780178017801A9
:10ADB00078017801780178017801780178017801CB
:10ADC0007801780151014A014A014A015D013B01C4
:10ADD0003B01AC0170019301980178017801780181
:10ADE0007801780112017801780178017801780101
:10ADF000780178017801780178017801780178018B
:10AE0000780178017801780178017801780178017A
:10AE1000780178017801780178017801780178016A
:10AE2000780178017801780178017501780178015D
:10AE3000780178017801780178017801780178014A
:10AE4000780178017801780178017801780178013A
:10AE5000780178017801780178017801780178012A
:10AE6000780178017801780178017801780178011A
:10AE7000780178017801780178017801780178010A
:10AE800078017801780178017801780178017801FA
:10AE900078017801780178017801780178017801EA
:10AEA00078017801780178017801780178017801DA
:10AEB00078017801780178017801780178017801CA
:10AEC00078017801780178017801780178017801BA
:10AED00078017801780178017801780178017801AA
:10AEE000780178017801780178017801780178019A
:10AEF000780178017801780178017801780178018A
:10AF00007801780178017801780178017801780179
:10AF10007801780178017801780178017801780169
:10AF2000780178017801780178019D01B0F5C06F52
:10AF300000F09D8010D9B0F5206F00F0A2804AD9B2
:10AF4000B0F5406F00F08980B0F5486F5AD100210C
:10AF500001A8FFF737FD60E0B0F5607F6BD00AD93C
:10AF6000B0F5A06F74D0B0F5B06F2CD1002101A85E
:10AF7000FFF758FC51E0B0F5007F0AD113F084FED2
:10AF800004464FF40070FFF733FEB4FBF0F4019475
:10AF900043E011D9B0F5207F42D0B0F5407F3CD1DD
:10AFA00013F08CFE04464FF42070FFF721FEB4FB33
:10AFB000F0F46408019430E0B0F5C07F2DD113F0B7
:10AFC0007DFE019029E0B0F5806F26D1002101A817
:10AFD000FFF7C4FB21E0B0F5F06F57D007D9B0F50B
:10AFE000106F1AD1002101A8FFF76AFD15E0B0F536
:10AFF000D06F41D0B0F5E06F0FD1002101A8FFF76D
:10B0000089FD0AE0B0F5286F07D1002101A8FFF7FC
:10B010000BFD02E013F038FE0190019802B010BD64
:10B0200013F04CFE04464FF42070FFF7E1FDB4FB33
:10B03000F0F40194F1E700216846FFF771FB009CF2
:10B040004FF46070FFF7D4FDB4FBF0F40194E4E733
:10B05000002101A8FFF710FCDFE7002101A8FFF79E
:10B06000AFFBDAE7002101A8FFF75CFCD5E7002180
:10B0700001A8FFF733FCD0E7002101A8FFF7F6FC99
:10B08000CBE7002101A8FFF76BFCC6E7002101A870
:10B09000FFF764FDC1E7000008B58020FFF736FE2A
:10B0A000034B984203D8034B4FF480321A6708BD14
:10B0B000005A620200A0005000B583B00023019343
:10B0C000B0F5807F00F04A8118D9B0F5F06F00F03C
:10B0D0004A8140F2DB80B0F5206F00F0538140F2EE
:10B0E0000481B0F5406F00F04881B0F5486F40F042
:10B0F0000C8101A90020FFF765FCDFE0802800F249
:10B10000DD802428C0F0DA8024385C2800F2D68064
:10B1100001A353F820F000BF53B3000853B3000855
:10B1200053B3000853B3000853B30008BDB200087E
:10B1300049B30008BDB20008E1B2000871B30008CD
:10B14000BDB20008BDB20008BDB20008BDB2000823
:10B15000BDB20008BDB20008BDB20008BDB2000813
:10B16000BDB20008BDB20008BDB20008BDB2000803
:10B17000BDB20008BDB20008BDB2000867B3000848
:10B18000A1B20008BDB20008BDB20008BDB20008FF
:10B19000BDB20008BDB20008BDB20008BDB20008D3
:10B1A000BDB20008BDB20008BDB20008BDB20008C3
:10B1B000BDB20008BDB20008BDB2000853B300081C
:10B1C000BDB20008BDB20008BDB2000801B300085E
:10B1D000BDB20008BDB2000885B3000811B3000875
:10B1E000D1B200087BB30008BDB20008BDB20008B0
:10B1F000BDB20008BDB20008BDB20008F3B000083F
:10B20000BDB20008BDB20008BDB20008BDB2000862
:10B21000BDB20008BDB20008BDB20008BDB2000852
:10B22000BDB20008BDB20008BDB20008BDB2000842
:10B23000BDB20008BDB20008BDB20008BDB2000832
:10B24000BDB20008BDB20008BDB20008BDB2000822
:10B25000BDB20008BDB20008BDB20008BDB2000812
:10B26000BDB20008BDB20008BDB20008BDB2000802
:10B27000BDB20008BDB20008BDB20008BDB20008F2
:10B28000BDB20008BDB200081BB30008B0F5B06F36
:10B290005AD00AD9B0F5D06F6AD0B0F5E06F1CD1A2
:10B2A00001A90020FFF736FC08E0B0F5607F04D16B
:10B2B00001A90020FFF734FA00E003D2019803B09F
:10B2C0005DF804FBB0F5806F43D0B0F5A06FF5D109
:10B2D00001A90020FFF7D0FAF0E7B0F5C06FEDD17B
:10B2E00001A90020FFF7FAFAE8E7B0F5086F04D1EA
:10B2F00001A90020FFF756FCE0E7B0F5106FDDD1A3
:10B3000001A90020FFF7DCFBD8E7B0F5286FD5D105
:10B3100001A90020FFF788FBD0E71D4B1B6F03F04E
:10B320000703013B032BC9D8DFE803F00B02050834
:10B3300005230193C2E703230193BFE70823019389
:10B34000BCE702230193B9E701A90020FFF76AFADD
:10B35000B4E701A90020FFF701FAAFE701A9002037
:10B36000FFF7E0FAAAE701A90020FFF7F7FBA5E73E
:10B3700001A90020FFF77AFBA0E701A90020FFF751
:10B380001FFA9BE701A90020FFF7EAFA96E700BF42
:10B390000080005008B5FFF78FFE092810D012D3A7
:10B3A0000A38012812D80C4B4FF480025A6603F574
:10B3B000D8335B6A13F0010F0BD04FF4FA7001E041
:10B3C000064B188808BD4FF6FF70FBE74FF6FF707D
:10B3D000F8E74FF6FF70F5E70090005006010020F7
:10B3E00038B504468020FFF767FE032800F0A380ED
:10B3F000594B4FF480125A66584B45F60E02C3F86B
:10B40000802003F580524FF0A061916203F5005354
:10B410004FF480329A62514B9B6D13F4803FFAD106
:10B42000226863681B0543EA0263227B43EA024306
:10B43000627B43EA0233A27B43EA8213E27B13433B
:10B44000464A1361936903F00043216943EA81632B
:10B45000616943EA0163217E43EA0143617E43EA75
:10B460000123A17E0B439361136A23F00F03E2696A
:10B47000002A40D111460B43E17E43EA8103134386
:10B48000364A1362E369002B37D1916A344B0B4083
:10B4900094F8201043EA411394F8211043EA011371
:10B4A00094F8241043EAC10343F4803393622B4B96
:10B4B0009A6D2C4B9343FAD1284A02F580514FF0F4
:10B4C00080738B62136923F47003A06843EA00530E
:10B4D00013614FF000438B6194F822301BB9224B6B
:10B4E0004FF080729A6294F82330EBB91E4B4FF400
:10B4F00080329A6218E00821BDE7022B1CD0174A5F
:10B50000916A174B0B4094F8201043EA411394F8CA
:10B51000221043EA016394F8241043EAC10394F82B
:10B52000231043EA0143936294F825301BB10B4B7F
:10B530000E4AC3F8802038BD084D00232B61AB6153
:10B5400000F064FC6A6B82F4085303F47F435340B9
:10B550006B6300F05FFCD2E7009000500040005A9F
:10B56000C7FFFEFE030001000060005AF1A7FFFFC5
:10B57000014B93F9000070470401002010B4437898
:10B580004F2B28BF4F231A461C4B4FF4000159661E
:10B5900003F5B8334FF4D151596203F580510224B9
:10B5A0004C6003F5005301215960154B1B6913F4DE
:10B5B000803FFAD1037842EA0323114A536141687C
:10B5C00083681B0143EA0123017B43EA4103417B7A
:10B5D0000B439360817BC37B1B0143EA4113017CD6
:10B5E00043EA4103417C0B435360837C1BB1134608
:10B5F0006FF4D1525A625DF8044B704700900050CE
:10B6000000000250014B1880704700BF0601002067
:10B6100008B5002903DD0121FFF718FB08BD002153
:10B62000FFF714FBFAE70000B0F5207F5DD02DD8BE
:10B63000B0F5007F4ED061D810B1B0F5C07F24D1F5
:10B6400010B54C1EFFF73CFB00F060F8FFF760F808
:10B650002B4B196F21F4704141EA0431196713F043
:10B660002DFB284BD3F8843013F0100FF9D1254B64
:10B67000D3F88410C1F38111C1F10201FFF7C8FFB3
:10B6800000F04CF8FFF708FD10BD7047B0F5607F83
:10B690001FD11D4BD3F8FC2012F0807206D0184643
:10B6A000D3F8FC3023F08073C0F8FC300139144823
:10B6B000D0F8803023F0300343EA0111C0F8801045
:10B6C000E2B1114AD2F8FC3043F08073C2F8FC308A
:10B6D0007047704701390A4AD2F8903023F0F85386
:10B6E00043EA0161C2F8901070470139044A136FB0
:10B6F00023F4806343EA812111677047704700BFDC
:10B70000008000500040005000ED00E008B502212C
:10B710004FF42070FFF788FF08BD000008B54FF414
:10B72000C070FFF7F3FA054B984205D902214FF498
:10B730002070FFF779FF08BD0121F8E780F0FA02D9
:10B7400070B50C46B0F5807F00F02F8229D9B0F596
:10B75000F06F00F0938240F2EB80B0F5206F00F0C4
:10B760001A8340F26081B0F5406F00F0EC82B0F5D2
:10B77000486F40F07E81023C0F2C00F22B83DFE803
:10B7800014F0390329032903290329033303290367
:10B79000290329032903290329032903290335033D
:10B7A0003703802800F20F812428C0F00C81243850
:10B7B0005C2800F2088101A353F820F06FBB000859
:10B7C0006FBB00086FBB00086FBB00086FBB0008B1
:10B7D000C7B9000847BB0008C7B9000801BA00088C
:10B7E000B1BC0008C7B90008C7B90008C7B900084C
:10B7F000C7B90008C7B90008C7B90008C7B9000829
:10B80000C7B90008C7B90008C7B90008C7B9000818
:10B81000C7B90008C7B90008C7B90008C7B9000808
:10B820007DBC000849B90008C7B90008C7B90008BD
:10B83000C7B90008C7B90008C7B90008C7B90008E8
:10B84000C7B90008C7B90008C7B90008C7B90008D8
:10B85000C7B90008C7B90008C7B90008C7B90008C8
:10B860006FBB0008C7B90008C7B90008C7B900080E
:10B8700059BA0008C7B90008C7B9000897BD000841
:10B8800079BA0008D7B9000847BD0008C7B9000851
:10B89000C7B90008C7B90008C7B90008C7B9000888
:10B8A00077B70008C7B90008C7B90008C7B90008CA
:10B8B000C7B90008C7B90008C7B90008C7B9000868
:10B8C000C7B90008C7B90008C7B90008C7B9000858
:10B8D000C7B90008C7B90008C7B90008C7B9000848
:10B8E000C7B90008C7B90008C7B90008C7B9000838
:10B8F000C7B90008C7B90008C7B90008C7B9000828
:10B90000C7B90008C7B90008C7B90008C7B9000817
:10B91000C7B90008C7B90008C7B90008C7B9000807
:10B92000C7B90008C7B90008C7B9000899BA000824
:10B93000B0F5B06F00F0078119D9B0F5D06F00F005
:10B94000B781B0F5E06F58D10B2C00F21A820A2CA7
:10B9500080F01B82092C40F01A820222AD49D1F8F6
:10B96000403223F003031343C1F840322BE0B0F51B
:10B97000607F27D1A84BD3F8FC2012F0807206D04C
:10B980001946D3F8FC3023F08073C1F8FC30072C43
:10B9900000F0C3810E2C00F0C281062C00F0BB81A8
:10B9A00000209C49D1F8803023F003030343C1F801
:10B9B000803042B1984AD2F8FC3043F08073C2F82C
:10B9C000FC3000E000D270BDB0F5806F00F0CF8099
:10B9D000B0F5A06FF7D1073C0B2C00F2A281DFE895
:10B9E00014F0AA01A001AE01AC01AC01A001A001BC
:10B9F000A001A001A001A001B001B0F5C06FE2D18B
:10BA00000B2C00F231810A2C80F03281092C40F09D
:10BA1000318102227F49D1F8403123F003031343DF
:10BA2000C1F84031CFE7B0F5086F12D1082900F016
:10BA30006E81092900F06D81032900F066810021E3
:10BA4000744AD2F8003123F003030B43C2F80031EB
:10BA5000B9E7B0F5106FB6D1093C062C00F243816E
:10BA6000DFE814F043014901490145014101410169
:10BA70004701B0F5286FA6D1112C00F0BD81152C1F
:10BA800040F0BC810221634AD2F8703223F00303F4
:10BA90000B43C2F8703296E78B1E062B05D8DFE801
:10BAA00003F04C3A044F0404490000252E460121BE
:10BAB000022000F01DFAFFF703F9FFF727FEFEF75B
:10BAC00027FE544A136F23F007033343136713F021
:10BAD000F5F8524BD3F8843013F0100FF9D14F4BD7
