S0220000636869702D65667233322D6C69676874696E672D6578616D706C652E733337C3
S31508006000000004204DBE01084BBE010861E70708E1
S31508006010C1C800084BBE01084BBE01084BBE0108AB
S315080060204BBE01084BBE01084BBE0108210B0208F6
S315080060304BBE01088C000020C10A0208ED76010853
S31508006040ED9200084BBE01084BBE01084BBE010885
S315080060504BBE01084BBE01084BBE01084BBE0108EA
S315080060604BBE01084BBE01084BBE01082182000841
S315080060704BBE01084BBE01084BBE01084BBE0108CA
S315080060804BBE01084BBE01084BBE01084BBE0108BA
S315080060904BBE0108119D00084BBE01084BBE010806
S315080060A04BBE0108A99E0008819E00084BBE010848
S315080060B04BBE0108A5200D089D2A0D08552A0D0876
S315080060C0512A0D0871220D08992A0D08592A0D081A
S315080060D0712A0D085D2A0D08FD2A0D08DD2A0D080E
S315080060E04BBE01084BBE01084BBE01084BBE01085A
S315080060F079C201084BBE01084BBE01084BBE010818
S315080061004BBE01084BBE01084BBE01084BBE010839
S315080061104BBE01084BBE01084BBE01084BBE010829
S315080061204BBE01084BBE01084BBE01084BBE010819
S315080061304BBE01084BBE01084BBE01084BBE010809
S315080061404BBE010819C401084BBE01087BD30008E1
S3150800615051080D084BBE010809E70C080FE70C08A3
S315080061604BBE01084BBE01084BBE01084BBE0108D9
S3150800617010B5054C237833B9044B13B1044800E035
S3150800618000BF0123237010BD280A0020000000006C
S31508006190984B0F0808B5034B1BB10349034800E0A9
S315080061A000BF08BD000000002C0A0020984B0F080D
S315080061B0A3F5803A704700BF174B002B08BF134B57
S315080061C09D46FFF7F5FF00218B460F461348144AF4
S315080061D0121AD0F003F90E4B002B00D098470D4B3E
S315080061E0002B00D098470020002104000D000D4820
S315080061F0002802D00C4800E000BFD0F06BF8200061
S31508006200290001F06DFECFF0DBFE00BF000008009C
S31508006210000000000000000000000420280A0020FA
S31508006220482202200000000000000000012800D0DB
S3150800623070474FF6FF739942FAD1054B012283F84E
S315080062408120002283F8C52083F8C620F0E700BF26
S31508006250240C002010B584B00C4600230093164B7E
S31508006260164A10210A2011F029FF154B186090B123
S31508006270144B0293144B019301230093104B4FF4D4
S3150800628080621249204612F0B3FD114B186050B1D6
S31508006290002004B010BD0F4878F022F940F20170D2
S315080062A000F0D6FAE4E70C4878F01AF940F20270E2
S315080062B000F0CEFAECE700BFD40B0020340B002028
S315080062C0240B00206C0A0020EC0C002004770D0833
S315080062D0280B0020E0760D0808770D0830B5A7B022
S315080062E004460D46002941D02E4B1D602E4B0093C7
S315080062F02346002201212D4813F074FD2C4B18600B
S3150800630000283AD02B4B0093234601220A212A481B
S3150800631013F068FD294B1860002836D0284929480B
S3150800632078F0DEF800F021FA2749284800F03CFA10
S3150800633076F00CFA0368D3F88430984705AB0393D4
S31508006340812304934FF0020103A890F09FFF20BB1E
S315080063501F4C049A0399204602F030FD012211468B
S31508006360204602F09DFD002027B030BD194878F080
S31508006370B7F82F2000F06CFAB6E7174878F0B0F8AF
S3150800638040F2047000F064FABCE7144878F0A8F804
S3150800639040F2047000F05CFAC0E7114878F0A0F803
S315080063A0E1E700BF680A00202567000840770D0866
S315080063B02C0B0020C164000864770D08640A0020CD
S315080063C08C770D0898770D0864A60D08480A0020F2
S315080063D0240C002024770D0848770D0870770D08DF
S315080063E0B8770D0810B52C4878F049FBC0B92B4B87
S315080063F01B78022B35D02A4B1B680BB1DB7D5BBBA8
S31508006400284B1B78002B37D0274B1B78002B33D013
S31508006410264B1B784BB30121254800F0B1F920E043
S31508006420244C20467BF0E5FA1E4B187020467BF07C
S315080064308FFA1D4B187020467BF0ECFA1B4B187030
S315080064401D487AF0CFFE003818BF01201B4B187084
S31508006450114878F01EFBCAE7FA221146144800F0E4
S31508006460E1F9134800F0B4F910BD322240F2B63112
S315080064700F4800F0D7F9F4E7104B1B782BB16422CC
S3150800648011460B4800F0CEF9EBE740F2B63232215E
S31508006490074800F0C7F9E4E760500120EC1C00202B
S315080064A0680A0020300B0020440A0020600A0020F9
S315080064B0480A0020E8960120DC960120310B0020CE
S315080064C008B5FFF78FFF08BD00B583B0002200921C
S315080064D0134603210948006813F0A0FC28B1084BAD
S315080064E000221A7003B05DF804FB064877F0F8FF3F
S315080064F040F2067000F0ACF9F1E700BF2C0B002063
S31508006500320B0020D0770D0810B582B00446114B27
S31508006510186813F011FE78B9642300930023224605
S3150800652004210C48006813F079FC01280AD10A4BAB
S3150800653001221A7002B010BD084877F0D1FFFFF7A4
S31508006540C3FFE9E7064877F0CBFF40F2057000F095
S315080065507FF9ECE72C0B0020320B0020E8770D08BA
S3150800656004780D080388012B2BD110B5154B1B7821
S315080065701BB1154A1278012A05D01BB1124B1B789C
S31508006580022B17D010BD40F6B831104877F0A8FF97
S3150800659040F6B830FFF7B8FF0B4B02221A700C4CC6
S315080065A00021204600F0ECF84FF4FA71204600F07E
S315080065B03FF9E7E7044B00221A70064892F0A2F961
S315080065C0E0E77047320B0020EC1C002020780D080D
S315080065D0480A002038CB012010B50379012B0CD0CE
S315080065E01F4B1B781BB11F4A1278012A15D01BB105
S315080065F01C4B1B78022B2AD010BD194B1B78002B7D
S31508006600FAD1184B1B78002BF6D140F6B830FFF7B5
S315080066107BFF144B01221A70EEE7FFF755FF114B6B
S3150800662000221A70104802F050FC10487BF0E1F97D
S3150800663048B90F4C012120467AF0BCFD00212046BE
S315080066407AF0C0FDD8E70B4877F04AFFD4E7FFF7A2
S315080066503BFF044B00221A70074877F041FFCBE74F
S31508006660320B0020EC1C0020240C0020E8960120A8
S31508006670DC96012060780D08A0780D0810B582B068
S315080066800B4B1C6812F09EFC024600230093012166
S31508006690204613F0C3FB012801D102B010BD0548FE
S315080066A077F01EFF40F2057000F0D2F8F5E700BF5C
S315080066B0640A0020C0780D0800487047240C0020A2
S315080066C010B582B0144B1B6813B304461AF0A6F92A
S315080066D080B10023019301AA21460F48006811F0F2
S315080066E0C5FE019B6BB14FF0E0234FF08052C3F813
S315080066F0042D06E00023012221460748006811F010
S31508006700BDFD08B102B010BD044877F0E9FEF9E70F
S31508006710034877F0E5FEF5E7240B0020D8780D0846
S3150800672008790D0800B585B00123ADF80030019051
S31508006730034B03936846FFF7C3FF05B05DF804FBF8
S315080067406565000808B5CB6813B10846984708BDC3
S31508006750014877F0C5FEFAE730790D0808B54FF617
S31508006760FF710120FFF762FD08BD08B513F0BAFDF9
S3150800677008BD006918B108B503F0D4F808BD70471C
S3150800678008B50023C360836000220023C0E9002304
S31508006790006910B111B103F0BBF808BD03F0BDF8EC
S315080067A0FBE700000000000008B59FED077B80EDC1
S315080067B0007B00228260C26001611146FFF7E0FF9C
S315080067C008BD00BFAFF30080000000000000000015
S315080067D0836823B370B582B00446C368ABB1104B67
S315080067E019680B68DB6868469847009E019D206912
S315080067F003F09DF858B1A168236862685B1842F1F6
S315080068000002B34272EB050303D302B070BDE16820
S31508006810F2E72046FFF7ADFF26606560F5E77047AB
S31508006820F402002008B58160C260FFF7D1FF08BDF9
S3150800683008B50A46FFF7F6FF08BD000008B5014689
S31508006840024877F04DFE1AF025F9FEE760790D0843
S3150800685008B5FFF7F3FF0000124A12F0070F1ED023
S31508006860D11D21F00701C1F5A04313440A460E487D
S315080068700260002141601344083B23F007030B48DC
S31508006880036059601960991A51601360084B1960C2
S31508006890084B1960084B4FF000421A6070474FF4D6
S315080068A0A043E4E7F41C0020086D0020F01C00203B
S315080068B0FC6C0020F86C0020F46C002010B500B3C6
S315080068C0044612F077FB54F8043C0F4A1268134248
S315080068D009D054F8081C69B11AF0DCF80B490C48C1
S315080068E0D0F074F8FEE71AF0D5F80A490848D0F04F
S315080068F06DF8FEE723EA0203A3F1080412F00CFC84
S3150800690000E00024204610BDF46C0020DC790D0858
S31508006910C0790D0890790D08014B1868704700BFBB
S31508006920F86C0020014B1868704700BFFC6C00200B
S3150800693008B519F0BDFF034B1A68034B1A6019F026
S31508006940C5FF08BDF86C0020FC6C0020F8B50746AA
S3150800695012F030FB174B1B6893B14FF0FF3600253A
S315080069602C4604E01B68144A12689A420CD001347B
S315080069705A68AA4200D91546B242F3D21646F1E73A
S315080069804FF0FF3600252C4612F0C6FB7D60BE6030
S31508006990FC6019F08DFF094B1B683B60084B1B68B0
S315080069A07B61084B1B68BB61074B1B683B6119F091
S315080069B08DFFF8BD086D0020F01C0020F86C002043
S315080069C0006D0020046D0020FC6C002010B588B016
S315080069D00446164B1B6893B1144B1A461B68A34210
S315080069E0FBD351685018A0420DD0616860188342E5
S315080069F00ED02360944200D0146008B010BD01A8E0
S31508006A00FFF7A4FFE8E76068014451601446ECE725
S31508006A1007480068834206D05B68194461601368BA
S31508006A201B682360E6E72060E4E700BF086D0020E6
S31508006A30F01C002038B5044612F0BCFA3E4B1B6821
S31508006A40EBB13E4B1B681C421CD1631E13F10A0FA7
S31508006A500BD804F1080214F0070F05D022F007033B
S31508006A60083393425AD91A4682B912F055FB0025C3
S31508006A7078F0A8F915F0070F56D1284638BDFFF764
S31508006A80EBFEDEE712F048FB0025F1E72C4B1B680E
S31508006A90934202D32B490C6805E012F03DFB002512
S31508006AA0E6E721461C466368934202D22368002B18
S31508006AB0F7D1214B1B68A34212D00D68083523680D
S31508006AC00B6063689B1A102B12D9A01810F0070FD9
S31508006AD00AD019F0DFFF1C491C48CFF077FFFEE704
S31508006AE012F01AFB0025C3E743606260FFF76EFFEA
S31508006AF0626813490B689B1A0B60154909688B4233
S31508006B0001D213490B600D4B1B68134363600023C6
S31508006B102360104A13680133136000E0002512F061
S31508006B20FBFA002DA6D1A3E719F0B4FF0A490748D6
S31508006B30CFF04CFFFEE700BFF01C0020F46C0020ED
S31508006B40F86C0020086D0020FC790D08C0790D0846
S31508006B50FC6C0020006D0020387A0D0838B501FB62
S31508006B6000F419B1B4FBF1F181420AD12046FFF7CE
S31508006B7061FF054618B122460021CFF02FFC2846B2
S31508006B8038BD0025FBE7000080B338B50446A0F100
S31508006B90080550F8043C164A1268134209D050F802
S31508006BA0081C69B119F076FF12491348CFF00EFF99
S31508006BB0FEE719F06FFF11490F48CFF007FFFEE710
S31508006BC023EA020340F8043C12F0F4F954F8041CD2
S31508006BD00B4A13680B4413602846FFF7F7FE094A69
S31508006BE013680133136012F097FA38BD704700BF77
S31508006BF0F46C0020DC790D08C0790D0890790D0831
S31508006C00F86C0020046D0020F8B505460C46FFF721
S31508006C1055FED8B10746A4B1A04201D12E461AE0C6
S31508006C2021460120FFF79AFF0646A0B13A46A74239
S31508006C3028BF22462946CFF0AAFB2846FFF7A4FF1D
S31508006C4009E02846FFF7A0FF002604E021460120B8
S31508006C50FFF784FF06463046F8BD08B5FFF7EAFE9B
S31508006C6008BD08B5FFF790FF08BD08B5FFF7CCFFCC
S31508006C7008BD08B50846FFF7F0FF08BD08B5084681
S31508006C80FFF7EFFF08BD08B508461146FFF7EDFF09
S31508006C9008BD08B506F094FB0FF00EFC77F014FC5F
S31508006CA035F012F833F040F808BD10B582B000226E
S31508006CB0ADF8062003689C680DF10603A04719285D
S31508006CC002D020B1002000E0012002B010BD012052
S31508006CD0FBE7052B01D8002070472F2070470000DE
S31508006CE0014B0360704700BFD47C0D08024A02605E
S31508006CF0024A0260704700BFF87C0D08D47C0D0874
S31508006D00024A0260024A0260704700BFE47C0D082E
S31508006D10D87B0D08024A0260024A0260704700BF2B
S31508006D20B47C0D08EC7B0D08034A0260034A026036
S31508006D30034A0260704700BF00AA0E084CA90E0855
S31508006D40807C0D08024A0260024A0260704700BF52
S31508006D5028AD0E08A07C0D0808B502487AF08EFD0D
S31508006D6008BD00BF8CA7012008B502487AF08DFD42
S31508006D7008BD00BF8CA7012008B501F0E9FD08BDD4
S31508006D80038848F20102934204D048F20202934271
S31508006D9012D0704790F90820012AF6D110B5094893
S31508006DA077F09EFB48F0EAFD03685C690023064A13
S31508006DB040F6B831A04710BD90F90930012BE8D14B
S31508006DC0ECE700BF787A0D08796D0008012800D035
S31508006DD0704708B54FF6FF73994200D008BD0948B9
S31508006DE0094B0360094B0360002343608360C3605B
S31508006DF00374436103764376054A0649CEF0ADF936
S31508006E00ECE700BFCC6F0020487C0D0868690E08C7
S31508006E10000000204508080810B50446034B036027
S31508006E203821CEF09FF9204610BD00BFD47C0D084E
S31508006E3010B50446044B0360044B03603821CEF0BA
S31508006E4091F9204610BD00BFF87C0D08D47C0D08CA
S31508006E5010B50446044B0360044B03600421CEF0CE
S31508006E6081F9204610BD00BFE47C0D08D87B0D08CB
S31508006E7010B50446044B0360044B03600821CEF0AA
S31508006E8071F9204610BD00BFB47C0D08EC7B0D08D7
S31508006E9008B5104B0360D0F8F4317BB9D0F8483107
S31508006EA073B9D0F804316BB9D0F8983063B9436D2B
S31508006EB063B9036963B9084B036008BDCFF04CF8A2
S31508006EC0CFF04AF8CFF048F8CFF046F8CFF044F8BC
S31508006ED0CFF042F8509C0E085C7B0D0838B5044686
S31508006EE00C4B036043688BB1437C4BB9C5683DB115
S31508006EF035B12B681B6828469847284675F0B6FCB6
S31508006F000023E3606374237423726360024B236077
S31508006F10204638BDA02C0E08487C0D08406818B1DC
S31508006F2008B577F075FA08BD03207047406858B170
S31508006F3000B583B04FF0000C8DF807C032B177F07A
S31508006F4039FA03B05DF804FB032070470BB12F2014
S31508006F50F7E70DF10702F2E770B582B00446A54BD4
S31508006F60D3E88F3F13F0010F3FD0A34BD3E88F3FF1
S31508006F7013F0010F47D0A14BD3E88F3F13F0010F51
S31508006F804FD09F4BD3E88F3F13F0010F67D09D4B2F
S31508006F90D3E88F3F13F0010F00F0CF809A4BD3E868
S31508006FA08F3F13F0010F00F0DC80984BD3E88F3F3A
S31508006FB013F0010F00F0EB802369002B00F0F68038
S31508006FC0236B002B00F0F780636B002B00F0068123
S31508006FD08F4D2169284688F0E5F8284687F014F988
S31508006FE0002800F0598102B070BD8248CEF0BCF886
S31508006FF00028BAD07F48CEF0C3F8864A8649874823
S31508007000CEF0ABF8B1E77C48CEF0AEF80028B2D0A7
S315080070107948CEF0B5F87F4A81498248CEF09DF886
S31508007020A9E77648CEF0A0F80028AAD07E4D7F4B77
S315080070302B607F4B2B6000236B602B72EB602B6100
S315080070406B61AB61EB612B6285F824306B48CEF03F
S3150800705097F8704A77492846CEF07FF891E768484E
S31508007060CEF082F8002892D06948734B0360032358
S3150800707083800223C38000258560704A0260C5604C
S315080070801422009200F1280200F12C01103046F07B
S31508007090ADF92B46002B01DB013BFBE7684A1423BD
S315080070A000930223111DA2F1180046F09FF9002350
S315080070B0002B01DB013BFBE7624A282300930223EE
S315080070C0111DA2F1180046F091F90023002B01DBEF
S315080070D0013BFBE75C4A142300930223111DA2F12E
S315080070E0180046F083F90023002B01DB013BFBE780
S315080070F0564A482300930223111DA2F1180046F0B0
S3150800710075F90023002B01DB013BFBE7504A2C23D2
S3150800711000930223111DA2F1180046F067F9002317
S31508007120002B01DB013BFBE73548CEF029F8394A4D
S3150800713048493748CEF011F829E73248CEF014F816
S3150800714000283FF42BAF444D444B2B60444B2B6037
S315080071502C48CEF015F82F4A42492846CDF0FDFFB7
S315080071601CE72948CEF000F800283FF41EAF3E4D34
S315080071703E4B2B603E4B2B603E4B2B602248CDF09E
S31508007180FFFF244A3C492846CDF0E7FF0DE71F4894
S31508007190CDF0EAFF00283FF40FAF1C48CDF0F0FF12
S315080071A01C4A36493648CDF0D8FF05E71B4B354A09
S315080071B05A60236104E722691A4B5B6833B10320DE
S315080071C000287FF410AF174B2363FDE6154B00200C
S315080071D0187258745A60D8601874F1E72569124B0A
S315080071E05B68002B50D0032000287FF4FCAE0E4BC2
S315080071F06363EDE6C46F0020C06F0020946F002023
S31508007200286D0020206D0020146D0020106D0020D0
S315080072102C6D002000000020156D00081C000020C1
S31508007220DD6E000808000020986F00200C7C0D0811
S31508007230609F0E08DD7200085C7B0D08509C0E08E6
S31508007240986D0020DC6D0020486E00208C6E0020B2
S31508007250386F0020916E0008246D0020D87B0D0839
S31508007260E47C0D08016D0008186D0020807C0D086F
S315080072704CA90E0800AA0E08296D0008456D0008DD
S3150800728004000020545001200F4E33689B6A304694
S31508007290984775600020A7E70C4BE361236983B123
S315080072A00B4A5360002000287FF49DAE084B6361AB
S315080072B04DF040FA2062074B6362074BA36100203A
S315080072C091E62F20EFE700BF986F00202C6D002075
S315080072D0186D002004000020246D002010B5044617
S315080072E0124B0360436823B1104B9B6A98470023EF
S315080072F0636000222262E06918B175F0B7FA0023CC
S31508007300E3610022A261606918B175F0AFFA002343
S31508007310636100222261E06818B175F0A7FA0023BC
S31508007320E360034B2360204610BD00BF609F0E0834
S315080073300C7C0D0810B5134B0360D0F8F431ABB9CB
S315080073400446D0F848319BB9D0F8043193B9D0F83F
S3150800735098308BB9436D8BB903698BB90A4B0360B7
S315080073604FF41A71CDF0FEFE204610BDCEF0F4FDA6
S31508007370CEF0F2FDCEF0F0FDCEF0EEFDCEF0ECFD57
S31508007380CEF0EAFD509C0E085C7B0D0810B504464D
S31508007390144B0360436823B1124B9B6A984700233A
S315080073A0636000222262E06918B175F05FFA002373
S315080073B0E3610022A261606918B175F057FA0023EB
S315080073C0636100222261E06818B175F04FFA002364
S315080073D0E360054B236028212046CDF0C3FE2046F6
S315080073E010BD00BF609F0E080C7C0D0838B504461A
S315080073F00E4B036043688BB1437C4BB9C5683DB1FE
S3150800740035B12B681B6828469847284675F02EFA2A
S315080074100023E3606374237423726360044B236060
S3150800742014212046CDF09EFE204638BDA02C0E081D
S31508007430487C0D0808B50A4877F052F809487BF0E9
S31508007440F0FA00B108BD012106487AF007FC0028C9
S31508007450F8D1054877F044F804487AF0EDF9F1E7F1
S31508007460A07A0D08E8960120C07A0D088CA701209D
S3150800747030B585B004463B493B480BF059FA3B4DBD
S31508007480284677F02DF82146394877F029F8284616
S3150800749077F026F8374877F023F80021084645F0B4
S315080074A027FF08B105B030BD334B1B78002B41D000
S315080074B000200028F6D12146304879F08BFEFFF7E8
S315080074C0B9FF0028EED12E4877F0D2FA2D4BD3E833
S315080074D08F3F13F0010F36D02B4C204679F072FA05
S315080074E02A4D2C632846FFF737FD002401940294A1
S315080074F00394274B0193274B029327487AF000FA07
S31508007500039001ABAB622946244891F093FA1C4DCF
S31508007510284677F0BEFA22462149284677F0D2F95E
S31508007520204876F0DDFF284677F062FB0028B9D1BF
S315080075300020B7E7104D284677F0B2FBB0FA80F383
S315080075405B092B70B5E70F48CDF00EFE0028C3D0B7
S315080075500C48CDF015FE144A14490C48CDF0FDFD33
S31508007560BAE700BF4DD3040845D30408DC7A0D08F2
S31508007570107B0D081C7B0D0858500120DC96012055
S3150800758060500120C86F0020CC6F00202400002026
S31508007590596D0008696D0008E896012038CB01206E
S315080075A0816D00082C7B0D0800000020ED6C00089A
S315080075B008B576F095FC08BDB0F5803F2CBF0020D5
S315080075C0012070474068E0B170B584B01D460023BD
S315080075D08DF80F30BAB100230293019302AB0093E2
S315080075E02B8876F0C9FE0446192800D030B9029EC9
S315080075F03046FFF7E1FF68B900262E80204604B022
S3150800760070BD032070472B880BB12F20F7E70DF1CB
S315080076100F02E0E7B6B2F0E710B50446054B036083
S31508007620054B0360054B03600821CDF09BFD204602
S3150800763010BD00BF00AA0E084CA90E08807C0D08D4
S3150800764010B50446044B0360044B03600421CDF0D7
S3150800765089FD204610BD00BF28AD0E08A07C0D0888
S3150800766008B54FF6FF710120FFF7B0FB08BD000013
S31508007670024A0260024A0260704700BFB47E0D08E3
S31508007680A07E0D0808B5034A02211D2045F0A6FF75
S3150800769008BD00BF047D0D0808B5034A02211D2058
S315080076A045F09CFF08BD00BF147D0D0808B5044AC7
S315080076B002211D2045F092FF024BFF221A7008BDD9
S315080076C0247D0D085C00002010B5002214460388AE
S315080076D0022B04D033B140F203746CB110BD0279A9
S315080076E08168FAE7094800F040FA10B10021012242
S315080076F0F3E700210A46F0E7044800F0EBFA002811
S31508007700ECD1034876F0ECFEE8E700BF38700020BD
S31508007710407D0D0801B300B585B0084600230093E7
S315080077200193029303938DF804200C4B994205D0DC
S315080077300B4B98420AD005B05DF804FB012AF7D135
S31508007740084B03936846FEF7BBFFF4E7064B039323
S315080077506846FEF7B5FFEEE7704700BF4CA60D0872
S3150800776034A60D08C9760008D965000838B50C4650
S3150800777000280CBF0125002511D10A490A4876F0D0
S31508007780AFFE29460948FEF7FBFFFEF795FF294697
S3150800779001F008FB14B9064B01225A7138BD054998
S315080077A0ECE700BF707D0D08747D0D080870002099
S315080077B0207000206C7D0D0808B528B1012807D077
S315080077C00A4B5B7943B908BD094876F089FEF7E7A5
S315080077D0084876F085FEF3E700220749074877F060
S315080077E07BF9024B00225A71EDE700BF207000209A
S315080077F0887D0D08947D0D080178000860500120E9
S3150800780010B5094800F0B1F9044628F013F800232A
S315080078102246012128F0C2F800B910BD01460348E6
S3150800782076F05EFEF9E700BF38700020A07D0D08EF
S3150800783010B50446044B0360044B03600821CDF0E1
S3150800784091FC204610BD00BFB47E0D08A07E0D0831
S31508007850012800D070474FF6FF739942FAD130B528
S3150800786085B00F4D0023039302930E4B0193022319
S3150800787000930D4B0D4A0121284625F0CDF80C4CF6
S3150800788022460C492846CDF068FC0B480B4B036092
S315080078900B4B036022460B49CDF05FFC05B030BDAB
S315080078A0E86F0020C97800089976000885760008F0
S315080078B00000002055CA020820700020A07E0D088E
S315080078C0B47E0D087176000870B50446037D224A19
S315080078D013700B2B10D0204B1B78FE2B23D015D8FA
S315080078E0022B32D848F04AF803685D6923461B4ADA
S315080078F041F28831A84770BD837D194A02211D20AF
S3150800790045F06CFEA27D144B1A70E4E7FF2B1CD1E0
S3150800791048F034F803689B692246104998470E4B8D
S31508007920FF221A70E7E748F029F803689B690B4DB0
S3150800793022462946984748F021F803685E69234697
S315080079402A464FF47A71B047D5E7064A02211D2028
S3150800795045F044FECFE700BF5C000020AD76000886
S31508007960B87D0D080C7E0D0870B50446FEF7A4FE1A
S315080079700022184901F0AEF917492046FEF7AEFC79
S31508007980C0B9164800F0B4F80446D8B9134E144ADC
S315080079901449304600F0E6F8134D14492846FEF718
S315080079A003FF304600F0E1F801462846FEF7E8FEF8
S315080079B0204670BD04460E4876F092FD2046FEF736
S315080079C047FFDEE70B4876F08BFD2046FEF740FFC3
S315080079D0DCE700BF247E0D08E86F00203870002021
S315080079E0B97700086D770008087000207CA60D0896
S315080079F0347E0D08547E0D0830B585B004681148EC
S31508007A00FFF7B2FFA8B9FEF739FE0F4876F068FD12
S31508007A100A226946204610F0F7FD0128F8D1694682
S31508007A200848FEF78FFE00226946204610F0ECFD56
S31508007A30F3E70546054876F053FD2846FEF708FFA6
S31508007A40E1E700BF20700020847E0D086C7E0D08DB
S31508007A5008B50249FEF7FEFB08BD00BFF979000824
S31508007A6008B54FF6FF710120FFF7F2FE08BD0000CA
S31508007A7000B585B012F07CFB0123ADF8003001900B
S31508007A80037D3BB1074B03936846FEF719FE05B025
S31508007A905DF804FB437D13B1034B0393F4E7034BF3
S31508007AA00393F1E7497D00086D7D0008057C000811
S31508007AB0012800D070474FF6FF739942FAD110B5E6
S31508007AC082B0074C00230093064A0121204628F07D
S31508007AD0FBF9054A05492046CDF03FFB02B010BD2B
S31508007AE028700020517C000800000020EDFE0208E6
S31508007AF030B585B00446164B009303460022012193
S31508007B00144812F06FF9144B1860C8B1134D284683
S31508007B1076F0AEFF27F08EFE0DF10F02012127F059
S31508007B209FFE284676F0B5FF9DF80F3073B1032304
S31508007B30A3700020207520732061607505B030BDE4
S31508007B40074876F0CDFC40F20470F7E70123EFE72B
S31508007B50717A0008C07E0D08507000206050012020
S31508007B60CC7E0D084160826070478078032814BF78
S31508007B70002001207047000000B583B00022009263
S31508007B80134603210748006812F048F910B103B0FC
S31508007B905DF804FB044876F0A3FC40F20670FEF795
S31508007BA057FEF4E750700020EC7E0D0830B583B020
S31508007BB005460C46104B186812F0BEFA60B96423E5
S31508007BC000930023224604210B48006812F026F988
S31508007BD0012808D103B030BD084876F081FC284654
S31508007BE0FFF7CAFFEBE7064876F07AFC40F2057025
S31508007BF0FEF72EFEEEE700BF50700020E8770D086E
S31508007C00087F0D0838B54468A378C3B90120A07069
S31508007C100546A3680BB128469847237B8BB185B9DF
S31508007C2023694FF47A7103FB01F12046FFF7BEFF83
S31508007C30012323752169054876F052FC01E0022BE1
S31508007C4000D038BD0323A3700025E2E72C7F0D087A
S31508007C5008B5037A427AF3B92AB1012A0BD0022A67
S31508007C6011D000211AE0164A02211D2045F0B6FC63
S31508007C704FF4487112E0134A02211D2045F0AEFC6C
S31508007C804FF448710AE0104A02211D2045F0A6FC6F
S31508007C904FF4485102E0012B06D000210B4801237E
S31508007CA04375FFF783FF08BD0AB10021F6E7084AC6
S31508007CB002211D2045F092FC40F2DC51EEE700BFA0
S31508007CC0647F0D08B07F0D08E87F0D083870002026
S31508007CD05C800D08F8B504460E4615468378012BD8
S31508007CE001D0427D02B15DB1032B01D00020F8BD61
S31508007CF0012D01D00020FAE7637D03BB002700E0D1
S31508007D000227237D03B177B1637D03B18FB90A21B9
S31508007D102046FFF74BFFA770636893B131462846A4
S31508007D2098470120E3E7002323752046FFF724FF41
S31508007D30EAE72046FFF720FF00236375E7E7002000
S31508007D40D5E70120D3E7000010B54468237D03B9C1
S31508007D5010BD00232375044876F0C2FB01221146A4
S31508007D602046FFF7B7FFF3E7C8800D0810B544684B
S31508007D70637D03B910BD00236375044876F0B0FB34
S31508007D80012211462046FFF7A5FFF3E7EC800D0810
S31508007D9008B54FF6FF710120FFF78AFE08BD0000FF
S31508007DA02DE9F04184B00E4690461D464468876822
S31508007DB0A3B20093230C2B4A02211D2045F00EFC8A
S31508007DC0062C0BD0082C14D0B4F5407F1FD0072CF6
S31508007DD02BD0032C37D004B0BDE8F081002FF1D1A9
S31508007DE02A78B2FA82F2520902211F48FFF772FF77
S31508007DF0F1E72B78CDF80C8002930196BBB200937D
S31508007E003B0C1A4A02211D2045F0E8FBE3E72B78D4
S31508007E10CDF80C8002930196BBB200933B0C144A32
S31508007E2002211D2045F0DAFBD5E72B78CDF80C802A
S31508007E3002930196BBB200933B0C0E4A02211D2009
S31508007E4045F0CCFBC7E72B78CDF80C80029301965A
S31508007E50BBB200933B0C084A02211D2045F0BEFB2D
S31508007E60B9E700BF00810D083870002020810D0891
S31508007E7068810D08B0810D0804820D08704700005E
S31508007E80024A0260024A0260704700BFB8070E083D
S31508007E90B0820D08012800D0704708B54FF6FF7369
S31508007EA0994200D008BD034A03490448CDF055F964
S31508007EB0F8E700BF00000020817E0008600000206F
S31508007EC010B50446044B0360044B03600821CDF04B
S31508007ED049F9204610BD00BFB8070E08B0820D0844
S31508007EE010B5FEF7D6FE1B48FFF7C2FA50BB1A4C70
S31508007EF01A4BD3F88411204647F0A8FC204647F0D1
S31508007F00B1FC174C204676F0B3FD8CF04DF883F0A3
S31508007F1069FD204676F0BDFD124876F0E1FA124872
S31508007F20FFF796FD90B9114876F0DAFA05F054FA9B
S31508007F3045F0F2F90E4876F0D3FAAC20FEF788FC45
S31508007F40002010BDAC20FEF783FCD0E7AC20FEF77E
S31508007F507FFCE8E748820D086000002038FB012016
S31508007F606050012058820D08207000206C820D0890
S31508007F7088820D0870B50446044D2B689E6801F08A
S31508007F800CFC024621462846B04770BD20700020EA
S31508007F9008B54FF6FF710120FFF77CFF08BD38B121
S31508007FA041B10160028100228280C28001207047AF
S31508007FB00020704700207047C28892B283889BB21F
S31508007FC09A4216D0C28892B283889BB29A4209D244
S31508007FD00389828892B29B1AC08880B210FA83F00D
S31508007FE080B27047C3889BB2808880B2181A80B264
S31508007FF070470020704710B50489FFF7DDFF201A87
S3150800800080B210BDF8B548B30F461546044659B3B5
S31508008010038993422ED3FFF7EEFFA8421DD3268984
S31508008020E3889BB2F61AB6B2B54229D92368E08826
S315080080303246394613FA80F0CEF0A9F9AA1BB919C7
S315080080402068CEF0A4F9E28815FA82F5228995FB14
S31508008050F2F302FB1355ADB2E580F8BD0D4B0E4A9F
S3150800806096210E48CDF080FF0D4B0B4A97210B4801
S31508008070CDF07AFF0B4B084A98210848CDF074FFDB
S315080080802368E0882A46394613FA80F0CEF07FF94D
S31508008090D9E700BFD8820D08E0820D0810830D08C5
S315080080A07C830D088C830D0870B516461D46DCB218
S315080080B00E4B1A78A41AE4B20D48FFF79CFFA2B239
S315080080C0904209D20B4B2A4631460B48006812F0FB
S315080080D063FD7AF0B3FC70BD044C21883144044832
S315080080E0FFF790FF00232380ECE700BF60720020B3
S315080080F054700020A980000878010020F8B550B314
S315080081000F461546044661B3038993422FD3FFF7FA
S3150800811053FFA84231D92689A3889BB2F61AB6B26C
S31508008120B5422FD92368A188324613FA81F1384619
S31508008130CEF02DF9AA1B2168B819CEF028F9A38824
S3150800814015FA83F3228993FBF2F102FB11339BB2F2
S31508008150A380E8B2F8BD104B104AB5211048CDF0FF
S3150800816003FF104B0D4AB6210D48CDF0FDFE0E4B10
S315080081700A4AB7210A48CDF0F7FE2046FFF71CFF4A
S315080081800546C8E72368A1882A4613FA81F13846C6
S31508008190CEF0FDF8D3E700BFD8820D08AC830D08F2
S315080081A010830D08E4830D08EC830D0838B500F03C
S315080081B09DFE4FF4807212491248FFF7F0FE124DE9
S315080081C0124C2B4680221249206812F0E5FC2B46F9
S315080081D080221049206812F0DFFC0F4B4FF4006232
S315080081E0C3F880211A600D4800F500520423D364B1
S315080081F000F580521365052112F050FD38BD00BF09
S315080082006071002054700020A980000878010020C1
S3150800821060700020E070002000E100E00000015BD3
S3150800822008B57AF00BFC024B0422DA6408BD00BFDD
S315080082300020015B58B110B50C46014654B12246E0
S31508008240074B186812F048FC38B920B210BD4FF039
S31508008250FF3070474FF0FF30F8E74FF0FF30F5E793
S3150800826078010020002830D070B584B00C46054649
S3150800827000292DD01848FFF79FFEA04207D32246B3
S3150800828029461548FFF73AFF00B204B070BD03F05F
S31508008290D2FB064601AB02AA03A91048006812F0F1
S315080082A0EAFB0F4B1B88029A934203D3304603F02E
S315080082B0C8FBE4E7D21A92B2039919440648FFF7B5
S315080082C0A1FE074B029A1A80F0E74FF0FF3070477D
S315080082D04FF0FF30D9E700BF547000207801002026
S315080082E06072002070B504460A694B6952EA0300B9
S315080082F01ED08868C96810EB000C41EB010E1CEB18
S31508008300000C41EB0E0E4FEA4E1545EADC654FEAC6
S315080083104C161CEB060C4EEB050E1CEB000041EB55
S315080083200E01CDF089FC012323706070204670BDD4
S31508008330002323706370F9E7D0E9020170472D2006
S3150800834070472D20704701207047012070470000B4
S31508008350024A0260024A0260704700BFC8320E082D
S3150800836000850D0870474FF48060704700238360CE
S315080083707047002343607047044A02602032426017
S31508008380034A4260034A0260704700BF30860D0800
S315080083901C850D08D4840D080346064A40F8042CAB
S315080083A0203240F80429044A4260044A43F8042C5F
S315080083B0704700BF30860D081C850D08D4840D084B
S315080083C0024A0260024A0260704700BF44F70D087D
S315080083D0E8850D08024A0260024A0260704700BF3B
S315080083E0A4F60D083C850D0810B50446064B036037
S315080083F020334360054B4360054B03601021CCF0E6
S31508008400B1FE204610BD00BF30860D081C850D083C
S31508008410D4840D0810B50446084B40F8043C2033B4
S3150800842044F80439064B6360064B40F8043C1021B7
S315080084302046CCF097FE204610BD00BF30860D08BA
S315080084401C850D08D4840D0810B50446054B036039
S31508008450006B18B174F00AFA00232363024B2360F9
S31508008460204610BDF4670E0878840D0810B504463A
S31508008470054B0360406B08B147F030FC002363638B
S31508008480024B2360204610BD48EC0D08AC840D084D
S3150800849010B50446174B03606433436000F51C703F
S315080084A048F00CFC14F5EC7205D004F5147300E0E2
S315080084B0183B9A42FCD1104BE3672033C4F880304E
S315080084C00E4BC4F880300E4BE36704F13800A36DF9
S315080084D013B10022A265984704F10800A36A13B1F4
S315080084E00022A2629847074B6360074B2360204629
S315080084F010BD00BF88F30D0830860D081C850D08D1
S31508008500D4840D08E8840D088C850D0838B5054611
S315080085100446194B40F8043C643344F8043900F522
S315080085201B7048F0CBFB15F5EA7205D004F51473F9
S3150800853000E0183B9A42FCD1104BE3672033C4F89D
S3150800854080300F4BC4F880300E4BE36704F13800D7
S31508008550A36D13B10022A265984704F10800A36A27
S3150800856013B10022A2629847074B6360074B45F890
S31508008570043C204638BD00BF88F30D0830860D0838
S315080085801C850D08D4840D08E8840D088C850D0813
S315080085900E4BD3E88F3F13F0010F01D00C487047FC
S315080085A010B50A48CCF0E0FD08B9094810BD084CDA
S315080085B0084B2360084B23600448CCF0E1FD074ACA
S315080085C007492046CCF0C9FDEFE700BF64720020DA
S315080085D06872002000850D08C8320E0800000020C9
S315080085E05183000810B50446054A01210C2044F0C1
S315080085F0F5FFE06810B103689B68984710BD00BF97
S3150800860008840D0810B50446054A01210C2044F0DB
S31508008610E5FFA06810B103689B68984710BD00BFC6
S3150800862008840D0830B583B0C068D8B10D46144625
S315080086301A68019200221A6001AA21462AF098FDBA
S31508008640019808B147F04AFB002301930C4B1B68BD
S315080086500093A3886BB12B8943F040032B8100203C
S3150800866003B030BD074A01210C2044F0B7FF0020B3
S31508008670F6E7E388002BEED12378402BEBD1EEE723
S3150800868068860D081C840D0830B583B08068D8B19B
S315080086900D4614461A68009200221A606A46214658
S315080086A02AF066FD009808B147F018FB00230093EE
S315080086B00C4B1B680193A3886BB12B8943F04003CD
S315080086C02B81002003B030BD074A01210C2044F05D
S315080086D085FF0020F6E7E388002BEED12378402BB0
S315080086E0EBD1EEE768860D081C840D08F0B587B057
S315080086F006460C46224A0321152044F06FFFB5684A
S31508008700002D2DD00023ADF810301E4B1B680393A7
S3150800871023893BB31C4A1268039253B30123ADF86D
S315080087201030277B606847F02FFA6368059304AB1F
S31508008730009305AB3A46A168284645F0DFFA044699
S31508008740059808B147F0CAFA002305932CB1B0681A
S3150800875018B145F00BF90023B360204607B0F0BD09
S315080087600320FBE76289022AD4D1227B142AD1D1BD
S31508008770D7E76389002BD1D1237B402BCED1D0E715
S3150800878050840D086C860D0868860D08012800D0EF
S3150800879070474FF6FF739942FAD170B58AB04C4BC1
S315080087A04C4A1A604C4A5A604C4A1A6064325A60FB
S315080087B003F10802DA609A6000229A62DB6248498D
S315080087C01963CDF804D0CDF800D0089203F138012A
S315080087D0D96399639A65DB65424919669A66DA66CA
S315080087E01A6783F874209A673F49D9673F49C3F8DF
S315080087F080103F49D9672031C3F8801083F8AC2030
S31508008800C3F8B820C3F8BC20C3F8C020C3F8C420F6
S31508008810C3F8C821C3F8CC2183F8D021C3F8D421E2
S31508008820042203F5EC7303E0002103F8181B013A50
S31508008830002AF9DA26480024C0F850420523C0F871
S31508008840543280F85842C0F87442C0F87842294B2E
S31508008850C0F8703280F87C42274E32462749CCF061
S315080088607CFC324626492748CCF077FC3246264916
S315080088702648CCF072FC264D264B2B606C602C7279
S315080088802846254B40F8103B91F002FAC5F8D0402F
S31508008890C5F8D440C5F8D840C5F8DC4032461F496B
S315080088A02846CCF05AFC1E481E4B036000220023C3
S315080088B0C0E90223C0E904231B4B03608461C46139
S315080088C00463446332461949CCF047FC0AB070BDCC
S315080088D0887300208C850D08E8840D0888F30D0838
S315080088E079570308F1410308D4840D081C850D083F
S315080088F030860D082C3F0E080000002091840008E1
S31508008900C183000868000020D58300087000002095
S3150800891070720020AC840D0848EC0D086D840008C0
S315080089205073002078840D08F4670E0849840008FF
S3150800893010B50446044B0360044B03600421CCF0D5
S3150800894011FC204610BD00BFC8320E0800850D0870
S31508008950F0B583B00F4F38462BF092FA0E4901F561
S315080089604053D3F884310D4A53600D4E0D4D009592
S31508008970334638462BF090FF0B4B33610B4C22469F
S31508008980394630462DF0B8FA094B636325626C60A8
S3150800899003B0F0BD8873002038CB012068000020A2
S315080089A07000002070720020805101005073002072
S315080089B064840D0810B50446194B0360643343609C
S315080089C000F51C7048F07AF914F5EC7205D004F538
S315080089D0147300E0183B9A42FCD1124BE36720332C
S315080089E0C4F88030104BC4F88030104BE36704F1AC
S315080089F03800A36D13B10022A265984704F1080058
S31508008A00A36A13B10022A2629847094B6360094B17
S31508008A1023604FF422712046CCF0A4FB204610BDFB
S31508008A2088F30D0830860D081C850D08D4840D08BA
S31508008A30E8840D088C850D0838B5054604461B4B99
S31508008A4040F8043C643344F8043900F51B7048F0D8
S31508008A5035F915F5EA7205D004F5147300E0183BEC
S31508008A609A42FCD1124BE3672033C4F88030114B8D
S31508008A70C4F88030104BE36704F13800A36D13B1D6
S31508008A800022A265984704F10800A36A13B10022E0
S31508008A90A2629847094B6360094B45F8043C4FF4BA
S31508008AA022712046CCF05EFB204638BD88F30D08BF
S31508008AB030860D081C850D08D4840D08E8840D0839
S31508008AC08C850D0810B50446044B0360044B0360FF
S31508008AD00821CCF047FB204610BD00BF44F70D081F
S31508008AE0E8850D0810B50446044B0360044B036083
S31508008AF01C21CCF037FB204610BD00BFA4F60D089C
S31508008B003C850D0810B50446074B0360406B08B159
S31508008B1047F0E4F800236363044B2360E021204612
S31508008B20CCF020FB204610BD48EC0D08AC840D089F
S31508008B3010B50446074B0360006B18B173F096FE38
S31508008B4000232363044B236038212046CCF00AFB1C
S31508008B50204610BDF4670E0878840D0808B54FF650
S31508008B60FF710120FFF712FE08BD000000B583B0B3
S31508008B70084803681988803901EBD171064B0193BF
S31508008B802D23009380230022491012F0F3FF03B02F
S31508008B905DF804FB10760020BC8A0D0830B58446C3
S31508008BA00D4C00F1200E2546DCF80000DCF8041018
S31508008BB0DCF80820DCF80C300FC50CF1100C2C463C
S31508008BC0F445F0D12B46DCF80000DCF80410DCF89C
S31508008BD0082007C330BD00BF1076002010B584B04A
S31508008BE00446FFF7C3FF2046CEF07AF8142803D9C7
S31508008BF012F092FE04B010BD0123029300220192E6
S31508008C00009205222146024813F0EDF8F0E700BF6E
S31508008C101076002000B583B00B4B1B6819884039C5
S31508008C2001EBD17149105A88453A58B1074B01935F
S31508008C3040230093044812F09DFF12F06DFE03B026
S31508008C405DF804FB024BF2E71076002070880D08E9
S31508008C5070860D0810B582B00446B8B908210F4BC6
S31508008C601B685A88453A02EBD27302EB63027CB959
S31508008C7010237CB912207CB9094C0194009007484E
S31508008C8012F078FF12F048FE02B010BD6821E6E740
S31508008C901223EEE71120EEE7024CEEE710760020ED
S31508008CA0988A0D08708A0D0810B50446084812F00F
S31508008CB001FF2046FFF792FF0020FFF7ABFF0021D8
S31508008CC00846FFF7C7FF00210120FFF7C3FF10BDC5
S31508008CD010760020F8B504461746002579B10E46E9
S31508008CE00846CDF0FDFF142804D9204875F0F8FB96
S31508008CF02F2026E0314604F1B000CDF0E9FF00F060
S31508008D0007F90146F0B9002012F0D8FD0146F0B97E
S31508008D1004F18406304612F099FE0146E0B96FF078
S31508008D207F43C4F888300023C4F88C30304612F0EC
S31508008D30C1FE0146A8B93046FFF730FF84F8C57072
S31508008D402846F8BD0A4875F0CBFBAC25DBE7094891
S31508008D5075F0C6FBAC25DBE7074875F0C1FBAC250B
S31508008D60DDE7064875F0BCFBAC25E4E78C8D0D08FD
S31508008D70A08D0D08C08D0D08D48D0D08F08D0D0839
S31508008D8008B5843012F096FE08BD10B50446FFF704
S31508008D90F7FF04F1B000FFF787FF94F8C500FFF767
S31508008DA039FF10BD08B590F8813013B1002380F85B
S31508008DB0813080F8C510FFF7E8FF08BD802A00D982
S31508008DC0704708B5CDF0E3FA08BD2DE9F0478146AE
S31508008DD0884617461E469DF820A000250AE07A19FF
S31508008DE008EB040109F1840012F08BFE0134A64257
S31508008DF0F5DC0135AA4501DD0024F8E7BDE8F08772
S31508008E002DE9F04184B08046012303934FF0FF33E8
S31508008E10029304230193009300231E4A1E49A9F0D6
S31508008E20A5F880B11B48A8F0F9F9064608F18400B0
S31508008E3012F040FE06EB4607C7F1800707EBD77727
S31508008E407F1000251DE0154875F04AFB1FE0013428
S31508008E50B44215DA2A4621460E48A8F00DFF002826
S31508008E60F5D0F9B205EB45020A4404EB440319446C
S31508008E7003230093D2B2C9B24046FFF7A6FFE6E73E
S31508008E800135B54201DA0024E2E712F045FD04B0E7
S31508008E90BDE8F081C87600203C760020088E0D08D3
S31508008EA038B504460D4690F881308B4206D045B158
S31508008EB02046FFF7A5FF84F8815038BD002AFCD06C
S31508008EC0F5E72046FFF761FFF5E710B5044690F889
S31508008ED0813043B1FFF759FF94F8813083F00103DD
S31508008EE084F8813010BDFFF78BFFF5E708B501233D
S31508008EF004220021184602F0E3FF002008BD08B549
S31508008F00002304221946012002F0DAFF002008BDDA
S31508008F1008B5012304220921022002F0D1FF00200E
S31508008F2008BD08B501213A2001F0E0FB11F04AF925
S31508008F3012F0C0F908BD08B501213A2001F0D6FBA8
S31508008F4008BD0000BFF34F8F0549CA6802F4E06206
S31508008F50044B1343CB60BFF34F8F00BFFDE700BF41
S31508008F6000ED00E00400FA050D4B1B68B3F1FF3F66
S31508008F7006D04FF4801202FA03F30A4A13667047C2
S31508008F80094B1B785BB9094B4FF400725A6603F517
S31508008F90A6235B681BB9034B4FF480121A66704709
S31508008FA0DC000020009000447977002000900050F3
S31508008FB0084B1B68B3F1FF3F0AD1074B1B783BB937
S31508008FC0064B5B6813F0010F02D0024B00221A60B1
S31508008FD0704700BFDC0000207977002000C00550EC
S31508008FE04FF000639B6A03F17842B2F5C04F07D28F
S31508008FF01A680B4B9A4207D00023037083607047A8
S315080090000023037083607047012303704FF00063E9
S315080090109A6A926842609B6A9B698360704700BF40
S3150800902007B0CD5E08B54FF0005340F202221A8011
S315080090304FF20F025A80FFF785FF4FF000639B6AD5
S3150800904003F17843B3F5C04F19D230B585B005465C
S315080090500C4601238DF8043000230293039301A8DC
S31508009060FFF7BEFF039B13F4806F06D04FF0006333
S315080090709B6A1B6C21462846984705B030BD704749
S31508009080494B1B78002B66D110B582B004460023E5
S315080090900193009300285CD0434B01221A7002F01A
S315080090A0CAFC424B1860C7F037FA414B1B78002BB5
S315080090B055D0404B5A6E22619A6E626103F5805212
S315080090C04FF4804393663C4B5968A1613B499960CC
S315080090D0196E2160596E6160196CA160596CE16066
S315080090E03749086C1864496C5964012151661B6E2E
S315080090F013F4005F44D0334BDB6813F0010FFAD149
S31508009100FFF732FF304B04221A664FF400721A66D4
S3150800911000F064FAB0F1FF3F38D12B4C08232366E0
S315080091204FF4805323664FF0006323664FF4002301
S315080091306366694601A8FFF780FF019B2366009BCB
S3150800914063661B4B1B7823B1204A11682166526857
S31508009150626602B010BD144B02221A70704700F006
S31508009160B7FE0028A5D10823184A194919480068E6
S31508009170CBF042FB00289CD10D4B01221A7098E7D0
S31508009180154BDB6813F0010FFAD1B9E700F026FAA0
S3150800919040F201139842C0D00B4B4FF400521A66A6
S315080091A04FF480421A66B8E77A7700207C77002069
S315080091B078770020008000500080004455CEAC002F
S315080091C000C000540000044000900044707700205E
S315080091D000710800E0000020000004501F4B1B78B7
S315080091E0012B03D01D4B01221A70704710B5044697
S315080091F020B300F0F3F9B0F1FF3F20D12268184BF5
S315080092001A6662685A66A2681A64E2685A64A369AA
S3150800921013F0010F02D0124B00229A60FFF7C8FE26
S315080092202269104B5A6662699A66C7F091F90E4B25
S31508009230186802F006FC094B00221A7010BD00F0EF
S31508009240CDF940F201139842D8D0084B01225A664C
S31508009250074BDB6813F0010FFAD1CFE77A770020C6
S3150800926000800044008000507C7700200090004079
S315080092700000044038B54FF000639B6A03F1784359
S31508009280B3F5C04F26D2154B1B781BB1022B01D064
S31508009290002421E0124D2846FFF7F2FE114901206D
S315080092A0C1F88001104B03F500544FF48032E26098
S315080092B0086003F580531A614FF000639B6ADB6907
S315080092C0984704462846FFF789FF2CB9034B012225
S315080092D01A7001E04FF48174204638BD7977002072
S315080092E05477002000E100E0008000442C4B1B78F6
S315080092F003B9FEE700B583B0002300930193082362
S315080093006A46284928480068CBF076FA48BB274BB6
S31508009310D3F840311F2B1AD9244BD3F84021203AD1
S31508009320012303FA02F2019B1343019308236A46B9
S315080093301C491D480068CBF015FA4FF0005340F25F
S315080093400B221A804FF20F025A80FFF7FBFD174BCC
S31508009350D3F84021012303FA02F2009B134300933A
S31508009360E4E7134A9042E8D1104BD3F840311F2B5B
S315080093700ED90E4BD3F84021203A0123934001938E
S3150800938008236A46074908480068CBF0EBF9D4E792
S31508009390064BD3F84021012393400093F0E700BF22
S315080093A07A77002000710800E00000200080004461
S315080093B00BE000F038B54FF000639B6A03F1784282
S315080093C0B2F5C04F14D204461B6B03F17843B3F5CC
S315080093D0C04F0DD2074D2846FFF752FE4FF00063E7
S315080093E09B6A1B6B5B68204698472846FFF7F6FE84
S315080093F038BD00BF8077002008B54FF000639B6A30
S3150800940003F17842B2F5C04F08D21B6B03F17842DC
S31508009410B2F5C04F05D29B68984701E04FF48170BA
S3150800942008BD4FF48170FBE730B583B001904FF06B
S3150800943000639B6A03F17842B2F5C04F16D21B6BE4
S3150800944003F17843B3F5C04F15D20C4D2846FFF704
S3150800945017FE4FF000639B6A1B6B9B69012101A8ED
S31508009460984704462846FFF7B9FE01E04FF4817491
S31508009470204603B030BD4FF48174F9E780770020A9
S315080094802DE9F0414FF000639B6A03F17844B4F587
S31508009490C04F17D207460E4615461B6BBBB1DFF801
S315080094A034804046FFF7ECFD4FF000639B6A1B6B68
S315080094B05B6A2A4631463846984704464046FFF7CF
S315080094C08DFE01E04FF401742046BDE8F0814FF4AB
S315080094D00174F9E78077002070B54FF000639B6A46
S315080094E003F17842B2F5C04F18D205460C461B6BFD
S315080094F003F17843B3F5C04F14D20C4E3046FFF74C
S31508009500BFFD4FF000639B6A1B6B9B6A214628468A
S31508009510984704463046FFF761FE01E04FF40174B0
S31508009520204670BD4FF40174FAE700BF807700202B
S3150800953030B5ADF50F7D4FF000639B6A03F17843B4
S31508009540B3F5C04F15D20C464FF40E726946FFF7B5
S3150800955097FF054678B921466846FFF7BDFF40F2F2
S3150800956001239842F7D040F20323984203D00546D8
S3150800957001E04FF4017528460DF50F7D30BD00005A
S31508009580F8B50D464FF000639B6A03F17841B1F5D3
S31508009590C04F19D2044616461B6B03F17843B3F540
S315080095A0C04F15D20C4F3846FFF76AFD4FF00063DF
S315080095B09B6A1B6B9B6B3246294620469847044696
S315080095C03846FFF70BFE01E040F201142046F8BDCD
S315080095D040F20114FAE700BF807700204FF00063DD
S315080095E09B6A03F17842B2F5C04F29D21B6B03F18F
S315080095F07843B3F5C04F26D200B585B001238DF860
S31508009600043000230293039301A8FFF7E9FC039BA8
S3150800961013F4803F1AD0029BC3F307421B0E18D0DF
S31508009620012B08D04FF000639B6A1B6B1B6C984795
S3150800963005B05DF804FB0A2AF4D840F20110F7E7F2
S3150800964040F20110704740F20110704740F20110D5
S31508009650EEE740F20110EBE770B54FF000639B6A46
S3150800966003F17842B2F5C04F18D205460C461B6B7B
S3150800967003F17843B3F5C04F14D20C4E3046FFF7CA
S31508009680FFFC4FF000639B6A1B6BDB6B2146284689
S31508009690984704463046FFF7A1FD01E040F2011461
S315080096A0204670BD40F20114FAE700BF807700201B
S315080096B02DE9F04190B017461D464FF000639B6AAE
S315080096C003F17842B2F5C04F4ED206460C461B6BE4
S315080096D003F17843B3F5C04F4BD201A8FFF76AFEF2
S315080096E0059BD3F80C801FFA88F3002B44D00EA9EB
S315080096F03046FFF781FEC8BB0E9E63190F9A934248
S315080097003DD81FFA88F8B4FBF8F208FB1242F2B10A
S31508009710C8F1000C0CEA04004044B3FBF8F108FB5E
S31508009720113179B103EA0C018844A8EB00013044F1
S3150800973011B1FFF791FFC8B92A4639463019FFF724
S315080097401FFF13E0A2EB080808EB0501EFE7301945
S31508009750B5FBF8F308FB135323B1C8F10001294000
S315080097604144E5E72946E3E74FF4817010B0BDE8C8
S31508009770F0814FF48170F9E740F20140F6E740F2D4
S315080097800240F3E703680B600160704708B5436859
S315080097900BB1984708BD2220FCE708B543690BB111
S315080097A0984708BDFF20FCE70A681378022B00D10A
S315080097B0704710B508461379517903EB43031B012B
S315080097C01433064C1B59CB4013F0010F0CBF012371
S315080097D000231370FEF7CEFB10BD00BF30C0035048
S315080097E030B583B00546046801213A2000F07EFFB3
S315080097F0002301226179207902F062FB23796279DC
S3150800980003EB43031B0114330F495B58D34013F092
S31508009810010F0CBF012300232370A379022B02D06A
S31508009820002003B030BD00F0D5FA2A460749607912
S3150800983000F0F8FA02466179207901230193009332
S3150800984002F0AAFAECE700BF30C00350A997000857
S31508009850036818787047000002681378022B12D044
S315080098601379517903EB43031B01143312481B5830
S31508009870CB4003F0010003469179012904D011B9C0
S3150800988080F00100107070475188490089B20B4377
S3150800989043F47F4343F0C0034FF6E0718B4205D093
S315080098A04FF6DF718B4204D0538070470121117047
S315080098B0F6E700211170F7E730C0035008B50368D2
S315080098C01A78022A00D008BD00225A80FFF788FFBE
S315080098D0F9E710B582B004682378022B04D0A3797F
S315080098E0022B03D00223237002B010BD0021607939
S315080098F000F088FA617920790023019300930A46DB
S3150800990002F04AFAEEE708B543680068984708BDCA
S3150800991008B583680068984708BD08B5C368006835
S31508009920984708BD08B503690068984708BD08B593
S3150800993043690068984708BD10B5044601213A20D6
S3150800994000F0D4FEA378B3FA83F35B0904226178A6
S31508009950207802F0B5FA002010BD000083784BB9D4
S31508009960037842780121914003EB43031B01064A21
S31508009970D1507047037842780121914003EB4303A5
S315080099801B01024AD150704740E0035040D00350B3
S3150800999083784BB9037842780121914003EB43035E
S315080099A01B01064AD150704703784278012191403D
S315080099B003EB43031B01024AD150704740D00350C2
S315080099C040E00350037842780121914003EB4303BA
S315080099D01B01014AD150704740F0035002460378F4
S315080099E0407803EB43031B01103305495B58C3401A
S315080099F003F0010093780BB980F00100704700BFAF
S31508009A0030C00350F0B585B00C4694469DF8341026
S31508009A10664A1278002A00F0BD800546BCF1070F99
S31508009A2000F2BA800A9A002A00F0B8800B9A002A37
S31508009A3000F0B6800E9AB2F5006F00F3B3800128E5
S31508009A405BD05B4A02EB0C12127B002A00F0AC805A
S31508009A5000220092019202920392564A02EB4C1E91
S31508009A60002C4FD14FEA4C1600209051CEF8040036
S31508009A70CEF80800CEF80C009EF8020040F0100060
S31508009A808EF802009EF8030040F030008EF80300BE
S31508009A9021B9C1B241F003018EF8031000930E9B61
S31508009AA0013B444A4FEA4C1002EB4C11165A63F339
S31508009AB00E1616520A9B8B600B9B4B60CB789DF853
S31508009AC03C2062F38303CB70012D36D0109B002B0C
S31508009AD056D0374A4FEA0C1102EB0C131098505027
S31508009AE0119A5A6000249C605D7372466946604606
S31508009AF002F084FA204605B0F0BD0C9A002AA0D1DF
S31508009B002D48F8E72B4F4FEA4C1607EB4C1200206E
S31508009B10B85150609060D060907840F01000907016
S31508009B20D07840F00300D0700029B7D107EB4C126B
S31508009B30C1B241F03001D170B0E70E460A7B42F05F
S31508009B4001020A73D2B242F002020A73CA680421F9
S31508009B5061F39F02F26006F1100796E80F0087E8A6
S31508009B600F00F2696FF0030161F39F02F2610C9B2B
S31508009B707361012CAAD10B9AB2610C9A7260A5E79F
S31508009B80002DA6D10B4B03EB4C139A786FF30412F6
S31508009B909A709EE70948AEE70748ACE70648AAE781
S31508009BA00548A8E70448A6E70548A4E71C79002065
S31508009BB09C7700201C780020018000F0028000F0CD
S31508009BC0078000F0134B1B78FBB110B50446F0B1C3
S31508009BD001F031FF0023072B13DC0F4A02EB0312B7
S31508009BE0127B0AB10133F6E723600B4A190102EB2F
S31508009BF0031301241C730024545001F022FF20464D
S31508009C0002E001F01EFF054810BD054870470548EB
S31508009C10FAE700BF1C7900209C770020048000F03A
S31508009C20028000F0018000F000B583B0144B1B6879
S31508009C30019300238DF8043001F0FDFE114B1B78CB
S31508009C4033B9104B01221A7001F0FBFE002309E01C
S31508009C5001F0F7FE0C480FE00C4A02EB0312002154
S31508009C6011730133072BF7DD04238DF807300DEB4D
S31508009C70030002F091F9002003B05DF804FB00BF71
S31508009C80288E0D081C790020038000F09C770020A0
S31508009C9000B589B084460E9807900D9806909DF8F1
S31508009CA0300005900B9804909DF82800039000203A
S31508009CB00290019300920B4662460121FFF7A2FE2D
S31508009CC009B05DF804FB00000C4B1B7873B110B5A6
S31508009CD00C4607280CD869B1094B03EB00131B7B0C
S31508009CE053B102F0D5F92060002010BD0548704731
S31508009CF00548FAE70448F8E70448F6E71C7900201F
S31508009D009C770020028000F0018000F0078000F0B8
S31508009D10F8B5194B1F6D5B6D1F4002D40125002451
S31508009D2002E0FEE701346D00072C24D83D42F9D045
S31508009D30124B1D652301124AD358002BF2D002EBB1
S31508009D400416B1680131B16072682046984780F000
S31508009D500100C0B2737B012BE4D10028E2D0094B85
S31508009D6003EB44131A7B6FF341021A731A7F6FF3DE
S31508009D7041021A77D6E7F8BD0000045000200450C7
S31508009D809C7700201C78002010B5044602E02020AD
S31508009D9007E09047DCB194FAA4F00028F7D0B0FAAF
S31508009DA080F00123834024EA0304094B03EB0013E4
S31508009DB05A68002AEED0064B03EB00131B7B002BD8
S31508009DC0E7D0034B03EB001399689047E2E710BD11
S31508009DD02079002008B5192001F036FE28B1084B75
S31508009DE04FF00072C3F880211A601A2001F02CFE89
S31508009DF028B1034B4FF08062C3F880211A6008BD72
S31508009E0000E100E038B505460C4601F014FE044BA7
S31508009E1003EB05135C6000221A7301F012FE38BDCD
S31508009E2020790020F8B505460F46164601F003FED0
S31508009E3005F0FC0C104BD3F824140023032B0CD884
S31508009E40EC1804F0030444EA0C0421FA04F212F0B4
S31508009E50010F03D00133DBB2F0E7FF24FF2C06D055
S31508009E60064B03EB04135F609E6001221A7301F030
S31508009E70E8FD2046F8BD00BF00C003502079002049
S31508009E8008B5084BD3F82404D3F82024104000F072
S31508009E90553020F0502003F50053C3F82004FFF78F
S31508009EA073FF08BD00C0035008B5084BD3F8240457
S31508009EB0D3F82024104000F0AA3020F0A02003F5A3
S31508009EC00053C3F82004FFF75FFF08BD00C0035026
S31508009ED008B5034B1968034B1868CAF073FB08BD2D
S31508009EE0E4000020E0000020B0F1FF3F01D010B9E7
S31508009EF07047024870470248704700BF21E000F0EB
S31508009F0024E000F08908002301E0043001338B4285
S31508009F1005D20268B2F1FF3FF7D000207047012052
S31508009F207047704738B50446CDF0CAFBFFF7DCFF2B
S31508009F30054650B9074B9B680A3303F01F030121F6
S31508009F4099402046FFF7DEFF08B1284638BD024D86
S31508009F50FBE700BF0080E00F0EE000F0F8B505460D
S31508009F600E4694002246CDF0B3FBFFF7BDFF074629
S31508009F7028B9224631462846CCF0F9F908B93846B8
S31508009F80F8BD014FFBE700BF10E000F008B5034637
S31508009F90084613F0030F02D111F0030F0AD09200FE
S31508009FA01946CCF0F4F9002008BD53F8041B40F814
S31508009FB0041B013A002AF8D1F5E7000010B582B073
S31508009FC0044601A802F0A4F99DF806302380012270
S31508009FD0E2700020A070054B9B680A3303F01F034C
S31508009FE002FA03F3636002B010BD00BF0080E00F01
S31508009FF008B502F07BF808BD08B502F067F800203E
S3150800A00008BD000008B501F00FFD014B186008BD3A
S3150800A010907E002008B5024B186801F009FD08BDBE
S3150800A020907E002070470000024B4FF480321A677A
S3150800A030704700BF00900050324B984252D029D842
S3150800A040314B984248D009D9304B984247D0304BCB
S3150800A05098421DD12F4BD3F8800070472E4B98425B
S3150800A06037D005D92D4B984210D12A4B186F704717
S3150800A0702B4B984202D02B4B984202D1254B986D18
S3150800A0807047294B9842F9D0002070470020704746
S3150800A09000207047254B98422CD00CD9244B984267
S3150800A0A02CD003F5740303F5105398420FD1194BBE
S3150800A0B0D3F8980070471F4B984217D01E4B98420A
S3150800A0C003D1144BD3F88C0070470020704700204A
S3150800A0D07047104B586E70470E4B586F70470D4BB4
S3150800A0E0986F70470B4BD3F884007047094BD3F829
S3150800A0F088007047074BD3F890007047054BD3F894
S3150800A100940070470048E8010024F400C0EA2101E1
S3150800A11080BA8C010080E00FC0CF6A00405DC6009F
S3150800A12080841E0000093D0040420F00007E560351
S3150800A1300090D00380D54302006CDC0238B5054692
S3150800A1400C460C4BD3F8803003F00303012B08D0E0
S3150800A150022B0AD00023184605B1286004B12360F3
S3150800A16038BD11F0E5FE0E23F6E711F02FFF0723A1
S3150800A170F2E700BF0080005038B505460C46164B7E
S3150800A180D3F8203103F00703013B052B20D8DFE87D
S3150800A19003F0030B130F171B11F0BEFE052305B1C1
S3150800A1A0286004B1236038BD11F0F2FE0323F6E7F8
S3150800A1B011F00CFF0723F2E711F004FF0223EEE784
S3150800A1C011F0AAFE0623EAE711F0E2FE0423E6E709
S3150800A1D000231846E3E700BF0080005038B505465F
S3150800A1E00C46164BD3F8283103F00703013B052B21
S3150800A1F020D8DFE803F003131B0F0B1711F08CFEB2
S3150800A200052305B1286004B1236038BD11F084FE2A
S3150800A2100623F6E711F0DAFE0723F2E711F0B8FE97
S3150800A2200323EEE711F0B4FE0423EAE711F0CAFEB1
S3150800A2300223E6E700231846E3E700BF0080005044
S3150800A24070B582B006460D4600230193104BD3F82D
S3150800A250804104F00304022C16D0032C0FD0012CE5
S3150800A26007D000240EB1019B336005B12C6002B003
S3150800A27070BD002101A8FFF77FFF1024F2E711F057
S3150800A280A5FE01900724EDE711F09CFE0190E9E791
S3150800A2900080005030B583B005460C460023019374
S3150800A2A0144BD3F8203203F00703013B032B1ED8C7
S3150800A2B0DFE803F0020E1318002101A8FFF78EFF4E
S3150800A2C012230DB1019A2A6004B1236003B030BD90
S3150800A2D011F07CFE01900723F3E711F0BBFE019015
S3150800A2E00A23EEE711F0BCFE01900923E9E70023F3
S3150800A2F0E7E700BF0080005038B505460C460F4B0F
S3150800A300D3F8403103F00303022B0ED0032B10D0F1
S3150800A310012B06D00023184605B1286004B1236036
S3150800A32038BD11F097FE0A23F6E711F099FE0923C6
S3150800A330F2E711F092FE0C23EEE700BF0080005012
S3150800A34030B583B005460C46002301934FF0E02351
S3150800A3501B6913F0040F0CD011F004FE01900D23B5
S3150800A36000930DB1019B2B600CB1009B236003B0D9
S3150800A37030BD694601A8FFF7BFFFF2E730B583B0E5
S3150800A38005460C4600230193144BD3F8603203F0BC
S3150800A3900703013B032B1FD8DFE803F0020E19144D
S3150800A3A0002101A8FFF7E8FE10230DB1019A2A60E3
S3150800A3B004B1236003B030BD002101A8FFF79CFF5C
S3150800A3C01123F2E711F002FE01900723EDE711F0E1
S3150800A3D0F9FD01900223E8E70023E6E70080005034
S3150800A3E030B583B005460C4600230193144BD3F8C9
S3150800A3F0943203F00703013B032B1FD8DFE803F071
S3150800A400020E1914002101A8FFF7B6FE10230DB19C
S3150800A410019A2A6004B1236003B030BD002101A867
S3150800A420FFF76AFF1123F2E711F0D0FD0190072329
S3150800A430EDE711F0C7FD01900223E8E70023E6E700
S3150800A4400080005030B583B005460C4600230193C2
S3150800A4500C4BD3F8703203F00303012B09D0022BFF
S3150800A4600DD115230DB1019A2A6004B1236003B0FA
S3150800A47030BD002101A8FFF73FFF1123F2E70023B3
S3150800A480F0E700BF0080005038B505460C46124B71
S3150800A490D3F8003203F00703013B032B18D8DFE893
S3150800A4A003F0020A0E1211F0D5FD0A2305B1286041
S3150800A4B004B1236038BD11F0D3FD0923F6E711F086
S3150800A4C0CCFD0C23F2E711F04DFD800A0F23EDE7D2
S3150800A4D000231846EAE700BF0080005038B5054655
S3150800A4E00C46124BD3F8083203F00703013B032B43
S3150800A4F018D8DFE803F0020A0E1211F0ABFD0A23A2
S3150800A50005B1286004B1236038BD11F0A9FD0923FF
S3150800A510F6E711F0A2FD0C23F2E711F023FD800AFD
S3150800A5200F23EDE700231846EAE700BF0080005036
S3150800A53038B505460C460F4BD3F8403203F00303F3
S3150800A540022B0ED0032B10D0012B06D00023184661
S3150800A55005B1286004B1236038BD11F07BFD0A23DC
S3150800A560F6E711F07DFD0923F2E711F076FD0C23DD
S3150800A570EEE700BF0080005038B505460C460F4B85
S3150800A580D3F8603103F00303022B0ED0032B10D04F
S3150800A590012B06D00023184605B1286004B12360B4
S3150800A5A038BD11F057FD0A23F6E711F059FD0923C6
S3150800A5B0F2E711F052FD0C23EEE700BF00800050D1
S3150800A5C038B505460C46104BD3F8000100F00300D9
S3150800A5D0032815D8DFE800F002080C10012305B19E
S3150800A5E0286004B1236038BD11F0D2FC0323F6E7D6
S3150800A5F011F036FD0923F2E711F0E2FC0823EEE735
S3150800A60000231846EBE700BF00800050B0F5207F16
S3150800A61020D00ED8B0F5007F16D020D810B1B0F5EE
S3150800A620C07F04D10F4B186FC0F3033018E0002029
S3150800A63016E0B0F5607F05D10A4BD3F88000C0F369
S3150800A64001100DE000200BE0064BD3F89000C0F394
S3150800A650046005E0034B186FC0F3802000E000207B
S3150800A660013070470080005038B505460C46174B38
S3150800A6704FF480329A660020FFF7C8FF05FB00F00A
S3150800A680134BDA6902F4803241F67131D9635B689B
S3150800A69023F440136CB90F49884207D800210B43AD
S3150800A6A00B494B600AB10022CA6338BD4FF48011CA
S3150800A6B0F5E7002C07DD0849884201D80021EEE7B6
S3150800A6C04FF48011EBE74FF44011E8E70090005093
S3150800A6D000000350005A6202002D310108B511F03E
S3150800A6E053FC0021FFF7C0FF08BD0000430905D051
S3150800A6F0012B0ED0022B0ED0002200E0002200F023
S3150800A7001F0051B102F58052012303FA00F01060D0
S3150800A7107047034AF3E7034AF1E702F50052F3E705
S3150800A720648000506880005010B582B00023019301
S3150800A7300093B0F5807F00F20781B0F5807F00F2C4
S3150800A7407A81DFE810F04A0178017801780178010A
S3150800A7507801780178017801780178017801780123
S3150800A7607801780178017801780178017801780113
S3150800A7707801780178017801780178017801780103
S3150800A7807801780178014A017B014A017B01510170
S3150800A79051015101510151017B0121013B01A201E6
S3150800A7A0A7013B017B017B017B01780178017801D8
S3150800A7B0780178017801780178017B017B017B01BA
S3150800A7C0B10168017B017801780178017801780187
S3150800A7D078017801780178017801780178017801A3
S3150800A7E051014A014A014A015D013B013B01AC01A5
S3150800A7F07001930198017801780178017801780150
S3150800A80012017801780178017801780178017801D8
S3150800A8107801780178017801780178017801780162
S3150800A8207801780178017801780178017801780152
S3150800A8307801780178017801780178017801780142
S3150800A8407801780178017501780178017801780135
S3150800A8507801780178017801780178017801780122
S3150800A8607801780178017801780178017801780112
S3150800A8707801780178017801780178017801780102
S3150800A88078017801780178017801780178017801F2
S3150800A89078017801780178017801780178017801E2
S3150800A8A078017801780178017801780178017801D2
S3150800A8B078017801780178017801780178017801C2
S3150800A8C078017801780178017801780178017801B2
S3150800A8D078017801780178017801780178017801A2
S3150800A8E07801780178017801780178017801780192
S3150800A8F07801780178017801780178017801780182
S3150800A9007801780178017801780178017801780171
S3150800A9107801780178017801780178017801780161
S3150800A9207801780178017801780178017801780151
S3150800A9307801780178017801780178017801780141
S3150800A9407801780178019D01B0F5C06F00F09D800F
S3150800A95010D9B0F5206F00F0A2804AD9B0F5406F43
S3150800A96000F08980B0F5486F5AD1002101A8FFF799
S3150800A97037FD60E0B0F5607F6BD00AD9B0F5A06FFF
S3150800A98074D0B0F5B06F2CD1002101A8FFF758FCA0
S3150800A99051E0B0F5007F0AD111F0CAFA04464FF427
S3150800A9A00070FFF733FEB4FBF0F4019443E011D9CD
S3150800A9B0B0F5207F42D0B0F5407F3CD111F0D2FAF5
S3150800A9C004464FF42070FFF721FEB4FBF0F4640848
S3150800A9D0019430E0B0F5C07F2DD111F0C3FA019093
S3150800A9E029E0B0F5806F26D1002101A8FFF7C4FB46
S3150800A9F021E0B0F5F06F57D007D9B0F5106F1AD12E
S3150800AA00002101A8FFF76AFD15E0B0F5D06F41D027
S3150800AA10B0F5E06F0FD1002101A8FFF789FD0AE024
S3150800AA20B0F5286F07D1002101A8FFF70BFD02E05A
S3150800AA3011F07EFA0190019802B010BD11F092FA59
S3150800AA4004464FF42070FFF7E1FDB4FBF0F40194DF
S3150800AA50F1E700216846FFF771FB009C4FF4607030
S3150800AA60FFF7D4FDB4FBF0F40194E4E7002101A854
S3150800AA70FFF710FCDFE7002101A8FFF7AFFBDAE7D5
S3150800AA80002101A8FFF75CFCD5E7002101A8FFF724
S3150800AA9033FCD0E7002101A8FFF7F6FCCBE700213D
S3150800AAA001A8FFF76BFCC6E7002101A8FFF764FDC4
S3150800AAB0C1E7000008B58020FFF736FE034B984231
S3150800AAC003D8034B4FF480321A6708BD005A620256
S3150800AAD000A0005000B583B000230193B0F5807F35
S3150800AAE000F04A8118D9B0F5F06F00F04A8140F2BB
S3150800AAF0DB80B0F5206F00F0538140F20481B0F599
S3150800AB00406F00F04881B0F5486F40F00C8101A90C
S3150800AB100020FFF765FCDFE0802800F2DD802428AE
S3150800AB20C0F0DA8024385C2800F2D68001A353F8F6
S3150800AB3020F000BF6FAD00086FAD00086FAD0008CC
S3150800AB406FAD00086FAD0008D9AC000865AD000808
S3150800AB50D9AC0008FDAC00088DAD0008D9AC0008DA
S3150800AB60D9AC0008D9AC0008D9AC0008D9AC0008A3
S3150800AB70D9AC0008D9AC0008D9AC0008D9AC000893
S3150800AB80D9AC0008D9AC0008D9AC0008D9AC000883
S3150800AB90D9AC0008D9AC000883AD0008BDAC0008E4
S3150800ABA0D9AC0008D9AC0008D9AC0008D9AC000863
S3150800ABB0D9AC0008D9AC0008D9AC0008D9AC000853
S3150800ABC0D9AC0008D9AC0008D9AC0008D9AC000843
S3150800ABD0D9AC0008D9AC00086FAD0008D9AC00089C
S3150800ABE0D9AC0008D9AC00081DAD0008D9AC0008DE
S3150800ABF0D9AC0008A1AD00082DAD0008EDAC0008E1
S3150800AC0097AD0008D9AC0008D9AC0008D9AC000843
S3150800AC10D9AC0008D9AC00080FAB0008D9AC0008BD
S3150800AC20D9AC0008D9AC0008D9AC0008D9AC0008E2
S3150800AC30D9AC0008D9AC0008D9AC0008D9AC0008D2
S3150800AC40D9AC0008D9AC0008D9AC0008D9AC0008C2
S3150800AC50D9AC0008D9AC0008D9AC0008D9AC0008B2
S3150800AC60D9AC0008D9AC0008D9AC0008D9AC0008A2
S3150800AC70D9AC0008D9AC0008D9AC0008D9AC000892
S3150800AC80D9AC0008D9AC0008D9AC0008D9AC000882
S3150800AC90D9AC0008D9AC0008D9AC0008D9AC000872
S3150800ACA0D9AC000837AD0008B0F5B06F5AD00AD94C
S3150800ACB0B0F5D06F6AD0B0F5E06F1CD101A90020BD
S3150800ACC0FFF736FC08E0B0F5607F04D101A9002043
S3150800ACD0FFF734FA00E003D2019803B05DF804FBED
S3150800ACE0B0F5806F43D0B0F5A06FF5D101A900206B
S3150800ACF0FFF7D0FAF0E7B0F5C06FEDD101A9002053
S3150800AD00FFF7FAFAE8E7B0F5086F04D101A90020C1
S3150800AD10FFF756FCE0E7B0F5106FDDD101A900207A
S3150800AD20FFF7DCFBD8E7B0F5286FD5D101A90020DD
S3150800AD30FFF788FBD0E71D4B1B6F03F00703013BAA
S3150800AD40032BC9D8DFE803F00B0205080523019396
S3150800AD50C2E703230193BFE708230193BCE7022355
S3150800AD600193B9E701A90020FFF76AFAB4E701A938
S3150800AD700020FFF701FAAFE701A90020FFF7E0FA84
S3150800AD80AAE701A90020FFF7F7FBA5E701A900201C
S3150800AD90FFF77AFBA0E701A90020FFF71FFA9BE758
S3150800ADA001A90020FFF7EAFA96E700BF00800050E5
S3150800ADB008B5FFF78FFE092810D012D30A380128E4
S3150800ADC012D80C4B4FF480025A6603F5D8335B6AE7
S3150800ADD013F0010F0BD04FF4FA7001E0064B1888F8
S3150800ADE008BD4FF6FF70FBE74FF6FF70F8E74FF622
S3150800ADF0FF70F5E7009000500601002038B50446BC
S3150800AE008020FFF767FE032800F0A380594B4FF414
S3150800AE1080125A66584B45F60E02C3F8802003F591
S3150800AE2080524FF0A061916203F500534FF48032CF
S3150800AE309A62514B9B6D13F4803FFAD1226863687E
S3150800AE401B0543EA0263227B43EA0243627B43EA29
S3150800AE500233A27B43EA8213E27B1343464A136119
S3150800AE60936903F00043216943EA8163616943EA10
S3150800AE700163217E43EA0143617E43EA0123A17E01
S3150800AE800B439361136A23F00F03E269002A40D14A
S3150800AE9011460B43E17E43EA81031343364A1362A4
S3150800AEA0E369002B37D1916A344B0B4094F8201094
S3150800AEB043EA411394F8211043EA011394F8241045
S3150800AEC043EAC10343F4803393622B4B9A6D2C4BB0
S3150800AED09343FAD1284A02F580514FF080738B626A
S3150800AEE0136923F47003A06843EA005313614FF013
S3150800AEF000438B6194F822301BB9224B4FF08072C5
S3150800AF009A6294F82330EBB91E4B4FF480329A625A
S3150800AF1018E00821BDE7022B1CD0174A916A174B87
S3150800AF200B4094F8201043EA411394F8221043EAA0
S3150800AF30016394F8241043EAC10394F8231043EA02
S3150800AF400143936294F825301BB10B4B0E4AC3F8A4
S3150800AF50802038BD084D00232B61AB6100F064FDED
S3150800AF606A6B82F4085303F47F4353406B6300F023
S3150800AF705FFDD2E7009000500040005AC7FFFEFE72
S3150800AF80030001000060005AF1A7FFFF014B93F987
S3150800AF90000070470401002010B443784F2B28BFE7
S3150800AFA04F231A461C4B4FF40001596603F5B83374
S3150800AFB04FF4D151596203F5805102244C6003F5D0
S3150800AFC0005301215960154B1B6913F4803FFAD1D0
S3150800AFD0037842EA0323114A5361416883681B01D7
S3150800AFE043EA0123017B43EA4103417B0B43936018
S3150800AFF0817BC37B1B0143EA4113017C43EA41037E
S3150800B000417C0B435360837C1BB113466FF4D152CA
S3150800B0105A625DF8044B70470090005000000250D9
S3150800B020014B1880704700BF0601002008B50029AB
S3150800B03003DD0121FFF718FB08BD0021FFF714FB0C
S3150800B040FAE70000B0F5207F5DD02DD8B0F5007F77
S3150800B0504ED061D810B1B0F5C07F24D110B54C1EC2
S3150800B060FFF73CFB00F060F8FEF7DEFF2B4B196F8D
S3150800B07021F4704141EA0431196710F073FF284B37
S3150800B080D3F8843013F0100FF9D1254BD3F8841078
S3150800B090C1F38111C1F10201FFF7C8FF00F04CF8B6
S3150800B0A0FFF708FD10BD7047B0F5607F1FD11D4B37
S3150800B0B0D3F8FC2012F0807206D01846D3F8FC307C
S3150800B0C023F08073C0F8FC3001391448D0F880307A
S3150800B0D023F0300343EA0111C0F88010E2B1114AA7
S3150800B0E0D2F8FC3043F08073C2F8FC3070477047E2
S3150800B0F001390A4AD2F8903023F0F85343EA01613D
S3150800B100C2F8901070470139044A136F23F480631C
S3150800B11043EA812111677047704700BF00800050DD
S3150800B1200040005000ED00E008B502214FF4207001
S3150800B130FFF788FF08BD000008B54FF4C070FFF799
S3150800B140F3FA054B984205D902214FF42070FFF710
S3150800B15079FF08BD0121F8E780F0FA0270B50C46C0
S3150800B160B0F5807F00F02F8229D9B0F5F06F00F096
S3150800B170938240F2EB80B0F5206F00F01A8340F21C
S3150800B1806081B0F5406F00F0EC82B0F5486F40F092
S3150800B1907E81023C0F2C00F22B83DFE814F0390382
S3150800B1A02903290329032903330329032903290327
S3150800B1B0290329032903290329033503370380288B
S3150800B1C000F20F812428C0F00C8124385C2800F294
S3150800B1D0088101A353F820F08BB500088BB5000849
S3150800B1E08BB500088BB500088BB50008E3B30008DB
S3150800B1F063B50008E3B300081DB40008CDB600081F
S3150800B200E3B30008E3B30008E3B30008E3B30008B8
S3150800B210E3B30008E3B30008E3B30008E3B30008A8
S3150800B220E3B30008E3B30008E3B30008E3B3000898
S3150800B230E3B30008E3B30008E3B3000899B60008CF
S3150800B24065B30008E3B30008E3B30008E3B30008F6
S3150800B250E3B30008E3B30008E3B30008E3B3000868
S3150800B260E3B30008E3B30008E3B30008E3B3000858
S3150800B270E3B30008E3B30008E3B300088BB500089E
S3150800B280E3B30008E3B30008E3B3000875B40008A5
S3150800B290E3B30008E3B30008B3B7000895B40008A1
S3150800B2A0F3B3000863B70008E3B30008E3B3000884
S3150800B2B0E3B30008E3B30008E3B3000893B100085A
S3150800B2C0E3B30008E3B30008E3B30008E3B30008F8
S3150800B2D0E3B30008E3B30008E3B30008E3B30008E8
S3150800B2E0E3B30008E3B30008E3B30008E3B30008D8
S3150800B2F0E3B30008E3B30008E3B30008E3B30008C8
S3150800B300E3B30008E3B30008E3B30008E3B30008B7
S3150800B310E3B30008E3B30008E3B30008E3B30008A7
S3150800B320E3B30008E3B30008E3B30008E3B3000897
S3150800B330E3B30008E3B30008E3B30008E3B3000887
S3150800B340E3B30008E3B30008B5B40008B0F5B06F7E
S3150800B35000F0078119D9B0F5D06F00F0B781B0F5C4
S3150800B360E06F58D10B2C00F21A820A2C80F01B824F
S3150800B370092C40F01A820222AD49D1F8403223F056
S3150800B38003031343C1F840322BE0B0F5607F27D1A1
S3150800B390A84BD3F8FC2012F0807206D01946D3F8D1
S3150800B3A0FC3023F08073C1F8FC30072C00F0C38111
S3150800B3B00E2C00F0C281062C00F0BB8100209C49AF
S3150800B3C0D1F8803023F003030343C1F8803042B13B
S3150800B3D0984AD2F8FC3043F08073C2F8FC3000E09B
S3150800B3E000D270BDB0F5806F00F0CF80B0F5A06FC9
S3150800B3F0F7D1073C0B2C00F2A281DFE814F0AA0172
S3150800B400A001AE01AC01AC01A001A001A001A00100
S3150800B410A001A001B001B0F5C06FE2D10B2C00F27B
S3150800B42031810A2C80F03281092C40F031810222C8
S3150800B4307F49D1F8403123F003031343C1F8403163
S3150800B440CFE7B0F5086F12D1082900F06E810929F7
S3150800B45000F06D81032900F066810021744AD2F854
S3150800B460003123F003030B43C2F80031B9E7B0F506
S3150800B470106FB6D1093C062C00F24381DFE814F0C0
S3150800B4804301490149014501410141014701B0F51F
S3150800B490286FA6D1112C00F0BD81152C40F0BC8177
S3150800B4A00221634AD2F8703223F003030B43C2F831
S3150800B4B0703296E78B1E062B05D8DFE803F04C3A68
S3150800B4C0044F0404490000252E460121022000F0FD
S3150800B4D01DFBFFF703F9FFF727FEFEF7A5FD544A04
S3150800B4E0136F23F007033343136710F03BFD524BEA
S3150800B4F0D3F8843013F0100FF9D14F4BD3F88410DA
