S0200000636869702D65667233322D77696E646F772D6578616D706C652E73333783
S214000000000004200D40010009400100C9870500DA
S2140000104D4300000940010009400100094001006D
S214000020094001000940010009400100E1420100C9
S2140000300940010088000020A14301006F0801006C
S21400004009400100AD4309000940010009400100D4
S214000050F93B090005440900B9430900D1430900EA
S214000060B1430900A5250000FD2600000940010057
S2140000700940010009400100094001000940010053
S214000080094001000940010019270000094001004D
S2140000900940010009400100094001000940010033
S2140000A00940010009400100094001000940010023
S2140000B009440900B5430900D94B0000454409002E
S2140000C009400100292B09000940010009400100F0
S2140000D009400100094001000940010009400100F3
S2140000E009400100094001000940010009400100E3
S2140000F009400100094001000940010009400100D3
S21400010009400100094001000940010010B5054CF6
S214000110237833B9044B13B10448AFF300800123AE
S214000120237010BD18080020000000003CB80A002C
S21400013008B5034B1BB103490348AFF3008008BD65
S214000140000000001C0800203CB80A00A3F5803A16
S214000150704700BF174B002B08BF134B9D46FFF799
S214000160F5FF00218B460F461348144A121A9BF0DF
S21400017027F90E4B002B00D098470D4B002B00D0D4
S21400018098470020002104000D000D48002802D0EA
S2140001900C48AFF300809BF049F82000290001F0DE
S2140001A085FC9AF0B9FE00BF0000080000000000C1
S2140001B0000000000000042018080020540E022052
S2140001C00000000000000000014608B5054858F091
S2140001D0C5F94FF0300383F31188BFF36F8FBFF379
S2140001E04F8FFEE7E0C6090008B5FFF7EDFF0000F9
S2140001F010B5044648B311F005FE154A54F8043C01
S214000200106803420CD14FF0300383F31188BFF31C
S2140002106F8FBFF34F8F0F490F489BF0C7FBFEE76A
S21400022054F8082C62B14FF0300383F31188BFF303
S2140002306F8FBFF34F8F094907489BF0B7FBFEE768
S21400024023EA0004083C11F09FFE204610BD00BFC4
S2140002503858002010C709003FC7090058C70900D2
S214000260014B1868704700BF3C580020014B1868C7
S214000270704700BF4058002008B514F043F8044B00
S2140002801A68044B1A60BDE8084014F065B800BF51
S2140002903C58002040580020F8B5044611F0B2FD46
S2140002A0184B1B6843B3184A002511684FF0FF37F8
S2140002B02E465A681B68954238BF1546974228BF97
S2140002C01746994206F10106F3D111F05DFEC4E926
S2140002D00157E66014F016F80C4B1B6823600C4BB5
S2140002E01B6863610B4B1B68A3610B4B1B68236188
S2140002F0BDE8F84014F030B84FF0FF371D461E46F4
S214000300E3E700BF4C580020340800203C5800208B
S21400031044580020485800204058002010B5144B80
S2140003201B6888B0044613B901A8FFF7B5FF104B49
S2140003301A461B68A342FBD3506811188C4201BFB3
S214000340616814460918516061686018834208D1D4
S21400035008480068834204D05B680B4463601368F7
S2140003601B682360944218BF146008B010BD00BF1D
S2140003704C58002034080020F8B5044611F042FD21
S2140003804249434D0B68CBB9424B434A5E071CBFFC
S214000390073323F007030020136050603F4A22F023
S2140003A00702C2E90000D01AC3E900203C4B0A60ED
S2140003B018603C4B18604FF000432B602B681C42C3
S2140003C006D011F0E1FD58F0C9FC00263046F8BD15
S2140003D0631E0A33F5D8600704F1080305D023F03E
S2140003E0070208329A42ECD913462E4F3A689A42D0
S2140003F0E7D3294A14686068984201D22068D8B9C1
S2140004000968A142DDD02168166811606268D21AB8
S214000410102A06F1080616D9E01841070FD04FF04B
S214000420300383F31188BFF36F8FBFF34F8F1E49DE
S2140004301E489BF0BBFAFEE722460446DBE7426016
S2140004406360FFF76BFF164962683B6808689B1A93
S214000450834238BF0B603B602B681343144A6360CB
S2140004600023236013680133136011F08DFD7307BA
S214000470ACD04FF0300383F31188BFF36F8FBFF318
S2140004804F8F0C4909489BF091FAFEE7340800208C
S21400049038580020380800204C58002030580020DB
S2140004A0405800203C58002078C709003FC7090084
S2140004B044580020B3C7090013B501FB00F219B178
S2140004C0B2FBF1F181420CD110460192FFF754FFC6
S2140004D0044618B1019A00219AF072FF204602B035
S2140004E010BD0024FAE7000010B5044600283AD0F4
S2140004F01D4A50F8043C126813420CD14FF03003EA
S21400050083F31188BFF36F8FBFF34F8F17491848D7
S2140005109BF04CFAFEE750F8081C61B14FF0300330
S21400052083F31188BFF36F8FBFF34F8F11491048C5
S2140005309BF03CFAFEE723EA020340F8043C11F085
S21400054061FC0D4A54F8043C1168A4F108000B4401
S2140005501360FFF7E3FE094A136801331360BDE832
S214000560104011F011BD10BD3858002010C709000A
S2140005703FC7090058C709003C58002048580020CB
S214000580F8B506460C46FFF733FE0746C8B19CB1E1
S214000590A0421CD021460120FFF78EFF054648B139
S2140005A0A7423A46314628BF22469AF0E1FE304638
S2140005B0FFF79AFF2846F8BD3046FFF795FF254619
S2140005C0F8E721460120BDE8F840FFF775BF35463D
S2140005D0F0E7FFF7D1BEFFF787BF0846FFF7CCBEB0
S2140005E00846FFF781BF08461146FFF7C9BF08B5A2
S2140005F004F010FB0EF070F857F0A4FF25F0F8FAA0
S214000600BDE8084024F000B813B5036800229C68D3
S214000610ADF806200DF10603A04719281ABFB0FA58
S21400062080F04009012002B010BD052B8CBF2F20A2
S214000630002070477047704770477047704700004B
S21400064001485AF09FBB00BF6497012001485AF04A
S2140006509EBB00BF6497012001F0E8BB10B53821AF
S214000660044699F053FD204610BD10B504210446FB
S21400067099F04CFD204610BD10B50821044699F0AF
S21400068045FD204610BD00000D4A0260D0F8F4215A
S21400069008B50AB19AF02AFCD0F84821002AF9D108
S2140006A0D0F80421002AF5D1D0F89820002AF1D1FC
S2140006B0426D002AEED10369002BEBD108BD00BFC6
S2140006C0B85B0A0038B5094B03604368044653B16B
S2140006D0437C43B9C56835B12B6828461B689847E4
S2140006E0284656F0ADFC204638BD00BF002D0A0057
S2140006F0406808B157F0CABE0320704713B540687B
S21400070010B9032002B010BD00248DF8074022B9AE
S2140007100BB12F20F6E70DF1070257F08BFEF1E73D
S21400072030B5406885B01C4610B9032005B030BD12
S21400073000251B888DF80B5022B90BB12F20F5E74A
S2140007400DF10B020395019503AD009557F056FE8B
S214000750192801D00028E9D1039BB3F5803F28BFB4
S21400076000232380E2E7000010B5038848F2010268
S214000770934212D190F90830012B15D10B4857F04F
S214000780EDFE33F0A5FC0368094A5C6940F6B83113
S214000790A4460023BDE81040604748F20202934298
S2140007A002D190F90930E7E710BD00BFF1C7090094
S2140007B05906000010B50446FFF766FF20464FF4C2
S2140007C01A7199F0A3FC204610BD10B50446FFF739
S2140007D079FF2046142199F099FC204610BD0000B0
S2140007E037B5254B0360142500234FF0031204464B
S2140007F0C0E90123C36000F1280200F12C01009536
S2140008000223103031F0EEFE04F16C0204F17001A8
S2140008100095022304F1540031F0E4FE28230093EF
S21400082004F1B00204F1B401022304F1980031F09F
S214000830D9FE04F58E7204F590710095022304F536
S214000840827031F0CFFE4823009304F5B07204F5B1
S214000850B271022304F5A47031F0C4FE2C23009379
S21400086004F50372022304F5047104F5FA7031F0FE
S214000870B9FE204603B030BDB85B0A0008B509488B
S21400088057F06CFE08485BF028F950B9064801217D
S2140008905AF039FC28B9054857F060FE04485AF06B
S2140008A04FFA08BD19C80900C086012037C80900DC
S2140008B06497012057F02CBC10B500230446436013
S2140008C0006808B156F0BCFB204610BD38B50025C0
S2140008D004464560006810B156F0B2FB256038BD8E
S2140008E0F8B50546154B45F8143B4368044600F139
S2140008F01C0700F10C06B3B12846FFF7E7FF3846A1
S214000900FFF7E4FFE36803B9237294F8243023F07A
S214000910050384F824303046FFF7D8FF00232372FF
S21400092084F8243063603846FFF7C6FF2846FFF792
S214000930C3FF3046FFF7C0FF2046F8BD605E0A00E2
S21400094010B50446FFF7CCFF2046282199F0DEFBC1
S214000950204610BDF8B5724D2B78BFF35B8FDF07CE
S21400096004460BD4284699F0D3FB38B1284699F0B4
S214000970DBFB6C4A6C496D4899F0C3FB6C4D2B78D9
S214000980BFF35B8FDE070BD4284699F0C1FB38B166
S214000990284699F0C9FB634A6649674899F0B1FB57
S2140009A0664F3D78BFF35B8F15F0010518D13846CA
S2140009B099F0AEFBA0B1624E624B35723846C6E97E
S2140009C00035C6E90355C6E90555C6E9075586F854
S2140009D0245099F0A9FB534A5B49304699F091FBA5
S2140009E05A4D2B78BFF35B8FD8070ED4284699F064
S2140009F08FFB50B15648FFF7F3FE284699F094FB5C
S214000A00484A5449524899F07CFB534D2B78BFF323
S214000A105B8FD9070ED4284699F07AFB50B14F4E1B
S214000A204F4B3360284699F07FFB3E4A4D4930468F
S214000A3099F067FB4C4D2B78BFF35B8FDA070ED42B
S214000A40284699F065FB50B1484E494B336028461E
S214000A5099F06AFB334A4749304699F052FB464DB7
S214000A602B78BFF35B8FDB070BD4284699F050FB3F
S214000A7038B1284699F058FB2A4A4049404899F030
S214000A8040FB23691BB9294B3E4A5A602361236BFE
S214000A9043B9294B5A6852B921691A725960DA600B
S214000AA01A822363636BFBB9254D6B680BB1032079
S214000AB0F8BD05F114002669FFF708FF05F11C00D4
S214000AC0FFF704FFEB6803B92B7295F824302E4825
S214000AD023F0050385F82430FFF7F8FE00232B7279
S214000AE085F824306E606563194E2169304660F0E3
S214000AF0B7FA30465FF03FFC054608B12846D7E710
S214000B002269E6610AB92F20D2E7184B63615A6062
S214000B1036F096FC1A4B6362104B2062A361EDE739
S214000B20085B002000000020390600001C000020A2
S214000B30045B0020C506000008000020D85A0020EC
S214000B40DC5A0020605E0A00E10800006C580020B5
S214000B50705800208906000064580020685800205D
S214000B60ECC8090037060000585800205C580020E2
S214000B7068650A003B060000545800203D06000049
S214000B80040000206F400120E85A002030B53A49A2
S214000B9085B00446394808F017FF394857F0DEFCA0
S214000BA03848214657F0DAFC354857F0D7FC23F092
S214000BB00BFC00B1043033F039FA23F005FC33F0B7
S214000BC04DF9314857F0CAFC0021084631F08CFC3C
S214000BD000284FD12D4D2B7843B9284658F02CF8D5
S214000BE000280CBF012300232B7043D12146284840
S214000BF059F0D6FEFFF742FE00283BD1254C26488A
S214000C0057F010FF2378BFF35B8FDB070BD420462B
S214000C1099F07EFA38B1204699F086FA1F4A2049A4
S214000C20204899F06EFA204D1E4C284659F068FD73
S214000C3020462563FFF78EFE1C4B019300251C4BB8
S214000C401C48029303955AF0E7F801AB214603903F
S214000C501948A36265F0B0FC0F4857F0F1FE17493B
S214000C600D482A4657F02AFE154857F077FC0A48E2
S214000C7057F094FF05B030BD5525030051250300FD
S214000C8050C8090083C809008FC8090078400120B1
S214000C90B88601200C5B0020804001200000002068
S214000CA03506000024000020105B002041060000EE
S214000CB04D060000C086012018BA01206907000012
S214000CC09FC8090010B50821044699F01FFA20466F
S214000CD010BD10B50421044699F018FA204610BD40
S214000CE00648074B03600023C0E90133054A06495E
S214000CF0C36003744361038399F003BA105B00205A
S214000D0034500A0000000020B9A60500704770475E
S214000D10084611B10B685B6818477047084611B162
S214000D200B685B68184770471FB500F0D1FD1022AE
S214000D300368019200229B69ADF8082001A9984734
S214000D4005B05DF804FB00008FB504462348244F29
S214000D50DFF88880DFF88C905AF0CEF880F001003B
S214000D60C5B20026236820461B6B9847384657F0C6
S214000D705EFE88B140465AF0BFF8207440465AF0EE
S214000D806CF86074484659F011FE003818BF012010
S214000D90A074384657F054FE237CAB4209D0236833
S214000DA00D225B6B01920022ADF8082001A92046B7
S214000DB09847A37CB34209D023680F225B6B01924D
S214000DC00022ADF8082001A920469847236820464F
S214000DD09B6B9847257CA67CC4E700BFC086012095
S214000DE080400120B886012030B5017D0B2908BF60
S214000DF0817D022985B0044605D90231C9B2012990
S214000E0019D905B030BD00F063FD112203680192C8
S214000E100022ADF8082001A99B69984733F058F9DD
S214000E2003680A4A5D6941F288312346AC4605B03C
S214000E30BDE83040604733F04BF9036803499B69CF
S214000E40224605B0BDE83040184700BF290D000017
S214000E5013B504468388A1780088ADF806300122D1
S214000E608DF8042049B101A922F043FA4CB120467E
S214000E7002B0BDE8104056F0E3B801A922F00AFA25
S214000E80F4E702B010BD10B583780279002B044653
S214000E9014BF30210C21008821F098FE24B1204692
S214000EA0BDE8104056F0CCB810BDC36800220275ED
S214000EB003B1184770471FB54368002B0CBF0524C5
S214000EC0072400F005FD0368019400229B69ADF835
S214000ED0082001A9984704B010BD1FB5044600F0CD
S214000EE0F7FC62680368002A0CBF062208220192FB
S214000EF000229B69ADF8082001A9984704B010BDF0
S214000F0090F83C3000EB03101C307047838B8B420C
S214000F1007D0838D8B4206D1012300EB03101C30D3
S214000F2070470023F9E70020704700007FB5018076
S214000F300C46054600F0CCFC036800959E6A1E49E8
S214000F401E4B4FF4FA72B047686000F0C1FC0368AD
S214000F5000954FF4FA729E6A19491A4BB047002161
S214000F60A860204616F0B7FA7721204616F0D3FA86
S214000F700121204616F0EFFA0B21204616F00BFB57
S214000F800821204621F0D7FD204621F0E4FD40F060
S214000F9062008DF8080002A9204621F0D9FD2046FF
S214000FA00A2121F05DFE082303A920468DF80C30A7
S214000FB021F065FE04B070BD0CC9090021130000C5
S214000FC017C909009115000037B5044655F0A2FF71
S214000FD00368D3F884309847236800949D6A1149C3
S214000FE0114B40F6B8322046A847236860601B6A5B
S214000FF00E4A0021204698472368A0601B6A0C4AC8
S2140010000121204698470121E06004F11C00FFF70B
S2140010108DFF04F12C000221FFF788FF002003B0AB
S21400102030BD00BF22C909004911000032C90900BD
S21400103035C9090010B5044600F04AFC036861682B
S214001040DB6A984700F044FC0368A168DB6ABDE8E9
S2140010501040184710B503684168DB6A0446984795
S2140010602368A1685B6A204698472368E1685B6A44
S2140010702046984704F11C00FFF7DCFF04F12C0023
S214001080BDE81040FFF7D6BF38B504460D4857F008
S214001090C9FC208821F051FD05460A4857F0D0FCCF
S2140010A0082D98BF084B074894BF5D5D082557F08C
S2140010B0B9FC2088294621F03EFD024857F0C0FCC6
S2140010C0284638BD804001203AC9090030B5437D26
S2140010D0827D85B0044623B30568012392B103766A
S2140010E0C37590F83C30B3FA83F35B09092280F8A5
S2140010F03C30AB6901920022ADF8082001A9984760
S21400110005B030BD417EC375AC6929B10193ADF819
S214001110082001A9A047F3E703230193ADF80810C0
S214001120F7E7002AECD00123037690F83C0004EBA6
S21400113000101C30FFF7A8FF237D1BB1A0F10802AA
S214001140534253412375DBE7006908B1FFF7BEBF82
S214001150704708B5062055F04DFF18B100230380F0
S2140011608370838008BD000070B5144606460D46A1
S214001170FFF7EFFF024648B133880380858084700E
S214001180BDE870400249034857F07ABC70BD00BF06
S214001190510E00008040012073B50446002311481C
S2140011A08DF804300D4657F03DFC208801A916F056
S2140011B043F906460B4857F043FC86B99DF80430C1
S2140011C06BB1BDF806104FF47A72284621F025FE62
S2140011D0014601222046FFF7C7FF02B070BD41F26C
S2140011E08831F6E78040012073B504460023114895
S2140011F08DF804300D4657F015FC208801A916F02E
S214001200DDF806460B4857F01BFC86B99DF80430FF
S2140012106BB1BDF806104FF47A72284621F0FDFD3A
S214001220014600222046FFF79FFF02B070BD41F244
S2140012308831F6E7804001200AB1FFF7ADBFFFF71F
S214001240D3BF000070B5144606460D46FFF781FF73
S214001250024648B13388038005718470BDE870404B
S2140012600249034857F00CBC70BD00BF870E000053
S214001270804001207FB50446002328488DF80030C2
S2140012808DF804300E4657F0CDFB01A9208816F0E5
S2140012900AF82088694616F091F89DF804308DF813
S2140012A008301BB1BDF80630ADF80A309DF80030A6
S2140012B08DF80C301BB1BDF80230ADF80E3003A926
S2140012C002A821F0D1FF0546144857F0B9FBB6B185
S2140012D060680368DB689847257329462046FFF751
S2140012E083FF217B00222046FFF7ACFF237B23B140
S2140012F0606810B103689B68984704B070BD237B94
S214001300AB42EAD09DF804302BB1BDF80610324649
S2140013102046FFF729FF00232373E2E780400120E1
S214001320006910B10021FFF7A5BF70477FB50446DE
S214001330002328488DF800308DF804300E4657F00C
S21400134071FB01A9208815F0ECFF2088694616F08D
S21400135073F89DF804308DF808301BB1BDF80630E0
S214001360ADF80A309DF800308DF80C301BB1BDF892
S2140013700230ADF80E3003A902A821F075FF05462D
S214001380144857F05DFBB6B1A0680368DB68984761
S214001390657329462046FFF7FFFE617B0122204643
S2140013A0FFF750FF637B23B1A06810B103689B680A
S2140013B0984704B070BD637BAB42EAD09DF804301A
S2140013C02BB1BDF8061001222046FFF7CDFE002304
S2140013D06373E2E7804001201FB5FFF797FD002307
S2140013E00C468DF804308DF808308DF80C3068B156
S2140013F00C2A09D8062A09D9073A052A06D8DFE8AA
S21400140002F02E05050F070B172A18D004B010BDE2
S2140014100121FFF72FFFF9E70121FFF787FFF5E727
S214001420154857F0FFFA204621F0A2FB8DF80C0075
S21400143003A821F09CFB104857F002FBE6E70E4895
S21400144057F0F0FA204621F00EFC8DF8040001A8B3
S21400145021F008FC01A9204621F011FCEBE7064824
S21400146057F0E0FA204621F076FB8DF8080002A837
S21400147021F06DFBDFE700BF804001201FB50B6841
S214001480013B04460B2B13D8DFE803F014120610BA
S2140014901A1D53561212127801234376606838B12B
S2140014A003689B6804B0BDE81040184700234376E5
S2140014B004B010BD354804B0BDE8104064F09CBFD1
S2140014C001234375EAE700234375406810B10368BB
S2140014D0DB689847637E4BB1236804229B690192C0
S2140014E00022ADF8082001A920469847E37D13B1F5
S2140014F00023E375DCE7A17D227D79B182F001024D
S214001500227501222276E27522680B2192690191EA
S214001510ADF8083001A920469047C9E794F83C008A
S214001520012104EB00101C3004B0BDE81040FFF7AA
S21400153083BE01238375B1E700238375406810B12D
S2140015400368DB689847637E4BB1236804229B6977
S21400155001920022ADF8082001A920469847237E74
S21400156013B100232376A3E7617D227D0029C5D130
S21400157094F83C00022104EB0010D4E78A688988BE
S21400158004B0BDE81040FFF727BF00BF18BA01201F
S214001590006910B10021FFF7C9BE70471FB50023D0
S2140015A0CDE90233094C0A4B019302230093094A02
S2140015B0094B012120461AF023F8084A084920461C
S2140015C004B0BDE8104098F09CBD00BF2C5B002026
S2140015D0E90D00000D0D00000F0D000000000020BA
S2140015E035B60100704710B5044600F071F903687F
S2140015F0A2682188DB69BDE810401847704770472D
S2140016007047000037B50446806911F00FFD18B129
S21400161023682046DB689847A56910F0FBFB642327
S2140016200246009301210023284611F075FB01288D
S21400163005D0054856F092FFAC20FEF7D5FD0123F5
S214001640237503B030BD00BF43C9090008B511F0CB
S2140016500DFD18B1BDE80840FFF727BC08BD000027
S2140016600148FFF771BB00BF485B002030B585B06E
S2140016700546FFF7A9FC174B0293174B019301236E
S21400168000931649164800234FF4806210F0C8FAFB
S214001690286428B9134856F061FF0B2005B030BD0A
S2140016A00024114B114A00940C210A200FF044FD2F
S2140016B0686408B90E48EEE700F054FA0D4905F1E3
S2140016C0480000F065FA05F160000B4900F060FA8A
S2140016D02046E3E7106D0020105D002058C9090081
S2140016E0611600005CC90900C05C0020485C002050
S2140016F078C90900ACE30900C4E3090008B503484B
S21400170056F02CFF03F093FA002008BD9BC9090091
S21400171008B5FFF79FFC30F001FF044856F01EFFA7
S214001720BDE80840AC20FEF75FBD00BFB7C90900A2
S21400173007B5436C0BB3EFF3058353B9406C012236
S2140017400FF022FDC8B90E4803B05DF804EB56F062
S21400175005BF0023406C019301AA0FF031FE019BE8
S214001760002BEFD04FF0E0234FF08052C3F8042D4B
S214001770BFF34F8FBFF36F8FE4E703B05DF804FB52
S214001780D4C909001FB50C23ADF80810044801930E
S21400179001A90392FFF7CCFF05B05DF804FB00BF7C
S2140017A0485B00201FB5002304460193ADF80830BF
S2140017B00A22606C01A90FF08BFE012806D123686F
S2140017C001A95B6B204698470022F2E704B010BDE3
S2140017D038B50C2014460D4698F0A9FCC0E9015413
S2140017E0014A026038BD00BF90CA090010B5044621
S2140017F0483000F0DBF904F16000BDE8104000F06E
S214001800D5B910B50C21044698F080FC204610BDD2
S21400181010B51C21044698F079FC204610BD10B582
S2140018204FF48071044698F071FC204610BD00000D
S21400183007B500230375009380691A46032111F04B
S2140018406BFA40B9054856F089FEAC2003B05DF847
S21400185004EBFEF7C9BC03B05DF804FB01CA09003F
S21400186013B504460846E360049B23610B4B2360D4
S214001870C4E901020A4B0093114600222275A261B8
S214001880234611F02FFAA06128B9064856F066FEE6
S214001890AC20FEF7A9FC204602B010BDE4CA090041
S2140018A04D16000015CA090030B587B01C20CDE9DA
S2140018B00421039398F03BFC0A9D05990095DDE909
S2140018C003320446FFF7CCFF204607B030BD0000C9
S2140018D000487047485B002038B500250446C0E93C
S2140018E00155C0E9035545610583202229461C3071
S2140018F099F066FD034B84F83C50C4E9105523600C
S214001900204638BDA0CA09007FB50446FFF7F8FA9E
S214001910637E064604F1600504F14800A3B1002189
S214001920019000F026F901984FF4FA7100F06AF978
S2140019302846002100F01DF94FF4FA71284604B03D
S214001940BDE8704000F05EB9E37C13B1C8221146D2
S21400195006E0237C43B3637C33B3322240F2B631D5
S21400196000F04CF900241B488DF8084057F05AF850
S21400197002A9308815F022FD164857F061F89DF848
S214001980080050B142F21073ADF80C40ADF80E30BE
S2140019900399BDF80A0021F0A0F9317B61B16421FA
S2140019A0284600F02FF90DE0A37C0BB16422CEE7A9
S2140019B040F2B6323221D3E7012805D10146284647
S2140019C000F0D7F804B070BD0228F8D04FF47A7152
S2140019D0E6E700BF8040012038B50D460446FFF715
S2140019E04DFD2B68DA1E0E2A21D8DFE802F010160D
S2140019F020202020202020080B0B0B1A1A00AB6892
S214001A000A2B14D12046BDE83840FFF77DBF0848B2
S214001A1040F6B83156F0A2FDF4E7064856F09EFDB3
S214001A20F0E7A3F1110253425341E374EAE738BDED
S214001A3029CA090068CA090010B50A4BD3E902246E
S214001A40094B0846994208BF144600F0A2FC01283C
S214001A50204603D1BDE81040FFF72DBABDE8104080
S214001A60FFF73BBA485B00207CE3090001460148CB
S214001A70FFF7E2BF485B002010B5054C2046FFF795
S214001A802BFF2046034A0449BDE8104098F039BBB6
S214001A90485B002000000020FD150000704710B5D0
S214001AA00821044698F032FB204610BD38B5FEF7F4
S214001AB09EFD1F48FFF76AF810B1AC20FEF794FBB6
S214001AC01C4B1D48D3F85C1F32F093FA1A4832F0CC
S214001AD09DFAFFF7FDFE0446184856F03FFD1848ED
S214001AE056F0A0FF236820469B689847054661F09D
S214001AF047FE5CF09DFE124856F0A2FF2DB111483D
S214001B0056F02CFD2846FEF76FFB23682046DB6860
S214001B109847054628B10C4856F020FD2846FEF7A3
S214001B2063FB236820465B699847284638BD00BF9C
S214001B30F4CA090018DA01205C00002002CB090074
S214001B40804001200FCB09001FCB0900024A034941
S214001B50034898F0D6BA00BF000000209D1A000087
S214001B605C00002011F0C4BB006908B111F051BB45
S214001B7070470023C0E9023300220023C0E9002397
S214001B80006920B109B111F03EBB11F03FBB7047B0
S214001B9030B4002200240025C0E90045016130BCB5
S214001BA0C0E902221146FFF7E4BF000073B5836860
S214001BB00446FBB1C368EBB10F4B19680B68684667
S214001BC0DB6898472069DDE9006511F025FBD4E95C
S214001BD00232002808BF1346D4E900125B1842F10F
S214001BE00002B34272EB050304D22046FFF7BCFFA7
S214001BF0C4E9006502B070BDF0020020C0E9021220
S214001C00FFF7D4BFC0E90211FFF7D0BF70B5D1E926
S214001C100423044652EA03000DD08868CE68642583
S214001C20A0FB050105FB061198F0DEFF01232370DB
S214001C306070204670BD002323706370F9E7D0E91A
S214001C40020170477047002383607047002343609B
S214001C5070477047043870477047704710B51021BA
S214001C60044698F053FA204610BDA0F10400F5E7AC
S214001C7010B5044B03600446006B08B155F0E0F95C
S214001C80204610BDC04E0A0010B50446064A0C2079
S214001C90012130F085FDE06820B10368BDE8104002
S214001CA09B68184710BD00BF30CB0900A0F10400A8
S214001CB0EAE700BF38B50B4C2378BFF35B8FDB0732
S214001CC00ED4204698F024FA50B1074D074B2B60EF
S214001CD0204698F029FA064A0649284698F011FA4E
S214001CE0014838BDC86D0020CC6D0020A0300A0029
S214001CF000000020451C00000C4B10B50360044695
S214001D006433436000F51C7033F026F9A36D23B1ED
S214001D100022A26504F138009847A36A23B1002286
S214001D20A26204F108009847204610BD54150A0028
S214001D30A0F10400E0E700BF10B50446006808B153
S214001D4032F022FB204610BD10B5044B044640F886
S214001D50343BFFF7F1FF204610BD00BFA0110A007C
S214001D6037B5C0680D46144638B90F4A01210C2015
S214001D7030F016FD002003B030BD1A680192002234
S214001D801A60214601AA1CF071FD01A8FFF7D4FFD6
S214001D90A38823B9E38813B92378402BEAD02B898C
S214001DA043F040032B81E5E743CB0900A0F1040094
S214001DB0D6E700BFF0B5876885B005460C4617B96C
S214001DC0032005B0F0BD0023ADF808300B890E7B6C
S214001DD023B94B89022B1ED1142E02D00123ADF855
S214001DE00830606832F04AFA6368039302AB0093E7
S214001DF0A16803AB3246384630F08AFF044603A893
S214001E00FFF79AFF2CB1A86818B130F019FF00232D
S214001E10AB602046D5E7002BE0D1402EDDE710B5BD
S214001E200421044698F072F9204610BDF7B5104F0D
S214001E30104E114C114D38461DF080F81049114ACD
S214001E4001F500533846D3F85C3F5360334600959F
S214001E501DF0D8FA0C4B33612246394630461EF048
S214001E60E9FC0A4B636325626C6003B0F0BD00BFFB
S214001E70E86E00206C000020B06E0020D06D0020C0
S214001E8018BA0120640000208051010076CB0900BA
S214001E9010B50446FFF730FF20464FF4227198F045
S214001EA035F9204610BDA0F10400F1E710B5082171
S214001EB0044698F02BF9204610BD10B51C210446A8
S214001EC098F024F9204610BD10B50446FFF73CFFF5
S214001ED02046E02198F01AF9204610BD10B50446B9
S214001EE0FFF7C6FE2046382198F010F9204610BDB0
S214001EF0F8B53C483C4B03606433436000F108038C
S214001F00C0E90233394B036300F13803C0E90E33EE
S214001F10374B0366374BC36720330024C0F8803046
S214001F200523C0E90A40C0E91640C0E91A44C0E9E2
S214001F302E44C0E93044C0E97244046780F8744017
S214001F40846780F8AC4080F8D041C0F8D44180F86F
S214001F50D84180F8F04180F8084280F82042C0F866
S214001F605432254BC0F87032C0E99D44234A2449B8
S214001F7080F83842C0F8504280F8584280F87C42D8
S214001F80204D98F0BEF81D4A1F49204898F0B9F831
S214001F901A4A1F491F4898F0B4F828461E4B40F8C6
S214001FA0103B6C602C7265F039F8144A1B492846C1
S214001FB0C5E93444C5E9364498F0A3F81848194BE7
S214001FC0036000260027C0E90267C0E90467C0E98D
S214001FD00644C0E90C44094A1349BDE8F84098F0A5
S214001FE090B800BFE86E002054150A0039030200BE
S214001FF051F1010088CB090020370A0000000020BC
S214002000F91C0000D06D0020591C00006400002060
S2140020105B1C00006C000020A0110A00491D000097
S214002020B06E0020C04E0A00711C00000E207047E3
S21400203008B50548012100F0ABFC11F049F8BDE8F1
S214002040084011F057BF00BF00350A0001480121C3
S21400205000F09EBC00350A0010B50D4BD3F82828BA
S214002060A2F17E63A3F58433B3F5104F0AD2094C70
S214002070237813F0FD0F08D1D369984708B90123D8
S214002080237010BD4FF48170FBE70020F9E700BF16
S2140020900000E10F707100204FF000530B4A1A60E9
S2140020A00B4A01239360136823F4E06343F48063D0
S2140020B01360BFF34F8F0749074BCA6802F4E0620C
S2140020C01343CB60BFF34F8F00BFFDE702020FF054
S2140020D000500E4000ED00E00400FA050A4BD3F86D
S2140020E02828A2F17E63A3F58433B3F5104F09D2F6
S2140020F0126BA2F17E63A3F58433B3F5104F01D2C1
S21400210053681847704700BF0000E10F0B4BD3F829
S2140021102828A2F17E63A3F58433B3F5104F09D2C5
S214002120126BA2F17E63A3F58433B3F5104F01D290
S214002130936818474FF48170704700BF0000E10FA6
S21400214007B50E4B0190D3F82828A2F17E63A3F5BD
S2140021508433B3F5104F0ED2126BA2F17E63A3F553
S2140021608433B3F5104F06D29369012101A898472E
S21400217003B05DF804FB4FF48170F9E70000E10F4F
S21400218010B40A4BD3F82848A4F17E63A3F5843331
S214002190B3F5104F05D2236B1BB15B6A5DF8044B99
S2140021A018474FF401705DF8044B70470000E10FCC
S2140021B00B4BD3F82828A2F17E63A3F58433B3F53E
S2140021C0104F09D2126BA2F17E63A3F58433B3F5E8
S2140021D0104F01D2936A18474FF40170704700BF42
S2140021E00000E10F70B5134BD3F82838A3F17E63D7
S2140021F0A3F58433B3F5104FE0B00D4616D24FF476
S214002200C0726946FFF7BCFF044660B940F201267B
S21400221029466846FFF7CCFFB042F9D040F20323C8
S214002220984218BF0446204660B070BD4FF4017453
S214002230F9E700BF0000E10F10B40D4BD3F82848B3
S214002240A4F17E63A3F58433B3F5104F0BD2246B51
S214002250A4F17E63A3F58433B3F5104F03D2A36BCA
S2140022605DF8044B184740F201105DF8044B7047C8
S2140022700000E10F0B4BD3F82828A2F17E63A3F5EC
S2140022808433B3F5104F09D2126BA2F17E63A3F527
S2140022908433B3F5104F01D2D36B184740F20110C8
S2140022A0704700BF0000E10F2DE9F0439946334B1D
S2140022B01746D3F82828A2F17E63A3F58433B3F536
S2140022C0104F91B005460E464FD2136BA3F17E63B6
S2140022D0A3F58433B3F5104F47D203A8FFF7FEFEED
S2140022E0079BDC68A3B2002B42D001A92846FFF763
S2140022F00DFF00BB029B06EB09059D423BD8A1B231
S214002300B6FBF1F401FB1463DDF80480D3B1B5FB32
S214002310F1F24C4201FB125204EA060001EB080CF3
S21400232062B12C40211A6044D1B94A46394608EBBE
S2140023300600FFF781FF11B0BDE8F083A9EB0104AA
S214002340E118F0E7B9FBF1F301FB139308EB060085
S21400235023B14C4204EA09042144E5E74946E3E791
S214002360FFF788FF0028E0D0E5E74FF48170E2E74A
S21400237040F20140DFE740F20240DCE70000E10FF8
S21400238003680B6001607047436803B1184722205A
S2140023907047436903B11847FF20704730221C235B
S2140023A002FB003000F1047000F5204001EBC00194
S2140023B089000868704738B50D682B78022B0C46E4
S2140023C00CD069792879FFF7E9FFB0FA80F0400968
S2140023D028702046BDE83840FFF748BB38BD0000EF
S2140023E037B5046801210546124800F0D1FA0023EB
S2140023F061792079012201F04DFC61792079FFF79F
S214002400CDFFB0FA80F35B092370A379022B0ED1BF
S21400241000F01EF9084960792A4600F043F90123C6
S214002420617902462079CDE9003301F0EDFB00200A
S21400243003B030BD00350A00B723000003681878E3
S214002440704710B504682378022B15D0617920797F
S214002450FFF7A4FFA279012A15D10038638818BFB8
S214002460012040EA430363F03F039BB24FF6E0715E
S2140024708B4202D12270638010BD4FF6DF7293420A
S214002480F9D10022F6E7002AF6D1B0FA80F040092A
S2140024902070F1E703681A78022A03D100225A80D6
S2140024A0FFF79EBF704713B504682378022B10D041
S2140024B0A379022B0BD16079002100F0E1F8627954
S2140024C020790023CDE90033114601F09DFB02235D
S2140024D0237002B010BD000038B5124B1B780546BD
S2140024E0DBB1E0B100F0F7FE0F4A00231146147B83
S2140024F054B92B601A0101EB031301258C501D7390
S21400250000F0EFFE204638BD0133082B02F1100222
S214002510EDD100F0E6FE0548F5E70548F3E7054887
S214002520F1E700BFF472002074710020048000F010
S214002530028000F0018000F013B5164B1868019079
S21400254000238DF8043000F0C6FE134B1C7824B12F
S21400255000F0C7FE114802B010BD01221A7000F04C
S214002560C0FE0F4B1C731C7783F82C4083F83C404E
S21400257083F84C4083F85C4083F86C4083F87C40DA
S21400258004230DEB03008DF8073001F0BFFB204657
S214002590E1E700BFC0CB0900F4720020038000F022
S2140025A0747100202DE9F843DFF86480D8F8607075
S2140025B0D8F86C301F4000D5FEE7144CDFF8549076
S2140025C001260025374217D0C8F8686023689BB1FB
S2140025D0A16862680131A16028469847637B012B99
S2140025E00AD148B909EB45131A7B60F341021A7306
S2140025F01A7F60F341021A770135082D4FEA460626
S21400260004F11004DED1BDE8F88300BF7471002029
S21400261000200E40F471002070B50C4E04460125D3
S21400262004B970BD94FAA4F0B0FA80F006EB00127C
S21400263005FA00F324EA03045368002BF0D0117B5C
S21400264011B191689847EBE79847E9E7F8720020E0
S21400265008B5122000F048FE28B1084B4FF480223F
S214002660C3F880211A600A2000F03EFE28B1034B12
S2140026704FF48062C3F880211A6008BD00E100E0D4
S21400268038B505460C4600F026FE054B03EB051351
S21400269000225C601A73BDE8384000F022BE00BF1E
S2140026A0F8720020F8B505460F46164600F013FEF1
S2140026B0104B05F0FC02D3F828140023EC1804F0A5
S2140026C00304144321FA04FC1CF0010F07D0013365
S2140026D0042BF3D1FF2400F004FE2046F8BDFF2CA7
S2140026E0F9D0054B03EB04130122C3E901761A73F4
S2140026F0F1E700BF00A00040F8720020054BD3F8B9
S2140027002804D3F81C24104000F05530C3F82404E5
S214002710FFF782BF00A00040054BD3F82804D3F88B
S2140027201C24104000F0AA30C3F82404FFF774BF3E
S21400273000A00040024B1968024B186896F012BFC2
S214002740DC000020D80000207047000037B592005B
S21400275004460D46019201F0E7FB431C0BD060B91E
S214002760019A2946204698F0F3FD0028044808BF41
S214002770002003B030BD0348FBE70348F9E700BF7D
S21400278010E000F021E000F024E000F013B504466D
S21400279001A801F073FC9DF80630238040F2011377
S2140027A06380074BD3F8E4301B0E0A33012203F094
S2140027B01F0302FA03F30020636002B010BD00BFDF
S2140027C00081E00F01F0DCBA08B501F0C9FA00207C
S2140027D008BD10B5044644EA010313F00303084697
S2140027E009D1934201D1002010BD54F8231040F8BF
S2140027F023100133F5E79200214698F0B9FDF2E781
S21400280010B5044601F042FB431C17D0C0B90D4B6F
S214002810D3F8E4301B0E0A3303F01F020123934063
S21400282023F0030320462344984201D1002010BD24
S21400283050F8042B0132F7D00348F8E70348F6E7D0
S2140028400348F4E70081E00F0EE000F021E000F01E
S21400285024E000F008B500F037FD014B186008BD15
S21400286068780020014B186800F032BD68780020B8
S214002870704700000C4B984210D90C4B984210D968
S214002880022201230A490B640A49D1F8003123F0D9
S214002890807343EA0263C1F8003170470022134692
S2140028A0F0E70122FBE700BF0048E8010090D003F4
S2140028B00000C84300400E4030B50F4B5B680F4B1E
S2140028C000221C46C9B21D798D4202D11D68854280
S2140028D00DD20132052A03F10803F4D1032206497A
S2140028E04B6823F0407343EA02634B6030BD04EB51
S2140028F0C2025279F3E700BF00000E4014CC090074
S21400290070B5084C41F67136256C266411F0AEFBA6
S2140029100021FFF7D1FFADB2B5421CBF00232364F0
S21400292070BD00BF00000E40044BDB6B5B0604D49A
S214002930034AD2F8C830002BFBD1704700300E4057
S2140029400000C64308B5FFF7EFFF024B5868C0F318
S214002950014008BD00300E40044BD3F84421D20796
S21400296003D4D3F840211042FBD1704700400E40FC
S21400297070B5064C41F67136256C2664FFF79CFF51
S214002980ADB2B5421CBF0023236470BD00000E40EC
S21400299038B5C0F30323013B092B16D8DFE803F054
S2140029A02616151505191C151F23124C0023C0F3F7
S2140029B0043513B11846FFF7CFFF04F1424404F57F
S2140029C0801405EBC404A400216038BD0A4C002323
S2140029D0EDE70A4C0123EAE7094C1023E7E7094C28
S2140029E04FF48033E3E7084C0023E0E7074C00236E
S2140029F0DDE700BFB0400E40C0400E40E0400E4055
S214002A00E8400E40F0400E4050410E4000400E4060
S214002A10C0F30313013B092B2AD8DFE803F0050BAC
S214002A200F1929291F23374B274BD3F80001C0F372
S214002A3004207047244BD3F81401F8E7224BD3F850
S214002A400001C0F30060431C012098400138704725
S214002A501D4BD3F80C01C0F3082070471A4BD3F86F
S214002A600801F8E7194B984204D0194B984207D052
S214002A7000207047144BD3F8203103F00F03E3E730
S214002A80114BD3F82031C3F30113DDE7114B984205
S214002A900CD003F5B01303F580539842E8D10A4BE7
S214002AA0D3F82801C0F30120031DCDE7064BD3F869
S214002AB02831E8E7084B9842DAD1034BD3F83001C7
S214002AC000F00300704700BF00400E40800616006E
S214002AD080162E0090171A00A009140008B5FFF7FC
S214002AE097FF013008BD000000F00F0001380728EE
S214002AF044D8DFE800F0040F1943232D4335244B58
S214002B00D3F8943003F00703023B052B38D8214A4C
S214002B10D05C70471E4BD3F8803003F00703013BB0
S214002B20032B2FD81C4AF3E7194BD3F8843003F055
S214002B300703013B032B25D8184AE9E7144BD3F8C3
S214002B40883003F00703013B032B1BD8144ADFE74A
S214002B500F4B1B6F13F0010F0CBF072009207047A7
S214002B600B4BD3F85C3103F03003202B0CD0302B0A
S214002B700CD0102B14BF0120072070470020704790
S214002B8005207047012070470420704708207047D2
S214002B9000400E40E8CB0900EECB0900F2CB09005E
S214002BA0EECB090008B50146FFF79EFF1A4B994287
S214002BB011D01A4B994212D0194B994204D1194B95
S214002BC0D3F8800000F007000138032821D8DFE89A
S214002BD000F00A0E1612134BD3F88400F2E7114BDE
S214002BE0D3F88800EEE7BDE8084011F0A3BABDE8C8
S214002BF0084011F0A5BABDE8084011F09EBA11F0E1
S214002C0039FA084BD3F80031C3F300630133D840D8
S214002C1008BD0020FCE700BF0300200005002400DC
S214002C2002001E0000400E4000F47813B3F5B01FFB
S214002C3010B5044674D025D8B3F5402F5ED010D812
S214002C40B3F5802F49D005D83BB1B3F5003F4FD040
S214002C50002010BDB3F5202FFAD1BDE8104011F0CA
S214002C6009BAB3F5801F00F08480B3F5A01F4DD0DD
S214002C70B3F5602FECD14A48FFF736FF072878D027
S214002C800928E9E7B3F5381F53D013D8B3F5001F6A
S214002C9058D00AD8B3F5D01F56D0B3F5F01FD7D109
S214002CA04048BDE81040FFF77DBFB3F5101FCFD1F9
S214002CB03D48F6E7B3F5481F4DD0B3F5781F65D00D
S214002CC0B3F5401FC4D13948FFF76CFF384BD3F833
S214002CD02831C3F30123043320E011F0CBF9344B41
S214002CE0D3F80C31C3F308230133B0FBF3F0B0E79D
S214002CF011F0C0F92E4BD3F80831F3E711F0BAF90A
S214002D002B4BD3F81431C3F30423EDE72648FFF723
S214002D1049FF274BD3F8303103F00303D84098E738
S214002D202048FFF73FFF224BD3F8203103F00F0374
S214002D30F4E71C48FFF736FF1D4BD3F82031C3F3EA
S214002D400113EBE71948ACE71848FFF72BFF184BC1
S214002D50D3F82831F3E71748FFF7C6FE072808D050
S214002D60082809D004287FF473AFBDE8104011F09E
S214002D70BDB9114B18686CE711F07CF90C4BD3F811
S214002D800031C3F3042303FB000062E711F072F97D
S214002D9001462046FFF7A2FEB1FBF0F059E700BF60
S214002DA006000E0002001E0005002400030020009E
S214002DB000400E40B8003200FC00002008B5FFF7C7
S214002DC093FE02280ABF024B4FF6FF70188808BD14
S214002DD000010020014B1880704700BF0001002052
S214002DE0013810B5032812D8DFE800F0022E1220B2
S214002DF0214AC1F30801D2F86838002BFBD11F4ADC
S214002E00136A23F4FF7323F001031943116210BD04
S214002E10194A01F07F01D2F86038002BFBD1174A1F
S214002E20136923F07F0319431161F0E7124A01F09A
S214002E307F01D2F86438002BFBD1104A936923F047
S214002E407F0319439161E2E70C4AD2F89030536A47
S214002E5023F0300343F010035362146B084BC1F3A6
S214002E60C31003300F2803EA040328BF0F201943BA
S214002E7041EA00711163CAE70020C84300400E40D3
S214002E8000F8FF0F104A536A13F0300F18D02029AD
S214002E9013D0302914D000290C4B08BF4FF4400340
S214002EA0D2F8901033EA0101FAD15B0246BFD2F89D
S214002EB0A000C0F38020012070474FF40003EFE726
S214002EC04FF44003ECE700BF00400E40FF33E1073D
S214002ED002280AD129B1064B4FF48060C3F8A80037
S214002EE0596612B10220FFF7CDBF0120704700BF20
S214002EF000400E400428F8B545D8314B314F13F842
S214002F0000C0314B1B5C002943D0304C022834F8FB
S214002F10106039D17C6A14F0300F35D12C4CE46B3C
S214002F207C6AE40705D57D6A25F0300545F0100576
S214002F307D62244C2666274C23449B001D68002D8A
S214002F40FCD002B36444A4002368002BFCD0022803
S214002F5019D1C1B11B4D696A11F0010116D00122C9
S214002F602021FFF7B5FFD5F89C7001220021022032
S214002F70FFF7C0FFC7F30A010220FFF731FF2E66F6
S214002F802368002BFCD0F8BD0021D2E7FFF77AFFBC
S214002F90E9E7114931F810103966012101FA03F307
S214002FA0D7F890101942FBD1002AECD00124054A2C
S214002FB004FA0CF4D2F890302342FBD1E3E700BFCA
S214002FC0F6CB090000400E40FBCB090000CC090000
S214002FD000300E408004F2100ACC0900112838B5E3
S214002FE00C4615D000F00F000138072869D8DFE836
S214002FF000F02B0464686283688E5E4D013C092CE9
S2140030005FD8DFE804F0775F665E5E6D5E5E5E5CEE
S214003010042912D111F06AF80546A8B10021284605
S21400302000F088FB023C0A2C4BD8DFE804F03F3C5B
S21400303030364A4A4A4A4A0F4200052904D14E4BC6
S2140030401D684E4B9D42E9D80025EBE7032005247A
S21400305001221146FFF74EFFFFF752FC0DB1FFF7B6
S21400306063FC474B5C6711F02FF8044611F002F83A
S214003070FFF700FCFFF766FC01462046FFF778FCEA
S214003080FDB928460121BDE8384000F053BB3D4855
S214003090FFF7F0FB02200446DAE73A48FFF7EAFBC0
S2140030A001240320D4E701200324D1E700200424D0
S2140030B0CEE70724D0E7344DA0E7344D9EE704233F
S2140030C02B6038BD012211460020FFF713FF0223B4
S2140030D0F6E7012211461046FFF70CFF0123EFE743
S2140030E010F0C8FFFFF7C6FB294B0122C3F80826DD
S2140030F00323E5E70023E3E7072904D00929E0D105
S2140031001F4B012201E01E4B00221A67D9E74C1E16
S214003110072CD6D801A353F824F000BF6F31000067
S214003120C3300000C330000061310000C33000002F
S214003130C3300000533100003D3100000322104927
S214003140D1F85C3123F0300343EA0213C1F85C3156
S214003150B7E7012211460420FFF7CCFE0122EEE776
S214003160012211460220FFF7C5FE0222E7E70022F1
S214003170E5E700BF80400E4078020020002D3101B8
S21400318000400E400148E80188400E4084400E4052
S2140031900010C84370B50D4614460AB1174B1B689D
S2140031A010F0A4FF0121064600F0C4FA1CB3FFF796
S2140031B0C9FB01463046FFF7DBFB1120FFF78EFC0C
S2140031C0B6FBF0F0FFF756FB012211460220FFF790
S2140031D091FE0B48416A002D14BF4FF0805200222A
S2140031E021F04051002C14BF4FF0005300230A4337
S2140031F01343436270BD002DE6D1EAE700300E406F
S21400320000400E4010B504461120FFF76DFC00216B
S21400321001220220FFF76EFE184A217C536A23F033
S2140032200103022908BF43F001035362144B2178BF
S214003230C3F8A014A188637A43EAC123D362136B50
S214003240A07A217A03F07F630343E08843EAC02331
S21400325043EAC11303310F2928BF0F2143EA017344
S2140032601363A37B617B1B0143EA0133E17B0B43C2
S214003270217B43EA0143536310BD00BF00400E406C
S2140032800000C84338B50E4D01461120FFF72CFC50
S214003290AA6B0C4B0C7813401C434B7844EAC324AF
S2140032A08B7844EA0364CB7844EA0324AB6BA342EE
S2140032B005D0002101220846FFF71CFEAC6338BD8E
S2140032C000400E4080E4FFF8EFF3108072B67047BF
S2140032D000B962B67047EFF31180602383F311885C
S2140032E0704780F3118870474209054B53F8223027
S2140032F000F01F0023FA00F0C04300F00100704702
S21400330000E100E030B5D1E90223D1E900540560C0
S21400331004600260036030BD30B50568046802686A
S2140033200368C1E90054C1E9022330BDFFF7EABFD4
S2140033307FB58B07044611D00B466D4601F110068B
S214003340186859682A4603C20833B3421546F7D1AF
S21400335069462046FFF7D6FF04B070BD009100997D
S21400336004B0BDE87040FFF7CDBFFFF7D5BF30B55E
S2140033708B0785B00C4610D06946FFF7CDFF0D468B
S214003380234604AC2A4603CAA24218605960154672
S21400339003F10803F6D105B030BD0091009905B0E1
S2140033A0BDE83040FFF7B8BF10B5FFF7ABFFBDE88C
S2140033B010401031FFF7A6BF10B5FFF7ADFFBDE810
S2140033C010401031FFF7A8BF10B5FFF79BFF0C4663
S2140033D01031FFF797FF04F12001FFF793FF04F188
S2140033E03001BDE81040FFF78DBF00F1424303F502
S2140033F08013102A4FEA431305D101221A6000F504
S2140034008870FFF7D1BF00221A602430FFF77ABF1A
S214003410F0B50B46990789B0054614461ED0082A13
S2140034206E4610D103F1100718685968324603C279
S2140034300833BB421646F7D1224669462846FFF7B0
S214003440D4FF09B0F0BD03F120071868596832466A
S21400345003C20833BB421646F7D1EDE70093009946
S21400346009B0BDE8F040FFF7C0BF436823F01F0374
S2140034700E290BD8DFE801F008080808080B0B0B2C
S214003480080808080B0B0B001943416070471943E6
S21400349041F01001F9E738B520301546FFF73CFF3C
S2140034A0102D04D1BDE838401031FFF735BF38BDC8
S2140034B030B58B0789B00C4615461DD06946FFF718
S2140034C0EAFF082D0CD16A4604AD134603CBAB4287
S2140034D0206061601A4604F10804F6D109B030BDD8
S2140034E06B4608AD1A4603CAAA42206061601346BE
S2140034F004F10804F6D1F1E70091009909B0BDE89F
S2140035003040FFF7C8BF0000034BD86B80F0400088
S214003510C0F38010704700BF00300E4042EA03231D
S214003520B3F5007F39D016D8B3F5807F31D007D8F1
S2140035305BB3012B1ED00022134603600A6070475F
S21400354040F201129342F6D1184BD3F824321A0EE9
S214003550C3F30743F1E7B3F5407F22D040F20132D0
S21400356093420ED040F201229342E4D10F4BD3F89F
S214003570283202E00D4BD3F82432C3F30722DBB225
S214003580DBE70A4BD3F82832E1E7084BD3F81C32C6
S214003590F3E7064BD3F81C32D9E7044BD3F82032B6
S2140035A0EBE7024BD3F82032D1E700BF0081E00FF3
S2140035B008B5FFF7A9FF20B1024AD2F8C830002BA1
S2140035C0FBD108BD0000C64337B5FFF79DFF38B1F5
S2140035D0244B1B78C3F1020210239340224A136146
S2140035E02249234DD1F8804145F60E03C1F88031BB
S2140035F02B6823F0AA03DB05DB0D0B66FFF7D8FF6D
S214003600194B1B68D80604F0010416D5D1F84031D2
S214003610DA01FBD4174B1B680B61174B1B78052B85
S2140036200BD1164B18680190FFF7C2FF0E4B01989E
S2140036305968C1F30141FFF79BF90F4B197805292B
S21400364002D01120FFF7CAFC2B68DB075EBF074BD2
S21400365002221A661CB1054B0022C3F8802103B073
S21400366030BD00BF2D79002000300E4000400E40D7
S2140036701C79002028790020267900207802002076
S214003680FFF7A2BF70B50378124A002B43789469FF
S21400369014BF04260026002B837814BF02250025BD
S2140036A0002B037924F03F0443EA0403C47814BFD4
S2140036B008210021012C08BF43F0010333432B43AC
S2140036C00B4393611368417923F4403343EA014383
S2140036D0136070BD00300E4070B504460E46FFF70E
S2140036E013FF10B3FFF764FF104B5B68C3F301438F
S2140036F09C421AD00E4BD3F8003110F0BBFC022CC3
S214003700054602D12146FFF733F9C4F10202102321
S2140037109340064A13610EB1FFF74AFF2CB92146C3
S2140037202846BDE87040FFF723B970BD00300E4054
S21400373000400E4013B50246FFF7E6FEC8B152B988
S2140037400D4B0191D3F8004110F094FCC4F3042211
S214003750019902FB0002094B1B7843B1084B9A42C1
S21400376005D8022002B0BDE81040FFF7B5BF002024
S214003770F8E702B010BD00BF00400E402C790020D4
S214003780002D310110B5224B4AF6E852596B5A63A8
S2140037909A6FD207FCD41B6C13F003031EBF1D4A9E
S2140037A00124C2F8B44A834204D110B9194BC3F8B5
S2140037B0B40A10BD032B00D09BB9431E012B10D8B2
S2140037C0134A4FF40023D362936FDB07FCD4136CC9
S2140037D023F0030343F0010313640D4A536A1C03EA
S2140037E0FCD50B4B9A6FD207FCD41A6C22F003025E
S2140037F002431A649A6F12F00102FBD10038054C9E
S21400380018BF01200129C4F8B40A08BF5A63D0E7DC
S21400381000300E400000C6432DE9F04F002389B06B
S214003820CDE90233CDE90433CDE90633A0F5E163F3
S214003830B3F5966F04460D46914604D900252846F2
S21400384009B0BDE8F08FB0F5E16F674B8CBF012281
S214003850002240F0BC80D3F81832C3F30721DBB255
S214003860079104934FF4167A4FF4966BDFF87C8139
S214003870D8F84C700192C7F301773B4605A902A819
S214003880FFF74CFED8F8EC60019AC6F301263346E3
S21400389006A903A8FFF742FE049B0799A4EB0B0EAC
S2140038A0A1EB030C0EFB0CFCBCFBFAF213EB020CB8
S2140038B02CBF012300236145C0D3002BBED1069A3E
S2140038C00398131A0EFB03F3B3FBFAF3C0182CBFCE
S2140038D0012300238242B1D3002BAFD1059B02996E
S2140038E05A1A0EFB02FEBEFBFAFA11EB0A012CBFB7
S2140038F04FF0010E4FF0000E8B429FD3BEF1000F2B
S2140039009CD1B9F1000F10D0D8F85C2022F4FE420A
S21400391022F00202B4F5E16F42EA0C2218BF4FF023
S214003920020E42EA0E02C8F85C20002D4DD02E4B47
S214003930022FD3F830223ED0032F3FD0012F14BFE2
S214003940D2B2C2F30722120312F4702F7FF476AFBE
S214003950264FFB6E23F470431A43234BFA66022E5F
S214003960D3F830222CD0032E2DD0012E14BFD2B285
S214003970C2F30722120312F4702F7FF45FAF1B4EC0
S214003980D6F8EC3023F470431A43C6F8EC20736E76
S214003990814238BF014623F4FF73E72923F0010371
S2140039A028BFE721B4F5E16F18BF43F0010343EAEF
S2140039B04103736643E7C2F30742C4E7120EC2E749
S2140039C0C2F30742D6E7120ED4E7012537E7D3F84D
S2140039D01832190EC3F30743079104934FF4966AFF
S2140039E04FF4E16B42E700BF0081E00F00300E406D
S2140039F0304B1A6FD96C11F0010F02F0060244D05A
S214003A00002A42D0132851D9143813288CBF10230B
S214003A1008232849013BCA6C180322F47F4240EA77
S214003A2003231343CB64244BCA6C1B88C2F30322C4
S214003A302833013202EB820003EB5303B3FBF0F3AF
S214003A40C86C013B072B28BF072320F0EE6040EA36
S214003A50036343F48013CB64184BB3F90030002B98
S214003A6012DB03F12800C0F34E030344500800EBBA
S214003A704202B3FBF2F20B6D072A28BF072223F09F
S214003A80700343EA02120A657047D96C01F001011F
S214003A90114304D1092809D90A380928B6E7DB6C8E
S214003AA013F00103B5D01AB92728AFE70423B0E70F
S214003AB00023AEE700300E40227900202479002053
S214003AC0064A074BD3F88039136F23F007031843D1
S214003AD0044B10671888FFF78BBF00BF00300E40FE
S214003AE00000C6432079002038B5374A0223936386
S214003AF0936B03F00F03022B044602D000252846E2
S214003B0038BDE388B0F90C004A2B50D9B3F5FA7FDC
S214003B104FD340F6C3118B4294BF4FF000514FF085
S214003B204051D36C23F0405323F001030028A8BF74
S214003B3043F001030B43D364D2F8EC3043F44073F4
S214003B40C2F8EC30214BA1881980D36E43F0807305
S214003B50D3661F4BD3F8800900B10420FFF7B0FFEF
S214003B601C4B218919801C4BB4F90C20A0881A80A4
S214003B70FFF73EFFA37BFBB1012B21D0012260881B
S214003B801146FFF749FE05460028B7D00E4AD36B0C
S214003B9043F48063D3636078FFF7F4FDA37AA3F160
S214003BA02002534253410A4AC2F89437A7E700213D
S214003BB0B7E74FF08051B4E7034B084A9A65DDE754
S214003BC0014B074AFAE700BF00300E40207900207C
S214003BD00000C64322790020247900207740205731
S214003BE0372110B770B505460E461446FFF76CFB36
S214003BF0296881EA040202EA06044C402C60BDE80B
S214003C007040FFF765BB0000072AF8B501F0030611
S214003C1014461F464FF00F0120D8950000FA05F213
S214003C20A9401648FFF7DEFF0321154806FA05F2FD
S214003C30A940FFF7D7FF13499DF8183021448900A3
S214003C4001220F60C1F880300F4B02FA04F4C3F86B
S214003C5024449DF81C30C1F80033F8BDA2F10805D5
S214003C60AD0000FA05F2A9400848FFF7BBFF0321A4
S214003C70074806FA05F2A940DBE700BF00A40040AB
S214003C8008A400408020851000A0004004A4004046
S214003C900CA4004000EB4000F8B50D461F4604019A
S214003CA016463AB1164801238B402044CFB100F1A6
S214003CB0C0600360072D4FF00F0115D8AB00114808
S214003CC006FA03F299402044FFF78CFF46B90C4AE7
S214003CD0012101FA05F5224477B102F1C0621560B0
S214003CE0F8BD00F18060E4E7A5F108039B000648F4
S214003CF006FA03F29940E6E702F18062EFE700BFBA
S214003D000CA0004004A0004008A0004010B50446E7
S214003D1001214FF4AA40FEF73BFEB4F801302278AA
S214003D205BBA9BB243EA02630B4A1360002313623A
S214003D30D36253634FF00043D3664FF0FF3393666E
S214003D40064A4FF40071C2F88011E3785B01DBB2DB
S214003D5082F80933116010BD00200E4000E100E03B
S214003D60054B5A685B68054B41F671321A649A68CF
S214003D7022F001029A60704700300E4000000E40AC
S214003D80034B9A6822F001029A6000221A64704778
S214003D9000000E40094A0A4BD969C90705D512B971
S214003DA06FF002007047013AF6E7002AF8D00122C9
S214003DB01861DA60D86940F38000704780969800F2
S214003DC000000E4070B5C1B10E4A0023082550F819
S214003DD0234094610C4CD5600133D669F60705D5AF
S214003DE014B96FF0020009E0013CF6E7002CF8D0A9
S214003DF0D469A40703D49942E9D1002070BD6FF0BE
S214003E000100FBE700000E40809698002DE9F8437D
S214003E101C4B884641F671311D6C19641A490746D9
S214003E2048684968996841F00101ADB29960960802
S214003E304FF00009B14501D3002005E007EB8904E7
S214003E402046FFF7A7FF48B10E4B9A6822F0010202
S214003E509A600DB100221A64BDE8F883C4F30A0420
S214003E60C4F50064A408A6EB0901A14228BF2146B8
S214003E704046FFF7A7FF0028E6D1894408EB8108F3
S214003E80D8E700BF00000E4000300E4010B5234BB0
S214003E9041F671311A6C196421494C684968996871
S214003EA041F00101996001211861D960D9694C0778
S214003EB092B209D5996821F0010199600AB10022F1
S214003EC01A644FF0FF3026E00221D9601549D86900
S214003ED0C00700D569B9D86910F002000BD0996800
S214003EE021F0010199600AB100221A646FF0010006
S214003EF011E00139EBE741B9986820F001009860BD
S214003F0002B119646FF0020005E0996821F0010122
S214003F1099600AB1186410BD1046FCE700000E4018
S214003F2000300E4080969800FFF770BF02F0070240
S214003F3042EA035201F4FE41024B14300A4343F8AE
S214003F402020704700600E40074B002047F607729F
S214003F5000F1140153F821100A4204D001300C2855
S214003F60F6D14FF0FF30704700600E40014B012243
S214003F709A60704700500E40F0B5134B13495D68C9
S214003F80134E00221046D6F8E8714C680B687F077F
S214003F900BD4B3F5006F06D012D8B3F5007F02D06D
S214003FA0B3F5806F01D144F480742B4202D02C42CA
S214003FB008BF18430132092A01F10801E3D1F0BD18
S214003FC0B3F5803FEEE700BF00500E403CCC090042
S214003FD00040E00F8B784A789B0143EA82030A7818
S214003FE01343CA7843EA02130A7943EAC2234A799A
S214003FF043EA02338A79043043EA42430001014A25
S2140040001350704700200440014B1860704700BFF3
S21400401000008442427801790378002A827870B5DD
S21400402014BF04260026002AC27814BF10250025D7
S214004030002A42794FEA023242EA012242EA0302A9
S214004040837914BF20240024002BC37942EA03435B
S21400405043EA0603027A43EA050314BF4FF400411D
S21400406000212343002A14BF4FF4003200220B43E2
S2140040701343014A136070BD002004400D4AD2F875
S214004080E430D2F8E0109B0003F03C03C1F381114A
S2140040900B438370D2F8E03003F03F034370D2F84E
S2140040A0E830D2F8EC2003F0F003C2F30312134317
S2140040B00370704700FF0FE038B504468BF002F936
S2140040C00FCC044D0FC594E80F0085E80F000020C4
S2140040D038BD00BF3079002047F6FF739A42F0B52E
S2140040E069D0022969D8364B03EBC105CF00A87802
S2140040F013F83110012838BF01200129044613D1D6
S214004100EB781B1A0020984202D3E018C0B2F0BD2C
S214004110191AA3EB51016E6836F911609642CCBFAE
S21400412001F1FF330846EEE768680028EFD0B0F9E3
S2140041300010914204DBB0F902109142B8BF11465C
S21400414082883B44FF2A08BFB0F906205F7807BF85
S214004150B0F9086001250025C82207F1FF3318BF13
S2140041602826521A92FBF6F22A44934228BF134698
S21400417000EBC3054FF47A7EAE68EA8811FB026254
S2140041801E46013322EAE2729F4202F5FA72AC46FC
S214004190B2FBFEF205D9BCF80CC0944505F1080543
S2140041A0EAD200EBC6008088904228BF1046A042A4
S2140041B038BF2046AAE7FF20A9E70020A7E700BFF0
S2140041C0307900200229F0B55FD8314B13F8310062
S2140041D0012816D103EBC1018C78C878012C234640
S2140041E038BF0123904294BFC3EB0003C3EB020326
S2140041F0DBB2001B4A688342C8BF002332F91300B3
S214004200F0BD002A3FD003EBC1014B68002B3CD029
S2140042108878904202D3B3F90200F1E7CC78B3F97C
S21400422000009442ECD94C789988A1F1FF06013C35
S214004230714203F10405E4B2714103F10C071FFA61
S21400424082FCCEB2B44216D805EBC1014FF47A75A3
S214004250B1F9024049686A43521A04EBD47102EB82
S214004260610292FBF4F29042CADBB3F9020090427C
S214004270C6DC10B2C4E737F831E0E64501F10106C6
S214004280E2D33146DDE70348BAE70348B8E700BFA4
S214004290307900200CFEFFFF0080FFFF08B50448C1
S2140042A0FFF70AFFBDE8084001208BF045B800BFC5
S2140042B0AC910A0000487047020100207FB5094B08
S2140042C009490222CDE901234FF08373CDE9031398
S2140042D04FF0FF300D2301A905938BF0B1F907B01D
S2140042E05DF804FB006A180006010C0010B50C48C7
S2140042F00C4C6FF00402A02112F0800FD3B21BBF4B
S21400430003F00F03043BA3181B1802F101020CBFB5
S21400431083F800131976332AEED1002010BD00BFB3
S21400432000ED00E000E100E0BFF34F8F0549064BCB
S214004330CA6802F4E0621343CB60BFF34F8F00BF3E
S214004340FDE700BF00ED00E00400FA0508B5FFF742
S214004350EBFF08BD034B1B78002B14BF0120022087
S214004360704700BF5C7900200329F8B598BF134B4F
S214004370054698BF5C5C0E4688BF0024032805D817
S214004380DFE800F002080B0E44F002040C4B1F6836
S2140043904FB9F8BD44F00804F8E744F02004F5E708
S2140043A044F08004F2E77B681A68144203D05B6826
S2140043B03146284698473F68EAE700BF84CC0900A4
S2140043C0587900202DE9F341274A01380029135C6B
S2140043D014BF0121FF210B4413543AD0234E3278E8
S2140043E0012A36D9FFF7B6FF0128044634D8204FF5
S2140043F0FEF76AFF3B781BB31E4D2B781BB90122D4
S2140044002A701D4A1370DFF8748098F8003033B1B4
S214004410019000F048F80023019888F80030FEF775
S21400442057FF012000F040F8FEF74EFF2B782BB127
S214004430019000F03BF8002301982B7000233B709E
S214004440FEF746FF3078A04203D02146FFF78CFFE8
S214004450347002B0BDE8F081032AF3D10228F1D10E
S21400446000F04CF8EEE700BF5C79002050790020A1
S2140044705479002051790020537900205279002089
S21400448038B541600446FEF71FFF2146054604483E
S214004490FDF776FF2846BDE83840FEF719BF00BF97
S2140044A058790020704770470120704738B50E4C89
S2140044B00E4D23782BB92B781BB100F0ACF90C4BC2
S2140044C01860FFF7DDF82B786BB10A4AD2F8903007
S2140044D01B07FBD500F09FF9054B1B68C01A064B5F
S2140044E018600023237038BD6C7900206D79002099
S2140044F06479002000400E4068790020084B45F69D
S2140045000E02D3F88011C3F88021064A126802F41E
S214004510A0721A66CA0744BF0022C3F880217047FB
S21400452000400E406079002030B50F4C4161236892
S214004530ABB92060836011E0891A41619A681D4614
S2140045402AB113465A698A42F6D955B11A46A86066
S2140045501346836013B15A69511A596130BD00255C
S214004560F0E72060F5E700BF8479002010B500F082
S214004570C1FA0A4C0A4B19682368C31A01B10BB971
S214004580206010BD4A699A422EBFD21A9B1A00229A
S2140045904A6128BF00238968F0E700BF70790020D1
S2140045A08479002038B5134D2B685B6993B1124AA5
S2140045B0146802201C4400F0D1FA204600F0A0FA4D
S2140045C00E492A6800230B70D088800709D501237E
S2140045D00B7038BD022000F0C1FA022000F0E4FAA9
S2140045E0EEE79268002AF4D050690344012BEBD919
S2140045F0EFE700BF847900207079002078790020EA
S21400460070B516469DF814200271049A0260C0E93F
S21400461003360022BDF818308260C38004460D467B
S21400462000F068FA3044A0613DB9E368656113B1F3
S21400463021682046984796B13546FEF745FE064661
S214004640FFF794FF29462046FFF76EFF054B1B68D1
S214004650A34201D1FFF7A6FF3046FEF739FE002041
S21400466070BD00BF847900200C490B6800227BB126
S21400467083420AD183687AB1936083681BB15A6912
S21400468041690A445A61002070471A469B68EEE763
S2140046900028EFD0022070470B60EEE784790020F8
S2140046A070B5154EFEF717FE34780546FCB9134B69
S2140046B01C60134B1C60134B1C8000F0D7F90120C4
S2140046C000F04CFA00F0A0FA0F4B0246186020B932
S2140046D02846FEF706FE232070BD23460B4840F210
S2140046E0E73196F081FA0A4B1860012333702846AA
S2140046F0FEF7F7FD0020EFE76E79002084790020B2
S214004700707900207A7900208079002018FCFFFF5D
S214004710747900202DE9F0410546F8B1FEF7D4FD86
S2140047200F4F0646FFF722FF2846D7F80080FFF710
S2140047309BFF044628B13046FEF7CAFD2046BDE87A
S214004740F081A8453B6803D123B1FFF72BFFF2E7C2
S214004750002BF0D1022000F00FFAECE72224EDE760
S2140047608479002070B586B0154605911E4604462D
S21400477080B1FFF7CFFFBDF82C3002939DF82830AC
S2140047800599CDE9006300222B462046FFF738FF47
S21400479006B070BD2220FBE738B50C46054698B13A
S2140047A091B100230B70FEF796FD084B1B680121A4
S2140047B00BB122781AB1FEF794FD002038BDAB424B
S2140047C014BF9B682170F3E72220F7E78479002066
S2140047D0F0B587B01F4600230D4616468DF81730F5
S2140047E00446A0B10DF11701FFF7D6FF9DF817207C
S2140047F07AB9BDF8343002939DF830302946CDE9B9
S214004800007320463346FFF7FBFE07B0F0BD2220BC
S214004810FBE70320F9E738B5FEF75DFD054600F037
S21400482069F904462846FEF75CFD204638BD0000C0
S21400483070B5FEF750FD064600F05CF9084B1D8883
S21400484004460120ADB200F0B7F918B100F052F9F5
S214004850013504463046FEF744FD2046294670BD25
S2140048607A790020014B1868704700BF80790020D5
S21400487070B50C4B1B6883420D4611D30A4B40F2B1
S214004880E7311E6800248C462146E0FB06C14FF443
S2140048907A720023604696F0A7F92860204670BD1D
S2140048A02120FCE7747900208079002010B50F4B9A
S2140048B01A689AB1531E4FF47A711342A0FB010195
S2140048C00ED1B2FA82F2C2F11F04531CE040D2436A
S2140048D001FA03F3184321FA02F20243104610BD10
S2140048E0002396F081F90246F8E700BF80790020A1
S2140048F0164B8342164B8B4170B5154624D3154B89
S2140049001A680AB34FF47A76541EA0FB06031440C6
S21400491006FB013111D1B2FA82F3C3F11F025E1C0D
S21400492001FA06F6DB43D04021FA03F3304318437E
S214004930D140C5E90001204670BD002396F054F929
S2140049400024C5E90001F6E72124F4E7EFA7C64BEB
S2140049503789410080790020C2072DE9F3470446D5
S2140049600BD53F4A138801339BB21380FFF7FEFD39
S2140049703C4B1B680BB1FFF715FEA3076DD5FEF782
S214004980AAFC0546FFF7F2FD0026DFF8D88037467A
S214004990B146D8F800400CB163698BB1324B0022A7
S2140049A0012F1A7002D1022E08BF1F70002C44D0AF
S2140049B0FFF7F8FD284602B0BDE8F047FEF791BCC9
S2140049C023461A792179914288BF1C469B6813B109
S2140049D05A69002AF5D02846FEF783FC256985B378
S2140049E000F088F8A269861AF317B54279EB03033C
S2140049F028DA23691344A3610123226982B17BB9B3
S214004A00A91B0191FEF767FC019982462046FFF735
S214004A108BFDA36922691344A3615046FEF761FC2F
S214004A20E368E688013713B1216820469847FEF709
S214004A3052FC0546FFF79AFDABE7022000F09CF813
S214004A40B8E72E46FEF747FC82462046FFF70CFEE8
S214004A505046FEF746FC0023CFE702B0BDE8F087DD
S214004A607A790020847900207C79002010B51D4BCF
S214004A7086B01868596803AA03C2197AD3F80900E1
S214004A8011700190B3F80D201748DB7BADF80820B5
S214004A9001218DF80A300024FDF77AFF03A88DF86F
S214004AA00C408DF81040FFF7B5FA01A901208DF8EB
S214004AB00440FFF78FFA0D4A536A23F4FF6323F08E
S214004AC00703536240F2FF73136201209460FFF7FE
S214004AD09BFA074B4FF08042C3F880211A6006B05D
S214004AE010BD00BF88CC0900A009140000200440B7
S214004AF000E100E0014B9868704700BF00200440CA
S214004B0010B50446FEF7E0FB124A9368516D9269B1
S214004B10520704D4CA1A032A01D899420DD1E21AC0
S214004B20022A98BFDC1C0B4BB4F1FF3F38BF013C98
S214004B305C655A6A42F004025A62FEF7C9FB064AEE
S214004B40137833B103490B6D43F002030B65002362
S214004B50137010BD00200440080100208207054A9B
S214004B6000F00103516A48BF43F004030B4353624D
S214004B70704700BF00200440820700F0010309D5FB
S214004B80074A0121117007490A6D22F0030243F01B
S214004B9004030A6503494A6A22EA03034B62704724
S214004BA00801002000200440830742BF014B042276
S214004BB0DA61704700200440064B01289B6904D048
S214004BC0022805D1C3F38000704703F00100704748
S214004BD0002070470020044010B5FEF77CFB094A11
S214004BE093690446590703F0010003F0070348BF22
S214004BF040F002001362FFF7AFFE2046BDE810400B
S214004C00FEF76FBB002004400148FEF70DB800BF5A
S214004C10A009140008B50EF07DFA0EF0CDFA0EF0DD
S214004C20D6FA0EF0D6FABDE808400EF0D9BA0EF065
S214004C30C1BA000010B504460FF046FA0B4BA0F5BB
S214004C407A729A4210D84FF47A735C43B0FBF3F052
S214004C50074BB3FBF0F0B4FBF0F0032804D9BDE833
S214004C601040800800F00CB810BD00BFFFC99A3B8A
S214004C7040420F000000000000000000000000009E
S214004C80013800D0FCE77047242070474420704766
S214004C90B02070474FF48070704708B57CF072FA09
S214004CA073F018F974F0AFFD7AF006F976F09BFF12
S214004CB078F051F87AF088FE002008BD024A0349D1
S214004CC0034872F0CFBD00BF98CC0900E8CC0900BD
S214004CD0C0CC090038B50446FEF7F6FA054620466D
S214004CE0FBF777FC04462846FEF7F2FA204638BD66
S214004CF038B50546FEF7E8FA04462846FBF76BFC8F
S214004D002046BDE83840FEF7E3BA70B50368CD1A12
S214004D10002D0DDD93F900601C78002E0BDB5C1C6B
S214004D2004601B7813600368C91A13688B4236D96F
S214004D306FF05F0070BD04F07F04013C032C2BD89D
S214004D40DFE804F0020A1421012DF1D05B7813602D
S214004D50036802330360E6E7022DE9DDB3F80130AD
S214004D605BBA9BB2136003680333F3E7032DDFDD02
S214004D709C785D78DB78240244EA0544234313607C
S214004D8003680433E6E7042DD2DDD3F801301BBAFE
S214004D90136003680533DDE76FF06300CAE70020A1
S214004DA0C8E770B404680E1B002E07DD26789E4206
S214004DB008D10134046070BCFFF7A7BF6FF05F0036
S214004DC070BC70476FF06100FAE737B51D461346B2
S214004DD001AA0446FFF7E5FF18B9019B1BB96FF05F
S214004DE0630003B030BD236893F90030002BF6DB78
S214004DF0019B3BB122681178A9B1042BEFD801D1F1
S214004E000B06ECD400232B60019B5A1E0192002B4C
S214004E10E7D023682A681B7843EA02232B602368BE
S214004E2001332360F0E70132013B22600193DFE7A4
S214004E3013460222FFF7C9BF37B50223154601AA5B
S214004E400446FFF7AEFF40B9019A2168284600F0F5
S214004E504DFC2368019A1344236003B030BD38B577
S214004E6003230446FFF79DFF18B9136813B96FF0C4
S214004E70670038BD013B136023681A78002AF6D114
S214004E8001332360F5E72DE9F34190461F4601AA5A
S214004E90302305460E46FFF784FF0446F0B92B681C
S214004EA0F61A002E37DD42461B7842F8043B01997D
S214004EB02E680E44062331462846FFF772FF044646
S214004EC060B92B68D8F80420C8F808309918B142A1
S214004ED0296007D10C21384604F080FD204602B038
S214004EE0BDE8F0819B5C3A46314642F8043B2B68AD
S214004EF001332B602846FFF708FF04460028EDD153
S214004F002B687A68BB601344B3422B600CBF044620
S214004F106FF06504E2E76FF05F04DFE703687F2A5F
S214004F20A3EB010107D8002969DD591E016003F8CB
S214004F30012C01207047FF2A0DD801295FDD591E7C
S214004F40016003F8012C03685A1E0260812203F8F0
S214004F50012C02207047B2F5803F13D202294EDDA5
S214004F60591E016003F8012C0368120A591E0160DD
S214004F7003F8012C03685A1E0260822203F8012CF3
S214004F8003207047B2F1807F19D2032937DD591EFE
S214004F90016003F8012C0368591E0160110A03F82A
S214004FA0011C0368120C591E016003F8012C0368EB
S214004FB05A1E0260832203F8012C0420704704293D
S214004FC01DDD591E016003F8012C0368591E01609F
S214004FD0110A03F8011C0368591E0160110C03F83E
S214004FE0011C0368120E591E016003F8012C0368A9
S214004FF05A1E0260842203F8012C052070476FF0C9
S2140050006B0070470368591A0029C1BF03F1FF31CE
S2140050100160012003F8012CD8BF6FF06B007047C9
S2140050202DE9F041984605460E4600232968881B60
S214005030002806DC6FF06B042046BDE8F0813B4696
S214005040F4E7481E286001F8012C1212002A03F12A
S2140050500107F4DC296891F90020002A08DA8A1B87
S214005060002AE7DD4A1E2A60002201F8012C9F1C58
S2140050703A4631462846FFF751FF041EDCDB5FFA4E
S21400508088F231462846FFF7BDFF0028A6BFE41980
S21400509024180446D0E770B5064600680D46A842B8
S2140050A011461C4609D3451B9D4206D3C01A3060E4
S2140050B01A4696F05DF9204670BD6FF06B00FBE770
S2140050C02DE9F041074610468846154600F008FBD5
S2140050D039684145064604D26FF06B042046BDE8A9
S2140050E0F081A1EB08028242F6D3091A0246396023
S2140050F0284600F052FB04460028EFD12B68012B0F
S2140051000DD13B6893F90020002A08DAA3EB0802C9
S214005110002AE1DD5A1E3A60013603F8010C3246D9
S21400512041463846FFF7FAFE041ED7DB0222414608
S2140051303846FFF767FF031EA6BFA0191C181C46BB
S214005140CCE7F8B505460E46FFF7A5FF041E11DBB3
S214005150224631462846FFF7E1FE2746041E09DBB5
S214005160062231462846FFF74DFF0028A6BFE41961
S214005170241804462046F8BD0223FFF751BFF8B5B1
S21400518005460E46FFF787FF041E11DB2246314612
S2140051902846FFF7C3FE2746041E09DB04223146D5
S2140051A02846FFF72FFF0028A6BFE4192418044658
S2140051B02046F8BD2DE9F84FDDF828A04FF0000B8B
S2140051C006468846174699465C465D4655450AD3C8
S2140051D0AA4604E00135AA454FF0010304D17CBB82
S2140051E03C60002014E0002319F805002028F1D0C8
S2140051F0AA45F4D0AAEB0502012A0BD00D2809D146
S21400520009EB050252780A2A10D02BB16FF02B005A
S214005210BDE8F88F0A28F7E70106F7D43D2807D13E
S2140052200BF1010BBBF1020FF0D801340135CDE7CD
S214005230BBF1000FEAD101F029FB0028F5DAE5E71B
S21400524004F007030620E408434344430733A4EB73
S2140052500B0404EBD3045EB1444509D800251E4B6D
S214005260CA443446AB46A846D14505D1A41BB7E789
S2140052703C606FF02900CBE719F8010BA0F10A0299
S214005280D2B2162A03D823FA02F2D207ECD43D286B
S2140052904FEA88180ED101350BF1010BBBF1040F54
S2140052A0E2D14FEA1842012D227009D901344FF09D
S2140052B0000BD9E701F0EAFA074B48EA0008EBE7EB
S2140052C04FEA1822627015B102340125EFE784F820
S2140052D00280AB460334C7E709004000F0B5054638
S2140052E00E46074600240F2F44D828096FF00F01FA
S2140052F001FB0055072D38D956F8040B1168E3FB5F
S214005300601442F8041B56F8040B1168E3FB6014A3
S21400531042F8041B56F8040B1168E3FB601442F8CD
S214005320041B56F8040B1168E3FB601442F8041BD8
S21400533056F8040B1168E3FB601442F8041B56F899
S214005340040B1168E3FB601442F8041B56F8040BC8
S2140053501168E3FB601442F8041B56F8040B11684E
S214005360E3FB601442F8041B083D002D74D1002CAA
S2140053707BD1F0BD103F56F8040B1168E3FB6014B8
S21400538042F8041B56F8040B1168E3FB601442F85D
S214005390041B56F8040B1168E3FB601442F8041B68
S2140053A056F8040B1168E3FB601442F8041B56F829
S2140053B0040B1168E3FB601442F8041B56F8040B58
S2140053C01168E3FB601442F8041B56F8040B1168DE
S2140053D0E3FB601442F8041B56F8040B1168E3FB69
S2140053E0601442F8041B56F8040B1168E3FB6014C3
S2140053F042F8041B56F8040B1168E3FB601442F8ED
S214005400041B56F8040B1168E3FB601442F8041BF7
S21400541056F8040B1168E3FB601442F8041B56F8B8
S214005420040B1168E3FB601442F8041B56F8040BE7
S2140054301168E3FB601442F8041B56F8040B11686D
S214005440E3FB601442F8041B56F8040B1168E3FBF8
S214005450601442F8041B46E7013D56F8040B116839
S214005460E3FB601442F8041B7FE713681B1942F83D
S214005470043B2CBF0124002479E701F18041013967
S21400548000EB81018142034600D270471B680A6820
S2140054901BBA12BA40F8042B41F80439F2E72DE99A
S2140054A0F04711F0030418BF01249846436804EB44
S2140054B09104A34205460E4617464FEA840AC1EBFE
S2140054C084091BD34A460021806895F079FF6A68F4
S2140054D0A868121B92000021504495F071FFA9683D
S2140054E0324649444046B847064620B91CB1A8682B
S2140054F02146FFF7C2FF3046BDE8F0876FF003068F
S214005500F9E700230122C0E900238360704710B545
S214005510044668B1806830B16168890004F05EFABC
S214005520A06804F04BFA00230122C4E90023A3601C
S21400553010BD42F21073994270B504460D4602D96A
S2140055406FF00F0070BD43688B4216D204212846C8
S21400555004F02EFA06460028F2D0A16859B1626817
S214005560920095F005FF6168A068890004F036FA9D
S214005570A06804F023FAC4E901560020E2E738B533
S21400558004460D4619B9FFF7C2FF002038BD426831
S2140055908A4207D180689200002195F011FF01230E
S2140055A02360F2E7FFF7B3FF29462046BDE8384000
S2140055B0FFF7BFBF884270B505460E460AD04C6856
S2140055C040686CB9C8B1012382002B60A8682146E8
S2140055D095F0F6FE002010E0B36853F8243013B9B7
S2140055E0013C002CF8D1013433682B60844205D985
S2140055F021462846FFF79DFF40B170BD021BA868F4
S2140056009200002100EB840095F0DAFEB168A868ED
S214005610A20095F0ADFEDDE770B50E46012104460A
S214005620FFF787FF054688B9626801469200A068C2
S21400563095F0C6FEA36886EAE672002EA2EBE67236
S2140056401A60B4BF4FF0FF3301232360284670BDB5
S2140056504368B1EB431F3FBF4A09836853F82200F3
S21400566001F01F013ABF20FA01F101F0010000200D
S2140056707047F0B5002145680A46954202D10024DD
S2140056802046F0BD836853F82260002326FA03F70D
S214005690FF0701EB0304F3D40133202B01EB0304D3
S2140056A0F4D101322146E8E70246406888B19268A4
S2140056B0431E7BB952F8231000204FF000421142DF
S2140056C004D1013020284FEA5202F8D10133C0EB52
S2140056D04310704752F823100029EBD1013BE8E74E
S2140056E008B5FFF7E1FF0730C00808BD2DE9F04117
S2140056F012F0030418BF012404EB920488462146E6
S21400570007461546FFF73BFF064668B965B1BB6816
S214005710C5EB84002A464146184495F029FE1CB184
S214005720B8682146FFF7A9FE3046BDE8F081F8B517
S2140057304368B2EB830F0E464FEA83041CD8134629
S214005740A3420CD1944600239C4517D1944204D220
S214005750121B0021301995F033FE00201CE08768EC
S21400576023F0030C03F00305E90057F80C50CD4076
S214005770EDB27DB90133E3E7A446E4E7876823F09A
S214005780030E03F00301CD0057F80E10E940F15464
S2140057900133D9E76FF00700F8BDF8B504460846B0
S2140057A06368B2EB830F4FEA83051BD9521B8E1832
S2140057B0002195F005FE30462A46811800239A42BD
S2140057C012D10020F8BDA76823F0030C03F00301F4
S2140057D0CE0057F80C10F140C9B289B90133AB427C
S2140057E0F1D1EAE71346FAE7A76823F0030603F0C9
S2140057F00300C500B859E84001F8010D0133DEE7A3
S2140058006FF00700DEE7F8B505460E464C0901F0D6
S2140058101F07FFF749FF6B683044B0EB431F05D8FE
S2140058201F2E0FD8002F41D100200AE010F01F01D4
S21400583018BF012101EB50112846FFF77AFE002819
S214005840EED0F8BD6B686FF003009A00604319460F
S214005850A142A2F104020CD8E21A9C4288BF0022A0
S21400586013449B000022043B191DDBD0A968CA50D4
S214005870F9E7AE6806EB020C01395CF800C046F8A2
S21400588002C0E5E7AB6853F8241001FA07F043F8C6
S2140058902400A86850F82430134340F8243021FA36
S2140058A006F201346B68A342ECD8BDE70022C7F1CC
S2140058B02006F7E7F0B443684C09A34201F01F0244
