S01E0000636869702D65667233322D6C6F636B2D6578616D706C652E73333774
S214000000000004202924020025240200D96D0600E1
S21400001059E90000252402002524020025240200B8
S21400002025240200252402002524020011270200B0
S214000030252402008C000020D1270200D1AE01004A
S214000040252402005DDE0A00252402002524020085
S214000050A9D60A00B5DE0A0069DE0A0081DE0A00BB
S21400006061DE0A00C9C4000035C60000252402006F
S2140000708B320000252402002524020025240200DD
S214000080252402002524020055C60000252402006F
S214000090252402002524020025240200252402002F
S2140000A0252402002524020025240200252402001F
S2140000B0B9DE0A0065DE0A002DF20000F5DE0A0051
S2140000C02524020009C60A00252402002524020071
S2140000D025240200252402002524020025240200EF
S2140000E025240200252402002524020025240200DF
S2140000F025240200252402002524020025240200CF
S21400010025240200252402002524020010B5054CF3
S214000110237833B9044B13B10448AFF300800123AE
S214000120237010BD28080020000000001C1B0D00D6
S21400013008B5034B1BB103490348AFF3008008BD65
S214000140000000002C0800201C1B0D00A3F5803AC0
S214000150704700BF174B002B08BF134B9D46FFF799
S214000160F5FF00218B460F461348144A121AB4F0C6
S2140001705FF80E4B002B00D098470D4B002B00D09D
S21400018098470020002104000D000D48002802D0EA
S2140001900C48AFF30080B3F06FFF2000290002F098
S2140001A0ADFFB3F0DFFD00BF000008000000000058
S2140001B0000000000000042028080020E0E50220DF
S2140001C000000000000000000020704770477047E5
S2140001D02D2070472D2070470020704770476C20F8
S2140001E07047012070470000044A0260044A02601B
S2140001F0044A0260044A0260704700BFD48A0C00BA
S2140002004C5B0B00F45A0B00B85A0B0010B50446B2
S214000210104B036003F13402026103F154020262E0
S21400022003F16802426203F17C0282629033C36289
S214000230443048F0C5FB084BE362084BA362084B0A
S2140002406362084B2362084B2361084B23602046F9
S21400025010BD00BF400C0C00985B0B00385B0B0019
S214000260E05A0B00A45A0B00685A0B00885A0B0081
S21400027038B50546A0F12C04154B40F82C3C03F18C
S214000280340240F81C2C03F1540240F80C2C03F105
S214000290680240F8082C03F17C0240F8042C9033E6
S2140002A0E362183048F08CFB0A4BE3620A4B45F8D1
S2140002B0043C0A4B45F8083C094B45F80C3C094BF6
S2140002C045F81C3C084B45F82C3C204638BD00BF82
S2140002D0400C0C00985B0B00385B0B00E05A0B00E0
S2140002E0A45A0B00685A0B00885A0B0038B505460E
S2140002F0A0F12804144B40F8283C03F1340240F8DF
S214000300182C03F1540240F8082C03F1680240F858
S214000310042C03F17C02A262903343601C3048F048
S2140003204FFB0A4B6B600A4BA3620A4B45F8043C32
S214000330094B45F8083C094B45F8183C084B45F86E
S214000340283C204638BD00BF400C0C00985B0B00D4
S214000350385B0B00E05A0B00A45A0B00685A0B00DF
S214000360885A0B0038B50546A0F12404134B40F814
S214000370243C03F1340240F8142C03F1540240F8F4
S214000380042C03F16802626203F17C02426090333F
S2140003908360203048F014FB094BAB60094B6B6060
S2140003A0094B6362094B45F8043C094B45F8143C7D
S2140003B0084B45F8243C204638BD00BF400C0C00D6
S2140003C0985B0B00385B0B00E05A0B00A45A0B003E
S2140003D0685A0B00885A0B0038B50546A0F1200471
S2140003E0124B40F8203C03F1340240F8102C03F185
S2140003F05402226203F16802426003F17C028260CA
S2140004009033C360243048F0DBFA094BEB60094BAD
S214000410AB60094B6B60094B2362094B45F8103CF7
S214000420084B45F8203C204638BD00BF400C0C0069
S214000430985B0B00385B0B00E05A0B00A45A0B00CD
S214000440685A0B00885A0B0038B505460446124B0E
S21400045040F8103C03F1340244F8102903F154022A
S214000460226203F16802626203F17C02A2629033A8
S214000470E362343048F0A4FA084BE362084BA36208
S214000480084B6362084B2362084B2361084B45F810
S214000490103C204638BD00BF400C0C00985B0B009B
S2140004A0385B0B00E05A0B00A45A0B00685A0B008E
S2140004B0885A0B00032809D8DFE800F0020A060471
S2140004C0044870470448704704487047044870471B
S2140004D00448704748570B0034570B003C570B0036
S2140004E018570B0024570B0005280ED8DFE800F03D
S2140004F0030F0507090B074870470748704707486A
S21400050070470748704707487047074870470748CE
S214000510704700BFAC570B0064570B007C570B00AE
S21400052090570B009C570B0018570B0058570B00A2
S21400053038B5164B1B78BFF35B8F13F0010F01D055
S214000540134838BD1148B2F01DFF0028F8D0104CF3
S214000550104B2360104B2360104B23602046104B3B
S21400056040F8043B62252A460021B3F061FE2A4685
S214000570002104F16600B3F05BFE0448B2F00EFF03
S214000580084A09492046B2F0F6FED9E7440800209A
S21400059048080020B85A0B00F45A0B004C5B0B00BE
S2140005A0D48A0C0000000020E9010000012800D0D9
S2140005B070474FF6FF739942FAD130B583B0FFF714
S2140005C0B7FF014601248DF804400023ADF806303D
S2140005D02348244A02600471C38031228260C360CB
S2140005E08DF80040ADF802301F4D05610475C382DA
S2140005F08261C3611D4A02621D4A42621D4A8262CE
S2140006001D4AC2621D4A026002F13405056102F10C
S2140006105405056202F16805456202F17C058562B3
S2140006209032C2620463416381634FF0FF32C2635B
S21400063043648364A0F84C300365436580F8583003
S21400064080F85C3080F8843080F8A53080F8A830D8
S2140006500164C3630A4A0B49B2F08DFE03B030BD95
S214000660000B0020885A0B00685A0B00A45A0B0097
S214000670E05A0B00385B0B00985B0B00400C0C003C
S214000680000000200D02000010B584B00C460023C8
S2140006900093164B164A10210A201BF095F8154BAE
S2140006A0186090B1144B0293144B019301230093EE
S2140006B0104B4FF48062124920461BF08DFF114B01
S2140006C0186050B1002004B010BD0F4866F044FA20
S2140006D040F2017000F000FCE4E70C4866F03CFADB
S2140006E040F2027000F0F8FBECE700BFAC0A002016
S2140006F00C0A0020FC09002044090020B80B00204A
S2140007007C6B0B00000A0020BC570B00E0570B0068
S21400071030B5A7B004460D4629B1334B1D603348AB
S21400072066F01AFA09E0324866F016FA2F2000F052
S214000730D3FBF2E70A201CF093F903F079FF0028B8
S214000740F8D02C4866F008FA2B4831F0AFFA2B4B5D
S214000750009323460022012129481CF091FE294BD4
S214000760186060B3284B0093234601220A212748CD
S2140007701CF086FE264B186048B32649264866F0CD
S214000780EBF902F01AFD2549254802F035FD64F024
S21400079015FB0368D3F88430984705AB0393812391
S2140007A004933CF07BFC03A93CF022FCB8B903ABF5
S2140007B093E8030077F022FE002027B030BD1948EA
S2140007C066F0CAF940F2047000F086FBCAE71648E5
S2140007D066F0C2F940F2047000F07EFBCDE71348E5
S2140007E066F0BAF9E8E700BF4009002018580B0089
S2140007F0FC570B002C580B00000B0020690B000068
S21400080040580B00040A00201109000064580B0031
S2140008103C0900208C580B0098580B00EC840B0009
S2140008202009002048580B0070580B00B8580B00E1
S21400083010B52E4866F069FCC8B92D4B1B78022B04
S21400084038D02C4B1B6813B1DB7D002B2DD12A4BE7
S2140008501B78002B39D0294B1B78002B35D0284B22
S2140008601B785BB30121274802F0B2FC22E0264C3D
S214000870204668F0DAFF204B1870204668F0E6FF46
S2140008801E4B1870637C042B14BF002301231C4AE4
S2140008901370204668F094FF003818BF01201B4BE9
S2140008A01870124866F03BFCC7E7FA221146154856
S2140008B002F0E0FC134802F0B3FC10BD322240F216
S2140008C0B631104802F0D6FCF4E7104B1B782BB17B
S2140008D0642211460B4802F0CDFCEBE740F2B6323C
S2140008E03221084802F0C6FCE4E700BF504502206B
S2140008F0B81B002040090020080A00201809002024
S214000900380900202009002090860220090A0020CD
S21400091008B5FFF78DFF08BD00B583B00022009232
S21400092013460321094800681CF0FCFD28B1084B5B
S21400093000221A7003B05DF804FB064866F00CF956
S21400094040F2067000F0C8FAF1E700BF040A002083
S2140009500A0A0020D0580B0010B582B00446114B8E
S21400096018681CF093FF78B964230093002322468E
S21400097004210C4800681CF0D5FD01280AD10A4B5A
S21400098001221A7002B010BD084866F0E5F8FFF7BD
S214000990C3FFE9E7064866F0DFF840F2057000F0AE
S2140009A09BFAECE7040A00200A0A0020E8580B002D
S2140009B004590B000388012B2BD110B5154B1B785F
S2140009C01BB1154A1278012A05D01BB1124B1B78B1
S2140009D0022B17D010BD40F6B831104866F0BCF8B0
S2140009E040F6B830FFF7B8FF0B4B02221A700C4CDB
S2140009F00021204602F0ECFB4FF4FA71204602F08C
S214000A003FFCE7E7044B00221A70064879F07EF8B0
S214000A10E0E770470A0A0020B81B002020590B00A8
S214000A2020090020E886022010B50379012B0CD09F
S214000A301E4B1B781BB11E4A1278012A15D01BB11B
S214000A401B4B1B78022B27D010BD184B1B78002B96
S214000A50FAD1174B1B78002BF6D140F6B830FFF7CB
S214000A607BFF134B01221A70EEE7FFF755FF104B82
S214000A7000221A700F4868F0D8FE48B90D4C0121C4
S214000A80204668F085FE0021204668F089FEDBE7F8
S214000A90094866F061F8D7E7FFF73EFF044B0022EF
S214000AA01A70064866F058F8CEE700BF0A0A00201B
S214000AB0B81B00209086022060590B00A0590B003E
S214000AC010B582B00B4B1C681BF094FE0246002348
S214000AD00093012120461CF025FD012801D102B01B
S214000AE010BD054866F038F840F2057000F0F4F9DD
S214000AF0F5E700BF3C090020C0590B0000B583B0E5
S214000B00164B1B682BB30146EFF3058343B901224E
S214000B10124800681AF024FFB8B103B05DF804FB71
S214000B200023019301AA0D4800681BF047F8019BBB
S214000B30002BF1D04FF0E0234FF08052C3F8042D85
S214000B40BFF34F8FBFF36F8FE6E7054866F004F8F4
S214000B50E3E7044866F000F8DFE700BFFC09002082
S214000B60D8590B00085A0B0000B585B00123ADF824
S214000B7000300190034B03936846FFF7BFFF05B0B4
S214000B805DF804FBB509000008B5CB6813B108464C
S214000B90984708BD014865F0DFFFFAE7305A0B00BA
S214000BA010B50446124B036003F13402026103F1F0
S214000BB05402026203F16802426203F17C0282621E
S214000BC09033C362443047F0FBFE0A4BE3620A4BA5
S214000BD0A3620A4B63620A4B23620A4B23610A4BE9
S214000BE02360B8212046B2F0CBFB204610BD00BFE4
S214000BF0400C0C00985B0B00385B0B00E05A0B00B7
S214000C00A45A0B00685A0B00885A0B0038B50546E4
S214000C10A0F12C04174B40F82C3C03F1340240F8AA
S214000C201C2C03F1540240F80C2C03F1680240F827
S214000C30082C03F17C0240F8042C9033E362183051
S214000C4047F0BEFE0C4BE3620C4B45F8043C0C4BE5
S214000C5045F8083C0B4B45F80C3C0B4B45F81C3C48
S214000C600A4B45F82C3CB8212046B2F089FB2046BA
S214000C7038BD00BF400C0C00985B0B00385B0B00C7
S214000C80E05A0B00A45A0B00685A0B00885A0B0057
S214000C9038B50546A0F12804164B40F8283C03F169
S214000CA0340240F8182C03F1540240F8082C03F1E3
S214000CB0680240F8042C03F17C02A2629033436081
S214000CC01C3047F07DFE0C4B6B600C4BA3620C4B4C
S214000CD045F8043C0B4B45F8083C0B4B45F8183CD4
S214000CE00A4B45F8283CB8212046B2F049FB20467E
S214000CF038BD00BF400C0C00985B0B00385B0B0047
S214000D00E05A0B00A45A0B00685A0B00885A0B00D6
S214000D1038B50546A0F12404154B40F8243C03F1F1
S214000D20340240F8142C03F1540240F8042C03F16A
S214000D306802626203F17C02426090338360203076
S214000D4047F03EFE0B4BAB600B4B6B600B4B63628E
S214000D500B4B45F8043C0B4B45F8143C0A4B45F846
S214000D60243CB8212046B2F00BFB204638BD00BF1D
S214000D70400C0C00985B0B00385B0B00E05A0B0035
S214000D80A45A0B00685A0B00885A0B0038B5054663
S214000D90A0F12004144B40F8203C03F1340240F844
S214000DA0102C03F15402226203F16802426003F140
S214000DB07C0282609033C360243047F001FE0B4B08
S214000DC0EB600B4BAB600B4B6B600B4B23620B4B20
S214000DD045F8103C0A4B45F8203CB8212046B2F0B6
S214000DE0CFFA204638BD00BF400C0C00985B0B00C5
S214000DF0385B0B00E05A0B00A45A0B00685A0B0035
S214000E00885A0B0038B505460446144B40F8103C8B
S214000E1003F1340244F8102903F15402226203F16C
S214000E206802626203F17C02A2629033E3623430AD
S214000E3047F0C6FD0A4BE3620A4BA3620A4B6362A5
S214000E400A4B23620A4B23610A4B45F8103CB82133
S214000E502046B2F095FA204638BD00BF400C0C0084
S214000E60985B0B00385B0B00E05A0B00A45A0B0093
S214000E70685A0B00885A0B0010B50446064B0360F0
S214000E80064B0360064B0360064B0360D021B2F0AE
S214000E9077FA204610BD00BFD48A0C004C5B0B00CE
S214000EA0F45A0B00B85A0B0008B54FF6FF71012034
S214000EB0FFF77CFB08BD000008B50146054865F055
S214000EC04BFE4FF0300383F31188BFF36F8FBFF3F1
S214000ED04F8FFEE7A45B0B0008B5FFF7EDFF0000A1
S214000EE0124A12F0070F1ED0D11D21F00701C1F5DE
S214000EF0084313440A460E4802600021416013442A
S214000F00083B23F007030B48036059601960991AE1
S214000F1051601360084B1960084B1960084B4FF07E
S214000F2000421A6070474FF40843E4E7C01B0020F5
S214000F30D4A30020BC1B0020C8A30020C4A300200C
S214000F40C0A3002010B560B304461BF04BFC54F859
S214000F50043C154A126813420FD054F8081CC9B155
S214000F604FF0300383F31188BFF36F8FBFF34F8FBB
S214000F700E490F48B3F0F8FCFEE74FF0300383F35A
S214000F801188BFF36F8FBFF34F8F0A490848B3F03D
S214000F90EBFCFEE723EA0203A3F108041BF0DCFCEB
S214000FA000E00024204610BDC0A30020205C0B00FB
S214000FB0045C0B00D45B0B00014B1868704700BF45
S214000FC0C4A30020014B1868704700BFC8A30020C8
S214000FD008B521F0AFFB034B1A68034B1A6021F0EB
S214000FE0D3FB08BDC4A30020C8A30020F8B507465D
S214000FF01BF0F8FB174B1B6893B14FF0FF3600252C
S2140010002C4604E01B68144A12689A420CD001343D
S2140010105A68AA4200D91546B242F3D21646F1E7FC
S2140010204FF0FF3600252C461BF096FC7D60BE6018
S214001030FC6021F07FFB094B1B683B60084B1B687C
S2140010407B61084B1B68BB61074B1B683B6121F04B
S2140010509BFBF8BDD4A30020BC1B0020C4A300202B
S214001060CCA30020D0A30020C8A3002010B588B0D1
S2140010700446164B1B6893B1144B1A461B68A342D2
S214001080FBD351685018A0420DD0616860188342A7
S2140010900ED02360944200D0146008B010BD01A8A2
S2140010A0FFF7A4FFE8E76068014451601446ECE7E8
S2140010B007480068834206D05B681944616013687D
S2140010C01B682360E6E72060E4E700BFD4A30020A7
S2140010D0BC1B002038B504461BF084FB444B1B6841
S2140010E0EBB1444B1B681C421CD1631E13F10A0F64
S2140010F00BD804F1080214F0070F05D022F00703FE
S2140011000833934260D91A4682B91BF025FC0025A5
S21400111066F016FA15F0070F5CD1284638BDFFF7C3
S214001120DFFEDEE71BF018FC0025F1E7324B1B68FC
S214001130934202D331490C6805E01BF00DFC0025F4
S214001140E6E721461C466368934202D22368002BDA
S214001150F7D1274B1B68A34218D00D6808352368C3
S2140011600B6063689B1A102B18D9A01810F0070F95
S21400117010D04FF0300383F31188BFF36F8FBFF3A7
S2140011804F8F1F491F48B3F0EFFBFEE71BF0E4FB51
S2140011900025BDE743606260FFF768FF6268164996
S2140011A00B689B1A0B60184909688B4201D21649D6
S2140011B00B60104B1B681343636000232360134AC5
S2140011C013680133136000E000251BF0C5FB002DFB
S2140011D0A0D19DE74FF0300383F31188BFF36F8FE4
S2140011E0BFF34F8F0A490748B3F0BEFBFEE700BFC8
S2140011F0BC1B0020C0A30020C4A30020D4A3002052
S214001200405C0B00045C0B00C8A30020CCA30020AD
S2140012107C5C0B0038B501FB00F419B1B4FBF1F1AE
S21400122081420AD12046FFF755FF054618B12246EF
S2140012300021B2F0FDFF284638BD0025FBE7000080
S21400124000283CD038B50446A0F1080550F8043C08
S2140012501B4A126813420FD050F8081CC9B14FF051
S214001260300383F31188BFF36F8FBFF34F8F154999
S2140012701548B3F079FBFEE74FF0300383F311888F
S214001280BFF36F8FBFF34F8F10490F48B3F06CFB5F
S214001290FEE723EA020340F8043C1BF0A3FA54F8E6
S2140012A0041C0B4A13680B4413602846FFF7DEFE47
S2140012B0084A1368013313601BF04EFB38BD7047B5
S2140012C0C0A30020205C0B00045C0B00D45B0B006A
S2140012D0C4A30020D0A30020F8B505460C46FFF7AF
S2140012E031FED8B10746A4B1A04201D12E461AE07D
S2140012F021460120FFF78EFF0646A0B13A46A742D8
S21400130028BF22462946B2F06BFF2846FFF798FF13
S21400131009E02846FFF794FF002604E02146012056
S214001320FFF778FF06463046F8BD08B50DF0A4FF77
S21400133017F02CFC65F004FC08BD10B582B0002246
S214001340ADF8062003689C680DF10603A04719282F
S21400135002D020B1002000E0012002B010BD012024
S214001360FBE7052B01D8002070472F2070470000B0
S214001370014B0360704700BFDC5E0B00024A026050
S214001380024A0260704700BF005F0B00DC5E0B0085
S214001390024A0260024A0260704700BFEC5E0B0021
S2140013A0E05D0B00024A0260024A0260704700BF1E
S2140013B0BC5E0B00F45D0B00034A0260034A026049
S2140013C0034A0260704700BFD8A50C0020A50C0099
S2140013D0885E0B00024A0260024A0260704700BF45
S2140013E000A90C00A85E0B0008B502F085FA08BD3F
S2140013F0038848F20102934204D048F20202934264
S21400140012D0704790F90820012AF6D110B5094885
S21400141065F0A2FB5AF04CF803685C690023064AA4
S21400142040F6B831A04710BD90F90930012BE8D13D
S214001430ECE700BFBC5C0B00E9130000012800D0FD
S214001440704708B54FF6FF73994200D008BD0948AB
S214001450094B0360094B0360002343608360C3604D
S2140014600374436103764376054A0649B1F083FF69
S214001470ECE700BF98A60020505E0B007C860C00B0
S214001480000000204D90060010B50446034B036094
S2140014903821B1F075FF204610BD00BFDC5E0B00A2
S2140014A010B50446044B0360044B03603821B1F0CA
S2140014B067FF204610BD00BF005F0B00DC5E0B0020
S2140014C010B50446044B0360044B03600421B1F0DE
S2140014D057FF204610BD00BFEC5E0B00E05D0B0022
S2140014E010B50446044B0360044B03600821B1F0BA
S2140014F047FF204610BD00BFBC5E0B00F45D0B002E
S21400150008B5104B0360D0F8F4317BB9D0F84831F9
S21400151073B9D0F804316BB9D0F8983063B9436D1D
S21400152063B9036963B9084B036008BDB2F0E6FB14
S214001530B2F0E4FBB2F0E2FBB2F0E0FBB2F0DEFBAE
S214001540B2F0DCFB28980C00645D0B0038B504464E
S2140015500C4B036043688BB1437C4BB9C5683DB107
S21400156035B12B681B6828469847284663F0C0FCB0
S2140015700023E3606374237423726360024B23606A
S214001580204638BD28580C00505E0B00406818B145
S21400159008B565F079FA08BD03207047406858B171
S2140015A000B583B04FF0000C8DF807C032B165F07F
S2140015B03DFA03B05DF804FB032070470BB12F2003
S2140015C0F7E70DF10702F2E770B582B00446A34BC9
S2140015D01B78BFF35B8F13F0010F45D0A04B1B7831
S2140015E0BFF35B8F13F0010F4CD09E4B1B78BFF3FD
S2140015F05B8F13F0010F53D09B4B1B78BFF35B8FB1
S21400160013F0010F6AD0994B1B78BFF35B8F13F072
S214001610010F00F0D180964B1B78BFF35B8F13F061
S214001620010F00F0DD80934B1B78BFF35B8F13F048
S214001630010F00F0EB802369002B00F0F680236B8F
S214001640002B00F0F780636B002B00F051818A4D71
S214001650216928466EF078FF28466DF081FF002845
S21400166000F0598102B070BD7C48B1F08BFE0028B6
S214001670B4D07A48B1F092FE804A81498148B1F0F0
S2140016807AFEABE77648B1F07DFE0028ADD0744810
S214001690B1F084FE794A7C497C48B1F06CFEA4E740
S2140016A07048B1F06FFE0028A6D0794D794B2B60BC
S2140016B0794B2B6000236B602B72EB602B616B61A8
S2140016C0AB61EB612B6285F824306648B1F066FEAC
S2140016D06A4A72492846B1F04EFE8DE76248B1F07C
S2140016E051FE00288FD064486D4B0360032383802F
S2140016F0C380002585606B4B0360C5601423009390
S214001700022300F1280200F12C01103057F0D8FB1C
S2140017102B46002B01DB013BFBE7634A14230093B7
S2140017200223111DA2F1180057F0CAFB0023002B5C
S21400173001DB013BFBE75D4A282300930223111DD2
S214001740A2F1180057F0BCFB0023002B01DB013B85
S214001750FBE7574A142300930223111DA2F1180039
S21400176057F0AEFB0023002B01DB013BFBE7514AA1
S214001770482300930223111DA2F1180057F0A0FB86
S2140017800023002B01DB013BFBE74B4A2C23009395
S2140017900223111DA2F1180057F092FB0023002B24
S2140017A001DB013BFBE73048B1F0F8FD334A434923
S2140017B03148B1F0E0FD26E72C48B1F0E3FD002803
S2140017C03FF429AF3E4D3F4B2B603F4B2B602748E5
S2140017D0B1F0E4FD294A3D492846B1F0CCFD1AE7B0
S2140017E02348B1F0CFFD00283FF41DAF384D394BEC
S2140017F02B60394B2B60394B2B601D48B1F0CEFD6A
S2140018001E4A37492846B1F0B6FD0CE71948B1F034
S214001810B9FD00283FF40FAF1648B1F0BFFD174AD8
S21400182030493148B1F0A7FD05E7164B2F4A5A60FC
S214001830236104E72269154B5B6833B10320002857
S2140018407FF410AF114B2363FDE6104B0020187297
S21400185058745A60D8601874F1E700BF90A600204C
S2140018608CA6002060A60020F4A30020ECA3002095
S214001870E0A30020DCA30020F8A300200000002046
S214001880A51300001C0000204D15000008000020D5
S21400189064A60020145E0B00389B0C00591900004B
S2140018A0645D0B0028980C0064A40020A8A4002007
S2140018B014A5002058A5002004A60020011500004D
S2140018C0F0A30020E05D0B00EC5E0B00911300001F
S2140018D0E4A30020885E0B0020A50C00D8A50C0011
S2140018E0B9130000D5130000040000204045022074
S2140018F02569144B5B6833B1032000287FF4B2AE31
S214001900104B6363A3E60F4E33689B6A30469847D6
S21400191075600020F1E70C4BE361236983B10B4A45
S2140019205360002000287FF49DAE084B63615EF094
S21400193055FB2062064B6362064BA361002091E6CE
S2140019402F20EFE764A60020F8A30020E4A30020E1
S21400195004000020F0A3002010B50446124B0360DC
S214001960436823B1104B9B6A9847002363600022AC
S2140019702262E06918B163F0BBFA0023E36100223B
S214001980A261606918B163F0B3FA002363610022B4
S2140019902261E06818B163F0ABFA0023E360034B02
S2140019A02360204610BD00BF389B0C00145E0B0061
S2140019B010B5134B0360D0F8F431ABB90446D0F839
S2140019C048319BB9D0F8043193B9D0F898308BB928
S2140019D0436D8BB903698BB90A4B03604FF41A71D8
S2140019E0B1F0CEFC204610BDB2F088F9B2F086F910
S2140019F0B2F084F9B2F082F9B2F080F9B2F07EF972
S214001A0028980C00645D0B0010B50446144B036068
S214001A10436823B1124B9B6A9847002363600022F9
S214001A202262E06918B163F063FA0023E3610022E2
S214001A30A261606918B163F05BFA0023636100225B
S214001A402261E06818B163F053FA0023E360054BA7
S214001A50236028212046B1F093FC204610BD00BF2D
S214001A60389B0C00145E0B0038B504460E4B036022
S214001A7043688BB1437C4BB9C5683DB135B12B6823
S214001A801B6828469847284663F032FA0023E3602E
S214001A906374237423726360044B2360142120460E
S214001AA0B1F06EFC204638BD28580C00505E0B0086
S214001AB038B504463749384811F098F9374D284666
S214001AC065F04AF82146364865F046F8284665F03F
S214001AD043F83BF0E3FA034600B10433184659F0E6
S214001AE06BFC3BF0DBFA59F06BFB2E4865F034F8E4
S214001AF00021084657F05CF900B138BD2A4B1B7828
S214001B0083B300200028F8D12146284867F050FE0D
S214001B10274865F0F3FA274B1B78BFF35B8F13F06B
S214001B20010F28D0244D284667F050FB234C256330
S214001B302046FFF749FD2146214878F07FF81C4CE7
S214001B40204665F0ECFA00221E49204665F0FAF9B8
S214001B501D4865F001F8204665F0A2FB0028CCD1B0
S214001B600020CAE7104D284665F0F2FBB0FA80F375
S214001B705B092B70C6E70F48B1F004FC0028D1D0F3
S214001B800C48B1F00BFC114A11490C48B1F0F3FBBC
S214001B90C8E700BF218E0500198E0500E45C0B0027
S214001BA0185D0B00245D0B0048450220908602203D
S214001BB05045022094A6002098A60020240000206D
S214001BC0E8860220F1130000345D0B0000000020C0
S214001BD07D13000008B564F0BFFC08BDB0F5803F7B
S214001BE02CBF0020012070474068E0B170B584B07B
S214001BF01D4600238DF80F30BAB1002302930193DF
S214001C0002AB00932B8864F0F3FE0446192800D03C
S214001C1030B9029E3046FFF7E1FF68B900262E80F5
S214001C20204604B070BD032070472B880BB12F20D0
S214001C30F7E70DF10F02E0E7B6B2F0E710B504469D
S214001C40054B0360054B0360054B03600821B1F0AC
S214001C5097FB204610BD00BFD8A50C0020A50C00A1
S214001C60885E0B0010B50446044B0360044B03600B
S214001C700421B1F085FB204610BD00BF00A90C0072
S214001C80A85E0B0008B54FF6FF710120FFF7D6FBE4
S214001C9008BD0000024A0260024A0260704700BFA8
S214001CA034630B0020630B0008B5034A02211D2095
S214001CB057F00AFA08BD00BF0C5F0B0008B5034AD0
S214001CC002211D2057F000FA08BD00BF1C5F0B0064
S214001CD008B5044A02211D2057F0F6F9024BFF22F0
S214001CE01A7008BD2C5F0B005C00002038B50D464E
S214001CF0012804D915B9094B01225A7138BD04468A
S214001D0050B90749074864F027FF211E18BF012174
S214001D10054801F05DFAEDE70449F3E7ECA600207C
S214001D207C6B0B00505F0B00B8A60020485F0B00D2
S214001D3008B528B1012807D00A4B5B7943B908BD1E
S214001D40094864F009FFF7E7084864F005FFF3E781
S214001D5000220749074865F005FA024B00225A712F
S214001D60EDE700BFECA60020705F0B00905F0B0055
S214001D701D1E00005045022010B5002214460388A0
S214001D80022B04D033B140F203746CB110BD02795B
S214001D908168FAE7094800F09CFB10B100210A466A
S214001DA0F3E700210122F0E7044800F0DFFB0028FB
S214001DB0ECD1034864F0D0FEE8E700BFF4A60020AC
S214001DC0B45F0B0001B300B585B00846002300934E
S214001DD00193029303938DF804200C4B994205D08F
S214001DE00B4B98420AD005B05DF804FB012AF7D1E8
S214001DF0084B03936846FEF781FEF4E7064B039311
S214001E006846FEF77BFEEEE7704700BFB8840B001F
S214001E10A0840B00791D0000290A000010B50A48AE
S214001E2000F057FB48B1022427F0B4FD00232246F9
S214001E3001212BF00EFA10B110BD0124F4E70121A8
S214001E40024864F089FEF7E7F4A60020E05F0B0086
S214001E5010B50446044B0360044B03600821B1F040
S214001E608FFA204610BD00BF34630B0020630B00C2
S214001E70012800D070474FF6FF739942FAD130B56B
S214001E8085B00F4D0023039302930E4B019302235C
S214001E9000930D4B0D4A012128462FF01BFC0C4CDD
S214001EA022460C492846B1F066FA0B480B4B0360F5
S214001EB00B4B036022460B49B1F05DFA05B030BD0E
S214001EC0D0A60020E91E0000BD1C0000A91C0000D2
S214001ED00000002011170300ECA6002020630B0072
S214001EE034630B00951C000070B50446037D224A3F
S214001EF013700B2B10D0204B1B78FE2B23D015D83D
S214001F00022B32D859F0D4FA03685D6923461B4A7F
S214001F1041F28831A84770BD837D194A02211D20F1
S214001F2057F0D2F8A27D144B1A70E4E7FF2B1CD1B1
S214001F3059F0BEFA03689B692246104998470E4B33
S214001F40FF221A70E7E759F0B3FA03689B690B4D56
S214001F5022462946984759F0ABFA03685E6923463D
S214001F602A464FF47A71B047D5E7064A02211D206B
S214001F7057F0AAF8CFE700BF5C000020D11C000095
S214001F80FC5F0B0050600B0010B588B07449FEF77C
S214001F90BFFB002840F0A18000248DF8084071485F
S214001FA065F0ACF802A9012024F0E0FC8DF80740AB
S214001FB027F0F0FC0DF10702012128F0F1FE0028C1
S214001FC000F093800023ADF8043027F0E3FC01AA6C
S214001FD0012128F093F8002800F0918000238DF866
S214001FE0033027F0D7FC0DF10302012128F02AFE6A
S214001FF0002800F08E8000238DF8023027F0CAFCFF
S2140020000DF10202012128F05FFE002800F08B800F
S21400201000238DF8013027F0BDFC0DF101020121EF
S21400202029F00AF8002800F088804E4865F077F816
S2140020309DF808308DF80C301BB19DF809308DF8EE
S2140020400D3004AB00220492ADF81420BDF8042035
S214002050ADF810209DF807208DF812209DF803207B
S2140020608DF813209DF802208DF814209DF801208D
S2140020708DF8152093E803000690ADF81C1008AB09
S21400208013E90C0003A9384800F01AF904460028A2
S2140020905DD1364A3649344800F018FA3549364894
S2140020A001F0AAF89DF80830002B57D09DF80910CB
S2140020B0022914BF002101212F4801F089F80022CF
S2140020C02E49284865F04EF862F078FE0368D3F88B
S2140020D084309847204608B010BD0446284864F06F
S2140020E03BFD2046FEF7F8FE56E70123254A194633
S2140020F01D2056F0E9FF05238DF8073062E701231F
S214002100214A19461D2056F0DFFF0A23ADF8043099
S21400211064E701231D4A19461D2056F0D5FF0A2301
S2140021208DF8033067E70123194A19461D2056F03B
S214002130CBFF0A238DF802306AE70123154A1946B9
S2140021401D2056F0C1FF0A238DF801306DE71248B6
S21400215064F002FD2046FEF7BFFE9AE7B1F0CEFD22
S214002160D0A6002050450220F4A60020311D000015
S214002170ED1C000004850B00B8A600201D1E000004
S21400218068600B0088600B0000610B006C610B0040
S214002190E4610B005C620B00D4620B0030B585B0C6
S2140021A004681248FFF7F0FEC0B9FEF789FC104835
S2140021B064F0D2FC0F4800F01DF90A22694620465A
S2140021C019F00AFE0128F8D169460848FEF7DCFC3B
S2140021D000226946204619F0FFFDF3E7054606484B
S2140021E064F0BAFC2846FEF777FEDEE7ECA6002091
S2140021F004630B00F4A60020EC620B0008B502494D
S214002200FEF742FA08BD00BF9D21000008B54FF654
S214002210FF710120FFF72CFE08BD08B543689878CB
S21400222028B901229A709B6803B1984708BD022816
S214002230FCD103229A700120F5E70000012800D0A7
S21400224070474FF6FF739942FAD10921104B06E00A
S21400225000221A605A609A60DA601C33013900293D
S214002260F6DA63220B4B04E00021596099601033C4
S214002270013A002AF8DA084B0022A3F8202483F853
S214002280222483F8232483F8242483F82524D7E7FC
S21400229000A7002018A80020F4B6002000B585B0DE
S2140022A01BF016FB0123ADF800300190034B03939F
S2140022B06846FEF723FC05B05DF804FB1B22000011
S2140022C030B585B004460D4602A880E80C0004F53B
S2140022D0805C04F5A15303C843F8042B1980BCF8AE
S2140022E020340A2B1ED804F5805393F822340A2B88
S2140022F020D804F5805393F823340A2B21D804F50C
S214002300805393F824340A2B22D804F5805393F88C
S21400231025340A2B23D90A21204864F01DFC40F2FC
S214002320077005E00A211E4864F016FC40F20770AC
S21400233005B030BD0A211B4864F00EFC40F2077061
S214002340F6E70A21154864F007FC40F20770EFE74D
S2140023500A21124864F000FC40F20770E8E7124BCE
S214002360009323460022012110481BF089F8104BE9
S214002370186040B12B7863B16B78022B0BD0012329
S214002380A3700020D4E70B4864F0E6FB40F204702C
S214002390CEE7B1F0B3FC0323A370F2E724640B008E
S2140023A040630B00AC630B009D22000098640B009A
S2140023B01CBB0020A0640B0009298CBF0020012054
S2140023C0704722B109298CBF002001207047B1FA5E
S2140023D081F04009704709298CBF00200120704712
S2140023E009298CBF00200120704709298CBF0020D6
S2140023F00120704730B583B0044601AB4FF48C72B1
S21400240000F10C01294863F063FF01AB4FF4C8628A
S21400241004F59271264863F05BFF01AB642204F674
S2140024200C71244863F054FF01AB4FF4487204F576
S2140024307761214863F04CFF04F58055B5F82024F9
S21400244095F8223403FB02F201AB920004F5945196
S21400245010311A4863F03CFF95F82324B5F8203471
S21400246003FB02F201AB02EB820204F26471144831
S21400247063F02EFF95F82424B5F8203403FB02F20F
S21400248001ABD20004F6BC110E4863F021FF95F8AC
S214002490252402EB420201AB920004F66C610A4866
S2140024A063F016FF012003B030BD00BF10730800B4
S2140024B011730800127308001373080014730800E1
S2140024C015730800167308001773080041608260D1
S2140024D070478078032814BF002001207047000052
S2140024E000B583B000220092134603210748006817
S2140024F01BF018F810B103B05DF804FB044864F054
S2140025002BFB40F20670FEF7E7FCF4E71CBB00204E
S214002510C0640B0030B583B005460C46104B1868F7
S2140025201BF0B4F960B9642300930023224604210B
S2140025300B4800681AF0F6FF012808D103B030BD3A
S214002540084864F009FB2846FFF7CAFFEBE7064891
S21400255064F002FB40F20570FEF7BEFCEEE700BF3B
S2140025601CBB0020E8580B00DC640B00F8B50446E2
S2140025700E4615468378012B03D0032B05D000208A
S214002580F8BD012AF9D1022701E065B92F460A21D4
S2140025902046FFF7BFFFA770636833B13146284671
S2140025A098470120ECE70020EAE70120E8E7000072
S2140025B02DE9F0418CB0002A6AD007460E461D462B
S2140025C002F1FF3C1FFA8CF42146FFF7F5FE804629
S2140025D000285FD000943346304A02211D2056F072
S2140025E073FDC4EBC40307EB830393F820302B750D
S2140025F0002B46D0C4EBC40307EB8303D9681A69E3
S2140026000891099208AA92E8030085E8030004EB03
S214002610840141F2902202EBC1023A4499690A927F
S2140026200B9105F108020CA911E9030082E80300EA
S214002630DA692A6193F82110697593F822C085F843
S21400264016C00120E87593F824302B766876C4EB24
S214002650C40407EB840090F82600A8766F682C6800
S214002660ED6807900693CDF814C004910392029586
S2140026700194009733460A4A03211D2056F024FD94
S21400268008E03346074A03211D2056F01DFD01E0F1
S2140026904FF0000840460CB0BDE8F081FC640B002B
S2140026A060650B003C650B002DE9F04F9BB00546BE
S2140026B00C91144618460D939DF890B0259F9DF8F2
S2140026C09CA09DF8A0909DF8A4802B9E3B68099640
S2140026D02A9A0892CDF81C80CDF81890CDF814A050
S2140026E0269A04920393CDF808B0019000940B4606
S2140026F0624A02211D2056F0E7FC002C00F0B7804D
S214002700013CA4B221462846FFF756FE0B9000284F
S21400271000F0AF807B680A2B46D805F5805393F807
S2140027202234B3424AD304EB84035B0003F60873F7
S2140027302B4410AA97E8030082E803000DF1480C2A
S2140027408CE8030004330E9310D0092319931891D4
S21400275008293ED919AB1B680F931A4612990E9892
S214002760B1F03EFD00230E990F9A8B547B680E9AAB
S21400277014921593C4EBC40305EB830303F10C0218
S21400278014A903C982E80300269ADA6183F820A018
S21400279083F8219083F8228083F826B00D9A83F878
S2140027A0242000222A9F28E000940C9B344A012112
S2140027B01D2056F089FC00230B935AE001960094E6
S2140027C00C9B304A01211D2056F07EFC00230B9303
S2140027D04FE018ABBFE704EB840302EB430303F2BE
S2140027E0A44305EB830157F8220045F82300012097
S2140027F005F8230013184B801A46B242EBD304EBBD
S214002800840341F2902707EBC3032B4416931796D5
S214002810C4EBC40305EB8303143316AA92E8030043
S21400282083E8030005F58056B6F82024C2EBC20202
S214002830920005F10C01144863F058FEB6F8202407
S21400284096F8223403FB02F29200E9190F4863F06F
S2140028504DFE642205F60C710D4863F047FE0094A9
S2140028600C9B0C4A02211D2056F02EFC01E0002392
S2140028700B930B981BB0BDE8F08F00BFE8650B000C
S214002880A8660B00E8660B001073080014730800B7
S214002890127308004C670B00F0B583B0054614466B
S2140028A0089E1F46002B3CD11A462146FFF789FD9D
S2140028B0034698B300943B46224A02211D2056F058
S2140028C003FC04F1120305EB03131B793370009429
S2140028D01D4A03211D2056F0F7FB33785BB304F145
S2140028E0120205EB0212537973700832371D92E814
S2140028F0030087E8030005EB041494F83121727393
S21400290094F83321F27301243473B473B2680092DE
S2140029100E4A03211D2056F0D7FB2346184603B067
S214002920F0BD541EA4B21A462146FFF74AFD0346E0
S2140029300028BFD1F2E7064A03211D2056F0C4FB4B
S2140029400123EBE780670B00D0670B001C680B00C9
S214002950FC670B002DE9F04F87B0054614469846F5
S2140029609DF840A09DF844B09DF84870DDF84C9066
S214002970002F52D13A462146FFF723FD0346002892
S21400298047D0D9F80430CDF80CA0CDF808800193D4
S21400299000975B46264A02211D2056F095FB04F15F
S2140029A0120605EB061686F804B0777105EB0413DD
S2140029B083F8318183F833A104F5F77405EBC4047A
S2140029C0D9F80420D9F800102046B1F009FCD9F84F
S2140029D0043004940593083606AB13E9030086E832
S2140029E0030005F5805393F82224120105F5927131
S2140029F0104863F07BFD4FF4487205F577610E488A
S214002A0063F074FD3B460D4A02211D2056F05CFB28
S214002A100123184607B0BDE8F08F541EA4B23A460C
S214002A202146FFF7CEFC03460028AAD1F1E700BFF7
S214002A304C680B001173080013730800CC680B0079
S214002A4042B370B505463BB3511ECEB2013B9CB2B5
S214002A503146FFF7C0FC08B321462846FFF7ACFC1A
S214002A60F0B106EB4603C4EB0412920002EB4303FC
S214002A702B4493F86437ABB106EB460102EB4101F9
S214002A800D44D5F86537049A136095F869371371C5
S214002A90002002E001207047012070BD0120FCE705
S214002AA00120FAE78B20F8E7002A4CD070B50546DF
S214002AB0002B4AD0511ECEB2013B9CB23146FFF7E6
S214002AC08AFC002843D021462846FFF775FC08B943
S214002AD001203BE006EB4602C4EB04139B0003EB2D
S214002AE042032B449DF8142083F865279DF8182090
S214002AF083F866279DF81C2083F867279DF820201A
S214002B0083F868279DF8242083F8692706EB460695
S214002B10C4EB04139B0003EB46032B449DF81020E4
S214002B2083F8642705F5805393F82324B3F82034FC
S214002B3003FB02F202EB820205F26471054863F0C1
S214002B40D5FC002002E001207047012070BD012066
S214002B50FCE700BF1573080042B370B505463BB3EB
S214002B60511ECEB2013B9CB23146FFF739FC08B38A
S214002B7021462846FFF720FCF0B106EB4603C4EBDF
S214002B800412D20002EB83032B4493F8BC39ABB19A
S214002B9006EB460102EB81010D4405F51C6595E840
S214002BA00300049B83E80300002002E00120704736
S214002BB0012070BD0120FCE70120FAE78B20F8E732
S214002BC0002A3CD070B50546002B3AD0511ECEB236
S214002BD0013B9CB23146FFF703FCA0B321462846D2
S214002BE0FFF7EAFB08B901202CE006EB4602C4EB2F
S214002BF00413DB0003EB82032B44059AC3F8C029B9
S214002C00069AC3F8C42906EB4606C4EB0413DB0099
S214002C1003EB86032B449DF8102083F8BC2905F5AA
S214002C20805393F82424B3F8203403FB02F2D20036
S214002C3005F6BC11054863F059FC002002E00120AF
S214002C407047012070BD0120FCE700BF1673080026
S214002C50BAB170B504461E46551EEDB22946FFF7BA
S214002C60C4FB80B104EB051393F86C3E6BB104EB28
S214002C70051404F5676494E8070086E8070000205A
S214002C8070BD012070470120FAE78B20F8E70000AE
S214002C9042B370B505461E46541EE4B22146FFF701
S214002CA0A4FB08B9012070BD05EB0413049AC3F811
S214002CB0702E059AC3F8742EE73405EB04149DF8BD
S214002CC01820227283F86C6E05F5805393F825243D
S214002CD002EB4202920005F66C61034863F006FCC4
S214002CE00020E0E70120704717730800012906D08E
S214002CF0022906D009B104487047044870470448C2
S214002D0070470448704700BF0C690B001C690B0035
S214002D1014690B0000690B002DE9F04784B00546E6
S214002D200F4690461E4601238DF80F300DF10F0119
S214002D30384623F056FF96F80090B9F1000F01D000
S214002D40002434E03B46394A03211D2056F0BCF9E6
S214002D509DF80F309BB941462846FFF7C7FF03464C
S214002D600097334A03211D2056F0AEF926F012FED6
S214002D704246394627F04CF94FF0010A40E03B4600
S214002D802C4A01211D2056F09FF9CA4638E042B170
S214002D907168DCF80800B1F013FAF0B14FF0000AE1
S214002DA000E0CA46BAF1000F19D10134E4B2632C30
S214002DB02AD804F1120C05EB0C1C9CF80520012AFD
S214002DC0F3D19CF80420002AEFD0DCF80C20B16880
S214002DD08A42DCD04FF0000AE4E7CA46E2E7414602
S214002DE02846FFF783FF03460097134A03211D205A
S214002DF056F06AF926F0CEFD4246394627F008F925
S214002E00504604B0BDE8F08741462846FFF76EFFFF
S214002E1003460097094A03211D2056F055F90C9BDE
S214002E2001221A704FF0000AEAE700BF30690B0073
S214002E306C690B00AC690B00FC690B00606A0B0048
S214002E4000B583B0009313460122FFF765FF03B079
S214002E505DF804FB00B583B0009313460222FFF72B
S214002E605BFF03B05DF804FB08B54FF6FF71012069
S214002E70FFF7E4F908BD0000F0B583B04468876842
S214002E80250CA6B200962B460A4A02211D2056F0B3
S214002E901BF940F201139C4201D003B0F0BD002F95
S214002EA0FBD100962B46044A02211D2056F00CF951
S214002EB0F3E700BFDC6A0B00FC6A0B0070470000FB
S214002EC070B504460D46164603460A4A02211D20E2
S214002ED056F0FAF833462A4621460748FFF7B0FF71
S214002EE0044608B9204670BD002202210248FFF7BA
S214002EF03DFBF7E71C6B0B00F4A6002070B50446FC
S214002F000D46164603460A4A02211D2056F0DCF8F6
S214002F1033462A4621460748FFF79CFF044608B971
S214002F20204670BD012202210248FFF71FFBF7E78B
S214002F30446B0B00F4A6002000B583B00093134644
S214002F400A4601460248FFF7A7FC03B05DF804FBFB
S214002F50F4A6002010B584B0089C03949DF81C408D
S214002F6002949DF818400194009313460A460146C1
S214002F700248FFF7EFFC04B010BD00BFF4A6002027
S214002F8008B513460A4601460148FFF711FB08BD7F
S214002F90F4A6002010B588B0109C07940F9C0694E9
S214002FA09DF8384005949DF8344004949DF83040D0
S214002FB003940B9C02940A9C0194009313460A46C1
S214002FC001460248FFF770FB08B010BDF4A60020CB
S214002FD000B583B0009313460A4601460248FFF741
S214002FE02FFD03B05DF804FBF4A6002000B583B007
S214002FF0009313460A4601460248FFF7ADFD03B0AC
S2140030005DF804FBF4A6002008B513460A46014600
S2140030100148FFF71DFE08BDF4A6002010B586B0D7
S2140030209DF8304005949DF82C4004949DF8284067
S21400303003949DF8244002949DF820400194009348
S21400304013460A4601460248FFF72EFD06B010BD9D
S214003050F4A6002010B584B0079C0294069C019448
S214003060009313460A4601460248FFF7A9FD04B03E
S21400307010BD00BFF4A6002010B584B09DF81C401B
S2140030800294069C0194009313460A4601460248A1
S214003090FFF7FEFD04B010BDF4A60020024A026051
S2140030A0024A0260704700BF40320C00DC6B0B0027
S2140030B0012800D0704708B54FF6FF73994200D03C
S2140030C008BD034A03490448B0F055F9F8E700BFC5
S2140030D0000000209D3000006000002010B504466F
S2140030E0044B0360044B03600821B0F049F9204606
S2140030F010BD00BF40320C00DC6B0B0010B5FEF7B5
S21400310014F91B48FEF7D4FC50BB1A4C1A4BD3F8E4
S2140031109410204658F034F9204658F03DF9174CE4
S214003120204663F0EBFF72F019F969F009FE2046BD
S21400313063F0F5FF124863F00FFD1248FFF75EF8E4
S21400314090B9114863F008FD0CF0A2F855F048FE5F
S2140031500E4863F001FDAC20FDF7BEFE002010BD5A
S214003160AC20FDF7B9FED0E7AC20FDF7B5FEE8E7EA
S214003170706B0B0060000020E8B60220504502206D
S214003180846B0B00ECA60020986B0B00B46B0B0056
S21400319070B50446044D2B689E6808F0EAFE0246A9
S2140031A021462846B04770BDECA6002008B54FF66D
S2140031B0FF710120FFF77CFF08BD08B51DF062FA1D
S2140031C008BD006918B108B51DF0DFF908BD7047E5
S2140031D008B50023C360836000220023C0E90023F3
S2140031E0006910B111B11DF0C6F908BD1DF0C8F98F
S2140031F0FBE700000000000008B59FED077B80EDB0
S214003200007B00228260C26001611146FFF7E0FF8A
S21400321008BD00BFAFF30080000000000000000003
S214003220836823B370B582B00446C368ABB1104B55
S21400323019680B68DB6868469847009E019D206900
S2140032401DF0A8F958B1A168236862685B1842F1BE
S2140032500002B34272EB050303D302B070BDE1680F
S214003260F2E72046FFF7ADFF26606560F5E770479A
S2140032700803002008B58160C260FFF7D1FF08BDD3
S21400328008B50A46FFF7F6FF08BD704770B5044656
S2140032900A694B6952EA03001ED08868C96810EBB9
S2140032A0000C41EB010E1CEB000C41EB0E0E4FEA3E
S2140032B04E1545EADC654FEA4C161CEB060C4EEB49
S2140032C0050E1CEB000041EB0E01B0F095FB012350
S2140032D023706070204670BD002323706370F9E78A
S2140032E0D0E9020170472D2070472D20704701203D
S2140032F07047012070470000024A0260024A0260DE
S214003300704700BF285C0C00FC6C0B0070474FF445
S21400331080607047002383607047002343607047D7
S214003320044A026020324260034A4260034A026056
S214003330704700BF2C6E0B00186D0B00D06C0B0096
S2140033400346064A40F8042C203240F80429044A72
S2140033504260044A43F8042C704700BF2C6E0B00F2
S214003360186D0B00D06C0B00024A0260024A026025
S214003370704700BF9C240C00E46D0B00024A0260FC
S214003380024A0260704700BFFC230C00386D0B0039
S21400339010B50446064B036020334360054B43607C
S2140033A0054B03601021AFF0EBFF204610BD00BFB9
S2140033B02C6E0B00186D0B00D06C0B0010B504467D
S2140033C0084B40F8043C203344F80439064B63604D
S2140033D0064B40F8043C10212046AFF0D1FF2046B3
S2140033E010BD00BF2C6E0B00186D0B00D06C0B00D0
S2140033F010B50446054B0360006B18B161F078FD0C
S21400340000232363024B2360204610BD08850C0072
S214003410746C0B0010B50446054B0360406B08B196
S21400342058F0E0F900236363024B2360204610BD8A
S214003430A0190C00A86C0B0010B50446174B0360CF
S2140034406433436000F51C7059F0BCF914F5EC7257
S21400345005D004F5147300E0183B9A42FCD1104BDB
S214003460E3672033C4F880300E4BC4F880300E4B30
S214003470E36704F13800A36D13B10022A2659847F4
S21400348004F10800A36A13B10022A2629847074B12
S2140034906360074B2360204610BD00BFE0200C0091
S2140034A02C6E0B00186D0B00D06C0B00E46C0B0040
S2140034B0886D0B0038B505460446194B40F8043CA9
S2140034C0643344F8043900F51B7059F07BF915F5A0
S2140034D0EA7205D004F5147300E0183B9A42FCD15A
S2140034E0104BE3672033C4F880300F4BC4F88030AD
S2140034F00E4BE36704F13800A36D13B10022A265FA
S214003500984704F10800A36A13B10022A262984704
S214003510074B6360074B45F8043C204638BD00BFA8
S214003520E0200C002C6E0B00186D0B00D06C0B000E
S214003530E46C0B00886D0B000E4B1B78BFF35B8FA3
S21400354013F0010F01D00C48704710B50948AFF0D2
S21400355019FF08B9084810BD074C084B2360084BF4
S21400356023600448AFF01AFF064A07492046AFF02A
S21400357002FFEFE720BB002024BB0020FC6C0B0002
S214003580285C0C0000000020F932000010B504464C
S214003590054A01210C2055F097FDE06810B103683C
S2140035A09B68984710BD00BF046C0B0010B504461E
S2140035B0054A01210C2055F087FDA06810B103686C
S2140035C09B68984710BD00BF046C0B0030B583B0F5
S2140035D0C068D8B10D4614461A68019200221A60D7
S2140035E001AA214632F040FF019808B158F0FAF8D7
S2140035F0002301930C4B1B680093A3886BB12B89A7
S21400360043F040032B81002003B030BD074A012160
S2140036100C2055F059FD0020F6E7E388002BEED18C
S2140036202378402BEBD1EEE7646E0B00186C0B0092
S21400363030B583B08068D8B10D4614461A6800923B
S21400364000221A606A46214632F00EFF009808B142
S21400365058F0C8F8002300930C4B1B680193A3880E
S2140036606BB12B8943F040032B81002003B030BDA3
S214003670074A01210C2055F027FD0020F6E7E388D5
S214003680002BEED12378402BEBD1EEE7646E0B00D7
S214003690186C0B00F0B587B006460C46224A03218C
S2140036A0152055F011FDB568002D2DD00023ADF87E
S2140036B010301E4B1B68039323893BB31C4A1268C9
S2140036C0039253B30123ADF81030277B606858F09F
S2140036D024F86368059304AB009305AB3A46A168EB
S2140036E0284656F081F80446059808B158F07AF84E
S2140036F0002305932CB1B06818B155F0ADFE002339
S214003700B360204607B0F0BD0320FBE76289022ABB
S214003710D4D1227B142AD1D1D7E76389002BD1D10B
S214003720237B402BCED1D0E74C6C0B00686E0B0091
S214003730646E0B00012800D070474FF6FF73994265
S214003740FAD170B58AB04C4B4C4A1A604C4A5A6053
S2140037504C4A1A6064325A6003F10802DA609A60D2
S21400376000229A62DB6248491963CDF804D0CDF88E
S21400377000D0089203F13801D96399639A65DB6536
S214003780424919669A66DA661A6783F874209A6759
S2140037903F49D9673F49C3F880103F49D967203170
S2140037A0C3F8801083F8AC20C3F8B820C3F8BC2058
S2140037B0C3F8C020C3F8C420C3F8C821C3F8CC217E
S2140037C083F8D021C3F8D421042203F5EC7303E078
S2140037D0002103F8181B013A002AF9DA26480024CB
S2140037E0C0F850420523C0F8543280F85842C0F85A
S2140037F07442C0F87842294BC0F8703280F87C4298
S214003800274E32462749AFF0B6FD324626492748AE
S214003810AFF0B1FD324626492648AFF0ACFD264D46
S214003820264B2B606C602C722846254B40F8103BCC
S21400383077F0BEFBC5F8D040C5F8D440C5F8D840F0
S214003840C5F8DC4032461F492846AFF094FD1E48B6
S2140038501E4B036000220023C0E90223C0E90423B4
S2140038601B4B03608461C461046344633246194998
S214003870AFF081FD0AB070BD40BC0020886D0B0023
S214003880E46C0B00E0200C00718A0300E97403006E
S214003890D06C0B00186D0B002C6E0B0094670C00A0
S2140038A00000002039340000693300006800002062
S2140038B07D3300007000002028BB0020A86C0B00A1
S2140038C0A0190C001534000008BC0020746C0B0016
S2140038D008850C00F133000010B50446044B036065
S2140038E0044B03600421AFF04BFD204610BD00BF23
S2140038F0285C0C00FC6C0B00F0B583B00F4F38460C
S21400390033F03AFC0E4901F54053D3F894300D4A93
S21400391053600D4E0D4D00953346384634F038F959
S2140039200B4B33610B4C22463946304635F060FC73
S214003930094B636325626C6003B0F0BD40BC002099
S214003940E8860220680000207000002028BB0020C7
S2140039508051010008BC0020606C0B0010B50446C6
S214003960194B03606433436000F51C7058F02AFF5F
S21400397014F5EC7205D004F5147300E0183B9A4277
S214003980FCD1124BE3672033C4F88030104BC4F8E8
S2140039908030104BE36704F13800A36D13B10022AA
S2140039A0A265984704F10800A36A13B10022A26238
S2140039B09847094B6360094B23604FF422712046F9
S2140039C0AFF0DEFC204610BDE0200C002C6E0B0095
S2140039D0186D0B00D06C0B00E46C0B00886D0B00B0
S2140039E038B5054604461B4B40F8043C643344F89F
S2140039F0043900F51B7058F0E5FE15F5EA7205D09F
S214003A0004F5147300E0183B9A42FCD1124BE367AE
S214003A102033C4F88030114BC4F88030104BE36775
S214003A2004F13800A36D13B10022A265984704F193
S214003A300800A36A13B10022A2629847094B63608C
S214003A40094B45F8043C4FF422712046AFF098FC31
S214003A50204638BDE0200C002C6E0B00186D0B00C5
S214003A60D06C0B00E46C0B00886D0B0010B50446A0
S214003A70044B0360044B03600821AFF081FC204632
S214003A8010BD00BF9C240C00E46D0B0010B504466E
S214003A90044B0360044B03601C21AFF071FC20460E
S214003AA010BD00BFFC230C00386D0B0010B504469B
S214003AB0074B0360406B08B157F094FE0023636326
S214003AC0044B2360E0212046AFF05AFC204610BD90
S214003AD0A0190C00A86C0B0010B50446074B036039
S214003AE0006B18B161F004FA00232363044B2360D3
S214003AF038212046AFF044FC204610BD08850C0057
S214003B00746C0B0008B54FF6FF710120FFF712FE2C
S214003B1008BD000010B5A4B04FF4004263496448E5
S214003B2063F01AF84FF42051624802F07FFAB0F5BD
S214003B30205F00F281805D495F4863F00DF8312018
S214003B4002F022FB044600287FD158495B4863F008
S214003B5003F85B4B02935B4B019301230093002316
S214003B604FF4E0625849594818F036FD584B5860F3
S214003B70002870D04D49574862F0EEFF00210846F5
S214003B8002F016F9044600286CD14849524862F003
S214003B90E3FF802204A9012001F0F4FD002867D18C
S214003BA000238DF88F3004AA40494C4862F0D4FFB9
S214003BB002F0A8F90446002860D13C49484862F063
S214003BC0CBFF04F0DFFF06224649022001F0DAFDB3
S214003BD00446002858D13E4C94F87E3094F87F2056
S214003BE094F8801094F8810003900291019200935B
S214003BF094F87D3094F87C202C493B4862F0ACFF6A
S214003C003A4817F023FB20603949002001F07CFF7A
S214003C10044600283ED13749062001F075FF0446C9
S214003C2000283DD12A4A938943F0010393811F4916
S214003C30314862F091FF05E0044602461B492F48D2
S214003C4062F08AFF204624B010BD024617492C4871
S214003C5062F082FFF6E715492A4862F07DFF6FF0B2
S214003C600104EFE702461149274862F075FFE9E7CD
S214003C7022460E49254862F06FFFE3E702460B49ED
S214003C80234862F069FFDDE702460849214862F0F2
S214003C9063FFD7E7024605491F4862F05DFFD1E79C
S214003CA0024602491D4862F057FFCBE75C740B00E2
S214003CB06C6E0B0040DC0020BC6E0B00046F0B002B
S214003CC0C8BE002080BF0020206F0B0011600000DF
S214003CD0ACDB0020546F0B00A46F0B0000700B00D1
S214003CE05C700B0028DC0020B0700B0084DB00202A
S214003CF0353D0000213D000054710B00886E0B001E
S214003D00D06E0B00286F0B006C6F0B00BC6F0B00A7
S214003D1020700B007C700B00DC700B0014710B0025
S214003D2000B1704708B50B461146184607F096FED8
S214003D3008BD000010B502460A4CB4F88E300A4999
S214003D400A4862F009FFB4F88E300133A4F88E30CA
S214003D50A38923F00803A3812021206817F088FB9D
S214003D6010BD00BFACDB002044740B0060710B007C
S214003D7000B5ADF5057D0123009340F2022303AAAA
S214003D800021204801F020F90146D8B11E4B93F8D7
S214003D907220531EDBB2012B25D91B4B93F87230D1
S214003DA0072B27D0184A92F872300191009302F13F
S214003DB0310310321549164862F0CEFE0DF5057D2A
S214003DC05DF804FB9DF815200F4B83F872209DF8D4
S214003DD01420DA81DDF83A20C3F88220BDF83E20B0
S214003DE0A3F88620D2E70B4B1A70074B062283F8FF
S214003DF07220D2E7074B03221A70034B0D2283F87A
S214003E007220CFE7BCDB0020ACDB00202C740B005C
S214003E108C710B00A4DB002010B582B0274B9B8969
S214003E2013F0180F05D02649264862F095FE02B01A
S214003E3010BD224C94F87230009304F1310304F163
S214003E4010021F49204862F087FEA38943F008034A
S214003E50A3810EE0194B998921F008019981B3F8E6
S214003E608E301749194862F077FE4FF47A6018F0E2
S214003E70F7FD124AB2F88E3001339BB2A2F88E30AC
S214003E80042B0BD80D48124B00F1310290F872103B
S214003E90103001F0D9F802460028DBD1074BB3F802
S214003EA08E30052B05D00B4A05490B4862F054FEB0
S214003EB0BDE71946094862F04FFEB8E7ACDB0020C4
S214003EC01C740B00C0710B00E8710B0010720B0025
S214003ED0E13E0000BCDB002070720B0050720B004D
S214003EE010B5044602461A491A4862F035FE1A4AC8
S214003EF0938923F0080393811C20B0F0FDF8174B3C
S214003F0018600023036043608360C36003614361FD
S214003F1083619CB1104CB4F88E200D49104862F0B5
S214003F201BFEB4F88E3001339BB2A4F88E30042BFF
S214003F300DD82021206817F09BFA08E004490948AC
S214003F4062F00AFE0121044B186817F091FA10BDC2
S214003F500C740B0098720B00ACDB0020A8DB002072
S214003F60AC720B00C4720B0010B582B004460E4B48
S214003F701B7880F821300D4BDA8980F82820D3F89A
S214003F808220C0F82220B3F88630C38401220DF1C7
S214003F900701032001F0F6FB18B99DF807305B42D5
S214003FA0638502B010BD00BFA4DB0020ACDB0020A0
S214003FB030B589B00446002301930293039304931B
S214003FC00593069307931C2201A90A2001F0DAFB49
S214003FD0054608BB134A13681968019B5B1A2360E1
S214003FE013685968029A521A62609968039A521ABC
S214003FF0A260D968049A521AE2601969059A521AA0
S21400400022615969069A521A62619A69079B9B1A3D
S214004010A361284609B030BD0146034862F09CFD06
S214004020F7E700BFA8DB0020D8720B0010B588B0F9
S2140040300023019302930393049305930693079337
S2140040401C2201A90A2001F09DFB044698B90C4BDE
S2140040501A68019911601B68029A5A60039A9A605E
S214004060049ADA60059A1A61069A5A61079A9A6162
S214004070204608B010BD0146024862F06DFDF7E725
S214004080A8DB0020D8720B0008B501F03BFB08BD8A
S214004090F0B5ADF50B7DFFF73DFD002860D107F0CC
S2140040A087FD18F0A7FB0546002007F089FD0646A9
S2140040B000F0F4FA8849894862F04EFDFA2300932E
S2140040C00023012233218648006817F001F90446D0
S2140040D000284DD1824B9B8913F0100F4ED114F05F
S2140040E0200F71D114F0010F73D114F0020F40F0BD
S2140040F0818014F0100FE1D0794B9B8913F4806F08
S214004100DCD1754F3946774862F026FD00210D91C7
S2140041104FF4F8720EA8B0F08BF84FF4FA720DA9AF
S214004120012001F0A1FA04464FF4FA73024639461C
S2140041306D4862F011FD002C00F08E80684CA3895B
S21400414023F48063A381636F00209847002363678E
S214004150A06F0028B2D0FDF773F80022A267ADE783
S21400416002465D49614862F0F7FC0DF50B7DF0BD37
S214004170024659495E4862F0EFFCABE718F03AFB9E
S214004180074605F1FA038342A9D296F8A430302BED
S21400419001D00546A3E7574B1B780BB105469EE7B3
S2140041A0012000F0E1FA534B01221A70524B1B78A3
S2140041B00BB13D4693E75149104600F099FA4E4B35
S2140041C001221A703D468AE7FFF7D2FDFFF724FE6C
S2140041D088E741494A4862F0BFFC414A938943F068
S2140041E0100393810023444A1370424A137007F069
S2140041F0AFFC7AE73A4A938923F05803938136490D
S214004200404862F0A9FC07F0BDFC002000F0ACFAC4
S2140042100023384A1370384A13706AE73A4862F047
S2140042209BFC2E2304FB03F30DAA1A44517A8DF847
S2140042302910927A5242ADF8322028330DAA134440
S214004240D3F80620CDF82A205B89ADF82E30244B13
S2140042505B6F02A8984701349DF83430A3427FF77D
S2140042606DAF2E2104FB01F108310DAB194404316A
S21400427002A8B0F026FD1A4B9B6F002BCED0234829
S21400428062F06AFC164F02AAB96F214862F064FC1D
S21400429002A9B86FB0F00BFD0028DCD11D4862F013
S2140042A05BFC2E2304FB03F30DAA1A44517A8DF807
S2140042B02910927A5242ADF8322028330DAA1344C0
S2140042C0D3F80620CDF82A205B89ADF82E307B6F18
S2140042D002A89847BFE700BF6C740B0024730B005E
S2140042E0ACDB00208C730B00A0730B00F8720B0085
S2140042F03C730B0080DB002081DB00202EDC0020DE
S2140043005C730B0074730B0000740B00BC730B0023
S214004310D0730B00EC730B0008B5034B1B68186AD0
S214004320143003F015FD08BDD825012008B514305B
S2140043301844AFF055FF08BD10B50446002343608F
S2140043408360C3600361C1F30B01043003F0D8FE41
S214004350637943F050036371A37943F00103A371BB
S2140043600E4B18682146243003F0A0FD0C4C226842
S21400437092F82A3043F0010382F82A30012003F035
S214004380D9FA206847F22471243004F0E5FB10B90E
S21400439000F0CEFC10BD6FF01D00FBE7D825012015
S2140043A0DC25012010B584B0154B9B8913F4007FE3
S2140043B019D1134C43F40073A3811249124862F0DA
S2140043C0CBFB124B0293124B019301230093002365
S2140043D04FF400620F49104818F0FEF8A06040B194
S2140043E0002004B010BD07490C4862F0B5FB002061
S2140043F0F7E704490A4862F0AFFB0120F1E700BF87
S214004400ACDB0020FC750B0094740B00400401200C
S214004410F8040120A4740B00914000007C740B008B
S214004420AC740B00024A938943F080039381704773
S214004430ACDB0020024B9889C0F3C010704700BF69
S214004440ACDB002010B584B00D4AD06F0860B2F81F
S21400445080308B8092F87E3092F87F1092F8800041
S21400446092F88140039402900191009392F87D3077
S21400447092F87C200349044862F06EFB04B010BD3D
S214004480ACDB0020E4750B00D0740B0070B505465D
S214004490084C22460849094862F05EFB632229461A
S2140044A02046AFF09DFE34F8043C43F0040324F8A5
S2140044B0043C70BDBCDB002080760B00F4740B005F
S2140044C068B108B5074B9B8913F0040F01D1002093
S2140044D008BD63220449AFF083FE0120F8E7002000
S2140044E0704700BFACDB0020BCDB002010B5084CDA
S2140044F0632200212046AFF09BFE34F8043C23F0F4
S214004500040324F8043C0349034862F025FB10BD6D
S214004510BCDB002064760B0004750B0010B50D4B59
S2140045209B8913F0040F0ED00B4C2346A4F12102F6
S2140045300A490B4862F010FB202154F8310C16F0A3
S21400454097FF002010BD0549064862F005FB2320B2
S214004550F8E700BFACDB0020DDDB002050760B0068
S21400456014750B0048750B0008B50249024862F046
S214004570F3FA08BD34760B0070750B0010B5084BC7
S214004580988910F0100FC0F3001406D0054A0649AB
S214004590064862F0E1FA204610BD054AF7E700BF7C
S2140045A0ACDB002094750B001C760B00A0750B008E
S2140045B090750B00044B9B8913F0010F01D100206E
S2140045C070470120704700BFACDB002038B5094DAE
S2140045D02946094862F0C0FAFFF756FD0446074A26
S2140045E0938923F0100393812946054862F0B4FAB4
S2140045F0204638BD0C760B00B0750B00ACDB0020F7
S21400460004750B0010B550B9064B9C89C4F3001412
S21400461022460549054862F09FFA204610BD002450
S214004620F6E700BFACDB0020D0750B00C0750B00B2
S214004630024B988900F00100704700BFACDB0020F9
S21400464008B5FFF791FC08BD08B5FFF7B1FC08BD3B
S21400465008B5FFF7EBFC08BD38B50E4B5B6F0BB12A
S214004660002038BD05460C4650B1B0F032FB013094
S214004670FCF730FD074B986750B12946B0F021FB98
S214004680044B5C671021186816F0F2FE0120E8E77C
S2140046900020E6E7ACDB00207047000010B586B0CF
S2140046A01049114862F058FA0024029403940494C6
S2140046B0059401238DF80A301023ADF808306946BA
S2140046C02046FFF7BFFE0098CDF81200BDF8043074
S2140046D0ADF8163002AA2146044862F053FE06B032
S2140046E010BD00BF98760B00B0750B004845022041
S2140046F030B587B004460D461549164862F02CFAC8
S214004700012C06D022461249134862F025FA07B05B
S21400471030BD0F49114862F01FFA00210191029145
S21400472003910491059102238DF806301423ADF809
S21400473004300B4BDB89ADF8123028680390AB8849
S214004740ADF8103001AA074862F01CFEDFE700BF94
S214004750AC760B00B0750B00C4760B00E4760B004D
S214004760ACDB00204845022010B582B00446234941
S214004770234862F0F1F90023019374B101238DF808
S21400478006300423ADF804300DEB030201211D486A
S21400479062F0F8FD1CB902B010BD0223EFE701205D
S2140047A018F05EF9184862F0A9FC184B1B78BFF3A6
S2140047B05B8F13F0010F06D0154873F04DFD1248BD
S2140047C062F0ADFCE7E71148AEF0DCFD0028F3D060
S2140047D00F4C00236360A36041F2A452A28141F211
S2140047E0AE52E281236123750848AEF0D7FD094A30
S2140047F009492046AEF0BFFDDEE700BFF4760B00A9
S214004800B0750B004845022050450220F8240120D0
S214004810FC240120000000209946000009280AD147
S21400482008B5054B4FF40072C3F82424034B1B68ED
S21400483003B1984708BD704700A00040142501202A
S21400484008B50146024B1860024862F085F908BDBB
S2140048501425012004770B00024B4FF40072C3F8B6
S2140048602824704700A00044064B4FF480221A60AC
S2140048704FF480621A60044B4FF40072C3F8282489
S214004880704700BF00E100E000A0004682B0074B82
S2140048901B88ADF80030ADF80430054BD3F8A40FF4
S2140048A0003818BF012002B0704700BF20770B0009
S2140048B00000144210B582B004460121094808F0F1
S2140048C013F80CB102B010BD074B1B88ADF80030D2
S2140048D0ADF80430012304220C21032009F0CCFBA0
S2140048E0F0E700BF00350A0024770B0000B17047E0
S2140048F000B583B0074B1B88ADF80030ADF8043028
S214004900012307220C21032009F0B6FB03B05DF853
S21400491004FB00BF24770B0068B982B0064B1B88E7
S214004920ADF80030ADF80430044B4FF48052C3F8B5
S2140049309C2002B07047704724770B0000A000440C
S21400494008B50023012B0EDC03EB4302064901EBFE
S21400495082025268824201D00133F3E703EB43033D
S21400496051F82330984708BD1825012008B517F0E0
S21400497041FF08BD00B9704708B503464FF47A708A
S21400498000FB03F30348A0FB0330800918F068F827
S21400499008BD00BFD34D621001294AD0F0B583B0E0
S2140049A00024012C41DC04EB440C254A02EB8C0C61
S2140049B0DCF804200AB10134F3E7214D660004EB6D
S2140049C0440C05EB8C027227577290720027D77240
S2140049D0089A45F82C2060468000083028444FF49A
S2140049E07A7C0CFB03FC174BA3FB0C3C164B019389
S2140049F0164B00933B46CA1B18BF01224FEA9C1178
S214004A00013018F059FD0746344405EB840568600C
S214004A1090B117F0EFFE02460024009423460121D1
S214004A20384618F07FFD204601E06FF0050003B021
S214004A30F0BD6FF00E0070476FF00500F7E700BF9F
S214004A4018250120D34D6210302501204149000071
S214004A5070B586B002460D460F4E002434600494AE
S214004A600E4B039302940191012300930C4B4FF4D9
S214004A7060210C48006807F09CFC049403940294A0
S214004A80019500943346084A08490948006807F02B
S214004A9075FC06B070BD00BF5C250120294B0000E8
S214004AA01C080140602501203408014001000E006A
S214004AB06825012070B586B00E46144610B302462F
S214004AC0AA23037055234370012304920F490391D0
S214004AD000250295019400930D4B4FF460210D487C
S214004AE0006807F066FC049503950295019401237F
S214004AF000933346084A09490948006807F03EFC17
S214004B0006B070BD0023074ADFE700BF294B000050
S214004B101C080140602501203408014001000E00F9
S214004B20682501205C25012000B583B00023019391
S214004B3001A90A4B186817F0CFF8019B4BB14FF04C
S214004B40E0234FF08052C3F8042DBFF34F8FBFF31E
S214004B506F8F012003B05DF804FB00BF64250120C1
S214004B6010B58AB00121254807F0BEFE244C2388E4
S214004B70ADF80830ADF80C30012304220C210320D8
S214004B8009F07AFAA388ADF81030ADF81430002397
S214004B9004220D21032009F06FFA0122114600209D
S214004BA008F0FCF907F0F0FC2489ADF81840ADF8E1
S214004BB01C40002302220921104609F05DFAADF8D8
S214004BC02040ADF8244001230193002200920922E0
S214004BD01146022009F0D2F90A49092007F0ECFC38
S214004BE0094B4FF40072C3F82824084BA02283F820
S214004BF00A2383F812230AB010BD00BF00350A004E
S214004C0068770B001D48000000A0004400E100E0AB
S214004C1030B585B00C4B1C88ADF80040ADF80440AC
S214004C204FF48055094BC3F89C500A2017F018FF24
S214004C30ADF80840ADF80C40054BC3F89C50032077
S214004C4017F00EFF05B030BD68770B0000A00044DB
S214004C5000A0004600B583B003230093124B002249
S214004C601146012016F0B0FD104B186000231A46BE
S214004C70194616F075FE0E4B1B68196A0D4A116030
S214004C805A6A0D4B1A600D4861F066FFFFF768FF21
S214004C900B4861F061FFFFF7BBFF0A4861F05CFF5D
S214004CA003B05DF804FB00BF6C25012064250120DD
S214004CB04401002068250120602501202C770B0088
S214004CC040770B0054770B000AB90020704770B588
S214004CD005460C461646144B4FF44062DA604FF019
S214004CE0FF31124B186817F03BF901280DD175B14A
S214004CF0324629462046FFF7DDFE4FF0FF310B4BCC
S214004D00186817F02DF9012806D0002070BD31462E
S214004D102046FFF79DFEF0E700231A461946034893
S214004D20006816F01DFEF0E700080140642501202B
S214004D30024B1B681B6A5868704700BFD8250120C5
S214004D402DE9F8431D469D4B1B681C6A2378002BF3
S214004D5000F02D810646884617462378DBB2042BE2
S214004D6000F228813DB10121084601F0E1FF8146AD
S214004D70002840F016812378DBB20A2B00F202816D
S214004D80DFE813F008010B005B007B007B007B0074
S214004D9008010801080108010801E38D13F0010F5E
S214004DA028D004F1140002F0D3FF0146002800F0DA
S214004DB0A980002242610283226B4261A28E028396
S214004DC0DFF80092D9F8002092F8293043F001036A
S214004DD082F82930172003F0D5FAD9F8000047F2F8
S214004DE09451103003F0B8FEFFF7A2FF814600286A
S214004DF040F08F8004F1140002F0AAFF014600285C
S214004E0000F08C8000230375DFF8B891D9F80020F5
S214004E1092F8293043F0010382F82930112003F07C
S214004E20B1FAD9F8000047F29451103003F094FE1E
S214004E30FFF77EFF8146002877D104F1140002F0C8
S214004E4087FF0146002875D0DFF87891D9F8002052
S214004E5092F8293043F0010382F82930122003F03B
S214004E6091FAD9F8000048F2E801103003F074FE19
S214004E70FFF75EFF8146002863D11434204602F017
S214004E8067FF0146002861D0DFF83891D9F8002086
S214004E9092F8293043F0010382F82930BE2003F04F
S214004EA071FAD9F8000047F29451103003F054FE1E
S214004EB0FFF73EFF814600284FD1204602F048FF0C
S214004EC0814600284ED000F11404322200212046EC
S214004ED0AFF0AEF94146204603F022F926B131463E
S214004EE009F11800AFF0EDFE89F83F70002D40D0B4
S214004EF0334B1B68C3F898504946132003F042FA18
S214004F00814649E00021012001F012FF6FF00309FD
S214004F1047E00021012001F00BFF42E000210120C4
S214004F2001F006FF6FF003093BE00021012001F0CD
S214004F30FFFE36E00021012001F0FAFE6FF00309C3
S214004F402FE00021012001F0F3FE2AE000210120DD
S214004F5001F0EEFE6FF0030923E00021012001F0CE
S214004F60E7FE1EE00021012001F0E2FE6FF00309DB
S214004F7017E0144B1A6892F8293043F0010382F8C0
S214004F802930B9E785B90021012001F0D1FE6FF084
S214004F90040901E04FF000091DB10021012001F0D5
S214004FA0C7FE4846BDE8F8836FF00409F4E76FF0E3
S214004FB00209F6E76FF00209F3E700BFD8250120E3
S214004FC0D0250120DC2501202DE9F0411F461C4B91
S214004FD01B681C6A23786BB305460E46904694F809
S214004FE000C05FFA8CFCBCF1040F26D801210846ED
S214004FF001F09EFE034610B11846BDE8F081C4F8E5
S2140050002480A7620023069A31462846FFF798FEBA
S21400501003460028F0D10B4B186848F6B80110304C
S21400502003F09AFD0021012001F082FEFFF780FECA
S2140050300346E1E76FF00203DEE76FF00203DBE70B
S214005040D8250120DC2501202DE9F84F80460D46A5
S2140050501646B64A1268146A99463BB101210846BC
S21400506001F066FE0746002840F0F18205B1C6B1A1
S2140050702378DBB2042B1FD8E38E022B23D02378B1
S214005080DBB20A2B00F2D182DFE813F0D902280047
S21400509071009000C200D902D902D902D902D90201
S2140050A0D9020B2DE4D00A2DE2D00021012001F018
S2140050B03FFE6FF00107CAE20021012001F038FE32
S2140050C06FF00207C3E22B1FDBB2012BD7D90021FA
S2140050D0012001F02DFE6FF00107B8E2E38D13F01A
S2140050E0010F25D004F1140002F032FE014600281C
S2140050F000F0EB80002242610283226B4261A28EA6
S21400510002838B4F3A6892F8293043F0010382F805
S2140051102930172003F036F9386847F294511030DA
S21400512003F01AFDFFF704FE0746002840F0D4807F
S21400513004F1140002F00CFE0146002800F0D180B5
S2140051407B4F3A6892F8293043F0010382F8293001
S214005150112003F017F9386847F29451103003F025
S214005160FBFCFFF7E5FD0746002840F0C18004F190
S214005170140002F0EDFD0146002800F0BE806C4FE2
S2140051803A6892F8293043F0010382F82930122059
S21400519003F0F8F8386848F2E801103003F0DCFC59
S2140051A0FFF7C6FD0746002840F0AE8004F1140065
S2140051B002F0CEFD0746002800F0AB8000216162B9
S2140051C0A16232221430AFF033F8B8F1000F04D0E9
S2140051D0414607F11800AFF074FDDFF854A1DAF885
S2140051E0002092F8293043F0010382F8293039462E
S2140051F0132003F0C7F8DAF8000049F640411030F3
S21400520003F0AAFCFFF794FD0746002840F08880CC
S214005210E38E022B00F08E80092D00F0DB80032D3C
S21400522000F01A816B1EDBB2012B0BD90D2D09D0B5
S2140052300E2D07D0062D05D00C2D03D0072D01D03E
S214005240082D03D1E38E022B40F03E811434204615
S21400525002F07EFD0146002800F0A0810023436195
S2140052608361C3610362324E326892F8293043F09C
S214005270010382F829306F2003F084F8306847F283
S2140052802471103003F068FCFFF752FD0746002833
S21400529040F08B81204602F05BFD0446002800F0BB
S2140052A08981752200211430AEF0C2FF082D00F06F
S2140052B08881072D00F0A181A5F10903DBB2022B3E
S2140052C000F29E81002363757DE10021012001F03C
S2140052D02FFD6FF00307BAE10021012001F028FD41
S2140052E0B5E10021012001F023FD6FF00307AEE1D8
S2140052F00021012001F01CFDA9E10021012001F0A0
S21400530017FD6FF00307A2E10021012001F010FD58
S2140053109DE10021012001F00BFD6FF0030796E1EF
S2140053200021012001F004FD91E100BFD8250120F5
S214005330DC25012004F1140002F00AFD07460028CF
S21400534041D04FF4AB7200211430AEF071FF3346FB
S21400535007F1540206F1400AD3F800E0D3F804C07F
S2140053609868D968C2F800E0C2F804C09060D160BE
S214005370103310325345EFD1802206F1400107F179
S2140053809400AEF02DFFDFF8D4A2DAF8002092F8F1
S214005390293043F0010382F8293039464C2002F0C8
S2140053A0F1FFDAF8000048F6B801103003F0D4FB3D
S2140053B0FFF7BEFC074600283FF42EAF0021012071
S2140053C001F0B6FC43E10021012001F0B1FC6FF0D2
S2140053D003073CE1E38E022B3FF421AF04F11400F7
S2140053E002F0B6FC074680B34FF0000AC0F814A0DF
S2140053F0C0F818A0C0F81CA00121143002F080FEEE
S214005400514607F1160002F07BFE32687368BA61F7
S214005410FB61924E326892F8293043F0010382F81D
S21400542029303946722002F0ADFF30688C491030C2
S21400543003F092FBFFF77CFC074600283FF406AF1C
S2140054405146012001F074FC01E10021012001F029
S2140054506FFC6FF00307FAE004F1140002F078FC2A
S214005460074650B300F1140A4FF0820B5A4600214B
S2140054705046AEF0DDFE5A4631465046AEF0B0FE1F
S214005480764E326892F8293043F0010382F82930CC
S2140054903946252002F076FF306848F6B80110300D
S2140054A003F05AFBFFF744FC074600283FF4CEAE55
S2140054B00021012001F03CFCC9E00021012001F0A0
S2140054C037FC6FF00307C2E004F1140002F040FC62
S2140054D00746002842D0632200211430AEF0A8FE12
S2140054E0EB1FDBB2012B01D90C2D40D10C2D3CD08B
S2140054F002233B7530687168B268F368C7F8150018
S214005500C7F81910C7F81D20C7F82130306971692F
S214005510B269F369C7F82500C7F82910C7F82D2027
S214005520C7F831304D4E326892F8293043F0010307
S21400553082F829303946A52002F024FF3068484911
S214005540103003F009FBFFF7F3FB074600283FF493
S2140055507DAE0021012001F0EBFB78E00021012068
S21400556001F0E6FB6FF0030771E00625C0E70123B4
S2140055703B75334607F115024036D3F800E0D3F802
S21400558004C09868D968C2F800E0C2F804C0906009
S214005590D16010331032B342EFD1C3E700210120AF
S2140055A001F0C6FB6FF0030751E00021012001F077
S2140055B0BFFB4CE00021012001F0BAFB6FF00307AF
S2140055C045E002236375B8F1000F09D04046AFF0FE
S2140055D080FB84F87D00414604F15800AFF071FB73
S2140055E0B9F1000F18D01F4B1B68C3F89C902146DA
S2140055F0142002F0C7FE074622E001236375E2E7A7
S2140056000D2D03D00E2D04D06575DCE707236375DA
S214005610D9E708236375D6E7104B1A6892F8293045
S21400562043F0010382F82930E1E7B9F1000F11D108
S2140056300021012001F07CFB6FF0040700E000274A
S214005640B9F1000F03D00021012001F071FB3846AC
S214005650BDE8F88F6FF00407F2E700BFDC250120F5
S21400566050340300D02501202DE9F041234B1B6860
S2140056701F6A3B78DBB2042B3CD906460D4614461F
S2140056800121084601F054FB804610B14046BDE8B3
S214005690F0817D62BC6207F1140002F059FB0146FE
S2140056A008B3002444618461C461C0F81F40AB2382
S2140056B003754675124D2A6892F8293043F00103A7
S2140056C082F829306A2002F05DFE286848F6B801A4
S2140056D0103003F041FAFFF72BFB804621460120ED
S2140056E001F026FBD2E70021012001F021FB6FF03C
S2140056F00308CBE76FF00208C8E700BFD8250120F3
S214005700DC25012038B51D4B1B681D6A2B78DBB2E3
S214005710042B30D90121084601F00AFB044608B1E3
S214005720204638BD05F1140002F012FB0146D8B140
S214005730002545618561124C226892F8293043F0B5
S214005740010382F82930192002F01CFE206847F277
S2140057509451103003F000FAFFF7EAFA044629469F
S214005760012001F0E5FADBE70021012001F0E0FA74
S2140057706FF00304D4E76FF00204D1E7D8250120C8
S214005780DC2501202DE9F04104460D461646B04BB7
S2140057901B681F6AD868037833B9012C40F0AE81C5
S2140057A00378DBB2012BFBD1012C19D0012108466E
S2140057B001F0BEFA804600283AD187F82C40ADB1F9
S2140057C07D62BE62023C082C2BD8DFE814F03B005A
S2140057D0130078005A00C700EE00160147016F015B
S2140057E03146284600F0D0FB804621E000237B624D
S2140057F0BB62E7E707F1140002F0AAFA0146D0B14F
S214005800944C226892F8293043F0010382F829303C
S2140058103A2002F0B7FD206847F29451103003F0AA
S2140058209BF9FFF785FA80460021012001F080FAF7
S2140058304046BDE8F0810021012001F079FA6FF0C2
S2140058400308F5E707F1140002F082FA014688B172
S214005850804C226892F8293043F0010382F8293000
S2140058604A2002F08FFD206847F29451103003F072
S21400587073F9D6E70021012001F05AFA6FF0030809
S214005880D6E707F1140002F063FA014680B1714CC6
S214005890226892F8293043F0010382F82930482024
S2140058A002F070FD20686C49103003F055F9B8E737
S2140058B00021012001F03CFA6FF00308B8E7852EBE
