S0220000636869702D65667233322D6C69676874696E672D6578616D706C652E733337C3
S315080060000000042071B901086DB90108C91F050807
S31508006010051A01086DB901086DB901086DB90108BD
S315080060206DB901086DB901086DB9010841F9010892
S315080060306DB901088C000020E1F801086D8B010894
S31508006040D1EE00086DB901086DB901086DB90108EE
S315080060506DB901086DB901086DB901086DB9010876
S315080060606DB901086DB901086DB901086DB9010866
S315080060706DB901086DB901086DB901086DB9010856
S315080060806DB901086DB901086DB901086DB9010846
S315080060906DB90108A5F700086DB901086DB90108C1
S315080060A06DB9010821F90008FDF800086DB9010865
S315080060B06DB90108CD050908C50F09087D0F09083E
S315080060C0790F090899070908C10F0908810F0908F6
S315080060D0990F0908850F09082510090805100908E8
S315080060E06DB901086DB901086DB901086DB90108E6
S315080060F051BD01086DB901086DB901086DB90108EE
S315080061006DB901086DB901086DB901086DB90108C5
S315080061106DB901086DB901086DB901086DB90108B5
S315080061206DB901086DB901086DB901086DB90108A5
S315080061306DB901086DB901086DB901086DB9010895
S315080061406DB90108C1BE01086DB9010869220108C7
S31508006150C1ED08086DB90108F5CC0808FBCC08089C
S315080061606DB901086DB901086DB901086DB9010865
S3150800617010B5054C237833B9044B13B1044800E035
S3150800618000BF0123237010BDC009002000000000D5
S31508006190E4CD0A0808B5034B1BB10349034800E0E0
S315080061A000BF08BD00000000C4090020E4CD0A08AD
S315080061B0A3F5803A704700BF174B002B08BF134B57
S315080061C09D46FFF7F5FF00218B460F461348144AF4
S315080061D0121A8EF0C4F80E4B002B00D098470D4BC0
S315080061E0002B00D098470020002104000D000D4820
S315080061F0002802D00C4800E000BF8EF01BF82000F3
S31508006200290001F019FC8DF08BFE00BF0000080084
S31508006210000000000000000000000420C009002063
S315080062202C970220000000000000000000207047A4
S31508006230704770472D2070477047000010B5044618
S315080062400D4B443003F1340240F8342C03F1540268
S3150800625040F8242C03F1680240F8443C40F8202C0E
S3150800626003F17C02903340F81C2C40F8183C34F0BB
S31508006270E5FB204610BD00BF64AB0908A0F110007D
S31508006280DCE7A0F12000D9E7A0F12400D6E7A0F1C9
S315080062902800D3E7A0F12C00D0E700BF03289ABF57
S315080062A0024B53F820000248704700BFE45B090818
S315080062B0A858090805289ABF024B53F82000024837
S315080062C0704700BFF45B0908A85809081FB50023E2
S315080062D00C4600931021134B0A20134A13F0BAF800
S315080062E0124B186030B912484BF038FD40F2017075
S315080062F000F012FB0F4B4FF4806202930E4B2046C0
S31508006300019301230D490093084B13F093FE30B90E
S315080063100B484BF023FD40F2027000F0FDFA002016
S3150800632004B010BD400C00209F0B0020940B0020E9
S31508006330B2580908DC0A0020480D0020D55809087B
S31508006340D958090837B504460D4629B929484BF0E6
S3150800635005FD2F2000F0E0FA274B28481D604BF07A
S31508006360FDFC02F0D7FA18B90A2014F087F8F8E706
S3150800637023484BF0F3FC234823F0EEF9224B002286
S31508006380009301212346214814F0A8FC204B1860ED
S3150800639030B920484BF0E2FC40F2047000F0BCFA39
S315080063A01D4B012200930A2123461C4814F096FC33
S315080063B01B4B186030B91B484BF0D0FC40F20470F8
S315080063C000F0AAFA184919484BF0C8FC00F046FA3A
S315080063D01749184800F058FA49F014FF0368D3F82B
S315080063E0843098474FF0020057F06EFF002003B044
S315080063F030BD00BFF3580908D80A00200C5909080F
S3150800640020590908900C0020156700083459090816
S31508006410980B00203A590908FD64000854590908E0
S31508006420D40A00205D5909087759090880590908CE
S31508006430347B0908B80A002010B527484BF00BFF33
S31508006440D8B1264C20464DF04DFF254B18702046F6
S315080064504DF056FF234B1870637C20461A1F534293
S315080064605341214A13704DF00DFF003818BF012023
S315080064701E4B187018484BF0F7FE1D4B1B78022B65
S3150800648014D01C4B1B6823B1DB7D13B1FA221146CD
S3150800649014E0134B1B78ABB1124B1B7893B1124B1C
S315080064A01B7843B10121144800F0DFF9BDE810401C
S315080064B0114800F0F7B9322240F2B6310E4800F022
S315080064C019FAF3E7094B1B780BB16422DFE740F2B0
S315080064D0B6323221F2E700BF08F40120F034022078
S315080064E09C0B0020B00A0020D00A00209D0B00203B
S315080064F0481D0020D80A0020B80A0020FFF79CBFD4
S31508006500002307B50A4800931A460321006814F0C9
S3150800651015FC30B907484BF021FC40F2067000F034
S31508006520FBF90022044B1A7003B05DF804FB00BFA8
S31508006530980B00209D5909089E0B002037B5104D71
S315080065400446286814F05EFD20B10E484BF006FCA0
S31508006550FFF7D6FF64232246009304210023286808
S3150800656014F0ECFB012806D007484BF0F7FB40F285
S31508006570057000F0D1F90122044B1A7003B030BD42
S31508006580980B0020B5590908D05909089E0B002018
S3150800659010B50388012B25D1134B1B7813B3134C65
S315080065A02378012B15D140F6B83111484BF0D6FBAC
S315080065B040F6B830FFF7C2FF022300210D482370CA
S315080065C000F053F9BDE810404FF4FA71094800F09D
S315080065D095B9022B06D1002307482370BDE8104061
S315080065E058F052BD10BD00BF9E0B0020481D00206C
S315080065F0E9590908B80A00204835022038B505794E
S31508006600194B012D1B7809D13BB9184C237823B9AE
S3150800661040F6B830FFF792FF257038BD002BFCD046
S31508006620124C2578012D17D1FFF76AFF0023104871
S3150800663023704DF057FE044648B929460C484DF0DC
S315080066400FFE2146BDE8384009484DF00FBE0948FF
S31508006650BDE838404BF082BB022DDED1FFF750FF74
S31508006660002305482370F3E79E0B0020481D0020F1
S31508006670F0340220285A0908675A090813B50C4B42
S315080066801C6813F0DDFD0023024601212046009315
S3150800669014F054FB012809D006484BF05FFB40F282
S315080066A0057002B0BDE8104000F036B902B010BD62
S315080066B0D40A0020875A09081FB5134C019023688D
S315080066C0F3B119F0BFF801990346A0B10023206879
S315080066D003AA039313F05EF8039B2BB14FF0E02354
S315080066E04FF08052C3F8042D60B9084804B0BDE8DD
S315080066F010404BF033BB0122206812F05FFFF3E72E
S315080067000348F3E704B010BD940B00209F5A09080C
S31508006710CC5A09081FB50123ADF80030044B019087
S3150800672068460393FFF7C8FF05B05DF804FB00BF92
S3150800673091650008CB68084603B1184701484BF035
S315080067400DBB00BFF45A090810B50446FFF776FDDD
S315080067502046B8218CF006FF204610BDA0F1100097
S31508006760F2E7A0F12000EFE7A0F12400ECE7A0F1A2
S315080067702800E9E7A0F12C00E6E710B50446D02189
S315080067808CF0F0FE204610BD37B52C4DD5E88F1F8E
S3150800679011F001012A4C1AD1284601918CF0E4FE29
S315080067A00199A0B12046274B622240F8043B8DF0A0
S315080067B0D6FD6222019904F166008DF0D0FD2846C7
S315080067C08CF0DEFE2046204A20498CF0C6FE0121C8
S315080067D0312200231E48C0E90112C0E905121D4AEC
S315080067E0C0E90D4402F13405056102F1540505625C
S315080067F002F168050260456202F17C059032C0E943
S315080068000B21114A1449C0E91133C0E91433C0E910
S315080068100F34C360C3618562A0F84C3080F85830E5
S3150800682080F85C3080F8843080F8A53080F8A8308D
S3150800683003B0BDE830408CF090BE00BFDC090020F4
S31508006840E0090020541D0A080000002039620008EB
S31508006850900C002064AB09083D62000814F080BC67
S31508006860006908B108F0E8BD704700230022C0E9B6
S3150800687002330023C0E90023006920B109B108F0FA
S31508006880D5BD08F0D6BD704730B4002200240025D7
S315080068900161C0E9004530BC1146C0E90222FFF794
S315080068A0E4BF000073B583680446FBB1C368EBB167
S315080068B00F4B684619680B68DB689847DDE9006581
S315080068C0206908F0BCFDD4E90232002808BF134647
S315080068D0D4E900125B1842F10002B34272EB0503D9
S315080068E004D22046FFF7BCFFC4E9006502B070BDBC
S315080068F0F4020020C0E90212FFF7D4BFC0E9021172
S31508006900FFF7D0BF014608B502484BF027FA18F042
S31508006910D1FFFEE70C5C090808B5FFF7F3FF000096
S3150800692010B50446E8B113F083FC0F4A54F8043C4A
S315080069301068034206D118F0BDFF0C490C488EF0CA
S31508006940ADF8FEE754F8082C32B118F0B3FF094940
S3150800695007488EF0A3F8FEE723EA0004083C13F084
S315080069601FFD204610BD00BF50A500203C5C09084D
S315080069706B5C0908845C0908014B1868704700BFFE
S3150800698054A50020014B1868704700BF58A5002081
S3150800699008B518F0AFFE044B1A68044B1A60BDE838
S315080069A0084018F0B5BE00BF54A5002058A5002021
S315080069B0F8B5044613F03CFC184B1B6843B3002596
S315080069C04FF0FF372E46164A11685A681B689542DB
S315080069D038BF1546974228BF1746994206F1010661
S315080069E0F3D113F0DDFCC4E90157E66018F082FE26
S315080069F00C4B1B6823600C4B1B6863610B4B1B68B5
S31508006A00A3610B4B1B682361BDE8F84018F080BEF4
S31508006A104FF0FF371D461E46E3E700BF64A500207A
S31508006A204C1D002054A500205CA5002060A5002070
S31508006A3058A5002010B5144B04461B6888B013B936
S31508006A4001A8FFF7B5FF104B1A461B68A342FBD3F4
S31508006A50506811188C4201BF6168144609185160C4
S31508006A6061686018834208D108480068834204D0E8
S31508006A705B680B44636013681B689442236018BF05
S31508006A80146008B010BD00BF64A500204C1D00208E
S31508006A90F8B5044613F0CCFB3C493D4D0B68CBB921
S31508006AA000203C4B3C4A5E071CBF073323F0070314
S31508006AB013605060394A22F00702C2E90000D01A72
S31508006AC0C3E90020364B0A601860364B18604FF051
S31508006AD000432B602B681C4206D013F061FC00268D
S31508006AE04BF094FD3046F8BD631E0A33F5D86007AF
S31508006AF004F1080305D023F0070208329A42ECD9BC
S31508006B001346284F3A689A42E7D3234A14686068BE
S31508006B10984201D22068A0B90968A142DDD021684F
S31508006B201668116062680836D21A102A10D9E01859
S31508006B30410709D018F0BEFE1B491C488DF0AEFF70
S31508006B40FEE722460446E2E742606360FFF772FF0B
S31508006B50134962683B6808689B1A834238BF0B6012
S31508006B603B602B68134363600023114A2360136854
S31508006B700133136013F014FC7307B3D018F09AFEB0
S31508006B800C490A488DF08AFFFEE700BF4C1D00201D
S31508006B9050A50020501D002064A5002048A500200F
S31508006BA058A5002054A50020A45C09086B5C0908B8
S31508006BB05CA50020DF5C090813B501FB00F219B1DA
S31508006BC0B2FBF1F181420CD110460192FFF760FF4A
S31508006BD0044618B10021019A8DF0C1FB204602B087
S31508006BE010BD0024FAE7000010B5044670B3184A31
S31508006BF050F8043C1268134206D118F05BFE15499A
S31508006C0015488DF04BFFFEE750F8081C31B118F017
S31508006C1051FE124910488DF041FFFEE723EA0203B0
S31508006C2040F8043C13F004FB0D4A54F8043C116880
S31508006C30A4F108000B441360FFF7FCFE094A136829
S31508006C4001331360BDE8104013F0AABB10BD00BFA6
S31508006C5050A500203C5C09086B5C0908845C09089F
S31508006C6054A5002060A50020F8B506460C46FFF797
S31508006C7057FE0746C8B19CB1A0421CD02146012048
S31508006C80FFF79AFF054648B1A7423A46314628BF5C
S31508006C9022468DF03DFB3046FFF7A6FF2846F8BD95
S31508006CA03046FFF7A1FF2546F8E72146BDE8F8403C
S31508006CB00120FFF781BF3546F0E708B50BF0F1FA7A
S31508006CC010F0B0FFBDE808404BF03CB8002213B501
S31508006CD00368ADF806209C680DF10603A04719283D
S31508006CE016BFB0FA80F00120400902B010BD052B8E
S31508006CF08CBF2F2000207047704770477047704739
S31508006D00704701F011B810B5044638218CF02AFCFA
S31508006D10204610BD10B5044604218CF023FC2046FD
S31508006D2010BD10B5044608218CF01CFC204610BD89
S31508006D300D4A08B50260D0F8F4210AB18DF0DAF8E8
S31508006D40D0F84821002AF9D1D0F80421002AF5D133
S31508006D50D0F89820002AF1D1426D002AEED10369B5
S31508006D60002BEBD108BD00BF20290A0838B5094B0E
S31508006D7004460360436853B1437C43B9C56835B1DB
S31508006D802B6828461B689847284649F0C7FA2046C4
S31508006D9038BD00BFE8ED0908406808B14AF076BF7B
S31508006DA00320704713B5406810B9032002B010BD20
S31508006DB000248DF8074022B90BB12F20F6E70DF114
S31508006DC007024AF037FFF1E730B540681C4685B040
S31508006DD010B9032005B030BD00251B888DF80B506F
S31508006DE022B90BB12F20F5E70DF10B02039501959A
S31508006DF003AD00954AF002FF192801D00028E9D111
S31508006E00039BB3F5803F28BF00232380E2E70000F9
S31508006E1048F2010210B50388934212D190F908305E
S31508006E20012B15D10B484AF099FF41F02FFF036853
S31508006E3040F6B8315C69084AA446BDE8104000230C
S31508006E40604748F20202934202D190F90930E7E717
S31508006E5010BD00BF1D5D0908036D000810B5044686
S31508006E60FFF766FF20464FF41A718CF07BFB20462D
S31508006E7010BD10B50446FFF779FF204614218CF0A3
S31508006E8071FB204610BD0000254B37B5142503605D
S31508006E9000230446234AC360C0E9012300F12C01FC
S31508006EA000F1280202230095103040F035F804F16D
S31508006EB06C0204F170010223009504F1540040F0BD
S31508006EC02BF8282304F1B002009304F1B40102233D
S31508006ED004F1980040F020F804F58E7204F59071DC
S31508006EE00223009504F5827040F016F8482304F54D
S31508006EF0B072009304F5B271022304F5A47040F051
S31508006F000BF82C2304F50372009304F5047102238D
S31508006F1004F5FA7040F000F8204603B030BD00BF13
S31508006F2020290A08030002004AF0F4BC002310B521
S31508006F3004464360006808B149F0F0F9204610BDE0
S31508006F4038B5002504464560006810B149F0E6F9F1
S31508006F50256038BDF8B50546154B044645F8143B7B
S31508006F60436800F11C0700F10C06B3B12846FFF789
S31508006F70E7FF3846FFF7E4FFE36803B9237294F89E
S31508006F802430304623F0050384F82430FFF7D8FF71
S31508006F900023237284F8243063603846FFF7C6FF5F
S31508006FA02846FFF7C3FF3046FFF7C0FF2046F8BD67
S31508006FB0402C0A0810B50446FFF7CCFF20462821C6
S31508006FC08CF0D0FA204610BDF8B504466E4DD5E8CB
S31508006FD08F3FDF070BD428468CF0C6FA38B128460F
S31508006FE08CF0CEFA694A6A496A488CF0B6FA6A4D54
S31508006FF0D5E88F3FDE070BD428468CF0B5FA38B1B2
S3150800700028468CF0BDFA614A644965488CF0A5FAB1
S31508007010644FD7E88F5F15F0010518D138468CF014
S31508007020A3FAA0B1604E614B3846C6E90035C6E9F9
S315080070300355C6E90555C6E90755357286F824503D
S315080070408CF09EFA3046514A59498CF086FA594DC9
S31508007050D5E88F3FD8070ED428468CF085FA50B16C
S315080070605548FFF711FF28468CF08AFA474A5349D4
S3150800707051488CF072FA524DD5E88F3FD9070ED495
S3150800708028468CF071FA50B14E4E4F4B2846336065
S315080070908CF076FA30463D4A4C498CF05EFA4C4DF7
S315080070A0D5E88F3FDA070ED428468CF05DFA50B142
S315080070B0484E494B284633608CF062FA3046334ACC
S315080070C046498CF04AFA464DD5E88F3FDB070BD484
S315080070D028468CF049FA38B128468CF051FA2B4AE2
S315080070E0404941488CF039FA23691BB9294B3F4A74
S315080070F023615A60236B43B9294B5A6852B92169EF
S315080071001A725960DA601A822363636BFBB9264DDB
S315080071106B680BB10320F8BD05F114002669FFF76B
S315080071200FFF05F11C00FFF70BFFEB6803B92B7285
S3150800713095F824302E4823F0050385F82430FFF708
S31508007140FFFE00236E602B7285F8243065631A4EA5
S315080071502169304652F0E8FA304651F07EFC054681
S3150800716008B12846D7E72269E6610AB92F20D2E78F
S31508007170184B63615A6045F01FF81B4B2062636227
S31508007180104BA361EDE700BF20A8002000000020F7
S31508007190FD6C00081C0000201CA800206D6D00086E
S315080071A008000020F0A70020F4A70020402C0A08B9
S315080071B0556F000884A5002088A50020316D0008B9
S315080071C07CA5002080A50020E45D0908FB6C00086A
S315080071D070A5002074A5002050330A08FF6C00082B
S315080071E06CA50020016D000804000020FBF30120B7
S315080071F000A8002038B504462B492C480DF00AFE95
S315080072002B484AF0ABFD21462A484AF0A7FD2848F4
S315080072104AF0A4FD28484AF0A1FD002108463FF09F
S3150800722009FE00283ED1254D2B7843B928464BF058
S3150800723015F900280CBF012300232B7032D12146F3
S315080072401F484DF019F81F484BF000F81E4CD4E8BB
S315080072508F3FDB070BD420468CF086F938B12046E1
S315080072608CF08EF9194A1A491A488CF076F91A4C94
S3150800727020464CF0ADFE174908460C63FFF7A4FEFE
S315080072801449164857F0E0FF0E484AF0EDFF002271
S3150800729013490C484AF014FF12484AF05FFD0948A2
S315080072A04BF08EF838BD00BF896E0408856E040859
S315080072B0455D0908785D0908845D090800F4012020
S315080072C0F034022008F4012024A800200000002041
S315080072D0F96C00082400002028A800204835022060
S315080072E0116E0008945D090810B5044608218CF053
S315080072F039F9204610BD10B5044604218CF032F940
S31508007300204610BD0648074B074A03600023074975
S31508007310C0E90133C3600374436103838CF01DB96C
S3150800732028A80020A8190A0800000020893F050897
S3150800733070470000002838B50CBF012500250C460B
S31508007340074B0849084808BF19464AF007FD294669
S315080073500648FFF78AFA14B90122054B5A7138BD57
S31508007360045E090850AD0908075E090860A80020F0
S3150800737078A8002002211D20014A3FF09DBE00BFCB
S31508007380185E090802211D20014A3FF095BE00BF7C
S31508007390285E090808B5044A02211D203FF08CFE24
S315080073A0FF22024B1A7008BD375E09085C000020F0
S315080073B010B50488022C06D102798168084800F0C5
S315080073C05FFA40B110BD002CFCD1054800F0AFF9BA
S315080073D021460246F2E70348BDE810404AF0BEBC23
S315080073E090A80020515E090830B515460C4685B0B0
S315080073F081B11022002168468CF0B1FF094B8DF847
S3150800740004509C4208D1012D06D1074B68460393C8
S31508007410FFF752F905B030BD044B9C42FAD1044B34
S31508007420F4E700BF1C7B0908B1730008047B090850
S31508007430FD65000807B50B4800F079F9019023F0BF
S31508007440DBF801210023019A23F078F9014628B1D7
S31508007450054803B05DF804EB4AF080BC03B05DF85C
S3150800746004FB00BF90A800207A5E090810B5044600
S3150800747008218CF077F8204610BD000070B5037D12
S315080074801F4D0B2B04462B7007D1837D02211D202F
S315080074901C4A3FF011FEA37D2B702E78FE2E0FD0CE
S315080074A0FF2E1DD0022E24D841F0F0FB036841F2CE
S315080074B088315D692346144AAC46BDE8704060478A
S315080074C041F0E4FB036822469B690F49984741F05F
S315080074D0DDFB03684FF47A715D690B4A2346EBE7D7
S315080074E041F0D4FB036822469B69074998472E70EA
S315080074F070BD0221BDE870401D20044A3FF0DCBD86
S315080075005C000020925E090895730008E45E09088D
S3150800751010B568B908484AF021FC084C637933B1BC
S315080075200022074907484AF0BFFE0023637110BDD1
S315080075300128F2D10448EEE7F95E090878A8002088
S315080075403574000808F40120025F090810B51449CB
S31508007550FEF7F8FE044628B112484AF0FFFB20461B
S31508007560FFF7DAF9104800F0A7F8044628B10F48E3
S315080075704AF0F4FB2046FFF7CFF90D4A0D490A48B1
S3150800758000F0D2F80C490D48FFF77EF9064800F0DE
S31508007590CEF801460948FFF768F9204610BD00BF36
S315080075A044A800200C5F090890A800202B5F090852
S315080075B011750008357300084C7B090860A800207F
S315080075C030B5056885B00F48FFF7C0FF044628B1F7
S315080075D00D484AF0C3FB2046FFF79EF9FFF74EF821
S315080075E00A484AF0BBFB074C0A226946284612F0AD
S315080075F093F90128F8D169462046FFF79BF800223F
S31508007600F3E700BF78A80020435F0908595F090817
S315080076100149FEF75BBE00BFC17500081FB5002310
S31508007620CDE902330C4B0D4C019302230121009343
S3150800763020460B4B0B4A20F0D9FF20460A4A0B4935
S315080076408BF08BFF0A480B4B074A0B49036004B0C3
S31508007650BDE810408BF081BF7D74000844A8002067
S31508007660857300087573000800000020218602084B
S3150800767078A80020745F0908317300081FB513F055
S31508007680DBFC0123ADF80030037D01903BB1074BCD
S3150800769068460393FFF710F805B05DF804FB437DD1
S315080076A00BB1034BF4E7034BF2E700BFE1780008A0
S315080076B009790008C57700081FB5164B04460093DC
S315080076C0002203460121144813F008FB134B1860E7
S315080076D030B913484AF042FB40F2047004B010BDBA
S315080076E010484AF0B3FD22F087FF01210DF10F0281
S315080076F022F096FF0B484AF0B7FD9DF80F300020A0
S31508007700002B14BF032301232073A3702061A082DA
S31508007710E4E700BF7D760008805F0908A8A8002076
S31508007720895F090808F40120C0E9011270478078CA
S31508007730C31E584258417047002307B50A480093AC
S315080077401A460321006813F0F9FA48B907484AF0BF
S3150800775005FB40F2067003B05DF804EBFFF7DCB8F2
S3150800776003B05DF804FB00BFA8A80020A95F0908BC
S3150800777073B5114E054630680C4613F043FC28B124
S315080077800E484AF0EBFA2846FFF7D6FF642322464E
S31508007790009304210023306813F0D0FA012809D099
S315080077A007484AF0DBFA40F2057002B0BDE87040BF
S315080077B0FFF7B2B802B070BDA8A80020B5590908ED
S315080077C0C35F090838B54468A378BBB90125A57015
S315080077D0A3680BB128469847237BABB1A5B94FF4EC
S315080077E07A71236920465943FFF7C2FF012323759F
S315080077F021690648BDE838404AF0B0BA022B03D1E1
S3150800780003230025A370E3E738BD00BFE45F09083A
S3150800781008B5037A417ADBB969B9144A02211D20F1
S315080078203FF04AFC4FF44871012311484375BDE8FF
S315080078300840FFF79DBF012901D10E4AEEE702294C
S3150800784011D11D200C4A3FF037FC4FF44851EBE7A5
S31508007850012B08D139B902211D20084A3FF02CFC1A
S3150800786040F2DC51E0E70021DEE700BF1B600908B3
S3150800787090A80020666009089E600908106109083A
S31508007880F8B583780446012B0F46164624D0457D65
S3150800789005B1FAB1032B21D1012E1FD1F5B9237DEC
S315080078A023B11DB920462575FFF746FF637D2BB129
S315080078B025B12046FFF740FF002363750A212046BD
S315080078C0FFF756FF6368A57013B1394630469847E7
S315080078D00120F8BD0225E2E7002AFBD00020F8E7E0
S315080078E010B54468237D5BB10023064823754AF02A
S315080078F035FA01222046BDE810401146FFF7C0BF01
S3150800790010BD00BF7C61090810B54468637D5BB192
S315080079100023064863754AF021FA01222046BDE88D
S3150800792010401146FFF7ACBF10BD00BF9E610908A5
S31508007930002313B5074C01212046074A009323F07C
S3150800794071F92046054A064902B0BDE810408BF099
S3150800795004BE00BF80A8002011780008000000209F
S3150800796041AC02082DE9FF411D46D0E90164B3B2D6
S3150800797000930F46904602211D20244A330C3FF0FF
S315080079809BFB062E0BD1CCB92A780221B2FA82F2D9
S315080079901F48520904B0BDE8F041FFF771BF082E31
S315080079A00FD12B781B4ACDE90173A3B20093CDF80A
S315080079B00C80230C02211D203FF07EFB04B0BDE89D
S315080079C0F081B6F5407F09D12B78134ACDE90173CA
S315080079D0A3B20093CDF80C80230CEBE7072E09D150
S315080079E02B780E4ACDE90173A3B20093CDF80C802B
S315080079F0230CDFE7032EE1D12B78094ACDE9017381
S31508007A00A3B20093CDF80C80230CD3E7B261090822
S31508007A1090A80020D0610908166209085C62090866
S31508007A20AF6209087047704710B5044608218BF005
S31508007A3099FD204610BD000008B5FFF73EF9194824
S31508007A40FFF7D8FB10B1AC20FEF766FF164B1748B8
S31508007A50D3F8BC1241F0ADF8144841F0B7F8144811
S31508007A604AF0F4FB54F008FA4FF0ECF910484AF0E3
S31508007A70FBFB10484AF072F90F48FFF7C9FD10B131
S31508007A80AC20FEF749FF0D484AF068F90AF016FCE3
S31508007A903FF0E6F90A484AF061F9AC20FEF73CFFE8
S31508007AA0002008BDF0620908486502206000002031
S31508007AB008F40120FD62090878A800200F63090868
S31508007AC02B630908024A034903488BF046BD00BFE9
S31508007AD000000020277A00086000002007B5019002
S31508007AE007F0FBFB02460199024803B05DF804EB78
S31508007AF0FFF77ABC78A8002070B50446D1E90423BC
S31508007B0052EA03000DD064258868CE68A0FB0501FB
S31508007B1005FB06118CF05EF8012360702370204681
S31508007B2070BD002323706370F9E7D0E9020170473E
S31508007B30704700238360704700234360704770478F
S31508007B40043870477047704710B5044610218BF00B
S31508007B5009FD204610BDA0F10400F5E710B5044B59
S31508007B6004460360006B08B148F0D8FB204610BDF8
S31508007B7034180A0810B5044601210C20054A3FF0BE
S31508007B809BFAE06820B1BDE8104003689B68184777
S31508007B9010BD00BF48630908A0F10400EAE700BF6A
S31508007BA038B50B4CD4E88F3FDB070ED420468BF054
S31508007BB0DBFC50B1074D084B20462B608BF0E0FCF0
S31508007BC02846064A06498BF0C8FC024838BD00BF5D
S31508007BD0ACA80020B0A80020BCF1090800000020CD
S31508007BE0317B000810B504460B4B036064334360D1
S31508007BF000F51C7041F068FFA36D23B1002204F163
S31508007C003800A2659847A36A23B1002204F1080048
S31508007C10A2629847204610BDA0BF0908A0F104003B
S31508007C20E0E700BF10B50446006808B141F04CF91A
S31508007C30204610BD10B50446034B40F8343BFFF709
S31508007C40F1FF204610BD00BFE8B8090837B5C0687F
S31508007C500D46144638B901210C200E4A3FF02CFA7D
S31508007C60002003B030BD1A682146019200221A602E
S31508007C7001AA25F01BF801A8FFF7D4FFA38823B9AA
S31508007C80E38813B92378402BEAD02B8943F04003C5
S31508007C902B81E5E75B630908A0F10400D6E700BF7E
S31508007CA0F0B505460C46152003211A4A85B03FF063
S31508007CB003FAAF6817B9032005B0F0BD0023ADF885
S31508007CC008302389267B23B96389022B1ED1142EFB
S31508007CD002D00123ADF80830606841F09FF8636868
S31508007CE03246039302AB0093A168384603AB3FF0D4
S31508007CF0DDFC044603A8FFF795FF2CB1A86818B168
S31508007D003FF06CFC0023AB602046D5E7002BE0D1A2
S31508007D10402EDDE78E63090810B5044604218BF072
S31508007D2021FC204610BD0000F7B5104F104E38460E
S31508007D3025F074FB0F49104D01F54053D3F8BC32BA
S31508007D400E4A0F4C536038463346009525F096FD8B
S31508007D500C4B224639463046336127F0E7F80A4B82
S31508007D60256263636C6003B0F0BD00BFD0A9002034
S31508007D707000002048350220B8A8002068000020BE
S31508007D8098A90020805101009F63090810B5044690
S31508007D90FFF728FF20464FF422718BF0E3FB2046BD
S31508007DA010BDA0F10400F1E710B5044608218BF0D8
S31508007DB0D9FB204610BD10B504461C218BF0D2FB1A
S31508007DC0204610BD10B50446FFF734FF2046E021D3
S31508007DD08BF0C8FB204610BD10B50446FFF7BEFE63
S31508007DE0204638218BF0BEFB204610BDF8B53C482E
S31508007DF03C4B002403606433436000F10803C0E988
S31508007E000233394BC0E90A40036300F13803C0E97D
S31508007E100E33364BC0E916400366354BC0E91A44A3
S31508007E20C3672033C0F880300523C0E92E44C0E973
S31508007E303044C0E97244046780F87440846780F867
S31508007E40AC4080F8D041C0F8D44180F8D84180F8D9
S31508007E50F04180F8084280F82042C0F85432254B99
S31508007E60C0E99D44C0F87032234A244980F8384254
S31508007E70C0F8504280F8584280F87C42204D8BF07A
S31508007E806CFB1D4A1F4920488BF067FB1A4A1F499D
S31508007E901F488BF062FB2846002600271D4B6C60A6
S31508007EA040F8103B2C7257F053FF2846124A1A49DD
S31508007EB0C5E93444C5E936448BF04FFB1748184BDF
S31508007EC0C0E90267C0E90467C0E90644C0E90C4492
S31508007ED00360094A1349BDE8F8408BF03EBB00BF72
S31508007EE0D0A90020A0BF0908A9E9020811D60208EE
S31508007EF0B06309089CFC090800000020E57B00081F
S31508007F00B8A80020457B000868000020477B0008C9
S31508007F1070000020E8B80908357C000898A90020F8
S31508007F2034180A085D7B00080346084611460BB953
S31508007F3006F026BD7047000010B50B4C0246B4F893
S31508007F408E300A490A4849F009FFB4F88E3020688D
S31508007F500133A4F88E30A389202123F00803A381D6
S31508007F60BDE8104011F0E2B860AC00208A69090843
S31508007F70E863090838B5184C0246184905461848F2
S31508007F8049F0ECFEA3891C2023F00803A3818CF09A
S31508007F9091F9144B1C22002118608CF0E0F99DB170
S31508007FA0B4F88E200D49104849F0D8FEB4F88E3042
S31508007FB001339BB2042BA4F88E300BD820212068FD
S31508007FC0BDE8384011F0B2B80449084849F0C6FE81
S31508007FD00121F4E738BD00BF60AC002055690908E7
S31508007FE0116409085CAC0020226409083864090891
S31508007FF013B50E4B04461B780DF1070180F82130A6
S315080080000B4BDA8980F82820D3F88220C0F8222082
S31508008010B3F886300122C384032001F0B9FB18B9EE
S315080080209DF807305B42638502B010BD5AAC00204C
S3150800803060AC0020002130B589B01822044602A899
S3150800804001918CF08CF91C220A2001A901F0A0FBF1
S31508008050054630B10146134849F080FE284609B066
S3150800806030BD114A13681968019B5B1A23601368AF
S31508008070029A5968521A62609968039A521AA2605B
S31508008080D968049A521AE2601969059A521A226145
S315080080905969069A521A62619A69079B9B1AA361E3
S315080080A0DCE700BF4C6409085CAC0020002110B571
S315080080B088B0182202A801918CF051F91C220A20D6
S315080080C001A901F065FB044630B101460B4849F0A9
S315080080D045FE204608B010BD094B01991A68116083
S315080080E01B68029A5A60039A9A60049ADA60059A9B
S315080080F01A61069A5A61079A9A61EAE74C6409086E
S315080081005CAC002001F006BB2DE9F04F4FF40042AD
S31508008110B349B448ADF5137D49F020FE4FF420511C
S31508008120B14801F083FDB0F5205F044607D9024641
S31508008130AB49AE4849F012FE002C4DD025E0A849BF
S31508008140AB4849F00BFE312001F044FF044618B154
S315080081500246A349A748EDE7A74EA149A74849F013
S31508008160FDFD331D01930123A54900934FF4E062F9
S315080081702346A44811F098FF0128054698490DD0D2
S31508008180A14849F0EBFD6FF0010422469F49A0483B
S315080081900DF5137DBDE8F04F49F0E0BD9D4849F067
S315080081A0DDFD2146204601F0E7FD044618B10246EA
S315080081B08B499948BEE78A49984849F0CFFD8022FD
S315080081C0284611A901F0E4FA002800F0E7802246C3
S315080081D08349934849F0C2FD06F094FC12F030F842
S315080081E08146002006F0BAFC059000F0EFFB8749AF
S315080081F08C4849F0B3FD804C844FFA230093012242
S3150800820000233321206810F0E9FE054620B1024616
S315080082103946854849F0A2FDA389DE0640F1648106
S3150800822012F00EF809F1FA038342064680F05C81E3
S31508008230059B93F8A430302B15D1DFF8189299F8DE
S31508008240003083B94FF0010A012000F025FC89F8B7
S3150800825000A0DFF8FC9199F8000020B9734900F0F6
S31508008260DFFB89F800A0A80637D501230021009373
S315080082706F4840F2022311AA00F06CFF68B99DF816
S315080082804D30DDF8722084F872309DF84C30E38169
S31508008290664B1A60BDF876209A8094F872305A1E9A
S315080082A0012A00F22381634A1370062384F8723088
S315080082B0019094F8723060490093604B6048A3F1CE
S315080082C0210249F04BFDA38903F01803002B00F0A7
S315080082D015815C495C4849F041FDE9070ED53946E8
S315080082E05A4849F03BFDA389594A43F01003A38134
S315080082F000231370574A137006F0D0FBAA0711D54E
S31508008300A389394623F058035348A38149F026FD2B
S3150800831006F0E0FB002000F0BFFB00234D4A137077
S315080083204B4A1370EB0637D5A58915F4806533D10A
S3150800833039464A4849F012FD29464FF4F87212A800
S3150800834011958CF00CF84FF4FA7211A9012001F07E
S3150800835095F9054602464FF4FA733946404849F0FE
S31508008360FDFC65B9DFF80C91DFF80CA1DFF80CB15C
S315080083700DF172089DF84420AA4200F3FE800025FC
S31508008380A389002023F48063A381636F9847A06FB5
S315080083906567002840F02281B1462EE7104931482A
S315080083A011AA8DF8C34049F0D9FC01F087FD0446AF
S315080083B018B102460A492C48BCE609492B4849F037
S315080083C0CDFC04F0FBF80622022006F17C0101F040
S315080083D0DFF90446002853D0024601492448A9E695
S315080083E09F6909086C640908F4AC002087640908C9
S315080083F0B8640908CC64090860AC0020006509085F
S315080084001C650908C19F000824650908AC690908A4
S31508008410496709084F650908656509089B650908DC
S31508008420B0650908736709088B670908E2AC00207C
S3150800843070AC00205AAC00207569090891AC002080
S31508008440AA67090865690908DE670908AF6809089F
S3150800845059AC002058AC0020C5680908DB68090833
S31508008460EF680908F16509080E66090849660908EA
S3150800847069660908496909080A6909081B69090832
S3150800848096F881305749039396F8803056480293F8
S3150800849096F87F30019396F87E30009396F87D30F3
S315080084A096F87C2049F05AFC10F08AFD4F49306056
S315080084B0204601F08FFA044618B1024649494C484D
S315080084C038E606204B4901F085FA044618B10246FB
S315080084D0444949482EE6B389424943F001034748CF
S315080084E0B38149F03BFC77E64E46BCE6072B7FF4A2
S315080084F0DFAE0322424B1A700D23D7E694F872308A
S3150800850040490093404B4148A3F1210249F026FC1B
S31508008510A389DFF8109143F00803DFF8ECA0DFF831
S31508008520E4B0A3814B46524694F87210384800F0DE
S315080085304BFE30B9B4F88E30052B18D1194635489C
S31508008540C9E6B4F88E3001339BB2042BA4F88E30FA
S31508008550F0D8A289594622F00802A28102462E487E
S3150800856049F0FCFB4FF47A6011F088FFDAE7284AF5
S3150800857024492A4849F0F2FBAFE6A8F1220106A8E9
S315080085808CF039FCA26F3AB3504649F0E7FB5846DF
S31508008590A16F06AA49F0E2FBA06F06A98CF021FCA0
S315080085A0B0B91F4849F0DAFB18F8252C06A88DF84B
S315080085B0392018F8242C5242ADF84220D8F8002069
S315080085C0CDF83A20B8F80420ADF83E20626F9047FF
S315080085D0013508F12E08CDE64846E3E7FEF704FB29
S315080085E0A567D9E69F6909089A660908397F0008C8
S315080085F0C6660908297F0008FE6609083D67090856
S315080086005AAC00206569090891AC0020046809087D
S3150800861070AC0020696809082B680908876809088A
S3150800862037690908757F0008024B1B68186A1430F9
S3150800863003F0B2B870D50020143018448BF068BE29
S3150800864038B50D460446031D1022184600218BF046
S3150800865086FEC5F30B0103F03DFA6379214643F024
S3150800866050036371A37943F00103A3710E4B0F4CBA
S315080086701868243003F034F92268012092F82A3069
S3150800868043F0010382F82A3002F08EFE206847F292
S315080086902471243003F07EFF18B9BDE8384000F095
S315080086A051BC6FF01D0038BD70D5002074D5002070
S315080086B037B5144DAB8913F4007406D01248134924
S315080086C049F04CFB002003B030BD43F40073AB8186
S315080086D00E490F48083549F041FB01950125234607
S315080086E04FF400620B490C48009511F0DDFCA842D6
S315080086F005D00A48054949F031FB2846E3E72046F4
S31508008700E1E700BF60AC0020B9690908206B0908D9
S31508008710CE690908DD69090809810008E5690908BB
S31508008720024A938943F080039381704760AC002026
S31508008730024B9889C0F3C010704700BF60AC002098
S315080087401FB50E4AD06F0860B2F880300C488B808F
S3150800875092F881300B49039392F88030029392F88D
S315080087607F30019392F87E30009392F87D3092F82C
S315080087707C2049F0F3FA05B05DF804FB60AC0020F4
S31508008780076A09080A6B090870B50546084C0949BD
S315080087902246094849F0E2FA6322294620468BF028
S315080087A0B7FD34F8043C43F0040324F8043C70BDD8
S315080087B070AC0020976B0908296A090808B50346B2
S315080087C050B106498B8913F0040305D06322103192
S315080087D08BF09EFD012008BD1846FCE760AC002022
S315080087E008B5094B6322002118468BF0B8FD30F80E
S315080087F0042C064922F0040220F8042CBDE808409F
S31508008800034849F0ABBA00BF70AC00207E6B09087C
S31508008810366A090810B50C4CA3895B070DD50B49B8
S315080088200B4804F1310304F1100249F097FA2021AC
S31508008830206810F07BFC002010BD0648034949F06B
S315080088408DFA2320F8E700BF60AC00206C6B09089E
S31508008850456A0908786A09080149024849F07EBA52
S31508008860536B0908A06A090810B5084B084A9B8982
S31508008870084913F0100FC3F30014074B074808BF45
S315080088801A4649F06BFA204610BD00BF60AC0020BE
S31508008890891A0A083E6B0908BE6A0908CC6A0908DB
S315080088A0024B988900F00100704700BF60AC0020B9
S315080088B010B50949094849F051FAFFF723FC04465F
S315080088C0074A05499389074823F01003938149F01D
S315080088D045FA204610BD00BF2F6B0908DB6A090858
S315080088E060AC0020366A090810B550B9064B9C8959
S315080088F0C4F3001422460549054849F02FFA2046D4
S3150800890010BD0024F6E700BF60AC0020F76A09082E
S31508008910E86A0908024B988900F00100704700BF11
S3150800892060AC0020FFF764BBFFF784BBFFF7BEBB54
S3150800893070B50D4C0546636F0E460BB1002070BD31
S3150800894050B18CF060FA0130FEF7A2F8A067002853
S31508008950F4D029468CF04FFA10212068666710F08B
S31508008960E5FB0120EBE700BF60AC00207047000084
S3150800897070B5114ED6E88F5F15F0010519D130464E
S315080089808AF0F2FDA8B10D4C0D4B0022C4E903355F
S315080089900023C4E9062301233046C4E9015565616D
S315080089A02562A3628AF0ECFD2046064A06498AF04B
S315080089B0D4FD024870BD00BFF4D40020F8D40020CE
S315080089C0A415AE15000000206D89000810B5102406
S315080089D086B01049104849F0C1F92246002102A87C
S315080089E08BF0BDFC0123694600208DF80A30ADF8EE
S315080089F00840FFF7A5FE0098BDF80430CDF8120030
S31508008A000021064802AAADF8163049F03DFD06B029
S31508008A1010BD00BFAE6B0908DB6A090800F4012027
S31508008A2070B504460D4686B01549164849F096F9BC
S31508008A303CB122461249144806B0BDE8704049F0D8
S31508008A408DB914260E49114849F088F9324621464F
S31508008A5001A88BF084FC02238DF806300C4B28689D
S31508008A60DB890390ADF81230AB882146094801AA84
S31508008A70ADF80460ADF8103049F006FD06B070BDDB
S31508008A80C16B0908DB6A0908D66B0908F46B090883
S31508008A9060AC002000F4012013B5044612491348BF
S31508008AA049F05CF900239C428DF8073014BF012376
S31508008AB002238DF80630042301210D480DEB03022D
S31508008AC0ADF8043049F0E0FC64B1012011F0D6FCA1
S31508008AD0084849F0BBFBFFF74BFF55F02DFA054850
S31508008AE049F0C2FB02B010BD036C0908DB6A09082D
S31508008AF000F4012008F40120052807D12022044BA0
S31508008B00C3F82024034B1B6803B11847704700BFFE
S31508008B1000E0035028D50020024B014618600248A1
S31508008B2049F01CB928D50020136C09082022024BED
S31508008B30C3F82424704700BF00E003504FF00072CA
S31508008B40044B1A604FF080621A602022024BC3F869
S31508008B502424704700E100E000D00350024B586C13
S31508008B60C0F3C010704700BF00C0035010B50446DC
S31508008B7001213A2007F058FA3CB92046BDE81040D2
S31508008B8001230422062108F04DBB10BD20B901239C
S31508008B900722062108F046BB7047000010B940229C
S31508008BA0014B1A64704700BF00E00350074A536838
S31508008BB0984207D01369984206D101230C214B43EA
S31508008BC0D35818470023F9E7704700BF2CD5002073
S31508008BD011F036BB30B14FF47A735843B0FBF3F05B
S31508008BE011F04CBC704700000129F7B534D01C4E73
S31508008BF0746834B132691AB16FF0050003B0F0BD7C
S31508008C0001240C224FF47A7C54437222002537192A
S31508008C10B8720CFB03F07A72089A124B32514A1B4F
S31508008C2004F10904B0FBFCF1FD7206EB04000093A5
S31508008C3018BF01222B4612F051F804467860002826
S31508008C40DAD011F0FDFA2B4602460121204600959E
S31508008C5012F074F82846D1E76FF00E00CEE700BF91
S31508008C602CD50020AD8B0008002307B50193084BCF
S31508008C7001A9186810F0F6FD019B2BB14FF0E0230F
S31508008C804FF08052C3F8042D012003B05DF804FBB1
S31508008C904CD5002070B501218EB0572007F0C4F9D5
S31508008CA0002304220121022008F0BCFA1C4E0221EE
S31508008CB0354608460023012208F0B4FA06AC00231C
S31508008CC004220321022008F0ADFA0FCD0FC495E85F
S31508008CD00F0084E80F0001238DF81D30072301AD2E
S31508008CE006F120048DF820300FCC0FC50D4B0E4A27
S31508008CF0039306AB05930D4B0D48C3F8CC244FF0F0
S31508008D000212C3F8C42402F58032C3F8C8241C2210
S31508008D1001A9C3F8B42412F051FD0EB070BD00BF0E
S31508008D207C6C0908001BB7000200010000C0035054
S31508008D3000000A5007B512F077FF12F039FF052137
S31508008D40802007F095FD01213A2007F06DF90123EF
S31508008D5004220621002008F065FA0023042218469A
S31508008D60052108F05FFA06F073FD00230222184673
S31508008D70072108F057FA012300200522CDE9000350
S31508008D80072108F0F7F90520074906F079FD2022A2
S31508008D90064BC3F824245022054B83F81A2383F87C
S31508008DA0192303B05DF804FBF98A000800E00350B4
S31508008DB000E100E038B54025074C0A2004F50053C9
S31508008DC01D6404F5805411F059FB25640320BDE8A1
S31508008DD0384011F053BB00BF00C0035008B503224A
S31508008DE00021012010F086FB124B1860002319465B
S31508008DF01A4610F0E3FB104848F0B0FFFFF79AFF59
S31508008E000E4848F0ABFFFFF745FF06F061FC00216E
S31508008E100B4806F02DFC00210A4806F029FC0A48F2
S31508008E2048F09CFFFFF7C6FFBDE80840074848F032
S31508008E3095BF00BF4CD500202D6C0908406C090869
S31508008E4050D5002048D50020526C0908666C0908E0
S31508008E502DE9F04304460D46164687B0002A3DD054
S31508008E604FF440622E4BDFF8D0809A634FF0FF3103
S31508008E70D8F8000010F0E0FD01282FD1DFF8BCC0BB
S31508008E80284BDFF8BC906CBB274F2A463C60CDE9DF
S31508008E900334CDE901640090244B4FF48011DCF8CB
S31508008EA0000006F065FC3B46CDE90344CDE90164C4
S31508008EB000941F4A1F49D9F8000006F03FFC4FF0FE
S31508008EC0FF31D8F8000010F0B7FD012806D10023BD
S31508008ED0D8F800001A46194610F070FB002007B0B3
S31508008EE0BDE8F083CDB1AA222A7055226A70002700
S31508008EF0CDE90335CDE9016700900C4B2A464FF4BE
S31508008F008011DCF8000006F033FC0123CDE9037775
S31508008F100093CDE901672346CBE72846024DE6E7ED
S31508008F2000000A50698C000844D500203C000A500D
S31508008F3044000A50010010004CD5002048D50020F6
S31508008F4050D50020024B1B681B6A5868704700BF43
S31508008F5070D500202DE9F84F1E467B4B07461B6847
S31508008F6089461D6A90462B78002B00F0EA802B78FC
S31508008F70042B00F2E6805EB92B780A2B00F2D48027
S31508008F80DFE803F0DA1065828282DADADADADA0002
S31508008F900121084601F024FD04460028ECD02046AD
S31508008FA0BDE8F88FEB8D05F1140BDB072FD5584676
S31508008FB002F0F2FB014630B90021012001F010FD54
S31508008FC06FF00304EBE74FF0000AC0F814A0A0F80E
S31508008FD018A02A6B5D4C4261AA8E0283226817206C
S31508008FE092F8293043F0010382F8293002F06AFE2C
S31508008FF0206847F29451103003F0CCFAFFF7A2FF2D
S31508009000044620B10021012001F0EAFCC7E75846D2
S3150800901002F0C2FB01460028CED04FF0000A4B4CA6
S3150800902080F814A02268112092F8293043F0010331
S3150800903082F8293002F046FE206847F29451103033
S3150800904003F0A8FAFFF77EFF04460028DAD105F1F7
S31508009050140002F0A1FB01460028ADD03B4C1220BB
S31508009060226892F8293043F0010382F8293002F089
S3150800907029FE206848F2E801103003F08BFAFFF762
S3150800908061FF04460028BDD11435284602F084FB4A
S315080090900146002890D0DFF8B4A0BE20DAF80020F8
S315080090A092F8293043F0010382F8293002F00AFECB
S315080090B0DAF8000047F29451103003F06BFAFFF724
S315080090C041FF044600289DD1284602F065FB054667
S315080090D000283FF471AF00F11403214632221846E6
S315080090E08BF03DF9494602F003FD27B1394605F1F3
S315080090F018008BF080FE85F83F8066B1144B1B681C
S31508009100C3F898602946132002F0DCFD0446002EB9
S315080091103FF445AF76E7DAF8002092F8293043F0B5
S31508009120010382F82930EDE746B93146012001F0FE
S3150800913057FC6FF0040432E70024E8E76FF00404F4
S3150800914060E76FF002042AE770D5002074D5002086
S3150800915068D500202DE9F7439846194B91461B68B8
S315080091600A9A1D6A06462B780F46019213B32B7886
S31508009170042B1FD80121084601F032FC0446D8B951
S31508009180034639463046C5E90998019AFFF7E2FED3
S31508009190044688B90B4B48F6B8011868103003F036
S315080091A0F9F92146012001F01BFC03B0BDE8F043A4
S315080091B0FFF7C8BE6FF00204204603B0BDE8F0838F
S315080091C070D5002074D500202DE9F74F1546AA4A18
S315080091D0814612680E469846176A53B9A6B93B786F
S315080091E0042B1ED90021012001F0FAFB6FF00204BE
S315080091F006E00121084601F0F3FB04460028EDD0FD
S31508009200204603B0BDE8F08F002DE8D1A6F10A0389
S31508009210012BE4D90021012001F0E2FB6FF00104E3
S31508009220EEE7FB8E022B02D1331F012BF2D83B78D7
S315080092300A2B00F28A81DFE813F092010B005C002A
S315080092407900A9009201920192019201920192017C
S31508009250FB8D07F1140BDB072FD5584602F09CFA55
S31508009260014630B90021012001F0BAFB6FF0030472
S31508009270C6E74FF0000AC0F814A0A0F818A03A6B89
S315080092807E4C4261BA8E02832268172092F82930F2
S3150800929043F0010382F8293002F014FD206847F2F2
S315080092A09451103003F076F9FFF74CFE044620B1CE
S315080092B00021012001F094FBA2E7584602F06CFA5F
S315080092C001460028CED06D4C1120226892F829302C
S315080092D043F0010382F8293002F0F4FC206847F2D3
S315080092E09451103003F056F9FFF72CFE0446002877
S315080092F0DED107F1140002F04FFA01460028B1D07A
S315080093005E4C1220226892F8293043F0010382F855
S31508009310293002F0D7FC206848F2E801103003F043
S3150800932039F9FFF70FFE04460028C1D107F11400EA
S3150800933002F032FA0446002894D000213222C7E906
S31508009340091114308BF00BF8B9F1000F04D0494617
S3150800935004F118008BF04FFDDFF820A12146DAF85A
S315080093600020132092F8293043F0010382F82930AF
S3150800937002F0A8FCDAF8000049F64041103003F084
S3150800938009F9FFF7DFFD0446002891D1FB8E07F1A6
S31508009390140A022B40F0E880504602F0FDF9044614
S315080093A000283FF45FAF4FF4AB72002114308AF007
S315080093B0D6FF294604F1540305F1400251F8040B7F
S315080093C0914243F8040BF9D1DFF8B0B0802204F1DA
S315080093D094008AF09DFFDBF80020214692F8293098
S315080093E04C2043F0010382F8293002F06BFCDBF8CD
S315080093F0000048F6B801103003F0CCF8FFF7A2FDDC
S31508009400044600287FF454AF092E40F0B080FB8E46
S31508009410022B00F0D880504602F0BEF90446002818
S315080094203FF420AF0026012146618661C6611430EB
S3150800943002F050FB04F11600314602F04BFB2B6894
S315080094402146A3616B680D4DE3612A68722092F884
S31508009450293043F0010382F8293002F033FC2868EA
S315080094600749103003F096F8FFF76CFD044600280C
S315080094707FF41EAF0926A6E070D5002074D500201B
S31508009480503403000E2E00F29E8047F2C611F140BA
S31508009490C94311F00101019140F09580FB8E022B22
S315080094A000F09180504602F077F9044600283FF410
S315080094B0D9AE6322019914308AF051FFF21F012AAE
S315080094C004F1150302D90C2E19D10626022222759B
S315080094D005F1200255F8041B954243F8041BF9D1FF
S315080094E0634D21462A68A52092F8293043F00103E6
S315080094F082F8293002F0E6FB28685E495AE0012224
S31508009500227505F1400255F8041B954243F8041BE1
S31508009510F9D1E5E7072E01D1012388E0A6F1090371
S31508009520022B40F285800D2E01D107237FE00E2EF7
S3150800953001D108237BE06E757AE03A6892F8293003
S3150800954043F0010382F8293087E0B8F1000F08D10B
S315080095504146012001F044FA6FF0040450E6002465
S3150800956080E06FF00404A3E6092E3FF454AF032EFF
S3150800957088D1504602F010F9044600283FF472AE2E
S3150800958000F114031846822200218AF0E8FE2946D3
S31508009590374D82228AF0BCFE2A68214692F8293085
S315080095A0252043F0010382F8293002F08BFB48F6A8
S315080095B0B8012868103002F0EDFFFFF7C3FC044637
S315080095C000287FF475AE504602F0E6F804460028F7
S315080095D03FF448AE264F1022002114308AF0BFFE11
S315080095E03A68214692F829306F2043F0010382F841
S315080095F0293002F067FB386847F22471103002F010
S31508009600C9FFFFF79FFC044600287FF451AE504679
S3150800961002F0C2F8054600283FF424AE752221461A
S3150800962014308AF09CFE082E7FF474AF02236B7503
S31508009630B9F1000F09D048468BF0E5FB494685F895
S315080096407D0005F158008BF0D6FBB8F1000F3FF40A
S3150800965074AF094B1B68C3F89C802946142002F096
S3150800966031FB0446B8F1000F3FF4CAAD20E600BF4F
S3150800967074D500205034030068D500202DE9F04148
S31508009680224B06461B6888461D6A17462B78042B0C
S3150800969038D90121084601F0A3F9044668B9C5E995
S315080096A0098705F1140002F077F8054640B9214606
S315080096B0012001F095F96FF003042046BDE8F0811A
S315080096C021460F2214308AF04AFEAB23104C2B7524
S315080096D022686E7592F82930294643F0010382F80C
S315080096E029306A2002F0EEFA206848F6B8011030F0
S315080096F002F050FFFFF726FC00210446012001F086
S315080097006FF9DAE76FF00204D7E700BF70D50020DB
S3150800971074D5002038B51C4B1B681D6A2B78042BA2
S315080097202ED90121084601F05BF9044658B905F11E
S31508009730140002F031F8014638B92146012001F03B
S315080097404FF96FF00304204638BD446184610F4C1D
S315080097501920226892F8293043F0010382F829304B
S3150800976002F0B0FA206847F29451103002F012FF66
S31508009770FFF7E8FB00210446012001F031F9E2E792
S315080097806FF00204DFE700BF70D5002074D5002013
S315080097902DE9F0418C4B16461B688846DA68074661
S315080097A0117859B9012840F00C811378012BFCD1A6
S315080097B031464046BDE8F04100F0C0BB0128F7D06D
S315080097C0012108461C6A01F00BF9054600BB84F81E
S315080097D02C70C4F82480B8F1000F0AD0A662023FA4
S315080097E0082F29D8DFE807F0300856418EA6A9BF0A
S315080097F0D800C4F82880F2E704F1140001F0CCFF81
S31508009800014640B90021012001F0EAF86FF003058E
S315080098102846BDE8F0813A206C4C226892F8293037
S3150800982043F0010382F8293002F04CFA47F29451CA
S315080098302068103002F0AEFEFFF784FB00210546D3
S31508009840012001F0CDF8E3E704F1140001F0A4FFCC
S3150800985001460028D6D05D4C4A20226892F8293065
S3150800986043F0010382F82930DEE704F1140001F021
S3150800987093FF01460028C5D0544C4820226892F828
S31508009880293043F0010382F8293002F01BFA2068D8
S315080098904F49CEE7852E06D80021012001F0A0F811
S315080098A06FF00505B4E7E38E062B15D104F1140015
S315080098B001F072FF01460028A4D04E20434C2268CE
S315080098C092F8293043F0010382F8293002F0FAF9B8
S315080098D047F2F8512068ACE723F002020AB1092BD7
S315080098E0AAD104F1140001F057FF0146002889D0D7
S315080098F0364C1820226892F8293043F0010382F882
S315080099002930E3E7C12EC7D904F1140001F044FF5A
S31508009910014600283FF476AF2C4C4E20226892F878
S31508009920293043F0010382F8293002F0CBF94E21A1
S3150800993020687EE7F12ED4D8AEE740F20C539E425B
S31508009940AAD904F1140001F027FF014600283FF4C4
S3150800995059AF1E4C2220226892F8293043F00103A1
S3150800996082F82930B2E7072E96D904F1140001F0DF
S3150800997013FF014600283FF445AFF120134C226837
S3150800998092F8293043F0010382F8293002F09AF957
S3150800999047F2247120684CE71B2E7FF67DAF04F151
S315080099A0140001F0F9FE014600283FF42BAF074CDE
S315080099B06820226892F8293043F0010382F829309A
S315080099C0E4E76FF0020523E770D5002074D5002080
S315080099D07082030013286BD818B9364B1B681967B1
S315080099E07047012804D1334B1B685967002070471C
S315080099F0022803D12F4B1B689967F7E7032803D181
S31508009A002C4B1B68D967F1E7052804D1294B1B683D
S31508009A10C3F88010EAE7042804D1264B1B68C3F86C
S31508009A208410E3E7062804D1224B1B68C3F8881084
S31508009A30DCE7082804D11F4B1B68C3F88C10D5E750
S31508009A40072804D11B4B1B68C3F89010CEE70928DA
S31508009A5004D1184B1B68C3F89410C7E70C2804D127
S31508009A60144B1B68C3F8A410C0E70D2804D1114B8A
S31508009A701B68C3F8AC10B9E70E2804D10D4B1B6858
S31508009A80C3F8B010B2E70F2804D10A4B1B68C3F815
S31508009A90B410ABE7112804D1064B1B68C3F8BC10F9
S31508009AA0A4E71328A2D1034B1B68C3F8C4109DE78B
S31508009AB00120704768D5002070B51F4B05461B6806
S31508009AC01E6A3378ABB30121084600F089FF0446C5
S31508009AD058B906F1140001F05FFE014638B921466F
S31508009AE0012000F07DFF6FF00304204670BD134B84
S31508009AF005751B68DDB10222114C83F8C82022685F
S31508009B00812092F8293043F0010382F8293002F0C7
S31508009B10D9F8206847F29451103002F03BFDFFF760
S31508009B2011FA00210446012000F05AFFDDE7012260
S31508009B30E2E76FF00204D8E770D5002068D5002068
S31508009B4074D5002010B51E491E4B1F480B601F4BCD
S31508009B501F4A1B6800681360186013681D4C1E486E
S31508009B60DC6040F2013400681C8258601B480068BB
S31508009B7098601B4B036013681A489A6850609A6885
S31508009B80194890609A681948D0609A681848906190
S31508009B909A681848D0619A68174810619A681748F1
S31508009BA050619A68164810629A68164850629A6810
S31508009BB0154890620A689B68526C5A6310BD00BFCC
S31508009BC054D50020B06C090870D5002058D500205F
S31508009BD05CD50020060000017CD5002060D5002059
S31508009BE06DDC000887DC0008A9DC0008CDDC00086D
S31508009BF051DC00085FDC0008EBDC000811DD00081A
S31508009C00C5BC00084DB60008D58B0008024B1B687A
S31508009C10DB685868704700BF70D50020024B1B6888
S31508009C20DB685860704700BF70D500202DE9F34106
S31508009C3004460D4610F003031FBF0D1F0334ED182D
S31508009C4024F003042A46002120468AF088FB41F2C4
S31508009C50AF539D4276D92346DFF818813C4EC8F8A3
S31508009C60004043F8045B33603A4B04F170021A6013
S31508009C70394B04F190021A60384B04F1D4021A6089
S31508009C80374B04F50F721A60364B04F284521A6089
S31508009C90354B04F2BC621A6004F294736364FFF7EE
S31508009CA051FF324F04F5F4614FF4CA624FF4C863AA
S31508009CB0306801F05FFD04F55F633B60336804F5C7
S31508009CC06760D86000F0E2FB336804F6B461D868D0
S31508009CD074226423143001F04DFD336804F62870AD
S31508009CE0186201F0A7FF336804F57661186A4FF425
S31508009CF0CA624FF4C863143001F03CFD3068343052
S31508009D0001F06EFE01F09AFB3068243001F0DCFDAC
S31508009D10306841F2B056103001F0D6FDA019D8F8D7
S31508009D200040001BA8420FD8114B002000930123C6
S31508009D301A461946FEF758FF00F028FE01223B682E
S31508009D4083F8702041F2B05002B0BDE8F08100BF40
S31508009D5070D5002058D5002060D500207CD500207D
S31508009D6080D5002064D5002068D5002074D5002051
S31508009D7049BA00086CD500202DE9F7434C4B4D4FE6
S31508009D801B688046DD681E6A3B68894693F8703012
S31508009D90012B05D86FF00204204603B0BDE8F08316
S31508009DA021F00103684648F6B8012B8601F054FEF7
S31508009DB005F13C042B780BB3737803F0FF00002BF6
S31508009DC03AD03D4C7378092B02D073780A2B26D1EA
S31508009DD03378022B82BF2B8E43F001032B86002398
S31508009DE07370FFF713FF04460028D5D1FFF7AAF8CA
S31508009DF045F65A24002818BF0446CDE73A6848F6BF
S31508009E00B80192F82B30204643F0080382F82B302D
S31508009E1000F0D0FD0028CDD06FF01D04BCE73868EF
S31508009E20214690F82930103043F00103437602F0BA
S31508009E30B1FB0028C6D0EFE72B78012BD9B2A9D100
S31508009E4000F0CEFD04460028A6D105F1140001F065
S31508009E50A3FC054628B9214600F0C2FD6FF00304AD
S31508009E609AE700F114032822214618468AF077FA61
S31508009E7048EA0941A6F8368001F03AFE3A682946CA
S31508009E8092F82B30102043F0010382F82B3000F0B3
S31508009E9035FB386847F29451143000F08BFD2146A3
S31508009EA0204600F09DFDFFF7B1FE044674E700BFAB
S31508009EB070D5002074D50020905F010038B51D4B81
S31508009EC01B68DD682B78012B31D90121002000F0B1
S31508009ED087FD044650B905F1140001F05DFC014602
S31508009EE030B9214600F07CFD6FF00304204638BDEA
S31508009EF04FF48073436101230F4DC4612A680376CA
S31508009F0092F82B30C82043F0010382F82B3000F07A
S31508009F10F5FA286847F29451143000F04BFD2146B3
S31508009F20204600F05DFDBDE83840FFF76FBE6FF0D4
S31508009F300204DBE770D5002074D50020F8B51D4B68
S31508009F4006461B680F46DC68237813B92378012B6D
S31508009F50FCD10121002000F043FD054650B904F16B
S31508009F60140001F019FC014630B9294600F038FD05
S31508009F706FF003052846F8BD6663C6B1A7630E4CA5
S31508009F804920226892F82B3043F0010382F82B30DF
S31508009F9000F0B4FA20680949143000F00BFD0021DE
S31508009FA0084600F01DFDBDE8F840FFF72FBEA66382
S31508009FB0E5E700BF70D5002074D5002050340300B3
S31508009FC008B5034C2068343001F016FDFAE700BFE7
S31508009FD070D50020F7B5234E0746336893F87030DE
S31508009FE0012B39D1FEF7FAFE00F01EFE044680BBAF
S31508009FF000F08AF9044660BB68461B4901F02CFD4F
S3150800A00000F0AEFE00280546044602DA10F10C0FF1
S3150800A0101FD1684601F028FD08BB0C35F0D0312F5A
S3150800A02010D100F039F9384600F0CCFE041E10DBDA
S3150800A0300E48FEF771FDFEF781FD0222336883F8AC
S3150800A040702006E0712FEED1022000F025F9041EDB
S3150800A050E9DA204603B0F0BD6FF00204F9E76FF0C5
S3150800A0601804F6E774D5002020BF02006DB2000878
S3150800A070FEF774BD002110B504465C2000F0B0F868
S3150800A080014688B9042000F0D7F8014660B90121D5
S3150800A090064800F0DFF8014630B92146BDE8104011
S3150800A0A001230422FEF7D4BE084610BD20A10700EE
S3150800A0B0F7B507460E465D200021154600F090F8D4
S3150800A0C0044690B9E81CC0F3072120F0030500F008
S3150800A0D0FC0000F0B1F8044638B901210D4800F03B
S3150800A0E0B9F8044608B91EB95FB9204603B0F0BDF1
S3150800A0F0034632466946FEF7ABFE0028F4D004460E
S3150800A100F3E7AA1B0123394692B20020FEF7A0FE08
S3150800A110F5E700BF20A1070037B505466846FFF7F3
S3150800A120A9FF70B90DF1020001F0F0FC044668467B
S3150800A13001F0ECFC211F043882B289B22846FFF7E9
S3150800A140B7FF03B030BD1FB5044600217C2000F0E0
S3150800A15047F850B90146102000F06EF828B90123D7
S3150800A160102269462046FEF773FE04B010BD2DE99D
S3150800A170F04105460F467C20002114461E4600F095
S3150800A1802FF8B0B92819C0F30721C0B200F054F867
S3150800A19078B9014601232A463846FEF759FE40B9E2
S3150800A1A03CB12246014601233046BDE8F041FEF7A0
S3150800A1B04FBEBDE8F08113B514460191FFF7C3FF02
S3150800A1C060B9019954B1034602464FF6FC70033450
S3150800A1D0204002B0BDE81040FFF7C9BF02B010BD6D
S3150800A1E00022F0B504460D464CF25037114E85B0A4
S3150800A1F03368DA6532688DF80440D36D8DF80550FA
S3150800A200591CBB42D16510D80023022202A901A815
S3150800A210FEF71EFE9DF80900582809D018B15228E5
S3150800A220E8D16FF0150005B0F0BD6FF01600FAE73B
S3150800A2300020F8E774D50020002307B502228DF820
S3150800A24004008DF8051001A81946FEF701FE03B0B3
S3150800A2505DF804FBF7B5002605460C460D4F3B682E
S3150800A260DE653A68D36D591CAB42D1650FD82346D3
S3150800A270012200200DF107018DF80760FEF7E8FDC1
S3150800A2809DF80730552BECD1002003B0F0BD6FF0D8
S3150800A2901400FAE774D50020002313B504460221FA
S3150800A2A00A4801AAADF8043000F0A4F860B99DF890
S3150800A2B00530022123F0030343EA04008DF8050064
S3150800A2C001AA024800F074F802B010BD000005416A
S3150800A2D0002270B504464CF250360A4D2B681A66B1
S3150800A2E02A68136E591CB342116607D82146002006
S3150800A2F000F0B4F810F1150FF2D070BD6FF016002B
S3150800A300FBE700BF74D5002000232DE9F3414FF089
S3150800A31012084A275C26124D01932A68D3652A68D3
S3150800A320D36D591C0A2BD16517D80024042223465D
S3150800A33068460DEB02018DF800808DF801708DF8E6
S3150800A34002608DF80340FEF783FD9DF80730582B11
S3150800A350E5D1204602B0BDE8F0816FF01600F9E7B6
S3150800A36074D50020122307B58DF804304A238DF8DA
S3150800A37005305C238DF8063000238DF8073000235E
S3150800A3800222694601A8FEF763FD9DF80130522BAB
S3150800A3900BD0002BF3D1022269460DF10600FEF719
S3150800A3A057FD9DF80130582BE9D103B05DF804FB41
S3150800A3B037B50C46014601A8154601F099FB002160
S3150800A3C07420FFF70DFF90B9210AE0B2FFF734FFBA
S3150800A3D068B90422034601460DEB0200FEF738FD74
S3150800A3E028B90346014622462846FEF731FD03B042
S3150800A3F030BD000030B5030A85B08DF804008DF82D
S3150800A4000530030C000E8DF807000C465420002179
S3150800A4108DF806301546FFF7E3FE0346C0B9210A54
S3150800A420E0B2FFF709FF034690B9042202A90DEB33
S3150800A4300200FEF70DFD034650B901460648FFF730
S3150800A44009FF034620B922462946FEF701FD0346C1
S3150800A450184605B030BD00BF20A1070010B50C4650
S3150800A46001464120FFF7BCFE034658B90146064897
S3150800A470FFF7F0FE034628B92146BDE81040012241
S3150800A480FEF7E6BC184610BD20A1070070B50446C5
S3150800A49078B30025184E05704560083003F0E6FBD2
S3150800A4A03068083003F0E2FB30682946183003F0BC
S3150800A4B00DFC054610B16FF0280070BD30681830E5
S3150800A4C003F026FC2946257304F1100003F0FEFB71
S3150800A4D001460028EFD13068143003F0F7FB014637
S3150800A4E00028E8D104F13C0003F0F0FB0028E4D092
S3150800A4F0E1E76FF00100E0E774D500202DE9F843A5
S3150800A5000546504E01F1040837680C461022002112
S3150800A5104046D7F80C9089F022FF922D00F08A80E9
S3150800A5202ED81C2D65D024D8152D66D01B2D7FD08E
S3150800A530102D36D00021404601F0CCFA63791C2D47
S3150800A54043F040036371A57108D83F4820FA05F522
S3150800A550EB0703D53068243001F0E6F93068214668
S3150800A560103001F0BDF9012000F01EFF0020BDE803
S3150800A570F883262D5ED0A5F1770251425141DAE7DC
S3150800A580C82D59D007D8A42D58D0BA2D08BF0821F0
S3150800A59018BF0021CFE7E92D52D0F22D08BF1C21A4
S3150800A5A0F6E7012104F1180001F0A2FA012104F1ED
S3150800A5B01C0001F09DFA4FF0004104F1200001F063
S3150800A5C097FA4FF4401104F1240001F091FA1F495B
S3150800A5D004F12C0001F08CFA012104F1380001F095
S3150800A5E087FA4FF0804104F1280001F081FA28210A
S3150800A5F0A1E70021FB6819709DE7237D83B199F8CF
S3150800A600203032220A2B0CBF022301236375002354
S3150800A610A375A3760E4B22831B68B3F8CA30A383AF
S3150800A620637D022B02D10022FB681A700A2182E799
S3150800A630032180E708217EE70C217CE701217AE7E0
S3150800A6401C2178E770D5002000002110400000800A
S3150800A65068D500202DE9F74FDFF84CB200F1100855
S3150800A660DBF800308579074600F1040A4046DC68C5
S3150800A670D3F8209001F04AFA07F11401064650462D
S3150800A680019101F043FAC0F30B0230460092FFF73E
S3150800A690C5FADDE90021492D43D017D81B2D11D065
S3150800A6A00CD8102D59D0152D67D07C4B186890F80A
S3150800A6B02B30143023F00103C3752BE01C2D6ED00C
S3150800A6C0262DF2D1404601F021FAEEE7B02D00F032
S3150800A6D0A38022D8772D00F0BD80892DE5D17EB9DB
S3150800A6E001232370FB7C58072AD5082389F80130F3
S3150800A6F06B4B1B68D3F8A83013B104210020984788
S3150800A700664B04F13C001A6892F82B3023F00803D4
S3150800A71082F82B3003F0FCFABBE0C82DD2D0F22D1C
S3150800A720C3D1002EC1D1606B0028BED0A36B002B0D
S3150800A730BBD09A4228BF1A4689F0EAFD6663B4E799
S3150800A7409907DDD50A2389F80130554B1B68D3F8DC
S3150800A750A830002BD4D00221D0E7404601F0D6F924
S3150800A7600028A2D1012389F8003002232370DBF8E0
S3150800A7700000243001F0E4F897E7404601F0C6F9F6
S3150800A78028B994F82C3013B1012384F82D30DBF85E
S3150800A7900000243001F0D4F80023A36285E7404680
S3150800A7A001F0B4F901232370002405464FF03C0A52
S3150800A7B03C4EDFF8F88089F8004033681A7BE3B22C
S3150800A7C09A4210D8FB7C5A0717D5082389F8013016
S3150800A7D0334B1B68D3F8A830002B3FF466AF04212F
S3150800A7E02846984761E7D8F800003C2200210AFB72
S3150800A7F0030089F0B4FD0134DFE79B077FF555AF09
S3150800A8000A2389F80130264B1B68D3F8A830002B99
S3150800A8103FF44BAF0221E3E74046009101F076F999
S3150800A8200546504601F072F90346002D7FF43DAF08
S3150800A830606B00283FF439AFA26B0099002A3FF4F9
S3150800A84034AFC3F30B039A4228BF1A4689F060FD5A
S3150800A85065632AE74046009101F058F9104D06460F
S3150800A860504601F053F92B68D3F8C03023B1C0F332
S3150800A8700B0200993046984794F84030002B7FF435
S3150800A88014AF2B681B69002B7FF40FAF002E7FF4E3
S3150800A8900CAF002003B0BDE8F08F00BF74D50020D0
S3150800A8A068D500205CD5002070D500207CD5002016
S3150800A8B00220FEF773B900002DE9F0472D4BDD287D
S3150800A8C01B68DC683BD0DE2833D0CD2850D11F6A00
S3150800A8D000250123DFF8A880DFF8A8A0DFF8A890F4
S3150800A8E023703D70D8F80030EEB21B7BB3422DD8EA
S3150800A8F00025214B1B6883F8C850DD603D7325731E
S3150800A900FFF7D6FF1022294604F1200089F027FD1B
S3150800A910012000F06DFD194B04F13C001A6892F80D
S3150800A9202B3023F0080382F82B30BDE8F04703F0FC
S3150800A930EFB90120A062BDE8F04700F035BD03235A
S3150800A940A3620120BDE8F04700F052BD3C22DAF8C8
S3150800A9500000002102FB060089F001FD8C22D9F8CF
S3150800A9600000002102FB060089F0F9FC0135B9E771
S3150800A970BDE8F08770D5002068D5002074D5002082
S3150800A9805CD500207CD5002080D50020002208B5A3
S3150800A99011460320FEF7EAF8022000220121FEF7FD
S3150800A9A0E5F8BDE808400220FEF7F8B8002001F0F7
S3150800A9B079BD000008B503F098F968B16FF01D007D
S3150800A9C0FFF72CF9054B1B685B6F1BB100216FF075
S3150800A9D01D0098476FF01D0008BD00BF74D5002004
S3150800A9E010B5374B0C461B6893F87020012A5ED9C0
S3150800A9F0012822D002283DD000285BD101290FD199
S3150800AA0093F82B202F4942F0020283F82B2003F1FA
S3150800AA101800FFF7CFFF00284FD10024204610BDAD
S3150800AA200029FAD193F82B2003F1180022F002022C
S3150800AA3083F82B2003F06CF9F0E701290FD193F87E
S3150800AA402920204942F0020283F8292003F11C003C
S3150800AA5001F0A0FD0028E0D06FF02104DEE7002910
S3150800AA60DBD193F8292003F11C0022F0020283F8B7
S3150800AA702920DFE701290FD193F82820114942F050
S3150800AA80020283F8282003F1200000F0F5FC0028D4
S3150800AA90C3D06FF01F04C1E70029BED193F8282060
S3150800AAA003F1200022F0020283F82820C2E76FF0A3
S3150800AAB00204B3E76FF00104B0E76FF02204ADE7D4
S3150800AAC074D50020C045040010B5164C206890F8CF
S3150800AAD02B30DB0702D5143003F01AF9206890F8FA
S3150800AAE02B30990702D5183003F012F9236893F82A
S3150800AAF02B305A0705D50C4B1B68D868103003F065
S3150800AB0007F9236893F82B301B0705D5064B1B68F6
S3150800AB10D8683C3003F0FCF80022236883F82B2021
S3150800AB2010BD00BF74D5002070D5002008B56FF0A1
S3150800AB302A0001F0B7FC01F0D7FD01F03DFE6FF0E9
S3150800AB402D00FFF76BF8FFF7BFFF074B186890F863
S3150800AB502A30DA0706D523F0010380F82A30243094
S3150800AB6003F0D6F8002008BD74D5002010B5124CA5
S3150800AB702068103000F0CCFEC0B248B12068103012
S3150800AB8000F0BAFE23680146D868143000F010FEBB
S3150800AB902068243000F0BCFEC0B258B120682430CA
S3150800ABA000F0AAFE23680146BDE81040186A143072
S3150800ABB000F0FEBD10BD00BF70D50020012805D1EC
S3150800ABC0064B1B68D868143000F0F2BD062803D17E
S3150800ABD0024B1B68186AF6E7704700BF70D500205D
S3150800ABE070B50C460546012000F0EAFB002000F08F
S3150800ABF0E7FB042C0B4E0ED1002233685A64FFF78C
S3150800AC00B5FFFFF793FF33685B6F53B121462846BC
S3150800AC10BDE870401847052C02BF002233681A6544
S3150800AC20EFE770BD74D5002000220121104608B553
S3150800AC30FDF79CFF0020FDF7B1FF6420FDF7CAFF72
S3150800AC400020FDF7A3FF6420FDF7C4FF002008BD20
S3150800AC50002330B5D52885B00D460193ADF80030F0
S3150800AC60ADF8023007D8D02808D8422845D0712830
S3150800AC706BD0312864D06FF0010434E0D138042851
S3150800AC80F9D801A353F820F0D3AC0008EDAC0008BE
S3150800AC9077AC0008BBAC00089DAC00080A464FF428
S3150800ACA0C0304FF48051FFF783FB041E1BDB4AF6C6
S3150800ACB049336A46ADF8003019E00A464FF4C83001
S3150800ACC04FF48051FFF774FB041E0CDB4AF64F3332
S3150800ACD0EFE7022120480DF10202FFF78BFB04463D
S3150800ACE0BDF802302B80204605B030BD0A46022149
S3150800ACF01A48FFF75DFB0446F5E74AF64233022198
S3150800AD00164801AA0193FFF753FB041EEBDB4FF429
S3150800AD10967102A800F0A0FE0F4D022128460DF1FB
S3150800AD200202FFF767FB041EDDDB02A800F09CFEAB
S3150800AD3070B94AF63233BDF802209A42EDD1D2E70D
S3150800AD404AF63133019301AAD1E74AF67133F9E796
S3150800AD506FF01B04C7E700BF3C00054134000541FE
S3150800AD6013B50024D1200DF10601ADF80640FFF712
S3150800AD706FFF00281BDBBDF8063003F47F42B2F5EF
S3150800AD802B4F12D1DBB2F12B13D0F22B14D0102B90
S3150800AD9005D101220A4B1B681A60204607E0112BD1
S3150800ADA0FBD1074B02221B68F6E76FF00B0002B0D7
S3150800ADB010BD6FF00800FAE76FF00900F7E700BF6B
S3150800ADC074D50020002330B585B0044602213148E9
S3150800ADD001AAADF80430ADF80630FFF7E9FA002805
S3150800ADE050DB422C0CBF4AF2420344F42B43D220D8
S3150800ADF001A9ADF80430FFF72BFF002842DB4FF41A
S3150800AE00967102A800F028FE04F0BF05312D20D166
S3150800AE1040F6B83102A800F01FFE1F4CD1200DF1F4
S3150800AE200601FFF715FF00282CDBBDF8063003EAFC
S3150800AE300402B2F5204F06D1DBB2232B24D0F32B24
S3150800AE4025D0AA2B1ED002A800F00EFE0028E5D0B9
S3150800AE5016E0D1200DF10601FFF7FAFE002811DBF6
S3150800AE60422C08BF4AF63232BDF8063018BF44F401
S3150800AE702B42934206D002A800F0F6FD0028C5D062
S3150800AE806FF01B0005B030BD6FF00D00FAE76FF0EC
S3150800AE900E00F7E73C00054100F0FFFF00232DE90F
S3150800AEA0F043614E614D85B028688DF80F303368E0
S3150800AEB0DF68436C3BB947F23051483000F0CCFDAF
S3150800AEC001222B685A642868483000F0CDFD58B135
S3150800AED02B685B6C012B07D104216FF02E00FFF75E
S3150800AEE07FFE05B0BDE8F0833068103000F010FD35
S3150800AEF004463068E4B2243000F00AFD002C38D04D
S3150800AF0033684B4A0DF10F005A66FFF7E1F970BB3B
S3150800AF109DF80F303068DA0740D4103000F0ECFCAA
S3150800AF204FF001080446A3796779A288152B04F126
S3150800AF3004094FEA1717C2F30B0209D1042F07D1E8
S3150800AF400120019200F048FA0320FDF743FE019A1A
S3150800AF50484604F11401FFF72EF9B0F100092FDA7B
S3150800AF6021464046FFF72AFE04214846B7E7042152
S3150800AF70B5E710F0FF023FD00DF10F00FFF7A8F973
S3150800AF800028F4D19DF80F303068DB0706D424304A
S3150800AF9000F0B2FC4FF006080446C4E7436B33F0F2
S3150800AFA002039ED0012000F017FA2868083002F044
S3150800AFB06AFE012328684360083002F075FE90E7B0
S3150800AFC000222B68B8F1010F5A6409D1336821466B
S3150800AFD0D868143000F0ECFB2046FFF7E7FC80E762
S3150800AFE0B8F1060F7FF47DAF043F012F3FF679AF26
S3150800AFF0204601F08DFA74E72B685A6497F82D30CD
S3150800B0005BB1BC6A012C08D111460A48FFF7D3F890
S3150800B010204600F0E1F90223BB620020FFF7C6FCD8
S3150800B020012000F0CDF95CE770D5002074D500202A
S3150800B030ADA90008686D09080023F0B5844E854C53
S3150800B04085B0CDE9023320688DF807303368DF68AC
S3150800B050036D3BB947F23051543000F0FDFC012234
S3150800B06023681A652068543000F0FEFC50B1236846
S3150800B0701B6D012B06D105216FF01D00FFF7B0FDF2
S3150800B08005B0F0BDFEF7F4FFE8B900F099F9FDF751
S3150800B09055FDFEF7EDFF10B1002000F085F9236895
S3150800B0A0586801280BD100F0A3F92068083002F08F
S3150800B0B0EAFD002320684360083002F0F5FD00220F
S3150800B0C023681A65DCE797F82D300BB1FFF74AF9C4
S3150800B0D00DF10700FFF7FCF880B208B10521CDE7AE
S3150800B0E09DF907209DF80730002A1FDA03F07F0331
S3150800B0F00421594802AA8DF80730FFF77BF980B278
S3150800B1000028EBD1554B1B68D3F8BC3023B1024657
S3150800B1100146BDF80800984780230421504803AA31
S3150800B1200393FFF745F980B20028D7D19DF8075059
S3150800B13015F0080501D12846A7E7306800F02CFB72
S3150800B140054610B900F048F99AE70430FEF7E4FF1F
S3150800B15038B1002000F034F92946306800F028FBA1
S3150800B16095E72368DA6E186502B1D8666B791B090C
S3150800B170042B66D1A879CD2804D000F12303DBB2CD
S3150800B180012B1FD8FFF798FB2946306800F010FB03
S3150800B190002000F015F9002000F02AF9FDF7CEFC92
S3150800B1A02368586801287FF46BAF00F021F92068FE
S3150800B1B0083002F068FD002320684360083002F07A
S3150800B1C073FD5DE7A0F11003DBB2162B1AD9C82868
S3150800B1D029D12846FFF73EFA2946306800F0E8FAF2
S3150800B1E0FEF746FF08B900F0EBF8002000F000F97A
S3150800B1F0FDF7A4FCFEF73CFF0028D1D0002000F0A4
S3150800B200D3F8CDE7174A22FA03F3DA07E1D4A0F117
S3150800B2107703DBB21B2B0BD9E928DAD0F228D8D072
S3150800B220BA28D6D009E0A428D3D04928D1D0EEE749
S3150800B2300D4A22FA03F3DB07CBD4284601F062FB5A
S3150800B240CAE7052BC8D1284601F04CF9C4E700BF68
S3150800B25070D5002074D500203400054168D500203B
S3150800B26008000541211840000100040808B5FDF74B
S3150800B2705DFCBDE80840002000F0D4B870B504466F
S3150800B28005680E4602F0E4FC01236A6B03FA06F130
S3150800B2901143696302F0E3FC237C012B05D105F118
S3150800B2A03C00BDE8704002F033BD70BD38B50546B8
S3150800B2B00C4602F0CDFC01222D6802FA04F16B6BF4
S3150800B2C023EA01016963BDE8384002F0C8BC38B515
S3150800B2D005460C4602F0BCFC01222D6802FA04F170
S3150800B2E0AB6B23EA0101A963BDE8384002F0B7BC9D
S3150800B2F0012310B4026803FA01F1946B21439163A8
S3150800B300037C012B05D100685DF8044B3C3002F044
S3150800B310FFBC5DF8044B704710B5427C0020C3B2F1
S3150800B3209A4200D810BD21FA00F4E40700F101039F
S3150800B330F8D41846F3E7437C8B4207D303681B6CA3
S3150800B34053F8210010B943F82120704701207047AF
S3150800B350012210B40446036802FA01F1586B01434E
S3150800B360596303F13C00237C934203D15DF8044BF7
S3150800B37002F0D0BC5DF8044B02F0CABC012310B43D
S3150800B380026803FA01F1946B21439163037C006818
S3150800B390012B00F13C0003D15DF8044B02F0BABC66
S3150800B3A05DF8044B02F0B4BC034B044A1B68014623
S3150800B3B0D3F884301068184754D500205CD500208F
S3150800B3C0034B044A1B680146D3F8883010681847AF
S3150800B3D054D500205CD50020034B044A1B6801465F
S3150800B3E0D3F88C301068184754D500205CD5002057
S3150800B3F0034B044A1B680146D3F890301068184777
S3150800B40054D500205CD50020044B0A461B6801462B
S3150800B4100348D3F898300068184700BF54D5002071
S3150800B4205CD50020034B044A1B680146D3F8B030AC
S3150800B4301068184754D500205CD5002008B5074980
S3150800B4400020FFF7E1FF06490120FFF7DDFFBDE811
S3150800B450084002200349FFF7D7BF00BF39B00008EC
S3150800B4609DAE000805E70008024A1268106301F05D
S3150800B47019B800BF74D5002008B502F036FC68B1CB
S3150800B4806FF01D00FFF7F0FF054B1B685B6F1BB1E4
S3150800B49002216FF01D0098476FF01D0008BD00BF20
S3150800B4A074D500202DE9F04F2DED028B1E46654B15
S3150800B4B005461B6885B0D3E900A3DAF8200008EE34
S3150800B4C0101A14301746019300F066F9044658B965
S3150800B4D029466FF0030002F0F5FD4FF0FF3005B086
S3150800B4E0BDEC028BBDE8F08F3C236B430293DDE98C
S3150800B4F0013203EB020898F80120042AD3B208D0D7
