S01E0000636869702D65667233322D6C6F636B2D6578616D706C652E73333774
S3150800600000000420F16E0108ED6E01081917060854
S3150800601075AD0008ED6E0108ED6E0108ED6E01081C
S31508006020ED6E0108ED6E0108ED6E010861AE01081E
S31508006030ED6E01088C00002001AE0108313E010812
S31508006040ED6E0108ED6E0108ED6E0108ED6E0108B2
S31508006050ED6E0108ED6E0108ED6E0108ED6E0108A2
S31508006060ED6E0108ED6E0108ED6E0108ED6E010892
S31508006070ED6E0108ED6E0108ED6E0108ED6E010882
S31508006080ED6E0108ED6E0108ED6E0108ED6E010872
S31508006090ED6E0108318E0008ED6E0108ED6E0108FF
S315080060A0ED6E0108AD8F0008898F0008ED6E0108B6
S315080060B0ED6E01086D0F0A0865190A081D190A0808
S315080060C019190A0839110A0861190A0821190A084A
S315080060D039190A0825190A08C5190A08A5190A083E
S315080060E0ED6E0108ED6E0108ED6E0108ED6E010812
S315080060F071720108ED6E0108ED6E0108ED6E01087A
S31508006100ED6E0108ED6E0108ED6E0108ED6E0108F1
S31508006110ED6E0108ED6E0108ED6E0108ED6E0108E1
S31508006120ED6E0108ED6E0108ED6E0108ED6E0108D1
S31508006130ED6E0108ED6E0108ED6E0108ED6E0108C1
S31508006140ED6E0108E1730108ED6E010897B60008C7
S3150800615019F70908ED6E0108D1D50908D7D5090838
S31508006160ED6E0108ED6E0108ED6E0108ED6E010891
S3150800617010B5054C237833B9044B13B1044800E035
S3150800618000BF0123237010BDD809002000000000BD
S31508006190CCA40B0808B5034B1BB10349034800E020
S315080061A000BF08BD00000000DC090020CCA40B08D5
S315080061B0A3F5803A704700BF174B002B08BF134B57
S315080061C09D46FFF7F5FF00218B460F461348144AF4
S315080061D0121A9FF051F80E4B002B00D098470D4B22
S315080061E0002B00D098470020002104000D000D4820
S315080061F0002802D00C4800E000BF9EF0B1FF200046
S31508006200290001F0FDFE9EF021FE00BF00000800F7
S31508006210000000000000000000000420D80900204B
S315080062201020022000000000000000001FB5002317
S315080062300C4600931021134B0A20134A0EF06CFAF1
S31508006240124B186030B912485BF030F940F2017011
S3150800625000F074FA0F4B4FF4806202930E4B2046FF
S31508006260019301230D490093084B0FF045F830B907
S315080062700B485BF01BF940F2027000F05FFA002051
S3150800628004B010BD800B0020DF0A0020D40A0020CD
S31508006290B8650A081C0A0020D00B00203A700A08C4
S315080062A0DB650A0837B504460D4629B921485BF06F
S315080062B0FDF82F2000F042FA1F4B00221D601F4BED
S315080062C0012100931E4823460FF064FF1D4B1860FA
S315080062D030B91D485BF0EAF840F2047000F02EFA77
S315080062E01A4B012200930A21234619480FF052FF40
S315080062F0184B186030B918485BF0D8F840F20470AB
S3150800630000F01CFA154916485BF0D0F800F0B8F909
S315080063101449154800F0CAF959F0B8FC0368D3F8CF
S31508006320843098474FF0020068F01EFA002003B048
S3150800633030BD00BFF5650A08180A00204D6600083A
S315080063400E660A08D80A002014660A08316400088E
S315080063502E660A08140A002037660A0851660A08D3
S315080063605A660A0878860A08F809002008B52648F1
S315080063705BF0FFFAC8B125485DF02CFD244B187078
S3150800638022485DF0DBFC234B187020485DF032FD97
S31508006390214B187021485DF08DFA003818BF01208E
S315080063A01F4B187018485BF0EDFA1E4B1B78022B32
S315080063B014D01D4B1B6823B1DB7D13B1FA2211469D
S315080063C014E0134B1B78ABB1124B1B7893B1124BED
S315080063D01B7843B10121154800F059F9BDE808407A
S315080063E0124800F071B9322240F2B6310F4800F077
S315080063F093F9F3E70A4B1B780BB16422DFE740F207
S31508006400B6323221F2E700BFB8510120F8970120D1
S31508006410DC0A0020F4090020100A0020F097012069
S31508006420DD0A0020D01B0020180A0020F8090020E9
S31508006430FFF79CBF002307B50A4800931A460321B5
S3150800644000680FF0D7FE30B907485BF02FF840F226
S31508006450067000F073F90022044B1A7003B05DF859
S3150800646004FB00BFD80A002077660A08DE0A002067
S3150800647037B5104D0446286810F020F820B10E48AC
S315080064805BF014F8FFF7D6FF642322460093042135
S31508006490002328680FF0AEFE012806D007485BF0F7
S315080064A005F840F2057000F049F90122044B1A700C
S315080064B003B030BDD80A00208F660A08AA660A0803
S315080064C0DE0A002010B50388012B25D1134B1B7853
S315080064D013B3134C2378012B15D140F6B831114864
S315080064E05AF0E4FF40F6B830FFF7C2FF0223002156
S315080064F00D48237000F0CBF8BDE810404FF4FA7150
S31508006500094800F00DB9022B06D10023074823706D
S31508006510BDE8104068F0BEBF10BD00BFDE0A00200F
S31508006520D01B0020C3660A08F8090020F8C8012015
S3150800653038B50579194B012D1B7809D13BB9184C8B
S31508006540237823B940F6B830FFF792FF257038BD97
S31508006550002BFCD0124C2578012D17D1FFF76AFFC6
S315080065600023104823705DF035FC044648B92946D7
S315080065700D485DF08DF92146BDE838400A485DF0C2
S315080065808DB90A48BDE838405AF090BF022DDED1D1
S31508006590FFF750FF002306482370F3E7DE0A0020C2
S315080065A0D01B0020F8970120F097012002670A08FF
S315080065B041670A0813B50C4B1C680EF075FF0023DB
S315080065C002460121204600930FF014FE012809D047
S315080065D006485AF06BFF40F2057002B0BDE810405D
S315080065E000F0ACB802B010BD140A002061670A08B2
S315080065F01FB5134C01902368F3B114F0B3FB01994E
S315080066000346A0B10023206803AA03930EF024FAD8
S31508006610039B2BB14FF0E0234FF08052C3F8042DB3
S3150800662060B9084804B0BDE810405AF03FBF0122DF
S3150800663020680EF025F9F3E70348F3E704B010BD28
S31508006640D40A002079670A08A6670A081FB5012335
S31508006650ADF80030044B019068460393FFF7C8FF76
S3150800666005B05DF804FB00BFC5640008CB680846A2
S3150800667003B1184701485AF019BF00BFCE670A0888
S315080066800FF0C8BF006908B102F00CBB70470023C1
S315080066900022C0E902330023C0E90023006920B1C3
S315080066A009B102F0F9BA02F0FABA704730B400221A
S315080066B0002400250161C0E9004530BC1146C0E947
S315080066C00222FFF7E4BF000073B583680446FBB1F6
S315080066D0C368EBB10F4B684619680B68DB689847C7
S315080066E0DDE90065206902F0E0FAD4E90232002803
S315080066F008BF1346D4E900125B1842F10002B34200
S3150800670072EB050304D22046FFF7BCFFC4E9006517
S3150800671002B070BDE4020020C0E90212FFF7D4BF40
S31508006720C0E90211FFF7D0BF014608B502485AF082
S31508006730BDFE14F04FFBFEE7FE670A0808B5FFF733
S31508006740F3FF000010B50446E8B10EF0A5FE0F4AA7
S3150800675054F8043C1068034206D114F03BFB0C497C
S315080067600C489FF081F8FEE754F8082C32B114F073
S3150800677031FB094907489FF077F8FEE723EA00044A
S31508006780083C0EF041FF204610BD00BFD86B002024
S315080067902E680A085D680A0876680A08014B1868B0
S315080067A0704700BFDC6B0020014B1868704700BFBC
S315080067B0E06B002008B514F02DFA044B1A68044B58
S315080067C01A60BDE8084014F033BA00BFDC6B00203D
S315080067D0E06B0020F8B504460EF05EFE184B1B6809
S315080067E043B300254FF0FF372E46164A11685A68FC
S315080067F01B68954238BF1546974228BF17469942E7
S3150800680006F10106F3D10EF0FFFEC4E90157E66072
S3150800681014F000FA0C4B1B6823600C4B1B68636171
S315080068200B4B1B68A3610B4B1B682361BDE8F84043
S3150800683014F0FEB94FF0FF371D461E46E3E700BFCA
S31508006840EC6B0020D41B0020DC6B0020E46B0020DE
S31508006850E86B0020E06B002010B5144B04461B685B
S3150800686088B013B901A8FFF7B5FF104B1A461B6885
S31508006870A342FBD3506811188C4201BF61681446C5
S315080068800918516061686018834208D10848006891
S31508006890834204D05B680B44636013681B689442A8
S315080068A0236018BF146008B010BD00BFEC6B002051
S315080068B0D41B0020F8B504460EF0EEFD3C493D4DCC
S315080068C00B68CBB900203C4B3C4A5E071CBF07331C
S315080068D023F0070313605060394A22F00702C2E921
S315080068E00000D01AC3E90020364B0A601860364B00
S315080068F018604FF000432B602B681C4206D00EF040
S3150800690083FE00265BF0B8F93046F8BD631E0A33ED
S31508006910F5D8600704F1080305D023F0070208320A
S315080069209A42ECD91346284F3A689A42E7D3234A43
S3150800693014686068984201D22068A0B90968A14223
S31508006940DDD021681668116062680836D21A102AE6
S3150800695010D9E018410709D014F03CFA1B491C4825
S315080069609EF082FFFEE722460446E2E74260636045
S31508006970FFF772FF134962683B6808689B1A8342EF
S3150800698038BF0B603B602B68134363600023114AD2
S3150800699023601368013313600EF036FE7307B3D015
S315080069A014F018FA0C490A489EF05EFFFEE700BF8D
S315080069B0D41B0020D86B0020D81B0020EC6B0020CD
S315080069C0D06B0020E06B0020DC6B002096680A087C
S315080069D05D680A08E46B0020D1680A0813B501FB54
S315080069E000F219B1B2FBF1F181420CD110460192C5
S315080069F0FFF760FF044618B10021019A9EF03CFC9F
S31508006A00204602B010BD0024FAE7000010B504467F
S31508006A1070B3184A50F8043C1268134206D114F0B1
S31508006A20D9F9154915489EF01FFFFEE750F8081CCE
S31508006A3031B114F0CFF9124910489EF015FFFEE760
S31508006A4023EA020340F8043C0EF026FD0D4A54F8EA
S31508006A50043C1168A4F108000B441360FFF7FCFE20
S31508006A60094A136801331360BDE810400EF0CCBD27
S31508006A7010BD00BFD86B00202E680A085D680A089A
S31508006A8076680A08DC6B0020E86B0020F8B5064635
S31508006A900C46FFF757FE0746C8B19CB1A0421CD06A
S31508006AA021460120FFF79AFF054648B1A7423A4614
S31508006AB0314628BF22469EF0B8FB3046FFF7A6FFB0
S31508006AC02846F8BD3046FFF7A1FF2546F8E72146D8
S31508006AD0BDE8F8400120FFF781BF3546F0E7FFF72C
S31508006AE0E9BEFFF793BF0846FFF7E4BE0846FFF77F
S31508006AF08DBF08461146FFF7C9BF08B504F0E8FD83
S31508006B000CF0F2F95AF0C6FC27F086FCBDE80840FE
S31508006B1026F090B9002213B50368ADF806209C68E4
S31508006B200DF10603A047192816BFB0FA80F0012018
S31508006B30400902B010BD052B8CBF2F2000207047DE
S31508006B4070477047704770477047000001485DF00E
S31508006B509DB800BF48A6012001485DF09CB800BF5B
S31508006B6048A6012001F0BCBB10B5044638219DF0AB
S31508006B705DFA204610BD10B5044604219DF056FA6C
S31508006B80204610BD10B5044608219DF04FFA204650
S31508006B9010BD00000D4A08B50260D0F8F4210AB10C
S31508006BA09EF03EF9D0F84821002AF9D1D0F8042100
S31508006BB0002AF5D1D0F89820002AF1D1426D002A92
S31508006BC0EED10369002BEBD108BD00BF681A0B088C
S31508006BD038B5094B04460360436853B1437C43B94F
S31508006BE0C56835B12B6828461B689847284659F06A
S31508006BF0D9F8204638BD00BF28EB0A08406808B116
S31508006C005AF0ECBB0320704713B5406810B903204F
S31508006C1002B010BD00248DF8074022B90BB12F2011
S31508006C20F6E70DF107025AF0ADFBF1E730B540681B
S31508006C301C4685B010B9032005B030BD00251B8859
S31508006C408DF80B5022B90BB12F20F5E70DF10B0289
S31508006C500395019503AD00955AF078FB192801D0E4
S31508006C600028E9D1039BB3F5803F28BF0023238082
S31508006C70E2E7000048F2010210B50388934212D1F8
S31508006C8090F90830012B15D10B485AF00FFC35F056
S31508006C90E9FB036840F6B8315C69084AA446BDE8D2
S31508006CA010400023604748F20202934202D190F94D
S31508006CB00930E7E710BD00BF0F690A08656B0008D1
S31508006CC010B50446FFF766FF20464FF41A719DF08B
S31508006CD0ADF9204610BD10B50446FFF779FF2046EA
S31508006CE014219DF0A3F9204610BD0000254B37B5A9
S31508006CF01425036000230446234AC360C0E9012320
S31508006D0000F12C0100F1280202230095103033F01F
S31508006D1061FE04F16C0204F170010223009504F18E
S31508006D20540033F057FE282304F1B002009304F10F
S31508006D30B401022304F1980033F04CFE04F58E7278
S31508006D4004F590710223009504F5827033F042FE33
S31508006D50482304F5B072009304F5B271022304F5D2
S31508006D60A47033F037FE2C2304F50372009304F560
S31508006D700471022304F5FA7033F02CFE204603B0A2
S31508006D8030BD00BF681A0B080300020008B50948A1
S31508006D905AF08CFB08485DF0E5FD50B9012106481C
S31508006DA05DF018F928B905485AF080FB04485CF0EC
S31508006DB04BFF08BD37690A08F897012055690A0884
S31508006DC048A601205AF04EB9002310B50446436080
S31508006DD0006808B158F0E6FF204610BD38B5002512
S31508006DE004464560006810B158F0DCFF256038BDE0
S31508006DF0F8B50546154B044645F8143B436800F1BB
S31508006E001C0700F10C06B3B12846FFF7E7FF384622
S31508006E10FFF7E4FFE36803B9237294F82430304699
S31508006E2023F0050384F82430FFF7D8FF00232372E4
S31508006E3084F8243063603846FFF7C6FF2846FFF714
S31508006E40C3FF3046FFF7C0FF2046F8BD101D0B08EC
S31508006E5010B50446FFF7CCFF204628219DF0E6F83A
S31508006E60204610BDF8B504466E4DD5E88F3FDF07BE
S31508006E700BD428469DF0DCF838B128469DF0E4F896
S31508006E80694A6A496A489DF0CCF86A4DD5E88F3F49
S31508006E90DE070BD428469DF0CBF838B128469DF07E
S31508006EA0D3F8614A644965489DF0BBF8644FD7E852
S31508006EB08F5F15F0010518D138469DF0B9F8A0B1D5
S31508006EC0604E614B3846C6E90035C6E90355C6E942
S31508006ED00555C6E90755357286F824509DF0B4F86D
S31508006EE03046514A59499DF09CF8594DD5E88F3F8F
S31508006EF0D8070ED428469DF09BF850B15548FFF7A1
S31508006F00F5FE28469DF0A0F8474A534951489DF09A
S31508006F1088F8524DD5E88F3FD9070ED428469DF0FC
S31508006F2087F850B14E4E4F4B284633609DF08CF88B
S31508006F3030463D4A4C499DF074F84C4DD5E88F3F94
S31508006F40DA070ED428469DF073F850B1484E494BDF
S31508006F50284633609DF078F83046334A46499DF016
S31508006F6060F8464DD5E88F3FDB070BD428469DF0E1
S31508006F705FF838B128469DF067F82B4A40494148E2
S31508006F809DF04FF823691BB9294B3F4A23615A6084
S31508006F90236B43B9294B5A6852B921691A72596049
S31508006FA0DA601A822363636BFBB9264D6B680BB1F3
S31508006FB00320F8BD05F114002669FFF70FFF05F158
S31508006FC01C00FFF70BFFEB6803B92B7295F824300A
S31508006FD02E4823F0050385F82430FFF7FFFE00232B
S31508006FE06E602B7285F8243065631A4E2169304627
S31508006FF062F054FF304662F0EAF8054608B12846C2
S31508007000D7E72269E6610AB92F20D2E7184B6361F0
S315080070105A6038F0D1FB1B4B20626362104BA361A8
S31508007020EDE700BFA86E002000000020456B0008B1
S315080070301C000020A46E0020D16B00080800002068
S31508007040786E00207C6E0020101D0B08F16D00087C
S315080070500C6C0020106C0020956B0008046C002056
S31508007060086C00200C6A0A08436B0008F86B0020BD
S31508007070FC6B002020240B08476B0008F46B0020EB
S31508007080496B000804000020AB510120886E0020DF
S3150800709030B5044685B03449344808F0DBFE344838
S315080070A05AF004FA214633485AF000FA30485AF0A2
S315080070B0FDF931485AF0FAF90021084633F018FC70
S315080070C000284ED12D4D2B7843B928465AF04AFD53
S315080070D000280CBF012300232B7042D121462848E3
S315080070E05CF0E2FBFFF752FE00283AD125485AF039
S315080070F03BFC254CD4E88F3FDB070BD420469CF09D
S3150800710097FF38B120469CF09FFF204A2049214826
S315080071109CF087FF204D1F4C28465CF06FFA2563CC
S3150800712000252046FFF79EFE1C4B1D4801931D4B6C
S31508007130039502935CF0E2FD01AB214603901A48E1
S31508007140A36268F087FA0F485AF01CFC2A461749CA
S315080071500C485AF05DFB16485AF0A8F909485AF047
S31508007160B3FC05B030BD00BF45A9030841A9030813
S315080071706E690A08A1690A08AD690A08B0510120B2
S31508007180F0970120B8510120AC6E002000000020C5
S31508007190416B000824000020B06E00204D6B0008EB
S315080071A0F8970120596B0008F8C80120756C00088B
S315080071B0BD690A0810B5044608219CF037FF204629
S315080071C010BD10B5044604219CF030FF204610BDC2
S315080071D00648074B074A036000230749C0E90133FD
S315080071E0C3600374436103839CF01BBFB06E002029
S315080071F0E80E0B0800000020B5350608FF22014BF3
S315080072001A7070475C00002070477047012838B52F
S3150800721004460D460CD8094B0949002818BF1946DB
S3150800722008485AF043F9084804F00101FFF72FFA15
S3150800723015B90122054B5A7138BD00BF2C6A0A08D8
S315080072403A700A08336A0A08D06E0020046F0020D4
S3150800725010B50488022C06D102798168094800F025
S315080072603DFB50B110BD002CFCD1064800F0EBFAEE
S3150800727080F001002146C2B2F0E70348BDE810409D
S315080072805AF014B90C6F0020506A0A0830B5154632
S315080072900C4685B081B11022002168469DF0ECFFAE
S315080072A0094B8DF804509C4208D1012D06D1074B95
S315080072B068460393FFF79CF905B030BD044B9C4222
S315080072C0FAD1044BF4E700BF60860A085172000839
S315080072D048860A083165000810B5044608219CF05E
S315080072E0A5FE204610BD000070B5037D194D0B2B79
S315080072F02B7008BF837D044608BF2B702E78FE2EA0
S315080073000FD0FF2E1DD0022E23D835F0ABF8036818
S3150800731041F288315D6923460F4AAC46BDE87040A4
S31508007320604735F09FF8036822469B690A499847E3
S3150800733035F098F803684FF47A715D69064A234672
S31508007340EBE735F08FF8036822469B6902499847B0
S315080073502E7070BD5C000020FD71000810B568B97C
S3150800736008485AF0A3F8084C637933B10022074954
S3150800737007485AF027FB0023637110BD0128F2D194
S315080073800448EEE7796A0A08046F00209973000832
S31508007390B8510120986A0A0807B50D4800F053FA53
S315080073A0002814BF02220122019218F073FB002361
S315080073B00121019A1AF0AEF830B90121054803B047
S315080073C05DF804EB5AF072B803B05DF804FB00BF31
S315080073D00C6F0020B96A0A087047000010B56549A5
S315080073E086B0FEF75FFF044628B163485AF05EF898
S315080073F02046FFF7A3F9002460488DF808405AF0A4
S31508007400B3FA02A9012016F033FB8DF8044018F0F0
S3150800741041FB012101AA18F095FB40B901231D2063
S315080074201946574A33F0A6FB05238DF80430002386
S31508007430ADF80E3018F02EFB01210DF10E0218F0F2
S3150800744059FB40B901231D2019464E4A33F092FBD9
S315080074500A23ADF80E3000238DF8053018F01AFB14
S3150800746001210DF1050218F05DFB40B901231D202D
S315080074701946454A33F07EFB0A238DF8053000236A
S315080074808DF8063018F006FB01210DF1060218F0FA
S3150800749051FB40B901231D2019463C4A33F06AFBCB
S315080074A00A238DF8063000238DF8073018F0F2FA13
S315080074B001210DF1070218F04DFB40B901231D20EB
S315080074C01946334A33F056FB0A238DF807302B4802
S315080074D05AF058FA9DF808308DF80C301BB19DF813
S315080074E009308DF80D309DF804009DF805109DF8BB
S315080074F006209DF80730BDF80E408DF81200ADF84D
S3150800750010408DF813108DF815308DF8142006AB41
S31508007510204803A913E90C0000F0D0F8044628B166
S315080075201D4859F0C3FF2046FFF708F91B4A1C49B6
S31508007530184800F085F91B491B48FFF7B7F89DF86E
S3150800754008300BB99DF06CFC9DF8091016488B1E87
S3150800755059425941FFF79BF80022144907485AF047
S3150800756031FA58F093FB0368D3F8843098472046DD
S3150800757006B010BDE86E0020D56A0A08B851012089
S31508007580F46A0A086C6B0A08D66B0A084C6C0A0877
S31508007590C26C0A080C6F0020386D0A085D73000873
S315080075A00D72000890860A08D06E002099730008AC
S315080075B030B5056885B01148FFF710FF044628B1B5
S315080075C00F4859F073FF2046FFF7B8F80B48FEF747
S315080075D0F1FF0C4859F06AFF0B4800F0C9F8074C50
S315080075E00A22694628460DF0F9FA0128F8D16946B3
S315080075F02046FFF73BF80022F3E700BF046F0020A0
S31508007600506D0A08666D0A080C6F00200149FEF7DE
S315080076100DBE00BFB17500081FB50023CDE90233C2
S315080076200C4B0D4C019302230121009320460B4B72
S315080076300B4A1DF09DFD20460A4A0B499CF0F1FCB9
S315080076400A480B4B074A0B49036004B0BDE81040D3
S315080076509CF0E7BCE9720008E86E0020D9730008C0
S315080076600972000800000020A5510208046F0020D6
S31508007670806D0A080B7200084368987820B90122C1
S315080076809A709B6833B11847022803D10322012058
S315080076909A70F6E7704700001FB50EF029FF012320
S315080076A0ADF80030044B019068460393FEF7A0FF3F
S315080076B005B05DF804FB00BF797600087FB50D4676
S315080076C002A981E80C0000F5A156044600F580538E
S315080076D003C946F8042B92B20A2A318007D90A212F
S315080076E01C4859F0E3FE40F2077004B070BD93F8E9
S315080076F022240A2A02D90A211748F2E793F82324F2
S315080077000A2A02D90A211548EBE793F824240A2AFB
S31508007710F8D893F825340A2BF4D8114B0022009395
S31508007720012123460F480EF035FD0F4B186028B986
S315080077300E4859F0BBFE40F20470D6E72B780BB919
S315080077409DF06EFB6B780020022B0CBF03230123F0
S31508007750A370CAE78C6D0A08F56D0A086D6E0A08EB
S3150800776099760008DE6E0A0834830020E66E0A0859
S3150800777037B5044601AB00F10C014FF48C7228486A
S3150800778059F0DEFA01AB04F592714FF4C862254848
S3150800779059F0D6FA01AB04F60C716422224804F5B6
S315080077A0805559F0CDFA01AB04F577614FF448726C
S315080077B01E4859F0C5FA95F82234B5F8202404F580
S315080077C094515A43103101AB9200194859F0B8FA4E
S315080077D0B5F8203495F8232404F264715A43154801
S315080077E001AB02EB820259F0ABFAB5F8203495F8F2
S315080077F0242404F6BC115A430F4801ABD20059F0B1
S315080078009FFA95F8252401AB02EB4202920004F692
S315080078106C610A4859F094FA012003B030BD00BFE4
S315080078201073080011730800127308001373080018
S3150800783014730800157308001673080017730800F8
S31508007840C0E9011270478078C31E584258417047F4
S31508007850002307B50A4800931A46032100680EF06C
S31508007860C9FC48B9074859F021FE40F2067003B032
S315080078705DF804EBFEF762BF03B05DF804FB00BFDA
S3150800788034830020056F0A0873B5114E0546306823
S315080078900C460EF013FE28B10E4859F007FE28468E
S315080078A0FFF7D6FF6423224600930421002330689D
S315080078B00EF0A0FC012809D0074859F0F7FD40F260
S315080078C0057002B0BDE87040FEF738BF02B070BD63
S315080078D0348300208F660A081E6F0A08F8B5837875
S315080078E00546012B0E46144603D1012A12D0002064
S315080078F0F8BD032BFBD1002AF9D117460A212846E1
S31508007900FFF7C2FF6B68AF7013B131462046984740
S315080079100120EDE70227F1E730B54AB3013A92B202
S31508007920092A25D81C2101FB020191F820401C7563
S3150800793004B3D1E90354C3E90054282505FB020220
S3150800794001208C6902F594521032C3E90224CA69EF
S315080079501A6191F821205A7591F82220D8759A75DE
S3150800796091F8242058761A7691F826209A7630BD12
S315080079700020FCE70120FAE72DE9F74FDDF83490FF
S3150800798006469846139F7AB1013A94B2092C0BD849
S31508007990D9F804B0BBF10A0F08D90B461D200121FE
S315080079A0404A009433F0E6F8002077E000F580536B
S315080079B093F82234BB4208D20B461D200121CDE99B
S315080079C00047394A33F0D6F8EEE74FF00A0ABBF11A
S315080079D0090F28BF4FF0090B0AFB040A0AF60C75B3
S315080079E05A46D9F8001028469DF01FFC1C22002391
S315080079F002FB046205F80B30D9F804104FF0010CAD
S31508007A00C2E903510E9982F82480D1619DF83C1091
S31508007A1082F820109DF8401082F821109DF8441035
S31508007A2082F822109DF8301082F82610282101FBD2
S31508007A30046101F5945110310A46BB4202F1040271
S31508007A400AD0129850F82300013342F8040C02F8C1
S31508007A5004CC22F8023CF0E71C2202FB0464C4E9C9
S31508007A60051306F58054B4F8203406F10C015A4380
S31508007A700E4859F079FA94F82234B4F8202406F519
S31508007A8094515A4310319200094859F06DFA64220C
S31508007A90084806F60C7159F067FA012003B0BDE8EC
S31508007AA0F08F00BF3E6F0A087D6F0A081073080042
S31508007AB0147308001273080010B5029C13B92AB192
S31508007AC000201CE0013A92B2092AF9D800EB021309
S31508007AD093F82411217099B193F82511221D61702C
S31508007AE0D3F82801D3F82C1182E80300012093F873
S31508007AF03121627393F833312073E373A07310BD99
S31508007B000120FCE7E0B505469DF81800079F08B96F
S31508007B1022B1E0BD013A92B2092A2DD805EB021628
S31508007B2086F831319DF810309DF8141086F83331F7
S31508007B3002F5F7739BB286F8250105EBC30386F8B1
S31508007B402411D7E9001218469DF06FFB7A6805F5EF
S31508007B508053C6E94A0293F8222405F59271120168
S31508007B60064859F001FA4FF44872054805F5776159
S31508007B7059F0FAF90120CCE70020CAE7117308008A
S31508007B801373080010B50299CAB1C3B1013AD2B24B
S31508007B90092A14D8013B9BB2092B10D83C2463430D
S31508007BA0062404FB0233034493F864274AB10020F1
S31508007BB0D3F865270A6093F869370B7110BD012061
S31508007BC0FCE78B20FAE7000008B5B2B3ABB3013A7D
S31508007BD0D2B2092A31D8013B9BB2092B2DD83C21B8
S31508007BE04B43062101FB02339DF80C20034483F81E
S31508007BF065279DF8102000F2647183F866279DF8C2
S31508007C00142083F867279DF8182083F868279DF8BD
S31508007C101C2083F869279DF8082083F8642700F557
S31508007C20805393F82324B3F8203405485A4302EBCB
S31508007C30820259F099F9002008BD0120FCE700BF2F
S31508007C401573080010B5029CCAB1C3B1013AD2B285
S31508007C50092A14D8013B9BB2092B10D878214B432B
S31508007C600C2101FB0233034493F8BC294AB1D3F82B
S31508007C70C009D3F8C41984E80300002010BD012008
S31508007C80FCE78B20FAE7000008B53AB333B3013AAC
S31508007C90D2B2092A22D8013B9BB2092B1ED87821D9
S31508007CA04B430C2101FB0233039A0344C3F8C02952
S31508007CB0049A00F6BC11C3F8C4299DF8082083F875
S31508007CC0BC2900F5805393F82424B3F820340448DB
S31508007CD05A43D20059F048F9002008BD0120FCE7B4
S31508007CE0167308007AB1013AD2B2092A0BD800EB0A
S31508007CF0021090F86C2E42B100F5676007C883E859
S31508007D00070000207047012070478B20704700004D
S31508007D1010B5FAB1013AD2B2092A1BD8029C00EB77
S31508007D200211C1F8704E039C81F86C3EC1F8744E7E
S31508007D309DF8104000F5805381F8784E93F8252475
S31508007D4000F66C6102EB42020348920059F00CF906
S31508007D50002010BD0120FCE7177308002DE9F74342
S31508007D600E461F464FF0010904460DF1070130463D
S31508007D7090468DF8079015F0A1FF3D78A5B99DF8B6
S31508007D80073053B917F086FE4246314617F086FE8D
S31508007D900125284603B0BDE8F083334649461D2031
S31508007DA0114A32F0E7FEF4E704F5C86994F825317C
S31508007DB0012B10D194F824316BB1D4F82C21BB686F
S31508007DC09A4208D1002ADDD07968D4F828019DF0B6
S31508007DD01CFA0028D6D01034A145E7D101220A9B07
S31508007DE000251A70D5E700BFE16F0A0807B50093AA
S31508007DF013460122FFF7B2FF03B05DF804FB07B58F
S31508007E00009313460222FFF7A9FF03B05DF804FBAF
S31508007E100A2300210B4A013BC2E90311C2E90511F5
S31508007E2002F11C02F7D164220749013AC1E901337C
S31508007E3001F11001F9D1054BC3F82024A3F8242435
S31508007E40704700BF0C6F0020307000200C7F0020A8
S31508007E5070477047134610B50A4601460548FFF7AE
S31508007E60C5FF044620B1002202210248FFF736FD6D
S31508007E70204610BD0C6F0020134610B50A46014671
S31508007E800548FFF7BCFF044620B10122022102483B
S31508007E90FFF724FD204610BD0C6F002007B50093A0
S31508007EA013460A4601460348FFF706FE03B05DF887
S31508007EB004FB00BF0C6F00201FB5089C03949DF8B7
S31508007EC01C4002949DF81840CDE9003413460A4632
S31508007ED001460248FFF716FE04B010BD0C6F0020DD
S31508007EE013460A4601460148FFF716BD0C6F0020E7
S31508007EF010B588B0109C07940F9C06949DF83840DE
S31508007F0005949DF8344004949DF8304003940B9CE6
S31508007F1002940A9CCDE9003413460A4601460248F3
S31508007F20FFF72AFD08B010BD0C6F002007B50093B7
S31508007F3013460A4601460348FFF724FE03B05DF8D8
S31508007F4004FB00BF0C6F002007B5009313460A46D2
S31508007F5001460348FFF776FE03B05DF804FB00BF51
S31508007F600C6F002013460A4601460148FFF7BABEC1
S31508007F700C6F002010B586B09DF8304005949DF82A
S31508007F802C4004949DF8284003949DF824400294BC
S31508007F909DF82040CDE9003413460A4601460248BA
S31508007FA0FFF712FE06B010BD0C6F00201FB5079C28
S31508007FB00294069CCDE9003413460A460146024857
S31508007FC0FFF762FE04B010BD0C6F00201FB59DF8C8
S31508007FD01C400294069CCDE9003413460A46014625
S31508007FE00248FFF795FE04B010BD00BF0C6F0020D5
S31508007FF0704710B5044608219CF018F8204610BDB5
S3150800800008B5FEF77AFD1948FFF742F810B1AC201B
S31508008010FEF794FB164B1748D3F8841134F0B5F9DC
S31508008020144834F0BFF9144859F09EFC64F0BEFABF
S315080080305FF028FB104859F0A5FC104859F036FAAD
S315080080400F48FFF7E3FA10B1AC20FEF777FB0D48AF
S3150800805059F02CFA03F049FB32F060FC0A4859F053
S3150800806025FAAC20FEF76AFB002008BD2E700A0828
S31508008070F8F8012060000020B85101203F700A0876
S31508008080046F002051700A086D700A08024A0349F5
S3150800809003489BF0C6BF00BF00000020F17F000820
S315080080A06000002007B5019000F04DFD02460199D9
S315080080B0024803B05DF804EBFFF7E8B8046F002048
S315080080C070B50446D1E9042352EA03000DD06425AD
S315080080D08868CE68A0FB050105FB06119CF010FD1B
S315080080E0012360702370204670BD002323706370DF
S315080080F0F9E7D0E9020170477047002383607047AB
S3150800810000234360704770470438704770477047CC
S3150800811010B5044610219BF089FF204610BDA0F13A
S315080081200400F5E710B5044B04460360006B08B17C
S3150800813057F038FE204610BD740D0B0810B50446DE
S3150800814001210C20054A32F015FDE06820B1BDE892
S31508008150104003689B68184710BD00BF8A700A085C
S31508008160A0F10400EAE700BF38B50B4CD4E88F3F0E
S31508008170DB070ED420469BF05BFF50B1074D084B3A
S3150800818020462B609BF060FF2846064A06499BF06E
S3150800819048FF024838BD00BF388300203C830020D2
S315080081A0C8EE0A0800000020F980000810B5044649
S315080081B00B4B03606433436000F51C7035F08CF894
S315080081C0A36D23B1002204F13800A2659847A36A7B
S315080081D023B1002204F10800A2629847204610BD88
S315080081E060D60A08A0F10400E0E700BF10B504460F
S315080081F0006808B134F092FA204610BD10B504465E
S31508008200034B40F8343BFFF7F1FF204610BD00BF93
S31508008210ACD20A0837B5C0680D46144638B90121EC
S315080082200C200E4A32F0A6FC002003B030BD1A68B6
S315080082302146019200221A6001AA20F0BBF901A882
S31508008240FFF7D4FFA38823B9E38813B92378402B13
S31508008250EAD02B8943F040032B81E5E79D700A0895
S31508008260A0F10400D6E700BFF0B5876805460C46BE
S3150800827085B017B9032005B0F0BD0023ADF8083066
S315080082800B890E7B23B94B89022B1ED1142E02D0E3
S315080082900123ADF80830606834F0BAF963683246ED
S315080082A0039302AB0093A168384603AB32F018FF7C
S315080082B0044603A8FFF79AFF2CB1A86818B132F054
S315080082C0A7FE0023AB602046D5E7002BE0D1402E61
S315080082D0DDE710B5044604219BF0A8FE204610BD34
S315080082E0F7B5104F104E384620F0CCFC0F49104D0C
S315080082F001F54053D3F884310E4A0F4C5360384683
S315080083003346009520F022FF0C4B2246394630466C
S31508008310336122F033F90A4B256263636C6003B05C
S31508008320F0BD00BF5884002070000020F8C8012066
S31508008330408300206800002020840020805101002E
S31508008340D0700A0810B50446FFF730FF20464FF4F0
S3150800835022719BF06BFE204610BDA0F10400F1E7E8
S3150800836010B5044608219BF061FE204610BD10B5E5
S3150800837004461C219BF05AFE204610BD10B5044643
S31508008380FFF73CFF2046E0219BF050FE204610BD3B
S3150800839010B50446FFF7C6FE204638219BF046FE78
S315080083A0204610BDF8B53C483C4B002403606433B6
S315080083B0436000F10803C0E90233394BC0E90A40BB
S315080083C0036300F13803C0E90E33364BC0E91640A3
S315080083D00366354BC0E91A44C3672033C0F88030BA
S315080083E00523C0E92E44C0E93044C0E97244046755
S315080083F080F87440846780F8AC4080F8D041C0F8B3
S31508008400D44180F8D84180F8F04180F8084280F8D5
S315080084102042C0F85432254BC0E99D44C0F870325A
S31508008420234A244980F83842C0F8504280F8584216
S3150800843080F87C42204D9BF0F4FD1D4A1F492048D8
S315080084409BF0EFFD1A4A1F491F489BF0EAFD284694
S31508008450002600271D4B6C6040F8103B2C7267F015
S3150800846031FE2846124A1A49C5E93444C5E9364454
S315080084709BF0D7FD1748184BC0E90267C0E90467A7
S31508008480C0E90644C0E90C440360094A1349BDE83B
S31508008490F8409BF0C6BD00BF5884002060D60A0885
S315080084A081A00208998E0208E4700A08F4F40A0802
S315080084B000000020AD810008408300200D810008DF
S315080084C0680000200F81000870000020ACD20A085E
S315080084D0FD81000820840020740D0B082581000802
S315080084E00F20704708B501213A2001F069F80EF00F
S315080084F02BF8BDE808400EF067BC01213A2001F0D0
S315080085005FB800004FF000639A6A02F17841B1F54E
S31508008510C04F03D21168074A914203D00023037063
S3150800852083607047012202709A6A926842609B6A69
S315080085309B69F5E707B0CD5E4FF00053074A1A600E
S31508008540BFF34F8F0649074BCA6802F4E06213432C
S31508008550CB60BFF34F8F00BFFDE700BF02020FF0ED
S3150800856000ED00E00400FA0530B54FF0006587B06D
S315080085700191AB6A044603F17843B3F5C04F10D2B4
S3150800858001238DF80C30002303A8CDE90433FFF747
S31508008590B9FF059B5B0504D5AB6A20461B6C0199A0
S315080085A0984707B030BD000037B5414B04461A78E6
S315080085B01AB102221A7003B030BDCDE90022002894
S315080085C0F9D001251D7001F074FE3A4B186096F03B
S315080085D007FF394B5A6E22619B6E384A63614FF426
S315080085E080439366364B5968A16136499960196E7E
S315080085F02160596E6160196CA160596CE16032495D
S31508008600086C1864496C596455661B6E9C0437D50A
S315080086102E4AD368D807FCD42D4B1A68531C34D07D
S315080086204FF4801393402B4A13660423294C236680
S315080086304FF40073236600F0C1F901300BD000F047
S31508008640BDF940F2011398421FBF4FF40053236649
S315080086504FF48043236608231E4C684623664FF46E
S31508008660805323664FF0006323664FF4002301A965
S315080086706366FFF779FF009B2366019B63669AE7AB
S31508008680154AD368D907FCD4C6E7144B1B78002BC8
S31508008690CBD14FF40072094B5A6603F5A6235B68E3
S315080086A0002BC2D14FF480120A4B1A66BDE700BFF1
S315080086B0FD860020008700200080005000900050B2
S315080086C00080004455CEAC0000C0005400000440B1
S315080086D0DC0000200090004400000450FC860020C6
S315080086E070B5204D04462E78012E02D001232B703A
S315080086F070BD0028FCD000F061F901300BD000F005
S315080087005DF940F20113984205D0174B174A5E6689
S31508008710D368DE07FCD42268154B1A6662685A6667
S31508008720A2681A64E2685A64A269D00744BF0022A4
S315080087309A60104B1A68013207D10F4A127822B98B
S315080087400E494968C90748BF1A6022690C4B5A6620
S3150800875062699A6696F060FE0A4B186801F0AFFDEA
S315080087600023C4E7FD860020009000400000044076
S3150800877000800044DC000020FC86002000C0055074
S31508008780008000500087002038B54FF00064A36AC7
S3150800879003F17843B3F5C04F13D20C4D2B7813F081
S315080087A0FD0F11D10A48FFF7FFFEA36ADB69984758
S315080087B004460748FFF794FF0CB901232B7020469F
S315080087C038BD4FF48174FAE70024F8E7FC860020E8
S315080087D0E086002038B54FF00065AB6A044603F121
S315080087E07842B2F5C04F12D21B6B03F17843B3F54A
S315080087F0C04F0CD20648FFF7D7FEAB6A20461B6B64
S315080088005B689847BDE838400148FFF769BF38BD3F
S31508008810048700204FF000639B6A03F17842B2F5A3
S31508008820C04F07D21B6B03F17842B2F5C04F01D295
S315080088309B6818474FF481707047000013B54FF0D6
S3150800884000640190A36A03F17842B2F5C04F15D2CD
S315080088501B6B03F17843B3F5C04F0FD20948FFF7F6
S31508008860A3FEA36A01211B6B01A89B6998470446CE
S315080088700448FFF735FF204602B010BD4FF4817457
S31508008880F9E700BF0487002037B54FF00065CDE94A
S315080088900021AB6A044603F17840B0F5C04F12D206
S315080088A01B6B83B10948FFF77FFEDDE90021AB6A40
S315080088B020461B6B5B6A984704460448FFF710FF7F
S315080088C0204603B030BD4FF40174F9E70487002051
S315080088D037B54FF000650191AB6A044603F178425B
S315080088E0B2F5C04F15D21B6B03F17843B3F5C04FF1
S315080088F00FD20948FFF758FEAB6A20461B6B019951
S315080089009B6A984704460448FFF7EAFE204603B0E8
S3150800891030BD4FF40174F9E7048700204FF0006377
S3150800892070B59B6A0D4603F17843B3F5C04FADF5B4
S315080089300E7D17D24FF40E726946FFF7A5FF04465F
S3150800894060B940F2012629466846FFF7C1FFB042E2
S31508008950F9D040F20323984218BF044620460DF585
S315080089600E7D70BD4FF40174F8E7000037B54FF07F
S315080089700065CDE90021AB6A044603F17840B0F5FD
S31508008980C04F16D21B6B03F17843B3F5C04F10D214
S315080089900948FFF709FEDDE90021AB6A20461B6B93
S315080089A09B6B984704460448FFF79AFE204603B097
S315080089B030BD40F20114F9E7048700201FB54FF0D7
S315080089C000639B6A03F17842B2F5C04F04D340F2C4
S315080089D0011005B05DF804FB1B6B03F17843B3F592
S315080089E0C04FF4D201238DF80430002301A8CDE945
S315080089F00233FFF787FD039BDB03E8D5029B1A0EBC
S31508008A00E5D0012A03D1C3F307430A2BDFD94FF078
S31508008A1000639B6A1B6B1B6C9847DAE737B54FF008
S31508008A2000650191AB6A044603F17842B2F5C04F7E
S31508008A3015D21B6B03F17843B3F5C04F0FD2094823
S31508008A40FFF7B2FDAB6A20461B6B0199DB6B9847B3
S31508008A5004460448FFF744FE204603B030BD40F202
S31508008A600114F9E7048700202DE9F04399464FF0F1
S31508008A7000639B6A174603F17842B2F5C04F054674
S31508008A800E4691B04DD21B6B03F17843B3F5C04F38
S31508008A9047D203A8FFF79EFE079BDC68A3B2002B0C
S31508008AA042D0284601A9FFF7B5FE00BB029B06EB9C
S31508008AB009059D423BD8A1B2B6FBF1F401FB14634C
S31508008AC0DDF80480D3B1B5FBF1F201FB12524C423A
S31508008AD004EA060001EB080C62B12C40211A604436
S31508008AE0D1B94A46394608EB0600FFF73FFF11B0F1
S31508008AF0BDE8F083A9EB0104E118F0E7B9FBF1F34F
S31508008B0001FB139308EB060023B14C4204EA09045F
S31508008B102144E5E74946E3E7FFF780FF0028E0D070
S31508008B20E5E74FF48170E2E740F20140DFE740F203
S31508008B300240DCE703680B6001607047436803B1D5
S31508008B40184722207047436903B11847FF2070472A
S31508008B5010B40A681378022B11D014203023147924
S31508008B6013FB040307481B585079C340DB4303F043
S31508008B700103137008465DF8044BFFF793BA5DF8D6
S31508008B80044B704730C0035037B5046801210546C9
S31508008B903A2000F015FD002301226179207901F0C1
S31508008BA041FD14223023217913FB01230E4A9B58D9
S31508008BB06279D340DB4303F001032370A379022BC8
S31508008BC00ED100F08BF92A460849607900F0B0F911
S31508008BD00123024661792079CDE9003301F0CAFC08
S31508008BE0002003B030BD00BF30C00350518B0008D1
S31508008BF0036818787047000002681378022B24D09F
S31508008C0014213023107913FB001310495B5851794E
S31508008C10CB40917903F00103012912D1508843EA28
S31508008C2040034FF6E07063F03F039BB2834202D1E4
S31508008C301170538070474FF6DF718B42F9D10021CE
S31508008C40F6E711B983F001031370704730C003507B
S31508008C5003681A78022A03D100225A80FFF794BFC4
S31508008C60704713B504682378022B10D0A379022B1A
S31508008C700BD10021607900F049F900236279207947
S31508008C801146CDE9003301F075FC0223237002B0CA
S31508008C9010BDD0E900031847836800681847C36801
S31508008CA00068184703690068184743690068184749
S31508008CB010B5044601213A2000F082FCA3782078FA
S31508008CC0B3FA83F3042261785B0901F0ABFC002058
S31508008CD010BD000010B50122437801788478302051
S31508008CE09A40054B00FB01331CB903F501531A6082
S31508008CF010BD03F58253FAE700C0035010B50122F0
S31508008D0043780178847830209A40054B00FB01337C
S31508008D101CB903F582531A6010BD03F50153FAE72F
S31508008D2000C003500122437801789A403023594302
S31508008D30014B5A50704700BF40F0035010213023B2
S31508008D400246007813FB0013054950785B58C34068
S31508008D5003F0010093780BB980F00100704700BF5B
S31508008D6030C0035038B5124B05461B78DBB1E0B16D
S31508008D7001F09FFA0F4A00231146147B54B92B6061
S31508008D8001251A0101EB03131D738C5001F097FAA4
S31508008D90204638BD0133082B02F11002EDD101F04F
S31508008DA08EFA0548F5E70548F3E70548F1E700BFF9
S31508008DB0A088002020870020048000F0028000F0B0
S31508008DC0018000F0164B13B51868002301908DF842
S31508008DD0043001F06EFA134B1C7824B101F06FFAD7
S31508008DE0114802B010BD01221A7001F068FA0F4B43
S31508008DF01C731C7783F82C4083F83C4083F84C405E
S31508008E0083F85C4083F86C4083F87C4004230DEBC0
S31508008E1003008DF8073001F045FC2046E1E700BF66
S31508008E201C710A08A0880020038000F02087002013
S31508008E302DE9F843174B1F6D5B6D1F4000D5FEE704
S31508008E4001260025144CDFF85480DFF85490374289
S31508008E5017D0C8F8506023689BB1A168284601312D
S31508008E606268A1609847637B012B0AD148B909EB70
S31508008E7045131A7B60F341021A731A7F60F34102A5
S31508008E801A770135082D4FEA460604F11004DED19B
S31508008E90BDE8F88300000450208700200020045015
S31508008EA0A087002070B5044601250B4E04B970BD95
S31508008EB094FAA4F0B0FA80F005FA00F306EB001273
S31508008EC024EA03045368002BF0D0117B11B1916892
S31508008ED09847EBE79847E9E7A488002008B51920E2
S31508008EE001F0F0F928B14FF00072074BC3F8802162
S31508008EF01A601A2001F0E6F928B14FF08062024B99
S31508008F00C3F880211A6008BD00E100E038B50546BF
S31508008F100C4601F0CEF90022044B03EB05135C6006
S31508008F201A73BDE8384001F0CAB900BFA48800200A
S31508008F30F8B505460F46164601F0BBF9104B05F085
S31508008F40FC02D3F824140023EC1804F00304144399
S31508008F5021FA04FC1CF0010F07D00133042BF3D1CE
S31508008F60FF2401F0ACF92046F8BDFF2CF9D0012208
S31508008F70044B03EB0413C3E901761A73F1E700BF48
S31508008F8000C00350A4880020074BD3F82404D3F864
S31508008F90202403F50053104000F0553020F05020EF
S31508008FA0C3F82004FFF77EBF00C00350074BD3F871
S31508008FB02404D3F8202403F50053104000F0AA3007
S31508008FC020F0A020C3F82004FFF76CBF00C00350B0
S31508008FD0024B1968024B18689AF058BAE400002048
S31508008FE0E00000207047000037B5920004460D46A1
S31508008FF001929DF0D1FA431C0BD060B92946204650
S31508009000019A9CF002F90028044808BF002003B022
S3150800901030BD0348FBE70348F9E700BF10E000F05E
S3150800902021E000F024E000F013B5044601A801F0A1
S315080090303FFC9DF80630012223804FF48073002000
S315080090406380054B9B680A3303F01F0302FA03F398
S31508009050636002B010BD00BF0080E00F01F064BB82
S3150800906008B501F051FB002008BD10B5044644EAD6
S31508009070010313F00303084609D1934201D10020E6
S3150800908010BD54F8231040F823100133F5E72146A4
S3150800909092009CF0CAF8F2E710B504469DF084FAEF
S315080090A0431C15D0B0B90C4B20469B680A3303F015
S315080090B01F020123934023F003032344984201D15E
S315080090C0002010BD50F8042B0132F7D00348F8E70A
S315080090D00348F6E70348F4E70080E00F0EE000F0E7
S315080090E021E000F024E000F008B501F0DBF8014BC0
S315080090F0186008BD188E0020014B186801F0D6B814
S31508009100188E002070470000044BD3F88420D2063E
S31508009110FBD4D3F88400C0F3811070470040005098
S3150800912038B5174B0546D3F820310C4603F007032C
S31508009130013B052B20D8DFE803F0030B130F171BA1
S315080091400DF03AFF052305B1286004B1236038BD48
S315080091500DF068FF0323F6E70DF080FF0723F2E71B
S315080091600DF078FF0223EEE70DF026FF0623EAE767
S315080091700DF058FF0423E6E700231846E3E700BF8F
S315080091800080005038B5174B0546D3F828310C46F1
S3150800919003F00703013B052B20D8DFE803F0031390
S315080091A01B0F0B170DF008FF052305B1286004B146
S315080091B0236038BD0DF000FF0623F6E70DF04EFFDD
S315080091C00723F2E70DF02EFF0323EEE70DF02AFF43
S315080091D00423EAE70DF03EFF0223E6E700231846DC
S315080091E0E3E700BF0080005073B50D460021114B20
S315080091F00191D3F88041064604F00304022C13D0EB
S31508009200032C0CD0012C13D101A8FFF789FF1024D9
S315080092100EB1019B336005B12C6002B070BD0DF034
S315080092201DFF07240190F3E70DF014FF0190EFE707
S315080092300C46EDE700800050002337B50193154B27
S315080092400546D3F820320C4603F00703013B032BEF
S315080092501ED8DFE803F0020E1318002101A8FFF755
S3150800926091FF12230DB1019A2A6004B1236003B05D
S3150800927030BD0DF0F3FE07230190F3E70DF030FF44
S315080092800A230190EEE70DF031FF09230190E9E783
S315080092900023E7E70080005038B5104B0546D3F8A1
S315080092A040310C4603F00303022B0BD0032B0DD0E1
S315080092B0012B0FD10DF014FF0A2305B1286004B164
S315080092C0236038BD0DF012FF0923F6E70DF00BFFFA
S315080092D00C23F2E700231846EFE700BF0080005092
S315080092E0002337B50193164B0546D3F860320C4672
S315080092F003F00703013B032B1FD8DFE803F0020E38
S315080093001914002101A8FFF70BFF10230DB1019ACC
S315080093102A6004B1236003B030BD002101A8FFF71D
S31508009320BBFF1123F2E70DF099FE07230190EDE745
S315080093300DF090FE02230190E8E70023E6E700BF60
S3150800934000800050002337B50193164B0546D3F825
S3150800935094320C4603F00703013B032B1FD8DFE8C2
S3150800936003F0020E1914002101A8FFF7D9FE1023F5
S315080093700DB1019A2A6004B1236003B030BD002103
S3150800938001A8FFF789FF1123F2E70DF067FE07230F
S315080093900190EDE70DF05EFE02230190E8E7002359
S315080093A0E6E700BF0080005038B5134B0546D3F8F2
S315080093B000320C4603F00703013B032B18D8DFE8FD
S315080093C003F0020A0E120DF08BFE0A2305B128607F
S315080093D004B1236038BD0DF089FE0923F6E70DF0C8
S315080093E082FE0C23F2E70DF007FE0F23800AEDE755
S315080093F000231846EAE700BF0080005038B5134B33
S315080094000546D3F808320C4603F00703013B032B45
S3150800941018D8DFE803F0020A0E120DF061FE0A23DF
S3150800942005B1286004B1236038BD0DF05FFE09233D
S31508009430F6E70DF058FE0C23F2E70DF0DDFD0F23DD
S31508009440800AEDE700231846EAE700BF00800050CF
S3150800945038B5104B0546D3F840320C4603F00303E3
S31508009460022B0BD0032B0DD0012B0FD10DF038FE9C
S315080094700A2305B1286004B1236038BD0DF036FE15
S315080094800923F6E70DF02FFE0C23F2E70023184612
S31508009490EFE700BF0080005038B5104B0546D3F8FB
S315080094A060310C4603F00303022B0BD0032B0DD0BF
S315080094B0012B0FD10DF014FE0A2305B1286004B163
S315080094C0236038BD0DF012FE0923F6E70DF00BFEFA
S315080094D00C23F2E700231846EFE700BF0080005090
S315080094E070B5054614460E4600F0DCFE296881EA8A
S315080094F0040202EA06044C402C60BDE8704000F005
S31508009500D5BE0000B0F5207F1FD009D8B0F5007F82
S3150800951015D003D868B1B0F5C07F0AD000200CE09A
S31508009520B0F5607FFAD10B4BD3F88000C0F3011079
S3150800953003E0084B186FC0F3033001307047054B42
S31508009540D3F89000C0F30460F7E7024B186FC0F336
S315080095508020F2E70080005002464FF48030104B1E
S3150800956010B598660020FFF7CDFF504341F67132DB
S315080095700C4BDC69DA635A6804F4803422F440122E
S3150800958059B9094988428CBF4FF48010002010430E
S3150800959058600CB10022DA6310BD0449F2E700BF37
S315080095A00090005000000350005A6202002D31015D
S315080095B008B50DF033FDBDE808400021FFF7CCBF24
S315080095C0430905D0012B0DD0022B094B18BF0023E8
S315080095D000F01F0041B103F58053012202FA00F0A2
S315080095E018607047034BF3E703F50053F5E700BF30
S315080095F068800050648000501FB500228028044609
S31508009600019200F0BA8048D8002800F0BA80A0F18C
S3150800961020043D2C54D83D2C52D8DFE814F0B20073
S31508009620BE00B200BE00D700D700D700D700D700CB
S31508009630BE00E1005B00F70081005B00BE00BE00D3
S31508009640BE00510051005100510051005100510017
S315080096505100BE00BE00BE0089000101BE005100D7
S315080096605100510051005100510051005100510064
S315080096705100510051005100D700B200B200B200AB
S31508009680FC005B005B00060198006C00DC005100E2
S315080096905100510051005100A900B0F5B06F00F01B
S315080096A09F802DD8B0F5207F77D00CD8B0F5C07F35
S315080096B067D0B0F5007F67D0B0F5807F00F0958061
S315080096C0019804B010BDB0F5607F6CD00DD8B0F528
S315080096D0407FF5D10DF090FC02464FF42070FFF75D
S315080096E011FFB2FBF0F0400849E0B0F5806F6DD08D
S315080096F0B0F5A06FE4D1002101A8FFF79DFDDFE7D3
S31508009700B0F5106F00F0878017D8B0F5E06F00F05D
S3150800971087800AD8B0F5C06F78D0B0F5D06FCFD1B2
S31508009720002101A8FFF740FECAE7B0F5F06FC7D1E0
S31508009730002101A8FFF7B0FEC2E7B0F5406F4AD096
S3150800974013D8B0F5206F70D0B0F5286FB8D10021C6
S31508009750384B0391D3F8703203F00303012B02D17F
S3150800976003A8FFF799FD039B49E0B0F5486FA7D119
S31508009770002101A8FFF7E6FDA2E70DF023FC019002
S315080097809EE70DF039FCFAE70DF01CFC0246204670
S31508009790FFF7B8FEB2FBF0F0F1E70DF02DFC02463C
S315080097A04FF42070F4E7234BD3F8803003F003031B
S315080097B0012B04D0022B06D04FF46070E8E70DF0B9
S315080097C001FC0246F8E70DF049FCFAE7002101A87A
S315080097D0FFF7A6FC74E7002101A8FFF7D3FC6FE7A3
S315080097E0002101A8FFF700FD6AE74FF0E023029287
S315080097F01B695B0705D50DF0FFFB0290029B0193E1
S315080098005EE703A902A8FFF747FDF7E7002101A8CD
S31508009810FFF742FD54E7002101A8FFF7EFFD4FE7E8
S31508009820002101A8FFF714FE4AE7002101A8FFF767
S3150800983057FD45E70080005008B58020FFF7DCFE9D
S31508009840034B98429EBF4FF48032024B1A6708BDFD
S31508009850005A620200A000501FB50023B0F5807FB1
S31508009860019300F0C38064D85D2855D84C2807D8E2
S315080098702D2847D823282BD8019805B05DF804FB76
S315080098804D381028F8D801A353F820F0E3990008BA
S315080098907998000879980008799800089599000839
S315080098A07998000879980008819A0008B399000801
S315080098B059990008779A0008799800087998000855
S315080098C07998000879980008799800088B9A000812
S315080098D024380928D0D801A353F820F0E3990008C2
S315080098E0E3990008E3990008E3990008E39900085A
S315080098F079980008D9990008799800087599000898
S31508009900199A00083D2800F082803E28B4D100202C
S3150800991001A9FFF79DFDAFE78028ADD1604B1B6F0E
S3150800992003F00703013B032BA6D8DFE803F05350E7
S31508009930878FB0F5F06F6AD021D8B0F5B06F4BD0ED
S315080099400FD8B0F5607F00F0858095D3B0F5806FAD
S3150800995047D0B0F5A06F8FD1002001A9FFF76CFCA6
S315080099608AE7B0F5D06F57D0B0F5E06FCFD0B0F535
S31508009970C06F81D1002001A9FFF78EFC7CE7B0F506
S31508009980206F7DD00BD8B0F5086F4AD0B0F5106FB0
S315080099907FF472AF002001A9FFF730FD6CE7B0F540
S315080099A0406F68D0B0F5486F6FD0B0F5286F7FF478
S315080099B063AF00213A4B0391D3F8703203F00303E7
S315080099C0012B67D0022B14BF0B46152300E0052395
S315080099D0019351E70223FBE7002001A9FFF704FCE6
S315080099E04AE7002001A9FFF79BFB45E702934FF0E2
S315080099F0E0231B695B0705D50DF0FEFA0D230393DB
S31508009A00039BE5E703A902A8FFF746FCF8E7002051
S31508009A1001A9FFF741FD2FE7002001A9FFF7C4FCC4
S31508009A202AE71F4BD3F8003103F00303022B07D0B4
S31508009A30032B09D0012B0BD10DF0F4FA0323C7E74A
S31508009A400DF054FB0923C3E70DF002FB0823BFE71B
S31508009A500123BDE7124AD2F8802002F00302012A48
S31508009A6005D0022AB4D10DF0F9FA0723B0E70DF0B4
S31508009A70A9FA0E23ACE7002001A9FFF783FBFBE652
S31508009A80002001A9FFF72CFCF6E6002001A9FFF744
S31508009A9059FCF1E603A8FFF7FFFB112398E700BF7F
S31508009AA00080005008B5FFF7D7FE092811D00A38FC
S31508009AB0012811D84FF48002094B4FF6FF705A66F9
S31508009AC003F5D8335B6A13F0010F18BF4FF4FA7029
S31508009AD008BD044B1888FBE74FF6FF70F8E700BF90
S31508009AE0009000500601002038B504468020FFF794
S31508009AF0B3FE032800F083804FF48012504B4FF0DA
S31508009B00A0615A6645F60E034E4AC2F880304E4B9F
S31508009B1099624FF4803103F580539962916D11F47F
S31508009B208031FBD1D4E900031B0543EA0063E07BDF
S31508009B300343207B43EA0043607B43EA0033A07B70
S31508009B4043EA801313619069D4E904531B0643EA78
S31508009B50856300F000400343A07E0343207E43EA6A
S31508009B600043607E43EA00239361136AE269E57E57
S31508009B70002A0CBF0020082023F00F03134343EAF2
S31508009B808503304A03431362E369304D002B37D10E
S31508009B9094F82430916A94F82000DB000D4043EADB
S31508009BA0401394F821102B4343EA011343F48033FE
S31508009BB09362274B916D33EA0101FBD14FF0807117
S31508009BC0214881621369A56823F4700343EA0553A3
S31508009BD013614FF00043836194F822300BB91D4B93
S31508009BE0996294F823301BB94FF48032194B9A6264
S31508009BF094F825301BB1134B174AC3F8802038BD9B
S31508009C00022B08D11161154891614FF408524FF49F
S31508009C107F41FFF765FC0B4994F822308A6A94F86D
S31508009C2020001B06154043EA401394F824202B43D2
S31508009C3043EAC20394F8232043EA02438B62D7E738
S31508009C40009000500040005A0050005AC7FFFEFE20
S31508009C50030001000060005AF1A7FFFF3440005AD4
S31508009C60014B93F900007047040100204FF40001EE
S31508009C701B4A437810B551664FF4D151022402F5B8
S31508009C80B832516217494F2B4C604FF0010428BF78
S31508009C904F2301F580514C601169C903FCD4017842
S31508009CA043EA01235361D0E901131B0143EA012367
S31508009CB0417B0B43017B43EA41039360C37B817B72
S31508009CC01B0143EA4113417C0B43017C43EA4103F0
S31508009CD05360837C13B16FF4D153536210BD00BF38
S31508009CE00090005000100250014B1880704700BFCA
S31508009CF0060100200029CCBF01210021FFF72CBC5A
S31508009D00B0F5207F10B50C4657D008D8B0F5007FBF
S31508009D1048D003D830B3B0F5C07F23D010BDB0F516
S31508009D20607FFBD129492A48D1F8FC2012F08072BD
S31508009D301EBFD1F8FC3023F08073C1F8FC30D0F890
S31508009D408030611E23F0300444EA0114C0F88040D4
S31508009D50002AE3D01D4AD2F8FC3043F08073C2F8DB
S31508009D60FC30DBE7FFF724FC00F036F84FF48031CF
S31508009D70184B174A1967136F611E23F4704444EA97
S31508009D80013414670DF038F90446FFF7BDF9C0F140
S31508009D9002012046FFF7AEFF00F024F8BDE81040A8
S31508009DA0FFF74ABD0A4A0139D2F8903023F0F85431
S31508009DB044EA0164C2F89040B0E7054B013C196FCC
S31508009DC021F4806141EA84241C67A7E700ED00E0DE
S31508009DD0008000500090005002214FF42070FFF7D9
S31508009DE08FBF000008B54FF4C070FFF705FCBDE84B
S31508009DF00840044988428CBF022101214FF4207093
S31508009E00FFF77EBF80F0FA02B0F5807FF8B50C4602
S31508009E1000F04E816BD85D285DD84C2804D82D28D3
S31508009E2044D8232828D8F8BD4D381028FBD801A3D4
S31508009E3053F820F091A00008279E0008279E0008E6
S31508009E40279E00088B9F0008279E0008279E00086B
S31508009E5045A20008C39F00081B9F000825A200080A
S31508009E60279E0008279E0008279E0008279E0008B0
S31508009E70279E000865A2000824380928D3D801A31C
S31508009E8053F820F091A0000891A0000891A00008BE
S31508009E9091A0000891A00008279E000871A000085C
S31508009EA0279E0008519F00085FA100083D2800F082
S31508009EB046813E28B7D1093C032C8CBF0021B04B04
S31508009EC0B04A98BF195DD2F8403223F003030B431A
S31508009ED0C2F84032A7E78028A5D18B1E062B00F2D0
S31508009EE0C480DFE803F0BFADC27EC2C2BC00B0F5D5
S31508009EF0F06F00F024813BD8B0F5B06F00F0B88061
S31508009F001BD8B0F5607F00F067818CD3B0F5806F01
S31508009F1000F0BE80B0F5A06F85D1073C0B2C8CBF36
S31508009F200021994B974A98BF195DD2F8203223F041
S31508009F3007030B43C2F8203275E7B0F5D06F00F07F
S31508009F400E81B0F5E06FB6D0B0F5C06F7FF46BAF99
S31508009F50093C032C8CBF00218C4B8A4A98BF195D9B
S31508009F60D2F8403123F003030B43C2F840315AE7D5
S31508009F70B0F5206F00F0668117D8B0F5086F00F0CD
S31508009F801B81B0F5106F7FF44EAF093C062C8CBFD1
S31508009F9000217F4B7B4A98BF195DD2F8083223F01F
S31508009FA007030B43C2F808323DE7B0F5406F00F0EF
S31508009FB03981B0F5486F00F05581B0F5286F7FF408
S31508009FC032AF112C00F05E81152C14BF002102213E
S31508009FD06C4AD2F8703223F003030B43C2F870328E
S31508009FE021E7002502264FF480370121022000F0E0
S31508009FF08DF9FFF7DDFAFFF7EFFE664B614A1F673B
S3150800A000136F23F00703334313670CF0F5FF064677
S3150800A010FFF77AF8C0F102013046FFF76BFE01211F
S3150800A020002000F0B3F9FFF7DDFEFFF705FC002D71
S3150800A0307FF4F9AE032C7FF4F6AE574B9F62F2E637
S3150800A0404FF48012534B0E465A664FF48032534BE8
S3150800A0509D6A03F58053C5F300659A62C3E7002538
S3150800A0600426C0E700250126BDE700252E46BAE7E7
S3150800A070023C0E2C8CBF0021494B424A98BF195D01
S3150800A080D2F8803123F003030B43C2F88031CAE6C5
S3150800A090023C052C8CBF0021424B3A4A98BF195DF9
S3150800A0A0D2F8203123F007030B43C2F82031BAE671
S3150800A0B0A1F10904082C3FF6B6AE01A353F824F023
S3150800A0C0E5A00008E5A00008279E0008E5A000080E
S3150800A0D013A10008279E0008279E0008279E00084F
S3150800A0E0E5A000084FF48032264B2F49586E03F539
S3150800A0F080535A664B6A43F001034B62C1035CBF47
S3150800A1002A4B5A664FF0E022136923F004031361C1
S3150800A11089E64FF480321B4B2349586E03F580536A
S3150800A1205A664B6A23F001034B62C3035CBF1F4B9D
S3150800A1305A664FF0E022136943F00403E7E7093C47
S3150800A140032C8CBF00211A4B0E4A98BF195DD2F812
S3150800A150603123F003030B43C2F8603163E6093C20
S3150800A160062C8CBF0021134B064A98BF195DD2F8FE
S3150800A170003223F007030B43C2F8003253E600BF50
S3150800A18059710A080080005074710A0859710A0842
S3150800A1905D710A08009000500060005A0040005A9D
S3150800A1A044710A0853710A0800C0075000A00050FD
S3150800A1B059710A085D710A08CC1E062C8CBF00214D
S3150800A1C0314B324A98BF195DD2F8003123F00303A8
S3150800A1D00B43C2F8003126E62D49063CD1F8FC208F
S3150800A1E012F080721EBFD1F8FC3023F08073C1F8DC
S3150800A1F0FC30082C8CBF0020264B244998BF185DDC
S3150800A200D1F8803023F003030343C1F88030002AD5
S3150800A2103FF409AE1E4AD2F8FC3043F08073C2F808
S3150800A220FC3000E6023C052C8CBF00211A4B174A6D
S3150800A23098BF195DD2F8283123F007030B43C2F8FB
S3150800A2402831F0E5023C0F2C8CBF0021134B0F4A36
S3150800A25098BF195DD2F8603223F007030B43C2F8A2
S3150800A2606032E0E5023C0F2C8CBF00210C4B074AFC
S3150800A27098BF195DD2F8943223F007030B43C2F84E
S3150800A2809432D0E50121A3E664710A0800800050E3
S3150800A29000ED00E06B710A0853710A0880710A081C
S3150800A2A080710A08EFF3108072B6704700B962B67B
S3150800A2B07047EFF31180302383F31188704780F3DA
S3150800A2C011887047054B420953F8223000F01F00E9
S3150800A2D023FA00F0C04300F00100704700E100E0F7
S3150800A2E0024A536B0342FCD1704700BF0040095035
S3150800A2F070470000034A0179D36E23F030030B43FD
S3150800A300D36670470040005070470000F8B5044611
S3150800A3101C4BD3F88420D106FBD4D3F88430C3F37E
S3150800A32081139C422CD00CF04DFE012C064602D11E
S3150800A3302146FFF7DFFCFFF7B5FF4FF00072124B1F
S3150800A34007465A662046FFF7DFFF4FF480630D4D38
S3150800A350621E93402B676B6E9A0103D4D5F884303E
S3150800A3609B060AD53846FFF7A1FF022C08D13046CE
S3150800A370BDE8F8400021FFF7BDBCD5F88430EAE710
S3150800A380F8BD00BF004000500060005007B518B97E
S3150800A39001910CF017FE0199064B1B7843B1064B49
S3150800A3A0984205D8012003B05DF804EBFFF7AEBF6D
S3150800A3B00220F8E7CC8E0020005A62024FF00042D5
S3150800A3C0154B10B55A664AF6CD3314494C6C0B64D6
S3150800A3D004F0010488B90120FFF782FF4B68DB0708
S3150800A3E004D50F4B58600B6BD807FCD514B10B4B33
S3150800A3F00C4A1A648EF090FC10BD0B6B1A07FCD43D
S3150800A4002022074B9A620122A3F580535A60034A19
S3150800A410936A9B06FCD5E9E7009000500040095076
S3150800A420006009503254FFFF4FF0004238B5164B12
S3150800A43001465A664AF6CD33144C154A656C2364B0
S3150800A44043780B205B0043F00103D363FFF748FF13
S3150800A45063688A7823F4F87343EA02136360CA7858
S3150800A4604B7943EA0223A3600A798B7943EA0223EC
S3150800A47023610878FFF7A2FFEB0744BF054B236467
S3150800A4808EF04AFC012038BD00900050004009506B
S3150800A490004000503254FFFF4FF0004270B5124B97
S3150800A4A004465D6E03F580535A664AF6CD330F4966
S3150800A4B080204E6C0B64FFF713FF0B6A23F00F0323
S3150800A4C00F2C94BF234343F00F030B62F30744BFDB
S3150800A4D0074B0B64002DA2BF4FF00042054B5A668E
S3150800A4E08EF01AFC70BD00BF008000500040095075
S3150800A4F03254FFFF00A000504FF0004270B5104BD9
S3150800A50004465D6E03F580535A664AF6CD330D4907
S3150800A51080204E6C0B64FFF7E3FE0B6A23F4F853B6
S3150800A52043EA04230B62F30744BF074B0B64002D71
S3150800A530A2BF4FF00042054B5A668EF0EDFB70BD88
S3150800A54000800050004009503254FFFF00A0005020
S3150800A55070B5054614460E46FFF7A4FE296881EA3B
S3150800A560040202EA06044C402C60BDE87040FFF77E
S3150800A5709DBE0000072AF7B501F0030614461F46DC
S3150800A5804FF003012CD89500A94000FA05F21C48A3
S3150800A5900191FFF7DDFF01991A4806FA05F2FFF760
S3150800A5A0D7FF194B19499DF82000002F08BF1946F7
S3150800A5B0012303FA04F40C60154B1649002808BF5A
S3150800A5C00B461C60144B1031C3F820449DF8240038
S3150800A5D0A3F6DC33002808BF0B461C6003B0F0BDA9
S3150800A5E0A2F10805AD00A94000FA05F20B48019151
S3150800A5F0FFF7AEFF01990A4806FA05F2CFE700BF52
S3150800A60000C4035008C4035010E4035010D4035088
S3150800A61014D4035014E4035000E0035004C4035058
S3150800A6200CC403502DE9F04105460F461E469046D8
S3150800A6304AB101233022194C8B4002FB00443EB339
S3150800A64004F5825423600F21072F05EB450388BFC5
S3150800A650A7F108044FEA0313114895BFBC00A400EC
S3150800A66004330C3308FA04F2A1401844FFF770FFCC
S3150800A670B8F1000F0AD101213020084A01FA07F77C
S3150800A68000FB05223EB102F582521760BDE8F08153
S3150800A69004F50154D6E702F50152F6E700C0035067
S3150800A6A030C0035010B5012104462020FEF788FF6C
S3150800A6B001212120FEF784FF0122114B5A602278DE
S3150800A6C012069A606178A27842EA01429A61FF22EC
S3150800A6D09A6200229A631A644FF000425A654FF054
S3150800A6E0FF324FF4001103F500531A65054AC2F804
S3150800A6F08011E3781B01DBB282F81533116010BDB7
S3150800A7000000045000E100E04FF48032054B9A66E1
S3150800A71041F6713203F51C33DA63012203F500535F
S3150800A720DA6070470090005041F671320121064BFD
S3150800A730DA6303F50052D1600022DA634FF48032FF
S3150800A740A3F518339A66704700000350013831287C
S3150800A7509ABF024B185C0020704700BF90710A0828
S3150800A760122801D0142804D1022904D0032908BFCD
S3150800A7700121084670470021FBE70000021E30B59C
S3150800A7804FF000000CBF1025042547F6077408494A
S3150800A79052B9831D51F82330234023B10130854235
S3150800A7A0F6D14FF0FF3030BD00F11603F2E700BFD7
S3150800A7B00080035010B5C2F30623044602F00702D0
S3150800A7C041B942EA03220B4B42F44022063443F8CD
S3150800A7D0242010BD18461146FFF7C2FF0146184649
S3150800A7E0FFF7B4FF034B41EA0020163443F8240070
S3150800A7F0EFE700BF008003500A4392B20021FFF73B
S3150800A800D9BF3AB122F0030202F1A04202F5603242
S3150800A81009B9106070470002FBE74FF050234FF468
S3150800A82000321A6770470000014BD3F8940070474E
S3150800A83000400050436813B9416070475B685A6826
S3150800A840012AFBD159607047836813B98160704744
S3150800A8505B685A68012AFBD159607047C369032BA4
S3150800A8609FBF00EB83020133D160C3617047C369A0
S3150800A87010B5042B15D84FF09842116CC902FCD5B7
S3150800A88004339B00136503684FF0984413604368CC
S3150800A890136083681360002300F10C02C1698B42C0
S3150800A8A000D310BD52F8041B01332160F6E70000FF
S3150800A8B04FF48032064B5A6603F5E6239B69C3F3C9
S3150800A8C08512827003F03F021B0B427003707047BB
S3150800A8D00090005040F6B732064B5B689BB2934235
S3150800A8E09FBF4FF47A72B3FBF2F3034AD05C88BF7A
S3150800A8F0002070470080E00FC2710A08054B9A686D
S3150800A9009107FCD45A689207F9D4DA69002AF6D175
S3150800A910704700BF00800A5008B5FFF7EFFF012215
S3150800A920024B03F580514A601A6108BD00800A503F
S3150800A930074B5A68012A0AD15A68D20702D5DA693A
S3150800A940002AF9D102221A610122024B5A60704785
S3150800A95000800A5000A00A5010B5064CFFF7CEFF3B
S3150800A9606368012B03D1FFF7E3FFFFF7C7FF0378FF
S3150800A970E36010BD00800A50E8B94A680B7812B146
S3150800A980127843EAC2034A78002A14BF0222002238
S3150800A99013438A6812B1127843EA82138A78002A26
S3150800A9A014BF042200221343CA6812B1127843EA7C
S3150800A9B04223014A9364704700800A5008B9014B44
S3150800A9C05964704700900A5008B9014B596470479A
S3150800A9D000A00A5008B9014B1964704700A00A5034
S3150800A9E010B9024B186C70470020704700800A5057
S3150800A9F048B911B1012903D07047044BD86C704788
S3150800AA00024B186D70470020704700BF00800A503F
S3150800AA1040B911B1012903D07047034BDA64704776
S3150800AA20014B1A65704700BF00800A5038B50446C6
S3150800AA30054D8EF0C8F90FCC0FC594E8030085E8DC
S3150800AA400300002038BD00BFD08E002047F6FF73F4
S3150800AA509A42F0B563D0022963D8334BCF0003EB93
S3150800AA60C10013F831108478012913D10025C37861
S3150800AA701B1B9D4202D3E018C0B2F0BD591B4668A5
S3150800AA80A3EB510136F911609642D4BF0D4601F188
S3150800AA90FF33EEE740680028EFD0B0F90010914286
S3150800AAA004DBB0F902109142B8BF114682883B44D4
S3150800AAB0FF2A19BFC8222826B0F90620B0F908606F
S3150800AAC0A2EB01020CBF0125002592FBF6F25F7886
S3150800AAD02A447B1E934228BF13464FF47A7E00EB26
S3150800AAE0C305AE68EA88AC4611FB02621E4622EA36
S3150800AAF0E272013302F5FA729F42B2FBFEF204D902
S3150800AB00BCF80CC008359445EBD200EBC60080882B
S3150800AB10904228BF1046A04238BF2046ACE7FF2027
S3150800AB20ABE70020A9E700BFD08E00200229F0B5C8
S3150800AB3053D82B4800EBC10410F83110636801297B
S3150800AB400FD1E078A478904294BFC4EB0001C4EB1F
S3150800AB500201001BCAB28242C8BF002233F91200A2
S3150800AB60F0BD002B39D0A178914202D3B3F9020087
S3150800AB70F6E7E178B3F900009142F1D9998864784B
S3150800AB80A1F1FF06013C714203F10405E4B27141EB
S3150800AB9003F10C071FFA82FCCEB2B44216D805EBB5
S3150800ABA0C1014FF47A756A43B1F902404968521AED
S3150800ABB004EBD47102EB610292FBF4F29042CFDB14
S3150800ABC0B3F902009042CBDC10B2C9E737F831E09E
S3150800ABD04E1CE645E3D33146DEE70248C0E700BF30
S3150800ABE0D08E00200080FFFF0148FFF71FBF00BF7F
S3150800ABF000870A0800487047080100207FB502222E
S3150800AC00084B0949CDE901234FF00073CDE9031339
S3150800AC10072301A94FF0FF3005938EF0C8FA07B055
S3150800AC205DF804FB006A1800000206006FF00402D3
S3150800AC30502110B50A480B4C12F0800FD3B21BBF37
S3150800AC4003F00F03043BA3181B1802F101020CBF03
S3150800AC5083F8001319764C2AEED1002010BD00BFE8
S3150800AC6000ED00E000E100E00CF0BABA38B500F0FB
S3150800AC7073FA0446E0B900F051FB4FF416734343E8
S3150800AC800C4803F5742303F23F23B3FBF0F30A4A97
S3150800AC900A4913600A220D680948013A12F0FF02B0
S3150800ACA040F8043BF9D103EBC3022B4413440B6071
S3150800ACB0204638BD40420F00248F0020F08E002029
S3150800ACC0F48E0020012208B5034B1A7000F0FFFA33
S3150800ACD0024B186008BD00BFEC8E0020208F0020B4
S3150800ACE0F8B5144C237823B300F0F1FA124B134D40
S3150800ACF01B68134EC01A012838BF0120114B124F8A
S3150800AD0018602B7856F8232046F82300111A3A685B
S3150800AD100E48521A0A213A600932B2FBF1F201339F
S3150800AD20DBB20260B3FBF1F201FB12332B70002396
S3150800AD302370F8BDEC8E0020208F00201C8F002089
S3150800AD40F48E0020E88E0020F08E0020248F00204C
S3150800AD50BFF34F8F0549064BCA6802F4E0621343F6
S3150800AD60CB60BFF34F8F00BFFDE700BF00ED00E0EB
S3150800AD700400FA0508B5FFF7EBFF08BD034B1B787F
S3150800AD80002B14BF01200220704700BF348F00201B
S3150800AD900329F8B598BF124B05460E468CBF00240A
S3150800ADA05C5C032805D8DFE800F002080B0E44F0C7
S3150800ADB002040C4B1F684FB9F8BD44F00804F8E7C5
S3150800ADC044F02004F5E744F08004F2E77B681A684B
S3150800ADD0144203D0314628465B6898473F68EAE73D
S3150800ADE0C5710A08308F002000292DE9F34114BFE8
S3150800ADF00121FF21254A00F1FF30135C0B4413544F
S3150800AE003AD0234E3278012A36D9FFF7B7FF012800
S3150800AE10044634D81F4FFFF745FA3B781BB31E4D3F
S3150800AE202B781BB901222A701C4A1370DFF8708030
S3150800AE3098F8003033B1019000F07EF800230198AD
S3150800AE4088F80030FFF732FA012000F099F8FFF78A
S3150800AE5029FA2B782BB1019000F09CF80023019871
S3150800AE602B7000233B70FFF721FA3078A04203D0FD
S3150800AE702146FFF78DFF347002B0BDE8F081032A42
S3150800AE80F3D10228F1D100F0A9F8EEE7348F0020BB
S3150800AE90288F00202E8F0020298F00202D8F00203C
S3150800AEA02A8F002010B50446FFF7FCF9002C14BFC2
S3150800AEB00121FF21064A13780B44DBB21370B3FA5B
S3150800AEC083F3044A5B091370BDE81040FFF7EEB937
S3150800AED0378F0020368F002038B541600446FFF7CB
S3150800AEE0E1F9054621460448FDF724FE2846BDE853
S3150800AEF03840FFF7DBB900BF308F002010B5094B8B
S3150800AF001B786BB1084C237853B100F043F8002343
S3150800AF10064A237013700123054A1370054A1370F5
S3150800AF2010BD00BF288F00202D8F00202E8F0020F7
S3150800AF302B8F00202C8F002038B50D4B1B7873B152
S3150800AF400C4C23788BB90C4B0C4D9A6D12F4803F40
S3150800AF5006D0DB6D9B0703D54FF48033AB6238BD53
S3150800AF60FFF7B0FE4FF48033AB6200232370F6E799
S3150800AF703D8F00203C8F00200040005A0050005AA8
S3150800AF80034B1B780BB10CF049B90120704700BF81
S3150800AF903D8F002008B5FFF7ABF9094A0949136F39
S3150800AFA0096823F007030B431367074B1B781BB18C
S3150800AFB04FF48032054B9A62BDE808400CF01CB885
S3150800AFC000800050388F00203D8F00200060005A16
S3150800AFD00122014B1A7070473D8F00207047000010
S3150800AFE030B50F4C41612368ABB92060836011E02E
S3150800AFF0891A41619A681D462AB113465A698A42D6
S3150800B000F6D955B11A461346A860836013B15A6932
S3150800B010511A596130BD0025F0E72060F5E700BFF9
S3150800B020548F002010B500F0B9FA0A4C0A4B19687B
S3150800B0302368C31A01B10BB9206010BD4A699A4248
S3150800B0403ABF9B1A0022D21A4A6128BF0023896890
S3150800B050F0E700BF408F0020548F002038B5134D0D
S3150800B0602B685B6993B1124A022014681C4400F0ED
S3150800B070A1FA204600F0A8FA00230E492A680B70A8
S3150800B080D088800709D501230B7038BD022000F04F
S3150800B09091FA022000F0E6FAEEE79268002AF4D068
S3150800B0A050690344012BEBD9EFE700BF548F00200A
S3150800B0B0408F0020488F002070B516469DF8142052
S3150800B0C0C0E903360271049ABDF8183002600022FE
S3150800B0D0C380826004460D4600F060FA3044A061E1
S3150800B0E03DB9E368656113B120462168984796B172
S3150800B0F03546FFF7D7F80646FFF794FF2946204658
S3150800B100FFF76EFF054B1B68A34201D1FFF7A6FFA9
S3150800B1103046FFF7CBF8002070BD00BF548F0020E3
S3150800B12000220C490B687BB183420AD183687AB145
S3150800B130936083681BB15A6941690A445A610020C1
S3150800B14070471A469B68EEE70028EFD00220704742
S3150800B1500B60EEE7548F002070B5FFF7AAF8144E7F
S3150800B16005463478FCB9134B1C60134B1C60134B13
S3150800B1701C8000F0E1F9012000F01CFA00F0A5FAA5
S3150800B1800F4B0246186020B92846FFF798F8232087
S3150800B19070BD234640F2E7310A4899F0B1FC0A4BE4
S3150800B1A01860012333702846FFF789F80020EFE777
S3150800B1B03E8F0020548F0020408F00204A8F0020A9
S3150800B1C0508F002018FCFFFF448F00202DE9F04126
S3150800B1D00546F8B1FFF766F80F4F0646FFF722FF58
S3150800B1E02846D7F80080FFF79BFF044628B130466B
S3150800B1F0FFF75CF82046BDE8F081A8453B6803D117
S3150800B20023B1FFF72BFFF2E7002BF0D1022000F065
S3150800B21013FAECE72224EDE7548F002070B586B0C8
S3150800B22015461E460446059180B1FFF7CFFFBDF8C7
S3150800B2302C30002202939DF828302046CDE9006381
S3150800B24005992B46FFF738FF06B070BD2220FBE7AD
S3150800B25038B50C46054698B191B100230B70FFF737
S3150800B26028F80121074B1B680BB122781AB1FFF7A2
S3150800B27026F8002038BDAB4214BF9B682170F3E75F
S3150800B2802220F7E7548F0020F0B51F46002387B029
S3150800B2900D46164604468DF81730A0B10DF1170174
S3150800B2A0FFF7D6FF9DF817207AB9BDF8343029463E
S3150800B2B002939DF830302046CDE900733346FFF7F8
S3150800B2C0FBFE07B0F0BD2220FBE70320F9E738B5FF
S3150800B2D0FEF7EFFF054600F061F904462846FEF73B
S3150800B2E0EEFF204638BD000070B5FEF7E2FF0646C1
S3150800B2F000F054F9084B04461D880120ADB200F051
S3150800B300B9F918B100F04AF9044601353046FEF796
S3150800B310D6FF2046294670BD4A8F0020014B186883
S3150800B320704700BF508F002070B50C4B0D461B6848
S3150800B330834211D340F2E73100248C462146084B5C
S3150800B3404FF47A721E680023E0FB06C1604699F046
S3150800B350D7FB2860204670BD2120FCE7448F0020DB
S3150800B360508F002010B50F4B1A689AB14FF47A71B6
S3150800B370531E1342A0FB01010ED1B2FA82F2C2F1AA
S3150800B3801F04531CD243E04001FA03F3184321FA81
S3150800B39002F20243104610BD002399F0B1FB0246A3
S3150800B3A0F8E700BF508F0020164B70B58342164B46
S3150800B3B015468B4124D3154B1A680AB34FF47A768F
S3150800B3C0A0FB0603541E144006FB013111D1B2FA44
S3150800B3D082F3C3F11F025E1CDB4301FA06F6D04076
S3150800B3E021FA03F330431843D140C5E9000120464A
S3150800B3F070BD002399F084FB0024C5E90001F6E737
S3150800B4002124F4E7EFA7C64B37894100508F002067
S3150800B410C2072DE9F34704460BD53F4A1388013383
S3150800B4209BB21380FFF7FEFD3C4B1B680BB1FFF781
S3150800B43015FEA3076DD5FEF73CFF002605463746E1
S3150800B440FFF7F0FDB146DFF8D480D8F800400CB11C
S3150800B45063698BB10022324B012F1A7002D1022E7A
S3150800B46008BF1F70002C44D0FFF7F8FD284602B02D
S3150800B470BDE8F047FEF723BF23461A7921799142A2
S3150800B48088BF1C469B6813B15A69002AF5D028461E
S3150800B490FEF715FF256985B300F080F8A269861ABC
S3150800B4A0F317B54279EB030328DA23691344A3613A
S3150800B4B00123226982B17BB9A91B0191FEF7F9FE26
S3150800B4C0824601992046FFF78BFDA36922695046FB
S3150800B4D01344A361FEF7F3FEE368E688013713B168
S3150800B4E0204621689847FEF7E4FE0546FFF79AFDD1
S3150800B4F0ABE7022000F0A0F8B8E72E46FEF7D9FE23
