S0260000636869702D65667233322D6C696768742D7377697463682D6578616D706C652E7333373E
S315080060000000042031C701082DC70108790E0608CB
S31508006010BDF000082DC701082DC701082DC70108C6
S315080060202DC701082DC701082DC70108011402084C
S315080060302DC701088C000020A1130208517A010817
S315080060407DBB00082DC701082DC701082DC701080B
S315080060502DC701082DC701082DC701082DC701083E
S315080060602DC701082DC701082DC70108759A000814
S315080060702DC701082DC701082DC701082DC701081E
S315080060802DC701082DC701082DC701082DC701080E
S315080060902DC7010871C500082DC701082DC70108BD
S315080060A02DC7010809C70008E1C600082DC7010861
S315080060B02DC70108CDB80A08C5C20A087DC20A0854
S315080060C079C20A0899BA0A08C1C20A0881C20A0826
S315080060D099C20A0885C20A0825C30A0805C30A0818
S315080060E02DC701082DC701082DC701082DC70108AE
S315080060F05DCB01082DC701082DC701082DC701086A
S315080061002DC701082DC701082DC701082DC701088D
S315080061102DC701082DC701082DC701082DC701087D
S315080061202DC701082DC701082DC701082DC701086D
S315080061302DC701082DC701082DC701082DC701085D
S315080061402DC70108FDCC01082DC7010825FA00084E
S31508006150C1A00A082DC70108F57F0A08FB7F0A08AF
S315080061602DC701082DC701082DC701082DC701082D
S3150800617010B5054C237833B9044B13B1044800E035
S3150800618000BF0123237010BD580A0020000000003C
S315080061902455110808B5034B1BB10349034800E011
S315080061A000BF08BD000000005C0A00202455110845
S315080061B0A3F5803A704700BF174B002B08BF134B57
S315080061C09D46FFF7F5FF00218B460F461348144AF4
S315080061D0121AA9F062FA0E4B002B00D098470D4B05
S315080061E0002B00D098470020002104000D000D4820
S315080061F0002802D00C4800E000BFA9F0B9F9200039
S31508006200290003F071FBA9F029F800BF0000080077
S31508006210000000000000000000000420580A0020CA
S31508006220945402200000000000000000002070477F
S31508006230704770472D2070472D2070470020704703
S3150800624070476C207047012070470000044A0260BE
S31508006250044A0260044A0260044A0260704700BFAA
S31508006260F899100800100B08A80F0B086C0F0B08FC
S3150800627010B50446104B036003F13402026103F1C2
S315080062805402026203F16802426203F17C028262EE
S315080062909033C36244303DF01DFB084BE362084B64
S315080062A0A362084B6362084B2362084B2361084BC1
S315080062B02360204610BD00BF481C10084C100B0870
S315080062C0EC0F0B08940F0B08580F0B081C0F0B0844
S315080062D03C0F0B0838B50546A0F12C04154B40F8C1
S315080062E02C3C03F1340240F81C2C03F1540240F80C
S315080062F00C2C03F1680240F8082C03F17C0240F8E4
S31508006300042C9033E36218303DF0E4FA0A4BE3625A
S315080063100A4B45F8043C0A4B45F8083C094B45F836
S315080063200C3C094B45F81C3C084B45F82C3C2046D0
S3150800633038BD00BF481C10084C100B08EC0F0B08A2
S31508006340940F0B08580F0B081C0F0B083C0F0B0873
S3150800635038B50546A0F12804144B40F8283C03F14B
S31508006360340240F8182C03F1540240F8082C03F1C3
S31508006370680240F8042C03F17C02A2629033436061
S315080063801C303DF0A7FA0A4B6B600A4BA3620A4B16
S3150800639045F8043C094B45F8083C094B45F8183CB8
S315080063A0084B45F8283C204638BD00BF481C100855
S315080063B04C100B08EC0F0B08940F0B08580F0B0822
S315080063C01C0F0B083C0F0B0838B50546A0F1240432
S315080063D0134B40F8243C03F1340240F8142C03F123
S315080063E0540240F8042C03F16802626203F17C024D
S315080063F042609033836020303DF06CFA094BAB6005
S31508006400094B6B60094B6362094B45F8043C094B21
S3150800641045F8143C084B45F8243C204638BD00BFD7
S31508006420481C10084C100B08EC0F0B08940F0B08AF
S31508006430580F0B081C0F0B083C0F0B0838B5054600
S31508006440A0F12004124B40F8203C03F1340240F836
S31508006450102C03F15402226203F16802426003F130
S315080064607C0282609033C36024303DF033FA094BD6
S31508006470EB60094BAB60094B6B60094B2362094B18
S3150800648045F8103C084B45F8203C204638BD00BF6F
S31508006490481C10084C100B08EC0F0B08940F0B083F
S315080064A0580F0B081C0F0B083C0F0B0838B5054690
S315080064B00446124B40F8103C03F1340244F8102904
S315080064C003F15402226203F16802626203F17C025C
S315080064D0A2629033E36234303DF0FCF9084BE36284
S315080064E0084BA362084B6362084B2362084B23617F
S315080064F0084B45F8103C204638BD00BF481C10081C
S315080065004C100B08EC0F0B08940F0B08580F0B08D0
S315080065101C0F0B083C0F0B08032809D8DFE800F00E
S31508006520020A06040448704704487047044870473E
S315080065300448704704487047080C0B08F40B0B080E
S31508006540FC0B0B08D80B0B08E40B0B0805280ED818
S31508006550DFE800F0030F0507090B074870470748EF
S315080065607047074870470748704707487047074805
S3150800657070470748704700BF5C0C0B08240C0B08D3
S315080065803C0C0B08500C0B0844DF0F08D80B0B0803
S31508006590180C0B0838B5164BD3E88F3F13F0010FCC
S315080065A001D0144838BD1248A8F05EF90028F8D082
S315080065B0104C114B2360114B2360114B236020466E
S315080065C0104B40F8043B62252A460021A9F065F8DD
S315080065D02A46002104F16600A9F05FF80448A8F0ED
S315080065E04FF9094A09492046A8F037F9D9E700BF03
S315080065F0740A0020780A00206C0F0B08A80F0B08F5
S3150800660000100B08F8991008000000204D620008D9
S31508006610012800D070474FF6FF739942FAD130B57A
S3150800662083B0FFF7B7FF014601248DF80440002325
S31508006630ADF806302348244A02600471C38031222B
S315080066408260C3608DF80040ADF802301F4D0561C9
S315080066500475C3828261C3611D4A02621D4A426291
S315080066601D4A82621D4AC2621D4A026002F1340551
S31508006670056102F15405056202F16805456202F1F9
S315080066807C0585629032C2620463416381634FF080
S31508006690FF32C26343648364A0F84C3003654365E4
S315080066A080F8583080F85C3080F8843080F8A5305F
S315080066B080F8A8300164C3630A4A0B49A8F0CDF8EC
S315080066C003B030BD300D00203C0F0B081C0F0B0823
S315080066D0580F0B08940F0B08EC0F0B084C100B08FF
S315080066E0481C1008000000207162000810B584B02C
S315080066F00C4600230093164B164A10210A2011F067
S31508006700B7FE154B186090B1144B0293144B0193C6
S3150800671001230093104B4FF480621249204612F071
S3150800672041FD114B186050B1002004B010BD0F4850
S315080067305AF062FA40F2017000F0F6FBE4E70C4802
S315080067405AF05AFA40F2027000F0EEFBECE700BF8E
S31508006750DC0C00203C0C00202C0C0020740B0020C4
S31508006760E80D0020900C0B08300C00206C0C0B0870
S31508006770940C0B0830B5A7B004460D4629B1334B27
S315080067801D6033485AF038FA09E032485AF034FAAC
S315080067902F2000F0C9FBF2E70A2012F00DFF04F0E3
S315080067A0D1FF0028F8D02C485AF026FA2B4826F0B4
S315080067B0C7FB2B4B0093234600220121294813F0DF
S315080067C055FC294B186060B3284B009323460122D9
S315080067D00A21274813F04AFC264B186048B3264975
S315080067E026485AF009FA03F0DEF82549254803F049
S315080067F0F7F858F033FB0368D3F88430984705ABAD
S3150800680003938123049330F0A7FE03A930F04EFECC
S31508006810B8B903AB93E803006BF094FF002027B0E8
S3150800682030BD19485AF0E8F940F2047000F07CFBD4
S31508006830CAE716485AF0E0F940F2047000F074FB13
S31508006840CDE713485AF0D8F9E8E700BF700B0020E7
S31508006850CC0C0B08B00C0B08E00C0B08300D002014
S31508006860C56B0008F40C0B08340C00207569000889
S31508006870180D0B086C0B0020400D0B084C0D0B086F
S31508006880F4ED0F08500B0020FC0C0B08240D0B0828
S315080068906C0D0B0810B52E485AF087FCC8B92D4B5D
S315080068A01B78022B38D02C4B1B6813B1DB7D002BD1
S315080068B02DD12A4B1B78002B39D0294B1B78002B5E
S315080068C035D0284B1B785BB30121274803F076F8AF
S315080068D022E0264C20465CF0DAFF204B1870204652
S315080068E05CF0E6FF1E4B1870637C042B14BF002374
S315080068F001231C4A137020465CF094FF003818BF29
S3150800690001201B4B187012485AF059FCC7E7FA22A7
S315080069101146154803F0A2F8134803F075F810BDA0
S31508006920322240F2B631104803F098F8F4E7104BDB
S315080069301B782BB1642211460B4803F08FF8EBE75E
S3150800694040F2B6323221084803F088F8E4E700BF7F
S3150800695048A00120E81D0020700B0020380C0020FC
S31508006960480B0020680B0020500B0020B8F20120CD
S31508006970390C002008B5FFF78DFF08BD00B583B0B8
S3150800698000220092134603210948006813F08AFB87
S3150800699028B1084B00221A7003B05DF804FB0648BC
S315080069A05AF02AF940F2067000F0BEFAF1E700BF85
S315080069B0340C00203A0C0020840D0B0810B582B068
S315080069C00446114B186813F0FBFC78B9642300934E
S315080069D00023224604210C48006813F063FB0128B3
S315080069E00AD10A4B01221A7002B010BD08485AF0A3
S315080069F003F9FFF7C3FFE9E706485AF0FDF840F246
S31508006A00057000F091FAECE7340C00203A0C0020EF
S31508006A109C0D0B08B80D0B080388012B2BD110B55C
S31508006A20154B1B781BB1154A1278012A05D01BB1E4
S31508006A30124B1B78022B17D010BD40F6B831104800
S31508006A405AF0DAF840F6B830FFF7B8FF0B4B0222D7
S31508006A501A700C4C0021204602F0B0FF4FF4FA7170
S31508006A60204603F001F8E7E7044B00221A700648AF
S31508006A706DF0F4F9E0E770473A0C0020E81D0020B5
S31508006A80D40D0B08500B002010F3012010B5037924
S31508006A90012B0CD01E4B1B781BB11E4A1278012AFB
S31508006AA015D01BB11B4B1B78022B27D010BD184BDA
S31508006AB01B78002BFAD1174B1B78002BF6D140F622
S31508006AC0B830FFF77BFF134B01221A70EEE7FFF78A
S31508006AD055FF104B00221A700F485CF0D8FE48B9D3
S31508006AE00D4C012120465CF085FE002120465CF015
S31508006AF089FEDBE709485AF07FF8D7E7FFF73EFF3C
S31508006B00044B00221A7006485AF076F8CEE700BF02
S31508006B103A0C0020E81D0020B8F20120140E0B08DC
S31508006B20540E0B0810B582B00B4B1C6812F024FCEF
S31508006B300246002300930121204613F0B3FA0128E8
S31508006B4001D102B010BD05485AF056F840F205705A
S31508006B5000F0EAF9F5E700BF6C0B0020740E0B088D
S31508006B6010B582B0144B1B6813B304461AF0C8FB61
S31508006B7080B10023019301AA21460F48006811F04D
S31508006B804FFE019B6BB14FF0E0234FF08052C3F8E4
S31508006B90042D06E00023012221460748006811F06B
S31508006BA047FD08B102B010BD04485AF025F8F9E7C8
S31508006BB003485AF021F8F5E72C0C00208C0E0B0838
S31508006BC0BC0E0B0800B585B00123ADF80030019066
S31508006BD0034B03936846FFF7C3FF05B05DF804FB54
S31508006BE0196A000808B5CB6813B10846984708BD66
S31508006BF001485AF001F8FAE7E40E0B0810B5044606
S31508006C00124B036003F13402026103F1540202627B
S31508006C1003F16802426203F17C0282629033C36226
S31508006C2044303CF057FE0A4BE3620A4BA3620A4B18
S31508006C3063620A4B23620A4B23610A4B2360B8211D
S31508006C402046A7F00FFE204610BD00BF481C1008BE
S31508006C504C100B08EC0F0B08940F0B08580F0B0879
S31508006C601C0F0B083C0F0B0838B50546A0F12C0481
S31508006C70174B40F82C3C03F1340240F81C2C03F166
S31508006C80540240F80C2C03F1680240F8082C03F172
S31508006C907C0240F8042C9033E36218303CF01AFE6C
S31508006CA00C4BE3620C4B45F8043C0C4B45F8083C8E
S31508006CB00B4B45F80C3C0B4B45F81C3C0A4B45F86E
S31508006CC02C3CB8212046A7F0CDFD204638BD00BF94
S31508006CD0481C10084C100B08EC0F0B08940F0B08F7
S31508006CE0580F0B081C0F0B083C0F0B0838B5054648
S31508006CF0A0F12804164B40F8283C03F1340240F86A
S31508006D00182C03F1540240F8082C03F1680240F8E5
S31508006D10042C03F17C02A262903343601C303CF0E1
S31508006D20D9FD0C4B6B600C4BA3620C4B45F8043C2D
S31508006D300B4B45F8083C0B4B45F8183C0A4B45F8F5
S31508006D40283CB8212046A7F08DFD204638BD00BF57
S31508006D50481C10084C100B08EC0F0B08940F0B0876
S31508006D60580F0B081C0F0B083C0F0B0838B50546C7
S31508006D70A0F12404154B40F8243C03F1340240F8F2
S31508006D80142C03F1540240F8042C03F168026262E1
S31508006D9003F17C0242609033836020303CF09AFD18
S31508006DA00B4BAB600B4B6B600B4B63620B4B45F8A5
S31508006DB0043C0B4B45F8143C0A4B45F8243CB821D7
S31508006DC02046A7F04FFD204638BD00BF481C1008D6
S31508006DD04C100B08EC0F0B08940F0B08580F0B08F8
S31508006DE01C0F0B083C0F0B0838B50546A0F120040C
S31508006DF0144B40F8203C03F1340240F8102C03F100
S31508006E005402226203F16802426003F17C02826046
S31508006E109033C36024303CF05DFD0B4BEB600B4BAD
S31508006E20AB600B4B6B600B4B23620B4B45F8103C6E
S31508006E300A4B45F8203CB8212046A7F013FD20460A
S31508006E4038BD00BF481C10084C100B08EC0F0B0887
S31508006E50940F0B08580F0B081C0F0B083C0F0B0858
S31508006E6038B505460446144B40F8103C03F1340285
S31508006E7044F8102903F15402226203F1680262629F
S31508006E8003F17C02A2629033E36234303CF022FDC7
S31508006E900A4BE3620A4BA3620A4B63620A4B2362FC
S31508006EA00A4B23610A4B45F8103CB8212046A7F047
S31508006EB0D9FC204638BD00BF481C10084C100B08EA
S31508006EC0EC0F0B08940F0B08580F0B081C0F0B0838
S31508006ED03C0F0B0810B50446064B0360064B0360CF
S31508006EE0064B0360064B0360D021A7F0BBFC204687
S31508006EF010BD00BFF899100800100B08A80F0B0862
S31508006F006C0F0B0808B54FF6FF710120FFF780FBE1
S31508006F1008BD000008B50146024859F06DFE1AF092
S31508006F2029FAFEE758100B0808B5FFF7F3FF00002B
S31508006F30124A12F0070F1ED0D11D21F00701C1F524
S31508006F40084313440A460E48026000214160134470
S31508006F50083B23F007030B48036059601960991A28
S31508006F6051601360084B1960084B1960084B4FF0C5
S31508006F7000421A6070474FF40843E4E7F01D00200A
S31508006F8004A60020EC1D0020F8A50020F4A500208A
S31508006F90F0A5002010B500B3044612F0E5F954F840
S31508006FA0043C0F4A1268134209D054F8081C69B108
S31508006FB01AF0E0F90B490C48A8F00EFFFEE71AF0A4
S31508006FC0D9F90A490848A8F007FFFEE723EA0203A9
S31508006FD0A3F1080412F07AFA00E00024204610BD56
S31508006FE0F0A50020D4100B08B8100B0888100B0861
S31508006FF0014B1868704700BFF4A50020014B1868BC
S31508007000704700BFF8A5002008B51AF0C3F8034B6F
S315080070101A68034B1A601AF0CBF808BDF4A50020CD
S31508007020F8A50020F8B5074612F09EF9174B1B681D
S3150800703093B14FF0FF3600252C4604E01B68144A2E
S3150800704012689A420CD001345A68AA4200D91546E9
S31508007050B242F3D21646F1E74FF0FF3600252C462A
S3150800706012F034FA7D60BE60FC601AF093F8094BA2
S315080070701B683B60084B1B687B61084B1B68BB6140
S31508007080074B1B683B611AF093F8F8BD04A600206D
S31508007090EC1D0020F4A50020FCA5002000A6002079
S315080070A0F8A5002010B588B00446164B1B6893B1A6
S315080070B0144B1A461B68A342FBD351685018A042CA
S315080070C00DD06168601883420ED02360944200D0C8
S315080070D0146008B010BD01A8FFF7A4FFE8E76068D0
S315080070E0014451601446ECE707480068834206D01D
S315080070F05B681944616013681B682360E6E72060D3
S31508007100E4E700BF04A60020EC1D002038B50446BD
S3150800711012F02AF93E4B1B68EBB13E4B1B681C422A
S315080071201CD1631E13F10A0F0BD804F1080214F0E0
S31508007130070F05D022F00703083393425AD91A4697
S3150800714082B912F0C3F900255AF03AFA15F0070F7A
S3150800715056D1284638BDFFF7EBFEDEE712F0B6F942
S315080071600025F1E72C4B1B68934202D32B490C6888
S3150800717005E012F0ABF90025E6E721461C466368F0
S31508007180934202D22368002BF7D1214B1B68A342F6
S3150800719012D00D68083523680B6063689B1A102B9C
S315080071A012D9A01810F0070F0AD01AF0E3F81C49F4
S315080071B01C48A8F011FEFEE712F088F90025C3E77F
S315080071C043606260FFF76EFF626813490B689B1A9B
S315080071D00B60154909688B4201D213490B600D4BA8
S315080071E01B681343636000232360104A1368013346
S315080071F0136000E0002512F069F9002DA6D1A3E777
S315080072001AF0B8F80A490748A8F0E6FDFEE700BFF5
S31508007210EC1D0020F0A50020F4A5002004A60020FF
S31508007220F4100B08B8100B08F8A50020FCA50020E0
S3150800723030110B0838B501FB00F419B1B4FBF1F1B4
S3150800724081420AD12046FFF761FF054618B122465A
S315080072500021A8F022FA284638BD0025FBE70000E1
S3150800726080B338B50446A0F1080550F8043C164A20
S315080072701268134209D050F8081C69B11AF07AF856
S3150800728012491348A8F0A8FDFEE71AF073F8114949
S315080072900F48A8F0A1FDFEE723EA020340F8043CE4
S315080072A012F062F854F8041C0B4A13680B44136076
S315080072B02846FFF7F7FE094A13680133136012F0F0
S315080072C005F938BD704700BFF0A50020D4100B089B
S315080072D0B8100B0888100B08F4A5002000A600209B
S315080072E0F8B505460C46FFF755FED8B10746A4B1D2
S315080072F0A04201D12E461AE021460120FFF79AFF47
S315080073000646A0B13A46A74228BF22462946A8F013
S315080073109DF92846FFF7A4FF09E02846FFF7A0FFD6
S31508007320002604E021460120FFF784FF0646304682
S31508007330F8BD08B508F099FB0FF070FA59F050FC43
S3150800734008BD10B582B00022ADF8062003689C6817
S315080073500DF10603A047192802D020B1002000E04D
S31508007360012002B010BD0120FBE7052B01D8002043
S3150800737070472F2070470000014B0360704700BF1D
S3150800738090130B08024A0260024A0260704700BF67
S31508007390B4130B0890130B08024A0260024A0260F3
S315080073A0704700BFA0130B0894120B08024A02602C
S315080073B0024A0260704700BF70130B08A8120B0838
S315080073C0034A0260034A0260034A0260704700BF2C
S315080073D0C0B5100808B510083C130B08024A02602D
S315080073E0024A0260704700BFE8B810085C130B0831
S315080073F008B502F031FE08BD038848F2010293423F
S3150800740004D048F20202934212D0704790F908203D
S31508007410012AF6D110B5094859F0EEFB4FF0FCF8F1
S3150800742003685C690023064A40F6B831A04710BDD8
S3150800743090F90930012BE8D1ECE700BF70110B0871
S31508007440F1730008012800D0704708B54FF6FF739E
S31508007450994200D008BD0948094B0360094B0360EF
S31508007460002343608360C3600374436103764376F5
S31508007470054A0649A7F0F1F9ECE700BFC8A80020BD
S3150800748004130B08A095100800000020B530060864
S3150800749010B50446034B03603821A7F0E3F92046EC
S315080074A010BD00BF90130B0810B50446044B0360CB
S315080074B0044B03603821A7F0D5F9204610BD00BF5C
S315080074C0B4130B0890130B0810B50446044B03605D
S315080074D0044B03600421A7F0C5F9204610BD00BF80
S315080074E0A0130B0894120B0810B50446044B03604E
S315080074F0044B03600821A7F0B5F9204610BD00BF6C
S3150800750070130B08A8120B0808B5104B0360D0F8C7
S31508007510F4317BB9D0F8483173B9D0F804316BB976
S31508007520D0F8983063B9436D63B9036963B9084BFA
S31508007530036008BDA7F05EFEA7F05CFEA7F05AFE42
S31508007540A7F058FEA7F056FEA7F054FE50A710085D
S3150800755018120B0838B504460C4B036043688BB108
S31508007560437C4BB9C5683DB135B12B681B682846C5
S315080075709847284657F002FD0023E3606374237496
S3150800758023726360024B2360204638BD30671008BB
S3150800759004130B08406818B108B559F0C5FA08BDB8
S315080075A003207047406858B100B583B04FF0000C0F
S315080075B08DF807C032B159F089FA03B05DF804FBBB
S315080075C0032070470BB12F20F7E70DF10702F2E70A
S315080075D070B582B00446A54BD3E88F3F13F0010F70
S315080075E03FD0A34BD3E88F3F13F0010F47D0A14BF1
S315080075F0D3E88F3F13F0010F4FD09F4BD3E88F3F4F
S3150800760013F0010F67D09D4BD3E88F3F13F0010F9E
S3150800761000F0CF809A4BD3E88F3F13F0010F00F0AC
S31508007620DC80984BD3E88F3F13F0010F00F0EB8016
S315080076302369002B00F0F680236B002B00F0F780FF
S31508007640636B002B00F006818F4D2169284662F096
S31508007650A7FF284661F0B0FF002800F0598102B064
S3150800766070BD8248A7F000F90028BAD07F48A7F075
S3150800767007F9864A86498748A7F0EFF8B1E77C48B4
S31508007680A7F0F2F80028B2D07948A7F0F9F87F4AAF
S3150800769081498248A7F0E1F8A9E77648A7F0E4F817
S315080076A00028AAD07E4D7F4B2B607F4B2B60002392
S315080076B06B602B72EB602B616B61AB61EB612B62CC
S315080076C085F824306B48A7F0DBF8704A77492846D6
S315080076D0A7F0C3F891E76848A7F0C6F8002892D043
S315080076E06948734B036003238380C3800025856044
S315080076F0704B0360C56014230093022300F128022F
S3150800770000F12C0110304CF091FC2B46002B01DBCC
S31508007710013BFBE7684A142300930223111DA2F1DB
S3150800772018004CF083FC0023002B01DB013BFBE730
S31508007730624A282300930223111DA2F118004CF077
S3150800774075FC0023002B01DB013BFBE75C4A142395
S3150800775000930223111DA2F118004CF067FC0023C8
S31508007760002B01DB013BFBE7564A48230093022323
S31508007770111DA2F118004CF059FC0023002B01DB67
S31508007780013BFBE7504A2C2300930223111DA2F16B
S3150800779018004CF04BFC0023002B01DB013BFBE7F8
S315080077A03548A7F06DF8394A48493748A7F055F8DB
S315080077B029E73248A7F058F800283FF42BAF444D84
S315080077C0444B2B60444B2B602C48A7F059F82F4AA2
S315080077D042492846A7F041F81CE72948A7F044F88B
S315080077E000283FF41EAF3E4D3E4B2B603E4B2B60B0
S315080077F03E4B2B602248A7F043F8244A3C492846CA
S31508007800A7F02BF80DE71F48A7F02EF800283FF43D
S315080078100FAF1C48A7F034F81C4A36493648A7F07B
S315080078201CF805E71B4B354A5A60236104E72269B1
S315080078301A4B5B6833B1032000287FF410AF174B4F
S315080078402363FDE6154B0020187258745A60D860F9
S315080078501874F1E72569124B5B68002B50D003209A
S3150800786000287FF4FCAE0E4B6363EDE6C0A800204B
S31508007870BCA8002090A8002024A600201CA6002052
S3150800788010A600200CA6002028A600200000002034
S31508007890AD7300081C00002055750008080000207C
S315080078A094A80020C8120B0860AA10085579000889
S315080078B018120B0850A7100894A60020D8A6002076
S315080078C044A7002088A7002034A8002009750008CE
S315080078D020A6002094120B08A0130B089973000821
S315080078E014A600203C130B0808B51008C0B51008EC
S315080078F0C1730008DD7300080400002038A00120C9
S315080079000F4E33689B6A3046984775600020A7E794
S315080079100C4BE361236983B10B4A536000200028AE
S315080079207FF49DAE084B636153F00CFC2062074B55
S315080079306362074BA361002091E62F20EFE700BFA3
S3150800794094A8002028A6002014A6002004000020E1
S3150800795020A6002010B50446124B0360436823B1E5
S31508007960104B9B6A98470023636000222262E069F5
S3150800797018B157F003FB0023E3610022A261606996
S3150800798018B157F0FBFA0023636100222261E06810
S3150800799018B157F0F3FA0023E360034B236020463F
S315080079A010BD00BF60AA1008C8120B0810B5134B0B
S315080079B00360D0F8F431ABB90446D0F848319BB926
S315080079C0D0F8043193B9D0F898308BB9436D8BB998
S315080079D003698BB90A4B03604FF41A71A6F042FF8C
S315080079E0204610BDA7F006FCA7F004FCA7F002FC91
S315080079F0A7F000FCA7F0FEFBA7F0FCFB50A71008B9
S31508007A0018120B0810B50446144B0360436823B1DB
S31508007A10124B9B6A98470023636000222262E06942
S31508007A2018B157F0ABFA0023E3610022A26160693E
S31508007A3018B157F0A3FA0023636100222261E068B7
S31508007A4018B157F09BFA0023E360054B2360282101
S31508007A502046A6F007FF204610BD00BF60AA100802
S31508007A60C8120B0838B504460E4B036043688BB141
S31508007A70437C4BB9C5683DB135B12B681B682846B0
S31508007A809847284657F07AFA0023E360637423740C
S31508007A9023726360044B236014212046A6F0E2FE9D
S31508007AA0204638BD3067100804130B0808B502F0E5
S31508007AB02FFE08BD38B50446374938480BF0A6FAF4
S31508007AC0374D284659F098F82146364859F094F823
S31508007AD0284659F091F82FF03FFD034600B10433CC
S31508007AE018464EF01DFD2FF037FD4EF01DFC2E48B2
S31508007AF059F082F8002108464CF01AFA00B138BD50
S31508007B002A4B1B788BB300200028F8D12146284839
S31508007B105BF080FE274859F041FB274BD3E88F3F9F
S31508007B2013F0010F2AD0254D28465BF083FB244C21
S31508007B3025632046FFF74CFD214622486CF026FABD
S31508007B401C4C204659F03BFB00221F49204659F0A1
S31508007B5049FA1E4859F050F8204659F0EBFB002820
S31508007B60CDD1FFF7A3FF0020C9E7104D284659F0ED
S31508007B703BFCB0FA80F35B092B70C5E70E48A6F00C
S31508007B8073FE0028CFD00C48A6F07AFE104A114999
S31508007B900B48A6F062FEC6E78D3F0508853F050837
S31508007BA098110B08CC110B08D8110B0840A001201E
S31508007BB0B8F2012048A00120C4A80020C8A80020C7
S31508007BC02400002010F30120F9730008E8110B08BF
S31508007BD0000000208573000808B558F00BFD08BDA5
S31508007BE0B0F5803F2CBF0020012070474068E0B107
S31508007BF070B584B01D4600238DF80F30BAB1002346
S31508007C000293019302AB00932B8858F041FF044678
S31508007C10192800D030B9029E3046FFF7E1FF68B94F
S31508007C2000262E80204604B070BD032070472B889E
S31508007C300BB12F20F7E70DF10F02E0E7B6B2F0E738
S31508007C4010B50446054B0360054B0360054B0360FE
S31508007C500821A6F007FE204610BD00BFC0B51008D3
S31508007C6008B510083C130B0810B50446044B03600E
S31508007C70044B03600421A6F0F5FD204610BD00BFA5
S31508007C80E8B810085C130B0808B54FF6FF71012019
S31508007C90FFF7D8FB08BD0000024A0260024A0260EC
S31508007CA0704700BF04150B08F0140B0808B5034A03
S31508007CB002211D204CF0B2FA08BD00BFC0130B0804
S31508007CC008B5034A02211D204CF0A8FA08BD00BFDA
S31508007CD0D0130B0808B5044A02211D204CF09EFA61
S31508007CE0024BFF221A7008BDE0130B085C00002047
S31508007CF008B5038803B108BD102057F019F90246E4
S31508007D0030B10023036043608360C36001230380AE
S31508007D1006239360084B1B7843B1002306490B7072
S31508007D2053600649064859F06DFAE4E701235360A3
S31508007D3001490B70F5E700BFE4A800207187000829
S31508007D4048A0012001B300B585B00846002300937A
S31508007D500193029303938DF804200C4B994205D0A6
S31508007D600B4B98420AD005B05DF804FB012AF7D1FF
S31508007D70084B03936846FEF7F3FEF4E7064B0393B6
S31508007D806846FEF7EDFEEEE7704700BF8CED0F087C
S31508007D9074ED0F08F17C00088D6A000810B50446DA
S31508007DA0044B0360044B03600821A6F05BFD2046E4
S31508007DB010BD00BF04150B08F0140B08012800D0ED
S31508007DC070474FF6FF739942FAD130B585B00F4D1B
S31508007DD00023039302930E4B0193022300930D4B4A
S31508007DE00D4A0121284624F0BFFD0C4C22460C49B9
S31508007DF02846A6F032FD0B480B4B03600B4B03607D
S31508007E0022460B49A6F029FD05B030BDE8A800209A
S31508007E10357E0008C17C0008AD7C00080000002003
S31508007E20A5C9020804A90020F0140B0804150B08BC
S31508007E30997C000870B50446244A02211D204CF09E
S31508007E40EDF9237D224A13700B2B10D0204B1B789B
S31508007E50FE2B23D015D8022B32D84EF0DDFB036853
S31508007E605D6923461B4A41F28831A84770BDA37D48
S31508007E70194A02211D204CF0D1F9A27D144B1A7023
S31508007E80E4E7FF2B1CD14EF0C7FB03689B6922462B
S31508007E90104998470E4BFF221A70E7E74EF0BCFBD5
S31508007EA003689B690B4D2246294698474EF0B4FB5A
S31508007EB003685E6923462A464FF47A71B047D5E7C8
S31508007EC0064A02211D204CF0A9F9CFE7FC130B083E
S31508007ED05C000020D57C000814140B0868140B08F5
S31508007EE010B50C49FEF746FC28B900F053FC0446C9
S31508007EF048B9204610BD0446074858F07DFE20467E
S31508007F00FFF712F8F1E7054858F076FE2046FFF726
S31508007F100BF8EEE7E8A8002080140B08A0140B085D
S31508007F2030B585B004681148FFF7DAFFB0B9FEF737
S31508007F30F9FD0F4858F060FE4FF0FF3269462046BB
S31508007F4010F03CFD0128F7D169460848FEF74AFEBD
S31508007F5000226946204610F031FDF3E7054605483C
S31508007F6058F04AFE2846FEF7DFFFE0E704A900209E
S31508007F70D4140B08BC140B0808B50249FEF7B6FB67
S31508007F8008BD00BF217F000808B54FF6FF71012024
S31508007F90FFF714FF08BD00002DE9F04184B00F4635
S31508007FA016461D464468D0F80880A3B20093230CF1
S31508007FB0144A02211D204CF031F9072C04D0032C59
S31508007FC011D004B0BDE8F0812B780396029301978F
S31508007FD01FFA88F300934FEA18430B4A02211D2023
S31508007FE04CF01CF9EDE72B780396029301971FFADC
S31508007FF088F300934FEA1843044A02211D204CF0E7
S315080080000DF9DEE710150B0830150B0884150B085B
S3150800801070470120704704207047000000000000E8
S315080080209FED037B80ED007B00220272704700BF44
S3150800803000000000000000009FED037B80ED007B40
S3150800804000220272704700BF000000000000000016
S3150800805010B5044620220021A7F01FFB0023236148
S315080080606361A361204610BD002070470000000030
S315080080709FED037B80ED007B704700BFAFF3008068
S315080080800000000000000000012070470120704732
S31508008090024A0260024A0260704700BF306B10084D
S315080080A028170B08704710B540680468A468A047ED
S315080080B010BD08B540680368DB68984708BD08B571
S315080080C083683BB100225A6283681B8913F0400F0C
S315080080D000D18260406803681B69984708BD08B5E7
S315080080E0406803685B69984708BD70477047000099
S315080080F000228260024AC260024A8260704700BF5C
S31508008100C98100082181000800228260024AC260F3
S31508008110024A8260704700BFB58100083B810008AB
S31508008120012A02D1016000207047022AFBD0032AE7
S31508008130F9D0012AF7D10160F5E7012A02D10160D9
S3150800814000207047022AFBD0032AF9D0012AF7D16A
S315080081500160F5E7012A02D1016000207047022A72
S3150800816005D0032AF9D0012AF7D10160F5E70B6893
S315080081700360F2E7012A02D1016000207047022A53
S3150800818005D0032AF9D0012AF7D10160F5E70B6873
S315080081900360F2E7012A02D1016000207047022A33
S315080081A005D0032AF9D0012AF7D10160F5E70B6853
S315080081B00360F2E708B50B68024A012100204CF07B
S315080081C02DF808BDC8150B0808B5034A022100207A
S315080081D04CF024F808BD00BFE4150B0808B510B12B
S315080081E056F0CCFE08BD024A01214CF017F8F9E713
S315080081F0FC150B0810B584B0094B0193094B029383
S31508008200094BD3F85C320393084C01A9204620F0A9
S315080082105FFB074BE363074B636304B010BD00BF06
S31508008220801702206804022010230220F4EC0020A4
S31508008230C5970008DD8100080E4BD3E88F3F13F081
S31508008240010F01D00C48704710B50A48A6F00CFB80
S3150800825008B9094810BD084C084B2360084B236031
S315080082600448A6F00DFB074A07492046A6F0F5FA8A
S31508008270EFE700BF0CA9002010A9002028170B085B
S31508008280306B1008000000209180000808B5A6F0A1
S31508008290B1FF000008B5094BD3E88F3F13F0010F73
S315080082A009D10648A6F0E0FA28B105484DF0FCFFCA
S315080082B00248A6F0E5FAA6F09DFF00BF14A9002023
S315080082C018A9002008B50369B3F1FF3F02D00133AE
S315080082D0036108BDA6F08EFF10B582B00446194B9F
S315080082E003600190DB68984703E0101F03689B68EA
S315080082F09847A268231D9A4203D01046002AF4D153
S31508008300F4E723681B692046984723699BB92346E7
S315080083100D4A43F8042B5A689A420ED1616871B126
S315080083205A6862B14A6061681160002262605A60E8
S31508008330204602B010BDA6F05DFFA6F05BFFA6F0D2
S3150800834059FF00BFEC160B08B0160B0808B50369F1
S3150800835013B1013B036108BDA6F04CFF10B50446F6
S315080083600B4B036083686BB100225A6280684CF03D
S315080083703FF820B9A3681B8913F0400F02D0A06804
S315080083804CF02DF90023A360024B2360204610BD54
S3150800839064170B0844170B0810B504460D4B036009
S315080083A083686BB100225A6280684CF021F820B9C4
S315080083B0A3681B8913F0400F02D0A0684CF00FF990
S315080083C00023A360044B23600C212046A6F04AFA3A
S315080083D0204610BD64170B0844170B0810B582B069
S315080083E004461B4B03600190DB68984703E0101FA7
S315080083F003689B689847A268231D9A4203D01046D3
S31508008400002AF4D1F4E723681B69204698472369B4
S31508008410BBB923460F4A43F8042B5A689A4212D12D
S31508008420616891B15A6882B14A6061681160002238
S3150800843062605A6018212046A6F014FA204602B057
S3150800844010BDA6F0D7FEA6F0D5FEA6F0D3FE00BF57
S31508008450EC160B08B0160B0810B504460C4B40F882
S31508008460243B836813B103220146984704F114009C
S31508008470836813B1032201469847201D836813B108
S31508008480032201469847034B2360204610BD00BFD0
S31508008490A0170B0884170B0810B504460E4B40F8B6
S315080084A0243B836813B103220146984704F114005C
S315080084B0836813B1032201469847201D836813B1C8
S315080084C0032201469847054B236038212046A6F02B
S315080084D0C9F9204610BD00BFA0170B0884170B0862
S315080084E070B506460C68002C36D02546294B45F84B
S315080084F0803B294BC4F88030A86808B14EF026FAAC
S315080085000023AB60686808B14EF020FA00236B6060
S31508008510224BC4F88030A06C08B14EF017FA00233D
S31508008520A364251D1E4B6360AB686BB100225A62BB
S31508008530A8684BF05DFF20B9AB681B8913F0400FA4
S3150800854002D0A8684CF04BF80023AB60154B63606B
S315080085502360204656F012FD3468D4B12046124BEB
S3150800856040F8243B836813B103220146984704F177
S315080085701400836813B1032201469847201D8368B7
S3150800858013B1032201469847084B2360204656F04C
S31508008590F5FC70BD4C491008607410088C160B0861
S315080085A064170B0844170B08A0170B0884170B0849
S315080085B070B506460C68002C36D02546294B45F87A
S315080085C0803B294BC4F88030A86808B14EF0BEF944
S315080085D00023AB60686808B14EF0B8F900236B60F9
S315080085E0224BC4F88030A06C08B14EF0AFF90023D6
S315080085F0A364251D1E4B6360AB686BB100225A62EB
S31508008600A8684BF0F5FE20B9AB681B8913F0400F3C
S3150800861002D0A8684BF0E3FF0023AB60154B6360FC
S315080086202360204656F0AAFC3468D4B12046124B83
S3150800863040F8243B836813B103220146984704F1A6
S315080086401400836813B1032201469847201D8368E6
S3150800865013B1032201469847084B2360204656F07B
S315080086608DFC70BD4C491008607410088C160B08F8
S3150800867064170B0844170B08A0170B0884170B0878
S3150800868070B506460C68002C36D02546294B45F8A9
S31508008690803B294BC4F88030A86808B14EF056F9DB
S315080086A00023AB60686808B14EF050F900236B6090
S315080086B0224BC4F88030A06C08B14EF047F900236D
S315080086C0A364251D1E4B6360AB686BB100225A621A
S315080086D0A8684BF08DFE20B9AB681B8913F0400FD4
S315080086E002D0A8684BF07BFF0023AB60154B636094
S315080086F02360204656F042FC3468D4B12046124B1B
S3150800870040F8243B836813B103220146984704F1D5
S315080087101400836813B1032201469847201D836815
S3150800872013B1032201469847084B2360204656F0AA
S3150800873025FC70BD4C491008607410088C160B088F
S3150800874064170B0844170B08A0170B0884170B08A7
S3150800875010B50446044B0360044B03600421A6F0DD
S3150800876081F8204610BD00BF306B100828170B088B
S3150800877008B530B1034682680188044820F018FA23
S3150800878008BD034A01214BF049FDF9E7F4EC002046
S3150800879030160B0808B500220249034858F032FD86
S315080087A0002008BDF581000848A0012000B583B067
S315080087B0019183682BB1C36801A9984703B05DF896
S315080087C004FBA6F093F808B590F8343003B108BD59
S315080087D0012380F8343011461430FFF7E7FFF6E737
S315080087E010B5846814B1C468A04710BDA6F07EF819
S315080087F011461A4690F8343093B900B583B0012370
S3150800880080F83430049B33B18E211430FFF7CEFF45
S3150800881003B05DF804FB01AB0430FFF7E1FFF7E7AF
S31508008820704738B50446002383608B6833B10D461C
S3150800883002229847EB68E360AB68A360204638BD20
S3150800884038B50446002383608B6833B10D4602228F
S315080088509847EB68E360AB68A360204638BD000024
S31508008860002282600160024AC260024A8260704742
S31508008870E184000855810008002282600160024AEE
S31508008880C260024A82607047B18500087581000897
S31508008890002282600160024AC260024A8260704712
S315080088A0818600089581000838B504460023836050
S315080088B08B6833B10D4602229847EB68E360AB68D4
S315080088C0A360204638BD08B50146029852F065FDFA
S315080088D008BD00002DE9F043A1B006468846994632
S315080088E0ADF818200023ADF81A30062307930223A3
S315080088F0089301238DF82430382056F019FB0446D6
S31508008900002830D0289918A8FFF78BFF299914A8B2
S31508008910FFF796FF002512957F4B236020467F4B75
S3150800892040F8043B18A9FFF77CFF14A904F11400CA
S31508008930FFF786FF10A904F12400FFF7B5FF84F8B6
S315080089403450129B1BB1032210A908469847169B60
S315080089501BB1032214A9084698471A9B1BB1032288
S3150800896018A908469847002305930594002C57D064
S3150800897021460AA8FFF774FF04F124051CAF0AA9CB
S315080089803846FFF791FF02AB97E8030083E8030038
S3150800899095E8030087E8030093E8030085E80300E9
S315080089A01E9BAA681E92AB601F9BEA681F92EB602B
S315080089B01E9B1BB103223946384698470C9B1BB1B0
S315080089C003220AA9084698472A9B1D78942056F040
S315080089D0AFFA074620B12B46324621463BF0DCFC6F
S315080089E0002304930497EFB1002206A938463BF00A
S315080089F05DFF0546002878D0ADB92B9B1B788DF80E
S31508008A00383013B12B9B5B680F930EAA4146384644
S31508008A103CF046F8054630B900250595049502E070
S31508008A200B253EE00B25049C002C38D0002C36D0B4
S31508008A3026463B4B46F8803B3A4BC4F88030B06834
S31508008A4008B14DF083FF0023B360706808B14DF09C
S31508008A507DFF00237360344BC4F88030A06C08B1E6
S31508008A604DF074FF0023A364261D304B6360B36882
S31508008A706BB100225A62B0684BF0BAFC20B9B368F1
S31508008A801B8913F0400F02D0B0684BF0A8FD0023F5
S31508008A90B360274B63602360204656F06FFA0023C5
S31508008AA00493059CDCB1D4B120461C4B40F8243B0A
S31508008AB0836813B103220146984704F114008368BA
S31508008AC013B1032201469847201D836813B1032278
S31508008AD001469847104B2360204656F04FFA00236C
S31508008AE00593284621B0BDE8F08338463BF048FE9A
S31508008AF080B1CDF8009001224FF0FF33FFF7E3FE77
S31508008B00054600287FF478AF2A9938463BF02FFFB0
S31508008B10054671E703256FE784170B08A0170B08AE
S31508008B204C491008607410088C160B0864170B085B
S31508008B3044170B082DE9F0438FB004460D46164638
S31508008B401F460DF1140816994046FFF76AFE0DF107
S31508008B50240917994846FFF773FE00238DF8343029
S31508008B60189B03930DAB0293CDF80490CDF80080C3
S31508008B703B46324629462046FFF7ACFE04460B9B89
S31508008B801BB10322494648469847079B1BB1032257
S31508008B9005A90846984720460FB0BDE8F0830000AF
S31508008BA070B590B005461E4602230024ADF828404D
S31508008BB0ADF82A4006200B900C938DF83430ADF8AA
S31508008BC02A205D4B049305AB059306938DF81C404C
S31508008BD008945A4B0493ADF824208DF81C10942061
S31508008BE056F0A6F9044620B100232A4619463BF05A
S31508008BF0D3FB002303930394CCB100228DF83C20C9
S31508008C000AA920463BF052FE0546002854D07DB9F5
S31508008C1004A80E90049BDB6898470EA920463BF0F3
S31508008C20EBFE05460E9803681B69984700E00B257E
S31508008C30002C38D0002C36D02646414B46F8803BCF
S31508008C40404BC4F88030B06808B14DF07FFE002371
S31508008C50B360706808B14DF079FE002373603A4B33
S31508008C60C4F88030A06C08B14DF070FE0023A364F0
S31508008C70261D364B6360B3686BB100225A62B06832
S31508008C804BF0B6FB20B9B3681B8913F0400F02D02E
S31508008C90B0684BF0A4FC0023B3602D4B63602360DF
S31508008CA0204656F06BF900230393244B049304A83B
S31508008CB00290DB68984718E020463BF061FD70B1EA
S31508008CC0009601224FF0FF33FFF7FDFD0546002809
S31508008CD09DD10FA920463BF04AFE054697E7032596
S31508008CE095E7101F03689B689847069A05AB9A4252
S31508008CF003D01046002AF4D1F4E7049B1B6904A8A4
S31508008D009847089B93B90C4B0493069A05AB9A426D
S31508008D100ED1059A72B1069B63B15360059A1A6023
S31508008D20002305930693284610B070BDA6F062FA94
S31508008D30A6F060FAA6F05EFAB0160B08EC160B0859
S31508008D404C491008607410088C160B0864170B0839
S31508008D5044170B0808B50146029852F007FB08BDF0
S31508008D602DE9F043A1B00646884699460123ADF899
S31508008D7018200022ADF81A200622079208938DF8CB
S31508008D802430382056F0D4F80446002830D02899E4
S31508008D9018A8FFF746FD299914A8FFF751FD0025E5
S31508008DA01295804B236020467F4B40F8043B18A958
S31508008DB0FFF737FD14A904F11400FFF741FD10A9C8
S31508008DC004F12400FFF770FD84F83450129B1BB1A0
S31508008DD0032210A908469847169B1BB1032214A91B
S31508008DE0084698471A9B1BB1032218A908469847B4
S31508008DF0002305930594002C57D021460AA8FFF7AF
S31508008E003BFD04F124051CAF0AA93846FFF74CFDC3
S31508008E1002AB97E8030083E8030095E8030087E8B8
S31508008E20030093E8030085E803001E9BAA681E92C8
S31508008E30AB601F9BEA681F92EB601E9B1BB1032267
S31508008E403946384698470C9B1BB103220AA908469F
S31508008E5098472A9B1D78942056F06AF8074620B151
S31508008E602B46324621463BF097FA00230493049793
S31508008E70EFB1002206A938463BF018FD0546002842
S31508008E8078D0ADB92B9B1B788DF8383013B12B9B56
S31508008E905B680F930EAA414638463BF001FE05462D
S31508008EA030B900250595049502E00B253EE00B2513
S31508008EB0049C002C38D0002C36D026463B4B46F86E
S31508008EC0803B3B4BC4F88030B06808B14DF03EFD9E
S31508008ED00023B360706808B14DF038FD0023736055
S31508008EE0344BC4F88030A06C08B14DF02FFD002338
S31508008EF0A364261D304B6360B3686BB100225A62C7
S31508008F00B0684BF075FA20B9B3681B8913F0400FA7
S31508008F1002D0B0684BF063FB0023B360274B636055
S31508008F202360204656F02AF800230493059CDCB1FA
S31508008F30D4B120461C4B40F8243B836813B1032266
S31508008F400146984704F11400836813B103220146C9
S31508008F509847201D836813B1032201469847114B91
S31508008F602360204656F00AF800230593284621B0C8
S31508008F70BDE8F08338463BF003FC80B1CDF800909D
S31508008F8001224FF0FF33FFF7E5FE054600287FF480
S31508008F9078AF2A9938463BF0EAFC054671E703257F
S31508008FA06FE700BF84170B08A0170B084C49100879
S31508008FB0607410088C160B0864170B0844170B0806
S31508008FC02DE9F0438FB004460D4616461F460DF1AF
S31508008FD0140816994046FFF724FC0DF12409179941
S31508008FE04846FFF72DFC00238DF83430189B039371
S31508008FF00DAB0293CDF80490CDF800803B4632467F
S3150800900029462046FFF7ACFE04460B9B1BB10322FC
S31508009010494648469847079B1BB1032205A90846B7
S31508009020984720460FB0BDE8F083000070B590B0B1
S3150800903005461E460024ADF82840ADF82A4006230A
S315080090400B9301230C9302238DF83430ADF82A20B4
S315080090505D4B049305AB059306938DF81C40089465
S315080090605A4B0493ADF824208DF81C10942055F023
S315080090705FFF044620B100232A4619463BF08CF9C7
S31508009080002303930394CCB100228DF83C200AA94F
S3150800909020463BF00BFC0546002854D07DB904A8B1
S315080090A00E90049BDB6898470EA920463BF0A4FC6B
S315080090B005460E9803681B69984700E00B25002CA7
S315080090C038D0002C36D02646414B46F8803B414BDB
S315080090D0C4F88030B06808B14DF038FC0023B3609E
S315080090E0706808B14DF032FC002373603A4BC4F83F
S315080090F08030A06C08B14DF029FC0023A364261D1E
S31508009100364B6360B3686BB100225A62B0684BF0A5
S315080091106FF920B9B3681B8913F0400F02D0B06805
S315080091204BF05DFA0023B3602D4B63602360204645
S3150800913055F024FF00230393244B049304A80290BC
S31508009140DB68984718E020463BF01AFB70B100969A
S3150800915001224FF0FF33FFF7FDFD054600289DD19C
S315080091600FA920463BF003FC054697E7032595E73C
S31508009170101F03689B689847069A05AB9A4203D066
S315080091801046002AF4D1F4E7049B1B6904A8984703
S31508009190089B93B90C4B0493069A05AB9A420ED1D9
S315080091A0059A72B1069B63B15360059A1A6000234B
S315080091B005930693284610B070BDA6F01BF8A6F0D6
S315080091C019F8A6F017F800BFB0160B08EC160B082E
S315080091D04C491008607410088C160B0864170B08A5
S315080091E044170B0808B50146029852F0A8F808BDBE
S315080091F02DE9F043A1B0064688469946ADF81820F1
S315080092000023ADF81A3006220792089301238DF839
S315080092102430382055F08CFE0446002830D0289992
S3150800922018A8FFF7FEFA299914A8FFF709FB0025E5
S315080092301295804B236020467F4B40F8043B18A9C3
S31508009240FFF7EFFA14A904F11400FFF7F9FA10A9C9
S3150800925004F12400FFF728FB84F83450129B1BB155
S31508009260032210A908469847169B1BB1032214A986
S31508009270084698471A9B1BB1032218A9084698471F
S31508009280002305930594002C57D021460AA8FFF71A
S31508009290FFFA04F124051CAF0AA93846FFF704FBB8
S315080092A002AB97E8030083E8030095E8030087E824
S315080092B0030093E8030085E803001E9BAA681E9234
S315080092C0AB601F9BEA681F92EB601E9B1BB10322D3
S315080092D03946384698470C9B1BB103220AA908460B
S315080092E098472A9B1D78942055F022FE074620B100
S315080092F02B46324621463BF04FF800230493049749
S31508009300EFB1002206A938463BF0D0FA05460028F8
S3150800931078D0ADB92B9B1B788DF8383013B12B9BC1
S315080093205B680F930EAA414638463BF0B9FB0546E3
S3150800933030B900250595049502E00B253EE00B257E
S31508009340049C002C38D0002C36D026463B4B46F8D9
S31508009350803B3B4BC4F88030B06808B14DF0F6FA54
S315080093600023B360706808B14DF0F0FA002373600B
S31508009370344BC4F88030A06C08B14DF0E7FA0023EE
S31508009380A364261D304B6360B3686BB100225A6232
S31508009390B0684BF02DF820B9B3681B8913F0400F5D
S315080093A002D0B0684BF01BF90023B360274B63600B
S315080093B02360204655F0E2FD00230493059CDCB1AA
S315080093C0D4B120461C4B40F8243B836813B10322D2
S315080093D00146984704F11400836813B10322014635
S315080093E09847201D836813B1032201469847114BFD
S315080093F02360204655F0C2FD00230593284621B078
S31508009400BDE8F08338463BF0BBF980B1CDF8009053
S3150800941001224FF0FF33FFF7E5FE054600287FF4EB
S3150800942078AF2A9938463BF0A2FA054671E7032534
S315080094306FE700BF84170B08A0170B084C491008E4
S31508009440607410088C160B0864170B0844170B0871
S315080094502DE9F0438FB004460D4616461F460DF11A
S31508009460140816994046FFF7DCF90DF124091799F7
S315080094704846FFF7E5F900238DF83430189B039327
S315080094800DAB0293CDF80490CDF800803B463246EA
S3150800949029462046FFF7ACFE04460B9B1BB1032268
S315080094A0494648469847079B1BB1032205A9084623
S315080094B0984720460FB0BDE8F0832DE9F041A4B0E7
S315080094C015461C4601282FD0022804D0002854D05F
S315080094D024B0BDE8F081B1F80C8006AE4FF000016B
S315080094E03046FEF705FE0AAF4FF000013846FEF794
S315080094F00BFE00238DF838300EAB029301970096C9
S3150800950005AB424621462846FFF714FB0C9B1BB1C8
S315080095100322394638469847089B002BD8D00322A1
S3150800952006A908469847D3E7B1F80C8010AE4FF065
S3150800953000013046FEF7DCFD14AF4FF00001384657
S31508009540FEF7E2FD00238DF8603018AB0293019711
S31508009550009605AB424621462846FFF731FD169B85
S315080095601BB10322394638469847129B002BAFD0C9
S31508009570032210A908469847AAE7B1F80C801AAE44
S315080095804FF000013046FEF7B3FD1EAF4FF0000165
S315080095903846FEF7B9FD00238DF8883022AB0293D2
S315080095A00197009605AB424621462846FFF750FF2D
S315080095B0209B1BB103223946384698471C9B002B33
S315080095C086D003221AA90846984781E770B590B055
S315080095D005461E460024ADF82840ADF82A40062365
S315080095E00B930C9402238DF83430ADF82A205D4B8A
S315080095F0049305AB059306938DF81C4008945A4BC3
S315080096000493ADF824208DF81C10942055F090FC96
S31508009610044620B100232A4619463AF0BDFE002327
S3150800962003930394CCB100228DF83C200AA9204666
S315080096303BF03CF90546002854D07DB904A80E90A5
S31508009640049BDB6898470EA920463BF0D5F90546EA
S315080096500E9803681B69984700E00B25002C38D044
S31508009660002C36D02646414B46F8803B404BC4F882
S315080096708030B06808B14DF069F90023B3607068AE
S3150800968008B14DF063F9002373603A4BC4F8803093
S31508009690A06C08B14DF05AF90023A364261D364B79
S315080096A06360B3686BB100225A62B0684AF0A0FEE4
S315080096B020B9B3681B8913F0400F02D0B0684AF08E
S315080096C08EFF0023B3602D4B63602360204655F060
S315080096D055FC00230393244B049304A80290DB68EB
S315080096E0984718E020463BF04BF870B100960122E7
S315080096F04FF0FF33FFF776FD054600289DD10FA9E9
S3150800970020463BF034F9054697E7032595E7101FF1
S3150800971003689B689847069A05AB9A4203D0104699
S31508009720002AF4D1F4E7049B1B6904A89847089B10
S3150800973093B90C4B0493069A05AB9A420ED1059A37
S3150800974072B1069B63B15360059A1A6000230593AC
S315080097500693284610B070BDA5F04CFDA5F04AFD4D
S31508009760A5F048FDB0160B08EC160B084C49100876
S31508009770607410088C160B0864170B0844170B083E
S3150800978000B583B001280CD0022803D080B103B0FD
S315080097905DF804FB01AB0A8A49780948FFF700FA25
S315080097A0F5E701AB0A8A49780548FFF73FFCEEE77B
S315080097B001AB0A8A49780248FFF708FFE7E700BFC6
S315080097C0F80E0220F0B583B04AB105460C46164697
S315080097D00378032B09D0012B12D003B0F0BD204A21
S315080097E0012100204AF01AFDF7E7127B002AF2D081
S315080097F0B368062BF1D101467068FFF7C1FFECE7A5
S31508009800307B0028E9D1B368062BE6D11CB3E368A0
S315080098101BB123689B6A20469847E0B1776823689E
S315080098209B692046984706462368DB6921466846B1
S3150800983098479DF8003083B101AB32462946384631
S31508009840FFF73BFE9DF80030002BC6D00198036851
S315080098501B699847C1E7A5F0CDFCA5F0CBFC00BF76
S315080098605C160B0800B583B0019183682BB1C368F9
S3150800987001A9984703B05DF804FBA5F037F808B5C9
S315080098802430FFF7EFFF08BD024A0260024A026071
S31508009890704700BFD840100820180B08012800D0D0
S315080098A0704708B54FF6FF73994200D008BD034AC2
S315080098B003490448A4F0D1FFF8E700BF00000020E0
S315080098C0899800086000002010B50446044B036020
S315080098D0044B03600821A4F0C5FF204610BD00BF55
S315080098E0D840100820180B0810B5FDF722FD1B48B4
S315080098F0FEF7E0F850BB1A4C1A4BD3F85C12204618
S315080099004CF0F2FD20464CF0FBFD174C204657F074
S3150800991045FC65F04FFD5DF03FFA204657F04FFCD9
S31508009920124857F069F91248FEF726FB90B9114814
S3150800993057F062F906F0A5F84AF00EFB0E4857F004
S315080099405BF9AC20FDF7F0FA002010BDAC20FDF75E
S31508009950EBFAD0E7AC20FDF7E7FAE8E7B4170B080F
S31508009960600000201023022048A00120C8170B0819
S3150800997004A90020DC170B08F8170B0870B5044675
S31508009980044D2B689E6802F050FB02462146284685
S31508009990B04770BD04A9002008B54FF6FF71012035
S315080099A0FFF77CFF08BD08B511F054F908BD00693A
S315080099B018B108B511F0DFF808BD704708B50023DF
S315080099C0C360836000220023C0E90023006910B148
S315080099D011B111F0C6F808BD11F0C8F8FBE7000090
S315080099E008B59FED077B80ED007B00228260C26090
S315080099F001611146FFF7E2FF08BD00BFAFF3008023
S31508009A000000000000000000836823B370B582B030
S31508009A100446C368ABB1104B19680B68DB68684627
S31508009A209847009E019D206911F0AAF858B1A168CF
S31508009A30236862685B1842F10002B34272EB0503C1
S31508009A4003D302B070BDE168F2E72046FFF7AFFF27
S31508009A5026606560F5E770473803002008B5816021
S31508009A60C260FFF7D1FF08BD08B50A46FFF7F6FF43
S31508009A7008BD0000014B0422DA6470470020015B30
S31508009A8070B504460A694B6952EA03001ED0886815
S31508009A90C96810EB000C41EB010E1CEB000C41EB06
S31508009AA00E0E4FEA4E1545EADC654FEA4C161CEBDE
S31508009AB0060C4EEB050E1CEB000041EB0E01A5F063
S31508009AC009FA012323706070204670BD00232370B5
S31508009AD06370F9E7D0E9020170472D2070472D2001
S31508009AE070474FF4806070470023836070470023F7
S31508009AF043607047044A026020324260034A42606B
S31508009B00034A0260704700BF341A0B0844170B0853
S31508009B1014190B080346064A40F8042C203240F86C
S31508009B200429044A4260044A43F8042C704700BFDB
S31508009B30341A0B0844170B0814190B08024A02605A
S31508009B40024A0260704700BF30331008EC190B0850
S31508009B50024A0260024A0260704700BF903210084B
S31508009B6040190B0810B50446064B036020334360C2
S31508009B70054B4360054B03601021A4F073FE204695
S31508009B8010BD00BF341A0B0844170B0814190B082C
S31508009B9010B50446084B40F8043C203344F8043911
S31508009BA0064B6360064B40F8043C10212046A4F09F
S31508009BB059FE204610BD00BF341A0B0844170B087F
S31508009BC014190B0810B50446054B0360006B18B151
S31508009BD055F0D4F900232363024B2360204610BDB9
S31508009BE02C941008B8180B0810B50446054B0360EA
S31508009BF0406B08B14CF0AAFE00236363024B236056
S31508009C00204610BDB0281008EC180B0810B50446FD
S31508009C10174B03606433436000F51C704DF086FEF5
S31508009C2014F5EC7205D004F5147300E0183B9A425B
S31508009C30FCD1104BE3672033C4F880300E4BC4F8D0
S31508009C4080300E4BE36704F13800A36D13B1002290
S31508009C50A265984704F10800A36A13B10022A2621C
S31508009C609847074B6360074B2360204610BD00BF2B
S31508009C70742F1008341A0B0844170B0814190B080C
S31508009C8028190B0890190B0838B505460446194BD0
S31508009C9040F8043C643344F8043900F51B704DF071
S31508009CA045FE15F5EA7205D004F5147300E0183B75
S31508009CB09A42FCD1104BE3672033C4F880300F4B2F
S31508009CC0C4F880300E4BE36704F13800A36D13B176
S31508009CD00022A265984704F10800A36A13B100227E
S31508009CE0A2629847074B6360074B45F8043C204639
S31508009CF038BD00BF742F1008341A0B0844170B0818
S31508009D0014190B0828190B0890190B0810B50446E6
S31508009D10054A01210C204AF081FAE06810B103686F
S31508009D209B68984710BD00BF48180B0810B5044635
S31508009D30054A01210C204AF071FAA06810B103689F
S31508009D409B68984710BD00BF48180B0830B583B00C
S31508009D50C068D8B10D4614461A68019200221A60E6
S31508009D6001AA214627F08EFB019808B14CF0EEFDBA
S31508009D70002301930C4B1B680093A3886BB12B89B6
S31508009D8043F040032B81002003B030BD074A012170
S31508009D900C204AF043FA0020F6E7E388002BEED1C0
S31508009DA02378402BEBD1EEE76C1A0B085C180B08EE
S31508009DB030B583B08068D8B10D4614461A6800924B
S31508009DC000221A606A46214627F05CFB009808B113
S31508009DD04CF0BCFD002300930C4B1B680193A38831
S31508009DE06BB12B8943F040032B81002003B030BDB3
S31508009DF0074A01210C204AF011FA0020F6E7E38809
S31508009E00002BEED12378402BEBD1EEE76C1A0B082A
S31508009E105C180B08F0B587B006460C46224A0321A3
S31508009E2015204AF0FBF9B568002D2DD00023ADF8B2
S31508009E3010301E4B1B68039323893BB31C4A1268D8
S31508009E40039253B30123ADF81030277B60684CF0BA
S31508009E5018FD6368059304AB009305AB3A46A16801
S31508009E6028464AF077FD0446059808B14CF06EFD81
S31508009E70002305932CB1B06818B14AF097FB00236C
S31508009E80B360204607B0F0BD0320FBE76289022ACB
S31508009E90D4D1227B142AD1D1D7E76389002BD1D11B
S31508009EA0237B402BCED1D0E790180B08701A0B08ED
S31508009EB06C1A0B08012800D070474FF6FF739942B9
S31508009EC0FAD170B58AB04C4B4C4A1A604C4A5A6063
S31508009ED04C4A1A6064325A6003F10802DA609A60E2
S31508009EE000229A62DB6248491963CDF804D0CDF89E
S31508009EF000D0089203F13801D96399639A65DB6546
S31508009F00424919669A66DA661A6783F874209A6768
S31508009F103F49D9673F49C3F880103F49D96720317F
S31508009F20C3F8801083F8AC20C3F8B820C3F8BC2067
S31508009F30C3F8C020C3F8C420C3F8C821C3F8CC218D
S31508009F4083F8D021C3F8D421042203F5EC7303E087
S31508009F50002103F8181B013A002AF9DA26480024DA
S31508009F60C0F850420523C0F8543280F85842C0F869
S31508009F707442C0F87842294BC0F8703280F87C42A7
S31508009F80274E32462749A4F068FC32462649274818
S31508009F90A4F063FC324626492648A4F05EFC264D0A
S31508009FA0264B2B606C602C722846254B40F8103BDC
S31508009FB06BF0B2F9C5F8D040C5F8D440C5F8D8401A
S31508009FC0C5F8DC4032461F492846A4F046FC1E4820
S31508009FD01E4B036000220023C0E90223C0E90423C4
S31508009FE01B4B03608461C4610463446332461949A8
S31508009FF0A4F033FC0AB070BD38AA002090190B08EB
S3150800A00028190B08742F100869380308B5230308A4
S3150800A01014190B0844170B08341A0B08B8761008DD
S3150800A020000000200D9C00083D9B000868000020E9
S3150800A030519B00087000002020A90020EC180B088E
S3150800A040B0281008E99B000800AA0020B8180B08D9
S3150800A0502C941008C59B0008F0B583B00F4F3846FE
S3150800A06027F0F0FF0E4901F54053D3F85C320D4A4C
S3150800A07053600D4E0D4D00953346384628F0EEFCDC
S3150800A0800B4B33610B4C22463946304629F09AFF72
S3150800A090094B636325626C6003B0F0BD38AA0020E3
S3150800A0A010F30120680000207000002020A900207D
S3150800A0B08051010000AA0020A4180B0810B5044618
S3150800A0C0194B03606433436000F51C704DF02EFC99
S3150800A0D014F5EC7205D004F5147300E0183B9A42A7
S3150800A0E0FCD1124BE3672033C4F88030104BC4F818
S3150800A0F08030104BE36704F13800A36D13B10022DA
S3150800A100A265984704F10800A36A13B10022A26267
S3150800A1109847094B6360094B23604FF42271204628
S3150800A120A4F0A0FB204610BD742F1008341A0B08A3
S3150800A13044170B0814190B0828190B0890190B0853
S3150800A14038B5054604461B4B40F8043C643344F8CE
S3150800A150043900F51B704DF0E9FB15F5EA7205D0D8
S3150800A16004F5147300E0183B9A42FCD1124BE367DE
S3150800A1702033C4F88030114BC4F88030104BE367A5
S3150800A18004F13800A36D13B10022A265984704F1C3
S3150800A1900800A36A13B10022A2629847094B6360BC
S3150800A1A0094B45F8043C4FF422712046A4F05AFBAB
S3150800A1B0204638BD742F1008341A0B0844170B08AC
S3150800A1C014190B0828190B0890190B0810B5044622
S3150800A1D0044B0360044B03600821A4F043FB2046AC
S3150800A1E010BD00BF30331008EC190B0810B5044633
S3150800A1F0044B0360044B03601C21A4F033FB204688
S3150800A20010BD00BF9032100840190B0810B504465F
S3150800A210074B0360406B08B14CF098FB002363635F
S3150800A220044B2360E0212046A4F01CFB204610BD09
S3150800A230B0281008EC180B0810B50446074B036045
S3150800A240006B18B154F09AFE00232363044B236075
S3150800A25038212046A4F006FB204610BD2C94100891
S3150800A260B8180B0808B54FF6FF710120FFF722FE54
S3150800A27008BD000008B518B9054B05221A7008BDB7
S3150800A280034B01221A70034856F0B6FCF7E700BFE5
S3150800A290C0AC0020741A0B08002A3BD02DE9F04107
S3150800A2A007460E4614463B2A00D83C2497F8F85031
S3150800A2B0711997F8A430302B0CD007F1F9082A4603
S3150800A2C04046A5F0B3F928B92A4631464046A5F0D6
S3150800A2D0ADF9C8B90322214604202DF0E4FF8046D3
S3150800A2E090B10446002507E0628971196068A5F0F7
S3150800A2F0ADF963891D442468002CF5D1D7F8D4300C
S3150800A30039464046984708B9BDE8F08140462DF0E1
S3150800A31098FFF9E7704700002DE9F04383B00C4633
S3150800A3200B46002502E05A8915441B68002BFAD112
S3150800A3303B2D1BD8C5F13C0905EB090818F03F0F62
S3150800A34017D028F03F024C32002101A800F076FA17
S3150800A350064688B9019F0C37ACB162896168B8199D
S3150800A360A5F074F963891E442468F5E74FF00009DF
S3150800A370E2E708F10C02E7E72946174856F03CFCE5
S3150800A3804FF0FF301EE0B9F1000F02D1002301247F
S3150800A3900EE04A460021B819A5F07FF94546F5E7CB
S3150800A3A000231A462946019811F084FD04463346CF
S3150800A3B014B15E1C092BF3DD0021019800F049FA5F
S3150800A3C01CB9002003B0BDE8F0832946034856F0BF
S3150800A3D013FC6FF00B00F5E7841A0B08A81A0B0894
S3150800A3E010B582B00446062380F8F8306946002086
S3150800A3F001F024F99DF8003084F8F9309DF8013011
S3150800A40084F8FA309DF8023084F8FB309DF8033062
S3150800A41084F8FC309DF8043084F8FD309DF805304A
S3150800A42084F8FE3040F2DC53A4F8F63094F8013193
S3150800A43043F02A0384F8013143F0400384F80131DC
S3150800A44002B010BDC37813F0060F00D0704710B5E0
S3150800A4500446002000F088F828B161792144E28892
S3150800A4600831FFF719FF10BD08B5732280F80221DD
S3150800A470742280F80321064AC0F8D820054AC0F895
S3150800A480E020054AC0F8DC20FFF7AAFF002008BD37
S3150800A49045D30308C5E8030819A3000820B310B577
S3150800A4A094B00446002305930693079308938DF802
S3150800A4B024300A930B930C930D938DF838300F9331
S3150800A4C01093119312938DF84C30084A0292084A59
S3150800A4D0019200930FAB0AAA05A92DF071FC20463C
S3150800A4E02DF004FD14B010BD704700BF31220408DA
S3150800A4F069A4000810B50A4C00220A49204637F01C
S3150800A5001BFE00220849204637F016FE0120FFF7F9
S3150800A510B1FE012184F8F41020462DF0B7FD10BDD8
S3150800A520C4AC0020F97E0308497F030810B5002053
S3150800A530FFF7A0FE054C00220549204637F0FCFD32
S3150800A54000220449204637F0F7FD10BDC4AC0020B0
S3150800A5507B7F03081D7F030808B500210148FFF724
S3150800A5609DFF08BDC4AC002008B90248704700200A
S3150800A570704700BFC4AC00207047000030B587B0F4
S3150800A58004460D461349144856F036FB012C06D0EE
S3150800A59022461049114856F02FFB07B030BD0D4929
S3150800A5A00F4856F029FB002101910291039104916D
S3150800A5B00591C3238DF806301423ADF804302868B6
S3150800A5C00390AB88ADF8103001AA064856F026FF6E
S3150800A5D0E3E700BFE01A0B08D01A0B08F81A0B08B5
S3150800A5E0181B0B0840A0012010B582B00446264966
S3150800A5F0264856F001FB0023019374B101238DF818
S3150800A60006300423ADF804300DEB0302012120487F
S3150800A61056F004FF1CB902B010BD0223EFE7012073
S3150800A6200EF0CAFF1B4856F0B9FD1B4BD3E88F3F07
S3150800A63013F0010F06D0194867F05EFF154856F06B
S3150800A640BEFDE8E71448A4F00FF90028F3D0134C30
S3150800A65000236360A36041F2A452A28141F2AE5284
S3150800A660E2812361237500200021C4E9060184F8EC
S3150800A67020300123A3620848A4F002F9084A0949D0
S3150800A6802046A4F0EAF8D6E7281B0B08D01A0B08D0
S3150800A69040A0012048A00120D4AD0020D8AD00205C
S3150800A6A00000002079A5000800B583B00023ADF8A6
S3150800A6B006300B4B01221A700DF1060011F0B4FF9B
S3150800A6C0024628B9BDF80630C3F30B03002BF3D1B5
S3150800A6D0034B00211970104603B05DF804FB00BF58
S3150800A6E0C0BE002008B5094856F086FA00F0F4FA0C
S3150800A6F04FF0FF32012100200FF032FB00F0FCFA88
S3150800A700FFF7D2FF00F006FBF2E700BF381B0B0885
S3150800A71000B585B00B4B02930B4B019302230093B4
S3150800A72000234FF48062094909480EF03BFD094BA6
S3150800A730186010B105B05DF804FB074856F05CFADE
S3150800A740F8E700BF08BE002008AE0020501B0B0823
S3150800A750E5A60008C4BE0020581B0B0800B583B048
S3150800A760144856F049FA00230093134B134A012163
S3150800A77008460DF07DFE124B1860A8B1032300931E
S3150800A780104B0022114601200DF072FE0E4B186088
S3150800A79060B10E4901200EF012F80D4B186038B161
S3150800A7A0002003B05DF804FB0120FAE70120F8E772
S3150800A7B00120F6E76C1B0B08D8BE0020D4BE00208B
S3150800A7C028BF002084BF002030BF002034BF0020EF
S3150800A7D02CBF002008B5044856F00EFA034B00209B
S3150800A7E01860586008BD00BF7C1B0B08C8BE002057
S3150800A7F010B4064B064C1A68144404601A680A44D6
S3150800A8001A6000205DF8044B704700BFC8BE0020E0
S3150800A810281E0B08014B03600020704750BC04003B
S3150800A820024B53F8213003600020704778DA0F088E
S3150800A83006230380002070470020704710B50446A1
S3150800A8401046FCF763FC206008B1002010BD01200B
S3150800A850FCE708B5FCF704FD002008BD10B5044662
S3150800A86003F019FD34B1054B20221A6703F019FDD0
S3150800A870002010BD024B20221A67F7E700D00350CC
S3150800A88000E0035038B5094C04F5005320251D6433
S3150800A8900A200EF091FE04F58054256403200EF07C
S3150800A8A08BFE0020024B586038BD00BF00C0035025
S3150800A8B0C8BE002010B5054C002120680EF020F90E
S3150800A8C0032120680EF01CF9002010BD30BF0020BF
S3150800A8D008B54FF47A7300FB03F30648A0FB032080
S3150800A8E08009B3F57A7F00D20A200EF065FE0020B3
S3150800A8F008BD00BFD34D6210024B18720020587273
S3150800A900704700BFC8BE0020F0B583B006460D46A6
S3150800A9101746002400E00134AC4212D201220DF1A0
S3150800A9200701094B18680EF049F80128F3D19DF87C
S3150800A9300730B342EFD117B1044B1B683B600020C8
S3150800A94000E0072003B0F0BD28BF002010E7002074
S3150800A95008B54FF4FA71064B18680EF0D1F80128BD
S3150800A96001D1002008BD034856F046F90720F9E74B
S3150800A9702CBF00208C1B0B0808B500231A46194665
S3150800A980024800680DF054FE002008BD2CBF0020C8
S3150800A99038B5044600F000FC05460E4B1A7AA37833
S3150800A9A09A4201D0284638BD2288B2F5007FF9D2EE
S3150800A9B02146094B1868A4F049FE214611F8022FD2
S3150800A9C0044B5A7202230022044800680DF030FE38
S3150800A9D0E8E700BFC8BE002010E7002028BF002017
S3150800A9E008B510F031FF08BD40F6083070470FB4BF
S3150800A9F000B583B004A951F8040B0191A5F062FCD7
S3150800AA0003B05DF804EB04B07047000000B583B0EE
S3150800AA100023019301A9084B18680DF06FFF019BED
S3150800AA202BB14FF0E0234FF08052C3F8042D0120DC
S3150800AA3003B05DF804FB00BFE4BF0020124B1B788F
S3150800AA40834200D0704710B582B0104BD3F820244B
S3150800AA5003F50053C3F820240024019401A90C4BE4
S3150800AA6018680DF04BFF01AA21460A4B18680FF02B
S3150800AA70C5F9019B2BB14FF0E0234FF08052C3F884
S3150800AA80042D02B010BD00BFDC00002000C003503A
S3150800AA9030BF0020C4BE002000B583B00120124B91
S3150800AAA01870124B1B68596A114A11609A6A114B41
S3150800AAB01A60114A936843F0004393600F4B1C22B7
S3150800AAC0C3F82027032300930D4B002211460DF0EF
S3150800AAD0CFFC0C4B186000231A4619460DF0A8FD4A
S3150800AAE0002003B05DF804FBE0BF00204801002009
S3150800AAF0E8BF0020DCBF002000C0055000C003509E
S3150800AB00ECBF0020E4BF002038B50C4B18680EF0E7
S3150800AB1069F90B4C206801F00BFD0A4D286801F015
S3150800AB2007FD286801F070FC206801F06DFC01F053
S3150800AB3045FC054810F042FD002038BDE4BF002062
S3150800AB40DCBF0020E8BF002000C00550024B0122F0
S3150800AB50C3F8A0200020704700E00350024B0122F2
S3150800AB60C3F8A0200020704700D0035030B587B046
S3150800AB7002460D46002404940D4B0393029401915A
S3150800AB80012300930B4B4FF480210B48006801F01A
S3150800AB90B4FC04940394029401950094074B084A64
S3150800ABA008490948006801F08DFC07B030BD00BFB0
S3150800ABB00DAA000824C00550DCBF0020D8BF00201D
S3150800ABC03CC0055002000400E8BF002070B586B0FE
S3150800ABD006460D46002404940D4B039302940191F6
S3150800ABE000940C4B0C4A4FF480210C48006801F085
S3150800ABF084FC04940394029401950123009333463C
S3150800AC00074A08490848006801F05CFC06B070BDB0
S3150800AC100DAA000824C00550D4BF0020DCBF0020C0
S3150800AC203CC0055002000400E8BF002070B5044689
S3150800AC301D46BDF81060264B9B6913F0400FFAD0ED
S3150800AC40234B4FF4406058616AB9A6B9012070BD1C
S3150800AC5008781F4BD8631E4B9B6913F0200FFAD058
S3150800AC60013A92B20131002AF2D1194B9B6913F0CD
S3150800AC70400FFAD0E9E7164B4FF440625A614FF09D
S3150800AC80FF31144B18680DF03BFF012801D007204F
S3150800AC90DDE7022C0DD031462846FFF797FF4FF027
S3150800ACA0FF310C4B18680DF02BFF012806D0002049
S3150800ACB0CDE731462846FFF759FFF0E700231A4645
S3150800ACC01946044800680DF0B3FC0020BFE700BF32
S3150800ACD000C00550E4BF002000B583B001230193EE
S3150800ACE000200090034A1278082103F041FC03B0C3
S3150800ACF05DF804FBDC000020044B1A78012393401E
S3150800AD00034AC2F824340020704700BFDC00002044
S3150800AD1000E00350044B1A7801239340034AC2F813
S3150800AD2024340020704700BFDC00002000D0035008
S3150800AD3010B582B0204C2178204855F05DFF0121DE
S3150800AD403A2002F003F9002304220521184603F0ED
S3150800AD50A3FC002304220521012003F09DFC002307
S3150800AD6002220821184603F097FC01F063FC002034
S3150800AD700190009001232278082103F0F9FB10497D
S3150800AD80207801F06FFC2278012393405AB2002AFA
S3150800AD9009DB03F01F035209012101FA03F36032AC
S3150800ADA0084941F82230074B502283F81A2383F8C2
S3150800ADB0192302B010BD00BFDC00002090DA0F088E
S3150800ADC03DAA000800E100E008B5024855F014FF66
S3150800ADD008BD00BFA8DA0F0838B50C460A2937D8C7
S3150800ADE0DFE801F006363636363622262A2E3200B7
S3150800ADF00546254855F000FF244B28681860AA88A0
S3150800AE009A80234B1A6892F8223243F0020382F89A
S3150800AE10223202211F4B18680DF098F91CB11E4BFF
S3150800AE201978042918D938BD1C4855F0E5FEF5E708
S3150800AE301B4855F0E1FEF1E71A4855F0DDFEEDE74F
S3150800AE40194855F0D9FEE9E7184855F0D5FEE5E763
S3150800AE50174855F0D1FEE1E70131C9B21970154B13
S3150800AE6000221A70144855F0C7FE094B1A6892F862
S3150800AE70223203F0FE0382F822328021054B18683D
S3150800AE800DF064F9CFE700BFC8DA0F0840C000200C
S3150800AE9010E700205CC000204CC00020D8DA0F085C
S3150800AEA008DB0F0824DB0F0840DB0F0870DB0F08F0
S3150800AEB098DB0F085AC00020B8DB0F0808B5084809
S3150800AEC055F09AFE074B1A6892F8223203F0FD03F2
S3150800AED082F822320421044B18680DF037F908BDB0
S3150800AEE0E4DB0F0810E700205CC0002008B540210D
S3150800AEF0024B18680DF02AF908BD00BF5CC0002097
S3150800AF00F0B589B00446038EDC3BC3F3C03202FABF
S3150800AF1083F390F8242090F8251090F8260094F8EA
S3150800AF20275094F8287094F829C0261D0696CDF85F
S3150800AF3014C0049703950290019100925B10628DEC
S3150800AF402A4909782A4855F057FE2A4855F054FEEA
S3150800AF50294B186818B13146A5F0E1F838BB3020FE
S3150800AF60FCF7D4F8054620B3244B1A68026018602B
S3150800AF70226831460430A4F069FB23682B4400227A
S3150800AF801A7194F82C3013F0080F16D00B2385F895
S3150800AF902530638D85F82C30238EEB85636AC5F8DA
S3150800AFA02630238D6B85114A13780133137009B047
S3150800AFB0F0BD134855F020FEF9E713F0040F03D04F
S3150800AFC0022385F82530E4E713F0020F03D00123A6
S3150800AFD085F82530DDE713F0010F03D0032385F844
S3150800AFE02530D6E7002385F82530D2E73CC0002077
S3150800AFF0FCDB0F08D0EE0F0854C0002050C000201C
S3150800B00030DC0F0800B585B00D480CF0C3FF0D4BBA
S3150800B01018600D4B02930D4B0193012300930023F7
S3150800B0204FF480620A490B480EF0BCF80A4B1860C8
S3150800B03010B105B05DF804FB084855F0DDFDF8E7EA
S3150800B04064C000205CC0002084C000203CC10020F1
S3150800B05044DC0F0851B400083CD1002050DC0F082E
S3150800B060F0B587B0FFF7CEFF284811F0A3F90446DC
S3150800B0702749284855F0C0FD072C3FD00BD940F684
S3150800B08001339C4234D040F602339C423AD12248DE
S3150800B09055F0B2FD2FE02CB1012C33D11F4855F0E5
S3150800B0A0ABFD28E0194D95F8163295F8172295F854
S3150800B0B0181295F8190295F81A6295F81B720597F1
S3150800B0C00496039002910192009395F8003295F840
S3150800B0D0012295F80212124855F08EFD114855F0D6
S3150800B0E08BFD95F82232022B05D111F07BFA02E08E
S3150800B0F00D4855F081FD204607B0F0BD0B4855F0C8
S3150800B1007BFDF8E70A4855F077FDF4E740D10020C3
S3150800B11070DC0F0878DC0F0800DD0F0840DD0F082B
S3150800B12094DC0F08D0DC0F08E0DC0F0820DD0F08E0
S3150800B13054DD0F0808B5124B1B7813F0040F00D026
S3150800B14008BD104855F058FD0D4A137843F004031E
S3150800B1501370FFF7EDFDFFF783FF60B90A4855F056
S3150800B1604BFDFFF7F9F9094B012283F8222208481B
S3150800B17055F042FDE4E7074855F03EFDE0E700BF1D
S3150800B1803DC0002068DD0F0878DD0F0840D100209B
S3150800B1908CDD0F089CDD0F082DE9F0410546837804
S3150800B1A0C33B212B1AD8DFE803F01C2119191919FA
S3150800B1B019262C30191919191919191919191919BA
S3150800B1C019191919191919371119345C384855F00C
S3150800B1D013FD2A460021374856F020F90020BDE81D
S3150800B1E0F08141680830FFF7F7FDF7E74189043039
S3150800B1F0FFF764FEF2E70379002BEFD1FFF722F998
S3150800B200ECE70430FFF77CFEE8E74068FFF76EFEE0
S3150800B210E4E7FFF7D9FDE1E7274855F0EDFC2E46B0
S3150800B2204FF0000806E0254855F0E6FC08F110083E
S3150800B2301FFA88F82B884345D0D947464146204807
S3150800B24055F0DAFC00240F2CEDD83B192A889342D6
S3150800B250E9DA16F8011B1B4855F0CEFC0134E4B2B6
S3150800B260F1E74168184855F0C7FC2E464FF000082C
S3150800B27006E0124855F0C0FC08F110081FFA88F8D5
S3150800B2802B884345AAD9474641460D4855F0B4FC94
S3150800B29000240F2CEDD83B192A889342E9DA16F8D0
S3150800B2A0011B084855F0A8FC0134E4B2F1E700BFD9
S3150800B2B0B4DD0F0840A00120CCDD0F08D0EE0F0842
S3150800B2C0E4DD0F08F0DD0F08F8DD0F084FF0FF305A
S3150800B2D070474FF0FF3070474FF0FF30704700005F
S3150800B2E008B5094B1B7813F0010F09D143F0010388
S3150800B2F0054A1370FFF732FAFFF71CFF002008BD56
S3150800B300024855F079FCF9E73DC0002010DE0F0829
S3150800B31070B504468446244D00F12006AE46DCF896
S3150800B3200000DCF80410DCF80820DCF80C30AEE885
S3150800B3300F000CF1100C7546B445EFD19CF800309F
S3150800B3408EF80030184D412204F1210105F1210043
S3150800B350A4F07CF92946154855F04EFC94F862305D
S3150800B360013B0A2B1BD8DFE803F006101A1A1A1538
S3150800B3701A1A1A1A0B000C4B022283F8622070BDA7
S3150800B380094B062283F86220F9E7074B022283F865
S3150800B3906220F4E7044B022283F86220EFE7024BAF
S3150800B3A0042283F86220EAE764D3002028DE0F0827
S3150800B3B030B108B563220349A4F048F9012008BD55
S3150800B3C00020704764D3002008B563220021024894
S3150800B3D0A4F063F908BD00BF64D30020194B1B789D
S3150800B3E06BB3F0B589B0174C2146174855F004FCE5
S3150800B3F0022300226E21154855F0FEFB0222002189
S3150800B4006E2011F0FBF82046A4F09BFE054694F842
S3150800B410627004F121063046A4F093FE00220692DB
S3150800B420059280B204900396029201230193009735
S3150800B43013462946204610F02DFE09B0F0BD0E2011
S3150800B440704700BF64D3002040DE0F0850DE0F08A7
S3150800B450F0B58FB00020FFF787F8694B18600DF03C
S3150800B4608BFF064675E0674855F0C6FBFFF7B6FF43
S3150800B470654B01221A707EE00DF07EFF054606F147
S3150800B480FA0383427DD25E4B1B6893F8A430302BB7
S3150800B49001D0064675E05D4B1B780BB1064670E099
S3150800B4A00120FFF7A1F8594B01221A70584B1B7857
S3150800B4B00BB12E4665E057491046FFF75FF8544B27
S3150800B4C001221A702E465CE00020FFF78DF8002353
S3150800B4D04E4A13704E4A13704F4855F08DFB4F4A2B
S3150800B4E0137843F002031370FFF704F84CE00020CA
